:10000000F8C0000027C1000025C1000023C1000086
:1000100021C100001FC100001DC100001BC1000064
:1000200019C1000017C1000015C1000013C1000074
:1000300011C100000FC100000DC100000BC1000084
:1000400009C1000007C1000005C1000003C1000094
:1000500001C10000FFC00000FDC000000C94462557
:10006000F9C000000C9469280C949F28F3C000008C
:10007000F1C00000EFC00000EDC00000EBC00000C8
:10008000E9C00000E7C00000E5C00000E3C00000D8
:100090000C94F5280C942B29DDC00000DBC0000077
:1000A000D9C00000D7C00000D5C00000D3C00000F8
:1000B000D1C00000CFC00000CDC00000CBC0000008
:1000C000C9C00000C7C000000C949F220C94812975
:1000D0000C94B729BFC000000C940D2A0C94432A3D
:1000E000B9C0000000000A0B02090C0D0E0807033E
:1000F00004010000000000000000000000000000FB
:1001000000000000000000000000000000000000EF
:1001100012111000000000000000000000000000AC
:100120000000000000000000000001021020200874
:100130000810204010204080020102010804020142
:1001400001020408102040808040201008040201B1
:10015000800402018040201008040201080402010A
:100160000102040810204080010204081020408091
:1001700005050505070508080808020202020A0A23
:100180000808040404040101010101010101030341
:10019000030303030303040707070C0C0C0C0C0CEC
:1001A0000C0C0202020206060606060606060B0BE9
:1001B0000B0B0B0B0B0B00002200250028002B0063
:1001C0002E003100340002010000050108010B017E
:1001D00000002100240027002A002D0030003300F9
:1001E00001010000040107010A01C8285429E0297F
:1001F0006C2A11241FBECFEFD1E2DEBFCDBF00E0DD
:100200000CBF12E0A0E0B2E0E0E6F6E500E00BBFD4
:1002100002C007900D92A43CB107D9F727E0A4ECE7
:10022000B2E001C01D92A13FB207E1F710E0C9EFB3
:10023000D0E000E006C021970109802FFE010E9456
:10024000FD2AC53FD10780E00807A9F70E94A12336
:100250000C942E2BD5CECF93DF93882349F0EB015E
:1002600081500E944D2699838883DF91CF91089514
:10027000FB0111821082F9CF0F931F938B019C0118
:1002800083E036952795179507958A95D1F70C53F6
:100290001D4F462F477021E030E0F90102C0EE0FFC
:1002A000FF1F4A95E2F7AF01F80120812423CB011B
:1002B0000196211102C090E080E01F910F910895F6
:1002C0000F931F938B019C0183E03695279517951B
:1002D00007958A95D1F7677081E090E001C0880F9B
:1002E0006A95EAF7F801EC53FD4F2081452B31F474
:1002F0008095822380831F910F910895822BFACFDE
:10030000CF92DF92EF92FF92CF93DF936B017C014C
:1003100060E086E3C816D104E104F10490F486E3BA
:100320008C0D0E94D626E6012196AE01C701B601CA
:10033000C7DFCE01DF91CF91FF90EF90DF90CF909C
:1003400008958C2DEECF882341F08150682F70E006
:1003500090E080E050E040E0B3CF0895611102C02A
:100360000C94D6266130E1F362E0FACF662319F0EF
:1003700061E00C94122760E0FCCF90E080E00895EB
:100380000F931F93009709F487C06115710509F455
:1003900083C000910602109107022091080230915B
:1003A00009020E3F1F4F2F4F3F4F09F066C04FEF1E
:1003B0005FEFBA0140930602509307026093080270
:1003C0007093090240910602509107026091080261
:1003D00070910902DC011296ED91FC91808191816E
:1003E000A281B3818093370390933803A09339039C
:1003F000B0933A0384819581A681B78180933303BA
:1004000090933403A0933503B09336038085918590
:10041000A285B38580932F0390933003A09331037B
:10042000B093320384859585A685B78580932B0389
:1004300090932C03A0932D03B0932E0310922703C7
:10044000109228031092290310922A0361D48DEA96
:1004500096E09093CE028093CD029093D002809349
:10046000CF0245D3009731F421E030E030933C03D4
:1004700020933B031F910F91089500910602109164
:1004800007022091080230910902DB010D931D93B0
:100490002D933C93139796CF8FEF9FEFEBCF8F92D7
:1004A0009F92AF92BF92CF92DF92EF92FF921F93F3
:1004B000CF93DF934B015C0110913E0382E090E00B
:1004C00090933C0380933B0381149104A104B104F5
:1004D00041F480913E03811104C080913D03C1E04D
:1004E0008111C0E0C12CD12C760180913E03811195
:1004F00006C080913D03811102C0CC23D1F083E07E
:1005000090E090933C0380933B03CC2371F1CCE9C2
:10051000DFEF111101C085D7CE01DF91CF911F917F
:10052000FF90EF90DF90CF90BF90AF909F908F9013
:1005300008956AE070E080E090E00E94B52580E1D7
:10054000C80E87E2D81EE11CF11C8FEF88169806B2
:10055000A806B80631F0C1E08C149D04AE04BF04B7
:1005600008F0C0E080E0F7D2C0CFD0E0C0E0D1CF4B
:10057000CF92DF92EF92FF920F931F93CF93DF936F
:100580008F3F910511F008F050C020913B0330914E
:100590003C032330310539F020913B0330913C037B
:1005A0002130310531F424E030E030933C032093D6
:1005B0003B036A017B01EC0182309105A0F011E060
:1005C000AE01C701B60192D2AB01BC01CE0111232D
:1005D000F9F0DF91CF911F910F91FF90EF90DF9095
:1005E000CF900C943A0C8C01000F111F03531D4F38
:1005F000D8018D919C91892B11F30E94440C029794
:10060000F1F6D801ED91FC91CE011995182FD8CFB4
:100610000E945C0C90E080E0DF91CF911F910F91E0
:10062000FF90EF90DF90CF9008958FEF9FEFF4CF82
:1006300080E091C2CF93DF9386E090E090933C03FB
:1006400080933B03E1D2EC01EDECF2E084E0DF01CA
:100650001D928A95E9F77DD610923C0310923B03D8
:10066000CE01DF91CF91089580913D03089580914F
:100670002603089560930602709307028093080290
:100680009093090290E080E00895CF92DF92EF927C
:10069000FF92C0900002D0900102E0900202F09020
:1006A0000302A70196016091E3077091E40780912E
:1006B000E5079091E6070E942924882341F0C09223
:1006C000E307D092E407E092E507F092E60768E3DB
:1006D00070E080E090E0D0DD9093E2078093E10746
:1006E00043E050E069ED77E0B6DD209104023091FF
:1006F0000502A091D907B091DA070E94052B6093FB
:10070000D5077093D6078093D7079093D80721E138
:1007100096958795779567952A95D1F78DE026DE92
:100720006091FD027091FE028091FF0290910003A2
:100730006F5F7F4F8F4F9F4F6093FD027093FE025C
:100740008093FF02909300030E942D249B01AC0133
:10075000609101037091020380910303909104035F
:100760000E9492246093F9027093FA028093FB0234
:100770009093FC02FF90EF90DF90CF900895CF927E
:10078000DF92EF92FF921F93CF93DF93E3EEF2E0BD
:1007900080E090E0A0E8BFEB82A393A3A4A3B5A35D
:1007A0008AE097EDA3E2BCE3868F978FA0A3B1A365
:1007B00086EA93E1A6E7BBE484839583A683B783A7
:1007C00081EF9DE5A5E6B0EE80879187A287B3878C
:1007D0008CE890E4A0E4BAE584879587A687B7877C
:1007E0008CEB90ECA8E6B3E0808B918BA28BB38B63
:1007F000A7EDB2E0B383A283E1EDF2E01196FC93A2
:10080000EE9380E392E09183808393838283958348
:10081000848387EF92E015969C938E93149787EECE
:1008200092E013969C938E93129789EF92E017961D
:100830009C938E931697CBEDD7E01882809100029F
:1008400090910102A0910202B091030288879987DA
:10085000AA87BB87C12CD12C7601C394C982DA82C6
:10086000EB82FC8268E370E080E090E049DD9F83EA
:100870008E8311E01D831C86CD86DE86EF86F88A86
:1008800061E08DE06BDD198BDF91CF911F91FF90BF
:10089000EF90DF90CF9008958091DB0781111DC00C
:1008A00081E08093DB078091DC079091DD07A091C8
:1008B000DE07B091DF070197A105B10571F48091C2
:1008C000E007882351F068E370E080E090E0D4DC3A
:1008D0009093E2078093E10736DD8091E70781116D
:1008E00003C081E08093E70708954F925F926F9273
:1008F0007F928F929F92AF92BF92CF92DF92EF92B0
:10090000FF920F931F93F894409016035090170393
:100910006090180370901903C0900A03D0900B03E5
:10092000E0900C03F0900D03452B09F0A4C09B014F
:10093000AC01241935094609570929013A010091EA
:1009400012031091130320911403309115034801F1
:100950005901840C951CA61CB71C80169106A20692
:10096000B306A0F400910E0310910F032091100321
:10097000309111030F5F1F4F2F4F3F4F00930E0316
:1009800010930F03209310033093110380921203EE
:1009900090921303A0921403B092150300910E03DA
:1009A00010910F03209110033091110380921A03CC
:1009B00090921B03A0921C03B0921D0300931E0390
:1009C00010931F0320932003309321036093160399
:1009D000709317038093180390931903A0E1B7E273
:1009E000A30192010E94142B6C0D7D1D8E1D9F1D75
:1009F00060930A0370930B0380930C0390930D0391
:100A0000009106021091070220910802309109021C
:100A10000F3F1F4F2F4F3F4FF1F0009106021091F3
:100A2000070220910802309109020E3F1F4F2F4FFD
:100A30003F4F89F0C0900602D0900702E090080274
:100A4000F090090221E08C149D04AE04BF0408F468
:100A500020E02093260378941F910F91FF90EF9050
:100A6000DF90CF90BF90AF909F908F907F906F90CE
:100A70005F904F9008954B015C0184189508A6087B
:100A8000B708A3019201261B370B480B590B6415BD
:100A9000750586059705D0F082169306A406B5065F
:100AA00040F420E030E0A90181149104A104B104D4
:100AB00091F4A0E1B7E20E94142BA7019601261B36
:100AC000370B480B590BCA01B901C5CF82169306E3
:100AD000A406B50670F7A0E1B7E2A50194010E9453
:100AE000142B6C0D7D1D8E1D9F1DB5CFFECECF939B
:100AF000DF9300D01F92CDB7DEB71C821B821A8213
:100B00001982109222031092230310922403109250
:100B10002503BE016F5F7F4FCE0103960E947022B6
:100B200069817A818B819C810E94601B009761F4AE
:100B3000BE016F5F7F4FCE0103960E947C226981C8
:100B40007A818B819C812ED50F900F900F900F9002
:100B5000DF91CF910895FF920F931F93CF93DF936F
:100B6000082F60E070E0CB010E94B525FF24F394CC
:100B70000E94491AEC01892B89F010E0CE3F8FEFDB
:100B8000D80769F0002361F160E070E0CB010E94BA
:100B9000B52581E090E0892B59F322C011E025D5DD
:100BA000EC01892B21F0CE3F8FEFD80759F71111B7
:100BB0001EC011E0229609F410E00E94F919EC0120
:100BC000892B21F0CE3F8FEFD807E1F6111111C02C
:100BD00011E0CE3F8FEFD80709F410E001110BC0F0
:100BE000CE01DF91CF911F910F91FF90089511E0F9
:100BF000E4CF11E0F3CF60E070E0CB010E94B525B7
:100C00001F25812F90E0C7CFCF93DF9380912603DC
:100C1000882321F060E070E0CB014CD635D6D0E0DF
:100C2000C0E0892B71F06AE070E080E090E00E9403
:100C3000B52581E090DF28D62196C03D27E0D20778
:100C400081F727D60E94B41B10923E0310923D03F9
:100C500010923703109238031092390310923A031E
:100C6000109233031092340310923503109236031E
:100C700010922F031092300310923103109232031E
:100C800010922B0310922C0310922D0310922E031E
:100C900010922703109228031092290310922A031E
:100CA0004EEF5FEF6FEF7FEF409306025093070226
:100CB000609308027093090210922603EAE1F3E0C0
:100CC00028E0DF011D922A95E9F710921603109291
:100CD0001703109218031092190310921203109226
:100CE0001303109214031092150310920E03109226
:100CF0000F03109210031092110310920A03109226
:100D00000B0310920C0310920D03DF91CF91089505
:100D100010924A0310924B0310924C0310924D0311
:100D2000109249038091520390915303909348038A
:100D3000809347031092460310924503109241039B
:100D400010924203109243031092440310924F03F7
:100D500010924E0390E080E00895CF92DF92EF92E0
:100D6000FF920F931F93CF938C01892B09F055C0ED
:100D7000209152033091530380914703909148038F
:100D800040915203509153035093480340934703BB
:100D90002817390781F010924603109245031092EC
:100DA00041031092420310924303109244031092A5
:100DB0004F0310924E038091520390915303019779
:100DC00061F580914E0390914F03892B21F480911E
:100DD0000A02811112C080914E0390914F03019736
:100DE000E1F48091410390914203A0914303B091BB
:100DF00044030197A105B10581F4109241031092BB
:100E00004203109243031092440310920A0282E0BC
:100E100090E090934F0380934E0380915203909102
:100E20005303019709F01CC18091680390916903F5
:100E30008017910709F014C18091640390916503B4
:100E4000A0916603B0916703009709F409C120914E
:100E5000630321110DC040916403509165036091BB
:100E6000660370916703452B462B472B09F4F8C0A6
:100E700020914E0330914F032230310509F0F0C02C
:100E8000209145032111ECC0FC01C080D180E2809B
:100E9000F38080914903882309F4D3C080915503DE
:100EA00090915603892B09F4FDC020915503309190
:100EB000560381E02230310509F080E0209155038E
:100EC00030915603C1E02130310549F0209155039E
:100ED00030915603C1E02230310509F0C0E088238B
:100EE00009F456C020915F03309160034091610383
:100EF00050916203C701B6010E948E2487FD14C081
:100F000020915F033091600340916103509162032F
:100F100060914A0370914B0380914C0390914D0373
:100F20000E94292487FD22C020915F033091600335
:100F30004091610350916203C701B6010E948E2463
:100F4000181634F520915F033091600340916103DE
:100F50005091620360914A0370914B0380914C035E
:100F600090914D030E942924811112C08091570352
:100F700090915803A0915903B0915A03892B8A2B61
:100F80008B2B19F481E08093460381E08093450325
:100F9000CC2309F456C020915F0330916003409147
:100FA000610350916203C701B6010E94292487FFA3
:100FB00014C020915F033091600340916103509110
:100FC000620360914A0370914B0380914C039091AE
:100FD0004D030E948E2487FF22C020915F03309131
:100FE00060034091610350916203C701B6010E9402
:100FF0002924811126C020915F0330916003409124
:1010000061035091620360914A0370914B03809198
:101010004C0390914D030E948E24181694F48091F5
:10102000570390915803A0915903B0915A03892B0B
:101030008A2B8B2B19F481E08093460381E0809307
:10104000450381E090914503911180E0809349032D
:10105000C0924A03D0924B03E0924C03F0924D03AE
:10106000012B09F067C180914E0390914F03892BAA
:10107000D9F4109254031092450380910A028823F8
:1010800079F082E090E090934F0380934E031092AA
:101090000A02209152033091530381E0232BE9F09F
:1010A00080E01BC081E00ACF10920A0280915403B5
:1010B000882349F01092460310924F0310924E037A
:1010C00010925403EDCF8091520390915303892BDA
:1010D000E1F0809145031092450320914E03309139
:1010E0004F032230310509F45EC088F42115310523
:1010F00009F448C02130310509F4F3C010924603C9
:10110000109245031092540338C081E0E6CF23309B
:10111000310509F4B1C02430310581F74091410314
:10112000509142036091430370914403411551056E
:101130006105710561F041505109610971094093E0
:1011400041035093420360934303709344034091DF
:101150004103509142036091430370914403452B36
:10116000462B472BD9F42091500330915103213065
:10117000310509F046C01092460310924F031092B9
:101180004E030CC080910A02882341F082E090E077
:1011900090934F0380934E0310920A0210923F03E4
:1011A00080914603CEC08823C9F380915703909164
:1011B0005803A0915903B0915A03181619061A063C
:1011C0001B060CF07DC08091520390915303019750
:1011D00009F076C08091570390915803A09159036C
:1011E000B0915A038093410390934203A093430329
:1011F000B093440383E090E090934F0380934E03B9
:10120000CDCF40915B0350915C0360915D03709181
:101210005E03452B462B472BA9F010924603809185
:101220005B0390915C03A0915D03B0915E0380939A
:10123000410390934203A0934303B093440381E09E
:1012400090E0DACF882399F080910B0290910C0204
:10125000A0910D02B0910E0280934103909342033E
:10126000A0934303B093440384E090E0C5CF109271
:10127000460382E090E0C0CF809141039091420309
:10128000A0914303B09144030097A105B10559F023
:101290000197A109B1098093410390934203A09360
:1012A0004303B09344038091410390914203A09182
:1012B0004303B0914403892B8A2B8B2B09F06ECF0B
:1012C00080910B0290910C02A0910D02B0910E0240
:1012D000892B8A2B8B2B09F44ECF81E08093460318
:1012E000B3CF409141035091420360914303709109
:1012F0004403411551056105710561F041505109E3
:101300006109710940934103509342036093430381
:101310007093440340914103509142036091430311
:1013200070914403452B462B472B09F037CF811191
:10133000C7CF9FCF80913F03882309F431CF80919D
:101340004003CF911F910F91FF90EF90DF90CF90CE
:10135000089510924A0310924B0310924C0310927E
:101360004D031092490310924F0310924E031092B6
:101370004803109247031092690310926803109279
:1013800046031092450310924103109242031092BB
:101390004303109244031092400310923F031092B3
:1013A0006403109265031092660310926703109213
:1013B000630310925F031092600310926103109216
:1013C000620388EE93E0A0E0B0E080930B0290937C
:1013D0000C02A0930D02B0930E0210925B031092C8
:1013E0005C0310925D0310925E03109257031092FB
:1013F00058031092590310925A03109256031092F8
:10140000550381E080930A02109254031092530313
:1014100010925203109251031092500390E080E01A
:1014200008958091520390915303892B19F580916F
:101430000A02882351F080915403811106C081E093
:101440008093400380933F0308952091540330918B
:101450000A0281E090E0332311F090E080E030E078
:1014600082239323892B21F01092400381E0EACF5D
:1014700010923F03089582E090E0FA019183808307
:101480008FEF9FEF0895CF93DF93EA01009711F05C
:101490000E94D41C1982188290E080E0DF91CF91E5
:1014A0000895DB01009719F48FEF8C9308952EEFC8
:1014B0002C93FC013F96EF30F10508F034C08827EB
:1014C000EB59F54F8F4F0C94FD2A910A8F0A8D0A24
:1014D0008B0A890A850A870A830A810A7F0A7C0A9D
:1014E000780A740A7A0A930A80E311968C93089515
:1014F00089E2FBCF82E2F9CF11961C92089583E234
:10150000F4CF81E2F2CF81E1F0CF87E2EECF8AE241
:10151000ECCF80E1EACF84E2E8CF88E2E6CF86E252
:10152000E4CF81E3E2CF80E2E0CF80917603909137
:1015300077030895909377038093760308958091BD
:101540007503089590917503892B80937503089511
:10155000982F909580917503892380937503089542
:10156000809174030895809172039091730308959C
:101570006115710559F0FB0130E020E070E060E09A
:101580002417350719F06115710511F0CB01089585
:10159000A081B181A817B90709F4BF012F5F3F4FA0
:1015A0003696EECF8091780381111CC060D266D24E
:1015B00090936B0380936A030E94D2140E94E414F8
:1015C00090936F0380936E030E9461190E946819C3
:1015D00090936D0380936C0381E08093780390E097
:1015E00080E0089584EF9FEF08958F929F92AF92CD
:1015F000BF92CF92DF92EF92FF920F931F93CF9300
:10160000DF9300D000D000D01F92CDB7DEB71A868E
:10161000198618861F821E821D821C821B821A82D6
:1016200019828091780307EF1FEF882309F49CC08B
:101630008E010D5F1F4F9E012B5F3F4FAE01495F33
:101640005F4FBE01675F7F4F90E080E00E94E51A28
:101650008C01009721F00596029708F0DBC02985E0
:101660003A852115310509F402C1ED80FE804B81D8
:101670005C81B701640F751F8F8198858617970766
:1016800008F4F5C0E20EF31ED7019C91903C09F0DE
:101690007FC04230510508F47BC011968C91409177
:1016A000760350917703452B09F49CC0913F08F0D5
:1016B00071C02CE1290F2D3008F48BC02DE2290FC9
:1016C000203108F489C0903C21F48150823008F424
:1016D00083C088E3890F8B3008F481C091E5C92E5F
:1016E0009AE0D92EEBE3FAE06D817E81AE014F5F87
:1016F0005F4F89859A8519955C01C114D104A1F1C8
:1017000089809A808114910479F18B819C8188155C
:10171000990508F487C010E000E04B815C8170E01F
:1017200060E0C7010E94272B01151105E9F44981EA
:101730005A8169857A858D819E81680F791FC501DF
:10174000F6011995E980FA800D811E812F81388577
:1017500049855A856FEF7FEF81E090E00E94801A03
:101760008C01892B09F056C0C8012A960FB6F8944F
:10177000DEBF0FBECDBFDF91CF911F910F91FF90C4
:10178000EF90DF90CF90BF90AF909F908F90089593
:1017900080E085CF30E020E0220F331FF901E659C9
:1017A000FC4F0190F081E02D309709F497CF892FFD
:1017B00090E01995009709F491CFDC011296ED9114
:1017C000FC9113971496CD90DC90309709F08CCF54
:1017D0001FC021E030E0E0CF22E030E0DDCF23E0A9
:1017E00030E0DACFD12CC12CE3E4FAE09F3F09F0DE
:1017F0007BCFE0916A03F0916B03309721F4C9012C
:1018000004EF1FEF0CC08FEF90E019950097A9F639
:1018100004EF1FEF89859A85009709F4A5CF0E94F0
:10182000D41CA2CF0E94AF1B8C0189859A850E948F
:10183000D41C70E060E0C4010E94481B98878F832D
:101840000E947D1A9E838D836F8178856115710555
:1018500059F0C8010E94601E9A87898706EF1FEF22
:10186000892B09F058CF59CF08EF1FEF56CF08EF5B
:101870001FEFD0CF20917803222319F020E00C94A1
:10188000E91487EF9FEF0895809176039091770395
:1018900008950E946D190E94C718F5D0EAE6F3E09A
:1018A00088E0DF011D928A95E9F71092780390E0B5
:1018B00080E008950C94251721E040E050E0BA0143
:1018C0000C94E91486E090E0FA019183808390E023
:1018D00080E0089547E050E063E372E049CEDF9294
:1018E000EF92FF920F931F93CF93DF938A01EC0146
:1018F000C60FD71FE0907C03F0907D03D9800E9433
:10190000971BD816190678F082E090E0F8019183D1
:1019100080838EEF9FEFDF91CF911F910F91FF900A
:10192000EF90DF900895EF2841F482E090E0F80115
:101930009183808384EF9FEFEECF898180937B0337
:1019400090E00196F8019183808390E080E0E3CFFE
:10195000CF93DF93EA010E94D617882321F00E94DB
:10196000A41B0E94D71782E090E0998388838BEFB5
:101970009FEFDF91CF910895CF93DF93EB0186E046
:10198000FB0111928A95E9F78FEF8883D8DD89836F
:10199000E7DD8A83E8DD9D838C83DF91CF91089515
:1019A000CF93DF93EA010E94D917811109C082E029
:1019B00090E09983888385EF9FEFDF91CF91089521
:1019C00090E080E0B7DD81E090E09983888390E04B
:1019D00080E0F3CF0F931F93CF93DF93EA018C0145
:1019E000060F171F0E94D91781110BC082E090E0EB
:1019F0009983888385EF9FEFDF91CF911F910F919E
:101A00000895F8018181823038F082E090E0998376
:101A100088838EEF9FEFF0CF81E090E08BDD88E050
:101A200090E09983888390E080E0E6CFCF93DF93C6
:101A30000097D1F4EB01FB01329686E0DF011D92A5
:101A40008A95E9F78FEF888385E089831A820E945F
:101A5000971B8B830E94961B9D838C8381E08E83D2
:101A60008F83DF91CF910895DF91CF911ACD8AE6D0
:101A70009CE090937A038093790308958091790391
:101A800090917A03089510927A0310927903089541
:101A900080917C0390917D030895411105C06115EB
:101AA00071058105910561F060937C0370937D035E
:101AB00080937E0390937F034093800381E0089599
:101AC00080E00895FF920F931F93CF93DF938A01D5
:101AD000EC01C60FD71FF9800E94971BF816190654
:101AE00068F082E090E0F801918380838EEF9FEFB1
:101AF000DF91CF911F910F91FF9008956C817D81AF
:101B00008E819F814B81C9DF811108C082E090E006
:101B1000F8019183808384EF9FEFEACF89818093DE
:101B20007B0390E00196F8019183808390E080E050
:101B3000DFCFCF93DF93EA01FC01E60FF71F64814B
:101B40007581868197814381A8DF811109C082E078
:101B500090E09983888384EF9FEFDF91CF91089580
:101B600081E090E09983888390E080E0F6CFECE715
:101B7000F3E04081518162817381480F511D611DE5
:101B8000711D40835183628373830895CF93C09105
:101B90007B034C2F50E060917C0370917D03019694
:101BA0000E941E2B8C2FE3DF10927B03CF910895B0
:101BB000009799F480917C0390917D032FEFFB01B6
:101BC0002083892B59F020917B0330E02F5F3F4F1A
:101BD0002417350719F4CB01D9CF63CC08950097AA
:101BE00099F480917C0390917D032FEFFB0120837A
:101BF000892B59F020917B0330E02F5F3F4F241752
:101C0000350719F4CB01C2CF4CCC089523E1AC01C8
:101C1000249FC001259F900D1124E0918503F09130
:101C20008603E80FF91F238134812250310981E0B6
:101C30002230310508F080E008950F931F93CF9371
:101C4000DF930091870310918803D0E0C0E080E02B
:101C50000C171D0749F491E0811190E0892FDF9165
:101C6000CF911F910F9108958111F5CFCE01CEDF55
:101C70002196EECFA0918503B0918603109729F1AC
:101C8000209187033091880382179307F0F453E182
:101C9000589F9001599F300D1124A20FB31FED9151
:101CA000FC911197309789F012968C91681768F41F
:101CB0008DE0689FE00DF11D112480819181892BB9
:101CC00021F081E09281491708F080E008959C019D
:101CD00043E1429FC001439F900D1124E091850391
:101CE000F0918603E80FF91F8385823091F481E03B
:101CF00090E06581768140910F0250911002641747
:101D0000750711F490E080E0892B19F081E0232B16
:101D100009F080E00895FC01A081B1818DE0689F09
:101D2000A00DB11D112413964D915C91858596856A
:101D3000489F9001499F300D589F300D1124C901D3
:101D40000196611103C0478144FD04960895EF9206
:101D5000FF920F931F93CF93DF93EA01FC01E60FED
:101D6000F71F02811381E480F5804F2D6E2DC8018D
:101D700081DF81110DC082E090E0998388838EEF2E
:101D80009FEFDF91CF911F910F91FF90EF900895FA
:101D9000C8013CDF882339F082E090E09983888392
:101DA00088EF9FEFEECF1093160200931502E0929A
:101DB0001702F092180281E090E09983888390E006
:101DC00080E0DFCFCF92DF92EF92FF920F931F93CD
:101DD000CF93DF937A01EC01C60FD71FC090150295
:101DE000D09016020091170210911802412F602F17
:101DF000C60140DF811110C082E090E0F7019183BD
:101E000080838AEF9FEFDF91CF911F910F91FF9019
:101E1000EF90DF90CF900895C601F8DE882341F05F
:101E200082E090E0F7019183808388EF9FEFEBCF12
:101E30004C815D816E817F819A8189818F3F41F0E4
:101E400082E090E0F701918380838EEF9FEFDBCFFC
:101E5000E3E1EC9D9001ED9D300D1124E0918503AF
:101E6000F0918603E20FF31F0190F081E02D2DE049
:101E7000029FE00DF11D11240190F081E02D27E07B
:101E8000129FE00DF11D1124808391838B81828349
:101E900043835483658376831F5F1093180281E028
:101EA00090E0F7019183808390E080E0ACCFEF92E7
:101EB000FF920F931F93CF93DF937A018C01060F4C
:101EC000171FC0918503D0918603209781F021E0F0
:101ED00030E0F8018281938140918703509188031B
:101EE0008417950710F030E020E0232B71F482E096
:101EF00090E0F701918380838EEF9FEFDF91CF9188
:101F00001F910F91FF90EF90089543E1489F90013A
:101F1000499F300D1124C20FD31F78DE882341F072
:101F200082E090E0F7019183808388EF9FEFE6CF16
:101F3000F8012481358120383105C8F68781811167
:101F4000D6CF4181842F90E08F7E009741F082E0D0
:101F500090E0F7019183808386EF9FEFCFCF4F838F
:101F60003E832D83268128871986223010F421E0B4
:101F7000288721E030E0F70131832083BFCF88E05C
:101F800090E0FA019183808390E080E00895FB0166
:101F90008FEF808381E181838FEF9FEF9383828333
:101FA00080E890E095838483168217820895FB0170
:101FB0008FEF808391E0918382839383848384E392
:101FC000858381E090E0978386830895DF92EF9286
:101FD000FF920F931F93CF93DF93EA01FC01E60F6B
:101FE000F71F8181813071F082E090E099838883CE
:101FF0008FEF9FEFDF91CF911F910F91FF90EF90A7
:10200000DF90089582819381D4802581E680F780D6
:1020100000918503109186030115110539F482E0C2
:1020200090E0998388838CEF9FEFE4CF4091870302
:10203000509188038417950738F082E090E09983E7
:1020400088838EEF9FEFD6CF892B39F082E090E026
:102050009983888386EF9FEFCDCF8D2D8D7FB1F74C
:102060002130A1F781E0D11006C091E0E916F1041A
:1020700031F080E004C0E2E0EE16F104D0F38823F2
:1020800029F390E080E0C2DD882339F082E090E01F
:102090009983888388EF9FEFADCFF801D38681E0E5
:1020A0008487F686E586108A178681E090E099831A
:1020B000888390E080E09ECF4CE050E06DE572E0D8
:1020C00057CA8F929F92BF92CF92DF92EF92FF9268
:1020D0000F931F93CF93DF93EA01FC01E60FF71FE5
:1020E000828193810481B580E0918503F09186031C
:1020F000309791F482E090E0998388838CEF9FEF92
:10210000DF91CF911F910F91FF90EF90DF90CF90D3
:10211000BF909F908F9008952091870330918803FE
:102120008217930738F082E090E0998388838EEFDE
:102130009FEFE6CF23E1289F6001299FD00C112457
:10214000EC0DFD1DE080F180E114F10499F2828133
:10215000081748F78DE0089F80011124E00EF11E5A
:10216000F70180819181892B29F6BB20E1F2F7E00C
:10217000BF9E40011124C4010E949B1CF701918362
:102180008083E0918503F0918603EC0DFD1D0190A5
:10219000F081E02DE00FF11F80819181009739F4EB
:1021A00082E090E0998388838DEF9FEFA9CFA4010F
:1021B00070E060E00E94272B809185039091860358
:1021C000C80ED91EF60180819181080F191FF801F0
:1021D000B28281E090E09983888390E080E090CFA4
:1021E000AF92BF92CF92DF92FF920F931F93CF9344
:1021F000DF93EA01FC01E60FF71F82819381F480EF
:1022000000918503109186030115110581F482E088
:1022100090E0998388838CEF9FEFDF91CF911F919E
:102220000F91FF90DF90CF90BF90AF9008952091D5
:102230008703309188038217930738F082E090E09B
:10224000998388838EEF9FEFE8CF2FEF2F0D2C3FE0
:10225000A8F723E1289F6001299FD00C11240C0DC1
:102260001D1DF80180819181892B89F6FDE0FF9E7B
:1022700050011124C5010E949B1CF80191838083A9
:10228000E0918503F0918603EC0DFD1D8081918125
:10229000009739F482E090E0998388838DEF9FEF77
:1022A000BCCFA50170E060E00E94272BE091850380
:1022B000F0918603EC0DFD1DF28281E090E09983A0
:1022C000888390E080E0A9CFCF92DF92EF92FF92D7
:1022D0000F931F93CF93DF93860F971FFC0102810B
:1022E00013818091850390918603892B81F082E090
:1022F00090E0FA01918380838CEF9FEFDF91CF9183
:102300001F910F91FF90EF90DF90CF900895C8013B
:10231000B0E0A0E00197A109B1098F3F9F4FA1054F
:10232000B10540F082E090E0FA01918380838EEF66
:102330009FEFE4CF7A0183E1809F6001819FD00C01
:102340001124C6010E949B1CEC01009741F482E01D
:1023500090E0F701918380838DEF9FEFCFCFA601AF
:1023600070E060E00E94272BD0938603C093850322
:10237000109388030093870390E080E02FEF3FEFF6
:1023800041E061E070E08017910741F481E090E066
:10239000F7019183808390E080E0B0CF3A8B298B66
:1023A0001B864C877E876D87188A1F8601966396E9
:1023B000EACFEF92FF921F93CF93DF93EC0110E0EF
:1023C000F12CE12C6A811617B0F083E0689FB00110
:1023D0001124AE014F5E5F4FC7010E94001D0097A0
:1023E00021F02FEF3FEF3A8B298BDF91CF911F9197
:1023F000FF90EF900895612FCE018DDC61E070E0D9
:102400000E94481BE816F90608F47C011F5FDACF2A
:10241000F894209183033091840381E021153105E4
:1024200009F080E0232B09F0789408952F923F92D1
:102430004F925F926F927F928F929F92AF92BF92D4
:10244000CF92DF92EF92FF920F931F93CF93DF9380
:102450003C01660E771EF301828193814C01B12C01
:10246000A12CC0918503D0918603209769F021E0CB
:1024700030E060918703709188038617970710F00A
:1024800030E020E0232BD1F482E090E0FA01918348
:1024900080838EEF9FEFDF91CF911F910F91FF907F
:1024A000EF90DF90CF90BF90AF909F908F907F90F4
:1024B0006F905F904F903F902F90089580921902F7
:1024C00090921A02A0921B02B0921C0263E1689FD4
:1024D0009001699F300D1124C20FD31FF301818138
:1024E000833040F082E090E0FA019183808386EFB0
:1024F0009FEFD1CF2A012B813C81232BF1F428813E
:1025000039819F8191FF2EC0232B09F46FC0209148
:102510008A039A81422F490F5527551FBA0141E07E
:1025200050E06138710514F050E040E0452B09F4AB
:102530005DC02A87920F90938A038150823008F4FD
:1025400081C066DF882309F4D8C0F301818181301E
:1025500009F48DC008F47BC0823009F4C6C090E055
:1025600080E0ADC0232B09F441C0209189039A81FA
:10257000E22FE90FFF27FF1F41E050E0ED3FF1059B
:1025800014F050E040E0452B89F12A87920F909398
:102590008903D3CFA081B181A20FB31F11966C9193
:1025A000060F111D0196295F3F4F8417950794F37D
:1025B0008D859E85089F1001099F300C189F300C57
:1025C0001124C114D104D1F48F8184FF17C00E945B
:1025D000961BF5E02F0E311C21E08215930508F4BF
:1025E00020E0A701435F5F4F21110EC082E090E021
:1025F000F2019183808387EF9FEF4DCF0E94961B5E
:102600002FEF221A320AE8CF88819981E80EF91E4D
:10261000F70114830383FFEFCF1ADF0A7A018A815F
:102620008C151D0409F00CF48CCFE881F981EE0DB6
:10263000FF1D428150E030E020E010E000E090E03B
:1026400080E0B3CFF12CE12CD12CC12CE8CF81E07C
:1026500090E09C838B83F1DA882309F480CF81E0BA
:1026600090E00E949A0A80E40E94A80A78CF8989A3
:102670009A89019661F083E090E09C838B8382E0ED
:1026800090E00E949A0A80E40E94A20A68CF8D819D
:102690009E8120910F023091100282179307D1F48E
:1026A0006091130270911402AE014F5E5F4F8091F2
:1026B0001102909112020E941F1E0097E1F278947D
:1026C00022E030E0F20131832083892B99F08DEFF5
:1026D0009FEFE1CE89288A288B2869F6892B59F645
:1026E000CE0167DE188A1F86E8CF82E090E09C83E7
:1026F0008B8335CF90E080E0CECE82E090E0F20197
:102700009183808385EF9FEFC6CE8F929F92AF9289
:10271000BF92CF92DF92EF92FF920F931F93CF93CE
:10272000DF93EA018C01060F171FF80181818330C6
:1027300098F082E090E09983888386EF9FEFDF91A5
:10274000CF911F910F91FF90EF90DF90CF90BF90AE
:10275000AF909F908F90089580918503909186030C
:10276000892B61F081E090E020918703309188030C
:10277000232B11F490E080E0892B39F482E090E083
:10278000998388838EEF9FEFDACF42DE882309F4A6
:10279000DFC0F8018181813009F495C0E8F0823012
:1027A00099F42091870330918803E0918503F0919B
:1027B000860390E080E041E050E02817390709F0F7
:1027C000BDC03BDA811117C0789481E090E0998315
:1027D000888390E080E0B3CF209187033091880315
:1027E000E0918503F091860390E080E041E050E0C5
:1027F0002817390741F481E090E00E949A0A80E4AA
:102800000E94A80AE1CF63817481672B11F0548381
:10281000438301967396ECCFE0918503F091860394
:10282000E00FF11F2381348122303105D9F4218951
:1028300032892F3F3F4FB1F42581368140910F02FD
:10284000509110022417350761F5AF014F5E5F4FBD
:102850006091130270911402809111029091120202
:102860000E941F1EEFEFCE1ADE0AEE0AFE0A0D5E70
:102870001F4F409187035091880370E060E0C416B9
:10288000D506E606F7063CF5009731F27894892BD9
:1028900009F49BCF82E090E0998388838DEF9FEFCE
:1028A0004ECFC114D104E104F104E1F6232BD1F69B
:1028B000CF017FDDE0918503F0918603E00FF11FEA
:1028C000108A1786CFCF10E000E090E080E0C12CA6
:1028D000D12C7601CECF0097C9F610E000E0812C14
:1028E000912C540183E0E82EF12C1AC0E09185036D
:1028F000F0918603E00FF11F83819481029749F4E0
:10290000F482E38282E090E00E949A0A80E40E94CE
:10291000A20AFFEF8F1A9F0AAF0ABF0A0D5E1F4F70
:102920008091870390918803B0E0A0E08816990613
:10293000AA06BB06DCF290E080E0A8CF6381748138
:102940006230710511F4548343830196739635CF39
:1029500082E090E09983888385EF9FEFF0CE009727
:10296000B9F48FEFFB0180832091190230911A0294
:1029700043E1429FC001439F900D1124E0918503E4
:10298000F0918603E80FF91F8285FB01818308958A
:102990000C94510A88E090E0FA019183808390E0E2
:1029A00080E008951092840310928303E5E8F3E039
:1029B00086E0DF011D928A95E9F78CE590E190931E
:1029C0008203809381030895809181039091820313
:1029D00008952F923F924F925F926F927F928F92C3
:1029E0009F92AF92BF92CF92DF92EF92FF920F939E
:1029F0001F93CF93DF93CDB7DEB72F970FB6F89421
:102A0000DEBF0FBECDBFF894E0918303F091840345
:102A10003196F0938403E093830378944090850388
:102A2000509086034114510409F40CC2E0918703CD
:102A3000F0918803EF2B09F405C22D8749875A8747
:102A40006B877C8798878F831201B12CA12C10E0B3
:102A500000E08091870390918803A816B90618F4C6
:102A60000115110529F1F894809183039091840355
:102A7000019790938403809383037894C8012F96E1
:102A80000FB6F894DEBF0FBECDBFDF91CF911F917F
:102A90000F91FF90EF90DF90CF90BF90AF909F90FD
:102AA0008F907F906F905F904F903F902F90089500
:102AB0007101E418F508D10117968C91179781FDE3
:102AC00054C013968D919C911497039709F04DC0B3
:102AD00015968D919C91EF81F8858E179F0709F0CF
:102AE00044C0B50190E080E07FD48A8320918503C3
:102AF000309186033D832C833D85332309F44CC0FC
:102B00004C815D81452B09F49AC180918703909196
:102B10008803A816B90608F092C1C501D8D8882341
:102B2000E9F06C817D816E0D7F1D7D836C83DB01FF
:102B30001F968D919C91892B89F0D12CC12CF12C61
:102B4000E12CAC81BD8112968C9112978E151F04D9
:102B500009F094F450961C921E921F972A8122230A
:102B600021F0B50190E080E041D43FEFA31AB30A11
:102B700043E1240E311C6DCFAC81BD81ED91FC9100
:102B8000EC0DFD1D858196810FD7BFEFEB1AFB0A77
:102B9000EDE0CE0ED11CD5CFEC81FD81309709F44C
:102BA0004EC18091870390918803A816B90608F05A
:102BB00046C1EE0DFF1DFF87EE87C50188D88B83C8
:102BC000882339F1AE85BF851F968D919C915097D2
:102BD000019621E01D964D915C918417950709F0AF
:102BE00020E02E831982712C10E000E0AE85BF85B5
:102BF00012968C91781608F45DC0EE85FF85878566
:102C000090890196658576850E94C72A908B878773
:102C1000A5CFB1E0BE83E6CF992493946BC08BD649
:102C2000F6019683858382C0D601ED90FC90B7E0D3
:102C30006B9EE00CF11C1124F7016381748180818B
:102C40008F3F61F121E030E002C0220F331F8A95EF
:102C5000E2F7C901092E000CAA0BBB0BFB01408156
:102C600051816281738184239523A623B72321E0B8
:102C7000892B8A2B8B2B09F420E0D4012C93D701CC
:102C800011968C91F60123853485820F932F911D27
:102C9000880E991E1486138663949BC0418150E070
:102CA000C4010E941E2BEBCF998206EF1FEFC5C017
:102CB0001982C3C0F981F111A0CFEDE07E9E7001B1
:102CC0001124AE85BF85CD90DC90CE0CDF1C15D4D1
:102CD0009D838C83BB81BB2309F49ECF81E0EE856D
:102CE000FF8527853089232B09F080E0982E8823E3
:102CF00009F458C0672D8E859F850DD8D60118968A
:102D00009C938E93179761E070E0C2D4EE85FF85A7
:102D1000218932892F3F320709F481CFBC01C901D3
:102D2000CFD7D60116969C938E931597D6011596FC
:102D30008D919C911697009709F4B6CFEC81FD8197
:102D40008E0F9F1F1A969C938E931997AE85BF8501
:102D5000ED91FC911197EE0EFF1EF7012185328552
:102D6000148613861A968C91870DD9018D93711054
:102D700016C0EE85FF85878184FF11C049855A857D
:102D80006B857C85F9014183528363837483F701EA
:102D9000838594850496A80FB91F14861386F701BE
:102DA000B287A187D60115968D919C911697892B94
:102DB00009F443C0EE85FF852581368180910F029D
:102DC000909110022817390779F019968D909C90F0
:102DD000612CD60112968C911297681608F424CFB4
:102DE0001A969C928E921997BE81BB2309F460CFEC
:102DF00061E070E0F601878190854AD4D60117968C
:102E0000ED90FC90189715964D915C91E1E0F0E003
:102E1000BA81BB2311F0F0E0E0E00C811D819C0140
:102E2000B501882799278E1B9F0B6AD38C01892BAC
:102E300021F0F60185819681B7D57394D7CE0FEF37
:102E40001FEF8CCE10E000E00ECE2F923F924F92FB
:102E50005F926F927F928F929F92AF92BF92CF922A
:102E6000DF92EF92FF920F931F93CF93DF938091A6
:102E700085039091860310E000E0892BA9F0C8DA61
:102E80000AEF1FEF882381F020908703309088039A
:102E9000C0918503D0918603D12CC12C10E000E0B5
:102EA0002C143D04A9F47894C801DF91CF911F91AF
:102EB0000F91FF90EF90DF90CF90BF90AF909F90D9
:102EC0008F907F906F905F904F903F902F900895DC
:102ED000C6010E94670E882309F18B819C810397AC
:102EE000E9F48F859889892BC9F0B60190E080E0DC
:102EF0007BD221E030E0882311F030E020E0442450
:102F00005524421A530AB12CA12C912C812C8A8170
:102F10008815190409F038F4188A1F864FEFC41A6F
:102F2000D40A6396BDCFE881F981EA0DFB1D858146
:102F30009681892BA1F161E070E087819085A8D30B
:102F40003C01DBD28C01E881F981EA0DFB1D818512
:102F5000928525813681200F311FAC01421B530B16
:102F60009A0147815085421B530B70E060E00E943C
:102F7000272BE881F981EA0DFB1DE780F08445816C
:102F800056819301B601C201BBD28C01892B39F065
:102F9000E881F981EA0DFB1D8581968105D55FEFFA
:102FA000851A950A8DE0A80EB11CB1CF31CA78946C
:102FB00008952F923F924F925F926F927F929F92CD
:102FC000AF92BF92CF92DF92EF92FF920F931F9337
:102FD000CF93DF9300D000D0CDB7DEB7009185034B
:102FE00010918603992493940115110509F43EC0AC
:102FF000A0908703B09088030BDA982E8823B1F154
:103000001092860310928503109288031092870312
:103010001092890310928A038FEF9FEFDC01809357
:10302000190290931A02A0931B02B0931C02789489
:103030007FD31E830D83C12CD12C7601C501B0E056
:10304000A0E089839A83AB83BC8322242A94322C08
:1030500089819A81AB81BC81C816D906EA06FB0634
:10306000F4F0C801A1D480E40E94A80A892D269614
:103070000FB6F894DEBF0FBECDBFDF91CF911F9189
:103080000F91FF90EF90DF90CF90BF90AF909F9007
:103090007F906F905F904F903F902F900895AD81FB
:1030A000BE8115968D919C91169720910F023091BB
:1030B000100282179307D1F451968D919C91EED511
:1030C000ED81FE8180819181B12CA12C412C512C6C
:1030D0003201892B89F5BFEFCB1ADB0AEB0AFB0A19
:1030E000ED81FE817396FE83ED83B2CFC114D104CE
:1030F000E104F10429F7892B19F7ED81FE8181891B
:1031000092898F3F980709F029D5AD81BE815296EB
:103110003C922E925197D4CF8A0D9B1DDC018D914C
:103120009C91009709F040D4BFEF4B1A5B0A6B0AE1
:103130007B0AEDE0AE0EB11CAD81BE818D919C91FC
:10314000119712964C9150E070E060E044165506DD
:10315000660677060CF328D4BECFCF93DF93EA013F
:1031600028DF811109C082E090E09983888385EF90
:103170009FEFDF91CF91089581E090E00E949A0A3D
:1031800081E090E09983888390E080E0F2CF11DFC6
:103190001092820310928103089542E050E065EAA4
:1031A00072E00C94B80AFF920F931F93CF93DF93B2
:1031B0008A01EC01C60FD71FF980B9D20897F8161B
:1031C000190671F068F082E090E0F8019183808345
:1031D0008EEF9FEFDF91CF911F910F91FF90089598
:1031E0006C817D818E819F814B810E944D0D81116B
:1031F00008C082E090E0F8019183808384EF9FEF24
:10320000E9CFF9800E94480D4F2D50E0BE01685F64
:103210007F4F0E941E2B89810E94B70D81E090E0B4
:10322000F8019183808390E080E0D4CFDF92EF9229
:10323000FF920F931F93CF93DF938A01EC01C60F88
:10324000D71F0E94480D7C01D98071D2DD2059F032
:10325000029721E030E0D816190619F010F030E09E
:1032600020E0232B79F482E090E0F80191838083C1
:103270008EEF9FEFDF91CF911F910F91FF90EF9015
:10328000DF900895EF2841F482E090E0F801918307
:10329000808384EF9FEFEECFF9800E94480D4F2D81
:1032A00050E0BE016E5F7F4F0E941E2B89810E94FD
:1032B000B70D81E090E0F8019183808390E080E099
:1032C000D9CF8DEC98E190938C0380938B03089574
:1032D00080918B0390918C0308950895FC011182D5
:1032E0001082938382830895DB011D921C92DC017E
:1032F0001296ED91FC9113977183608313967C93E2
:103300006E9312970895FC0180819181DB018D936A
:103310009C93A081B181109741F08D919C919183F4
:103320008083892B11F4F383E2830895FC0180816B
:103330009181DB018D939C93892B11F473836283BC
:10334000718360830895FC011182108293838283CC
:103350000895CF93DF931F921F92CDB7DEB71A82E5
:103360001982F894BE016F5F7F4F82E993E0CBDF53
:1033700089819A81009709F017D389819A81892BD5
:1033800089F7BE016F5F7F4F86E993E0BCDF8981DB
:103390009A81009709F008D389819A81892B89F74E
:1033A00078940F900F90DF91CF910895CF93DF9392
:1033B0001F921F92CDB7DEB71A821982F894BE0110
:1033C0006F5F7F4F8EE893E09EDF89819A8100973F
:1033D00009F0EAD289819A81892B89F778940F9034
:1033E0000F90DF91CF91089581E0089590E080E003
:1033F0000895EF92FF920F931F93CF93DF931F9245
:103400001F92CDB7DEB71A82198280918D0307EF24
:103410001FEF8823A1F1F894BE016F5F7F4F86E90B
:1034200093E071DF789489819A81EE24E394F12C02
:10343000892B51F4F894BE016F5F7F4F82E993E0CE
:1034400062DF7894F12CE12C89819A810EEF1FEFD5
:103450000097A9F0FC014281538164E070E074D6CA
:103460008C01892B61F0F89469817A81C701880FFA
:10347000991F880F991F8E569C4F58DF7894C8016A
:103480000F900F90DF91CF911F910F91FF90EF90D0
:1034900008950F931F93CF93DF9300D01F92CDB762
:1034A000DEB71C821B821A82198280918D0307EF7E
:1034B0001FEF8823C1F0AE014D5F5F4F64E070E005
:1034C000CE010196B4D68C01892B69F4E981FA8189
:1034D0008B819C8193838283F89469817A818EE8C1
:1034E00093E002DF7894C8010F900F900F900F9037
:1034F000DF91CF911F910F910895B9D70496089548
:103500008F929F92AF92BF92CF92DF92EF92FF92F3
:103510000F931F93CF93DF931F921F92CDB7DEB708
:103520001A821982BC016F5F7F4F6330710598F07A
:10353000AA24AA94BA2CC5010F900F90DF91CF91C5
:103540001F910F91FF90EF90DF90CF90BF90AF90C1
:103550009F908F9008954115510551F348015901ED
:103560008A016C01CADF8815990511F7E114F1048D
:10357000F9F28E0D9F1DA816B906D0F280918D0329
:103580008823F1F0F894B501645071099701AE01F8
:103590004F5F5F4FC8010496DFD65C01892B71F441
:1035A00089819A81F80193838283C601880F991FCC
:1035B000880F991FB8018E569C4F96DE7894BBCF2A
:1035C00087EFA82EBB24BA94B6CFAF92BF92CF920A
:1035D000DF92EF92FF920F931F93CF93DF931F928F
:1035E0001F92CDB7DEB71A821982892B09F047C026
:1035F0006115710509F443C04115510509F43FC037
:103600002115310509F43BC001151105C1F1809167
:103610008D038823B9F179016A015B01F894BE0139
:103620006F5F7F4F8EE893E06EDE789489819A8198
:10363000009759F1DC0112966D917C91A8010496D6
:10364000A4D68C01E981FA81D501ED93FC938281A6
:1036500093810496F601918380834FDFD7018D9388
:103660009C93C8010F900F90DF91CF911F910F9104
:10367000FF90EF90DF90CF90BF90AF9008950FEF45
:103680001FEFEFCF07EF1FEFECCF0EEF1FEFE9CFEC
:10369000CF93DF93EC01672B71F4F2D68C179D0763
:1036A00060F0E5D62496C80FD91FE4D68C0F9D1F75
:1036B000DF91CF910895E1D6F1CF90E080E0F8CF8F
:1036C0000F931F93CF93DF9320918D0321112BC074
:1036D0008B01EC0182E993E001DE86E993E0FEDDF7
:1036E0008EE893E0FBDD97D00097C1F4C9D670E077
:1036F00060E0CEDF4DE152E062E070E081D1009702
:1037000069F480911D0290911E02CCD6B801CE01C1
:1037100001D5009719F421E020938D03DF91CF911B
:103720001F910F91089584EF9FEFF8CFA6C6A8C60A
:10373000CF93DF93A8D6EC01892B11F40ADE36DE95
:10374000CE01DF91CF910895CF93DF939CD6EC010A
:10375000892B09F4FEDDCE01DF91CF910895809190
:103760001D0290911E020895CF93DF9380918D03E7
:10377000D0E0C0E08823D1F09AD6EC01892BB1F4D7
:10378000E8DD14DE80911D0290911E02E7D1E8D29F
:10379000EC01892B59F482E993E0D5DD86E993E0C9
:1037A000D2DD8EE893E0CFDD10928D03CE01DF9164
:1037B000CF910895EF92FF920F931F93CF93DF93D2
:1037C000EC017A018B010F5F1F4F0E9DA0010F9D31
:1037D000500D1E9D500D112470E060E00E94272BBB
:1037E00090E080E0F0E0E0E02FEFE816F90639F431
:1037F000DF91CF911F910F91FF90EF9008951A8262
:1038000019822883309711F0D283C1830196FE017B
:10381000C00FD11FEACFCF92DF92EF92FF920F93AA
:103820001F93CF93DF930BEA14E00C7F43E050E04B
:103830006FE172E085E292E01AD48FE1E82E82E037
:10384000F82E95E2C92E92E0D92ECAE1D5E0D70133
:103850004D915D917D01F601619171916F01198327
:1038600008835D834C835B834A837F836E839B01E4
:103870002F5F3F4F249FC001259F900D349F900DD7
:103880001124998788870115110511F0C80192DF6D
:1038900088859985080F191F2A96F5E2EF16F2E040
:1038A000FF06A9F6ECE9F3E08CE091E0DF019C0172
:1038B0001D9221503040E1F710929B0310929A0321
:1038C000109239051092380510923D0510923C0572
:1038D00010923B0510923A0510923F0510923E055A
:1038E0001092410510924005109243051092420536
:1038F0001092470510924605109245051092440516
:10390000109249051092480510924B0510924A05F5
:1039100010921705109216051092190510921805AD
:1039200090E080E0DF91CF911F910F91FF90EF9099
:10393000DF90CF9008950097F1F0F894A5E2B2E0FF
:10394000EAE1F5E030E020E04D915D91481759073C
:10395000A8F0428153814115510581F08AE0829F90
:10396000F001839FF00D1124E65EFA4F8081918172
:10397000009759F4789490E080E008952F5F3F4FCE
:103980003A962330310501F7F5CFDC0111966D91A0
:103990007C91718360834150510953834283FC01C0
:1039A0002193CF0178940895009749F1DC018E911D
:1039B000853041F4E0911805F09119053097F9F040
:1039C000CD0119948530D8F4282F30E0F8948FEF8A
:1039D0008C938AE0829FF001839FF00D1124E65EB4
:1039E000FA4F8081918112969C938E931197B183A7
:1039F000A083828193810196938382837894089532
:103A0000CF92DF92EF92FF920F931F93CF93DF93AA
:103A10009C018FE993E08C7F4115510509F49BC00F
:103A20002115310509F497C06115710509F493C09A
:103A30007A01AB01B9016D5F7F4F6C7F9B012F5FF6
:103A40003F4F249F8001259F100D349F100D11249E
:103A5000F8942091380530913905232B59F42091A1
:103A60004005309141052115310569F120173107D5
:103A700008F058C02091420530914305232B91F462
:103A80002091400530914105820F931F20914A05F6
:103A900030914B052115310509F441C0201731073C
:103AA00008F056C07894CFEFDFEF86EF9FEFF70175
:103AB000D183C083DF91CF911F910F91FF90EF9041
:103AC000DF90CF900895C3E0D0E0C0909A03D090EB
:103AD0009B0329E031E02C193D092017310710F331
:103AE0002AE02C9FF0012D9FF00D1124E65EFA4F85
:103AF0009183808355834483538342837783668392
:103B000011870087009709F055DE0C0D1D1D1093DD
:103B10009B0300939A03789490E080E0C8CFC4E0C0
:103B2000D0E0D3CFC3E0D0E02AE02C9FF0012D9F5E
:103B3000F00D1124E65EFA4F918380835583448310
:103B40005383428377836683009729F333DEE3CF81
:103B5000C4E0D0E0E9CF8FEF9FEFACCF9C0103979B
:103B6000029708F069C0F89484E09AE0482F50E08A
:103B7000241735070CF44DC091E08AE0829FF001D4
:103B8000839FF00D1124E65EFA4F11821082158298
:103B9000148213821282178216829923B1F18091C6
:103BA000380590913905892BA9F420914005309171
:103BB00041052115310571F080919A0390919B0385
:103BC000821B930B90939B0380939A031092410561
:103BD000109240058091420590914305892BA9F4EC
:103BE00020914A0530914B052115310571F08091E6
:103BF0009A0390919B03821B930B90939B0380935A
:103C00009A0310924B0510924A05789490E080E058
:103C10000895949FF001959FF00D1124E65EFA4FF0
:103C200040815181452B31F440855185452B11F45C
:103C300081509CCF90E0A1CF8FEF9FEF0895411569
:103C4000510549F1009739F16115710521F1F89499
:103C50002091160530911705232BB9F420911805F2
:103C600030911905232B89F490931705809316053D
:103C70007093190560931805789425E030E090E082
:103C800080E0FA0131832083089578942FEF3FEF8D
:103C900086EF9FEFF6CF8FEF9FEF0895059769F4BA
:103CA000F8941092170510921605109219051092AB
:103CB0001805789490E080E008958FEF9FEF0895C5
:103CC0006115710519F4F0E0E0E011C0853091054F
:103CD00081F4E0911605F09117053097A1F3CB011F
:103CE00001961995009779F3FC0185E08193CF0146
:103CF00008959C01235031092230310520F72AE034
:103D0000289FD001299FB00D1124A65EBA4F2D9196
:103D10003C911197232BB9F216962D913C91179750
:103D20002617370780F2F89412962D913C9113973D
:103D30002115310529F0ED91FC911197309711F47F
:103D40007894C1CF4181528111965C934E9321505A
:103D5000310913963C932E93129781937894C7CF91
:103D6000E8EAF4E08EE6DF011D928A95E9F7ECE9D6
:103D7000F3E08CE091E0DF019C011D922150304086
:103D8000E1F710929B0310929A03EAE1F5E082E3D7
:103D9000DF011D928A95E9F7E6E1F5E084E0DF01B5
:103DA0001D928A95E9F790E080E00895CF93DF9324
:103DB000C0912B02D0912C02CF3FDC0759F420D4C4
:103DC00090932C0280932B0297FF09C0D0932C0272
:103DD000C0932B0284EF9FEFDF91CF91089590E085
:103DE00080E0FACF8230910528F480934C0590E072
:103DF00080E008958FEF9FEF08954F925F926F924A
:103E00007F92AF92BF92CF92DF92EF92FF920F9389
:103E10001F93CF93DF931F921F92CDB7DEB71A8205
:103E20001982009709F478C06115710509F474C00E
:103E300020912B0230912C0207EF1FEF2F3F3F4FB5
:103E400009F444C06B015C01412C512C3201F12C6E
:103E5000E12C10E000E09E012F5F3F4FA6014E19BC
:103E60005F09B5016E0D7F1D80912B0290912C0290
:103E700026D4892B09F04AC089819A81009741F4A0
:103E8000E114F10429F420914C05222309F441C0E6
:103E9000E80EF91EEC14FD04C8F480E8481684E826
:103EA00058068EE16806710418F560E070E0CB01F9
:103EB0005CD62AE0420E511C611C711C0A3F4FEF78
:103EC000140721F0043F8FEF1807A1F4C8010F90E9
:103ED0000F90DF91CF911F910F91FF90EF90DF90A6
:103EE000CF90BF90AF907F906F905F904F9008956C
:103EF00001EF1FEF81E090E0013F2FEF120711F07B
:103F000090E080E0892B09F4A6CFE0CF04EF1FEF0B
:103F1000DDCF0AEF1FEFDACF0FEF1FEFD7CF4F92B2
:103F20005F926F927F92AF92BF92CF92DF92EF92A9
:103F3000FF920F931F93CF93DF931F921F92CDB7E2
:103F4000DEB71A821982009709F478C061157105ED
:103F500009F474C020912B0230912C0207EF1FEF5F
:103F60002F3F3F4F09F444C06B015C01412C512CA1
:103F70003201F12CE12C10E000E09E012F5F3F4F59
:103F8000A6014E195F09B5016E0D7F1D80912B02B0
:103F900090912C024AD3892B09F04AC089819A81D9
:103FA000009741F4E114F10429F420914C052223F7
:103FB00009F441C0E80EF91EEC14FD04C8F480E4D5
:103FC000481682E458068FE06806710418F560E030
:103FD00070E0CB01CAD52AE0420E511C611C711C55
:103FE0000E3F4FEF140721F0043F8FEF1807A1F4A5
:103FF000C8010F900F90DF91CF911F910F91FF900B
:10400000EF90DF90CF90BF90AF907F906F905F90D8
:104010004F90089502EF1FEF81E090E0023F2FEFF5
:10402000120711F090E080E0892B09F4A6CFE0CFD1
:1040300004EF1FEFDDCF0EEF1FEFDACF0FEF1FEF13
:10404000D7CF80912B0290912C028F3F980749F097
:10405000CFD2892B49F48FEF9FEF90932C0280935E
:104060002B0290E080E0089584EF9FEF0895CF92B7
:10407000DF92EF92FF920F931F93CF93DF9321E094
:104080004115510509F020E04150510921112CC082
:10409000DC01FB01D12CC12C21E022C03FEFC31A6F
:1040A000D30A7D010D911D91E701EA80FB80E016A6
:1040B000F106A8F420813181E280F380F182E08270
:1040C00033832283ED90FC9011979D01225031099A
:1040D000E901F982E88211961C930E9320E0329652
:1040E000C416D506D8F2D2CFDF91CF911F910F9190
:1040F000FF90EF90DF90CF900895FC01680F791F3B
:1041000090E080E0E617F70709F408952191820F07
:10411000911DF8CF20914D05211113C047DE009766
:1041200091F410925305109252051092510510927D
:10413000500510924F0510924E0521E020934D0539
:10414000089584EF9FEF0895AF92BF92CF92DF92D0
:10415000EF92FF920F931F93CF93DF93009709F491
:1041600060C04630510508F45CC020914D05C7EF92
:10417000DFEF222309F449C08C01060F171FF80155
:10418000C080D180C114D10409F44EC096012A5FC9
:104190003F4F4217530708F447C07C0180915205F6
:1041A0009091530593838283B6016C5F7F4F5801D2
:1041B000A60EB71EC801A1DFF5019183808364E0DC
:1041C00070E0C8011ADEEC01892BF9F481E090E07F
:1041D00009DEB601C801049610DEEC01892B91F4CA
:1041E00062E070E0C50109DEEC01892B59F4C701DA
:1041F000DBDB809152059091530501969093530516
:104200008093520590E080E0EDDDCE01DF91CF910B
:104210001F910F91FF90EF90DF90CF90BF90AF90E4
:104220000895CFEFDFEFF1CFC9EFDFEFEECF6F9261
:104230007F928F929F92AF92BF92CF92DF92EF9236
:10424000FF920F931F93CF93DF9300D01F92CDB7B0
:10425000DEB7009709F47AC04115510509F476C01C
:1042600020914D0507EF1FEF222309F44DC03A01BD
:104270007B015C0164E070E0CE01019650DE8C01B0
:10428000892B09F041C009811A810115110509F432
:104290005AC0480186E0880E911CB701680D791D4F
:1042A00080912D0290912E020BDD6C01009709F494
:1042B00050C0A70170E060E00E94272B89819A819D
:1042C000AB81BC81EC0CFD1CF70181939193A19310
:1042D000B1937F0181E090E085DDB801C7011FDE69
:1042E000892B31F562E070E0C701800F911F17DE66
:1042F0008C01892BE9F490E080E074DDF501D18236
:10430000C082F30191828082C8010F900F900F90BC
:104310000F90DF91CF911F910F91FF90EF90DF9061
:10432000CF90BF90AF909F908F907F906F900895A7
:1043300090E080E057DDF50111821082F3011182D7
:104340001082C60131DB09EF1FEFDECF0FEF1FEF49
:10435000DBCF06EF1FEFD8CF0097A1F04115510535
:1043600089F02115310571F0F90136966E177F0736
:1043700048F0DC012D933C93DA01ED93FC9390E03F
:1043800080E008958FEF9FEF0895AF92BF92CF9294
:10439000DF92EF92FF920F931F93CF93DF930097DB
:1043A00009F45FC04115510509F45BC06530710522
:1043B00008F457C020914D05C7EFDFEF222391F19C
:1043C000DC01CD90DC9011971296ED91FC91960155
:1043D0002A5F3F4FC9EFDFEF2617370719F5C09166
:1043E0004E05D0914F05209749F521E030E03093FC
:1043F0004F0520934E057A018C01F0935105E0930F
:1044000050055601B4E0AB0EB11CB50176DE0A0DC5
:104410001B1DF801208131818217930729F5D701EF
:10442000CD92DC92CE01DF91CF911F910F91FF9041
:10443000EF90DF90CF90BF90AF90089520915005FE
:10444000309151052F5F3F4FCCEFDFEFE217F307BD
:1044500090F2CBEFDFEF2E173F0768F2D0E0C0E01D
:10446000CACFCFEFDFEFDECFC3EFDFEFDBCF84E0EC
:1044700090E0089582E090E008958CEF9FEF08951A
:1044800080E290E008951092530510925205109228
:1044900051051092500510924F0510924E0590E074
:1044A00080E0089590932E0280932D0208958091CC
:1044B0004D05882391F0C5DD009789F410925305CE
:1044C00010925205109251051092500510924F050E
:1044D00010924E0510924D05089590E080E00895E9
:1044E000009749F06115710531F0FC0111821082CD
:1044F000FB01118210820895F3CF26E030E040E8FE
:1045000055E260E070E090E080E000C0813091050D
:1045100069F01CF4892B39F008958230910549F037
:10452000039751F0089581E695E073C58EEF95E00D
:10453000FCCF8BE996E0F9CF88E397E0F6CF1F92A6
:104540000F920FB60F9211240BB60F922F933F9339
:104550004F935F936F937F938F939F93AF93BF938B
:10456000EF93FF938FE89DEF9093250180932401B3
:10457000B9D0FF91EF91BF91AF919F918F917F91B2
:104580006F915F914F913F912F910F900BBE0F90C4
:104590000FBE0F901F9018958FE89DEF9093250107
:1045A00080932401A3E7B0E08C918E7F8C93E0E2AE
:1045B000F1E080818C7F8083E1E2F1E08081877E81
:1045C000808380818460808380818C7F80838C91D4
:1045D00081608C930895E3E7F0E0808190819E7F75
:1045E00090838170089581E0089510925405089594
:1045F00068EE73E080E090E0B8D290E080E008954B
:1046000026E030E040E050E16EE070E090E080E0D5
:104610007DDF81E695E033D4892B21F081E695E0BA
:1046200048D4F7CF90E080E00895CF92DF92EF92E8
:10463000FF920F931F93CF93DF936B017A01E901F0
:104640001982188281E695E01AD4892B69F18601D6
:10465000CC24C39482E0D82E80915405811110C0DF
:1046600081E695E026D40297B9F7C0925405F80187
:10467000D1928F0188819981019699838883ECCFAB
:10468000888199818E159F0578F481E695E011D493
:104690008F3F9807A9F3F80181938F018881998151
:1046A000019699838883ECCF90E080E0DF91CF91F1
:1046B0001F910F91FF90EF90DF90CF9008950F938F
:1046C0001F93CF93DF93EA01890181E695E031D70B
:1046D000F801D183C08390E080E0DF91CF911F91FA
:1046E0000F910895CF92DF92EF92FF92809155053E
:1046F00091E0980F90935505882369F021E030E010
:10470000309357052093560580935505FF90EF9001
:10471000DF90CF9008957894E0913102F0913202C9
:10472000C28CD38CE48CF58C0E944503B701A601A2
:1047300090E080E00E94B802F89480915505815085
:10474000E3CF0F931F93CF93DF931092F007109254
:10475000EF0741D2D2DEC0913102D09132021982EC
:1047600018826FEF7FEFCB010E943A0370E060E0A8
:1047700090E080E00E94BD01009709F03AC00E94DD
:10478000BF03F8947894BE016E5D7F4F8A819B8150
:104790000E94C001892B59F46FEF7FEFCB010E947B
:1047A0004F020E943403882311F081E08EA3F89415
:1047B000F3DE0E943703882311F080E008C00E94D6
:1047C00034038111FACF81E09EA19111F6CF80933D
:1047D000EF0778940E94950A8C0178948091EF07F6
:1047E00081110CC00E944C040E941A03F89490E0BE
:1047F00080E0DF91CF911F910F9108950E941803DF
:104800000E9437038823D9F081E08093F0079091CC
:10481000F00781E0911180E08093EF078091F0072D
:104820008111D9DE0130110529F40E94950A892BE6
:1048300009F4DBDE0E94950A8C01D5DECFCF0E9401
:1048400034038111E1CF81E09EA19111DECF80E0A0
:10485000DCCF40D008F481E00895E89409C097FBCC
:104860003EF490958095709561957F4F8F4F9F4F47
:104870009923A9F0F92F96E9BB279395F69587958B
:1048800077956795B795F111F8CFFAF4BB0F11F44E
:1048900060FF1BC06F5F7F4F8F4F9F4F16C08823F5
:1048A00011F096E911C0772321F09EE8872F762F2B
:1048B00005C0662371F096E8862F70E060E02AF06C
:1048C0009A95660F771F881FDAF7880F9695879558
:1048D00097F90895990F0008550FAA0BE0E8FEEF2D
:1048E00016161706E807F907C0F012161306E407B4
:1048F000F50798F0621B730B840B950B39F40A26AD
:1049000061F0232B242B252B21F408950A2609F48A
:10491000A140A6958FEF811D811D0895DBDF08F46E
:104920008FEF08950BD078C069D028F06ED018F0C2
:10493000952309F05AC05FC01124A2C07ED0A0F315
:10494000959FD1F3950F50E0551F629FF001729F24
:10495000BB27F00DB11D639FAA27F00DB11DAA1F43
:10496000649F6627B00DA11D661F829F2227B00D90
:10497000A11D621F739FB00DA11D621F839FA00D1B
:10498000611D221F749F3327A00D611D231F849F6B
:10499000600D211D822F762F6A2F11249F575040C2
:1049A0008AF0E1F088234AF0EE0FFF1FBB1F661F5D
:1049B000771F881F91505040A9F79E3F510570F016
:1049C00014C05EC05F3FECF3983EDCF386957795AC
:1049D0006795B795F795E7959F5FC1F7FE2B880F11
:1049E000911D9695879597F9089597F99F6780E8A7
:1049F00070E060E008959FEF80EC089500240A9431
:104A00001616170618060906089500240A941216A9
:104A10001306140605060895092E0394000C11F4DC
:104A2000882352F0BB0F40F4BF2B11F460FF04C089
:104A30006F5F7F4F8F4F9F4F089557FD9058440FE2
:104A4000551F59F05F3F71F04795880F97FB991FED
:104A500061F09F3F79F087950895121613061406AA
:104A6000551FF2CF4695F1DF08C016161706180637
:104A7000991FF1CF86957105610508940895E89412
:104A8000BB2766277727CB0197F908951F920F92CE
:104A90000FB60F9211242F933F938F939F93AF9351
:104AA000BF938091590590915A05A0915B05B091F3
:104AB0005C053091580523E0230F2D3758F50196FA
:104AC000A11DB11D209358058093590590935A0557
:104AD000A0935B05B0935C0580915D0590915E05A8
:104AE000A0915F05B09160050196A11DB11D809355
:104AF0005D0590935E05A0935F05B0936005BF913F
:104B0000AF919F918F913F912F910F900FBE0F907A
:104B10001F90189526E8230F0296A11DB11DD2CF34
:104B20003FB7F89480915D0590915E05A0915F0577
:104B3000B091600526B5A89B05C02F3F19F00196DE
:104B4000A11DB11D3FBFBA2FA92F982F8827BC01E7
:104B5000CD01620F711D811D911D42E0660F771F0F
:104B6000881F991F4A95D1F708958F929F92AF920F
:104B7000BF92CF92DF92EF92FF926B017C01D0DF68
:104B80004B015C01C114D104E104F104D9F0FED45D
:104B9000C7DF681979098A099B09683E7340810556
:104BA000910580F321E0C21AD108E108F10888EEEE
:104BB000880E83E0981EA11CB11CC114D104E1042D
:104BC000F10431F7FF90EF90DF90CF90BF90AF905E
:104BD0009F908F900895789484B5826084BD84B549
:104BE000816084BD85B5826085BD85B5816085BDE8
:104BF000EEE6F0E0808181608083E1E8F0E0108201
:104C0000808182608083808181608083E0E8F0E041
:104C1000808181608083E1EBF0E08081846080832B
:104C2000E0EBF0E0808181608083E1E9F0E0808169
:104C300082608083808181608083E0E9F0E0808110
:104C400081608083E1EAF0E08081826080838081FE
:104C500081608083E0EAF0E0808181608083E1E22E
:104C6000F1E0808182608083808181608083E0E2E6
:104C7000F1E0808181608083EAE7F0E080818460F8
:104C80008083808182608083808181608083808155
:104C9000806880831092C1000895863308F086539F
:104CA00020917B00982F9870277F922B90937B0008
:104CB00020912F0290E4299F900111248770822B6C
:104CC00080937C0080917A00806480937A00809148
:104CD0007A0086FDFCCF809178009091790008954C
:104CE0008150823108F059C0E82FF0E08827E5585C
:104CF000F94D8F4F82C49B269F268D26932697269B
:104D0000CD26A226A826AC26B226B626BA26C026CE
:104D1000C426CD26C826CE26D226809180008F7745
:104D2000809380000895809180008F7DF9CF8091DD
:104D30008000877FF5CF84B58F7784BD089584B5D3
:104D40008F7DFBCF8091B0008F778093B000089566
:104D50008091B0008F7DF9CF809190008F77809304
:104D600090000895809190008F7DF9CF8091900000
:104D7000877FF5CF8091A0008F778093A000089562
:104D80008091A0008F7DF9CF8091A000877FF5CF23
:104D9000809120018F7780932001089580912001D8
:104DA0008F7DF9CF80912001877FF5CFCF93DF935F
:104DB00090E0FC01E65DFE4F249180599E4FFC017E
:104DC00084918823C9F090E0880F991FFC01E0537B
:104DD000FE4FA591B491FC01EA54FE4FC591D491C8
:104DE00061110DC09FB7F8948C91209582238C930C
:104DF0008881282328839FBFDF91CF910895623057
:104E000051F49FB7F8943C91822F809583238C9323
:104E1000E8812E2BEFCF8FB7F894EC912E2B2C93AB
:104E20008FBFEACF1F93CF93DF93282F30E0F90194
:104E3000EC51FF4F8491F901E65DFE4FD491F901E9
:104E4000E059FE4FC491CC23A1F0162F811148DF09
:104E5000EC2FF0E0EE0FFF1FEA54FE4FA591B49146
:104E60008FB7F894EC91111108C0D095DE23DC9334
:104E70008FBFDF91CF911F910895DE2BF8CFFC01FA
:104E8000918D228D892F90E0805C9F4F821B91092C
:104E90008F7399270895FC01918D828D981731F0B9
:104EA000828DE80FF11D858D90E008958FEF9FEFC3
:104EB0000895FC01918D828D981761F0A28DAE0F3F
:104EC000BF2FB11D5D968C91928D9F5F9F73928FC6
:104ED00090E008958FEF9FEF0895FC01538D448D6E
:104EE000252F30E0842F90E0821B930B541710F095
:104EF000CF96089501970895FC01A48DA80FB92FAE
:104F0000B11DA35ABF4F2C91848D90E001968F73F1
:104F10009927848FA689B7892C93A089B1898C9110
:104F2000837080648C93938D848D981306C002885F
:104F3000F389E02D80818F7D80830895CF93DF9367
:104F4000EC01888D8823B1F0AA89BB89E889F989A9
:104F50008C9185FD03C0808186FD0CC00FB607FCD7
:104F6000F7CF8C9185FFF2CF808185FFEDCFCE0109
:104F7000C3DFEACFDF91CF910895EF92FF920F93B5
:104F80001F93CF93DF93EC0181E0888F9B8D8C8DF5
:104F900098131AC0E889F989808185FF15C09FB7E9
:104FA000F894EE89FF896083E889F98980818370AC
:104FB000806480839FBF81E090E0DF91CF911F915B
:104FC0000F91FF90EF900895F62E0B8D10E00F5F7C
:104FD0001F4F0F731127E02E8C8D8E110BC00FB653
:104FE00007FCFACFE889F989808185FFF5CFCE01EA
:104FF00083DFF2CFEB8DEC0FFD2FF11DE35AFF4F56
:10500000F0829FB7F8940B8FEA89FB8980818062D8
:10501000D0CFCF92DF92EF92FF921F93CF93DF9387
:10502000EC016A017B01122FE889F98982E0808313
:10503000C11481EED806E104F10499F060E079E052
:105040008DE390E0A7019601B6D2215031094109C4
:1050500051095695479537952795211580E13807D1
:1050600090F0E889F989108260E874E88EE190E0B8
:10507000A7019601A0D22150310941095109569545
:10508000479537952795EC85FD853083EE85FF851F
:105090002083188EEC89FD891083EA89FB89808141
:1050A00080618083EA89FB89808188608083EA89C6
:1050B000FB89808180688083EA89FB8980818F7D7C
:1050C0008083DF91CF911F91FF90EF90DF90CF9081
:1050D00008951F920F920FB60F9211240BB60F92E4
:1050E0002F938F939F93EF93FF93E0917105F0912E
:1050F00072058081E0917705F091780582FD1DC0F1
:10510000908180917A058F5F8F7320917B05821744
:1051100041F0E0917A05F0E0EF59FA4F958F8093D6
:105120007A05FF91EF919F918F912F910F900BBE78
:105130000F900FBE0F901F9018958081F2CF1F9295
:105140000F920FB60F9211240BB60F922F933F932D
:105150004F935F936F937F938F939F93AF93BF937F
:10516000EF93FF9381E695E0C7DEFF91EF91BF914A
:10517000AF919F918F917F916F915F914F913F91EF
:105180002F910F900BBE0F900FBE0F901F90189590
:10519000E1E6F5E01382128288EE93E0A0E0B0E051
:1051A00084839583A683B78385EB92E09183808384
:1051B00085EC90E09587848784EC90E097878687DC
:1051C00080EC90E0918B808B81EC90E0938B828BD4
:1051D00082EC90E0958B848B86EC90E0978B868BAD
:1051E000118E128E138E148E08951F920F920FB689
:1051F0000F9211240BB60F922F938F939F93EF93DF
:10520000FF93E0910E06F0910F068081E091140665
:10521000F091150682FD1DC09081809117068F5F69
:105220008F7320911806821741F0E0911706F0E085
:10523000E250FA4F958F80931706FF91EF919F915F
:105240008F912F910F900BBE0F900FBE0F901F905C
:1052500018958081F2CF1F920F920FB60F921124F2
:105260000BB60F922F933F934F935F936F937F9360
:105270008F939F93AF93BF93EF93FF938EEF95E040
:105280003BDEFF91EF91BF91AF919F918F917F9105
:105290006F915F914F913F912F910F900BBE0F90A7
:1052A0000FBE0F901F901895EEEFF5E0138212825B
:1052B00088EE93E0A0E0B0E084839583A683B78373
:1052C00085EB92E0918380838DEC90E095878487D5
:1052D0008CEC90E09787868788EC90E0918B808BB0
:1052E00089EC90E0938B828B8AEC90E0958B848B99
:1052F0008EEC90E0978B868B118E128E138E148E0F
:1053000008951F920F920FB60F9211240BB60F92B1
:105310002F938F939F93EF93FF93E091AB06F091C0
:10532000AC068081E091B106F091B20682FD1DC00D
:1053300090818091B4068F5F8F732091B50682179C
:1053400041F0E091B406F0E0E556F94F958F809377
:10535000B406FF91EF919F918F912F910F900BBE0B
:105360000F900FBE0F901F9018958081F2CF1F9263
:105370000F920FB60F9211240BB60F922F933F93FB
:105380004F935F936F937F938F939F93AF93BF934D
:10539000EF93FF938BE996E0AFDDFF91EF91BF9123
:1053A000AF919F918F917F916F915F914F913F91BD
:1053B0002F910F900BBE0F900FBE0F901F9018955E
:1053C000EBE9F6E01382128288EE93E0A0E0B0E011
:1053D00084839583A683B78385EB92E09183808352
:1053E00085ED90E09587848784ED90E097878687A8
:1053F00080ED90E0918B808B81ED90E0938B828BA0
:1054000082ED90E0958B848B86ED90E0978B868B78
:10541000118E128E138E148E08951F920F920FB656
:105420000F9211240BB60F922F938F939F93EF93AC
:10543000FF93E0914807F09149078081E0914E0782
:10544000F0914F0782FD1DC09081809151078F5FC1
:105450008F7320915207821741F0E0915107F0E0DD
:10546000E85CF84F958F80935107FF91EF919F91E2
:105470008F912F910F900BBE0F900FBE0F901F902A
:1054800018958081F2CF1F920F920FB60F921124C0
:105490000BB60F922F933F934F935F936F937F932E
:1054A0008F939F93AF93BF93EF93FF9388E397E01E
:1054B00023DDFF91EF91BF91AF919F918F917F91EC
:1054C0006F915F914F913F912F910F900BBE0F9075
:1054D0000FBE0F901F901895E8E3F7E01382128239
:1054E00088EE93E0A0E0B0E084839583A683B78341
:1054F00085EB92E09183808385E391E095878487B3
:1055000084E391E09787868780E391E0918B808B9D
:1055100081E391E0938B828B82E391E0958B848B86
:1055200086E391E0978B868B118E128E138E148EEC
:105530000895AF92BF92CF92DF92EF92FF920F93B6
:105540001F93CF93DF936C017B018B01040F151F19
:10555000EB015E01AE18BF08C017D10759F0699181
:10556000D601ED91FC910190F081E02DC6011995D5
:10557000892B79F7C501DF91CF911F910F91FF9092
:10558000EF90DF90CF90BF90AF9008950895AA1B41
:10559000BB1B51E107C0AA1FBB1FA617B70710F01E
:1055A000A61BB70B881F991F5A95A9F78095909550
:1055B000BC01CD010895A1E21A2EAA1BBB1BFD015F
:1055C0000DC0AA1FBB1FEE1FFF1FA217B307E407E2
:1055D000F50720F0A21BB30BE40BF50B661F771F3A
:1055E000881F991F1A9469F760957095809590951A
:1055F0009B01AC01BD01CF010895EE0FFF1F881F75
:105600008BBF0790F691E02D1994A29FB001B39F34
:10561000C001A39F700D811D1124911DB29F700DBB
:10562000811D1124911D0895F0DFA59F900DB49F59
:10563000900DA49F800D911D11240895FB01DC01A4
:1056400002C001900D9241505040D8F70895DC01FE
:1056500001C06D9341505040E0F70895F894FFCF9A
:10566000000080BF0080FEFFFFFF01E8030000FF95
:10567000FF00000000FFFFFFFFFFFFFFFFFFFF0134
:105680000001000100200038001000FFFFFFFF01B3
:1056900001E302FF00EA0C160DFE00D00C510AFDDA
:1056A00000620CBC0CFC00A80C510AF600990D51CC
:1056B0000AF5006F0CD80DF400620DEF0DDE001638
:1056C00012AF14DD008513510ADA00BF0FC70FD9DE
:1056D00000CA14D70FE200A70E510AE100E20E51F2
:1056E0000AE000570F510AD600AD18510AD50064E0
:1056F00011510AD400F010510AD3006110510AC0B0
:1057000000E60F510AF0001619510AED00D31851A6
:105710000A00000000BD27992A6D279E273F2759C0
:04572000274B2700EC
:00000001FF
