:1000000075C00000A4C00000A2C00000A0C0000095
:100010009EC000009CC000009AC0000098C0000074
:1000200096C0000094C0000092C0000090C0000084
:100030008EC000008CC000008AC0000088C0000094
:1000400086C0000084C0000082C0000080C00000A4
:100050007EC000007CC000007AC000000C949C238D
:1000600076C000000C94CD250C94032670C00000CF
:100070006EC000006CC000006AC0000068C00000D4
:1000800066C0000064C0000062C0000060C00000E4
:100090000C9459260C948F265AC0000058C00000BA
:1000A00056C0000054C0000052C0000050C0000004
:1000B0004EC000004CC000004AC0000048C0000014
:1000C00046C0000044C000000C94F5200C94E526C6
:1000D0000C941B273CC000000C9471270C94A7279C
:1000E00036C000002C26B8264427D02711241FBE76
:1000F000CFEFD1E2DEBFCDBF00E00CBF12E0A0E049
:10010000B2E0E8E2F1E500E00BBF02C007900D921B
:10011000AC3BB107D9F727E0ACEBB2E001C01D92D0
:10012000A73EB207E1F710E0C6E7D0E000E006C066
:1001300021970109802FFE010E946128C237D10753
:1001400080E00807A9F70E94F7210C94922858CF65
:1001500090E080E008950F931F93009709F487C003
:100160006115710509F483C000910002109101022C
:1001700020910202309103020E3F1F4F2F4F3F4F3D
:1001800009F066C04FEF5FEFBA0140930002509351
:1001900001026093020270930302409100025091A9
:1001A00001026091020270910302DC011296ED914E
:1001B000FC9180819181A281B381809324039093EB
:1001C0002503A0932603B093270384819581A681FC
:1001D000B7818093200390932103A0932203B093CF
:1001E000230380859185A285B38580931C0390931A
:1001F0001D03A0931E03B0931F0384859585A685D8
:10020000B7858093180390931903A0931A03B093B2
:100210001B031092140310921503109216031092F0
:100220001703CCD383E095E09093BD028093BC028A
:100230009093BF028093BE02B0D2009731F421E0C8
:1002400030E030932903209328031F910F910895E4
:1002500000910002109101022091020230910302EC
:10026000DB010D931D932D933C93139796CF8FEF46
:100270009FEFEBCF8F929F92AF92BF92CF92DF9280
:10028000EF92FF921F93CF93DF934B015C0110918C
:100290002B0382E090E0909329038093280381143C
:1002A0009104A104B10441F480912B03811104C095
:1002B00080912A03C1E08111C0E0C12CD12C7601CC
:1002C00080912B03811106C080912A03811102C005
:1002D000CC23D1F083E090E090932903809328030E
:1002E000CC2371F1CCE9DFEF111101C0F0D6CE01C2
:1002F000DF91CF911F91FF90EF90DF90CF90BF9053
:10030000AF909F908F9008956AE070E080E090E059
:100310000E940B2480E1C80E87E2D81EE11CF11C6C
:100320008FEF88169806A806B80631F0C1E08C1445
:100330009D04AE04BF0408F0C0E080E062D2C0CFEC
:10034000D0E0C0E0D1CFCF92DF92EF92FF920F9337
:100350001F93CF93DF938F3F910511F008F050C0AA
:1003600020912803309129032330310539F0209161
:100370002803309129032130310531F424E030E0A5
:1003800030932903209328036A017B01EC0182301A
:100390009105A0F011E0AE01C701B601FDD1AB019E
:1003A000BC01CE011123F9F0DF91CF911F910F9184
:1003B000FF90EF90DF90CF900C94900A8C01000F8B
:1003C000111F04541D4FD8018D919C91892B11F35D
:1003D0000E949A0A0297F1F6D801ED91FC91CE01A4
:1003E0001995182FD8CF0E94B20A90E080E0DF91D3
:1003F000CF911F910F91FF90EF90DF90CF900895D4
:100400008FEF9FEFF4CF80E0FCC1CF93DF9386E0C6
:1004100090E090932903809328034CD2EC01ECEBFD
:10042000F2E084E0DF011D928A95E9F7E8D51092A9
:10043000290310922803CE01DF91CF910895809176
:100440002A03089580911303089560930002709326
:100450000102809302029093030290E080E00895ED
:100460008091E407811117C081E08093E40781E067
:1004700090E0A0E0B0E08093DC079093DD07A093CC
:10048000DE07B093DF078093E0079093E107A09326
:10049000E207B093E3076091EA027091EB0280916A
:1004A000EC029091ED026F5F7F4F8F4F9F4F6093F3
:1004B000EA027093EB028093EC029093ED020E94AB
:1004C00083229B01AC016091EE027091EF0280915A
:1004D000F0029091F1020E94E8226093E60270938C
:1004E000E7028093E8029093E9020895E0EDF2E0DC
:1004F00080E090E0A0E8BFEB82A393A3A4A3B5A300
:100500008AE097EDA3E2BCE3868F978FA0A3B1A307
:1005100081EE93EBACE7B2EE84839583A683B78339
:1005200087E59FEBA5EABAE980879187A287B38721
:1005300085E19EEDA2EDB8EC84879587A687B78705
:100540008FE092E3A5E4BDEB808B918BA28BB38B04
:10055000A4ECB2E0B383A283E0ECF2E01196FC934A
:10056000EE9389E292E0918380839383828384EE89
:1005700092E015969C938E93149784ED92E01396D7
:100580009C938E93129786EE92E017969C938E938F
:100590001697089508954F925F926F927F928F926F
:1005A0009F92AF92BF92CF92DF92EF92FF920F9302
:1005B0001F93F89440900303509004036090050348
:1005C00070900603C090F702D090F802E090F90214
:1005D000F090FA02452B09F0A4C09B01AC0124194C
:1005E00035094609570929013A010091FF02109186
:1005F0000003209101033091020348015901840C4A
:10060000951CA61CB71C80169106A206B306A0F482
:100610000091FB021091FC022091FD023091FE023C
:100620000F5F1F4F2F4F3F4F0093FB021093FC02B1
:100630002093FD023093FE028092FF02909200030D
:10064000A0920103B09202030091FB021091FC0200
:100650002091FD023091FE028092070390920803E0
:10066000A0920903B0920A0300930B0310930C03AA
:1006700020930D0330930E036093030370930403E0
:100680008093050390930603A0E1B7E2A3019201D2
:100690000E9469286C0D7D1D8E1D9F1D6093F702C1
:1006A0007093F8028093F9029093FA02009100028D
:1006B0001091010220910202309103020F3F1F4F5F
:1006C0002F4F3F4FF1F00091000210910102209155
:1006D0000202309103020E3F1F4F2F4F3F4F89F010
:1006E000C0900002D0900102E0900202F09003025C
:1006F00021E08C149D04AE04BF0408F420E0209394
:10070000130378941F910F91FF90EF90DF90CF909B
:10071000BF90AF909F908F907F906F905F904F9021
:1007200008954B015C0184189508A608B708A30139
:100730009201261B370B480B590B6415750586056E
:100740009705D0F082169306A406B50640F420E083
:1007500030E0A90181149104A104B10491F4A0E155
:10076000B7E20E946928A7019601261B370B480BA8
:10077000590BCA01B901C5CF82169306A406B50666
:1007800070F7A0E1B7E2A50194010E9469286C0D01
:100790007D1D8E1D9F1DB5CFFECECF93DF9300D064
:1007A0001F92CDB7DEB71C821B821A82198210926B
:1007B0000F03109210031092110310921203BE0146
:1007C0006F5F7F4FCE0103960E94C62069817A81B8
:1007D0008B819C810E94B619009761F4BE016F5F06
:1007E0007F4FCE0103960E94D22069817A818B814E
:1007F0009C812ED50F900F900F900F90DF91CF918D
:100800000895FF920F931F93CF93DF93082F60E01B
:1008100070E0CB010E940B24FF24F3940E949F18E8
:10082000EC01892B89F010E0CE3F8FEFD80769F0FB
:10083000002361F160E070E0CB010E940B2481E0B5
:1008400090E0892B59F322C011E025D5EC01892BCA
:1008500021F0CE3F8FEFD80759F711111EC011E0DC
:10086000229609F410E00E944F18EC01892B21F028
:10087000CE3F8FEFD807E1F6111111C011E0CE3F46
:100880008FEFD80709F410E001110BC0CE01DF9102
:10089000CF911F910F91FF90089511E0E4CF11E0E7
:1008A000F3CF60E070E0CB010E940B241F25812F65
:1008B00090E0C7CFCF93DF9380911303882321F07B
:1008C00060E070E0CB014CD635D6D0E0C0E0892B9B
:1008D00071F06AE070E080E090E00E940B2481E01B
:1008E00090DF28D62196C03D27E0D20781F727D692
:1008F0000E940A1A10922B0310922A0310922403CA
:1009000010922503109226031092270310922003C1
:1009100010922103109222031092230310921C03C1
:1009200010921D0310921E0310921F0310921803C1
:100930001092190310921A0310921B0310921403C1
:100940001092150310921603109217034EEF5FEFEB
:100950006FEF7FEF40930002509301026093020219
:100960007093030210921303E7E0F3E028E0DF0145
:100970001D922A95E9F71092030310920403109236
:100980000503109206031092FF02109200031092CA
:100990000103109202031092FB021092FC021092CB
:1009A000FD021092FE021092F7021092F8021092CD
:1009B000F9021092FA02DF91CF9108951092370355
:1009C000109238031092390310923A0310923603B2
:1009D00080913F03909140039093350380933403BB
:1009E000109233031092320310922E0310922F03B1
:1009F000109230031092310310923C0310923B038B
:100A000090E080E00895CF92DF92EF92FF920F93F3
:100A10001F93CF938C01892B09F055C020913F0380
:100A200030914003809134039091350340913F030E
:100A300050914003509335034093340328173907EE
:100A400081F0109233031092320310922E03109211
:100A50002F03109230031092310310923C03109236
:100A60003B0380913F0390914003019761F5809192
:100A70003B0390913C03892B21F480910402811166
:100A800012C080913B0390913C030197E1F4809167
:100A90002E0390912F03A0913003B0913103019761
:100AA000A105B10581F410922E0310922F0310922C
:100AB0003003109231031092040282E090E0909390
:100AC0003C0380933B0380913F0390914003019747
:100AD00009F01CC18091550390915603801791072E
:100AE00009F014C18091510390915203A0915303D6
:100AF000B0915403009709F409C1209150032111CA
:100B00000DC0409151035091520360915303709175
:100B10005403452B462B472B09F4F8C020913B0387
:100B200030913C032230310509F0F0C020913203AE
:100B30002111ECC0FC01C080D180E280F380809163
:100B40003603882309F4D3C0809142039091430374
:100B5000892B09F4FDC0209142033091430381E0C9
:100B60002230310509F080E02091420330914303A7
:100B7000C1E02130310549F0209142033091430317
:100B8000C1E02230310509F0C0E0882309F456C0E5
:100B900020914C0330914D0340914E0350914F03EF
:100BA000C701B6010E94E42287FD14C020914C03C6
:100BB00030914D0340914E0350914F0360913703A4
:100BC000709138038091390390913A030E947F22FB
:100BD00087FD22C020914C0330914D0340914E037C
:100BE00050914F03C701B6010E94E422181634F554
:100BF00020914C0330914D0340914E0350914F038F
:100C000060913703709138038091390390913A03D2
:100C10000E947F22811112C080914403909145036C
:100C2000A0914603B0914703892B8A2B8B2B19F493
:100C300081E08093330381E080933203CC2309F475
:100C400056C020914C0330914D0340914E0350917A
:100C50004F03C701B6010E947F2287FF14C0209175
:100C60004C0330914D0340914E0350914F036091DE
:100C70003703709138038091390390913A030E94B1
:100C8000E42287FF22C020914C0330914D03409114
:100C90004E0350914F03C701B6010E947F2281117C
:100CA00026C020914C0330914D0340914E0350914A
:100CB0004F0360913703709138038091390390910D
:100CC0003A030E94E422181694F480914403909110
:100CD0004503A0914603B0914703892B8A2B8B2BA8
:100CE00019F481E08093330381E08093320381E043
:100CF00090913203911180E080933603C0923703C4
:100D0000D0923803E0923903F0923A03012B09F0B4
:100D100067C180913B0390913C03892BD9F41092D9
:100D200041031092320380910402882379F082E01B
:100D300090E090933C0380933B0310920402209137
:100D40003F033091400381E0232BE9F080E01BC09A
:100D500081E00ACF1092040280914103882349F078
:100D60001092330310923C0310923B031092410304
:100D7000EDCF80913F0390914003892BE1F080916A
:100D800032031092320320913B0330913C03223016
:100D9000310509F45EC088F42115310509F448C015
:100DA0002130310509F4F3C010923303109232035D
:100DB0001092410338C081E0E6CF2330310509F4B9
:100DC000B1C02430310581F740912E0350912F039B
:100DD0006091300370913103411551056105710532
:100DE00061F0415051096109710940932E035093FC
:100DF0002F03609330037093310340912E03509181
:100E00002F036091300370913103452B462B472B04
:100E1000D9F420913D0330913E032130310509F092
:100E200046C01092330310923C0310923B030CC057
:100E300080910402882341F082E090E090933C038B
:100E400080933B031092040210922C038091330391
:100E5000CEC08823C9F38091440390914503A091AB
:100E60004603B0914703181619061A061B060CF024
:100E70007DC080913F0390914003019709F076C0B7
:100E80008091440390914503A0914603B09147039C
:100E900080932E0390932F03A0933003B0933103DC
:100EA00083E090E090933C0380933B03CDCF40914F
:100EB00048035091490360914A0370914B03452BBD
:100EC000462B472BA9F01092330380914803909151
:100ED0004903A0914A03B0914B0380932E03909352
:100EE0002F03A0933003B093310381E090E0DACF79
:100EF000882399F08091050290910602A091070243
:100F0000B091080280932E0390932F03A093300397
:100F1000B093310384E090E0C5CF1092330382E0B8
:100F200090E0C0CF80912E0390912F03A0913003C9
:100F3000B09131030097A105B10559F00197A109BE
:100F4000B10980932E0390932F03A0933003B093A5
:100F5000310380912E0390912F03A0913003B09123
:100F60003103892B8A2B8B2B09F06ECF80910502E0
:100F700090910602A0910702B0910802892B8A2B5A
:100F80008B2B09F44ECF81E080933303B3CF409194
:100F90002E0350912F03609130037091310341155E
:100FA00051056105710561F04150510961097109EF
:100FB00040932E0350932F036093300370933103BB
:100FC00040912E0350912F036091300370913103B3
:100FD000452B462B472B09F037CF8111C7CF9FCF29
:100FE00080912C03882309F431CF80912D03CF9178
:100FF0001F910F91FF90EF90DF90CF900895109286
:101000003703109238031092390310923A0310926A
:10101000360310923C0310923B031092350310925A
:10102000340310925603109255031092330310921A
:10103000320310922E0310922F031092300310925D
:10104000310310922D0310922C0310925103109231
:1010500052031092530310925403109250031092B3
:101060004C0310924D0310924E0310924F0388EEE2
:1010700093E0A0E0B0E08093050290930602A09375
:101080000702B0930802109248031092490310928D
:101090004A0310924B03109244031092450310929E
:1010A000460310924703109243031092420381E0DB
:1010B00080930402109241031092400310923F0368
:1010C00010923E0310923D0390E080E008958091DD
:1010D0003F0390914003892B19F5809104028823E6
:1010E00051F080914103811106C081E080932D036E
:1010F00080932C030895209141033091040281E0F4
:1011000090E0332311F090E080E030E082239323DD
:10111000892B21F010922D0381E0EACF10922C034D
:10112000089582E090E0FA01918380838FEF9FEF32
:101130000895CF93DF93EA01009711F00E942A1BD4
:101140001982188290E080E0DF91CF910895DB0151
:10115000009719F48FEF8C9308952EEF2C93FC01D8
:101160003F96EF30F10508F034C08827E554F74F7B
:101170008F4F0C946128E708E508E308E108DF08D1
:10118000DB08DD08D908D708D508D208CE08CA0878
:10119000D008E90880E311968C93089589E2FBCF8B
:1011A00082E2F9CF11961C92089583E2F4CF81E296
:1011B000F2CF81E1F0CF87E2EECF8AE2ECCF80E19F
:1011C000EACF84E2E8CF88E2E6CF86E2E4CF81E3AB
:1011D000E2CF80E2E0CF80916303909164030895B1
:1011E000909364038093630308958091620308954C
:1011F00090916203892B809362030895982F9095B4
:101200008091620389238093620308958091610332
:10121000089580915F0390916003089561157105B1
:1012200059F0FB0130E020E070E060E02417350762
:1012300019F06115710511F0CB010895A081B181FC
:10124000A817B90709F4BF012F5F3F4F3696EECFBD
:101250008091650381111CC060D266D290935803BF
:10126000809357030E9428130E943A1390935C03C3
:1012700080935B030E94B7170E94BE1790935A0396
:101280008093590381E08093650390E080E00895A6
:1012900084EF9FEF08958F929F92AF92BF92CF926B
:1012A000DF92EF92FF920F931F93CF93DF9300D0C3
:1012B00000D000D01F92CDB7DEB71A8619861886E7
:1012C0001F821E821D821C821B821A8219828091BB
:1012D000650307EF1FEF882309F49CC08E010D5FA3
:1012E0001F4F9E012B5F3F4FAE01495F5F4FBE0115
:1012F000675F7F4F90E080E00E943B198C01009770
:1013000021F00596029708F0DBC029853A85211562
:10131000310509F402C1ED80FE804B815C81B7018B
:10132000640F751F8F8198858617970708F4F5C09D
:10133000E20EF31ED7019C91903C09F07FC0423031
:10134000510508F47BC011968C9140916303509134
:101350006403452B09F49CC0913F08F071C02CE157
:10136000290F2D3008F48BC02DE2290F203108F40D
:1013700089C0903C21F48150823008F483C088E316
:10138000890F8B3008F481C097EAC92E98E0D92ED6
:10139000E1E9F8E06D817E81AE014F5F5F4F8985A5
:1013A0009A8519955C01C114D104A1F189809A80B4
:1013B0008114910479F18B819C818815990508F439
:1013C00087C010E000E04B815C8170E060E0C70105
:1013D0000E948B2801151105E9F449815A8169851C
:1013E0007A858D819E81680F791FC501F601199557
:1013F000E980FA800D811E812F81388549855A85C3
:101400006FEF7FEF81E090E00E94D6188C01892B6E
:1014100009F056C0C8012A960FB6F894DEBF0FBE79
:10142000CDBFDF91CF911F910F91FF90EF90DF9093
:10143000CF90BF90AF909F908F90089580E085CF20
:1014400030E020E0220F331FF901E95AFC4F0190F0
:10145000F081E02D309709F497CF892F90E019950E
:10146000009709F491CFDC011296ED91FC9113974E
:101470001496CD90DC90309709F08CCF1FC021E0FE
:1014800030E0E0CF22E030E0DDCF23E030E0DACF23
:10149000D12CC12CE9E9F8E09F3F09F07BCFE09126
:1014A0005703F0915803309721F4C90104EF1FEF5F
:1014B0000CC08FEF90E019950097A9F604EF1FEF8D
:1014C00089859A85009709F4A5CF0E942A1BA2CF8F
:1014D0000E94051A8C0189859A850E942A1B70E05A
:1014E00060E0C4010E949E1998878F830E94D318E0
:1014F0009E838D836F8178856115710559F0C801D0
:101500000E94B61C9A87898706EF1FEF892B09F086
:1015100058CF59CF08EF1FEF56CF08EF1FEFD0CFAE
:1015200020916503222319F020E00C943F1387EFEC
:101530009FEF0895809163039091640308950E9442
:10154000C3170E941D17F5D0E7E5F3E088E0DF013F
:101550001D928A95E9F71092650390E080E0089566
:101560000C947B1521E040E050E0BA010C943F134D
:1015700086E090E0FA019183808390E080E0089516
:1015800047E050E06CE272E049CEDF92EF92FF92CA
:101590000F931F93CF93DF938A01EC01C60FD71FE0
:1015A000E0906903F0906A03D9800E94ED19D81683
:1015B000190678F082E090E0F801918380838EEF45
:1015C0009FEFDF91CF911F910F91FF90EF90DF90F0
:1015D0000895EF2841F482E090E0F8019183808340
:1015E00084EF9FEFEECF89818093680390E00196AE
:1015F000F8019183808390E080E0E3CFCF93DF9385
:10160000EA010E942C16882321F00E94FA190E94F8
:101610002D1682E090E0998388838BEF9FEFDF9116
:10162000CF910895CF93DF93EB0186E0FB011192F8
:101630008A95E9F78FEF8883D8DD8983E7DD8A8390
:10164000E8DD9D838C83DF91CF910895CF93DF9365
:10165000EA010E942F16811109C082E090E099836F
:10166000888385EF9FEFDF91CF91089590E080E030
:10167000B7DD81E090E09983888390E080E0F3CF4C
:101680000F931F93CF93DF93EA018C01060F171F6F
:101690000E942F1681110BC082E090E0998388830D
:1016A00085EF9FEFDF91CF911F910F910895F80182
:1016B0008181823038F082E090E0998388838EEFD8
:1016C0009FEFF0CF81E090E08BDD88E090E09983A0
:1016D000888390E080E0E6CFCF93DF930097D1F44A
:1016E000EB01FB01329686E0DF011D928A95E9F756
:1016F0008FEF888385E089831A820E94ED198B839E
:101700000E94EC199D838C8381E08E838F83DF910F
:10171000CF910895DF91CF911ACD80EC9AE090930C
:101720006703809366030895809166039091670331
:1017300008951092670310926603089580916903DB
:1017400090916A030895411105C0611571058105E5
:10175000910561F06093690370936A0380936B0352
:1017600090936C0340936D0381E0089580E00895A9
:10177000FF920F931F93CF93DF938A01EC01C60F63
:10178000D71FF9800E94ED19F816190668F082E05B
:1017900090E0F801918380838EEF9FEFDF91CF91EE
:1017A0001F910F91FF9008956C817D818E819F81A3
:1017B0004B81C9DF811108C082E090E0F80191837C
:1017C000808384EF9FEFEACF89818093680390E064
:1017D0000196F8019183808390E080E0DFCFCF9382
:1017E000DF93EA01FC01E60FF71F648175818681B2
:1017F00097814381A8DF811109C082E090E099833D
:10180000888384EF9FEFDF91CF91089581E090E08E
:101810009983888390E080E0F6CFE9E6F3E04081A9
:10182000518162817381480F511D611D711D40837B
:101830005183628373830895CF93C09168034C2FC3
:1018400050E06091690370916A0301960E948228BA
:101850008C2FE3DF10926803CF910895009799F4DD
:101860008091690390916A032FEFFB012083892BFC
:1018700059F02091680330E02F5F3F4F2417350760
:1018800019F4CB01D9CF63CC0895009799F48091D6
:10189000690390916A032FEFFB012083892B59F094
:1018A0002091680330E02F5F3F4F2417350719F46C
:1018B000CB01C2CF4CCC089523E1AC01249FC001E1
:1018C000259F900D1124E0917203F0917303E80FAE
:1018D000F91F238134812250310981E02230310502
:1018E00008F080E008950F931F93CF93DF9300914A
:1018F000740310917503D0E0C0E080E00C171D0761
:1019000049F491E0811190E0892FDF91CF911F91EF
:101910000F9108958111F5CFCE01CEDF2196EECF44
:10192000A0917203B0917303109729F12091740371
:101930003091750382179307F0F453E1589F90019B
:10194000599F300D1124A20FB31FED91FC911197F7
:10195000309789F012968C91681768F48DE0689F33
:10196000E00DF11D112480819181892B21F081E00E
:101970009281491708F080E008959C0143E1429F5D
:10198000C001439F900D1124E0917203F091730305
:10199000E80FF91F8385823091F481E090E0658142
:1019A00076814091090250910A026417750711F47B
:1019B00090E080E0892B19F081E0232B09F080E092
:1019C0000895FC01A081B1818DE0689FA00DB11D3B
:1019D000112413964D915C9185859685489F9001C1
:1019E000499F300D589F300D1124C9010196611196
:1019F00003C0478144FD04960895EF92FF920F9330
:101A00001F93CF93DF93EA01FC01E60FF71F0281DA
:101A10001381E480F5804F2D6E2DC80181DF811187
:101A20000DC082E090E0998388838EEF9FEFDF9175
:101A3000CF911F910F91FF90EF900895C8013CDF67
:101A4000882339F082E090E09983888388EF9FEFC4
:101A5000EECF1093100200930F02E0921102F09269
:101A6000120281E090E09983888390E080E0DFCFEC
:101A7000CF92DF92EF92FF920F931F93CF93DF935A
:101A80007A01EC01C60FD71FC0900F02D090100250
:101A90000091110210911202412F602FC60140DF08
:101AA000811110C082E090E0F701918380838AEF7A
:101AB0009FEFDF91CF911F910F91FF90EF90DF90FB
:101AC000CF900895C601F8DE882341F082E090E0CF
:101AD000F7019183808388EF9FEFEBCF4C815D818D
:101AE0006E817F819A8189818F3F41F082E090E011
:101AF000F701918380838EEF9FEFDBCFE3E1EC9DD5
:101B00009001ED9D300D1124E0917203F09173036B
:101B1000E20FF31F0190F081E02D2DE0029FE00D18
:101B2000F11D11240190F081E02D27E0129FE00DBE
:101B3000F11D1124808391838B818283438354839D
:101B4000658376831F5F1093120281E090E0F701B6
:101B50009183808390E080E0ACCFEF92FF920F936F
:101B60001F93CF93DF937A018C01060F171FC0914B
:101B70007203D0917303209781F021E030E0F801E7
:101B80008281938140917403509175038417950766
:101B900010F030E020E0232B71F482E090E0F701B8
:101BA000918380838EEF9FEFDF91CF911F910F91F3
:101BB000FF90EF90089543E1489F9001499F300DB9
:101BC0001124C20FD31F78DE882341F082E090E019
:101BD000F7019183808388EF9FEFE6CFF80124819E
:101BE000358120383105C8F687818111D6CF4181F2
:101BF000842F90E08F7E009741F082E090E0F70123
:101C00009183808386EF9FEFCFCF4F833E832D83D9
:101C1000268128871986223010F421E0288721E0C8
:101C200030E0F70131832083BFCF88E090E0FA01F4
:101C30009183808390E080E00895FB018FEF8083A3
:101C400081E181838FEF9FEF9383828380E890E02F
:101C500095838483168217820895FB018FEF80831A
:101C600091E0918382839383848384E3858381E0FD
:101C700090E0978386830895DF92EF92FF920F930F
:101C80001F93CF93DF93EA01FC01E60FF71F8181D9
:101C9000813071F082E090E0998388838FEF9FEF2D
:101CA000DF91CF911F910F91FF90EF90DF900895FA
:101CB00082819381D4802581E680F7800091720330
:101CC000109173030115110539F482E090E09983B6
:101CD00088838CEF9FEFE4CF40917403509175039C
:101CE0008417950738F082E090E0998388838EEF1F
:101CF0009FEFD6CF892B39F082E090E099838883DB
:101D000086EF9FEFCDCF8D2D8D7FB1F72130A1F7DD
:101D100081E0D11006C091E0E916F10431F080E0D5
:101D200004C0E2E0EE16F104D0F3882329F390E03A
:101D300080E0C2DD882339F082E090E099838883D7
:101D400088EF9FEFADCFF801D38681E08487F686D8
:101D5000E586108A178681E090E09983888390E079
:101D600080E09ECF4CE050E066E572E057CA8F926B
:101D70009F92BF92CF92DF92EF92FF920F931F93A9
:101D8000CF93DF93EA01FC01E60FF71F8281938175
:101D90000481B580E0917203F0917303309791F460
:101DA00082E090E0998388838CEF9FEFDF91CF9161
:101DB0001F910F91FF90EF90DF90CF90BF909F9079
:101DC0008F900895209174033091750382179307C3
:101DD00038F082E090E0998388838EEF9FEFE6CF22
:101DE00023E1289F6001299FD00C1124EC0DFD1DDB
:101DF000E080F180E114F10499F28281081748F73C
:101E00008DE0089F80011124E00EF11EF701808112
:101E10009181892B29F6BB20E1F2F7E0BF9E4001BA
:101E20001124C4010E94F11AF70191838083E0918B
:101E30007203F0917303EC0DFD1D0190F081E02D14
:101E4000E00FF11F80819181009739F482E090E0EA
:101E5000998388838DEF9FEFA9CFA40170E060E0A4
:101E60000E948B288091720390917303C80ED91E33
:101E7000F60180819181080F191FF801B28281E07B
:101E800090E09983888390E080E090CFAF92BF92FA
:101E9000CF92DF92FF920F931F93CF93DF93EA01CC
:101EA000FC01E60FF71F82819381F4800091720399
:101EB000109173030115110581F482E090E099837C
:101EC00088838CEF9FEFDF91CF911F910F91FF904F
:101ED000DF90CF90BF90AF90089520917403309120
:101EE00075038217930738F082E090E09983888326
:101EF0008EEF9FEFE8CF2FEF2F0D2C3FA8F723E1B8
:101F0000289F6001299FD00C11240C0D1D1DF80184
:101F100080819181892B89F6FDE0FF9E500111247B
:101F2000C5010E94F11AF80191838083E091720348
:101F3000F0917303EC0DFD1D80819181009739F4C0
:101F400082E090E0998388838DEF9FEFBCCFA5015D
:101F500070E060E00E948B28E0917203F0917303BF
:101F6000EC0DFD1DF28281E090E09983888390E082
:101F700080E0A9CFCF92DF92EF92FF920F931F9351
:101F8000CF93DF93860F971FFC010281138180910D
:101F9000720390917303892B81F082E090E0FA0143
:101FA000918380838CEF9FEFDF91CF911F910F91F1
:101FB000FF90EF90DF90CF900895C801B0E0A0E0CF
:101FC0000197A109B1098F3F9F4FA105B10540F0CD
:101FD00082E090E0FA01918380838EEF9FEFE4CF5F
:101FE0007A0183E1809F6001819FD00C1124C6019A
:101FF0000E94F11AEC01009741F482E090E0F701B1
:10200000918380838DEF9FEFCFCFA60170E060E0DA
:102010000E948B28D0937303C093720310937503AF
:102020000093740390E080E02FEF3FEF41E061E028
:1020300070E08017910741F481E090E0F70191830F
:10204000808390E080E0B0CF3A8B298B1B864C8751
:102050007E876D87188A1F8601966396EACFEF9276
:10206000FF921F93CF93DF93EC0110E0F12CE12C52
:102070006A811617B0F083E0689FB0011124AE01A9
:102080004F5E5F4FC7010E94561B009721F02FEF54
:102090003FEF3A8B298BDF91CF911F91FF90EF900B
:1020A0000895612FCE018DDC61E070E00E949E19E1
:1020B000E816F90608F47C011F5FDACFF894209146
:1020C00070033091710381E02115310509F080E042
:1020D000232B09F0789408952F923F924F925F92AC
:1020E0006F927F928F929F92AF92BF92CF92DF9228
:1020F000EF92FF920F931F93CF93DF933C01660EF5
:10210000771EF301828193814C01B12CA12CC091E7
:102110007203D0917303209769F021E030E0609161
:102120007403709175038617970710F030E020E074
:10213000232BD1F482E090E0FA01918380838EEF2B
:102140009FEFDF91CF911F910F91FF90EF90DF9064
:10215000CF90BF90AF909F908F907F906F905F9047
:102160004F903F902F900895809213029092140206
:10217000A0921502B092160263E1689F9001699FD8
:10218000300D1124C20FD31FF3018181833040F041
:1021900082E090E0FA019183808386EF9FEFD1CFB8
:1021A0002A012B813C81232BF1F4288139819F81E5
:1021B00091FF2EC0232B09F46FC0209177039A81E1
:1021C000422F490F5527551FBA0141E050E06138B1
:1021D000710514F050E040E0452B09F45DC02A87FA
:1021E000920F909377038150823008F481C066DFAC
:1021F000882309F4D8C0F3018181813009F48DC0AE
:1022000008F47BC0823009F4C6C090E080E0ADC025
:10221000232B09F441C0209176039A81E22FE90F24
:10222000FF27FF1F41E050E0ED3FF10514F050E0C3
:1022300040E0452B89F12A87920F90937603D3CF04
:10224000A081B181A20FB31F11966C91060F111DD1
:102250000196295F3F4F8417950794F38D859E85DE
:10226000089F1001099F300C189F300C1124C114D5
:10227000D104D1F48F8184FF17C00E94EC19F5E0DE
:102280002F0E311C21E08215930508F420E0A701F0
:10229000435F5F4F21110EC082E090E0F201918315
:1022A000808387EF9FEF4DCF0E94EC192FEF221A0A
:1022B000320AE8CF88819981E80EF91EF70114836C
:1022C0000383FFEFCF1ADF0A7A018A818C151D0480
:1022D00009F00CF48CCFE881F981EE0DFF1D4281ED
:1022E00050E030E020E010E000E090E080E0B3CF8C
:1022F000F12CE12CD12CC12CE8CF81E090E09C8323
:102300008B83F1DA882309F480CF81E090E00E948A
:10231000F00880E40E94FE0878CF89899A890196A6
:1023200061F083E090E09C838B8382E090E00E94E8
:10233000F00880E40E94F80868CF8D819E8120918A
:10234000090230910A0282179307D1F460910D02BD
:1023500070910E02AE014F5E5F4F80910B02909123
:102360000C020E94751C0097E1F2789422E030E0A4
:10237000F20131832083892B99F08DEF9FEFE1CE1D
:1023800089288A288B2869F6892B59F6CE0167DEC1
:10239000188A1F86E8CF82E090E09C838B8335CF3C
:1023A00090E080E0CECE82E090E0F20191838083E5
:1023B00085EF9FEFC6CE8F929F92AF92BF92CF9242
:1023C000DF92EF92FF920F931F93CF93DF93EA0177
:1023D0008C01060F171FF8018181833098F082E08D
:1023E00090E09983888386EF9FEFDF91CF911F91D3
:1023F0000F91FF90EF90DF90CF90BF90AF909F90A4
:102400008F9008958091720390917303892B61F0EE
:1024100081E090E02091740330917503232B11F437
:1024200090E080E0892B39F482E090E09983888302
:102430008EEF9FEFDACF42DE882309F4DFC0F80188
:102440008181813009F495C0E8F0823099F42091BF
:10245000740330917503E0917203F091730390E07F
:1024600080E041E050E02817390709F0BDC03BDAB1
:10247000811117C0789481E090E09983888390E07F
:1024800080E0B3CF2091740330917503E091720323
:10249000F091730390E080E041E050E028173907A5
:1024A00041F481E090E00E94F00880E40E94FE0880
:1024B000E1CF63817481672B11F0548343830196CC
:1024C0007396ECCFE0917203F0917303E00FF11F6C
:1024D0002381348122303105D9F4218932892F3F7B
:1024E0003F4FB1F4258136814091090250910A0293
:1024F0002417350761F5AF014F5E5F4F60910D0204
:1025000070910E0280910B0290910C020E94751C3A
:10251000EFEFCE1ADE0AEE0AFE0A0D5E1F4F409163
:1025200074035091750370E060E0C416D506E606AA
:10253000F7063CF5009731F27894892B09F49BCF8C
:1025400082E090E0998388838DEF9FEF4ECFC11496
:10255000D104E104F104E1F6232BD1F6CF017FDDB4
:10256000E0917203F0917303E00FF11F108A178658
:10257000CFCF10E000E090E080E0C12CD12C7601BC
:10258000CECF0097C9F610E000E0812C912C5401C9
:1025900083E0E82EF12C1AC0E0917203F0917303EE
:1025A000E00FF11F83819481029749F4F482E38262
:1025B00082E090E00E94F00880E40E94F808FFEFBB
:1025C0008F1A9F0AAF0ABF0A0D5E1F4F80917403D6
:1025D00090917503B0E0A0E088169906AA06BB06A4
:1025E000DCF290E080E0A8CF6381748162307105F5
:1025F00011F4548343830196739635CF82E090E0C3
:102600009983888385EF9FEFF0CE0097B9F48FEF21
:10261000FB018083209113023091140243E1429F19
:10262000C001439F900D1124E0917203F091730358
:10263000E80FF91F8285FB01818308950C94A70898
:1026400088E090E0FA019183808390E080E0089533
:102650001092710310927003E2E7F3E086E0DF016D
:102660001D928A95E9F782EB9EE090936F03809329
:102670006E03089580916E0390916F0308952F92D9
:102680003F924F925F926F927F928F929F92AF9202
:10269000BF92CF92DF92EF92FF920F931F93CF934F
:1026A000DF93CDB7DEB72F970FB6F894DEBF0FBE1E
:1026B000CDBFF894E0917003F09171033196F093DF
:1026C0007103E09370037894409072035090730309
:1026D0004114510409F40CC2E0917403F0917503A4
:1026E000EF2B09F405C22D8749875A876B877C87B2
:1026F00098878F831201B12CA12C10E000E080910B
:10270000740390917503A816B90618F40115110504
:1027100029F1F8948091700390917103019790933F
:102720007103809370037894C8012F960FB6F894C4
:10273000DEBF0FBECDBFDF91CF911F910F91FF90F4
:10274000EF90DF90CF90BF90AF909F908F907F9051
:102750006F905F904F903F902F9008957101E41813
:10276000F508D10117968C91179781FD54C01396E7
:102770008D919C911497039709F04DC015968D91FA
:102780009C91EF81F8858E179F0709F044C0B50131
:1027900090E080E07FD48A832091720330917303AC
:1027A0003D832C833D85332309F44CC04C815D81EE
:1027B000452B09F49AC18091740390917503A81672
:1027C000B90608F092C1C501D8D88823E9F06C8118
:1027D0007D816E0D7F1D7D836C83DB011F968D9146
:1027E0009C91892B89F0D12CC12CF12CE12CAC814E
:1027F000BD8112968C9112978E151F0409F094F4E6
:1028000050961C921E921F972A81222321F0B50117
:1028100090E080E041D43FEFA31AB30A43E1240ED5
:10282000311C6DCFAC81BD81ED91FC91EC0DFD1D96
:10283000858196810FD7BFEFEB1AFB0AEDE0CE0E34
:10284000D11CD5CFEC81FD81309709F44EC1809128
:10285000740390917503A816B90608F046C1EE0DF1
:10286000FF1DFF87EE87C50188D88B83882339F148
:10287000AE85BF851F968D919C915097019621E062
:102880001D964D915C918417950709F020E02E83E9
:102890001982712C10E000E0AE85BF8512968C91F4
:1028A000781608F45DC0EE85FF85878590890196CE
:1028B000658576850E942B28908B8787A5CFB1E010
:1028C000BE83E6CF992493946BC08BD6F601968392
:1028D000858382C0D601ED90FC90B7E06B9EE00C42
:1028E000F11C1124F7016381748180818F3F61F1B4
:1028F00021E030E002C0220F331F8A95E2F7C901C0
:10290000092E000CAA0BBB0BFB0140815181628197
:10291000738184239523A623B72321E0892B8A2B57
:102920008B2B09F420E0D4012C93D70111968C91C4
:10293000F60123853485820F932F911D880E991EF1
:102940001486138663949BC0418150E0C4010E94A9
:102950008228EBCF998206EF1FEFC5C01982C3C052
:10296000F981F111A0CFEDE07E9E70011124AE85BA
:10297000BF85CD90DC90CE0CDF1C15D49D838C835D
:10298000BB81BB2309F49ECF81E0EE85FF852785BF
:102990003089232B09F080E0982E882309F458C051
:1029A000672D8E859F850DD8D60118969C938E93A2
:1029B000179761E070E0C2D4EE85FF8521893289E6
:1029C0002F3F320709F481CFBC01C901CFD7D6010F
:1029D00016969C938E931597D60115968D919C9182
:1029E0001697009709F4B6CFEC81FD818E0F9F1FDB
:1029F0001A969C938E931997AE85BF85ED91FC91A5
:102A00001197EE0EFF1EF70121853285148613867D
:102A10001A968C91870DD9018D93711016C0EE8591
:102A2000FF85878184FF11C049855A856B857C8528
:102A3000F9014183528363837483F701838594850D
:102A40000496A80FB91F14861386F701B287A187D1
:102A5000D60115968D919C911697892B09F443C048
:102A6000EE85FF85258136818091090290910A02C9
:102A70002817390779F019968D909C90612CD60112
:102A800012968C911297681608F424CF1A969C928D
:102A90008E921997BE81BB2309F460CF61E070E08C
:102AA000F601878190854AD4D6011796ED90FC9067
:102AB000189715964D915C91E1E0F0E0BA81BB2347
:102AC00011F0F0E0E0E00C811D819C01B501882748
:102AD00099278E1B9F0B6AD38C01892B21F0F6015D
:102AE00085819681B7D57394D7CE0FEF1FEF8CCE2B
:102AF00010E000E00ECE2F923F924F925F926F92C5
:102B00007F928F929F92AF92BF92CF92DF92EF927D
:102B1000FF920F931F93CF93DF9380917203909155
:102B2000730310E000E0892BA9F0C8DA0AEF1FEF69
:102B3000882381F02090740330907503C091720354
:102B4000D0917303D12CC12C10E000E02C143D0473
:102B5000A9F47894C801DF91CF911F910F91FF9054
:102B6000EF90DF90CF90BF90AF909F908F907F902D
:102B70006F905F904F903F902F900895C6010E94F4
:102B8000BD0C882309F18B819C810397E9F48F8523
:102B90009889892BC9F0B60190E080E07BD221E0D2
:102BA00030E0882311F030E020E044245524421A1C
:102BB000530AB12CA12C912C812C8A8188151904DF
:102BC00009F038F4188A1F864FEFC41AD40A6396A6
:102BD000BDCFE881F981EA0DFB1D85819681892BA6
:102BE000A1F161E070E087819085A8D33C01DBD240
:102BF0008C01E881F981EA0DFB1D81859285258193
:102C00003681200F311FAC01421B530B9A014781C3
:102C10005085421B530B70E060E00E948B28E881D6
:102C2000F981EA0DFB1DE780F0844581568193010F
:102C3000B601C201BBD28C01892B39F0E881F98140
:102C4000EA0DFB1D8581968105D55FEF851A950AF2
:102C50008DE0A80EB11CB1CF31CA789408952F929F
:102C60003F924F925F926F927F929F92AF92BF92EC
:102C7000CF92DF92EF92FF920F931F93CF93DF9348
:102C800000D000D0CDB7DEB700917203109173036E
:102C9000992493940115110509F43EC0A090740382
:102CA000B09075030BDA982E8823B1F1109273035C
:102CB00010927203109275031092740310927603AF
:102CC000109277038FEF9FEFDC01809313029093B4
:102CD0001402A0931502B093160278947FD31E833A
:102CE0000D83C12CD12C7601C501B0E0A0E0898311
:102CF0009A83AB83BC8322242A94322C89819A81C3
:102D0000AB81BC81C816D906EA06FB06F4F0C801FF
:102D1000A1D480E40E94FE08892D26960FB6F8946F
:102D2000DEBF0FBECDBFDF91CF911F910F91FF90FE
:102D3000EF90DF90CF90BF90AF909F907F906F907B
:102D40005F904F903F902F900895AD81BE81159672
:102D50008D919C9116972091090230910A02821759
:102D60009307D1F451968D919C91EED5ED81FE8122
:102D700080819181B12CA12C412C512C3201892BC5
:102D800089F5BFEFCB1ADB0AEB0AFB0AED81FE8166
:102D90007396FE83ED83B2CFC114D104E104F10434
:102DA00029F7892B19F7ED81FE81818992898F3F5F
:102DB000980709F029D5AD81BE8152963C922E929A
:102DC0005197D4CF8A0D9B1DDC018D919C9100976A
:102DD00009F040D4BFEF4B1A5B0A6B0A7B0AEDE0A7
:102DE000AE0EB11CAD81BE818D919C911197129652
:102DF0004C9150E070E060E0441655066606770698
:102E00000CF328D4BECFCF93DF93EA0128DF8111E2
:102E100009C082E090E09983888385EF9FEFDF917E
:102E2000CF91089581E090E00E94F00881E090E069
:102E30009983888390E080E0F2CF11DF10926F03D6
:102E400010926E03089542E050E06EE972E00C9437
:102E50000E09FF920F931F93CF93DF938A01EC012A
:102E6000C60FD71FF980B9D20897F816190671F066
:102E700068F082E090E0F801918380838EEF9FEF0D
:102E8000DF91CF911F910F91FF9008956C817D810B
:102E90008E819F814B810E94A30B811108C082E02B
:102EA00090E0F8019183808384EF9FEFE9CFF98070
:102EB0000E949E0B4F2D50E0BE01685F7F4F0E9425
:102EC000822889810E940D0C81E090E0F8019183B5
:102ED000808390E080E0D4CFDF92EF92FF920F9357
:102EE0001F93CF93DF938A01EC01C60FD71F0E9477
:102EF0009E0B7C01D98071D2DD2059F0029721E030
:102F000030E0D816190619F010F030E020E0232B3D
:102F100079F482E090E0F801918380838EEF9FEF57
:102F2000DF91CF911F910F91FF90EF90DF90089567
:102F3000EF2841F482E090E0F8019183808384EFF0
:102F40009FEFEECFF9800E949E0B4F2D50E0BE0107
:102F50006E5F7F4F0E94822889810E940D0C81E064
:102F600090E0F8019183808390E080E0D9CF83E204
:102F700097E1909379038093780308958091780383
:102F80009091790308950895FC0111821082938332
:102F900082830895DB011D921C92DC011296ED9153
:102FA000FC9113977183608313967C936E931297B1
:102FB0000895FC0180819181DB018D939C93A08118
:102FC000B181109741F08D919C9191838083892BE1
:102FD00011F4F383E2830895FC0180819181DB0188
:102FE0008D939C93892B11F4738362837183608327
:102FF0000895FC0111821082938382830895CF93F8
:10300000DF931F921F92CDB7DEB71A821982F89410
:10301000BE016F5F7F4F8FE793E0CBDF89819A819D
:10302000009709F017D389819A81892B89F7BE010E
:103030006F5F7F4F83E893E0BCDF89819A810097BF
:1030400009F008D389819A81892B89F778940F90A8
:103050000F90DF91CF910895CF93DF931F921F922E
:10306000CDB7DEB71A821982F894BE016F5F7F4F29
:103070008BE793E09EDF89819A81009709F0EAD27D
:1030800089819A81892B89F778940F900F90DF912D
:10309000CF91089581E0089590E080E00895EF9247
:1030A000FF920F931F93CF93DF931F921F92CDB781
:1030B000DEB71A82198280917A0307EF1FEF882307
:1030C000A1F1F894BE016F5F7F4F83E893E071DF59
:1030D000789489819A81EE24E394F12C892B51F420
:1030E000F894BE016F5F7F4F8FE793E062DF7894C3
:1030F000F12CE12C89819A810EEF1FEF0097A9F046
:10310000FC014281538164E070E074D68C01892B0C
:1031100061F0F89469817A81C701880F991F880F3F
:10312000991F81589C4F58DF7894C8010F900F90D9
:10313000DF91CF911F910F91FF90EF9008950F9322
:103140001F93CF93DF9300D01F92CDB7DEB71C82C1
:103150001B821A82198280917A0307EF1FEF88235E
:10316000C1F0AE014D5F5F4F64E070E0CE010196AB
:10317000B4D68C01892B69F4E981FA818B819C8119
:1031800093838283F89469817A818BE793E002DFED
:103190007894C8010F900F900F900F90DF91CF910E
:1031A0001F910F910895B9D7049608958F929F9219
:1031B000AF92BF92CF92DF92EF92FF920F931F9345
:1031C000CF93DF931F921F92CDB7DEB71A82198279
:1031D000BC016F5F7F4F6330710598F0AA24AA94F9
:1031E000BA2CC5010F900F90DF91CF911F910F91D5
:1031F000FF90EF90DF90CF90BF90AF909F908F9017
:1032000008954115510551F3480159018A016C0196
:10321000CADF8815990511F7E114F104F9F28E0D52
:103220009F1DA816B906D0F280917A038823F1F089
:10323000F894B501645071099701AE014F5F5F4F7B
:10324000C8010496DFD65C01892B71F489819A81CB
:10325000F80193838283C601880F991F880F991FF5
:10326000B80181589C4F96DE7894BBCF87EFA82E8B
:10327000BB24BA94B6CFAF92BF92CF92DF92EF92B7
:10328000FF920F931F93CF93DF931F921F92CDB79F
:10329000DEB71A821982892B09F047C061157105C2
:1032A00009F443C04115510509F43FC0211531050A
:1032B00009F43BC001151105C1F180917A038823FF
:1032C000B9F179016A015B01F894BE016F5F7F4F2C
:1032D0008BE793E06EDE789489819A81009759F1AB
:1032E000DC0112966D917C91A8010496A4D68C0104
:1032F000E981FA81D501ED93FC9382819381049653
:10330000F601918380834FDFD7018D939C93C80191
:103310000F900F90DF91CF911F910F91FF90EF9041
:10332000DF90CF90BF90AF9008950FEF1FEFEFCFDA
:1033300007EF1FEFECCF0EEF1FEFE9CFCF93DF9337
:10334000EC01672B71F4F2D68C179D0760F0E5D67F
:103350002496C80FD91FE4D68C0F9D1FDF91CF9103
:103360000895E1D6F1CF90E080E0F8CF0F931F935E
:10337000CF93DF9320917A0321112BC08B01EC01B5
:103380008FE793E001DE83E893E0FEDD8BE793E0D7
:10339000FBDD97D00097C1F4C9D670E060E0CEDFC6
:1033A00047E152E062E070E081D1009769F48091DA
:1033B000170290911802CCD6B801CE0101D5009722
:1033C00019F421E020937A03DF91CF911F910F919F
:1033D000089584EF9FEFF8CFA6C6A8C6CF93DF93DA
:1033E000A8D6EC01892B11F40ADE36DECE01DF917E
:1033F000CF910895CF93DF939CD6EC01892B09F4EC
:10340000FEDDCE01DF91CF9108958091170290915A
:1034100018020895CF93DF9380917A03D0E0C0E043
:103420008823D1F09AD6EC01892BB1F4E8DD14DEC3
:103430008091170290911802E7D1E8D2EC01892B14
:1034400059F48FE793E0D5DD83E893E0D2DD8BE795
:1034500093E0CFDD10927A03CE01DF91CF910895F2
:10346000EF92FF920F931F93CF93DF93EC017A01BA
:103470008B010F5F1F4F0E9DA0010F9D500D1E9DD4
:10348000500D112470E060E00E948B2890E080E0F5
:10349000F0E0E0E02FEFE816F90639F4DF91CF9184
:1034A0001F910F91FF90EF9008951A82198228833F
:1034B000309711F0D283C1830196FE01C00FD11F56
:1034C000EACFCF92DF92EF92FF920F931F93CF93A9
:1034D000DF930AEA14E00C7F43E050E069E172E018
:1034E0008FE192E01AD489E1E82E82E0F82E9FE184
:1034F000C92E92E0D92EC1E2D5E0D7014D915D9160
:103500007D01F601619171916F01198308835D83DB
:103510004C835B834A837F836E839B012F5F3F4F86
:10352000249FC001259F900D349F900D11249987F1
:1035300088870115110511F0C80192DF88859985EA
:10354000080F191F2A96FFE1EF16F2E0FF06A9F611
:10355000E9E8F3E08EE191E0DF019C011D9221504A
:103560003040E1F7109288031092870310924005D3
:1035700010923F05109244051092430510924205A7
:10358000109241051092460510924505109248058B
:103590001092470510924A051092490510924E0567
:1035A00010924D0510924C0510924B05109250054B
:1035B00010924F05109252051092510510921E055F
:1035C00010921D051092200510921F0590E080E0DA
:1035D000DF91CF911F910F91FF90EF90DF90CF90EF
:1035E00008950097F1F0F894AFE1B2E0E1E2F5E080
:1035F00030E020E04D915D9148175907A8F04281D5
:1036000053814115510581F08AE0829FF001839F2B
:10361000F00D1124EF5DFA4F80819181009759F4EC
:10362000789490E080E008952F5F3F4F3A962330E2
:10363000310501F7F5CFDC0111966D917C91718315
:1036400060834150510953834283FC012193CF0190
:1036500078940895009749F1DC018E91853041F40A
:10366000E0911F05F09120053097F9F0CD011994F4
:103670008530D8F4282F30E0F8948FEF8C938AE0CF
:10368000829FF001839FF00D1124EF5DFA4F80813E
:10369000918112969C938E931197B183A08382811E
:1036A000938101969383828378940895CF92DF92D9
:1036B000EF92FF920F931F93CF93DF939C018CE8BF
:1036C00093E08C7F4115510509F49BC0211531050C
:1036D00009F497C06115710509F493C07A01AB0133
:1036E000B9016D5F7F4F6C7F9B012F5F3F4F249F20
:1036F0008001259F100D349F100D1124F894209106
:103700003F0530914005232B59F420914705309116
:1037100048052115310569F12017310708F058C017
:103720002091490530914A05232B91F420914705BA
:1037300030914805820F931F209151053091520519
:103740002115310509F441C02017310708F056C092
:103750007894CFEFDFEF86EF9FEFF701D183C0833F
:10376000DF91CF911F910F91FF90EF90DF90CF905D
:103770000895C3E0D0E0C0908703D09088032BE188
:1037800031E02C193D092017310710F32AE02C9F56
:10379000F0012D9FF00D1124EF5DFA4F918380838E
:1037A00055834483538342837783668311870087DD
:1037B000009709F055DE0C0D1D1D10938803009332
:1037C0008703789490E080E0C8CFC4E0D0E0D3CF06
:1037D000C3E0D0E02AE02C9FF0012D9FF00D1124D2
:1037E000EF5DFA4F918380835583448353834283F3
:1037F00077836683009729F333DEE3CFC4E0D0E01C
:10380000E9CF8FEF9FEFACCF9C010397029708F0B1
:1038100069C0F89484E09AE0482F50E024173507F7
:103820000CF44DC091E08AE0829FF001839FF00D7F
:103830001124EF5DFA4F11821082158214821382D7
:103840001282178216829923B1F180913F059091DF
:103850004005892BA9F42091470530914805211591
:10386000310571F08091870390918803821B930B3F
:103870009093880380938703109248051092470520
:103880008091490590914A05892BA9F42091510511
:10389000309152052115310571F080918703909187
:1038A0008803821B930B9093880380938703109265
:1038B000520510925105789490E080E00895949F0D
:1038C000F001959FF00D1124EF5DFA4F4081518179
:1038D000452B31F440855185452B11F481509CCF07
:1038E00090E0A1CF8FEF9FEF08954115510549F169
:1038F000009739F16115710521F1F89420911D05AA
:1039000030911E05232BB9F420911F05309120051D
:10391000232B89F490931E0580931D057093200539
:1039200060931F05789425E030E090E080E0FA0194
:1039300031832083089578942FEF3FEF86EF9FEF38
:10394000F6CF8FEF9FEF0895059769F4F8941092E2
:103950001E0510921D051092200510921F057894E7
:1039600090E080E008958FEF9FEF08956115710555
:1039700019F4F0E0E0E011C08530910581F4E091A8
:103980001D05F0911E053097A1F3CB010196199505
:10399000009779F3FC0185E08193CF0108959C01A4
:1039A000235031092230310520F72AE0289FD00129
:1039B000299FB00D1124AF5DBA4F2D913C91119705
:1039C000232BB9F216962D913C911797261737079E
:1039D00080F2F89412962D913C91139721153105A0
:1039E00029F0ED91FC911197309711F47894C1CFA3
:1039F0004181528111965C934E9321503109139667
:103A00003C932E93129781937894C7CFE7EAF4E022
:103A100086E7DF011D928A95E9F7E9E8F3E08EE198
:103A200091E0DF019C011D9221503040E1F710929E
:103A3000880310928703E1E2F5E082E3DF011D9243
:103A40008A95E9F7EDE1F5E084E0DF011D928A95C2
:103A5000E9F790E080E00895CF93DF93C0912502CD
:103A6000D0912602CF3FDC0759F420D49093260250
:103A70008093250297FF09C0D0932602C0932502A8
:103A800084EF9FEFDF91CF91089590E080E0FACF2F
:103A90008230910528F48093530590E080E00895EA
:103AA0008FEF9FEF08954F925F926F927F92AF9248
:103AB000BF92CF92DF92EF92FF920F931F93CF931B
:103AC000DF931F921F92CDB7DEB71A82198200973B
:103AD00009F478C06115710509F474C020912502BC
:103AE0003091260207EF1FEF2F3F3F4F09F444C0EC
:103AF0006B015C01412C512C3201F12CE12C10E0C6
:103B000000E09E012F5F3F4FA6014E195F09B501EE
:103B10006E0D7F1D809125029091260226D4892B5F
:103B200009F04AC089819A81009741F4E114F104B7
:103B300029F420915305222309F441C0E80EF91E0F
:103B4000EC14FD04C8F480E8481684E858068EE1B9
:103B50006806710418F560E070E0CB015CD62AE0DD
:103B6000420E511C611C711C0A3F4FEF140721F0DB
:103B7000043F8FEF1807A1F4C8010F900F90DF9159
:103B8000CF911F910F91FF90EF90DF90CF90BF905A
:103B9000AF907F906F905F904F90089501EF1FEF6F
:103BA00081E090E0013F2FEF120711F090E080E0FC
:103BB000892B09F4A6CFE0CF04EF1FEFDDCF0AEF8A
:103BC0001FEFDACF0FEF1FEFD7CF4F925F926F92B9
:103BD0007F92AF92BF92CF92DF92EF92FF920F93BC
:103BE0001F93CF93DF931F921F92CDB7DEB71A8238
:103BF0001982009709F478C06115710509F474C041
:103C0000209125023091260207EF1FEF2F3F3F4FF3
:103C100009F444C06B015C01412C512C3201F12CA0
:103C2000E12C10E000E09E012F5F3F4FA6014E19EE
:103C30005F09B5016E0D7F1D8091250290912602CE
:103C40004AD3892B09F04AC089819A81009741F4AF
:103C5000E114F10429F420915305222309F441C011
:103C6000E80EF91EEC14FD04C8F480E4481682E462
:103C700058068FE06806710418F560E070E0CB012B
:103C8000CAD52AE0420E511C611C711C0E3F4FEF39
:103C9000140721F0043F8FEF1807A1F4C8010F901B
:103CA0000F90DF91CF911F910F91FF90EF90DF90D8
:103CB000CF90BF90AF907F906F905F904F9008959E
:103CC00002EF1FEF81E090E0023F2FEF120711F0AB
:103CD00090E080E0892B09F4A6CFE0CF04EF1FEF3E
:103CE000DDCF0EEF1FEFDACF0FEF1FEFD7CF8091B1
:103CF0002502909126028F3F980749F0CFD2892B59
:103D000049F48FEF9FEF909326028093250290E075
:103D100080E0089584EF9FEF0895CF92DF92EF92B5
:103D2000FF920F931F93CF93DF9321E0411551052D
:103D300009F020E04150510921112CC0DC01FB01A8
:103D4000D12CC12C21E022C03FEFC31AD30A7D0140
:103D50000D911D91E701EA80FB80E016F106A8F4C1
:103D600020813181E280F380F182E08233832283FB
:103D7000ED90FC9011979D0122503109E901F982E3
:103D8000E88211961C930E9320E03296C416D50655
:103D9000D8F2D2CFDF91CF911F910F91FF90EF908A
:103DA000DF90CF900895FC01680F791F90E080E0CC
:103DB000E617F70709F408952191820F911DF8CFB6
:103DC00020915405211113C047DE009791F4109201
:103DD0005A051092590510925805109257051092E5
:103DE00056051092550521E020935405089584EF5F
:103DF0009FEF0895AF92BF92CF92DF92EF92FF9222
:103E00000F931F93CF93DF93009709F460C0463060
:103E1000510508F45CC020915405C7EFDFEF222361
:103E200009F449C08C01060F171FF801C080D1802A
:103E3000C114D10409F44EC096012A5F3F4F4217C6
:103E4000530708F447C07C018091590590915A05A9
:103E500093838283B6016C5F7F4F5801A60EB71E15
:103E6000C801A1DFF5019183808364E070E0C8019F
:103E70001ADEEC01892BF9F481E090E009DEB6014D
:103E8000C801049610DEEC01892B91F462E070E029
:103E9000C50109DEEC01892B59F4C701DBDB8091F8
:103EA000590590915A05019690935A0580935905AA
:103EB00090E080E0EDDDCE01DF91CF911F910F9179
:103EC000FF90EF90DF90CF90BF90AF900895CFEF2D
:103ED000DFEFF1CFC9EFDFEFEECF6F927F928F92DE
:103EE0009F92AF92BF92CF92DF92EF92FF920F9389
:103EF0001F93CF93DF9300D01F92CDB7DEB700970B
:103F000009F47AC04115510509F476C02091540591
:103F100007EF1FEF222309F44DC03A017B015C013A
:103F200064E070E0CE01019650DE8C01892B09F02F
:103F300041C009811A810115110509F45AC04801CF
:103F400086E0880E911CB701680D791D80912702CB
:103F5000909128020BDD6C01009709F450C0A70175
:103F600070E060E00E948B2889819A81AB81BC81DE
:103F7000EC0CFD1CF70181939193A193B1937F0108
:103F800081E090E085DDB801C7011FDE892B31F5A6
:103F900062E070E0C701800F911F17DE8C01892B52
:103FA000E9F490E080E074DDF501D182C082F30194
:103FB00091828082C8010F900F900F900F90DF9137
:103FC000CF911F910F91FF90EF90DF90CF90BF9016
:103FD000AF909F908F907F906F90089590E080E0D9
:103FE00057DDF50111821082F30111821082C601A2
:103FF00031DB09EF1FEFDECF0FEF1FEFDBCF06EF57
:104000001FEFD8CF0097A1F04115510589F0211578
:10401000310571F0F90136966E177F0748F0DC0123
:104020002D933C93DA01ED93FC9390E080E00895AA
:104030008FEF9FEF0895AF92BF92CF92DF92EF92F2
:10404000FF920F931F93CF93DF93009709F45FC004
:104050004115510509F45BC06530710508F457C07E
:1040600020915405C7EFDFEF222391F1DC01CD90C1
:10407000DC9011971296ED91FC9196012A5F3F4FCB
:10408000C9EFDFEF2617370719F5C0915505D09115
:104090005605209749F521E030E0309356052093EE
:1040A00055057A018C01F0935805E09357055601A8
:1040B000B4E0AB0EB11CB50176DE0A0D1B1DF80194
:1040C000208131818217930729F5D701CD92DC92A7
:1040D000CE01DF91CF911F910F91FF90EF90DF9074
:1040E000CF90BF90AF90089520915705309158051B
:1040F0002F5F3F4FCCEFDFEFE217F30790F2CBEFEC
:10410000DFEF2E173F0768F2D0E0C0E0CACFCFEF55
:10411000DFEFDECFC3EFDFEFDBCF84E090E0089589
:1041200082E090E008958CEF9FEF089580E290E0A8
:10413000089510925A051092590510925805109240
:104140005705109256051092550590E080E00895AD
:104150009093280280932702089580915405882324
:1041600091F0C5DD009789F410925A051092590517
:104170001092580510925705109256051092550549
:1041800010925405089590E080E00895009749F05A
:104190006115710531F0FC0111821082FB01118261
:1041A00010820895F3CF26E030E040E855E260E069
:1041B00070E090E080E000C08130910569F01CF46F
:1041C000892B39F008958230910549F0039751F019
:1041D000089588E695E081C485E096E0FCCF82EA08
:1041E00096E0F9CF8FE397E0F6CF1F920F920FB6CC
:1041F0000F9211240BB60F922F933F934F935F931F
:104200006F937F938F939F93AF93BF93EF93FF939E
:104210008FE89DEF9093250180932401B9D0FF9101
:10422000EF91BF91AF919F918F917F916F915F912E
:104230004F913F912F910F900BBE0F900FBE0F909B
:104240001F9018958FE89DEF90932501809324018E
:10425000A3E7B0E08C918E7F8C93E0E2F1E0808167
:104260008C7F8083E1E2F1E08081877E80838081A2
:104270008460808380818C7F80838C9181608C932B
:104280000895E3E7F0E0808190819E7F90838170C4
:10429000089581E0089510925B05089568EE73E03B
:1042A00080E090E0B8D290E080E0089526E030E031
:1042B00040E050E16EE070E090E080E07DDF88E675
:1042C00095E041D3892B21F088E695E056D3F7CFCE
:1042D00090E080E00895CF92DF92EF92FF920F93EB
:1042E0001F93CF93DF936B017A01E9011982188242
:1042F00088E695E028D3892B69F18601CC24C39404
:1043000082E0D82E80915B05811110C088E695E08F
:1043100034D30297B9F7C0925B05F801D1928F01AF
:1043200088819981019699838883ECCF88819981CE
:104330008E159F0578F488E695E01FD38F3F980788
:10434000A9F3F80181938F0188819981019699835E
:104350008883ECCF90E080E0DF91CF911F910F91A7
:10436000FF90EF90DF90CF9008950F931F93CF931E
:10437000DF93EA01890188E695E03FD6F801D18311
:10438000C08390E080E0DF91CF911F910F9108955D
:10439000CF92DF92EF92FF9280915C0591E0980FAF
:1043A00090935C05882369F021E030E030935E054E
:1043B00020935D0580935C05FF90EF90DF90CF9098
:1043C00008957894E0912A02F0912B02C28CD38C4C
:1043D000E48CF58C0E943002B701A60190E080E0E9
:1043E0000E94A301F89480915C058150E3CF0F9364
:1043F0001F93CF93DF931092E6071092E50741D207
:10440000D2DEC0912A02D0912B02198218826FEF5E
:104410007FEFCB010E94250270E060E090E080E039
:104420000E94A800009709F03AC00E947602F89412
:104430007894BE016E5D7F4F8A819B810E94AB00A4
:10444000892B59F46FEF7FEFCB010E943A010E9454
:104450001F02882311F081E08EA3F894F3DE0E94FE
:104460002202882311F080E008C00E941F028111FF
:10447000FACF81E09EA19111F6CF8093E507789461
:104480000E94EB088C0178948091E50781110CC0A3
:104490000E94CA020E940502F89490E080E0DF9139
:1044A000CF911F910F9108950E9403020E94220252
:1044B0008823D9F081E08093E6079091E60781E0B8
:1044C000911180E08093E5078091E6078111D9DEA4
:1044D0000130110529F40E94EB08892B09F4DBDE79
:1044E0000E94EB088C01D5DECFCF0E941F02811104
:1044F000E1CF81E09EA19111DECF80E0DCCF40D002
:1045000008F481E00895E89409C097FB3EF4909583
:104510008095709561957F4F8F4F9F4F9923A9F09C
:10452000F92F96E9BB279395F6958795779567952B
:10453000B795F111F8CFFAF4BB0F11F460FF1BC06F
:104540006F5F7F4F8F4F9F4F16C0882311F096E902
:1045500011C0772321F09EE8872F762F05C06623B0
:1045600071F096E8862F70E060E02AF09A95660F69
:10457000771F881FDAF7880F9695879597F9089522
:10458000990F0008550FAA0BE0E8FEEF1616170664
:10459000E807F907C0F012161306E407F50798F0CC
:1045A000621B730B840B950B39F40A2661F0232BE5
:1045B000242B252B21F408950A2609F4A140A69561
:1045C0008FEF811D811D0895DBDF08F48FEF0895C3
:1045D0000BD078C069D028F06ED018F0952309F080
:1045E0005AC05FC01124A2C07ED0A0F3959FD1F322
:1045F000950F50E0551F629FF001729FBB27F00D91
:10460000B11D639FAA27F00DB11DAA1F649F6627E5
:10461000B00DA11D661F829F2227B00DA11D621F34
:10462000739FB00DA11D621F839FA00D611D221FEE
:10463000749F3327A00D611D231F849F600D211DD2
:10464000822F762F6A2F11249F5750408AF0E1F075
:1046500088234AF0EE0FFF1FBB1F661F771F881FBE
:1046600091505040A9F79E3F510570F014C05EC0B4
:104670005F3FECF3983EDCF3869577956795B795A9
:10468000F795E7959F5FC1F7FE2B880F911D9695D3
:10469000879597F9089597F99F6780E870E060E043
:1046A00008959FEF80EC089500240A9416161706CB
:1046B00018060906089500240A9412161306140613
:1046C00005060895092E0394000C11F4882352F076
:1046D000BB0F40F4BF2B11F460FF04C06F5F7F4F2E
:1046E0008F4F9F4F089557FD9058440F551F59F015
:1046F0005F3F71F04795880F97FB991F61F09F3FCF
:1047000079F087950895121613061406551FF2CFF7
:104710004695F1DF08C0161617061806991FF1CF47
:1047200086957105610508940895E894BB2766276E
:104730007727CB0197F908951F920F920FB60F922A
:1047400011242F933F938F939F93AF93BF938091A7
:10475000600590916105A0916205B091630530916B
:104760005F0523E0230F2D3758F50196A11DB11DDC
:1047700020935F058093600590936105A093620587
:10478000B09363058091640590916505A0916605DD
:10479000B09167050196A11DB11D809364059093AA
:1047A0006505A0936605B0936705BF91AF919F9192
:1047B0008F913F912F910F900FBE0F901F901895E2
:1047C00026E8230F0296A11DB11DD2CF3FB7F89462
:1047D0008091640590916505A0916605B09167058B
:1047E00026B5A89B05C02F3F19F00196A11DB11D4C
:1047F0003FBFBA2FA92F982F8827BC01CD01620F88
:10480000711D811D911D42E0660F771F881F991F42
:104810004A95D1F708958F929F92AF92BF92CF920F
:10482000DF92EF92FF926B017C01D0DF4B015C01C4
:10483000C114D104E104F104D9F00CD4C7DF681924
:1048400079098A099B09683E73408105910580F3C7
:1048500021E0C21AD108E108F10888EE880E83E051
:10486000981EA11CB11CC114D104E104F10431F75C
:10487000FF90EF90DF90CF90BF90AF909F908F9080
:104880000895789484B5826084BD84B5816084BDC8
:1048900085B5826085BD85B5816085BDEEE6F0E0B9
:1048A000808181608083E1E8F0E010828081826015
:1048B0008083808181608083E0E8F0E08081816096
:1048C0008083E1EBF0E0808184608083E0EBF0E0C6
:1048D000808181608083E1E9F0E080818260808373
:1048E000808181608083E0E9F0E080818160808365
:1048F000E1EAF0E080818260808380818160808352
:10490000E0EAF0E0808181608083E1E2F1E0808193
:1049100082608083808181608083E0E2F1E0808139
:1049200081608083EAE7F0E0808184608083808119
:1049300082608083808181608083808180688083C1
:104940001092C1000895FC01918D228D892F90E075
:10495000805C9F4F821B91098F7399270895FC01FA
:10496000918D828D981731F0828DE80FF11D858D24
:1049700090E008958FEF9FEF0895FC01918D828D57
:10498000981761F0A28DAE0FBF2FB11D5D968C916F
:10499000928D9F5F9F73928F90E008958FEF9FEFAE
:1049A0000895FC01538D448D252F30E0842F90E035
:1049B000821B930B541710F0CF960895019708951A
:1049C000FC01A48DA80FB92FB11DA35ABF4F2C9184
:1049D000848D90E001968F739927848FA689B7897B
:1049E0002C93A089B1898C91837080648C93938D72
:1049F000848D981306C00288F389E02D80818F7D15
:104A000080830895CF93DF93EC01888D8823B1F0E4
:104A1000AA89BB89E889F9898C9185FD03C08081C9
:104A200086FD0CC00FB607FCF7CF8C9185FFF2CF47
:104A3000808185FFEDCFCE01C3DFEACFDF91CF913B
:104A40000895EF92FF920F931F93CF93DF93EC01A2
:104A500081E0888F9B8D8C8D98131AC0E889F98925
:104A6000808185FF15C09FB7F894EE89FF89608328
:104A7000E889F98980818370806480839FBF81E0A9
:104A800090E0DF91CF911F910F91FF90EF900895EB
:104A9000F62E0B8D10E00F5F1F4F0F731127E02EC6
:104AA0008C8D8E110BC00FB607FCFACFE889F989FF
:104AB000808185FFF5CFCE0183DFF2CFEB8DEC0F48
:104AC000FD2FF11DE35AFF4FF0829FB7F8940B8F33
:104AD000EA89FB8980818062D0CFCF92DF92EF920A
:104AE000FF921F93CF93DF93EC016A017B01122F9A
:104AF000E889F98982E08083C11481EED806E10457
:104B0000F10499F060E079E08DE390E0A70196016F
:104B1000B6D221503109410951095695479537952B
:104B20002795211580E1380790F0E889F9891082EE
:104B300060E874E88EE190E0A7019601A0D22150D0
:104B40003109410951095695479537952795EC85C7
:104B5000FD853083EE85FF852083188EEC89FD89E5
:104B60001083EA89FB89808180618083EA89FB89DF
:104B7000808188608083EA89FB8980818068808366
:104B8000EA89FB8980818F7D8083DF91CF911F919E
:104B9000FF90EF90DF90CF9008951F920F920FB685
:104BA0000F9211240BB60F922F938F939F93EF9335
:104BB000FF93E0917805F09179058081E0917E0581
:104BC000F0917F0582FD1DC09081809181058F5FEE
:104BD0008F7320918205821741F0E0918105F0E00A
:104BE000E859FA4F958F80938105FF91EF919F913E
:104BF0008F912F910F900BBE0F900FBE0F901F90B3
:104C000018958081F2CF1F920F920FB60F92112448
:104C10000BB60F922F933F934F935F936F937F93B6
:104C20008F939F93AF93BF93EF93FF9388E695E0A5
:104C3000C7DEFF91EF91BF91AF919F918F917F91CF
:104C40006F915F914F913F912F910F900BBE0F90FD
:104C50000FBE0F901F901895E8E6F5E013821282C0
:104C600088EE93E0A0E0B0E084839583A683B783C9
:104C70008EEA92E09183808385EC90E0958784872B
:104C800084EC90E09787868780EC90E0918B808B16
:104C900081EC90E0938B828B82EC90E0958B848BFF
:104CA00086EC90E0978B868B118E128E138E148E6D
:104CB00008951F920F920FB60F9211240BB60F9208
:104CC0002F938F939F93EF93FF93E0911506F091AD
:104CD00016068081E0911B06F0911C0682FD1DC026
:104CE000908180911E068F5F8F7320911F0682171F
:104CF00041F0E0911E06F0E0EB5FF94F958F809355
:104D00001E06FF91EF919F918F912F910F900BBEF7
:104D10000F900FBE0F901F9018958081F2CF1F92B9
:104D20000F920FB60F9211240BB60F922F933F9351
:104D30004F935F936F937F938F939F93AF93BF93A3
:104D4000EF93FF9385E096E03BDEFF91EF91BF91FB
:104D5000AF919F918F917F916F915F914F913F9113
:104D60002F910F900BBE0F900FBE0F901F901895B4
:104D7000E5E0F6E01382128288EE93E0A0E0B0E076
:104D800084839583A683B7838EEA92E091838083A0
:104D90008DEC90E0958784878CEC90E097878687F0
:104DA00088EC90E0918B808B89EC90E0938B828BE8
:104DB0008AEC90E0958B848B8EEC90E0978B868BC1
:104DC000118E128E138E148E08951F920F920FB6AD
:104DD0000F9211240BB60F922F938F939F93EF9303
:104DE000FF93E091B206F091B3068081E091B8069E
:104DF000F091B90682FD1DC090818091BB068F5F46
:104E00008F732091BC06821741F0E091BB06F0E061
:104E1000EE55F94F958F8093BB06FF91EF919F91CF
:104E20008F912F910F900BBE0F900FBE0F901F9080
:104E300018958081F2CF1F920F920FB60F92112416
:104E40000BB60F922F933F934F935F936F937F9384
:104E50008F939F93AF93BF93EF93FF9382EA96E074
:104E6000AFDDFF91EF91BF91AF919F918F917F91B6
:104E70006F915F914F913F912F910F900BBE0F90CB
:104E80000FBE0F901F901895E2EAF6E0138212828F
:104E900088EE93E0A0E0B0E084839583A683B78397
:104EA0008EEA92E09183808385ED90E095878487F8
:104EB00084ED90E09787868780ED90E0918B808BE2
:104EC00081ED90E0938B828B82ED90E0958B848BCB
:104ED00086ED90E0978B868B118E128E138E148E3A
:104EE00008951F920F920FB60F9211240BB60F92D6
:104EF0002F938F939F93EF93FF93E0914F07F09140
:104F000050078081E0915507F091560782FD1DC042
:104F10009081809158078F5F8F7320915907821776
:104F200041F0E0915807F0E0E15CF84F958F8093F5
:104F30005807FF91EF919F918F912F910F900BBE8A
:104F40000F900FBE0F901F9018958081F2CF1F9287
:104F50000F920FB60F9211240BB60F922F933F931F
:104F60004F935F936F937F938F939F93AF93BF9371
:104F7000EF93FF938FE397E023DDFF91EF91BF91D4
:104F8000AF919F918F917F916F915F914F913F91E1
:104F90002F910F900BBE0F900FBE0F901F90189582
:104FA000EFE3F7E01382128288EE93E0A0E0B0E036
:104FB00084839583A683B7838EEA92E0918380836E
:104FC00085E391E09587848784E391E097878687DE
:104FD00080E391E0918B808B81E391E0938B828BD6
:104FE00082E391E0958B848B86E391E0978B868BAF
:104FF000118E128E138E148E0895AF92BF92CF929F
:10500000DF92EF92FF920F931F93CF93DF936C0188
:105010007B018B01040F151FEB015E01AE18BF0869
:10502000C017D10759F06991D601ED91FC9101901B
:10503000F081E02DC6011995892B79F7C501DF9123
:10504000CF911F910F91FF90EF90DF90CF90BF9085
:10505000AF9008950895AA1BBB1B51E107C0AA1F7A
:10506000BB1FA617B70710F0A61BB70B881F991F09
:105070005A95A9F780959095BC01CD010895A1E2BC
:105080001A2EAA1BBB1BFD010DC0AA1FBB1FEE1FC2
:10509000FF1FA217B307E407F50720F0A21BB30B0D
:1050A000E40BF50B661F771F881F991F1A9469F789
:1050B00060957095809590959B01AC01BD01CF01E5
:1050C0000895EE0FFF1F881F8BBF0790F691E02D0C
:1050D000199409D0A59F900DB49F900DA49F800DA9
:1050E000911D11240895A29FB001B39FC001A39FF9
:1050F000700D811D1124911DB29F700D811D112411
:10510000911D0895FB01DC0102C001900D924150F8
:105110005040D8F70895DC0101C06D9341505040D4
:08512000E0F70895F894FFCFB9
:10512800FEFFFFFF01E8030000FFFF00000000FF93
:10513800FFFFFFFFFFFFFFFFFF010001000100204D
:105148000038001800FFFFFFFF01D002FF00400BEE
:105158006C0BFE00260BA708FD00B80A120BFC001A
:10516800FE0AA708F600EF0BA708F500C50A2E0CE3
:10517800F400B80B450CDE006C100513DD00DB11E4
:10518800A708DA00150E1D0ED90020132D0EE20017
:10519800FD0CA708E100380DA708E000AD0DA70831
:1051A800D6000317A708D500BA0FA708D400460FE2
:1051B800A708D300B70EA708C0003C0EA708F00048
:1051C8006C17A708ED002917A70800000000212583
:0C51D800FD27D1240225A324BD24AF2410
:00000001FF
