:1000000005C100000C947D330C94A8330C94D333B9
:100010000C94FE330C9429340C9454340C947F3497
:100020000C94AA3424C1000022C1000020C10000A9
:100030001EC100001CC100001AC1000018C1000050
:1000400016C1000014C1000012C1000010C1000060
:100050000EC100000CC100000AC100000C94D53490
:1000600006C100000C94F4380C942A3900C1000039
:10007000FEC00000FCC00000FAC00000F8C0000094
:10008000F6C00000F4C00000F2C00000F0C00000A4
:100090000C9480390C94B639EAC00000E8C0000026
:1000A000E6C00000E4C00000E2C00000E0C00000C4
:1000B000DEC00000DCC00000DAC00000D8C00000D4
:1000C000D6C00000D4C000000C94032F0C940C3A4E
:1000D0000C94423ACCC000000C94983A0C94CE3A5E
:1000E000C6C0000000000A0B02090C0D0E08070331
:1000F00004010000000000000000000000000000FB
:1001000000000000000000000000000000000000EF
:1001100012111000000000000000000000000000AC
:100120000000000000000000000001021020200874
:100130000810204010204080020102010804020142
:1001400001020408102040808040201008040201B1
:10015000800402018040201008040201080402010A
:100160000102040810204080010204081020408091
:1001700005050505070508080808020202020A0A23
:100180000808040404040101010101010101030341
:10019000030303030303040707070C0C0C0C0C0CEC
:1001A0000C0C0202020206060606060606060B0BE9
:1001B0000B0B0B0B0B0B000020002300260029006B
:1001C0002C002F003200000100000301060109018C
:1001D00000002200250028002B002E0031003400F2
:1001E00002010000050108010B01000021002400AC
:1001F00027002A002D003000330001010000040117
:1002000007010A015339DF396B3AF73A11241FBE4F
:10021000CFEFD1E2DEBFCDBF00E00CBF13E0A0E026
:10022000B2E0E6E7F7E700E00BBF02C007900D92EF
:10023000A835B107D9F729E0A8E5B3E001C01D92C0
:10024000AA38B207E1F711E0C6E0D1E000E006C04D
:1002500021970109802FFE010E94883BC230D107FF
:1002600080E00807A9F70E940B300C94B93BC8CE78
:10027000CF92DF92EF92FF920F931F93E82FF92F07
:1002800005C0015011092109310961F190819623BE
:100290009417B9F305C0015011092109310911F171
:1002A000908196239413F7CFC12CD12CE12CF12C03
:1002B0000AC08FEFC81AD80AE80AF80A0C151D05FB
:1002C0002E053F0579F080818623841791F36C2DEC
:1002D0007D2D8E2D9F2D1F910F91FF90EF90DF9020
:1002E000CF90089560E070E080E090E01F910F9162
:1002F000FF90EF90DF90CF900895611102C00C94B1
:1003000039376130E1F362E0FACF662319F061E03A
:100310000C94753760E0FCCFCF92DF92EF92FF92A2
:10032000CF93882351F16A017B01CFEFC80F20E002
:1003300030E0A901CB01B6010E94133118168CF0F0
:10034000C701B60190580E941C319B01AC016C2F73
:1003500070E090E080E0CF91FF90EF90DF90CF9041
:10036000B2C0C701B6010E9417318C2FCF91FF9008
:10037000EF90DF90CF900C94FF35CF91FF90EF90EE
:10038000DF90CF9008950F931F938B019C0183E022
:1003900036952795179507958A95D1F7085A1C4FDA
:1003A000462F477021E030E0F90102C0EE0FFF1F39
:1003B0004A95E2F7AF01F80120812423CB01019691
:1003C000211102C090E080E01F910F9108950F93DA
:1003D0001F938B019C0183E0369527951795079510
:1003E0008A95D1F7677081E090E001C0880F6A9527
:1003F000EAF7F801E85AFC4F2081452B31F480954B
:10040000822380831F910F910895822BFACF2F9220
:100410003F924F925F926F927F928F929F92AF9294
:10042000BF92CF92DF92EF92FF920F931F93CF93E1
:10043000DF93D62EC72E782E692E49015A01280146
:1004400061E08D2D0E943937CD2DDC2D8E010F5F9F
:100450001F4FA8016D2D7C2D872D962DB8DF20E034
:1004600030E0A901C201B7010E949B32181664F462
:10047000C201B7010E941C312B01C501B4010E94C9
:100480001C31A201CE0123D0C801DF91CF911F9171
:100490000F91FF90EF90DF90CF90BF90AF909F9023
:1004A0008F907F906F905F904F903F902F90089526
:1004B000882341F08150682F70E090E080E050E0A8
:1004C00040E085CF0895862FB9010C94FF359C013B
:1004D000FC01EC51FF4FE491E150E231E0F4F0E037
:1004E0008827EA58FD4F8F4F0C94883B88028F0273
:1004F0009202A902BE028B02D302DF02E302FA02D9
:100500000F0324033B0350038B0265037C03910319
:1005100084B5806884BD60E0822F0C94753784B503
:100520008062F8CF809180008C7F82608093800011
:1005300080918100807E8061682B60938100509360
:1005400087004093860080918000806880938000BF
:10055000E2CF809180008C7F8260809380008091C8
:100560008100807E8061682B6093810050938700BA
:1005700040938600809180008062E8CF8091800067
:100580008C7F82608093800080918100807E80617A
:10059000682B609381005093870040938600809180
:1005A00080008860D3CF8091B00080688093B000D5
:1005B0008091B100887F682B6093B100ACCF8091AF
:1005C000B0008062F3CF809190008C7F8260809336
:1005D000900080919100807E8061682B60939100F3
:1005E000509397004093960080919000806880938C
:1005F000900091CF809190008C7F826080939000DA
:1006000080919100807E8061682B6093910050936F
:10061000970040939600809190008062E8CF80918F
:1006200090008C7F82608093900080919100807E0A
:100630008061682B609391005093970040939600DF
:10064000809190008860D3CF8091A0008C7F8260E1
:100650008093A0008091A100807E8061682B6093D0
:10066000A1005093A7004093A6008091A00080684D
:100670008093A00050CF8091A0008C7F82608093F7
:10068000A0008091A100807E8061682B6093A10012
:100690005093A7004093A6008091A0008062E8CF0D
:1006A0008091A0008C7F82608093A0008091A10047
:1006B000807E8061682B6093A1005093A7004093D7
:1006C000A6008091A0008860D3CF809120018C7F0C
:1006D00082608093200180912101807E8061682B5F
:1006E00060932101509327014093260180912001BE
:1006F0008068809320010FCF809120018C7F8260E1
:100700008093200180912101807E8061682B60931D
:10071000210150932701409326018091200180629E
:10072000E8CF809120018C7F8260809320018091AE
:100730002101807E8061682B609321015093270105
:1007400040932601809120018860D3CFCF93DF931F
:10075000882349F0EB0181500E94DC35998388831E
:10076000DF91CF910895FB0111821082F9CF0F9391
:100770001F938B019C0183E036952795179507956C
:100780008A95D1F70F591C4F462F477021E030E072
:10079000F90102C0EE0FFF1F4A95E2F7AF01F80121
:1007A00020812423CB010196211102C090E080E03A
:1007B0001F910F9108950F931F938B019C0183E06C
:1007C00036952795179507958A95D1F7677081E03B
:1007D00090E001C0880F6A95EAF7F801EF59FC4FE5
:1007E0002081452B31F48095822380831F910F91C6
:1007F0000895822BFACFCF92DF92EF92FF92CF93A0
:10080000DF936B017C0160E086E3C816D104E1044C
:10081000F10490F486E38C0D0E943937E6012196AD
:10082000AE01C701B601C7DFCE01DF91CF91FF90C6
:10083000EF90DF90CF9008958C2DEECF882341F07C
:100840008150682F70E090E080E050E040E0B3CF4E
:100850000895CF93C62F61E00E94393760E08C2F56
:10086000CF910C9439374F925F926F927F92AF92F3
:10087000BF92CF92DF92EF92FF920F931F93CF938D
:10088000DF935C01162FC42FD22F611104C061E0E9
:10089000842F0E94393760E08C2F0E9475370E94A8
:1008A0001F352B013C010E941F356419750986090B
:1008B00097096630710581059105A8F361E08C2FD9
:1008C0000E9475370E941F352B013C01C02ED12C90
:1008D000F12CE12C0E941F356419750986099709CE
:1008E000C616D706E806F906A8F760E08C2F0E9426
:1008F0007537111104C060E08D2F0E94393720E454
:1009000032E44FE050E061E08D2F0E94A237F50104
:100910006083718382839383DF91CF911F910F91C5
:10092000FF90EF90DF90CF90BF90AF907F906F904F
:100930005F904F90089590E080E008950F931F938B
:10094000009709F489C06115710509F485C000910B
:100950008B0210918C0220918D0230918E020E3FFD
:100960001F4F2F4F3F4F09F068C04FEF5FEFBA01A5
:1009700040938B0250938C0260938D0270938E0291
:1009800040918B0250918C0260918D0270918E0289
:10099000DC011296ED91FC9180819181A281B3815D
:1009A00080931C0490931D04A0931E04B0931F0415
:1009B00084819581A681B78180931804909319044E
:1009C000A0931A04B0931B0480859185A285B385FA
:1009D0008093140490931504A0931604B093170405
:1009E00084859585A685B78580931004909311041E
:1009F000A0931204B093130410920C0410920D04EF
:100A000010920E0410920F040E94E8128DE093E100
:100A100090936B0380936A0390936D0380936C03B0
:100A20000E94D711009731F421E030E03093210487
:100A3000209320041F910F91089500918B02109133
:100A40008C0220918D0230918E02DB010D931D935B
:100A50002D933C93139794CF8FEF9FEFEBCF8F9213
:100A60009F92AF92BF92CF92DF92EF92FF921F932D
:100A7000CF93DF934B015C011091230482E090E05F
:100A8000909321048093200481149104A104B10463
:100A900041F480912304811104C080912204C1E0BB
:100AA0008111C0E0C12CD12C7601809123048111E9
:100AB00006C080912204811102C0CC23D9F083E0CA
:100AC00090E09093210480932004CC2381F1CCE921
:100AD000DFEF111102C00E947116CE01DF91CF919C
:100AE0001F91FF90EF90DF90CF90BF90AF909F90BD
:100AF0008F9008956AE070E080E090E00E944435B5
:100B000080E1C80E87E2D81EE11CF11C8FEF881629
:100B10009806A806B80631F0C1E08C149D04AE0416
:100B2000BF0408F0C0E080E00E940B12BECFD0E00E
:100B3000C0E0CFCFCF92DF92EF92FF920F931F933F
:100B4000CF93DF938F3F910511F008F051C02091B2
:100B50002004309121042330310539F02091200404
:100B6000309121042130310531F424E030E030931C
:100B70002104209320046A017B01EC01823091055D
:100B8000A8F011E0AE01C701B6010E94D611AB0179
:100B9000BC01CE011123F9F0DF91CF911F910F918C
:100BA000FF90EF90DF90CF900C949A188C01000F7B
:100BB000111F06591C4FD8018D919C91892B09F367
:100BC0000E94A4180297E9F6D801ED91FC91CE019C
:100BD0001995182FD7CF0E94BC1890E080E0DF91C4
:100BE000CF911F910F91FF90EF90DF90CF900895DC
:100BF0008FEF9FEFF4CF80E00C940B12CF93DF9335
:100C000086E090E090932104809320040E94641277
:100C1000EC01EAE6F3E084E0DF011D928A95E9F752
:100C20000E9409161092210410922004CE01DF9137
:100C3000CF91089580912204089580910B04089526
:100C400060938B0270938C0280938D0290938E023E
:100C500090E080E008958F929F92AF92BF92CF92E2
:100C6000DF92EF92FF9280916D098150823060F4A3
:100C700083E080936D098091CD03882339F0813022
:100C800049F08091CE0303C080E0F3CF81E08093F0
:100C9000CC0302C01092CC03E091CC0384E0E89F27
:100CA000F0011124EA55FC4F81A592A5A3A5B4A596
:100CB0008093C8039093C903A093CA03B093CB0356
:100CC0008FEF8093CC032091040230910502409174
:100CD0000602509107026091420970914309809188
:100CE0004409909145090E949C306B017C01C0929F
:100CF0004209D0924309E0924409F092450920E06C
:100D000030E048EC52E40E949B32181634F4C12CB7
:100D1000D12C80E8E82E8FE3F82EC701B6010E949F
:100D2000D410882341F180907C0990907D09A09097
:100D30007E09B0907F0920E030E0A901C501B4012F
:100D40000E941331882331F120E030E040E85FE376
:100D5000C501B4010E941331811167C080E090E0A9
:100D6000A0E8BFE380930C0990930D09A0930E09AE
:100D7000B0930F0917C0C701B6010E948F108111EF
:100D8000D2CF20E030E0A901C701B6010E941331A3
:100D9000811126C010920C0910920D0910920E09B3
:100DA00010920F0984E080936D094091C003509127
:100DB000C1036091C2037091C3034093EB0350934E
:100DC000EC036093ED037093EE0381E090E0FF90FD
:100DD000EF90DF90CF90BF90AF909F908F90AACE72
:100DE00020E030E040E050E4C701B6010E949F31AE
:100DF0004B015C0120E030E0A9010E9413318823FF
:100E000049F220E030E0A901C701B6010E94133188
:100E100087FF9ACF20E030E040E050E4C501B40104
:100E20000E949C304B015C0186CF80E090E0A0E006
:100E3000B0E498CF8F929F92AF92BF92CF92DF9201
:100E4000EF92FF9280916C098150823060F483E0D0
:100E500080936C098091DC03882339F0813049F05C
:100E60008091DD0303C080E0F3CF81E08093DB035A
:100E700002C01092DB03E091DB0384E0E89FF00105
:100E80001124E252FC4F80819181A281B381809331
:100E9000D7039093D803A093D903B093DA038FEFCD
:100EA0008093DB03209114023091150240911602C9
:100EB0005091170260913E0970913F09809140095D
:100EC000909141090E949C306B017C01C0923E09C7
:100ED000D0923F09E0924009F092410920E030E0D1
:100EE00048EC52E40E949B32181634F4C12CD12CE9
:100EF00080E8E82E8FE3F82EC701B6010E94D410D7
:100F0000882399F060917C0970917D0980917E0918
:100F100090917F0920E030E0A9010E9413318111F6
:100F20002DC080E090E0DC012DC0C701B6010E9419
:100F30008F108111E7CF20E030E0A901C701B60191
:100F40000E941331882369F320E030E040E050E450
:100F5000C701B6010E949F314B015C0120E030E0E7
:100F6000A9010E9413318823E1F220E030E0A901B9
:100F7000C701B6010E94133187FD2AC080E090E0CE
:100F8000A0E8BFE38093080990930909A0930A0998
:100F9000B0930B0984E080936C094091C003509199
:100FA000C1036091C2037091C3034093EB0350935C
:100FB000EC036093ED037093EE0382E090E0FF900A
:100FC000EF90DF90CF90BF90AF909F908F90B2CD79
:100FD00020E030E040E050E4C501B4010E949C30C4
:100FE00099CFCF92DF92EF92FF926B017C019F77B6
:100FF00020E030E040E859E50E94133187FF2BC024
:1010000020E030E040E05FE3C701B6010E949B3280
:1010100087FD0EC020E030E040E05FE3C701B6018D
:101020000E949C30FF90EF90DF90CF900C94853120
:1010300020E030E040E05FEBC701B6010E949B3248
:10104000181684F420E030E0A901C701B6010E941F
:101050009F326B017C01C701B601FF90EF90DF90DA
:10106000CF90089520E030E040E05FE3C701B60193
:101070000E949B30FF90EF90DF90CF900C94003156
:101080008F929F92AF92BF92CF92DF92EF92FF9298
:101090000F931F93CF93DF9300D000D0CDB7DEB76F
:1010A00080916B098150823008F446C280E08093C1
:1010B0006B0980916A098150823008F43FC280E058
:1010C00080936A09809169098150823008F438C29E
:1010D00080E080936909809168098150823008F42A
:1010E00031C280E080936809809167098150823025
:1010F00008F42AC280E080936709809166098150D4
:10110000823008F423C280E08093660980916509EB
:101110008150823008F41CC280E080936509809180
:1011200064098150823008F415C280E0809364091C
:10113000809163098150823008F40EC280E0809370
:101140006309809162098150823008F407C280E00F
:1011500080936209809161098150823008F400C255
:1011600080E080936109C0900C02D0900D02E09065
:101170000E02F0900F02A701960160911A0970917A
:101180001B0980911C0990911D090E94133188232D
:1011900041F0C0921A09D0921B09E0921C09F0920A
:1011A0001D096AE370E080E090E0E1DA90931909AC
:1011B0008093180943E050E0BE016B5F7F4FC6DAB1
:1011C0002091840230918502AD81BE810E94903BC6
:1011D00021E196958795779567952A95D1F7609344
:1011E000100980914A09811110924A090AE023E30B
:1011F00042E361E0CE01019636DBC980DA80EB8004
:10120000FC8080900C0990900D09A0900E09B09080
:101210000F098092F4089092F508A092F608B09217
:10122000F708609108097091090980910A09909165
:101230000B096093F8087093F9088093FA0890936B
:10124000FB0820E030E040E85FE30E9413318111A9
:1012500090C18091740290917502A0917602B09134
:1012600077028093FC089093FD08A093FE08B0934A
:10127000FF0880916209882309F478C1833009F05E
:1012800071C181E090E0809362098090FC089090A9
:10129000FD08A090FE08B090FF0820E030E0A90112
:1012A000C501B4010E94133181119EC160911C02DD
:1012B00070911D0280911E0290911F020E94853143
:1012C0006B017C0171D781116EC1C701B60127D7AF
:1012D000811169C120E030E040E853E4C701B60164
:1012E0000E949F316B017C0120E030E0A9010E9447
:1012F000133187FF5BC1C701B60190580E941C31B2
:10130000619560931109C0905D09D0905E09E090ED
:101310005F09F0906009C701B6010E944A314B0194
:101320005C01209128023091290240912A025091BB
:101330002B020E94133187FF3EC1F7FC3CC1809114
:10134000200290912102A0912202B0912302809369
:10135000040990930509A0930609B093070920E0BA
:1013600030E040E85FE360912402709125028091B3
:101370002602909127020E949B309B01AC01C5017F
:10138000B4010E949B3287FD1AC110925D09109230
:101390005E0910925F091092600980916B098823A1
:1013A00009F41FC1833009F018C181E090E08093F7
:1013B0006B09609100097091010980910209909177
:1013C00003090FDE6B017C0120E030E040E853E4CC
:1013D0000E9413316FEF87FF0EC020E030E0A901BB
:1013E000C701B6010E949B3260E087FD04C0C701BF
:1013F000B6010E941C3189E00E9485016BE070E01B
:1014000080E090E00E94C3017C0190933D098093AD
:101410003C096091110970E090E080E00E94483141
:10142000AB01BC01C7010E948C016091040970915D
:1014300005098091060990910709D3DD6B017C01B4
:1014400020E030E040E853E40E9413316FEF87FF63
:101450000EC020E030E0A901C701B6010E949B3216
:1014600060E087FD04C0C701B6010E941C318CE01A
:101470000E948501609180027091810280918202B8
:1014800090918302AEDD6B017C0120E030E040E80A
:1014900053E40E9413316FEF87FF0EC020E030E06D
:1014A000A901C701B6010E949B3260E087FD04C01C
:1014B000C701B6010E941C318DE00E948501C090D9
:1014C000C003D090C103E090C203F090C3038FEF3C
:1014D000C81AD80AE80AF80AC092C003D092C10319
:1014E000E092C203F092C303C701B6010E944831E3
:1014F0009B01AC016091C4037091C5038091C60348
:101500009091C7030E949F326093BC037093BD0308
:101510008093BE039093BF038091CC03882309F48A
:10152000C7C2813009F4C8C281E09091CE039923EB
:1015300009F4BFC280E0BDC283E0B9CD83E0C0CD75
:1015400083E0C7CD83E0CECD83E0D5CD83E0DCCD95
:1015500083E0E3CD83E0EACD83E0F1CD83E0F8CD15
:1015600083E0FFCD082E000C990B8DCE82E090E039
:101570008ACE8092FC089092FD08A092FE08B0925C
:10158000FF0880916109882359F0833029F481E0B4
:1015900090E08093610979CE082E000C990BF9CF69
:1015A00082E090E0F6CFC12CD12C7601C701B601C4
:1015B0000E941C31A6CE80E090E0DC01C8CE8FEF07
:1015C000C81AD80AE80AF80AC0925D09D0925E09E2
:1015D000E0925F09F0926009E0CE082E000C990BB2
:1015E000E6CE82E090E0E3CEC701B6010E9448312A
:1015F0002EEA34ED43EB59E30E949F3220E030E0C5
:1016000040E05FE30E949F326B017C0120E030E00C
:1016100040E85FE3C501B4010E941331811146C166
:101620002DEC3CEC4CEC5DE3C701B6010E9413319C
:1016300087FF7EC08091300290913102A0913202EA
:10164000B09133028093000990930109A09302099D
:10165000B0930309809187028093110980916A09F0
:10166000882309F462C0833009F05BC081E090E018
:1016700080936A09C0905509D0905609E0905709A7
:10168000F0905809C701B6010E944A314B015C0134
:1016900020915002309151024091520250915302D8
:1016A0000E94133187FFE9C0F7FCE7C08091480230
:1016B00090914902A0914A02B0914B028093040993
:1016C00090930509A0930609B093070920E030E044
:1016D00040E85FE360914C0270914D0280914E02B0
:1016E00090914F020E949B309B01AC01C501B40157
:1016F0000E949B3287FDC5C0109255091092560971
:10170000109257091092580980916709882309F4AB
:10171000CAC0833009F0C3C081E090E080936709BC
:1017200048CE082E000C990BA3CF82E090E0A0CF0A
:101730001091100920E030E040E05FE3C701B601FE
:101740000E94133187FF75C0C0905909D0905A0983
:10175000E0905B09F0905C09C701B6010E944A3134
:101760004B015C0120913C0230913D0240913E02D0
:1017700050913F020E94133187FF42C0F7FC40C0E6
:101780008091340290913502A0913602B0913702D7
:101790008093000990930109A0930209B093030973
:1017A00020E030E040E85FE3609138027091390258
:1017B00080913A0290913B020E949B309B01AC01C8
:1017C000C501B4010E949B3287FD1EC010925909C9
:1017D00010925A0910925B0910925C09809188025C
:1017E000819F802D1124809311098091690988239C
:1017F000E9F08330B9F481E090E0809369093ACF51
:1018000080E090E0DC01C4CF9FEFC91AD90AE90A51
:10181000F90AC0925909D0925A09E0925B09F092F4
:101820005C09DCCF082E000C990BE7CF82E090E03A
:10183000E4CF8091440290914502A0914602B0917C
:1018400047028093000990930109A0930209B09385
:1018500003091093110980916809882359F0833096
:1018600029F481E090E08093680904CF082E000CF1
:10187000990BF9CF82E090E0F6CF80E090E0DC01B8
:101880001DCF8FEFC81AD80AE80AF80AC092550986
:10189000D0925609E0925709F092580935CF082E98
:1018A000000C990B3BCF82E090E038CF20E030E095
:1018B00040E050E4C501B4010E941331811179CD9B
:1018C0008091700290917102A0917202B0917302A6
:1018D0008093040990930509A0930609B093070922
:1018E0002DEC3CEC4CEC5DE3C701B6010E941331DA
:1018F00087FF32C08091580290915902A0915A02FC
:10190000B0915B028093000990930109A0930209B2
:10191000B09303098091890280931109809166092F
:101920008823B9F0833089F481E090E080936609E0
:1019300080916309882309F4B8C0833009F0B1C0ED
:1019400081E090E08093630934CD082E000C990B60
:10195000EDCF82E090E0EACF1091100920E030E076
:1019600040E05FE3C701B6010E94133187FF75C0F5
:10197000C0905109D0905209E0905309F090540959
:10198000C701B6010E944A314B015C0120916402FB
:101990003091650240916602509167020E941331B6
:1019A00087FF42C0F7FC40C080915C0290915D02CD
:1019B000A0915E02B0915F028093000990930109AB
:1019C000A0930209B093030920E030E040E85FE310
:1019D0006091600270916102809162029091630255
:1019E0000E949B309B01AC01C501B4010E949B3257
:1019F00087FD1EC01092510910925209109253098E
:101A00001092540980918602189FC001112490936E
:101A10001109809165098823E9F08330B9F481E0E8
:101A200090E08093650984CF80E090E0DC01C4CF32
:101A30009FEFC91AD90AE90AF90AC0925109D0924E
:101A40005209E0925309F0925409DCCF082E000CA1
:101A5000990BE7CF82E090E0E4CF80916C02909107
:101A60006D02A0916E02B0916F0280930009909375
:101A70000109A0930209B093030910931109809101
:101A80006409882359F0833029F481E090E0809341
:101A900064094ECF082E000C990BF9CF82E090E03C
:101AA000F6CF082E000C990B4DCF82E090E04ACF84
:101AB00081E08093CD0302C01092CD038091CD03CD
:101AC00094E0899FF0011124EA55FC4FC1A6D2A6EB
:101AD000E3A6F4A68093CE038FEF8093CD0380918D
:101AE000DB03882349F0813059F081E09091DD03D8
:101AF000992319F080E001C081E08093DC0302C0EB
:101B00001092DC038091DC0394E0899FF0011124A2
:101B1000E252FC4FC082D182E282F3828093DD03E5
:101B20008FEF8093DC0326960FB6F894DEBF0FBECE
:101B3000CDBFDF91CF911F910F91FF90EF90DF907C
:101B4000CF90BF90AF909F908F9008958F929F926B
:101B5000AF92BF92EF92FF920F931F93CF9384E0C7
:101B600090E0A6D280E090E0A0E8BFEB8093E6038F
:101B70009093E703A093E803B093E9038AE097ED1D
:101B8000A3E2BCE38093C4039093C503A093C60370
:101B9000B093C70383ED94E1A7EFB4E48093AA0365
:101BA0009093AB03A093AC03B093AD038CEC9BE19B
:101BB000ACE3B3EB8093AE039093AF03A093B00379
:101BC000B093B10384E19AECAEECB1E58093B2033B
:101BD0009093B303A093B403B093B50382EF99E954
:101BE000AEE2B9ED8093B6039093B703A093B80328
:101BF000B093B9038AE993E09093A9038093A80373
:101C00008EE693E090939B0380939A0385EC92E099
:101C100090936F0380936E0390937103809370038E
:101C2000909373038093720390937503809374036E
:101C300090937703809376032BE639E03093790312
:101C40002093780329E639E030937B0320937A03CD
:101C50002AE639E030937D0320937C0328E639E0BF
:101C600030937F0320937E0327E639E0309381038E
:101C70002093800390938303809382032DE639E0C1
:101C80003093850320938403309387032093860346
:101C90002CE639E0309389032093880330938B033B
:101CA00020938A0322E639E030938D0320938C033E
:101CB00021E639E030938F0320938E0325E639E047
:101CC000309391032093900326E639E030939303F9
:101CD0002093920324E639E03093950320939403F4
:101CE00023E639E03093970320939603909399036A
:101CF000809398038AEB93E090939F0380939E03D5
:101D00008AEA93E090939D0380939C038CEB93E08D
:101D10009093A1038093A0038FEF8093CD03109243
:101D2000CE038093DB038093DC031092DD034091AC
:101D3000CF035091D0036091D1037091D2034093AF
:101D4000C8035093C9036093CA037093CB03809375
:101D5000CC038091080290910902A0910A02B091EF
:101D60000B028093420990934309A0934409B093D6
:101D700045098091000290910102A0910202B09168
:101D8000030280930C0990930D09A0930E09B09360
:101D90000F0943E050E06BE276E080E00E940333FD
:101DA0008091DC03882329F0813039F08091DD03B4
:101DB00001C081E08093DB0302C01092DB03E0915D
:101DC000DB0384E0E89FF0011124E252FC4F8081A4
:101DD0009181A281B3818093D7039093D803A0937C
:101DE000D903B093DA038FEF8093DB03809118025D
:101DF00090911902A0911A02B0911B0280933E09A2
:101E000090933F09A0934009B0934109809110023B
:101E100090911102A0911202B091130280930809CF
:101E200090930909A0930A09B0930B0943E050E08D
:101E30006AE177E081E00E9403338091780290911B
:101E40007902A0917A02B0917B028093000990936D
:101E50000109A0930209B093030980918A0280933B
:101E6000110980917C0290917D02A0917E02B09137
:101E70007F028093040990930509A0930609B0930B
:101E800007091092120980910C0290910D02A09105
:101E90000E02B0910F0280931A0990931B09A09330
:101EA0001C09B0931D09812C912C540183948092BC
:101EB000130990921409A0921509B09216096AE3C9
:101EC00070E080E090E00E94FB03909319098093FA
:101ED0001809C1E0C09317098092460990924709FA
:101EE000A0924809B092490963E382E30E94290461
:101EF00010924A0910922E0980922F09909230096F
:101F0000A0923109B092320961E089E00E947D011E
:101F1000C09333091092360980923709909238099C
:101F2000A0923909B0923A09E12CF12C8701A8015D
:101F300097016BE070E080E090E00E9407029093D0
:101F40003D0980933C09C0933B0910922609809279
:101F5000270990922809A0922909B0922A0961E0E4
:101F60008CE00E947D01C0932B0910921E09809283
:101F70001F0990922009A0922109B092220961E0E4
:101F80008DE00E947D01C0932309CF911F910F9195
:101F9000FF90EF90BF90AF909F908F9008958091A9
:101FA000120981111FC081E08093120980911309E9
:101FB00090911409A0911509B09116090197A105F6
:101FC000B10581F480911709882361F06AE370E01C
:101FD00080E090E00E94B70390931909809318095C
:101FE0000E941E0480912E09811103C081E080931C
:101FF0002E098091360981112EC081E08093360927
:102000008091370990913809A0913909B0913A0926
:102010000197A105B105F9F480913B098823D9F016
:102020006BE070E080E090E00E94C30190933D0976
:1020300080933C0940E050E0BA010E948C016BE0C3
:1020400070E080E090E00E94C30190933D0980938E
:102050003C090E94580280912609811103C081E049
:102060008093260980911E09811103C081E080932D
:102070001E09089560E070E080E89FE7089560E041
:1020800070E080E89FE7089560E070E080E89FEFEF
:10209000089560E070E080E89FEF089560E070E0F0
:1020A00080EC9FEF089560E070E080EC9FEF089572
:1020B000F5DF60937C0970937D0980937E0990938E
:1020C0007F09F1DF60937009709371098093720941
:1020D00090937309CFDF60937809709379098093A7
:1020E0007A0990937B09CBDF60937409709375092B
:1020F0008093760990937709C7DF60938009709386
:1021000081098093820990938309C3DF60938409D6
:102110007093850980938609909387090895CF92DB
:10212000DF92EF92FF92CF936B017C01AC019B0198
:10213000609178097091790980917A0990917B0971
:102140000E941331C1E0882371F0A70196016091CC
:1021500080097091810980918209909183090E9480
:1021600013318111C0E08C2FCF91FF90EF90DF9061
:10217000CF9008950F931F938B019C010027112787
:1021800020783F770115110520483F4749F4AB01FE
:10219000BC016F77772781E0452B462B472B09F44D
:1021A00080E01F910F910895E5CF4F925F926F925B
:1021B0007F928F929F92AF92BF92CF92DF92EF92D7
:1021C000FF920F931F93F8944090FB035090FC03F1
:1021D0006090FD037090FE03C090EF03D090F00379
:1021E000E090F103F090F203452B09F0A4C09B01AD
:1021F000AC01241935094609570929013A01009112
:10220000F7031091F8032091F9033091FA03480184
:102210005901840C951CA61CB71C80169106A206B9
:10222000B306A0F40091F3031091F4032091F50399
:102230003091F6030F5F1F4F2F4F3F4F0093F30373
:102240001093F4032093F5033093F6038092F70381
:102250009092F803A092F903B092FA030091F3036D
:102260001091F4032091F5033091F6038092FF035F
:1022700090920004A0920104B0920204009303041F
:102280001093040420930504309306046093FB0329
:102290007093FC038093FD039093FE03A0E1B7E2EB
:1022A000A30192010E949F3B6C0D7D1D8E1D9F1D01
:1022B0006093EF037093F0038093F1039093F20324
:1022C00000918B0210918C0220918D0230918E0230
:1022D0000F3F1F4F2F4F3F4FF1F000918B02109196
:1022E0008C0220918D0230918E020E3F1F4F2F4F96
:1022F0003F4F89F0C0908B02D0908C02E0908D020D
:10230000F0908E0221E08C149D04AE04BF0408F40A
:1023100020E020930B0478941F910F91FF90EF9091
:10232000DF90CF90BF90AF909F908F907F906F90F5
:102330005F904F9008954B015C0184189508A608A2
:10234000B708A3019201261B370B480B590B6415E4
:10235000750586059705D0F082169306A406B50686
:1023600040F420E030E0A90181149104A104B104FB
:1023700091F4A0E1B7E20E949F3BA7019601261BC2
:10238000370B480B590BCA01B901C5CF821693060A
:10239000A406B50670F7A0E1B7E2A50194010E947A
:1023A0009F3B6C0D7D1D8E1D9F1DB5CFFECECF9327
:1023B000DF9300D01F92CDB7DEB71C821B821A823A
:1023C00019821092070410920804109209041092C6
:1023D0000A04BE016F5F7F4FCE0103960E94D32E89
:1023E00069817A818B819C810E94C127009761F469
:1023F000BE016F5F7F4FCE0103960E94DF2E698181
:102400007A818B819C812ED50F900F900F900F9029
:10241000DF91CF910895FF920F931F93CF93DF9396
:10242000082F60E070E0CB010E944435FF24F39454
:102430000E94AA26EC01892B89F010E0CE3F8FEF95
:10244000D80769F0002361F160E070E0CB010E94E1
:10245000443581E090E0892B59F322C011E025D565
:10246000EC01892B21F0CE3F8FEFD80759F71111DE
:102470001EC011E0229609F410E00E945A26EC01D9
:10248000892B21F0CE3F8FEFD807E1F6111111C053
:1024900011E0CE3F8FEFD80709F410E001110BC017
:1024A000CE01DF91CF911F910F91FF90089511E020
:1024B000E4CF11E0F3CF60E070E0CB010E9444353F
:1024C0001F25812F90E0C7CFCF93DF9380910B041E
:1024D000882321F060E070E0CB014CD635D6D0E007
:1024E000C0E0892B71F06AE070E080E090E00E942B
:1024F000443581E090DF28D62196C03D27E0D20701
:1025000081F727D60E9415281092230410922204E6
:1025100010921C0410921D0410921E0410921F04AD
:10252000109218041092190410921A0410921B04AD
:1025300010921404109215041092160410921704AD
:1025400010921004109211041092120410921304AD
:1025500010920C0410920D0410920E0410920F04AD
:102560004EEF5FEF6FEF7FEF40938B0250938C0243
:1025700060938D0270938E0210920B04EFEFF3E0E4
:1025800028E0DF011D922A95E9F71092FB031092D3
:10259000FC031092FD031092FE031092F7031092B9
:1025A000F8031092F9031092FA031092F3031092B9
:1025B000F4031092F5031092F6031092EF031092B9
:1025C000F0031092F1031092F203DF91CF9108957E
:1025D00010922F04109230041092310410923204A1
:1025E00010922E04809137049091380490932D041A
:1025F00080932C0410922B0410922A04109226042B
:102600001092270410922804109229041092340486
:102610001092330490E080E00895CF92DF92EF9221
:10262000FF920F931F93CF938C01892B09F055C014
:10263000209137043091380480912C0490912D041E
:10264000409137045091380450932D0440932C044A
:102650002817390781F010922B0410922A04109247
:102660002604109227041092280410922904109234
:102670003404109233048091370490913804019708
:1026800061F58091330490913404892B21F4809179
:102690008F02811112C0809133049091340401970C
:1026A000E1F48091260490912704A0912804B09130
:1026B00029040197A105B10581F410922604109216
:1026C0002704109228041092290410928F0282E0AD
:1026D00090E0909334048093330480913704909178
:1026E0003804019709F01CC180914D0490914E046B
:1026F0008017910709F014C18091490490914A0410
:10270000A0914B04B0914C04009709F409C12091A9
:10271000480421110DC04091490450914A04609130
:102720004B0470914C04452B462B472B09F4F8C001
:1027300020913304309134042230310509F0F0C087
:1027400020912A042111ECC0FC01C080D180E280DC
:10275000F38080912E04882309F4D3C080913A0439
:1027600090913B04892B09F4FDC020913A043091EB
:102770003B0481E02230310509F080E020913A04E9
:1027800030913B04C1E02130310549F020913A04F9
:1027900030913B04C1E02230310509F0C0E08823CC
:1027A00009F456C0209144043091450440914604F8
:1027B00050914704C701B6010E949B3287FD14C0A7
:1027C00020914404309145044091460450914704BF
:1027D00060912F0470913004809131049091320403
:1027E0000E94133187FD22C020914404309145049A
:1027F0004091460450914704C701B6010E949B32A4
:10280000181634F520914404309145044091460453
:102810005091470460912F047091300480913104ED
:10282000909132040E941331811112C080913C04B6
:1028300090913D04A0913E04B0913F04892B8A2BD6
:102840008B2B19F481E080932B0481E080932A0480
:10285000CC2309F456C020914404309145044091A2
:10286000460450914704C701B6010E94133187FF07
:1028700014C0209144043091450440914604509185
:10288000470460912F04709130048091310490913D
:1028900032040E949B3287FF22C020914404309171
:1028A00045044091460450914704C701B6010E9477
:1028B0001331811126C02091440430914504409188
:1028C00046045091470460912F0470913004809128
:1028D0003104909132040E949B32181694F4809136
:1028E0003C0490913D04A0913E04B0913F04892B9B
:1028F0008A2B8B2B19F481E080932B0481E0809349
:102900002A0481E090912A04911180E080932E04A2
:10291000C0922F04D0923004E0923104F09232043D
:10292000012B09F067C18091330490913404892B05
:10293000D9F41092390410922A0480918F028823CE
:1029400079F082E090E09093340480933304109205
:102950008F02209137043091380481E0232BE9F075
:1029600080E01BC081E00ACF10928F028091390471
:10297000882349F010922B041092340410923304EF
:1029800010923904EDCF8091370490913804892B4F
:10299000E1F080912A0410922A04209133043091AE
:1029A00034042230310509F45EC088F42115310564
:1029B00009F448C02130310509F4F3C010922B040A
:1029C00010922A041092390438C081E0E6CF2330F7
:1029D000310509F4B1C02430310581F74091260456
:1029E00050912704609128047091290441155105E4
:1029F0006105710561F04150510961097109409308
:102A0000260450932704609328047093290440916E
:102A10002604509127046091280470912904452BC5
:102A2000462B472BD9F420913504309136042130C0
:102A3000310509F046C010922B0410923404109214
:102A400033040CC080918F02882341F082E090E033
:102A5000909334048093330410928F0210922404D4
:102A600080912B04CEC08823C9F380913C049091BF
:102A70003D04A0913E04B0913F04181619061A06B1
:102A80001B060CF07DC080913704909138040197AB
:102A900009F076C080913C0490913D04A0913E04E1
:102AA000B0913F048093260490932704A0932804B8
:102AB000B093290483E090E090933404809333042E
:102AC000CDCF4091400450914104609142047091F7
:102AD0004304452B462B472BA9F010922B048091E1
:102AE000400490914104A0914204B091430480932A
:102AF000260490932704A0932804B093290481E02E
:102B000090E0DACF882399F0809190029091910221
:102B1000A0919202B091930280932604909327048F
:102B2000A0932804B093290484E090E0C5CF1092CC
:102B30002B0482E090E0C0CF80912604909127047E
:102B4000A0912804B09129040097A105B10559F07E
:102B50000197A109B1098093260490932704A093BB
:102B60002804B09329048091260490912704A09111
:102B70002804B0912904892B8A2B8B2B09F06ECF66
:102B80008091900290919102A0919202B091930253
:102B9000892B8A2B8B2B09F44ECF81E080932B0459
:102BA000B3CF40912604509127046091280470917E
:102BB0002904411551056105710561F04150510924
:102BC00061097109409326045093270460932804F7
:102BD00070932904409126045091270460912804A1
:102BE00070912904452B462B472B09F037CF8111D3
:102BF000C7CF9FCF80912404882309F431CF8091DF
:102C00002504CF911F910F91FF90EF90DF90CF900F
:102C1000089510922F0410923004109231041092F3
:102C2000320410922E041092340410923304109245
:102C30002D0410922C0410924E0410924D04109208
:102C40002B0410922A04109226041092270410924A
:102C50002804109229041092250410922404109242
:102C6000490410924A0410924B0410924C041092A2
:102C700048041092440410924504109246041092A5
:102C8000470488EE93E0A0E0B0E080939002909338
:102C90009102A0939202B09393021092400410927A
:102CA0004104109242041092430410923C0410928A
:102CB0003D0410923E0410923F0410923B04109287
:102CC0003A0481E080938F02109239041092380404
:102CD00010923704109236041092350490E080E090
:102CE00008958091370490913804892B19F58091CB
:102CF0008F02882351F080913904811106C081E050
:102D00008093250480932404089520913904309100
:102D10008F0281E090E0332311F090E080E030E01A
:102D200082239323892B21F01092250481E0EACF9E
:102D300010922404089582E090E0FA019183808348
:102D40008FEF9FEF0895CF93DF93EA01009711F083
:102D50000E9435291982188290E080E0DF91CF919E
:102D60000895DB01009719F48FEF8C9308952EEFEF
:102D70002C93FC013F96EF30F10508F034C0882712
:102D8000EB53F94E8F4F0C94883BF116EF16ED166E
:102D9000EB16E916E516E716E316E116DF16DC1664
:102DA000D816D416DA16F31680E311968C9308958C
:102DB00089E2FBCF82E2F9CF11961C92089583E25B
:102DC000F4CF81E2F2CF81E1F0CF87E2EECF8AE269
:102DD000ECCF80E1EACF84E2E8CF88E2E6CF86E27A
:102DE000E4CF81E3E2CF80E2E0CF80915B04909179
:102DF0005C04089590935C0480935B040895809133
:102E00005A04089590915A04892B80935A04089586
:102E1000982F909580915A04892380935A0408959D
:102E20008091590408958091570490915804089511
:102E30006115710559F0FB0130E020E070E060E0C1
:102E40002417350719F06115710511F0CB010895AC
:102E5000A081B181A817B90709F4BF012F5F3F4FC7
:102E60003696EECF80915D0481111CC060D266D28F
:102E70009093500480934F040E9433210E94452177
:102E800090935404809353040E94C2250E94C92544
:102E9000909352048093510481E080935D0490E00C
:102EA00080E0089584EF9FEF08958F929F92AF92F4
:102EB000BF92CF92DF92EF92FF920F931F93CF9327
:102EC000DF9300D000D000D01F92CDB7DEB71A86B6
:102ED000198618861F821E821D821C821B821A82FE
:102EE000198280915D0407EF1FEF882309F49CC0CD
:102EF0008E010D5F1F4F9E012B5F3F4FAE01495F5B
:102F00005F4FBE01675F7F4F90E080E00E944627E1
:102F10008C01009721F00596029708F0DBC0298507
:102F20003A852115310509F402C1ED80FE804B81FF
:102F30005C81B701640F751F8F819885861797078D
:102F400008F4F5C0E20EF31ED7019C91903C09F005
:102F50007FC04230510508F47BC011968C9140919E
:102F60005B0450915C04452B09F49CC0913F08F030
:102F700071C02CE1290F2D3008F48BC02DE2290FF0
:102F8000203108F489C0903C21F48150823008F44B
:102F900083C088E3890F8B3008F481C091EBC92E80
:102FA00096E1D92EEBE9F6E16D817E81AE014F5FAE
:102FB0005F4F89859A8519955C01C114D104A1F1EF
:102FC00089809A808114910479F18B819C81881584
:102FD000990508F487C010E000E04B815C8170E047
:102FE00060E0C7010E94B23B01151105E9F4498177
:102FF0005A8169857A858D819E81680F791FC50107
:10300000F6011995E980FA800D811E812F8138859E
:1030100049855A856FEF7FEF81E090E00E94E126BD
:103020008C01892B09F056C0C8012A960FB6F89476
:10303000DEBF0FBECDBFDF91CF911F910F91FF90EB
:10304000EF90DF90CF90BF90AF909F908F900895BA
:1030500080E085CF30E020E0220F331FF901E15BF3
:10306000FB4F0190F081E02D309709F497CF892F25
:1030700090E01995009709F491CFDC011296ED913B
:10308000FC9113971496CD90DC90309709F08CCF7B
:103090001FC021E030E0E0CF22E030E0DDCF23E0D0
:1030A00030E0DACFD12CC12CE3EAF6E19F3F09F002
:1030B0007BCFE0914F04F0915004309721F4C90187
:1030C00004EF1FEF0CC08FEF90E019950097A9F661
:1030D00004EF1FEF89859A85009709F4A5CF0E9418
:1030E0003529A2CF0E9410288C0189859A850E94DB
:1030F000352970E060E0C4010E94A92798878F837A
:103100000E94DE269E838D836F817885611571050F
:1031100059F0C8010E94C12A9A87898706EF1FEFDC
:10312000892B09F058CF59CF08EF1FEF56CF08EF82
:103130001FEFD0CF20915D04222319F020E00C94E2
:103140004A2187EF9FEF089580915B0490915C0482
:1031500008950E94CE250E942825F5D0EFE4F4E0E2
:1031600088E0DF011D928A95E9F710925D0490E0F6
:1031700080E008950C94862321E040E050E0BA01FD
:103180000C944A2186E090E0FA019183808390E0DC
:1031900080E0089547E050E068EC72E049CEDF92AD
:1031A000EF92FF920F931F93CF93DF938A01EC016D
:1031B000C60FD71FE0906104F0906204D9800E948E
:1031C000F827D816190678F082E090E0F80191838C
:1031D00080838EEF9FEFDF91CF911F910F91FF9032
:1031E000EF90DF900895EF2841F482E090E0F8013D
:1031F0009183808384EF9FEFEECF89818093600479
:1032000090E00196F8019183808390E080E0E3CF25
:10321000CF93DF93EA010E943724882321F00E9494
:1032200005280E94382482E090E0998388838BEF00
:103230009FEFDF91CF910895CF93DF93EB0186E06D
:10324000FB0111928A95E9F78FEF8883D8DD898396
:10325000E7DD8A83E8DD9D838C83DF91CF9108953C
:10326000CF93DF93EA010E943A24811109C082E0E2
:1032700090E09983888385EF9FEFDF91CF91089548
:1032800090E080E0B7DD81E090E09983888390E072
:1032900080E0F3CF0F931F93CF93DF93EA018C016C
:1032A000060F171F0E943A2481110BC082E090E0A4
:1032B0009983888385EF9FEFDF91CF911F910F91C5
:1032C0000895F8018181823038F082E090E099839E
:1032D00088838EEF9FEFF0CF81E090E08BDD88E078
:1032E00090E09983888390E080E0E6CFCF93DF93EE
:1032F0000097D1F4EB01FB01329686E0DF011D92CD
:103300008A95E9F78FEF888385E089831A820E9486
:10331000F8278B830E94F7279D838C8381E08E831F
:103320008F83DF91CF910895DF91CF911ACD8AECF1
:1033300098E190935F0480935E04089580915E0409
:1033400090915F04089510925F0410925E040895B6
:1033500080916104909162040895411105C0611546
:1033600071058105910561F06093610470936204B9
:1033700080936304909364044093650481E008950E
:1033800080E00895FF920F931F93CF93DF938A01FC
:10339000EC01C60FD71FF9800E94F827F81619060E
:1033A00068F082E090E0F801918380838EEF9FEFD8
:1033B000DF91CF911F910F91FF9008956C817D81D6
:1033C0008E819F814B81C9DF811108C082E090E02E
:1033D000F8019183808384EF9FEFEACF8981809306
:1033E000600490E00196F8019183808390E080E092
:1033F000DFCFCF93DF93EA01FC01E60FF71F648173
:103400007581868197814381A8DF811109C082E09F
:1034100090E09983888384EF9FEFDF91CF910895A7
:1034200081E090E09983888390E080E0F6CFE1E648
:10343000F4E04081518162817381480F511D611D0B
:10344000711D40835183628373830895CF93C0912C
:1034500060044C2F50E06091610470916204019609
:103460000E94A93B8C2FE3DF10926004CF91089556
:10347000009799F480916104909162042FEFFB0111
:103480002083892B59F02091600430E02F5F3F4F5B
:103490002417350719F4CB01D9CF63CC08950097D1
:1034A00099F480916104909162042FEFFB012083D5
:1034B000892B59F02091600430E02F5F3F4F241793
:1034C000350719F4CB01C2CF4CCC089523E1AC01F0
:1034D000249FC001259F900D1124E0916A04F09172
:1034E0006B04E80FF91F238134812250310981E0F8
:1034F0002230310508F080E008950F931F93CF9399
:10350000DF9300916C0410916D04D0E0C0E080E086
:103510000C171D0749F491E0811190E0892FDF918C
:10352000CF911F910F9108958111F5CFCE01CEDF7C
:103530002196EECFA0916A04B0916B04109729F107
:1035400020916C0430916D0482179307F0F453E1DD
:10355000589F9001599F300D1124A20FB31FED9178
:10356000FC911197309789F012968C91681768F446
:103570008DE0689FE00DF11D112480819181892BE0
:1035800021F081E09281491708F080E008959C01C4
:1035900043E1429FC001439F900D1124E0916A04D2
:1035A000F0916B04E80FF91F8385823091F481E07C
:1035B00090E0658176814091940250919502641764
:1035C000750711F490E080E0892B19F081E0232B3E
:1035D00009F080E00895FC01A081B1818DE0689F31
:1035E000A00DB11D112413964D915C918585968592
:1035F000489F9001499F300D589F300D1124C901FB
:103600000196611103C0478144FD04960895EF922D
:10361000FF920F931F93CF93DF93EA01FC01E60F14
:10362000F71F02811381E480F5804F2D6E2DC801B4
:1036300081DF81110DC082E090E0998388838EEF55
:103640009FEFDF91CF911F910F91FF90EF90089521
:10365000C8013CDF882339F082E090E099838883B9
:1036600088EF9FEFEECF10939B0200939A02E092B7
:103670009C02F0929D0281E090E09983888390E023
:1036800080E0DFCFCF92DF92EF92FF920F931F93F4
:10369000CF93DF937A01EC01C60FD71FC0909A0237
:1036A000D0909B0200919C0210919D02412F602FAF
:1036B000C60140DF811110C082E090E0F7019183E4
:1036C00080838AEF9FEFDF91CF911F910F91FF9041
:1036D000EF90DF90CF900895C601F8DE882341F087
:1036E00082E090E0F7019183808388EF9FEFEBCF3A
:1036F0004C815D816E817F819A8189818F3F41F00C
:1037000082E090E0F701918380838EEF9FEFDBCF23
:10371000E3E1EC9D9001ED9D300D1124E0916A04F0
:10372000F0916B04E20FF31F0190F081E02D2DE08A
:10373000029FE00DF11D11240190F081E02D27E0A2
:10374000129FE00DF11D1124808391838B81828370
:1037500043835483658376831F5F10939D0281E0CA
:1037600090E0F7019183808390E080E0ACCFEF920E
:10377000FF920F931F93CF93DF937A018C01060F73
:10378000171FC0916A04D0916B04209781F021E04B
:1037900030E0F8018281938140916C0450916D0476
:1037A0008417950710F030E020E0232B71F482E0BD
:1037B00090E0F701918380838EEF9FEFDF91CF91AF
:1037C0001F910F91FF90EF90089543E1489F900162
:1037D000499F300D1124C20FD31F78DE882341F09A
:1037E00082E090E0F7019183808388EF9FEFE6CF3E
:1037F000F8012481358120383105C8F6878181118F
:10380000D6CF4181842F90E08F7E009741F082E0F7
:1038100090E0F7019183808386EF9FEFCFCF4F83B6
:103820003E832D83268128871986223010F421E0DB
:10383000288721E030E0F70131832083BFCF88E083
:1038400090E0FA019183808390E080E00895FB018D
:103850008FEF808381E181838FEF9FEF938382835A
:1038600080E890E095838483168217820895FB0197
:103870008FEF808391E0918382839383848384E3B9
:10388000858381E090E0978386830895DF92EF92AD
:10389000FF920F931F93CF93DF93EA01FC01E60F92
:1038A000F71F8181813071F082E090E099838883F5
:1038B0008FEF9FEFDF91CF911F910F91FF90EF90CE
:1038C000DF90089582819381D4802581E680F780FE
:1038D00000916A0410916B040115110539F482E01E
:1038E00090E0998388838CEF9FEFE4CF40916C0444
:1038F00050916D048417950738F082E090E0998329
:1039000088838EEF9FEFD6CF892B39F082E090E04D
:103910009983888386EF9FEFCDCF8D2D8D7FB1F773
:103920002130A1F781E0D11006C091E0E916F10441
:1039300031F080E004C0E2E0EE16F104D0F3882319
:1039400029F390E080E0C2DD882339F082E090E046
:103950009983888388EF9FEFADCFF801D38681E00C
:103960008487F686E586108A178681E090E0998341
:10397000888390E080E09ECF4CE050E062EF72E000
:1039800057CA8F929F92BF92CF92DF92EF92FF928F
:103990000F931F93CF93DF93EA01FC01E60FF71F0C
:1039A000828193810481B580E0916A04F0916B0477
:1039B000309791F482E090E0998388838CEF9FEFB9
:1039C000DF91CF911F910F91FF90EF90DF90CF90FB
:1039D000BF909F908F90089520916C0430916D045A
:1039E0008217930738F082E090E0998388838EEF06
:1039F0009FEFE6CF23E1289F6001299FD00C11247F
:103A0000EC0DFD1DE080F180E114F10499F282815A
:103A1000081748F78DE0089F80011124E00EF11E81
:103A2000F70180819181892B29F6BB20E1F2F7E033
:103A3000BF9E40011124C4010E94FC28F70191831C
:103A40008083E0916A04F0916B04EC0DFD1D019000
:103A5000F081E02DE00FF11F80819181009739F412
:103A600082E090E0998388838DEF9FEFA9CFA40136
:103A700070E060E00E94B23B80916A0490916B0418
:103A8000C80ED91EF60180819181080F191FF80117
:103A9000B28281E090E09983888390E080E090CFCB
:103AA000AF92BF92CF92DF92FF920F931F93CF936B
:103AB000DF93EA01FC01E60FF71F82819381F48016
:103AC00000916A0410916B040115110581F482E0E4
:103AD00090E0998388838CEF9FEFDF91CF911F91C6
:103AE0000F91FF90DF90CF90BF90AF9008952091FD
:103AF0006C0430916D048217930738F082E090E0F7
:103B0000998388838EEF9FEFE8CF2FEF2F0D2C3F07
:103B1000A8F723E1289F6001299FD00C11240C0DE8
:103B20001D1DF80180819181892B89F6FDE0FF9EA2
:103B300050011124C5010E94FC28F8019183808363
:103B4000E0916A04F0916B04EC0DFD1D8081918180
:103B5000009739F482E090E0998388838DEF9FEF9E
:103B6000BCCFA50170E060E00E94B23BE0916A0426
:103B7000F0916B04EC0DFD1DF28281E090E09983E1
:103B8000888390E080E0A9CFCF92DF92EF92FF92FE
:103B90000F931F93CF93DF93860F971FFC01028132
:103BA000138180916A0490916B04892B81F082E0EB
:103BB00090E0FA01918380838CEF9FEFDF91CF91AA
:103BC0001F910F91FF90EF90DF90CF900895C80163
:103BD000B0E0A0E00197A109B1098F3F9F4FA10577
:103BE000B10540F082E090E0FA01918380838EEF8E
:103BF0009FEFE4CF7A0183E1809F6001819FD00C29
:103C00001124C6010E94FC28EC01009741F482E0D7
:103C100090E0F701918380838DEF9FEFCFCFA601D6
:103C200070E060E00E94B23BD0936B04C0936A04E2
:103C300010936D0400936C0490E080E02FEF3FEF51
:103C400041E061E070E08017910741F481E090E08D
:103C5000F7019183808390E080E0B0CF3A8B298B8D
:103C60001B864C877E876D87188A1F860196639610
:103C7000EACFEF92FF921F93CF93DF93EC0110E016
:103C8000F12CE12C6A811617B0F083E0689FB00137
:103C90001124AE014F5E5F4FC7010E94612900975A
:103CA00021F02FEF3FEF3A8B298BDF91CF911F91BE
:103CB000FF90EF900895612FCE018DDC61E070E000
:103CC0000E94A927E816F90608F47C011F5FDACFE5
:103CD000F894209168043091690481E02115310540
:103CE00009F080E0232B09F0789408952F923F92F9
:103CF0004F925F926F927F928F929F92AF92BF92FC
:103D0000CF92DF92EF92FF920F931F93CF93DF93A7
:103D10003C01660E771EF301828193814C01B12C28
:103D2000A12CC0916A04D0916B04209769F021E026
:103D300030E060916C0470916D048617970710F065
:103D400030E020E0232BD1F482E090E0FA0191836F
:103D500080838EEF9FEFDF91CF911F910F91FF90A6
:103D6000EF90DF90CF90BF90AF909F908F907F901B
:103D70006F905F904F903F902F90089580929E0299
:103D800090929F02A092A002B092A10263E1689F6C
:103D90009001699F300D1124C20FD31FF30181815F
:103DA000833040F082E090E0FA019183808386EFD7
:103DB0009FEFD1CF2A012B813C81232BF1F4288165
:103DC00039819F8191FF2EC0232B09F46FC0209170
:103DD0006F049A81422F490F5527551FBA0141E0C0
:103DE00050E06138710514F050E040E0452B09F4D3
:103DF0005DC02A87920F90936F048150823008F43F
:103E000081C066DF882309F4D8C0F3018181813045
:103E100009F48DC008F47BC0823009F4C6C090E07C
:103E200080E0ADC0232B09F441C020916E049A813B
:103E3000E22FE90FFF27FF1F41E050E0ED3FF105C2
:103E400014F050E040E0452B89F12A87920F9093BF
:103E50006E04D3CFA081B181A20FB31F11966C91D4
:103E6000060F111D0196295F3F4F8417950794F3A4
:103E70008D859E85089F1001099F300C189F300C7E
:103E80001124C114D104D1F48F8184FF17C00E9482
:103E9000F727F5E02F0E311C21E08215930508F479
:103EA00020E0A701435F5F4F21110EC082E090E048
:103EB000F2019183808387EF9FEF4DCF0E94F72718
:103EC0002FEF221A320AE8CF88819981E80EF91E75
:103ED000F70114830383FFEFCF1ADF0A7A018A8187
:103EE0008C151D0409F00CF48CCFE881F981EE0DDE
:103EF000FF1D428150E030E020E010E000E090E063
:103F000080E0B3CFF12CE12CD12CC12CE8CF81E0A3
:103F100090E09C838B83F1DA882309F480CF81E0E1
:103F200090E00E94FA1680E40E94081778CF8989F1
:103F30009A89019661F083E090E09C838B8382E014
:103F400090E00E94FA1680E40E94021768CF8D81EB
:103F50009E81209194023091950282179307D1F4AB
:103F60006091980270919902AE014F5E5F4F80910F
:103F70009602909197020E94802A0097E1F278942D
:103F800022E030E0F20131832083892B99F08DEF1C
:103F90009FEFE1CE89288A288B2869F6039758F687
:103FA000CE0167DE188A1F86E8CF82E090E09C830E
:103FB0008B8335CF90E080E0CECE82E090E0F201BE
:103FC0009183808385EF9FEFC6CE8F929F92AF92B1
:103FD000BF92CF92DF92EF92FF920F931F93CF93F6
:103FE000DF93EA018C01060F171FF80181818330EE
:103FF00098F082E090E09983888386EF9FEFDF91CD
:10400000CF911F910F91FF90EF90DF90CF90BF90D5
:10401000AF909F908F90089580916A0490916B0467
:10402000892B61F081E090E020916C0430916D0467
:10403000232B11F490E080E0892B39F482E090E0AA
:10404000998388838EEF9FEFDACF42DE882309F4CD
:10405000E0C0F8018181813009F496C0E8F0823037
:1040600099F420916C0430916D04E0916A04F09110
:104070006B0490E080E041E050E02817390709F038
:10408000BEC03BDA811117C0789481E090E099833B
:10409000888390E080E0B3CF20916C0430916D0470
:1040A000E0916A04F0916B0490E080E041E050E020
:1040B0002817390741F481E090E00E94FA1680E465
:1040C0000E940817E1CF63817481672B11F054833C
:1040D000438301967396ECCFE0916A04F0916B04F0
:1040E000E00FF11F2381348122303105D9F4218979
:1040F00032892F3F3F4FB1F42581368140919402A0
:10410000509195022417350761F5AF014F5E5F4F5F
:104110006091980270919902809196029091970215
:104120000E94802AEFEFCE1ADE0AEE0AFE0A0D5E2A
:104130001F4F40916C0450916D0470E060E0C41614
:10414000D506E606F70644F5009731F27894892BF8
:1041500009F49BCF82E090E0998388838DEF9FEFF5
:104160004ECFC114D104E104F104E1F6233031054E
:10417000C8F6CF017EDDE0916A04F0916B04E00F98
:10418000F11F108A1786CECF10E000E090E080E0AB
:10419000C12CD12C7601CDCF0097C1F610E000E004
:1041A000812C912C540183E0E82EF12C1AC0E0916F
:1041B0006A04F0916B04E00FF11F838194810297F0
:1041C00049F4F482E38282E090E00E94FA1680E4EF
:1041D0000E940217FFEF8F1A9F0AAF0ABF0A0D5EF7
:1041E0001F4F80916C0490916D04B0E0A0E08816A0
:1041F0009906AA06BB06DCF290E080E0A7CF6381B7
:1042000074816230710511F454834383019673966F
:1042100034CF82E090E09983888385EF9FEFEFCEE3
:104220000097B9F48FEFFB01808320919E023091BB
:104230009F0243E1429FC001439F900D1124E091F2
:104240006A04F0916B04E80FF91F8285FB018183FA
:1042500008950C94B11688E090E0FA019183808370
:1042600090E080E008951092690410926804EAE6F4
:10427000F4E086E0DF011D928A95E9F78CEB9CE182
:1042800090936704809366040895809166049091EA
:10429000670408952F923F924F925F926F927F92A0
:1042A0008F929F92AF92BF92CF92DF92EF92FF9246
:1042B0000F931F93CF93DF93CDB7DEB72F970FB632
:1042C000F894DEBF0FBECDBFF894E0916804F09182
:1042D00069043196F0936904E093680478944090FF
:1042E0006A0450906B044114510409F40CC2E0912B
:1042F0006C04F0916D04EF2B09F405C22D874987FA
:104300005A876B877C8798878F831201B12CA12CE9
:1043100010E000E080916C0490916D04A816B9063D
:1043200018F40115110529F1F89480916804909111
:104330006904019790936904809368047894C80194
:104340002F960FB6F894DEBF0FBECDBFDF91CF9191
:104350001F910F91FF90EF90DF90CF90BF90AF90A3
:104360009F908F907F906F905F904F903F902F9095
:1043700008957101E418F508D10117968C911797EB
:1043800081FD54C013968D919C911497039709F069
:104390004DC015968D919C91EF81F8858E179F07E2
:1043A00009F044C0B50190E080E07FD48A83209179
:1043B0006A0430916B043D832C833D85332309F4DB
:1043C0004CC04C815D81452B09F49AC180916C04ED
:1043D00090916D04A816B90608F092C1C501D7D80E
:1043E0008823E9F06C817D816E0D7F1D7D836C8358
:1043F000DB011F968D919C91892B89F0D12CC12CCA
:10440000F12CE12CAC81BD8112968C9112978E1506
:104410001F0409F094F450961C921E921F972A8153
:10442000222321F0B50190E080E041D43FEFA31AB0
:10443000B30A43E1240E311C6DCFAC81BD81ED91F7
:10444000FC91EC0DFD1D858196810FD7BFEFEB1A16
:10445000FB0AEDE0CE0ED11CD5CFEC81FD8130976B
:1044600009F44EC180916C0490916D04A816B906B0
:1044700008F046C1EE0DFF1DFF87EE87C50187D806
:104480008B83882339F1AE85BF851F968D919C91D2
:104490005097019621E01D964D915C9184179507E8
:1044A00009F020E02E831982712C10E000E0AE8527
:1044B000BF8512968C91781608F45DC0EE85FF8555
:1044C000878590890196658576850E94523B908B01
:1044D0008787A5CFB1E0BE83E6CF992493946BC0C4
:1044E0008BD6F6019683858382C0D601ED90FC9031
:1044F000B7E06B9EE00CF11C1124F701638174811D
:1045000080818F3F61F121E030E002C0220F331F34
:104510008A95E2F7C901092E000CAA0BBB0BFB011F
:10452000408151816281738184239523A623B7231F
:1045300021E0892B8A2B8B2B09F420E0D4012C93CA
:10454000D70111968C91F60123853485820F932F24
:10455000911D880E991E1486138663949BC0418119
:1045600050E0C4010E94A93BEBCF998206EF1FEFF8
:10457000C5C01982C3C0F981F111A0CFEDE07E9EC4
:1045800070011124AE85BF85CD90DC90CE0CDF1C70
:1045900015D49D838C83BB81BB2309F49ECF81E01E
:1045A000EE85FF8527853089232B09F080E0982E42
:1045B000882309F458C0672D8E859F850CD8D601B5
:1045C00018969C938E93179761E070E0C2D4EE85A5
:1045D000FF85218932892F3F320709F481CFBC0141
:1045E000C901CFD7D60116969C938E931597D60105
:1045F00015968D919C911697009709F4B6CFEC8192
:10460000FD818E0F9F1F1A969C938E931997AE85EE
:10461000BF85ED91FC911197EE0EFF1EF7012185EC
:104620003285148613861A968C91870DD9018D9345
:10463000711016C0EE85FF85878184FF11C0498502
:104640005A856B857C85F90141835283638374832A
:10465000F701838594850496A80FB91F14861386E5
:10466000F701B287A187D60115968D919C91169777
:10467000892B09F443C0EE85FF8525813681809121
:104680009402909195022817390779F019968D9028
:104690009C90612CD60112968C911297681608F4A2
:1046A00024CF1A969C928E921997BE81BB2309F44F
:1046B00060CF61E070E0F601878190854AD4D60131
:1046C0001796ED90FC90189715964D915C91E1E04E
:1046D000F0E0BA81BB2311F0F0E0E0E00C811D8135
:1046E0009C01B501882799278E1B9F0B6AD38C01EB
:1046F000892B21F0F60185819681B7D57394D7CEA9
:104700000FEF1FEF8CCE10E000E00ECE2F923F9205
:104710004F925F926F927F928F929F92AF92BF92D1
:10472000CF92DF92EF92FF920F931F93CF93DF937D
:1047300080916A0490916B0410E000E0892BA9F04D
:10474000C7DA0AEF1FEF882381F020906C043090C5
:104750006D04C0916A04D0916B04D12CC12C10E07F
:1047600000E02C143D04A9F47894C801DF91CF91A6
:104770001F910F91FF90EF90DF90CF90BF90AF907F
:104780009F908F907F906F905F904F903F902F9071
:104790000895C6010E94C71A882309F18B819C8164
:1047A0000397E9F48F859889892BC9F0B60190E0C9
:1047B00080E07BD221E030E0882311F030E020E07F
:1047C00044245524421A530AB12CA12C912C812C3B
:1047D0008A818815190409F038F4188A1F864FEF6A
:1047E000C41AD40A6396BDCFE881F981EA0DFB1D96
:1047F00085819681892BA1F161E070E087819085A8
:10480000A8D33C01DBD28C01E881F981EA0DFB1DC4
:104810008185928525813681200F311FAC01421B95
:10482000530B9A0147815085421B530B70E060E0A7
:104830000E94B23BE881F981EA0DFB1DE780F0841C
:10484000458156819301B601C201BBD28C01892BEF
:1048500039F0E881F981EA0DFB1D8581968105D546
:104860005FEF851A950A8DE0A80EB11CB1CF30CA52
:10487000789408952F923F924F925F926F927F9219
:104880009F92AF92BF92CF92DF92EF92FF920F93DF
:104890001F93CF93DF9300D000D0CDB7DEB7009148
:1048A0006A0410916B04992493940115110509F47D
:1048B0003EC0A0906C04B0906D040ADA982E882354
:1048C000B1F110926B0410926A0410926D04109270
:1048D0006C0410926E0410926F048FEF9FEFDC0156
:1048E00080939E0290939F02A093A002B093A10296
:1048F00078947FD31E830D83C12CD12C7601C50102
:10490000B0E0A0E089839A83AB83BC8322242A94FD
:10491000322C89819A81AB81BC81C816D906EA06FE
:10492000FB06F4F0C801A1D480E40E940817892D89
:1049300026960FB6F894DEBF0FBECDBFDF91CF91A4
:104940001F910F91FF90EF90DF90CF90BF90AF90AD
:104950009F907F906F905F904F903F902F90089521
:10496000AD81BE8115968D919C91169720919402F0
:104970003091950282179307D1F451968D919C91B5
:10498000EED5ED81FE8180819181B12CA12C412C4D
:10499000512C3201892B89F5BFEFCB1ADB0AEB0AC8
:1049A000FB0AED81FE817396FE83ED83B2CFC114C5
:1049B000D104E104F10429F7039718F7ED81FE8192
:1049C000818992898F3F980709F029D5AD81BE81F1
:1049D00052963C922E925197D4CF8A0D9B1DDC01AA
:1049E0008D919C91009709F040D4BFEF4B1A5B0A60
:1049F0006B0A7B0AEDE0AE0EB11CAD81BE818D91DC
:104A00009C91119712964C9150E070E060E0441632
:104A10005506660677060CF328D4BECFCF93DF93F6
:104A2000EA0128DF811109C082E090E09983888340
:104A300085EF9FEFDF91CF91089581E090E00E9494
:104A4000FA1681E090E09983888390E080E0F2CFCD
:104A500011DF1092670410926604089542E050E05E
:104A60006AE373E00C941817FF920F931F93CF9390
:104A7000DF938A01EC01C60FD71FF980B9D20897DE
:104A8000F816190671F068F082E090E0F801918361
:104A900080838EEF9FEFDF91CF911F910F91FF9059
:104AA00008956C817D818E819F814B810E94AD191B
:104AB000811108C082E090E0F8019183808384EF47
:104AC0009FEFE9CFF9800E94A8194F2D50E0BE0159
:104AD000685F7F4F0E94A93B89810E94171A81E07D
:104AE00090E0F8019183808390E080E0D4CFDF9262
:104AF000EF92FF920F931F93CF93DF938A01EC0104
:104B0000C60FD71F0E94A8197C01D98071D2DD2061
:104B100059F0029721E030E0D816190619F010F08C
:104B200030E020E0232B79F482E090E0F8019183DB
:104B300080838EEF9FEFDF91CF911F910F91FF90B8
:104B4000EF90DF900895EF2841F482E090E0F801C3
:104B50009183808384EF9FEFEECFF9800E94A819A4
:104B60004F2D50E0BE016E5F7F4F0E94A93B8981AF
:104B70000E94171A81E090E0F8019183808390E011
:104B800080E0D9CF8EE295E2909371048093700417
:104B90000895809170049091710408950895FC0126
:104BA00011821082938382830895DB011D921C92EF
:104BB000DC011296ED91FC9113977183608313963B
:104BC0007C936E9312970895FC0180819181DB01A3
:104BD0008D939C93A081B181109741F08D919C9110
:104BE00091838083892B11F4F383E2830895FC0180
:104BF00080819181DB018D939C93892B11F47383C8
:104C00006283718360830895FC0111821082938313
:104C100082830895CF93DF931F921F92CDB7DEB7A3
:104C20001A821982F894BE016F5F7F4F87E794E084
:104C3000CBDF89819A81009709F017D389819A8106
:104C4000892B89F7BE016F5F7F4F8BE794E0BCDF54
:104C500089819A81009709F008D389819A81892BEB
:104C600089F778940F900F90DF91CF910895CF93AB
:104C7000DF931F921F92CDB7DEB71A821982F89484
:104C8000BE016F5F7F4F83E794E09EDF89819A8149
:104C9000009709F0EAD289819A81892B89F7789463
:104CA0000F900F90DF91CF91089581E0089590E0EB
:104CB00080E00895EF92FF920F931F93CF93DF93BD
:104CC0001F921F92CDB7DEB71A82198280917204AB
:104CD00007EF1FEF8823A1F1F894BE016F5F7F4FAC
:104CE0008BE794E071DF789489819A81EE24E394D4
:104CF000F12C892B51F4F894BE016F5F7F4F87E749
:104D000094E062DF7894F12CE12C89819A810EEF96
:104D10001FEF0097A9F0FC014281538164E070E02D
:104D200076D68C01892B61F0F89469817A81C7016C
:104D3000880F991F880F991F89589B4F58DF7894C7
:104D4000C8010F900F90DF91CF911F910F91FF90AD
:104D5000EF9008950F931F93CF93DF9300D01F928E
:104D6000CDB7DEB71C821B821A8219828091720431
:104D700007EF1FEF8823C1F0AE014D5F5F4F64E086
:104D800070E0CE010196B6D68C01892B69F4E981D9
:104D9000FA818B819C8193838283F89469817A81E3
:104DA00083E794E002DF7894C8010F900F900F9092
:104DB0000F90DF91CF911F910F910895BBD704966B
:104DC00008958F929F92AF92BF92CF92DF92EF920F
:104DD000FF920F931F93CF93DF931F921F92CDB734
:104DE000DEB71A821982BC016F5F7F4F6330710595
:104DF00098F0AA24AA94BA2CC5010F900F90DF91C5
:104E0000CF911F910F91FF90EF90DF90CF90BF90C7
:104E1000AF909F908F9008954115510551F348012F
:104E200059018A016C01CADF8815990511F7E1144F
:104E3000F104F9F28E0D9F1DA816B906D0F28091EB
:104E400072048823F1F0F894B50164507109970158
:104E5000AE014F5F5F4FC8010496E1D65C01892B1C
:104E600071F489819A81F80193838283C601880F46
:104E7000991F880F991FB80189589B4F96DE789427
:104E8000BBCF87EFA82EBB24BA94B6CFAF92BF9208
:104E9000CF92DF92EF92FF920F931F93CF93DF9306
:104EA0001F921F92CDB7DEB71A821982892B09F0A3
:104EB00047C06115710509F443C04115510509F456
:104EC0003FC02115310509F43BC001151105C1F1A1
:104ED000809172048823B9F179016A015B01F89429
:104EE000BE016F5F7F4F83E794E06EDE7894898127
:104EF0009A81009759F1DC0112966D917C91A8017D
:104F00000496A6D68C01E981FA81D501ED93FC9334
:104F1000828193810496F601918380834FDFD701CC
:104F20008D939C93C8010F900F90DF91CF911F91AB
:104F30000F91FF90EF90DF90CF90BF90AF900895CA
:104F40000FEF1FEFEFCF07EF1FEFECCF0EEF1FEFCD
:104F5000E9CFCF93DF93EC01672B71F4F4D68C1774
:104F60009D0760F0E7D62496C80FD91FE6D68C0FB0
:104F70009D1FDF91CF910895E3D6F1CF90E080E0BF
:104F8000F8CF0F931F93CF93DF93209172042111D9
:104F90002BC08B01EC0187E794E001DE8BE794E006
:104FA000FEDD83E794E0FBDD97D00097C1F4CBD61C
:104FB00070E060E0CEDF42EA52E062E070E081D172
:104FC000009769F48091A2029091A302CED6B80115
:104FD000CE0103D5009719F421E020937204DF91EC
:104FE000CF911F910F91089584EF9FEFF8CFA8C63E
:104FF000AAC6CF93DF93AAD6EC01892B11F40ADE5F
:1050000036DECE01DF91CF910895CF93DF939ED608
:10501000EC01892B09F4FEDDCE01DF91CF910895DB
:105020008091A2029091A3020895CF93DF93809183
:105030007204D0E0C0E08823D1F09CD6EC01892B2B
:10504000B1F4E8DD14DE8091A2029091A302E7D1D1
:10505000E8D2EC01892B59F487E794E0D5DD8BE7A2
:1050600094E0D2DD83E794E0CFDD10927204CE01AC
:10507000DF91CF910895EF92FF920F931F93CF93FB
:10508000DF93EC017A018B010F5F1F4F0E9DA00192
:105090000F9D500D1E9D500D112470E060E00E9488
:1050A000B23B90E080E0F0E0E0E02FEFE816F90698
:1050B00039F4DF91CF911F910F91FF90EF900895F8
:1050C0001A8219822883309711F0D283C183019606
:1050D000FE01C00FD11FEACFCF92DF92EF92FF9275
:1050E0000F931F93CF93DF930AEB15E00C7F43E000
:1050F00050E064EA72E08AEA92E01CD484EAE82E86
:1051000082E0F82E9AEAC92E92E0D92EC9E3D6E0C1
:10511000D7014D915D917D01F601619171916F0112
:10512000198308835D834C835B834A837F836E830B
:105130009B012F5F3F4F249FC001259F900D349FFF
:10514000900D1124998788870115110511F0C80168
:1051500092DF88859985080F191F2A96FAEAEF16BB
:10516000F2E0FF06A9F6E1E8F4E086E391E0DF0172
:105170009C011D9221503040E1F710928004109262
:105180007F04109258061092570610925C061092F7
:105190005B0610925A061092590610925E06109203
:1051A0005D061092600610925F06109262061092E1
:1051B00061061092660610926506109264061092BF
:1051C0006306109268061092670610926A061092A3
:1051D0006906109236061092350610923806109223
:1051E000370690E080E0DF91CF911F910F91FF9003
:1051F000EF90DF90CF9008950097F1F0F894AAEA2D
:10520000B2E0E9E3F6E030E020E04D915D9148172F
:105210005907A8F0428153814115510581F08AE078
:10522000829FF001839FF00D1124E75CF94F80818C
:105230009181009759F4789490E080E008952F5F71
:105240003F4F3A962330310501F7F5CFDC01119637
:105250006D917C91718360834150510953834283E6
:10526000FC012193CF0178940895009749F1DC0166
:105270008E91853041F4E0913706F09138063097F1
:10528000F9F0CD0119948530D8F4282F30E0F89446
:105290008FEF8C938AE0829FF001839FF00D1124A1
:1052A000E75CF94F8081918112969C938E931197C0
:1052B000B183A083828193810196938382837894C2
:1052C0000895CF92DF92EF92FF920F931F93CF93A7
:1052D000DF939C0184E894E08C7F4115510509F42B
:1052E0009BC02115310509F497C06115710509F4BA
:1052F00093C07A01AB01B9016D5F7F4F6C7F9B0159
:105300002F5F3F4F249F8001259F100D349F100D6C
:105310001124F8942091570630915806232B59F404
:1053200020915F06309160062115310569F1201743
:10533000310708F058C02091610630916206232B96
:1053400091F420915F0630916006820F931F2091A7
:10535000690630916A062115310509F441C020170C
:10536000310708F056C07894CFEFDFEF86EF9FEF5C
:10537000F701D183C083DF91CF911F910F91FF90EF
:10538000EF90DF90CF900895C3E0D0E0C0907F040D
:10539000D090800423E331E02C193D092017310718
:1053A00010F32AE02C9FF0012D9FF00D1124E75CF3
:1053B000F94F91838083558344835383428377835A
:1053C000668311870087009709F055DE0C0D1D1DBF
:1053D0001093800400937F04789490E080E0C8CF1D
:1053E000C4E0D0E0D3CFC3E0D0E02AE02C9FF001AE
:1053F0002D9FF00D1124E75CF94F91838083558335
:1054000044835383428377836683009729F333DE93
:10541000E3CFC4E0D0E0E9CF8FEF9FEFACCF9C01AA
:105420000397029708F069C0F89484E09AE0482F47
:1054300050E0241735070CF44DC091E08AE0829FBC
:10544000F001839FF00D1124E75CF94F1182108267
:105450001582148213821282178216829923B1F167
:105460008091570690915806892BA9F420915F06E8
:10547000309160062115310571F080917F04909183
:105480008004821B930B9093800480937F0410927E
:10549000600610925F068091610690916206892BEA
:1054A000A9F42091690630916A062115310571F041
:1054B00080917F0490918004821B930B90938004D1
:1054C00080937F0410926A0610926906789490E0A7
:1054D00080E00895949FF001959FF00D1124E75C02
:1054E000F94F40815181452B31F440855185452B41
:1054F00011F481509CCF90E0A1CF8FEF9FEF0895E2
:105500004115510549F1009739F16115710521F1F6
:10551000F8942091350630913606232BB9F420916A
:10552000370630913806232B89F490933606809302
:1055300035067093380660933706789425E030E09E
:1055400090E080E0FA0131832083089578942FEF72
:105550003FEF86EF9FEFF6CF8FEF9FEF0895059710
:1055600069F4F894109236061092350610923806B7
:1055700010923706789490E080E008958FEF9FEFC7
:1055800008956115710519F4F0E0E0E011C085306F
:10559000910581F4E0913506F09136063097A1F33C
:1055A000CB0101961995009779F3FC0185E0819371
:1055B000CF0108959C01235031092230310520F795
:1055C0002AE0289FD001299FB00D1124A75CB94F74
:1055D0002D913C911197232BB9F216962D913C9168
:1055E00017972617370780F2F89412962D913C9161
:1055F00013972115310529F0ED91FC911197309702
:1056000011F47894C1CF4181528111965C934E93ED
:105610002150310913963C932E93129781937894DD
:10562000C7CFE7EBF5E08EE7DF011D928A95E9F73A
:10563000E1E8F4E086E391E0DF019C011D92215056
:105640003040E1F71092800410927F04E9E3F6E025
:1056500082E3DF011D928A95E9F7E5E3F6E084E055
:10566000DF011D928A95E9F790E080E00895CF93DD
:10567000DF93C091B002D091B102CF3FDC0759F463
:1056800023D49093B1028093B00297FF09C0D093C6
:10569000B102C093B00284EF9FEFDF91CF910895E4
:1056A00090E080E0FACF8230910528F480936B0679
:1056B00090E080E008958FEF9FEF08954F925F9202
:1056C0006F927F92AF92BF92CF92DF92EF92FF9252
:1056D0000F931F93CF93DF931F921F92CDB7DEB727
:1056E0001A821982009709F479C06115710509F4CD
:1056F00075C02091B0023091B10207EF1FEF2F3F2C
:105700003F4F09F445C06B015C01412C512C320123
:10571000F12CE12C10E000E09E012F5F3F4FA6012D
:105720004E195F09B5016E0D7F1D8091B0029091F9
:10573000B1022ED4892B09F04BC089819A81009740
:1057400041F4E114F10429F420916B06222309F4B9
:1057500042C0E80EF91EEC14FD04D0F480E84816AF
:1057600084E858068EE16806710420F560E070E078
:10577000CB010E9444352AE0420E511C611C711C71
:105780000A3F4FEF140721F0043F8FEF1807A1F4F1
:10579000C8010F900F90DF91CF911F910F91FF9053
:1057A000EF90DF90CF90BF90AF907F906F905F9021
:1057B0004F90089501EF1FEF81E090E0013F2FEF40
:1057C000120711F090E080E0892B09F4A5CFE0CF1B
:1057D00004EF1FEFDDCF0AEF1FEFDACF0FEF1FEF60
:1057E000D7CF4F925F926F927F92AF92BF92CF923C
:1057F000DF92EF92FF920F931F93CF93DF931F924D
:105800001F92CDB7DEB71A821982009709F479C0CA
:105810006115710509F475C02091B0023091B10293
:1058200007EF1FEF2F3F3F4F09F445C06B015C01AD
:10583000412C512C3201F12CE12C10E000E09E01B2
:105840002F5F3F4FA6014E195F09B5016E0D7F1DF9
:105850008091B0029091B1024ED3892B09F04BC0D8
:1058600089819A81009741F4E114F10429F420918F
:105870006B06222309F442C0E80EF91EEC14FD0465
:10588000D0F480E4481682E458068FE0680671047C
:1058900020F560E070E0CB010E9444352AE0420E22
:1058A000511C611C711C0E3F4FEF140721F0043F87
:1058B0008FEF1807A1F4C8010F900F90DF91CF91DF
:1058C0001F910F91FF90EF90DF90CF90BF90AF901E
:1058D0007F906F905F904F90089502EF1FEF81E0EF
:1058E00090E0023F2FEF120711F090E080E0892B4B
:1058F00009F4A5CFE0CF04EF1FEFDDCF0EEF1FEFD0
:10590000DACF0FEF1FEFD7CF8091B0029091B102A5
:105910008F3F980749F0D0D2892B49F48FEF9FEF42
:105920009093B1028093B00290E080E0089584EFFC
:105930009FEF0895CF92DF92EF92FF920F931F9304
:10594000CF93DF9321E04115510509F020E041504C
:10595000510921112CC0DC01FB01D12CC12C21E00B
:1059600022C03FEFC31AD30A7D010D911D91E701BB
:10597000EA80FB80E016F106A8F420813181E28004
:10598000F380F182E08233832283ED90FC901197C3
:105990009D0122503109E901F982E88211961C9398
:1059A0000E9320E03296C416D506D8F2D2CFDF91FE
:1059B000CF911F910F91FF90EF90DF90CF900895BE
:1059C000FC01680F791F90E080E0E617F70709F403
:1059D00008952191820F911DF8CF20916C0621111D
:1059E00013C045DE009791F4109272061092710672
:1059F0001092700610926F0610926E0610926D064D
:105A000021E020936C06089584EF9FEF0895AF92F4
:105A1000BF92CF92DF92EF92FF920F931F93CF939B
:105A2000DF93009709F460C04630510508F45CC06C
:105A300020916C06C7EFDFEF222309F449C08C01E7
:105A4000060F171FF801C080D180C114D10409F4DA
:105A50004EC096012A5F3F4F4217530708F447C0D4
:105A60007C01809171069091720693838283B601C6
:105A70006C5F7F4F5801A60EB71EC801A1DFF5016C
:105A80009183808364E070E0C80118DEEC01892B0B
:105A9000F9F481E090E007DEB601C80104960EDE5D
:105AA000EC01892B91F462E070E0C50107DEEC01A6
:105AB000892B59F4C701D9DB809171069091720648
:105AC0000196909372068093710690E080E0EBDD82
:105AD000CE01DF91CF911F910F91FF90EF90DF905A
