:10000000D5C0000004C1000002C1000000C1000012
:10001000FEC00000FCC00000FAC00000F8C00000F4
:10002000F6C00000F4C00000F2C00000F0C0000004
:10003000EEC00000ECC00000EAC00000E8C0000014
:10004000E6C00000E4C00000E2C00000E0C0000024
:10005000DEC00000DCC00000DAC000000C947F2588
:10006000D6C000000C940F280C944528D0C0000086
:10007000CEC00000CCC00000CAC00000C8C0000054
:10008000C6C00000C4C00000C2C00000C0C0000064
:100090000C949B280C94D128BAC00000B8C0000072
:1000A000B6C00000B4C00000B2C00000B0C0000084
:1000B000AEC00000ACC00000AAC00000A8C0000094
:1000C000A6C00000A4C000000C94D8220C942729DC
:1000D0000C945D299CC000000C94B3290C94E92970
:1000E00096C00000010210202008081020401020B7
:1000F00040800201020108040201010204081020EC
:1001000040808040201008040201800402018040E9
:100110002010080402010804020101020408102052
:1001200040800102040810204080050505050705F0
:1001300008080808020202020A0A08080404040463
:10014000010101010101010103030303030303038F
:10015000040707070C0C0C0C0C0C0C0C020202021E
:1001600006060606060606060B0B0B0B0B0B0B0B07
:1001700000002200250028002B002E003100340052
:1001800002010000050108010B010000210024000C
:1001900027002A002D003000330001010000040177
:1001A00007010A016E28FA288629122A11241FBE87
:1001B000CFEFD1E2DEBFCDBF00E00CBF12E0A0E088
:1001C000B2E0EAECF5E500E00BBF02C007900D924B
:1001D000AA3CB107D9F727E0AAECB2E001C01D9212
:1001E000AF3DB207E1F710E0C6EDD0E000E006C099
:1001F00021970109802FFE010E94B22AC23DD1073A
:1002000080E00807A9F70E94DA230C94E32AF8CECD
:10021000CF93DF93882349F0EB0181500E9486261B
:1002200099838883DF91CF910895FB011182108219
:10023000F9CF0F931F938B019C0183E0369527958F
:10024000179507958A95D1F706531D4F462F47708E
:1002500021E030E0F90102C0EE0FFF1F4A95E2F7FE
:10026000AF01F80120812423CB010196211102C0A6
:1002700090E080E01F910F9108950F931F938B01E1
:100280009C0183E036952795179507958A95D1F7B8
:10029000677081E090E001C0880F6A95EAF7F80185
:1002A000E653FD4F2081452B31F4809582238083D6
:1002B0001F910F910895822BFACFCF92DF92EF9288
:1002C000FF92CF93DF936B017C0160E086E3C81659
:1002D000D104E104F10490F486E38C0D0E94A92678
:1002E000E6012196AE01C701B601C7DFCE01DF915D
:1002F000CF91FF90EF90DF90CF9008958C2DEECFAF
:10030000882341F08150682F70E090E080E050E059
:1003100040E0B3CF089590E080E008950F931F93DD
:10032000009709F487C06115710509F483C0009135
:100330000C0210910D0220910E0230910F020E3F1F
:100340001F4F2F4F3F4F09F066C04FEF5FEFBA01CD
:1003500040930C0250930D0260930E0270930F02B3
:1003600040910C0250910D0260910E0270910F02AB
:10037000DC011296ED91FC9180819181A281B38183
:1003800080933D0390933E03A0933F03B0934003BB
:1003900084819581A681B7818093390390933A0334
:1003A000A0933B03B0933C0380859185A285B385E0
:1003B0008093350390933603A0933703B0933803AB
:1003C00084859585A685B785809331039093320304
:1003D000A0933303B093340310922D0310922E0395
:1003E00010922F0310923003D2D48CEE96E09093AB
:1003F000D4028093D3029093D6028093D502B6D3D1
:10040000009731F421E030E0309342032093410320
:100410001F910F91089500910C0210910D022091EF
:100420000E0230910F02DB010D931D932D933C932F
:10043000139796CF8FEF9FEFEBCF8F929F92AF9254
:10044000BF92CF92DF92EF92FF921F93CF93DF93F1
:100450004B015C011091440382E090E090934203D1
:100460008093410381149104A104B10441F480916B
:100470004403811104C080914303C1E08111C0E0B5
:10048000C12CD12C760180914403811106C080914A
:100490004303811102C0CC23D1F083E090E090931C
:1004A000420380934103CC2371F1CCE9DFEF1111BA
:1004B00001C0F6D7CE01DF91CF911F91FF90EF9051
:1004C000DF90CF90BF90AF909F908F9008956AE09B
:1004D00070E080E090E00E94EE2580E1C80E87E2A7
:1004E000D81EE11CF11C8FEF88169806A806B806E6
:1004F00031F0C1E08C149D04AE04BF0408F0C0E0EC
:1005000080E068D3C0CFD0E0C0E0D1CFCF92DF92FF
:10051000EF92FF920F931F93CF93DF938F3F91053D
:1005200011F008F050C02091410330914203233074
:10053000310539F0209141033091420321303105DA
:1005400031F424E030E030934203209341036A0108
:100550007B01EC0182309105A0F011E0AE01C701F2
:10056000B60103D3AB01BC01CE011123F9F0DF9139
:10057000CF911F910F91FF90EF90DF90CF900C944F
:10058000790C8C01000F111F0D521D4FD8018D9158
:100590009C91892B11F30E94830C0297F1F6D801EC
:1005A000ED91FC91CE011995182FD8CF0E949B0C8C
:1005B00090E080E0DF91CF911F910F91FF90EF903D
:1005C000DF90CF9008958FEF9FEFF4CF80E002C3CC
:1005D000CF93DF9386E090E09093420380934103B2
:1005E00052D3EC01E3EDF2E084E0DF011D928A9545
:1005F000E9F7EED61092420310924103CE01DF914B
:10060000CF91089580914303089580912C0308951C
:1006100060930C0270930D0280930E0290930F0270
:1006200090E080E00895CF92DF92EF92FF92CF9317
:10063000DF931F921F92CDB7DEB7C0900002D0901B
:100640000102E0900202F0900302A701960160917E
:10065000D7077091D8078091D9079091DA070E9447
:100660006224882341F0C092D707D092D807E09245
:10067000D907F092DA0766E370E080E090E0D9DD18
:100680009093D6078093D50743E050E0BE016F5F9B
:100690007F4FBEDD2091080230910902A981BA8105
:1006A0000E94BA2A31E196958795779567953A9594
:1006B000D1F76093DB07C0900402D0900502E09070
:1006C0000602F0900702A70196016091CB07709196
:1006D000CC078091CD079091CE070E946224882399
:1006E00041F0C092CB07D092CC07E092CD07F092B8
:1006F000CE0767E370E080E090E09BDD9093CA074F
:100700008093C90743E050E0BE016F5F7F4F80DDFB
:1007100020910A0230910B02A981BA810E94BA2A63
:1007200021E196958795779567952A95D1F76093FE
:10073000DC0760910303709104038091050390919D
:1007400006036F5F7F4F8F4F9F4F6093030370933C
:10075000040380930503909306030E9466249B0183
:10076000AC01609107037091080380910903909197
:100770000A030E94CB246093FF02709300038093CE
:100780000103909302030F900F90DF91CF91FF90A0
:10079000EF90DF90CF900895AF92BF92CF92DF920B
:1007A000EF92FF921F93CF93DF93E9EEF2E080E0A8
:1007B00090E0A0E8BFEB82A393A3A4A3B5A38DEC24
:1007C0009CECACE4BEE3868F978FA0A3B1A38CE42E
:1007D00098ECACE6BCE484839583A683B7838AE86F
:1007E00096E4A2E1BDEA80879187A287B38782ED74
:1007F00094E6A5E3B0E484879587A687B7878AE85F
:1008000097EBAEE6B7EC808B918BA28BB38BADED03
:10081000B2E0B383A283E7EDF2E01196FC93EE938E
:1008200086E392E09183808393838283958384839C
:100830008DEF92E015969C938E9314978DEE92E037
:1008400013969C938E9312978FEF92E017969C933A
:100850008E931697C3ECD7E01C8680E0A82E82E02A
:10086000B82EF50180819181A281B3818C8B9D8B03
:10087000AE8BBF8BC12CD12C7601C394CD86DE8686
:10088000EF86F88A66E370E080E090E016DD9B8BEF
:100890008A8B11E0198B1882F50184819581A681DC
:1008A000B78188879987AA87BB87C982DA82EB825A
:1008B000FC8267E370E080E090E0FFDC9F838E8342
:1008C0001D83DF91CF911F91FF90EF90DF90CF902C
:1008D000BF90AF9008958091CF0781111DC081E036
:1008E0008093CF078091D0079091D107A091D20734
:1008F000B091D3070197A105B10571F48091D40798
:10090000882351F066E370E080E090E092DC909301
:10091000D6078093D507F4DC8091C30781111DC0F1
:1009200081E08093C3078091C4079091C507A0918F
:10093000C607B091C7070197A105B10571F4809171
:10094000C807882351F067E370E080E090E071DC35
:100950009093CA078093C907D3CC08954F925F92B2
:100960006F927F928F929F92AF92BF92CF92DF92BF
:10097000EF92FF920F931F93F89440901C035090B6
:100980001D0360901E0370901F03C0901003D09051
:100990001103E0901203F0901303452B09F0A6C059
:1009A0009B01AC01241935094609570929013A016F
:1009B000009118031091190320911A0330911B0321
:1009C00048015901840C951CA61CB71C8016910681
:1009D000A206B306A0F40091140310911503209110
:1009E0001603309117030F5F1F4F2F4F3F4F009398
:1009F000140310931503209316033093170380926A
:100A0000180390921903A0921A03B0921B0300914D
:100A1000140310911503209116033091170380924F
:100A2000200390922103A0922203B092230300930B
:100A30002403109325032093260330932703609308
:100A40001C0370931D0380931E0390931F03A30147
:100A5000920160E47DE083E090E00E946D2A6C0DDD
:100A60007D1D8E1D9F1D6093100370931103809355
:100A700012039093130300910C0210910D02209128
:100A80000E0230910F020F3F1F4F2F4F3F4FF1F0DB
:100A900000910C0210910D0220910E0230910F0274
:100AA0000E3F1F4F2F4F3F4F89F0C0900C02D09048
:100AB0000D02E0900E02F0900F0221E08C149D04D4
:100AC000AE04BF0408F420E020932C0378941F9117
:100AD0000F91FF90EF90DF90CF90BF90AF909F90DD
:100AE0008F907F906F905F904F9008954B015C01C5
:100AF00084189508A608B708A3019201261B370B96
:100B0000480B590B6415750586059705E0F08216AC
:100B10009306A406B50640F420E030E0A901811454
:100B20009104A104B104A1F460E47DE083E090E0CD
:100B30000E946D2AA7019601261B370B480B590B03
:100B4000CA01B901C3CF82169306A406B50660F7A1
:100B5000A501940160E47DE083E090E00E946D2AAD
:100B60006C0D7D1D8E1D9F1DB1CFF8CECF93DF93F1
:100B700000D01F92CDB7DEB71C821B821A82198269
:100B8000109228031092290310922A0310922B032B
:100B9000BE016F5F7F4FCE0103960E94A92269813B
:100BA0007A818B819C810E949F1B009761F4BE011A
:100BB0006F5F7F4FCE0103960E94B52269817A81D3
:100BC0008B819C812ED50F900F900F900F90DF910D
:100BD000CF910895FF920F931F93CF93DF93082F28
:100BE00060E070E0CB010E94EE25FF24F3940E94A8
:100BF000881AEC01892B89F010E0CE3F8FEFD807DF
:100C000069F0002361F160E070E0CB010E94EE2505
:100C100081E090E0892B59F322C011E025D5EC0149
:100C2000892B21F0CE3F8FEFD80759F711111EC045
:100C300011E0229609F410E00E94381AEC01892B89
:100C400021F0CE3F8FEFD807E1F6111111C011E06E
:100C5000CE3F8FEFD80709F410E001110BC0CE0191
:100C6000DF91CF911F910F91FF90089511E0E4CF94
:100C700011E0F3CF60E070E0CB010E94EE251F256C
:100C8000812F90E0C7CFCF93DF9380912C038823EF
:100C900021F060E070E0CB014CD635D6D0E0C0E06A
:100CA000892B71F06AE070E080E090E00E94EE2510
:100CB00081E090DF28D62196C03D27E0D20781F75A
:100CC00027D60E94F31B1092440310924303109204
:100CD0003D0310923E0310923F0310924003109286
:100CE000390310923A0310923B0310923C03109286
:100CF0003503109236031092370310923803109286
:100D00003103109232031092330310923403109285
:100D10002D0310922E0310922F03109230034EEFEA
:100D20005FEF6FEF7FEF40930C0250930D026093E3
:100D30000E0270930F0210922C03E0E2F3E028E021
:100D4000DF011D922A95E9F710921C0310921D03F2
:100D500010921E0310921F03109218031092190391
:100D600010921A0310921B03109214031092150391
:100D70001092160310921703109210031092110391
:100D80001092120310921303DF91CF9108951092E5
:100D90005003109251031092520310925303109279
:100DA0004F03809158039091590390934E03809381
:100DB0004D0310924C0310924B0310924703109274
:100DC00048031092490310924A031092550310925F
:100DD000540390E080E00895CF92DF92EF92FF926B
:100DE0000F931F93CF938C01892B09F055C020914D
:100DF00058033091590380914D0390914E034091D7
:100E000058035091590350934E0340934D032817B4
:100E1000390781F010924C0310924B031092470354
:100E2000109248031092490310924A0310925503FE
:100E3000109254038091580390915903019761F5E2
:100E40008091540390915503892B21F480911002D5
:100E5000811112C080915403909155030197E1F4E0
:100E60008091470390914803A0914903B0914A03B0
:100E70000197A105B10581F4109247031092480330
:100E80001092490310924A031092100282E090E0FF
:100E90009093550380935403809158039091590384
:100EA000019709F01CC180916E0390916F03801728
:100EB000910709F014C180916A0390916B03A0918E
:100EC0006C03B0916D03009709F409C12091690387
:100ED00021110DC040916A0350916B0360916C0326
:100EE00070916D03452B462B472B09F4F8C02091D8
:100EF0005403309155032230310509F0F0C02091A0
:100F00004B032111ECC0FC01C080D180E280F38052
:100F100080914F03882309F4D3C080915B039091A3
:100F20005C03892B09F4FDC020915B0330915C03C5
:100F300081E02230310509F080E020915B0330919F
:100F40005C03C1E02130310549F020915B03309111
:100F50005C03C1E02230310509F0C0E0882309F4C8
:100F600056C020916503309166034091670350910C
:100F70006803C701B6010E94C72487FD14C02091F1
:100F80006503309166034091670350916803609157
:100F900050037091510380915203909153030E942A
:100FA000622487FD22C02091650330916603409141
:100FB000670350916803C701B6010E94C724181641
:100FC00034F5209165033091660340916703509199
:100FD0006803609150037091510380915203909186
:100FE00053030E946224811112C080915D0390918D
:100FF0005E03A0915F03B0916003892B8A2B8B2B3A
:1010000019F481E080934C0381E080934B03CC235F
:1010100009F456C02091650330916603409167033F
:1010200050916803C701B6010E94622487FF14C073
:1010300020916503309166034091670350916803E6
:10104000609150037091510380915203909153032A
:101050000E94C72487FF22C0209165033091660358
:101060004091670350916803C701B6010E94622452
:10107000811126C02091650330916603409167037A
:101080005091680360915003709151038091520315
:10109000909153030E94C724181694F480915D0325
:1010A00090915E03A0915F03B0916003892B8A2B1E
:1010B0008B2B19F481E080934C0381E080934B03E8
:1010C00081E090914B03911180E080934F03C09297
:1010D0005003D0925103E0925203F0925303012B3C
:1010E00009F067C18091540390915503892BD9F47D
:1010F00010925A0310924B0380911002882379F0CA
:1011000082E090E090935503809354031092100274
:10111000209158033091590381E0232BE9F080E0BE
:101120001BC081E00ACF1092100280915A038823DD
:1011300049F010924C0310925503109254031092F0
:101140005A03EDCF8091580390915903892BE1F018
:1011500080914B0310924B0320915403309155031F
:101160002230310509F45EC088F42115310509F4F7
:1011700048C02130310509F4F3C010924C0310929D
:101180004B0310925A0338C081E0E6CF233031057B
:1011900009F4B1C02430310581F7409147035091E3
:1011A00048036091490370914A0341155105610557
:1011B000710561F04150510961097109409347037C
:1011C000509348036093490370934A034091470347
:1011D000509148036091490370914A03452B462B77
:1011E000472BD9F420915603309157032130310514
:1011F00009F046C010924C0310925503109254030C
:101200000CC080911002882341F082E090E090931E
:10121000550380935403109210021092450380915D
:101220004C03CEC08823C9F380915D0390915E0387
:10123000A0915F03B0916003181619061A061B06E9
:101240000CF07DC08091580390915903019709F0EB
:1012500076C080915D0390915E03A0915F03B09191
:1012600060038093470390934803A0934903B0938E
:101270004A0383E090E09093550380935403CDCFCD
:101280004091610350916203609163037091640324
:10129000452B462B472BA9F010924C0380916103FC
:1012A00090916203A0916303B0916403809347031C
:1012B00090934803A0934903B0934A0381E090E0E0
:1012C000DACF882399F08091110290911202A091B7
:1012D0001302B09114028093470390934803A093A4
:1012E0004903B0934A0384E090E0C5CF10924C03C9
:1012F00082E090E0C0CF8091470390914803A09195
:101300004903B0914A030097A105B10559F001972F
:10131000A109B1098093470390934803A09349031F
:10132000B0934A038091470390914803A0914903E9
:10133000B0914A03892B8A2B8B2B09F06ECF8091B9
:10134000110290911202A0911302B0911402892B04
:101350008A2B8B2B09F44ECF81E080934C03B3CFC3
:1013600040914703509148036091490370914A03AB
:10137000411551056105710561F04150510961093F
:101380007109409347035093480360934903709356
:101390004A0340914703509148036091490370917B
:1013A0004A03452B462B472B09F037CF8111C7CF76
:1013B0009FCF80914503882309F431CF8091460364
:1013C000CF911F910F91FF90EF90DF90CF900895F4
:1013D0001092500310925103109252031092530333
:1013E00010924F03109255031092540310924E0323
:1013F00010924D0310926F0310926E0310924C03E3
:1014000010924B0310924703109248031092490325
:1014100010924A03109246031092450310926A03F9
:1014200010926B0310926C0310926D03109269037B
:10143000109265031092660310926703109268037E
:1014400088EE93E0A0E0B0E0809311029093120246
:10145000A0931302B09314021092610310926203DE
:10146000109263031092640310925D0310925E0366
:1014700010925F031092600310925C0310925B0362
:1014800081E08093100210925A0310925903109237
:101490005803109257031092560390E080E008958D
:1014A0008091580390915903892B19F5809110026E
:1014B000882351F080915A03811106C081E0809306
:1014C000460380934503089520915A0330911002FA
:1014D00081E090E0332311F090E080E030E082235F
:1014E0009323892B21F01092460381E0EACF1092DA
:1014F0004503089582E090E0FA01918380838FEFA5
:101500009FEF0895CF93DF93EA01009711F00E94B7
:10151000101D1982188290E080E0DF91CF9108952C
:10152000DB01009719F48FEF8C9308952EEF2C9325
:10153000FC013F96EF30F10508F034C08827EC55E8
:10154000F54F8F4F0C94B22AD00ACE0ACC0ACA0AA1
:10155000C80AC40AC60AC20AC00ABE0ABB0AB70A37
:10156000B30AB90AD20A80E311968C93089589E2EE
:10157000FBCF82E2F9CF11961C92089583E2F4CF5B
:1015800081E2F2CF81E1F0CF87E2EECF8AE2ECCFC9
:1015900080E1EACF84E2E8CF88E2E6CF86E2E4CFDA
:1015A00081E3E2CF80E2E0CF80917C0390917D03E4
:1015B000089590937D0380937C03089580917B032D
:1015C000089590917B03892B80937B030895982F36
:1015D000909580917B03892380937B03089580916C
:1015E0007A030895809178039091790308956115A5
:1015F000710559F0FB0130E020E070E060E0241755
:10160000350719F06115710511F0CB010895A0811E
:10161000B181A817B90709F4BF012F5F3F4F369674
:10162000EECF80917E0381111CC060D266D2909370
:101630007103809370030E9411150E9423159093EB
:101640007503809374030E94A0190E94A7199093B8
:1016500073038093720381E080937E0390E080E0C7
:10166000089584EF9FEF08958F929F92AF92BF925B
:10167000CF92DF92EF92FF920F931F93CF93DF935E
:1016800000D000D000D01F92CDB7DEB71A861986E1
:1016900018861F821E821D821C821B821A8219825A
:1016A00080917E0307EF1FEF882309F49CC08E0111
:1016B0000D5F1F4F9E012B5F3F4FAE01495F5F4F94
:1016C000BE01675F7F4F90E080E00E94241B8C0189
:1016D000009721F00596029708F0DBC029853A852E
:1016E0002115310509F402C1ED80FE804B815C813A
:1016F000B701640F751F8F8198858617970708F4C7
:10170000F5C0E20EF31ED7019C91903C09F07FC01A
:101710004230510508F47BC011968C9140917C03B6
:1017200050917D03452B09F49CC0913F08F071C096
:101730002CE1290F2D3008F48BC02DE2290F203128
:1017400008F489C0903C21F48150823008F483C0B1
:1017500088E3890F8B3008F481C090E9C92E9AE0A4
:10176000D92EEAE7FAE06D817E81AE014F5F5F4FCF
:1017700089859A8519955C01C114D104A1F18980EC
:101780009A808114910479F18B819C818815990547
:1017900008F487C010E000E04B815C8170E060E0FD
:1017A000C7010E94DC2A01151105E9F449815A811B
:1017B00069857A858D819E81680F791FC501F60143
:1017C0001995E980FA800D811E812F813885498520
:1017D0005A856FEF7FEF81E090E00E94BF1A8C0185
:1017E000892B09F056C0C8012A960FB6F894DEBFBF
:1017F0000FBECDBFDF91CF911F910F91FF90EF9062
:10180000DF90CF90BF90AF909F908F90089580E031
:1018100085CF30E020E0220F331FF901E059FC4F63
:101820000190F081E02D309709F497CF892F90E057
:101830001995009709F491CFDC011296ED91FC9176
:1018400013971496CD90DC90309709F08CCF1FC081
:1018500021E030E0E0CF22E030E0DDCF23E030E0F7
:10186000DACFD12CC12CE2E8FAE09F3F09F07BCF20
:10187000E0917003F0917103309721F4C90104EFF6
:101880001FEF0CC08FEF90E019950097A9F604EFB9
:101890001FEF89859A85009709F4A5CF0E94101D36
:1018A000A2CF0E94EE1B8C0189859A850E94101D93
:1018B00070E060E0C4010E94871B98878F830E94BC
:1018C000BC1A9E838D836F8178856115710559F0EF
:1018D000C8010E949C1E9A87898706EF1FEF892BFB
:1018E00009F058CF59CF08EF1FEF56CF08EF1FEF81
:1018F000D0CF20917E03222319F020E00C942815EC
:1019000087EF9FEF089580917C0390917D03089568
:101910000E94AC190E940619F5D0E0E7F3E088E0D8
:10192000DF011D928A95E9F710927E0390E080E036
:1019300008950C94641721E040E050E0BA010C9443
:10194000281586E090E0FA019183808390E080E0A2
:10195000089547E050E069E372E049CEDF92EF92EC
:10196000FF920F931F93CF93DF938A01EC01C60F71
:10197000D71FE0908203F0908303D9800E94D61B8A
:10198000D816190678F082E090E0F8019183808300
:101990008EEF9FEFDF91CF911F910F91FF90EF900E
:1019A000DF900895EF2841F482E090E0F801918300
:1019B000808384EF9FEFEECF89818093810390E055
:1019C0000196F8019183808390E080E0E3CFCF938C
:1019D000DF93EA010E941518882321F00E94E31B7F
:1019E0000E94161882E090E0998388838BEF9FEF26
:1019F000DF91CF910895CF93DF93EB0186E0FB0158
:101A000011928A95E9F78FEF8883D8DD8983E7DD26
:101A10008A83E8DD9D838C83DF91CF910895CF93F6
:101A2000DF93EA010E941818811109C082E090E05A
:101A30009983888385EF9FEFDF91CF91089590E0A0
:101A400080E0B7DD81E090E09983888390E080E0DA
:101A5000F3CF0F931F93CF93DF93EA018C01060F0F
:101A6000171F0E94181881110BC082E090E0998323
:101A7000888385EF9FEFDF91CF911F910F9108959C
:101A8000F8018181823038F082E090E09983888388
:101A90008EEF9FEFF0CF81E090E08BDD88E090E06B
:101AA0009983888390E080E0E6CFCF93DF9300971F
:101AB000D1F4EB01FB01329686E0DF011D928A959D
:101AC000E9F78FEF888385E089831A820E94D61B0D
:101AD0008B830E94D51B9D838C8381E08E838F83B3
:101AE000DF91CF910895DF91CF911ACD89EA9CE0E3
:101AF0009093800380937F03089580917F0390915A
:101B0000800308951092800310927F0308958091BE
:101B10008203909183030895411105C061157105F9
:101B20008105910561F06093820370938303809334
:101B30008403909385034093860381E0089580E0B9
:101B40000895FF920F931F93CF93DF938A01EC01C7
:101B5000C60FD71FF9800E94D61BF816190668F029
:101B600082E090E0F801918380838EEF9FEFDF9118
:101B7000CF911F910F91FF9008956C817D818E818F
:101B80009F814B81C9DF811108C082E090E0F8019C
:101B90009183808384EF9FEFEACF898180938103D3
:101BA00090E00196F8019183808390E080E0DFCFA0
:101BB000CF93DF93EA01FC01E60FF71F6481758183
:101BC000868197814381A8DF811109C082E090E07E
:101BD0009983888384EF9FEFDF91CF91089581E00F
:101BE00090E09983888390E080E0F6CFE2E8F3E02C
:101BF0004081518162817381480F511D611D711DAA
:101C000040835183628373830895CF93C09181038E
:101C10004C2F50E0609182037091830301960E94E3
:101C2000D32A8C2FE3DF10928103CF910895009780
:101C300099F480918203909183032FEFFB0120831D
:101C4000892B59F02091810330E02F5F3F4F2417FB
:101C5000350719F4CB01D9CF63CC0895009799F4D7
:101C600080918203909183032FEFFB012083892BC6
:101C700059F02091810330E02F5F3F4F2417350743
:101C800019F4CB01C2CF4CCC089523E1AC01249FC1
:101C9000C001259F900D1124E0918B03F0918C03DE
:101CA000E80FF91F238134812250310981E022306D
:101CB000310508F080E008950F931F93CF93DF93D1
:101CC00000918D0310918E03D0E0C0E080E00C17EE
:101CD0001D0749F491E0811190E0892FDF91CF91A8
:101CE0001F910F9108958111F5CFCE01CEDF21967E
:101CF000EECFA0918B03B0918C03109729F1209126
:101D00008D0330918E0382179307F0F453E1589FAF
:101D10009001599F300D1124A20FB31FED91FC913A
:101D20001197309789F012968C91681768F48DE0BE
:101D3000689FE00DF11D112480819181892B21F094
:101D400081E09281491708F080E008959C0143E109
:101D5000429FC001439F900D1124E0918B03F091AD
:101D60008C03E80FF91F8385823091F481E090E0C5
:101D700065817681409115025091160264177507AE
:101D800011F490E080E0892B19F081E0232B09F019
:101D900080E00895FC01A081B1818DE0689FA00DD5
:101DA000B11D112413964D915C9185859685489FB0
:101DB0009001499F300D589F300D1124C9010196A3
:101DC000611103C0478144FD04960895EF92FF928C
:101DD0000F931F93CF93DF93EA01FC01E60FF71FE8
:101DE00002811381E480F5804F2D6E2DC80181DFC3
:101DF00081110DC082E090E0998388838EEF9FEF80
:101E0000DF91CF911F910F91FF90EF900895C8013E
:101E10003CDF882339F082E090E09983888388EF63
:101E20009FEFEECF10931C0200931B02E0921D0265
:101E3000F0921E0281E090E09983888390E080E038
:101E4000DFCFCF92DF92EF92FF920F931F93CF934A
:101E5000DF937A01EC01C60FD71FC0901B02D09010
:101E60001C0200911D0210911E02412F602FC6011D
:101E700040DF811110C082E090E0F7019183808300
:101E80008AEF9FEFDF91CF911F910F91FF90EF901D
:101E9000DF90CF900895C601F8DE882341F082E0FC
:101EA00090E0F7019183808388EF9FEFEBCF4C8127
:101EB0005D816E817F819A8189818F3F41F082E0CF
:101EC00090E0F701918380838EEF9FEFDBCFE3E11A
:101ED000EC9D9001ED9D300D1124E0918B03F0916C
:101EE0008C03E20FF31F0190F081E02D2DE0029FA3
:101EF000E00DF11D11240190F081E02D27E0129FEB
:101F0000E00DF11D1124808391838B8182834383B3
:101F10005483658376831F5F10931E0281E090E0F7
:101F2000F7019183808390E080E0ACCFEF92FF9245
:101F30000F931F93CF93DF937A018C01060F171F26
:101F4000C0918B03D0918C03209781F021E030E089
:101F5000F8018281938140918D0350918E03841703
:101F6000950710F030E020E0232B71F482E090E040
:101F7000F701918380838EEF9FEFDF91CF911F91C7
:101F80000F91FF90EF90089543E1489F9001499F82
:101F9000300D1124C20FD31F78DE882341F082E078
:101FA00090E0F7019183808388EF9FEFE6CFF801FF
:101FB0002481358120383105C8F687818111D6CF3B
:101FC0004181842F90E08F7E009741F082E090E085
:101FD000F7019183808386EF9FEFCFCF4F833E83BE
:101FE0002D83268128871986223010F421E0288746
:101FF00021E030E0F70131832083BFCF88E090E01B
:10200000FA019183808390E080E00895FB018FEFD7
:10201000808381E181838FEF9FEF9383828380E8C8
:1020200090E095838483168217820895FB018FEFD9
:10203000808391E0918382839383848384E3858387
:1020400081E090E0978386830895DF92EF92FF927C
:102050000F931F93CF93DF93EA01FC01E60FF71F65
:102060008181813071F082E090E0998388838FEFE5
:102070009FEFDF91CF911F910F91FF90EF90DF9035
:10208000089582819381D4802581E680F780009134
:102090008B0310918C030115110539F482E090E057
:1020A000998388838CEF9FEFE4CF40918D0350910B
:1020B0008E038417950738F082E090E09983888337
:1020C0008EEF9FEFD6CF892B39F082E090E0998395
:1020D000888386EF9FEFCDCF8D2D8D7FB1F7213097
:1020E000A1F781E0D11006C091E0E916F10431F0CA
:1020F00080E004C0E2E0EE16F104D0F3882329F377
:1021000090E080E0C2DD882339F082E090E099839E
:10211000888388EF9FEFADCFF801D38681E0848775
:10212000F686E586108A178681E090E09983888399
:1021300090E080E09ECF4CE050E063E672E057CA4A
:102140008F929F92BF92CF92DF92EF92FF920F9366
:102150001F93CF93DF93EA01FC01E60FF71F828103
:1021600093810481B580E0918B03F0918C033097CB
:1021700091F482E090E0998388838CEF9FEFDF9168
:10218000CF911F910F91FF90EF90DF90CF90BF9074
:102190009F908F90089520918D0330918E03821728
:1021A000930738F082E090E0998388838EEF9FEF69
:1021B000E6CF23E1289F6001299FD00C1124EC0D6C
:1021C000FD1DE080F180E114F10499F2828108178D
:1021D00048F78DE0089F80011124E00EF11EF70101
:1021E00080819181892B29F6BB20E1F2F7E0BF9E27
:1021F00040011124C4010E94D71CF7019183808300
:10220000E0918B03F0918C03EC0DFD1D0190F081AA
:10221000E02DE00FF11F80819181009739F482E079
:1022200090E0998388838DEF9FEFA9CFA40170E0A0
:1022300060E00E94DC2A80918B0390918C03C80E91
:10224000D91EF60180819181080F191FF801B28211
:1022500081E090E09983888390E080E090CFAF9216
:10226000BF92CF92DF92FF920F931F93CF93DF9392
:10227000EA01FC01E60FF71F82819381F48000914F
:102280008B0310918C030115110581F482E090E01D
:10229000998388838CEF9FEFDF91CF911F910F91EE
:1022A000FF90DF90CF90BF90AF90089520918D0365
:1022B00030918E038217930738F082E090E0998383
:1022C00088838EEF9FEFE8CF2FEF2F0D2C3FA8F7DD
:1022D00023E1289F6001299FD00C11240C0D1D1DA6
:1022E000F80180819181892B89F6FDE0FF9E5001E4
:1022F0001124C5010E94D71CF80191838083E091CD
:102300008B03F0918C03EC0DFD1D80819181009772
:1023100039F482E090E0998388838DEF9FEFBCCF02
:10232000A50170E060E00E94DC2AE0918B03F0914F
:102330008C03EC0DFD1DF28281E090E0998388838F
:1023400090E080E0A9CFCF92DF92EF92FF920F93BF
:102350001F93CF93DF93860F971FFC010281138198
:1023600080918B0390918C03892B81F082E090E027
:10237000FA01918380838CEF9FEFDF91CF911F91C2
:102380000F91FF90EF90DF90CF900895C801B0E0DB
:10239000A0E00197A109B1098F3F9F4FA105B105A9
:1023A00040F082E090E0FA01918380838EEF9FEF0E
:1023B000E4CF7A0183E1809F6001819FD00C1124DA
:1023C000C6010E94D71CEC01009741F482E090E026
:1023D000F701918380838DEF9FEFCFCFA60170E04F
:1023E00060E00E94DC2AD0938C03C0938B0310938F
:1023F0008E0300938D0390E080E02FEF3FEF41E0EC
:1024000061E070E08017910741F481E090E0F7010E
:102410009183808390E080E0B0CF3A8B298B1B863C
:102420004C877E876D87188A1F8601966396EACF50
:10243000EF92FF921F93CF93DF93EC0110E0F12C0A
:10244000E12C6A811617B0F083E0689FB001112477
:10245000AE014F5E5F4FC7010E943C1D009721F007
:102460002FEF3FEF3A8B298BDF91CF911F91FF9098
:10247000EF900895612FCE018DDC61E070E00E9445
:10248000871BE816F90608F47C011F5FDACFF89481
:102490002091890330918A0381E02115310509F0EB
:1024A00080E0232B09F0789408952F923F924F9269
:1024B0005F926F927F928F929F92AF92BF92CF92D4
:1024C000DF92EF92FF920F931F93CF93DF933C0124
:1024D000660E771EF301828193814C01B12CA12CF1
:1024E000C0918B03D0918C03209769F021E030E0FC
:1024F00060918D0370918E038617970710F030E07E
:1025000020E0232BD1F482E090E0FA0191838083D4
:102510008EEF9FEFDF91CF911F910F91FF90EF9082
:10252000DF90CF90BF90AF909F908F907F906F90F3
:102530005F904F903F902F90089580921F0290924D
:102540002002A0922102B092220263E1689F9001D2
:10255000699F300D1124C20FD31FF3018181833095
:1025600040F082E090E0FA019183808386EF9FEF54
:10257000D1CF2A012B813C81232BF1F42881398191
:102580009F8191FF2EC0232B09F46FC020919003EF
:102590009A81422F490F5527551FBA0141E050E05B
:1025A0006138710514F050E040E0452B09F45DC03E
:1025B0002A87920F909390038150823008F481C053
:1025C00066DF882309F4D8C0F3018181813009F4E2
:1025D0008DC008F47BC0823009F4C6C090E080E072
:1025E000ADC0232B09F441C020918F039A81E22FC3
:1025F000E90FFF27FF1F41E050E0ED3FF10514F028
:1026000050E040E0452B89F12A87920F90938F0389
:10261000D3CFA081B181A20FB31F11966C91060F89
:10262000111D0196295F3F4F8417950794F38D85FF
:102630009E85089F1001099F300C189F300C1124B3
:10264000C114D104D1F48F8184FF17C00E94D51B1F
:10265000F5E02F0E311C21E08215930508F420E0EF
:10266000A701435F5F4F21110EC082E090E0F201AD
:102670009183808387EF9FEF4DCF0E94D51B2FEF73
:10268000221A320AE8CF88819981E80EF91EF701F3
:1026900014830383FFEFCF1ADF0A7A018A818C1536
:1026A0001D0409F00CF48CCFE881F981EE0DFF1DBB
:1026B000428150E030E020E010E000E090E080E077
:1026C000B3CFF12CE12CD12CC12CE8CF81E090E0EC
:1026D0009C838B83F1DA882309F480CF81E090E03A
:1026E0000E94D90A80E40E94E70A78CF89899A89F2
:1026F000019661F083E090E09C838B8382E090E020
:102700000E94D90A80E40E94E10A68CF8D819E81EF
:10271000209115023091160282179307D1F460912F
:10272000190270911A02AE014F5E5F4F809117023D
:10273000909118020E945B1E0097E1F2789422E0CB
:1027400030E0F20131832083892B99F08DEF9FEFE8
:10275000E1CE89288A288B2869F6892B59F6CE0183
:1027600067DE188A1F86E8CF82E090E09C838B8327
:1027700035CF90E080E0CECE82E090E0F201918310
:10278000808385EF9FEFC6CE8F929F92AF92BF92CC
:10279000CF92DF92EF92FF920F931F93CF93DF932D
:1027A000EA018C01060F171FF8018181833098F030
:1027B00082E090E09983888386EF9FEFDF91CF914D
:1027C0001F910F91FF90EF90DF90CF90BF90AF904F
:1027D0009F908F90089580918B0390918C03892B0B
:1027E00061F081E090E020918D0330918E03232BE6
:1027F00011F490E080E0892B39F482E090E0998335
:1028000088838EEF9FEFDACF42DE882309F4DFC0A2
:10281000F8018181813009F495C0E8F0823099F4A3
:1028200020918D0330918E03E0918B03F0918C0306
:1028300090E080E041E050E02817390709F0BDC082
:102840003BDA811117C0789481E090E09983888306
:1028500090E080E0B3CF20918D0330918E03E09122
:102860008B03F0918C0390E080E041E050E028176A
:10287000390741F481E090E00E94D90A80E40E9487
:10288000E70AE1CF63817481672B11F0548343839E
:1028900001967396ECCFE0918B03F0918C03E00FDF
:1028A000F11F2381348122303105D9F42189328905
:1028B0002F3F3F4FB1F42581368140911502509151
:1028C00016022417350761F5AF014F5E5F4F609127
:1028D000190270911A0280911702909118020E94B9
:1028E0005B1EEFEFCE1ADE0AEE0AFE0A0D5E1F4FE8
:1028F00040918D0350918E0370E060E0C416D506C0
:10290000E606F7063CF5009731F27894892B09F436
:102910009BCF82E090E0998388838DEF9FEF4ECF2D
:10292000C114D104E104F104E1F6232BD1F6CF0167
:102930007FDDE0918B03F0918C03E00FF11F108A93
:102940001786CFCF10E000E090E080E0C12CD12CC2
:102950007601CECF0097C9F610E000E0812C912CD3
:10296000540183E0E82EF12C1AC0E0918B03F09122
:102970008C03E00FF11F83819481029749F4F48264
:10298000E38282E090E00E94D90A80E40E94E10A9A
:10299000FFEF8F1A9F0AAF0ABF0A0D5E1F4F80918B
:1029A0008D0390918E03B0E0A0E088169906AA06E8
:1029B000BB06DCF290E080E0A8CF638174816230D6
:1029C000710511F4548343830196739635CF82E0E9
:1029D00090E09983888385EF9FEFF0CE0097B9F45C
:1029E0008FEFFB01808320911F023091200243E191
:1029F000429FC001439F900D1124E0918B03F09101
:102A00008C03E80FF91F8285FB01818308950C94E4
:102A1000900A88E090E0FA019183808390E080E062
:102A2000089510928A0310928903EBE8F3E086E0A0
:102A3000DF011D928A95E9F78BE990E19093880375
:102A40008093870308958091870390918803089568
:102A50002F923F924F925F926F927F928F929F92AE
:102A6000AF92BF92CF92DF92EF92FF920F931F939C
:102A7000CF93DF93CDB7DEB72F970FB6F894DEBFB5
:102A80000FBECDBFF894E0918903F0918A0331968F
:102A9000F0938A03E0938903789440908B035090DD
:102AA0008C034114510409F40CC2E0918D03F091A0
:102AB0008E03EF2B09F405C22D8749875A876B8750
:102AC0007C8798878F831201B12CA12C10E000E045
:102AD00080918D0390918E03A816B90618F4011504
:102AE000110529F1F8948091890390918A03019747
:102AF00090938A03809389037894C8012F960FB628
:102B0000F894DEBF0FBECDBFDF91CF911F910F9123
:102B1000FF90EF90DF90CF90BF90AF909F908F90FD
:102B20007F906F905F904F903F902F90089571012C
:102B3000E418F508D10117968C91179781FD54C0C0
:102B400013968D919C911497039709F04DC015969B
:102B50008D919C91EF81F8858E179F0709F044C0F5
:102B6000B50190E080E07FD48A8320918B0330917F
:102B70008C033D832C833D85332309F44CC04C8169
:102B80005D81452B09F49AC180918D0390918E034C
:102B9000A816B90608F092C1C501D8D88823E9F073
:102BA0006C817D816E0D7F1D7D836C83DB011F96A3
:102BB0008D919C91892B89F0D12CC12CF12CE12C89
:102BC000AC81BD8112968C9112978E151F0409F06D
:102BD00094F450961C921E921F972A81222321F072
:102BE000B50190E080E041D43FEFA31AB30A43E17E
:102BF000240E311C6DCFAC81BD81ED91FC91EC0DAB
:102C0000FD1D858196810CD7BFEFEB1AFB0AEDE025
:102C1000CE0ED11CD5CFEC81FD81309709F44EC189
:102C200080918D0390918E03A816B90608F046C1D5
:102C3000EE0DFF1DFF87EE87C50188D88B838823A3
:102C400039F1AE85BF851F968D919C915097019665
:102C500021E01D964D915C918417950709F020E0C5
:102C60002E831982712C10E000E0AE85BF8512968C
:102C70008C91781608F45DC0EE85FF858785908974
:102C80000196658576850E947C2A908B8787A5CFE3
:102C9000B1E0BE83E6CF992493946BC088D6F60149
:102CA0009683858382C0D601ED90FC90B7E06B9E41
:102CB000E00CF11C1124F7016381748180818F3F46
:102CC00061F121E030E002C0220F331F8A95E2F764
:102CD000C901092E000CAA0BBB0BFB0140815181DD
:102CE0006281738184239523A623B72321E0892B56
:102CF0008A2B8B2B09F420E0D4012C93D701119659
:102D00008C91F60123853485820F932F911D880EB7
:102D1000991E1486138663949BC0418150E0C401C0
:102D20000E94D32AEBCF998206EF1FEFC5C019820C
:102D3000C3C0F981F111A0CFEDE07E9E7001112496
:102D4000AE85BF85CD90DC90CE0CDF1C15D49D8365
:102D50008C83BB81BB2309F49ECF81E0EE85FF8588
:102D600027853089232B09F080E0982E882309F4E9
:102D700058C0672D8E859F850DD8D60118969C93D7
:102D80008E93179761E070E0C2D4EE85FF852189AC
:102D900032892F3F320709F481CFBC01C901CCD75A
:102DA000D60116969C938E931597D60115968D9104
:102DB0009C911697009709F4B6CFEC81FD818E0F98
:102DC0009F1F1A969C938E931997AE85BF85ED91A0
:102DD000FC911197EE0EFF1EF701218532851486B6
:102DE00013861A968C91870DD9018D93711016C098
:102DF000EE85FF85878184FF11C049855A856B85E3
:102E00007C85F9014183528363837483F701838551
:102E100094850496A80FB91F14861386F701B2870C
:102E2000A187D60115968D919C911697892B09F44F
:102E300043C0EE85FF8525813681809115029091F2
:102E400016022817390779F019968D909C90612CFD
:102E5000D60112968C911297681608F424CF1A9610
:102E60009C928E921997BE81BB2309F460CF61E0DA
:102E700070E0F601878190854AD4D6011796ED90CF
:102E8000FC90189715964D915C91E1E0F0E0BA81C5
:102E9000BB2311F0F0E0E0E00C811D819C01B50145
:102EA000882799278E1B9F0B6AD38C01892B21F0D1
:102EB000F60185819681B4D57394D7CE0FEF1FEFBD
:102EC0008CCE10E000E00ECE2F923F924F925F9298
:102ED0006F927F928F929F92AF92BF92CF92DF922A
:102EE000EF92FF920F931F93CF93DF9380918B0309
:102EF00090918C0310E000E0892BA9F0C8DA0AEF6A
:102F00001FEF882381F020908D0330908E03C091B5
:102F10008B03D0918C03D12CC12C10E000E02C1439
:102F20003D04A9F47894C801DF91CF911F910F91CE
:102F3000FF90EF90DF90CF90BF90AF909F908F90D9
:102F40007F906F905F904F903F902F900895C601B3
:102F50000E94A60E882309F18B819C810397E9F4D6
:102F60008F859889892BC9F0B60190E080E07BD2EB
:102F700021E030E0882311F030E020E044245524A3
:102F8000421A530AB12CA12C912C812C8A818815CC
:102F9000190409F038F4188A1F864FEFC41AD40AAE
:102FA0006396BDCFE881F981EA0DFB1D858196818D
:102FB000892BA1F161E070E087819085A8D33C0165
:102FC000DBD28C01E881F981EA0DFB1D81859285B8
:102FD00025813681200F311FAC01421B530B9A0112
:102FE00047815085421B530B70E060E00E94DC2A51
:102FF000E881F981EA0DFB1DE780F0844581568167
:103000009301B601C201BBD28C01892B39F0E88152
:10301000F981EA0DFB1D8581968102D55FEF851A46
:10302000950A8DE0A80EB11CB1CF31CA78940895ED
:103030002F923F924F925F926F927F929F92AF92A8
:10304000BF92CF92DF92EF92FF920F931F93CF9395
:10305000DF9300D000D0CDB7DEB700918B03109185
:103060008C03992493940115110509F43EC0A09096
:103070008D03B0908E030BDA982E8823B1F1109255
:103080008C0310928B0310928E0310928D0310927A
:103090008F03109290038FEF9FEFDC0180931F024C
:1030A00090932002A0932102B093220278947FD3C0
:1030B0001E830D83C12CD12C7601C501B0E0A0E0A8
:1030C00089839A83AB83BC8322242A94322C8981FE
:1030D0009A81AB81BC81C816D906EA06FB06F4F0DA
:1030E000C8019ED480E40E94E70A892D26960FB677
:1030F000F894DEBF0FBECDBFDF91CF911F910F912E
:10310000FF90EF90DF90CF90BF90AF909F907F9017
:103110006F905F904F903F902F900895AD81BE814A
:1031200015968D919C91169720911502309116025B
:1031300082179307D1F451968D919C91EBD5ED8137
:10314000FE8180819181B12CA12C412C512C320126
:10315000892B89F5BFEFCB1ADB0AEB0AFB0AED815D
:10316000FE817396FE83ED83B2CFC114D104E104D6
:10317000F10429F7892B19F7ED81FE818189928964
:103180008F3F980709F026D5AD81BE8152963C92BB
:103190002E925197D4CF8A0D9B1DDC018D919C916D
:1031A000009709F03DD4BFEF4B1A5B0A6B0A7B0A0C
:1031B000EDE0AE0EB11CAD81BE818D919C91119759
:1031C00012964C9150E070E060E044165506660699
:1031D00077060CF325D4BECFCF93DF93EA0128DF27
:1031E000811109C082E090E09983888385EF9FEF89
:1031F000DF91CF91089581E090E00E94D90A81E0AB
:1032000090E09983888390E080E0F2CF11DF109204
:10321000880310928703089542E050E06BEA72E061
:103220000C94F70AFF920F931F93CF93DF938A01B9
:10323000EC01C60FD71FF980B9D20897F816190606
:1032400071F068F082E090E0F801918380838EEF66
:103250009FEFDF91CF911F910F91FF9008956C81A7
:103260007D818E819F814B810E948C0D811108C0D0
:1032700082E090E0F8019183808384EF9FEFE9CFB3
:10328000F9800E94870D4F2D50E0BE01685F7F4F8F
:103290000E94D32A89810E94F60D81E090E0F80116
:1032A0009183808390E080E0D4CFDF92EF92FF9211
:1032B0000F931F93CF93DF938A01EC01C60FD71FA3
:1032C0000E94870D7C01D98071D2DD2059F00297D0
:1032D00021E030E0D816190619F010F030E020E0B7
:1032E000232B79F482E090E0F801918380838EEFC4
:1032F0009FEFDF91CF911F910F91FF90EF90DF90A3
:103300000895EF2841F482E090E0F80191838083F2
:1033100084EF9FEFEECFF9800E94870D4F2D50E094
:10332000BE016E5F7F4F0E94D32A89810E94F60DF5
:1033300081E090E0F8019183808390E080E0D9CF34
:103340008CE099E19093920380939103089580918A
:1033500091039091920308950895FC0111821082C7
:10336000938382830895DB011D921C92DC011296E7
:10337000ED91FC9113977183608313967C936E9308
:1033800012970895FC0180819181DB018D939C93BC
:10339000A081B181109741F08D919C9191838083A0
:1033A000892B11F4F383E2830895FC0180819181DC
:1033B000DB018D939C93892B11F47383628371835A
:1033C00060830895FC0111821082938382830895A3
:1033D000CF93DF931F921F92CDB7DEB71A82198267
:1033E000F894BE016F5F7F4F88E993E0CBDF89815E
:1033F0009A81009709F014D389819A81892B89F7E2
:10340000BE016F5F7F4F8CE993E0BCDF89819A81B9
:10341000009709F005D389819A81892B89F77894DF
:103420000F900F90DF91CF910895CF93DF931F926C
:103430001F92CDB7DEB71A821982F894BE016F5F72
:103440007F4F84E993E09EDF89819A81009709F09C
:10345000E7D289819A81892B89F778940F900F9010
:10346000DF91CF91089581E0089590E080E0089584
:10347000EF92FF920F931F93CF93DF931F921F92B0
:10348000CDB7DEB71A8219828091930307EF1FEF41
:103490008823A1F1F894BE016F5F7F4F8CE993E020
:1034A00071DF789489819A81EE24E394F12C892B41
:1034B00051F4F894BE016F5F7F4F88E993E062DFBB
:1034C0007894F12CE12C89819A810EEF1FEF0097FF
:1034D000A9F0FC014281538164E070E06ED68C015A
:1034E000892B61F0F89469817A81C701880F991F4F
:1034F000880F991F88569C4F58DF7894C8010F9009
:103500000F90DF91CF911F910F91FF90EF90089551
:103510000F931F93CF93DF9300D01F92CDB7DEB7E9
:103520001C821B821A8219828091930307EF1FEF7E
:103530008823C1F0AE014D5F5F4F64E070E0CE01C3
:103540000196AED68C01892B69F4E981FA818B81D1
:103550009C8193838283F89469817A8184E993E0E2
:1035600002DF7894C8010F900F900F900F90DF91B9
:10357000CF911F910F910895B3D7049608958F921C
:103580009F92AF92BF92CF92DF92EF92FF920F93F2
:103590001F93CF93DF931F921F92CDB7DEB71A828E
:1035A0001982BC016F5F7F4F6330710598F0AA24C8
:1035B000AA94BA2CC5010F900F90DF91CF911F9163
:1035C0000F91FF90EF90DF90CF90BF90AF909F90C2
:1035D0008F9008954115510551F3480159018A0111
:1035E0006C01CADF8815990511F7E114F104F9F2AD
:1035F0008E0D9F1DA816B906D0F2809193038823E3
:10360000F1F0F894B501645071099701AE014F5F74
:103610005F4FC8010496D9D65C01892B71F489816A
:103620009A81F80193838283C601880F991F880FBE
:10363000991FB80188569C4F96DE7894BBCF87EFD0
:10364000A82EBB24BA94B6CFAF92BF92CF92DF928E
:10365000EF92FF920F931F93CF93DF931F921F92CE
:10366000CDB7DEB71A821982892B09F047C06115E0
:10367000710509F443C04115510509F43FC02115F6
:10368000310509F43BC001151105C1F18091930387
:103690008823B9F179016A015B01F894BE016F5F7B
:1036A0007F4F84E993E06EDE789489819A81009758
:1036B00059F1DC0112966D917C91A80104969ED679
:1036C0008C01E981FA81D501ED93FC93828193818C
:1036D0000496F601918380834FDFD7018D939C93ED
:1036E000C8010F900F90DF91CF911F910F91FF9024
:1036F000EF90DF90CF90BF90AF9008950FEF1FEF46
:10370000EFCF07EF1FEFECCF0EEF1FEFE9CFCF9317
:10371000DF93EC01672B71F4ECD68C179D0760F0FA
:10372000DFD62496C80FD91FDED68C0F9D1FDF91E0
:10373000CF910895DBD6F1CF90E080E0F8CF0F93E2
:103740001F93CF93DF932091930321112BC08B0103
:10375000EC0188E993E001DE8CE993E0FEDD84E989
:1037600093E0FBDD97D00097C1F4C3D670E060E032
:10377000CEDF43E252E062E070E07ED1009769F470
:103780008091230290912402C6D6B801CE01FBD4C9
:10379000009719F421E020939303DF91CF911F91BB
:1037A0000F91089584EF9FEFF8CFA0C6A2C6CF93E4
:1037B000DF93A2D6EC01892B11F40ADE36DECE01AE
:1037C000DF91CF910895CF93DF9396D6EC01892BAB
:1037D00009F4FEDDCE01DF91CF910895809123029F
:1037E000909124020895CF93DF9380919303D0E0CA
:1037F000C0E08823D1F094D6EC01892BB1F4E8DD48
:1038000014DE8091230290912402E4D1E5D2EC01F0
:10381000892B59F488E993E0D5DD8CE993E0D2DD7A
:1038200084E993E0CFDD10929303CE01DF91CF9135
:103830000895EF92FF920F931F93CF93DF93EC01C4
:103840007A018B010F5F1F4F0E9DA0010F9D500D40
:103850001E9D500D112470E060E00E94DC2A90E073
:1038600080E0F0E0E0E02FEFE816F90639F4DF91B0
:10387000CF911F910F91FF90EF9008951A821982B6
:103880002883309711F0D283C1830196FE01C00FC7
:10389000D11FEACFCF92DF92EF92FF920F931F9347
:1038A000CF93DF9309E914E00C7F43E050E065E239
:1038B00072E08BE292E014D485E2E82E82E0F82EEA
:1038C0009BE2C92E92E0D92EC8E0D5E0D7014D91F8
:1038D0005D917D01F601619171916F0119830883FA
:1038E0005D834C835B834A837F836E839B012F5F61
:1038F0003F4F249FC001259F900D349F900D1124B0
:10390000998788870115110511F0C80192DF888514
:103910009985080F191F2A96FBE2EF16F2E0FF06C1
:10392000A9F6E2EAF3E084EFDF011D928A95E9F758
:103930001092A1031092A003109227051092260561
:1039400010922B0510922A05109229051092280535
:1039500010922D0510922C0510922F0510922E0515
:1039600010923105109230051092350510923405F1
:1039700010923305109232051092370510923605D9
:103980001092390510923805109205051092040521
:10399000109207051092060590E080E0DF91CF912C
:1039A0001F910F91FF90EF90DF90CF9008950097B7
:1039B000F1F0F894ABE2B2E0E8E0F5E030E020E0CE
:1039C0004D915D9148175907A8F0428153814115E7
:1039D000510581F08AE0829FF001839FF00D112450
:1039E000E85FFA4F80819181009759F4789490E0D4
:1039F00080E008952F5F3F4F3A962330310501F75D
:103A0000F5CFDC0111966D917C91718360834150FB
:103A1000510953834283FC012193CF017894089587
:103A2000009749F1DC018E91853041F4E091060563
:103A3000F09107053097F9F0CD0119948530D8F44D
:103A4000282F30E0F8948FEF8C938AE0829FF0016A
:103A5000839FF00D1124E85FFA4F808191811296C7
:103A60009C938E931197B183A08382819381019659
:103A70009383828378940895CF92DF92EF92FF929E
:103A80000F931F93CF93DF939C0185EA93E08C7F84
:103A90004115510509F49BC02115310509F497C062
:103AA0006115710509F493C07A01AB01B9016D5F2D
:103AB0007F4F6C7F9B012F5F3F4F249F8001259F8D
:103AC000100D349F100D1124F8942091260530918B
:103AD0002705232B59F420912E0530912F05211510
:103AE000310569F12017310708F058C020913005E1
:103AF00030913105232B91F420912E0530912F0523
:103B0000820F931F20913805309139052115310519
:103B100009F441C02017310708F056C07894CFEF60
:103B2000DFEF86EF9FEFF701D183C083DF91CF9165
:103B30001F910F91FF90EF90DF90CF900895C3E019
:103B4000D0E0C090A003D090A10321EF30E02C1969
:103B50003D092017310710F32AE02C9FF0012D9F1B
:103B6000F00D1124E85FFA4F9183808355834483DD
:103B7000538342837783668311870087009709F018
:103B800058DE0C0D1D1D1093A1030093A003789423
:103B900090E080E0C8CFC4E0D0E0D3CFC3E0D0E075
:103BA0002AE02C9FF0012D9FF00D1124E85FFA4FC1
:103BB00091838083558344835383428377836683D1
:103BC000009729F336DEE3CFC4E0D0E0E9CF8FEFF2
:103BD0009FEFACCF9C010397029708F069C0F8945F
:103BE00084E09AE0482F50E0241735070CF44DC0CC
:103BF00091E08AE0829FF001839FF00D1124E85F3D
:103C0000FA4F118210821582148213821282178257
:103C100016829923B1F18091260590912705892B71
:103C2000A9F420912E0530912F052115310571F051
:103C30008091A0039091A103821B930B9093A10309
:103C40008093A00310922F0510922E0580913005CD
:103C500090913105892BA9F42091380530913905CF
:103C60002115310571F08091A0039091A103821B71
:103C7000930B9093A1038093A003109239051092A7
:103C80003805789490E080E00895949FF001959F26
:103C9000F00D1124E85FFA4F40815181452B31F43A
:103CA00040855185452B11F481509CCF90E0A1CFE8
:103CB0008FEF9FEF08954115510549F1009739F1B4
:103CC0006115710521F1F8942091040530910505E5
:103CD000232BB9F42091060530910705232B89F495
:103CE000909305058093040570930705609306057E
:103CF000789425E030E090E080E0FA013183208381
:103D0000089578942FEF3FEF86EF9FEFF6CF8FEF78
:103D10009FEF0895059769F4F894109205051092A5
:103D200004051092070510920605789490E080E053
:103D300008958FEF9FEF08956115710519F4F0E074
:103D4000E0E011C08530910581F4E0910405F09127
:103D500005053097A1F3CB0101961995009779F3EA
:103D6000FC0185E08193CF0108959C012350310926
:103D70002230310520F72AE0289FD001299FB00D7D
:103D80001124A85FBA4F2D913C911197232BB9F2C2
:103D900016962D913C9117972617370780F2F894C5
:103DA00012962D913C9113972115310529F0ED9133
:103DB000FC911197309711F47894C1CF41815281D1
:103DC00011965C934E932150310913963C932E9398
:103DD000129781937894C7CFE6E9F4E08EE6DF018D
:103DE0001D928A95E9F7E2EAF3E084EFDF011D9284
:103DF0008A95E9F71092A1031092A003E8E0F5E09C
:103E000082E3DF011D928A95E9F7E4E0F5E084E0C2
:103E1000DF011D928A95E9F790E080E00895CF9345
:103E2000DF93C0913102D0913202CF3FDC0759F4C9
:103E300020D4909332028093310297FF09C0D0932F
:103E40003202C093310284EF9FEFDF91CF9108954A
:103E500090E080E0FACF8230910528F480933A0513
:103E600090E080E008958FEF9FEF08954F925F926A
:103E70006F927F92AF92BF92CF92DF92EF92FF92BA
:103E80000F931F93CF93DF931F921F92CDB7DEB78F
:103E90001A821982009709F478C06115710509F436
:103EA00074C0209131023091320207EF1FEF2F3F93
:103EB0003F4F09F444C06B015C01412C512C32018D
:103EC000F12CE12C10E000E09E012F5F3F4FA60196
:103ED0004E195F09B5016E0D7F1D809131029091E1
:103EE000320226D4892B09F04AC089819A81009731
:103EF00041F4E114F10429F420913A05222309F454
:103F000041C0E80EF91EEC14FD04C8F480E8481620
:103F100084E858068EE16806710418F560E070E0E8
:103F2000CB015CD62AE0420E511C611C711C0A3F79
:103F30004FEF140721F0043F8FEF1807A1F4C801D9
:103F40000F900F90DF91CF911F910F91FF90EF9005
:103F5000DF90CF90BF90AF907F906F905F904F9029
:103F6000089501EF1FEF81E090E0013F2FEF12076E
:103F700011F090E080E0892B09F4A6CFE0CF04EFA8
:103F80001FEFDDCF0AEF1FEFDACF0FEF1FEFD7CF15
:103F90004F925F926F927F92AF92BF92CF92DF92D9
:103FA000EF92FF920F931F93CF93DF931F921F9275
:103FB000CDB7DEB71A821982009709F478C061156F
:103FC000710509F474C0209131023091320207EF7B
:103FD0001FEF2F3F3F4F09F444C06B015C01412CA0
:103FE000512C3201F12CE12C10E000E09E012F5FFA
:103FF0003F4FA6014E195F09B5016E0D7F1D8091DF
:104000003102909132024AD3892B09F04AC089814A
:104010009A81009741F4E114F10429F420913A05C2
:10402000222309F441C0E80EF91EEC14FD04C8F483
:1040300080E4481682E458068FE06806710418F59B
:1040400060E070E0CB01CAD52AE0420E511C611C31
:10405000711C0E3F4FEF140721F0043F8FEF18073C
:10406000A1F4C8010F900F90DF91CF911F910F9194
:10407000FF90EF90DF90CF90BF90AF907F906F90C8
:104080005F904F90089502EF1FEF81E090E0023FB4
:104090002FEF120711F090E080E0892B09F4A6CFF2
:1040A000E0CF04EF1FEFDDCF0EEF1FEFDACF0FEF02
:1040B0001FEFD7CF80913102909132028F3F980746
:1040C00049F0CFD2892B49F48FEF9FEF90933202C2
:1040D0008093310290E080E0089584EF9FEF08958F
:1040E000CF92DF92EF92FF920F931F93CF93DF93C4
:1040F00021E04115510509F020E0415051092111FD
:104100002CC0DC01FB01D12CC12C21E022C03FEFEF
:10411000C31AD30A7D010D911D91E701EA80FB804E
:10412000E016F106A8F420813181E280F380F1826B
:10413000E08233832283ED90FC9011979D01225001
:104140003109E901F982E88211961C930E9320E06F
:104150003296C416D506D8F2D2CFDF91CF911F91F7
:104160000F91FF90EF90DF90CF900895FC01680FC2
:10417000791F90E080E0E617F70709F40895219190
:10418000820F911DF8CF20913B05211113C047DE0E
:10419000009791F4109241051092400510923F054E
:1041A00010923E0510923D0510923C0521E02093AF
:1041B0003B05089584EF9FEF0895AF92BF92CF9291
:1041C000DF92EF92FF920F931F93CF93DF930097AD
:1041D00009F460C04630510508F45CC020913B05ED
:1041E000C7EFDFEF222309F449C08C01060F171F28
:1041F000F801C080D180C114D10409F44EC09601E9
:104200002A5F3F4F4217530708F447C07C01809153
:1042100040059091410593838283B6016C5F7F4F87
:104220005801A60EB71EC801A1DFF5019183808356
:1042300064E070E0C8011ADEEC01892BF9F481E03A
:1042400090E009DEB601C801049610DEEC01892B6E
:1042500091F462E070E0C50109DEEC01892B59F4AC
:10426000C701DEDB80914005909141050196909356
:1042700041058093400590E080E0EDDDCE01DF91C7
:10428000CF911F910F91FF90EF90DF90CF90BF9053
:10429000AF900895CFEFDFEFF1CFC9EFDFEFEECFB3
:1042A0006F927F928F929F92AF92BF92CF92DF9246
:1042B000EF92FF920F931F93CF93DF9300D01F9243
:1042C000CDB7DEB7009709F47AC04115510509F45E
:1042D00076C020913B0507EF1FEF222309F44DC064
:1042E0003A017B015C0164E070E0CE01019650DE92
:1042F0008C01892B09F041C009811A810115110532
:1043000009F45AC0480186E0880E911CB701680D77
:10431000791D80913302909134020EDD6C0100977B
:1043200009F450C0A70170E060E00E94DC2A898196
:104330009A81AB81BC81EC0CFD1CF70181939193B8
:10434000A193B1937F0181E090E085DDB801C701C1
:104350001FDE892B31F562E070E0C701800F911FED
:1043600017DE8C01892BE9F490E080E074DDF50123
:10437000D182C082F30191828082C8010F900F9098
:104380000F900F90DF91CF911F910F91FF90EF90C1
:10439000DF90CF90BF90AF909F908F907F906F9065
:1043A000089590E080E057DDF50111821082F3015D
:1043B00011821082C60134DB09EF1FEFDECF0FEF51
:1043C0001FEFDBCF06EF1FEFD8CF0097A1F041150D
:1043D000510589F02115310571F0F90136966E17F6
:1043E0007F0748F0DC012D933C93DA01ED93FC93B9
:1043F00090E080E008958FEF9FEF0895AF92BF9215
:10440000CF92DF92EF92FF920F931F93CF93DF93A0
:10441000009709F45FC04115510509F45BC0653090
:10442000710508F457C020913B05C7EFDFEF222349
:1044300091F1DC01CD90DC9011971296ED91FC91F9
:1044400096012A5F3F4FC9EFDFEF2617370719F5AF
:10445000C0913C05D0913D05209749F521E030E021
:1044600030933D0520933C057A018C01F0933F0584
:10447000E0933E055601B4E0AB0EB11CB50176DE0B
:104480000A0D1B1DF801208131818217930729F540
:10449000D701CD92DC92CE01DF91CF911F910F9188
:1044A000FF90EF90DF90CF90BF90AF900895209154
:1044B0003E0530913F052F5F3F4FCCEFDFEFE21716
:1044C000F30790F2CBEFDFEF2E173F0768F2D0E053
:1044D000C0E0CACFCFEFDFEFDECFC3EFDFEFDBCF40
:1044E00084E090E0089582E090E008958CEF9FEFE3
:1044F000089580E290E008951092410510924005E1
:1045000010923F0510923E0510923D0510923C0519
:1045100090E080E0089590933402809333020895F0
:1045200080913B05882391F0C5DD009789F41092B6
:1045300041051092400510923F0510923E051092E1
:104540003D0510923C0510923B05089590E080E0F7
:104550000895009749F06115710531F0FC01118251
:104560001082FB01118210820895F3CF26E030E023
:1045700040E855E260E070E090E080E000C081300B
:10458000910569F01CF4892B39F00895823091056A
:1045900049F0039751F008958FE495E0E0C48CEE64
:1045A00095E0FCCF89E896E0F9CF86E297E0F6CF78
:1045B0001F920F920FB60F9211240BB60F922F93EA
:1045C0003F934F935F936F937F938F939F93AF939B
:1045D000BF93EF93FF938BEC93EF90932501809320
:1045E0002401B9D0FF91EF91BF91AF919F918F912D
:1045F0007F916F915F914F913F912F910F900BBEE3
:104600000F900FBE0F901F9018958BEC93EF909327
:10461000250180932401A3E7B0E08C918E7F8C93D9
:10462000E0E2F1E080818C7F8083E1E2F1E0808153
:10463000877E808380818560808380818D7F808379
:104640008C9181608C930895E3E7F0E08081908104
:104650009E7F90838170089581E0089510924205B5
:10466000089568EE73E080E090E0B8D290E080E0DA
:10467000089526E030E040E050E16EE070E090E028
:1046800080E07DDF8FE495E0A0D3892B21F08FE4DB
:1046900095E0B5D3F7CF90E080E00895CF92DF9218
:1046A000EF92FF920F931F93CF93DF936B017A01E9
:1046B000E901198218828FE495E087D3892B69F18B
:1046C0008601CC24C39482E0D82E809142058111CA
:1046D00010C08FE495E093D30297B9F7C0924205DA
:1046E000F801D1928F0188819981019699838883FD
:1046F000ECCF888199818E159F0578F48FE495E041
:104700007ED38F3F9807A9F3F80181938F018881A9
:104710009981019699838883ECCF90E080E0DF91C6
:10472000CF911F910F91FF90EF90DF90CF90089560
:104730000F931F93CF93DF93EA0189018FE495E0F4
:104740009ED6F801D183C08390E080E0DF91CF91C5
:104750001F910F910895CF92DF92EF92FF92809177
:10476000430591E0980F90934305882369F021E079
:1047700030E0309345052093440580934305FF9036
:10478000EF90DF90CF9008957894E0913702F09108
:104790003802C28CD38CE48CF58C0E941303B701D1
:1047A000A60190E080E00E948602F8948091430583
:1047B0008150E3CF0F931F93CF93DF931092DE07C7
:1047C0001092DD0741D2D2DEC0913702D09138027B
:1047D000198218826FEF7FEFCB010E94080370E00F
:1047E00060E090E080E00E948B01009709F03AC001
:1047F0000E94CC03F8947894BE016E5D7F4F8A814D
:104800009B810E948E01892B59F46FEF7FEFCB01C2
:104810000E941D020E940203882311F081E08EA3F2
:10482000F894F3DE0E940503882311F080E008C0AD
:104830000E9402038111FACF81E09EA19111F6CF6F
:104840008093DD0778940E94D40A8C01789480913B
:10485000DD0781110CC00E946B040E94E802F894ED
:1048600090E080E0DF91CF911F910F9108950E9419
:10487000E6020E9405038823D9F081E08093DE07D9
:104880009091DE0781E0911180E08093DD078091B7
:10489000DE078111D9DE0130110529F40E94D40A06
:1048A000892B09F4DBDE0E94D40A8C01D5DECFCF40
:1048B0000E9402038111E1CF81E09EA19111DECF20
:1048C00080E0DCCF40D008F481E00895E89409C08E
:1048D00097FB3EF490958095709561957F4F8F4F33
:1048E0009F4F9923A9F0F92F96E9BB279395F69549
:1048F000879577956795B795F111F8CFFAF4BB0FC7
:1049000011F460FF1BC06F5F7F4F8F4F9F4F16C02A
:10491000882311F096E911C0772321F09EE8872FB4
:10492000762F05C0662371F096E8862F70E060E070
:104930002AF09A95660F771F881FDAF7880F9695E9
:10494000879597F90895990F0008550FAA0BE0E88D
:10495000FEEF16161706E807F907C0F01216130641
:10496000E407F50798F0621B730B840B950B39F481
:104970000A2661F0232B242B252B21F408950A26E7
:1049800009F4A140A6958FEF811D811D0895DBDFFD
:1049900008F48FEF08950BD078C069D028F06ED05E
:1049A00018F0952309F05AC05FC01124A2C07ED030
:1049B000A0F3959FD1F3950F50E0551F629FF00132
:1049C000729FBB27F00DB11D639FAA27F00DB11D8B
:1049D000AA1F649F6627B00DA11D661F829F222714
:1049E000B00DA11D621F739FB00DA11D621F839F9B
:1049F000A00D611D221F749F3327A00D611D231F71
:104A0000849F600D211D822F762F6A2F11249F57BE
:104A100050408AF0E1F088234AF0EE0FFF1FBB1FE1
:104A2000661F771F881F91505040A9F79E3F510580
:104A300070F014C05EC05F3FECF3983EDCF38695E7
:104A400077956795B795F795E7959F5FC1F7FE2B2B
:104A5000880F911D9695879597F9089597F99F6707
:104A600080E870E060E008959FEF80EC08950024F6
:104A70000A941616170618060906089500240A94C3
:104A800012161306140605060895092E0394000C49
:104A900011F4882352F0BB0F40F4BF2B11F460FFD8
:104AA00004C06F5F7F4F8F4F9F4F089557FD905801
:104AB000440F551F59F05F3F71F04795880F97FBE2
:104AC000991F61F09F3F79F087950895121613069C
:104AD0001406551FF2CF4695F1DF08C016161706CB
:104AE0001806991FF1CF8695710561050894089500
:104AF000E894BB2766277727CB0197F908951F9283
:104B00000F920FB60F9211242F933F938F939F9381
:104B1000AF93BF938091470590914805A0914905B7
:104B2000B0914A053091460523E0230F2D3758F503
:104B30000196A11DB11D20934605809347059093D2
:104B40004805A0934905B0934A0580914B05909183
:104B50004C05A0914D05B0914E050196A11DB11DCA
:104B600080934B0590934C05A0934D05B0934E0553
:104B7000BF91AF919F918F913F912F910F900FBE59
:104B80000F901F90189526E8230F0296A11DB11DC6
:104B9000D2CF3FB7F89480914B0590914C05A091EE
:104BA0004D05B0914E0526B5A89B05C02F3F19F0C5
:104BB0000196A11DB11D3FBFBA2FA92F982F88279D
:104BC000BC01CD01620F711D811D911D42E0660F78
:104BD000771F881F991F4A95D1F708958F929F924A
:104BE000AF92BF92CF92DF92EF92FF926B017C0166
:104BF000D0DF4B015C01C114D104E104F104D9F010
:104C00006BD4C7DF681979098A099B09683E73402C
:104C10008105910580F321E0C21AD108E108F1086D
:104C200088EE880E83E0981EA11CB11CC114D1042B
:104C3000E104F10431F7FF90EF90DF90CF90BF9047
:104C4000AF909F908F900895789484B5826084BDD2
:104C500084B5816084BD85B5826085BD85B5816080
:104C600085BDEEE6F0E0808181608083E1E8F0E0E0
:104C70001082808182608083808181608083E0E80F
:104C8000F0E0808181608083E1EBF0E080818460EE
:104C90008083E0EBF0E0808181608083E1E9F0E0F7
:104CA000808182608083808181608083E0E9F0E0A0
:104CB000808181608083E1EAF0E08081826080838E
:104CC000808181608083E0EAF0E080818160808380
:104CD000E1E2F1E080818260808380818160808375
:104CE000E0E2F1E0808181608083EAE7F0E08081AA
:104CF0008460808380818260808380818160808302
:104D00008081806880831092C1000895863308F006
:104D1000865320917B00982F9870277F922B909339
:104D20007B002091350290E4299F90011124877027
:104D3000822B80937C0080917A00806480937A003B
:104D400080917A0086FDFCCF809178009091790067
:104D50000895CF93DF9390E0FC01EC51FF4F249135
:104D6000865D9E4FFC0184918823C9F090E0880FF6
:104D7000991FFC01E657FE4FA591B491FC01E05943
:104D8000FE4FC591D49161110DC09FB7F8948C91DD
:104D9000209582238C938881282328839FBFDF91CD
:104DA000CF910895623051F49FB7F8943C91822FCF
:104DB000809583238C93E8812E2BEFCF8FB7F894C7
:104DC000EC912E2B2C938FBFEACFFC01918D228D7D
:104DD000892F90E0805C9F4F821B91098F739927E8
:104DE0000895FC01918D828D981731F0828DE80F26
:104DF000F11D858D90E008958FEF9FEF0895FC01E0
:104E0000918D828D981761F0A28DAE0FBF2FB11DCD
:104E10005D968C91928D9F5F9F73928F90E0089525
:104E20008FEF9FEF0895FC01538D448D252F30E0C7
:104E3000842F90E0821B930B541710F0CF960895A7
:104E400001970895FC01A48DA80FB92FB11DA35A95
:104E5000BF4F2C91848D90E001968F739927848F9A
:104E6000A689B7892C93A089B1898C9183708064BD
:104E70008C93938D848D981306C00288F389E02D5E
:104E800080818F7D80830895CF93DF93EC01888D9F
:104E90008823B1F0AA89BB89E889F9898C9185FDBD
:104EA00003C0808186FD0CC00FB607FCF7CF8C9144
:104EB00085FFF2CF808185FFEDCFCE01C3DFEACF42
:104EC000DF91CF910895EF92FF920F931F93CF93AD
:104ED000DF93EC0181E0888F9B8D8C8D98131AC035
:104EE000E889F989808185FF15C09FB7F894EE891C
:104EF000FF896083E889F989808183708064808379
:104F00009FBF81E090E0DF91CF911F910F91FF90C3
:104F1000EF900895F62E0B8D10E00F5F1F4F0F736B
:104F20001127E02E8C8D8E110BC00FB607FCFACF27
:104F3000E889F989808185FFF5CFCE0183DFF2CF43
:104F4000EB8DEC0FFD2FF11DE35AFF4FF0829FB761
:104F5000F8940B8FEA89FB8980818062D0CFCF9251
:104F6000DF92EF92FF921F93CF93DF93EC016A01E0
:104F70007B01122FE889F98982E08083C11481EED8
:104F8000D806E104F10499F060E079E08DE390E067
:104F9000A7019601C5D22150310941095109569501
:104FA000479537952795211580E1380790F0E889D6
:104FB000F989108260E874E88EE190E0A70196011B
:104FC000AFD221503109410951095695479537957E
:104FD0002795EC85FD853083EE85FF852083188E2F
:104FE000EC89FD891083EA89FB8980818061808357
:104FF000EA89FB89808188608083EA89FB898081D6
:1050000080688083EA89FB8980818F7D8083DF913E
:10501000CF911F91FF90EF90DF90CF9008951F9256
:105020000F920FB60F9211240BB60F922F938F93FE
:105030009F93EF93FF93E0915F05F091600580816E
:10504000E0916505F091660582FD1DC0908180911B
:1050500068058F5F8F7320916905821741F0E09199
:105060006805F0E0E15BFA4F958F80936805FF914A
:10507000EF919F918F912F910F900BBE0F900FBECC
:105080000F901F9018958081F2CF1F920F920FB64C
:105090000F9211240BB60F922F933F934F935F9370
:1050A0006F937F938F939F93AF93BF93EF93FF93F0
:1050B0008FE495E0C7DEFF91EF91BF91AF919F9193
:1050C0008F917F916F915F914F913F912F910F90B1
:1050D0000BBE0F900FBE0F901F901895EFE4F5E0F8
:1050E0001382128288EE93E0A0E0B0E0848395837F
:1050F000A683B7838BEB92E09183808385EC90E06D
:105100009587848784EC90E09787868780EC90E091
:10511000918B808B81EC90E0938B828B82EC90E082
:10512000958B848B86EC90E0978B868B118E128EFC
:10513000138E148E08951F920F920FB60F921124A2
:105140000BB60F922F938F939F93EF93FF93E09162
:10515000FC05F091FD058081E0910206F0910306C7
:1051600082FD1DC09081809105068F5F8F73209115
:105170000606821741F0E0910506F0E0E451FA4F8F
:10518000958F80930506FF91EF919F918F912F91BD
:105190000F900BBE0F900FBE0F901F90189580813F
:1051A000F2CF1F920F920FB60F9211240BB60F92EF
:1051B0002F933F934F935F936F937F938F939F931F
:1051C000AF93BF93EF93FF938CEE95E03BDEFF919F
:1051D000EF91BF91AF919F918F917F916F915F916F
:1051E0004F913F912F910F900BBE0F900FBE0F90DC
:1051F0001F901895ECEEF5E01382128288EE93E092
:10520000A0E0B0E084839583A683B7838BEB92E024
:10521000918380838DEC90E0958784878CEC90E07F
:105220009787868788EC90E0918B808B89EC90E063
:10523000938B828B8AEC90E0958B848B8EEC90E044
:10524000978B868B118E128E138E148E08951F925B
:105250000F920FB60F9211240BB60F922F938F93CC
:105260009F93EF93FF93E0919906F0919A068081C6
:10527000E0919F06F091A00682FD1DC09081809173
:10528000A2068F5F8F732091A306821741F0E091F1
:10529000A206F0E0E757F94F958F8093A206FF91A1
:1052A000EF919F918F912F910F900BBE0F900FBE9A
:1052B0000F901F9018958081F2CF1F920F920FB61A
:1052C0000F9211240BB60F922F933F934F935F933E
:1052D0006F937F938F939F93AF93BF93EF93FF93BE
:1052E00089E896E0AFDDFF91EF91BF91AF919F917B
:1052F0008F917F916F915F914F913F912F910F907F
:105300000BBE0F900FBE0F901F901895E9E8F6E0C6
:105310001382128288EE93E0A0E0B0E0848395834C
:10532000A683B7838BEB92E09183808385ED90E039
:105330009587848784ED90E09787868780ED90E05D
:10534000918B808B81ED90E0938B828B82ED90E04E
:10535000958B848B86ED90E0978B868B118E128EC9
:10536000138E148E08951F920F920FB60F92112470
:105370000BB60F922F938F939F93EF93FF93E09130
:105380003607F09137078081E0913C07F0913D07A7
:1053900082FD1DC0908180913F078F5F8F732091A8
:1053A0004007821741F0E0913F07F0E0EA5DF84FD7
:1053B000958F80933F07FF91EF919F918F912F9150
:1053C0000F900BBE0F900FBE0F901F90189580810D
:1053D000F2CF1F920F920FB60F9211240BB60F92BD
:1053E0002F933F934F935F936F937F938F939F93ED
:1053F000AF93BF93EF93FF9386E297E023DDFF9196
:10540000EF91BF91AF919F918F917F916F915F913C
:105410004F913F912F910F900BBE0F900FBE0F90A9
:105420001F901895E6E2F7E01382128288EE93E06F
:10543000A0E0B0E084839583A683B7838BEB92E0F2
:105440009183808385E391E09587848784E391E06D
:105450009787868780E391E0918B808B81E391E051
:10546000938B828B82E391E0958B848B86E391E032
:10547000978B868B118E128E138E148E0895AF9299
:10548000BF92CF92DF92EF92FF920F931F93CF9331
:10549000DF936C017B018B01040F151FEB015E0193
:1054A000AE18BF08C017D10759F06991D601ED9128
:1054B000FC910190F081E02DC6011995892B79F7B7
:1054C000C501DF91CF911F910F91FF90EF90DF9079
:1054D000CF90BF90AF9008950895DB018F939F9375
:1054E00058D0BF91AF91A29F800D911DA39F900DA9
:1054F000B29F900D11240895AA1BBB1B51E107C058
:10550000AA1FBB1FA617B70710F0A61BB70B881F53
:10551000991F5A95A9F780959095BC01CD010895E2
:10552000A1E21A2EAA1BBB1BFD010DC0AA1FBB1FA7
:10553000EE1FFF1FA217B307E407F50720F0A21B19
:10554000B30BE40BF50B661F771F881F991F1A9486
:1055500069F760957095809590959B01AC01BD01B0
:10556000CF010895EE0FFF1F881F8BBF0790F691A4
:10557000E02D1994A29FB001B39FC001A39F700DAD
:10558000811D1124911DB29F700D811D1124911D4B
:105590000895F0DFA59F900DB49F900DA49F800DFE
:1055A000911D11240895FB01DC0102C001900D92B0
:1055B00041505040D8F70895DC0101C06D9341502F
:0A55C0005040E0F70895F894FFCF83
:1055CA00000080BF000080BF00800080FEFFFFFF58
:1055DA0001E8030000FFFF00000000FFFFFFFFFFDC
:1055EA00FFFFFFFFFF01000100010020003800104B
:1055FA0000FFFFFFFF0101E902FF00290D550DFE23
:10560A00000F0D900AFD00A10CFB0CFC00E70C90AA
:10561A000AF600D80D900AF500AE0C170EF400A198
:10562A000D2E0EDE005512EE14DD00C413900ADAB8
:10563A0000FE0F0610D90009151610E200E60E90BA
:10564A000AE100210F900AE000960F900AD600ECBA
:10565A0018900AD500A311900AD4002F11900AD3EA
:10566A0000A010900AC0002510900AF00055199069
:10567A000AED001219900A0000000063273F2A135E
:0A568A00274427E526FF26F126003D
:00000001FF
