:10000000F8C000000C94612B0C948C2B0C94B72B33
:100010000C94E22B0C940D2C0C94382C0C94632C27
:100020000C948E2C17C1000015C1000013C10000F4
:1000300011C100000FC100000DC100000BC1000084
:1000400009C1000007C1000005C1000003C1000094
:1000500001C10000FFC00000FDC000000C94B92CDD
:10006000F9C000000C94B0300C94E630F3C00000EE
:10007000F1C00000EFC00000EDC00000EBC00000C8
:10008000E9C00000E7C00000E5C00000E3C00000D8
:100090000C943C310C947231DDC00000DBC00000D8
:1000A000D9C00000D7C00000D5C00000D3C00000F8
:1000B000D1C00000CFC00000CDC00000CBC0000008
:1000C000C9C00000C7C000000C9442270C94C8317E
:1000D0000C94FE31BFC000000C9454320C948A3250
:1000E000B9C0000000000A0B02090C0D0E0807033E
:1000F00004010000000000000000000000000000FB
:1001000000000000000000000000000000000000EF
:1001100012111000000000000000000000000000AC
:100120000000000000000000000001021020200874
:100130000810204010204080020102010804020142
:1001400001020408102040808040201008040201B1
:10015000800402018040201008040201080402010A
:100160000102040810204080010204081020408091
:1001700005050505070508080808020202020A0A23
:100180000808040404040101010101010101030341
:10019000030303030303040707070C0C0C0C0C0CEC
:1001A0000C0C0202020206060606060606060B0BE9
:1001B0000B0B0B0B0B0B00002200250028002B0063
:1001C0002E003100340002010000050108010B017E
:1001D00000002100240027002A002D0030003300F9
:1001E00001010000040107010A010F319B31273290
:1001F000B33211241FBECFEFD1E2DEBFCDBF00E08E
:100200000CBF12E0A0E0B2E0ECE0F7E600E00BBFCC
:1002100002C007900D92AC3EB107D9F728E0ACEED2
:10022000B2E001C01D92A936B207E1F710E0C9EFB4
:10023000D0E000E006C021970109802FFE010E9456
:100240005333C53FD10780E00807A9F70E9445282E
:100250000C948433D5CECF93DF93882349F0EB0100
:1002600081500E94C02D99838883DF91CF9108959A
:10027000FB0111821082F9CF0F931F938B019C0118
:1002800083E036952795179507958A95D1F70B50FA
:100290001D4F462F477021E030E0F90102C0EE0FFC
:1002A000FF1F4A95E2F7AF01F80120812423CB011B
:1002B0000196211102C090E080E01F910F910895F6
:1002C0000F931F938B019C0183E03695279517951B
:1002D00007958A95D1F7677081E090E001C0880F9B
:1002E0006A95EAF7F801EB50FD4F2081452B31F478
:1002F0008095822380831F910F910895822BFACFDE
:10030000CF92DF92EF92FF92CF93DF936B017C014C
:1003100060E086E3C816D104E104F10490F486E3BA
:100320008C0D0E941D2FE6012196AE01C701B6017A
:10033000C7DFCE01DF91CF91FF90EF90DF90CF909C
:1003400008958C2DEECF882341F08150682F70E006
:1003500090E080E050E040E0B3CF0895611102C02A
:100360000C941D2F6130E1F362E0FACF662319F09F
:1003700061E00C94592F60E0FCCFCF92DF92EF92B6
:10038000FF92CF93882351F16A017B01CFEFC80F11
:1003900020E030E0A901CB01B6010E9445291816E2
:1003A0008CF0C701B60190580E944E299B01AC0108
:1003B0006C2F70E090E080E0CF91FF90EF90DF90A5
:1003C000CF90B2C0C701B6010E9449298C2FCF91AE
:1003D000FF90EF90DF90CF900C94E32DCF91FF90A2
:1003E000EF90DF90CF9008950F931F938B019C01A6
:1003F00083E036952795179507958A95D1F704518F
:100400001D4F462F477021E030E0F90102C0EE0F8A
:10041000FF1F4A95E2F7AF01F80120812423CB01A9
:100420000196211102C090E080E01F910F91089584
:100430000F931F938B019C0183E0369527951795A9
:1004400007958A95D1F7677081E090E001C0880F29
:100450006A95EAF7F801E451FD4F2081452B31F40C
:100460008095822380831F910F910895822BFACF6C
:100470002F923F924F925F926F927F928F929F92B4
:10048000AF92BF92CF92DF92EF92FF920F931F93A2
:10049000CF93DF93D62EC72E782E692E49015A01AD
:1004A000280161E08D2D0E941D2FCD2DDC2D8E01A8
:1004B0000F5F1F4FA8016D2D7C2D872D962DB8DF66
:1004C00020E030E0A901C201B7010E947F2A18167E
:1004D00064F4C201B7010E944E292B01C501B40189
:1004E0000E944E29A201CE0123D0C801DF91CF91F5
:1004F0001F910F91FF90EF90DF90CF90BF90AF9042
:100500009F908F907F906F905F904F903F902F9033
:100510000895882341F08150682F70E090E080E0DA
:1005200050E040E085CF0895862FB9010C94E32D6B
:100530009C01FC01EC51FF4FE491E150E231E0F409
:10054000F0E08827E955FD4F8F4F0C945333B902E3
:10055000C002C302DA02EF02BC0204031003140358
:100560002B03400355036C038103BC029603AD03C8
:10057000C20384B5806884BD60E0822F0C94592F3B
:1005800084B58062F8CF809180008C7F82608093F8
:10059000800080918100807E8061682B6093810063
:1005A00050938700409386008091800080688093FC
:1005B0008000E2CF809180008C7F826080938000F9
:1005C00080918100807E8061682B609381005093D0
:1005D000870040938600809180008062E8CF809100
:1005E00080008C7F82608093800080918100807E7B
:1005F0008061682B60938100509387004093860050
:10060000809180008860D3CF8091B0008068809313
:10061000B0008091B100887F682B6093B100ACCFAF
:100620008091B0008062F3CF809190008C7F8260D7
:100630008093900080919100807E8061682B609310
:1006400091005093970040939600809190008068AD
:100650008093900091CF809190008C7F82608093F6
:10066000900080919100807E8061682B6093910062
:100670005093970040939600809190008062E8CF5D
:10068000809190008C7F8260809390008091910097
:10069000807E8061682B6093910050939700409317
:1006A0009600809190008860D3CF8091A0008C7FCD
:1006B00082608093A0008091A100807E8061682B81
:1006C0006093A1005093A7004093A6008091A000E2
:1006D00080688093A00050CF8091A0008C7F8260C2
:1006E0008093A0008091A100807E8061682B609340
:1006F000A1005093A7004093A6008091A0008062C3
:10070000E8CF8091A0008C7F82608093A0008091D0
:10071000A100807E8061682B6093A1005093A700A8
:100720004093A6008091A0008860D3CF80912001E3
:100730008C7F82608093200180912101807E806186
:10074000682B6093210150932701409326018091EB
:1007500020018068809320010FCF809120018C7F41
:1007600082608093200180912101807E8061682BCE
:10077000609321015093270140932601809120012D
:100780008062E8CF809120018C7F8260809320017D
:1007900080912101807E8061682B609321015093BC
:1007A000270140932601809120018860D3CF90E0FB
:1007B00080E008950F931F93009709F487C0611597
:1007C000710509F483C000911E0210911F0220914F
:1007D0002002309121020E3F1F4F2F4F3F4F09F053
:1007E00066C04FEF5FEFBA0140931E0250931F02A5
:1007F000609320027093210240911E0250911F02CB
:100800006091200270912102DC011296ED91FC9121
:1008100080819181A281B38180938103909382032F
:10082000A0938303B093840384819581A681B781CB
:1008300080937D0390937E03A0937F03B093800306
:1008400080859185A285B3858093790390937A03FF
:10085000A0937B03B0937C0384859585A685B7859B
:100860008093750390937603A0937703B0937803F6
:10087000109271031092720310927303109274031A
:10088000E6D68CE49BE09093FF028093FE02909367
:10089000010380930003CAD5009731F421E030E0D2
:1008A00030938603209385031F910F910895009143
:1008B0001E0210911F022091200230912102DB01C3
:1008C0000D931D932D933C93139796CF8FEF9FEF2E
:1008D000EBCF8F929F92AF92BF92CF92DF92EF9227
:1008E000FF921F93CF93DF934B015C01109188031C
:1008F00082E090E0909386038093850381149104B5
:10090000A104B10441F480918803811104C0809155
:100910008703C1E08111C0E0C12CD12C7601809108
:100920008803811106C080918703811102C0CC2306
:10093000D9F083E090E09093860380938503CC23E5
:1009400079F1CCE9DFEF111102C00E94B00ECE01A7
:10095000DF91CF911F91FF90EF90DF90CF90BF90EC
:10096000AF909F908F9008956AE070E080E090E0F3
:100970000E94282D80E1C80E87E2D81EE11CF11CE0
:100980008FEF88169806A806B80631F0C1E08C14DF
:100990009D04AE04BF0408F0C0E080E07BD5BFCF6B
:1009A000D0E0C0E0D0CFCF92DF92EF92FF920F93D2
:1009B0001F93CF93DF938F3F910511F008F050C044
:1009C00020918503309186032330310539F0209141
:1009D0008503309186032130310531F424E030E085
:1009E00030938603209385036A017B01EC018230FA
:1009F0009105A0F011E0AE01C701B60116D5AB011B
:100A0000BC01CE011123F9F0DF91CF911F910F911D
:100A1000FF90EF90DF90CF900C94D9108C01000FD5
:100A2000111F02501D4FD8018D919C91892B11F3FC
:100A30000E94E3100297F1F6D801ED91FC91CE01EE
:100A40001995182FD8CF0E94FB1090E080E0DF911D
:100A5000CF911F910F91FF90EF90DF90CF9008956D
:100A60008FEF9FEFF4CF80E015C5CF93DF9386E043
:100A700090E0909386038093850365D5EC01EEEFBB
:100A8000F2E084E0DF011D928A95E9F70E94480EAA
:100A90001092860310928503CE01DF91CF910895C5
:100AA00080918703089580917003089560931E02DA
:100AB00070931F02809320029093210290E080E0C7
:100AC00008958F929F92AF92BF92CF92DF92EF9252
:100AD000FF9280914103882329F0813039F0809181
:100AE000420301C081E08093400302C010924003A2
:100AF000E091400384E0E89FF0011124E65EFC4FA2
:100B000081A592A5A3A5B4A580933C0390933D0332
:100B1000A0933E03B0933F038FEF809340038090F8
:100B2000350890903608A0903708B090380820918A
:100B30001402309115024091160250911702C5011E
:100B4000B4010E94832A20910C0230910D02409141
:100B50000E0250910F020E94CE286B017C01C092C0
:100B60004A08D0924B08E0924C08F0924D08209130
:100B70001002309111024091120250911302C501EE
:100B8000B4010E94832AA70196010E94CE28609397
:100B9000350870933608809337089093380884E0BE
:100BA0008093440880914208882349F0813059F0AD
:100BB0009091430881E0992319F080E001C081E021
:100BC0008093410802C01092410880914108882317
:100BD00051F1C0923D08D0923E08E0923F08F09259
:100BE000400880914108809343088FEF809341082B
:100BF000409134035091350360913603709137036F
:100C000040935003509351036093520370935303E6
:100C100081E090E0FF90EF90DF90CF90BF90AF9099
:100C20009F908F90C0CEC0923908D0923A08E0923F
:100C30003B08F0923C08D5CFCF92DF92EF92FF9223
:100C40006B017C019F7720E030E040E859E50E948D
:100C5000452987FF2BC020E030E040E05FE3C7017B
:100C6000B6010E947F2A87FD0EC020E030E040E000
:100C70005FE3C701B6010E94CE28FF90EF90DF909E
:100C8000CF900C94B72920E030E040E05FEBC70143
:100C9000B6010E947F2A181684F420E030E0A901F2
:100CA000C701B6010E94832A6B017C01C701B6010E
:100CB000FF90EF90DF90CF90089520E030E040E08B
:100CC0005FE3C701B6010E94CD28FF90EF90DF904F
:100CD000CF900C943229CF92DF92EF92FF92CF9374
:100CE000DF931F921F92CDB7DEB7C0900402D09061
:100CF0000502E0900602F0900702A70196016091BC
:100D000021087091220880912308909124080E9464
:100D10004529882341F0C0922108D0922208E09210
:100D20002308F092240866E370E080E090E0A4DA03
:100D30009093200880931F0843E050E0BE016F5F4E
:100D40007F4F89DA20911C0230911D02A981BA815E
:100D50000E945B3321E196958795779567952A9553
:100D6000D1F760934E086BE070E080E090E03CDBF0
:100D70007C01909334088093330860914E0870E0B2
:100D800090E080E00E947A29AB01BC01C701F5DA4E
:100D900080914108882329F0813039F080914308FF
:100DA00001C081E08093420802C010924208809105
:100DB0004208882309F471C080913D0890913E0853
:100DC000A0913F08B091400880934608909347084F
:100DD000A0934808B09349088FEF80934208609130
:100DE000460870914708809148089091490824DF8F
:100DF0006B017C0120E030E040E853E40E9445298B
:100E00006FEF87FF0EC020E030E0A901C701B601F7
:100E10000E947F2A60E087FD04C0C701B6010E94DE
:100E20004E298DE0A3DAC0903403D0903503E090D2
:100E30003603F09037038FEFC81AD80AE80AF80A89
:100E4000C0923403D0923503E0923603F092370318
:100E5000C701B6010E947A299B01AC016091380359
:100E60007091390380913A0390913B030E94832A49
:100E70006093300370933103809332039093330374
:100E800080914003882391F08130A1F081E090911E
:100E90004203992361F080E00AC080913908909163
:100EA0003A08A0913B08B0913C088ECF81E0809336
:100EB000410302C0109241038091410394E0899F55
:100EC000F0011124E65EFC4FC1A6D2A6E3A6F4A66B
:100ED000809342038FEF809341030F900F90DF9137
:100EE000CF91FF90EF90DF90CF9008958F929F92D7
:100EF000AF92BF92DF92EF92FF920F931F93CF9327
:100F0000DF9384E090E053D1EAE1F3E080E090E009
:100F1000A0E8BFEB81AB92ABA3ABB4AB8DEC9CEC88
:100F2000ACE4BEE3868F978FA0A3B1A38AEA9FE2C9
:100F3000ACEBBBE984839583A683B78384E196EE0B
:100F4000A7E4B7EB80879187A287B3878FE498ECFB
:100F5000A2E2B0E484879587A687B7878FEA95EFEA
:100F6000AAE9B2E2808B918BA28BB38BCEE0D3E067
:100F7000D383C283A2E0B3E0B983A88388E592E07B
:100F800011969C938E9313969C938E93129715961D
:100F90009C938E93149724E438E017963C932E93F9
:100FA000169719963C932E9318971B969C938E93A5
:100FB0001A978EE293E09D838C838EE193E09B836E
:100FC0008A8380E393E09F838E838FEF87A310A6AD
:100FD00000E012E0D80158964D915D916D917C91A1
:100FE0005B97C9E1D8E048A359A36AA37BA388A76C
:100FF00089A741A552A563A574A542A353A364A3E1
:1010000075A386A38D919D910D90BC91A02D8C8F81
:101010009D8FAE8FBF8FF80180859185A285B385A6
:1010200080934A0890934B08A0934C08B0934D08C6
:1010300042E050E061E675E080E00E94E72A188215
:10104000F80184819581A681B78188879987AA87CD
:10105000BB87812C912C5401839489829A82AB8224
:10106000BC8266E370E080E090E04AD99F838E8383
:10107000DD24D394DD821C8A8D8A9E8AAF8AB88E45
:10108000E12CF12C8701A80197016BE070E080E072
:1010900090E0EED99B8F8A8FD98E1C868D869E8696
:1010A000AF86B88A61E08DE059D9D98ADF91CF91B6
:1010B0001F910F91FF90EF90DF90BF90AF909F90A6
:1010C0008F9008958091190881111DC081E080934F
:1010D000190880911A0890911B08A0911C08B091E2
:1010E0001D080197A105B10571F480911E088823A0
:1010F00051F066E370E080E090E0BED89093200865
:1011000080931F0820D980912D0881112AC081E089
:1011100080932D0880912E0890912F08A09130087F
:10112000B09131080197A105B105D9F48091320839
:101130008823B9F06BE070E080E090E055D990939F
:1011400034088093330840E050E0BA0116D96BE0D0
:1011500070E080E090E048D99093340880933308A1
:10116000D8D980912508811103C081E0809325089A
:10117000089560E070E080E89FE7089560E070E027
:1011800080E89FE7089560E070E080E89FEF0895B1
:1011900060E070E080E89FEF089560E070E080EC30
:1011A0009FEF089560E070E080EC9FEF0895F5DF19
:1011B00060935B0870935C0880935D0890935E0871
:1011C000F1DF60934F08709350088093510890931B
:1011D0005208CFDF609357087093580880935908DE
:1011E00090935A08CBDF6093530870935408809310
:1011F000550890935608C7DF60935F0870936008A6
:101200008093610890936208C3DF609363087093D2
:101210006408809365089093660808954F925F92E2
:101220006F927F928F929F92AF92BF92CF92DF92F6
:10123000EF92FF920F931F93F894409060035090A9
:1012400061036090620370906303C0905403D09078
:101250005503E0905603F0905703452B09F0A6C0C4
:101260009B01AC01241935094609570929013A01A6
:1012700000915C0310915D0320915E0330915F0348
:1012800048015901840C951CA61CB71C80169106B8
:10129000A206B306A0F400915803109159032091BF
:1012A0005A0330915B030F5F1F4F2F4F3F4F009347
:1012B00058031093590320935A0330935B03809291
:1012C0005C0390925D03A0925E03B0925F03009175
:1012D00058031091590320915A0330915B03809277
:1012E000640390926503A0926603B0926703009333
:1012F00068031093690320936A0330936B03609330
:101300006003709361038093620390936303A3016E
:10131000920160E47DE083E090E00E940E336C0D6A
:101320007D1D8E1D9F1D6093540370935503809304
:1013300056039093570300911E0210911F022091B3
:101340002002309121020F3F1F4F2F4F3F4FF1F0EE
:1013500000911E0210911F02209120023091210263
:101360000E3F1F4F2F4F3F4F89F0C0901E02D0906D
:101370001F02E0902002F090210221E08C149D04D5
:10138000AE04BF0408F420E02093700378941F910A
:101390000F91FF90EF90DF90CF90BF90AF909F9014
:1013A0008F907F906F905F904F9008954B015C01FC
:1013B00084189508A608B708A3019201261B370BCD
:1013C000480B590B6415750586059705E0F08216E4
:1013D0009306A406B50640F420E030E0A90181148C
:1013E0009104A104B104A1F460E47DE083E090E005
:1013F0000E940E33A7019601261B370B480B590B91
:10140000CA01B901C3CF82169306A406B50660F7D8
:10141000A501940160E47DE083E090E00E940E333A
:101420006C0D7D1D8E1D9F1DB1CFF8CECF93DF9328
:1014300000D01F92CDB7DEB71C821B821A821982A0
:1014400010926C0310926D0310926E0310926F0352
:10145000BE016F5F7F4FCE0103960E941227698104
:101460007A818B819C810E940020009761F4BE01EB
:101470006F5F7F4FCE0103960E941E2769817A819C
:101480008B819C812ED50F900F900F900F90DF9144
:10149000CF910895FF920F931F93CF93DF93082F5F
:1014A00060E070E0CB010E94282DFF24F3940E949D
:1014B000E91EEC01892B89F010E0CE3F8FEFD807B1
:1014C00069F0002361F160E070E0CB010E94282DFB
:1014D00081E090E0892B59F322C011E025D5EC0181
:1014E000892B21F0CE3F8FEFD80759F711111EC07D
:1014F00011E0229609F410E00E94991EEC01892B5C
:1015000021F0CE3F8FEFD807E1F6111111C011E0A5
:10151000CE3F8FEFD80709F410E001110BC0CE01C8
:10152000DF91CF911F910F91FF90089511E0E4CFCB
:1015300011E0F3CF60E070E0CB010E94282D1F2561
:10154000812F90E0C7CFCF93DF93809170038823E2
:1015500021F060E070E0CB014CD635D6D0E0C0E0A1
:10156000892B71F06AE070E080E090E00E94282D05
:1015700081E090DF28D62196C03D27E0D20781F791
:1015800027D60E945420109288031092870310924D
:1015900081031092820310928303109284031092AD
:1015A0007D0310927E0310927F03109280031092AD
:1015B000790310927A0310927B0310927C031092AD
:1015C00075031092760310927703109278031092AD
:1015D00071031092720310927303109274034EEF12
:1015E0005FEF6FEF7FEF40931E0250931F026093F7
:1015F00020027093210210927003E4E6F3E028E0E9
:10160000DF011D922A95E9F71092600310926103A1
:10161000109262031092630310925C0310925D03B8
:1016200010925E0310925F031092580310925903B8
:1016300010925A0310925B031092540310925503B8
:101640001092560310925703DF91CF910895109294
:1016500094031092950310929603109297031092A0
:10166000930380919C0390919D03909392038093A8
:1016700091031092900310928F0310928B0310929B
:101680008C0310928D0310928E0310929903109286
:10169000980390E080E00895CF92DF92EF92FF925E
:1016A0000F931F93CF938C01892B09F055C0209184
:1016B0009C0330919D0380919103909192034091FE
:1016C0009C0350919D0350939203409391032817DC
:1016D000390781F01092900310928F0310928B03C0
:1016E00010928C0310928D0310928E031092990326
:1016F0001092980380919C0390919D03019761F54E
:101700008091980390919903892B21F48091220272
:10171000811112C080919803909199030197E1F48F
:1017200080918B0390918C03A0918D03B0918E03D7
:101730000197A105B10581F410928B0310928C03DF
:1017400010928D0310928E031092220282E090E09C
:10175000909399038093980380919C0390919D03AB
:10176000019709F01CC18091B2039091B3038017D7
:10177000910709F014C18091AE039091AF03A0913D
:10178000B003B091B103009709F409C12091AD03F2
:1017900021110DC04091AE035091AF036091B00391
:1017A0007091B103452B462B472B09F4F8C02091CB
:1017B0009803309199032230310509F0F0C020914F
:1017C0008F032111ECC0FC01C080D180E280F38046
:1017D00080919303882309F4D3C080919F03909153
:1017E000A003892B09F4FDC020919F033091A00331
:1017F00081E02230310509F080E020919F03309193
:10180000A003C1E02130310549F020919F033091C0
:10181000A003C1E02230310509F0C0E0882309F4BB
:1018200056C02091A9033091AA034091AB03509177
:10183000AC03C701B6010E947F2A87FD14C0209126
:10184000A9033091AA034091AB035091AC0360917E
:1018500094037091950380919603909197030E9451
:10186000452987FD22C02091A9033091AA03409108
:10187000AB035091AC03C701B6010E947F2A181632
:1018800034F52091A9033091AA034091AB03509104
:10189000AC036091940370919503809196039091AD
:1018A00097030E944529811112C08091A103909154
:1018B000A203A091A303B091A403892B8A2B8B2BA5
:1018C00019F481E08093900381E080938F03CC230F
:1018D00009F456C02091A9033091AA034091AB03AB
:1018E0005091AC03C701B6010E94452987FF14C07F
:1018F0002091A9033091AA034091AB035091AC030E
:101900006091940370919503809196039091970351
:101910000E947F2A87FF22C02091A9033091AA0349
:101920004091AB035091AC03C701B6010E94452919
:10193000811126C02091A9033091AA034091AB03E5
:101940005091AC036091940370919503809196033C
:10195000909197030E947F2A181694F48091A10316
:101960009091A203A091A303B091A403892B8A2B89
:101970008B2B19F481E08093900381E080938F0397
:1019800081E090918F03911180E080939303C09246
:101990009403D0929503E0929603F0929703012B63
:1019A00009F067C18091980390919903892BD9F42C
:1019B00010929E0310928F0380912202882379F067
:1019C00082E090E090939903809398031092220212
:1019D00020919C0330919D0381E0232BE9F080E06E
:1019E0001BC081E00ACF1092220280919E038823BF
:1019F00049F010929003109299031092980310925C
:101A00009E03EDCF80919C0390919D03892BE1F083
:101A100080918F0310928F03209198033091990346
:101A20002230310509F45EC088F42115310509F42E
:101A300048C02130310509F4F3C010929003109290
:101A40008F0310929E0338C081E0E6CF233031052A
:101A500009F4B1C02430310581F740918B035091D6
:101A60008C0360918D0370918E03411551056105C2
:101A7000710561F0415051096109710940938B036F
:101A800050938C0360938D0370938E0340918B036E
:101A900050918C0360918D0370918E03452B462BE2
:101AA000472BD9F420919A0330919B0321303105C3
:101AB00009F046C010929003109299031092980377
:101AC0000CC080912202882341F082E090E0909344
:101AD00099038093980310922202109289038091B7
:101AE0009003CEC08823C9F38091A1039091A203F3
:101AF000A091A303B091A403181619061A061B0699
:101B00000CF07DC080919C0390919D03019709F09A
:101B100076C08091A1039091A203A091A303B091FC
:101B2000A40380938B0390938C03A0938D03B093B5
:101B30008E0383E090E09093990380939803CDCF38
:101B40004091A5035091A6036091A7037091A8034B
:101B5000452B462B472BA9F0109290038091A503AB
:101B60009091A603A091A703B091A80380938B0343
:101B700090938C03A0938D03B0938E0381E090E04B
:101B8000DACF882399F08091230290912402A091CA
:101B90002502B091260280938B0390938C03A0932F
:101BA0008D03B0938E0384E090E0C5CF1092900334
:101BB00082E090E0C0CF80918B0390918C03A09144
:101BC0008D03B0918E030097A105B10559F00197DF
:101BD000A109B10980938B0390938C03A0938D038B
:101BE000B0938E0380918B0390918C03A0918D0311
:101BF000B0918E03892B8A2B8B2B09F06ECF8091AD
:101C0000230290912402A0912502B0912602892BF3
:101C10008A2B8B2B09F44ECF81E080939003B3CFB6
:101C200040918B0350918C0360918D0370918E03D2
:101C3000411551056105710561F041505109610976
:101C4000710940938B0350938C0360938D037093C1
:101C50008E0340918B0350918C0360918D037091A2
:101C60008E03452B462B472B09F037CF8111C7CF69
:101C70009FCF80918903882309F431CF80918A0313
:101C8000CF911F910F91FF90EF90DF90CF9008952B
:101C9000109294031092950310929603109297035A
:101CA000109293031092990310929803109292034A
:101CB000109291031092B3031092B203109290030A
:101CC00010928F0310928B0310928C0310928D034D
:101CD00010928E0310928A03109289031092AE0321
:101CE0001092AF031092B0031092B1031092AD03A3
:101CF0001092A9031092AA031092AB031092AC03A6
:101D000088EE93E0A0E0B0E0809323029093240259
:101D1000A0932502B09326021092A5031092A60369
:101D20001092A7031092A8031092A1031092A2038D
:101D30001092A3031092A4031092A00310929F0389
:101D400081E08093220210929E0310929D031092D4
:101D50009C0310929B0310929A0390E080E00895F8
:101D600080919C0390919D03892B19F5809122020B
:101D7000882351F080919E03811106C081E08093F9
:101D80008A0380938903089520919E033091220253
:101D900081E090E0332311F090E080E030E0822396
:101DA0009323892B21F010928A0381E0EACF1092CD
:101DB0008903089582E090E0FA01918380838FEF98
:101DC0009FEF0895CF93DF93EA01009711F00E94EF
:101DD00074211982188290E080E0DF91CF910895FC
:101DE000DB01009719F48FEF8C9308952EEF2C935D
:101DF000FC013F96EF30F10508F034C08827EC5F16
:101E0000F04F8F4F0C945333300F2E0F2C0F2A0F9F
:101E1000280F240F260F220F200F1E0F1B0F170F46
:101E2000130F190F320F80E311968C93089589E2F6
:101E3000FBCF82E2F9CF11961C92089583E2F4CF92
:101E400081E2F2CF81E1F0CF87E2EECF8AE2ECCF00
:101E500080E1EACF84E2E8CF88E2E6CF86E2E4CF11
:101E600081E3E2CF80E2E0CF8091C0039091C10393
:101E700008959093C1038093C00308958091BF0398
:101E800008959091BF03892B8093BF030895982FE5
:101E900090958091BF0389238093BF03089580911B
:101EA000BE0308958091BC039091BD030895611510
:101EB000710559F0FB0130E020E070E060E024178C
:101EC000350719F06115710511F0CB010895A08156
:101ED000B181A817B90709F4BF012F5F3F4F3696AC
:101EE000EECF8091C20381111CC060D266D2909364
:101EF000B5038093B4030E9472190E9484199093D1
:101F0000B9038093B8030E94011E0E94081E90939B
:101F1000B7038093B60381E08093C20390E080E032
:101F2000089584EF9FEF08958F929F92AF92BF9292
:101F3000CF92DF92EF92FF920F931F93CF93DF9395
:101F400000D000D000D01F92CDB7DEB71A86198618
:101F500018861F821E821D821C821B821A82198291
:101F60008091C20307EF1FEF882309F49CC08E0104
:101F70000D5F1F4F9E012B5F3F4FAE01495F5F4FCB
:101F8000BE01675F7F4F90E080E00E94851F8C015B
:101F9000009721F00596029708F0DBC029853A8565
:101FA0002115310509F402C1ED80FE804B815C8171
:101FB000B701640F751F8F8198858617970708F4FE
:101FC000F5C0E20EF31ED7019C91903C09F07FC052
:101FD0004230510508F47BC011968C914091C003AA
:101FE0005091C103452B09F49CC0913F08F071C08A
:101FF0002CE1290F2D3008F48BC02DE2290F203160
:1020000008F489C0903C21F48150823008F483C0E8
:1020100088E3890F8B3008F481C090EFC92E9EE0D1
:10202000D92EEAEDFEE06D817E81AE014F5F5F4FFC
:1020300089859A8519955C01C114D104A1F1898023
:102040009A808114910479F18B819C81881599057E
:1020500008F487C010E000E04B815C8170E060E034
:10206000C7010E947D3301151105E9F449815A81A8
:1020700069857A858D819E81680F791FC501F6017A
:102080001995E980FA800D811E812F813885498557
:102090005A856FEF7FEF81E090E00E94201F8C0156
:1020A000892B09F056C0C8012A960FB6F894DEBFF6
:1020B0000FBECDBFDF91CF911F910F91FF90EF9099
:1020C000DF90CF90BF90AF909F908F90089580E069
:1020D00085CF30E020E0220F331FF901EC54FC4F94
:1020E0000190F081E02D309709F497CF892F90E08F
:1020F0001995009709F491CFDC011296ED91FC91AE
:1021000013971496CD90DC90309709F08CCF1FC0B8
:1021100021E030E0E0CF22E030E0DDCF23E030E02E
:10212000DACFD12CC12CE2EEFEE09F3F09F07BCF4D
:10213000E091B403F091B503309721F4C90104EFA5
:102140001FEF0CC08FEF90E019950097A9F604EFF0
:102150001FEF89859A85009709F4A5CF0E94742105
:10216000A2CF0E944F208C0189859A850E947421FC
:1021700070E060E0C4010E94E81F98878F830E948E
:102180001D1F9E838D836F8178856115710559F0C0
:10219000C8010E9400239A87898706EF1FEF892BC9
:1021A00009F058CF59CF08EF1FEF56CF08EF1FEFB8
:1021B000D0CF2091C203222319F020E00C9489197A
:1021C00087EF9FEF08958091C0039091C103089518
:1021D0000E940D1E0E94671DF5D0E4EBF3E088E03D
:1021E000DF011D928A95E9F71092C20390E080E02A
:1021F00008950C94C51B21E040E050E0BA010C9416
:10220000891986E090E0FA019183808390E080E074
:10221000089547E050E06BE572E049CEDF92EF921F
:10222000FF920F931F93CF93DF938A01EC01C60FA8
:10223000D71FE090C603F090C703D9800E943720D3
:10224000D816190678F082E090E0F8019183808337
:102250008EEF9FEFDF91CF911F910F91FF90EF9045
:10226000DF900895EF2841F482E090E0F801918337
:10227000808384EF9FEFEECF89818093C50390E048
:102280000196F8019183808390E080E0E3CFCF93C3
:10229000DF93EA010E94761C882321F00E944420EB
:1022A0000E94771C82E090E0998388838BEF9FEFF8
:1022B000DF91CF910895CF93DF93EB0186E0FB018F
:1022C00011928A95E9F78FEF8883D8DD8983E7DD5E
:1022D0008A83E8DD9D838C83DF91CF910895CF932E
:1022E000DF93EA010E94791C811109C082E090E02D
:1022F0009983888385EF9FEFDF91CF91089590E0D8
:1023000080E0B7DD81E090E09983888390E080E011
:10231000F3CF0F931F93CF93DF93EA018C01060F46
:10232000171F0E94791C81110BC082E090E09983F5
:10233000888385EF9FEFDF91CF911F910F910895D3
:10234000F8018181823038F082E090E099838883BF
:102350008EEF9FEFF0CF81E090E08BDD88E090E0A2
:102360009983888390E080E0E6CFCF93DF93009756
:10237000D1F4EB01FB01329686E0DF011D928A95D4
:10238000E9F78FEF888385E089831A820E943720DE
:102390008B830E9436209D838C8381E08E838F8384
:1023A000DF91CF910895DF91CF911ACD89E091E12E
:1023B0009093C4038093C30308958091C3039091C5
:1023C000C40308951092C4031092C303089580912A
:1023D000C6039091C7030895411105C061157105A9
:1023E0008105910561F06093C6037093C7038093E4
:1023F000C8039093C9034093CA0381E0089580E025
:102400000895FF920F931F93CF93DF938A01EC01FE
:10241000C60FD71FF9800E943720F816190668F0FA
:1024200082E090E0F801918380838EEF9FEFDF914F
:10243000CF911F910F91FF9008956C817D818E81C6
:102440009F814B81C9DF811108C082E090E0F801D3
:102450009183808384EF9FEFEACF89818093C503C6
:1024600090E00196F8019183808390E080E0DFCFD7
:10247000CF93DF93EA01FC01E60FF71F64817581BA
:10248000868197814381A8DF811109C082E090E0B5
:102490009983888384EF9FEFDF91CF91089581E046
:1024A00090E09983888390E080E0F6CFE6ECF3E05B
:1024B0004081518162817381480F511D611D711DE1
:1024C00040835183628373830895CF93C091C50382
:1024D0004C2F50E06091C6037091C70301960E9493
:1024E00074338C2FE3DF1092C503CF9108950097CA
:1024F00099F48091C6039091C7032FEFFB012083CD
:10250000892B59F02091C50330E02F5F3F4F2417EE
:10251000350719F4CB01D9CF63CC0895009799F40E
:102520008091C6039091C7032FEFFB012083892B75
:1025300059F02091C50330E02F5F3F4F2417350736
:1025400019F4CB01C2CF4CCC089523E1AC01249FF8
:10255000C001259F900D1124E091CF03F091D0038D
:10256000E80FF91F238134812250310981E02230A4
:10257000310508F080E008950F931F93CF93DF9308
:102580000091D1031091D203D0E0C0E080E00C179D
:102590001D0749F491E0811190E0892FDF91CF91DF
:1025A0001F910F9108958111F5CFCE01CEDF2196B5
:1025B000EECFA091CF03B091D003109729F12091D5
:1025C000D1033091D20382179307F0F453E1589F5F
:1025D0009001599F300D1124A20FB31FED91FC9172
:1025E0001197309789F012968C91681768F48DE0F6
:1025F000689FE00DF11D112480819181892B21F0CC
:1026000081E09281491708F080E008959C0143E140
:10261000429FC001439F900D1124E091CF03F091A0
:10262000D003E80FF91F8385823091F481E090E0B8
:1026300065817681409127025091280264177507C1
:1026400011F490E080E0892B19F081E0232B09F050
:1026500080E00895FC01A081B1818DE0689FA00D0C
:10266000B11D112413964D915C9185859685489FE7
:102670009001499F300D589F300D1124C9010196DA
:10268000611103C0478144FD04960895EF92FF92C3
:102690000F931F93CF93DF93EA01FC01E60FF71F1F
:1026A00002811381E480F5804F2D6E2DC80181DFFA
:1026B00081110DC082E090E0998388838EEF9FEFB7
:1026C000DF91CF911F910F91FF90EF900895C80176
:1026D0003CDF882339F082E090E09983888388EF9B
:1026E0009FEFEECF10932E0200932D02E0922F0267
:1026F000F092300281E090E09983888390E080E05E
:10270000DFCFCF92DF92EF92FF920F931F93CF9381
:10271000DF937A01EC01C60FD71FC0902D02D09035
:102720002E0200912F0210913002412F602FC6011E
:1027300040DF811110C082E090E0F7019183808337
:102740008AEF9FEFDF91CF911F910F91FF90EF9054
:10275000DF90CF900895C601F8DE882341F082E033
:1027600090E0F7019183808388EF9FEFEBCF4C815E
:102770005D816E817F819A8189818F3F41F082E006
:1027800090E0F701918380838EEF9FEFDBCFE3E151
:10279000EC9D9001ED9D300D1124E091CF03F0915F
:1027A000D003E20FF31F0190F081E02D2DE0029F96
:1027B000E00DF11D11240190F081E02D27E0129F22
:1027C000E00DF11D1124808391838B8182834383EB
:1027D0005483658376831F5F1093300281E090E01D
:1027E000F7019183808390E080E0ACCFEF92FF927D
:1027F0000F931F93CF93DF937A018C01060F171F5E
:10280000C091CF03D091D003209781F021E030E038
:10281000F801828193814091D1035091D2038417B2
:10282000950710F030E020E0232B71F482E090E077
:10283000F701918380838EEF9FEFDF91CF911F91FE
:102840000F91FF90EF90089543E1489F9001499FB9
:10285000300D1124C20FD31F78DE882341F082E0AF
:1028600090E0F7019183808388EF9FEFE6CFF80136
:102870002481358120383105C8F687818111D6CF72
:102880004181842F90E08F7E009741F082E090E0BC
:10289000F7019183808386EF9FEFCFCF4F833E83F5
:1028A0002D83268128871986223010F421E028877D
:1028B00021E030E0F70131832083BFCF88E090E052
:1028C000FA019183808390E080E00895FB018FEF0F
:1028D000808381E181838FEF9FEF9383828380E800
:1028E00090E095838483168217820895FB018FEF11
:1028F000808391E0918382839383848384E38583BF
:1029000081E090E0978386830895DF92EF92FF92B3
:102910000F931F93CF93DF93EA01FC01E60FF71F9C
:102920008181813071F082E090E0998388838FEF1C
:102930009FEFDF91CF911F910F91FF90EF90DF906C
:10294000089582819381D4802581E680F78000916B
:10295000CF031091D0030115110539F482E090E006
:10296000998388838CEF9FEFE4CF4091D1035091FE
:10297000D2038417950738F082E090E0998388832A
:102980008EEF9FEFD6CF892B39F082E090E09983CC
:10299000888386EF9FEFCDCF8D2D8D7FB1F72130CE
:1029A000A1F781E0D11006C091E0E916F10431F001
:1029B00080E004C0E2E0EE16F104D0F3882329F3AE
:1029C00090E080E0C2DD882339F082E090E09983D6
:1029D000888388EF9FEFADCFF801D38681E08487AD
:1029E000F686E586108A178681E090E099838883D1
:1029F00090E080E09ECF4CE050E065E872E057CA7E
:102A00008F929F92BF92CF92DF92EF92FF920F939D
:102A10001F93CF93DF93EA01FC01E60FF71F82813A
:102A200093810481B580E091CF03F091D00330977A
:102A300091F482E090E0998388838CEF9FEFDF919F
:102A4000CF911F910F91FF90EF90DF90CF90BF90AB
:102A50009F908F9008952091D1033091D2038217D7
:102A6000930738F082E090E0998388838EEF9FEFA0
:102A7000E6CF23E1289F6001299FD00C1124EC0DA3
:102A8000FD1DE080F180E114F10499F282810817C4
:102A900048F78DE0089F80011124E00EF11EF70138
:102AA00080819181892B29F6BB20E1F2F7E0BF9E5E
:102AB00040011124C4010E943B21F70191838083CE
:102AC000E091CF03F091D003EC0DFD1D0190F0815A
:102AD000E02DE00FF11F80819181009739F482E0B1
:102AE00090E0998388838DEF9FEFA9CFA40170E0D8
:102AF00060E00E947D338091CF039091D003C80E97
:102B0000D91EF60180819181080F191FF801B28248
:102B100081E090E09983888390E080E090CFAF924D
:102B2000BF92CF92DF92FF920F931F93CF93DF93C9
:102B3000EA01FC01E60FF71F82819381F480009186
:102B4000CF031091D0030115110581F482E090E0CC
:102B5000998388838CEF9FEFDF91CF911F910F9125
:102B6000FF90DF90CF90BF90AF9008952091D10358
:102B70003091D2038217930738F082E090E0998376
:102B800088838EEF9FEFE8CF2FEF2F0D2C3FA8F714
:102B900023E1289F6001299FD00C11240C0D1D1DDD
:102BA000F80180819181892B89F6FDE0FF9E50011B
:102BB0001124C5010E943B21F80191838083E0919B
:102BC000CF03F091D003EC0DFD1D80819181009722
:102BD00039F482E090E0998388838DEF9FEFBCCF3A
:102BE000A50170E060E00E947D33E091CF03F09199
:102BF000D003EC0DFD1DF28281E090E09983888383
:102C000090E080E0A9CFCF92DF92EF92FF920F93F6
:102C10001F93CF93DF93860F971FFC0102811381CF
:102C20008091CF039091D003892B81F082E090E0D6
:102C3000FA01918380838CEF9FEFDF91CF911F91F9
:102C40000F91FF90EF90DF90CF900895C801B0E012
:102C5000A0E00197A109B1098F3F9F4FA105B105E0
:102C600040F082E090E0FA01918380838EEF9FEF45
:102C7000E4CF7A0183E1809F6001819FD00C112411
:102C8000C6010E943B21EC01009741F482E090E0F4
:102C9000F701918380838DEF9FEFCFCFA60170E086
:102CA00060E00E947D33D093D003C093CF03109394
:102CB000D2030093D10390E080E02FEF3FEF41E09B
:102CC00061E070E08017910741F481E090E0F70146
:102CD0009183808390E080E0B0CF3A8B298B1B8674
:102CE0004C877E876D87188A1F8601966396EACF88
:102CF000EF92FF921F93CF93DF93EC0110E0F12C42
:102D0000E12C6A811617B0F083E0689FB0011124AE
:102D1000AE014F5E5F4FC7010E94A021009721F0D6
:102D20002FEF3FEF3A8B298BDF91CF911F91FF90CF
:102D3000EF900895612FCE018DDC61E070E00E947C
:102D4000E81FE816F90608F47C011F5FDACFF89453
:102D50002091CD033091CE0381E02115310509F09A
:102D600080E0232B09F0789408952F923F924F92A0
:102D70005F926F927F928F929F92AF92BF92CF920B
:102D8000DF92EF92FF920F931F93CF93DF933C015B
:102D9000660E771EF301828193814C01B12CA12C28
:102DA000C091CF03D091D003209769F021E030E0AB
:102DB0006091D1037091D2038617970710F030E02D
:102DC00020E0232BD1F482E090E0FA01918380830C
:102DD0008EEF9FEFDF91CF911F910F91FF90EF90BA
:102DE000DF90CF90BF90AF909F908F907F906F902B
:102DF0005F904F903F902F90089580923102909273
:102E00003202A0923302B092340263E1689F9001D3
:102E1000699F300D1124C20FD31FF30181818330CC
:102E200040F082E090E0FA019183808386EF9FEF8B
:102E3000D1CF2A012B813C81232BF1F428813981C8
:102E40009F8191FF2EC0232B09F46FC02091D403E2
:102E50009A81422F490F5527551FBA0141E050E092
:102E60006138710514F050E040E0452B09F45DC075
:102E70002A87920F9093D4038150823008F481C046
:102E800066DF882309F4D8C0F3018181813009F419
:102E90008DC008F47BC0823009F4C6C090E080E0A9
:102EA000ADC0232B09F441C02091D3039A81E22FB6
:102EB000E90FFF27FF1F41E050E0ED3FF10514F05F
:102EC00050E040E0452B89F12A87920F9093D3037D
:102ED000D3CFA081B181A20FB31F11966C91060FC1
:102EE000111D0196295F3F4F8417950794F38D8537
:102EF0009E85089F1001099F300C189F300C1124EB
:102F0000C114D104D1F48F8184FF17C00E943620F0
:102F1000F5E02F0E311C21E08215930508F420E026
:102F2000A701435F5F4F21110EC082E090E0F201E4
:102F30009183808387EF9FEF4DCF0E9436202FEF44
:102F4000221A320AE8CF88819981E80EF91EF7012A
:102F500014830383FFEFCF1ADF0A7A018A818C156D
:102F60001D0409F00CF48CCFE881F981EE0DFF1DF2
:102F7000428150E030E020E010E000E090E080E0AE
:102F8000B3CFF12CE12CD12CC12CE8CF81E090E023
:102F90009C838B83F1DA882309F480CF81E090E071
:102FA0000E94390F80E40E94470F78CF89899A895F
:102FB000019661F083E090E09C838B8382E090E057
:102FC0000E94390F80E40E94410F68CF8D819E815D
:102FD000209127023091280282179307D1F4609143
:102FE0002B0270912C02AE014F5E5F4F809129023F
:102FF00090912A020E94BF220097E1F2789422E089
:1030000030E0F20131832083892B99F08DEF9FEF1F
:10301000E1CE89288A288B2869F6029758F6CE01D6
:1030200067DE188A1F86E8CF82E090E09C838B835E
:1030300035CF90E080E0CECE82E090E0F201918347
:10304000808385EF9FEFC6CE8F929F92AF92BF9203
:10305000CF92DF92EF92FF920F931F93CF93DF9364
:10306000EA018C01060F171FF8018181833098F067
:1030700082E090E09983888386EF9FEFDF91CF9184
:103080001F910F91FF90EF90DF90CF90BF90AF9086
:103090009F908F9008958091CF039091D003892BBA
:1030A00061F081E090E02091D1033091D203232B95
:1030B00011F490E080E0892B39F482E090E099836C
:1030C00088838EEF9FEFDACF42DE882309F4E0C0D9
:1030D000F8018181813009F496C0E8F0823099F4DA
:1030E0002091D1033091D203E091CF03F091D0032E
:1030F00090E080E041E050E02817390709F0BEC0B9
:103100003BDA811117C0789481E090E0998388833D
:1031100090E080E0B3CF2091D1033091D203E091D1
:10312000CF03F091D00390E080E041E050E0281719
:10313000390741F481E090E00E94390F80E40E9459
:10314000470FE1CF63817481672B11F05483438370
:1031500001967396ECCFE091CF03F091D003E00F8E
:10316000F11F2381348122303105D9F4218932893C
:103170002F3F3F4FB1F42581368140912702509176
:1031800028022417350761F5AF014F5E5F4F60914C
:103190002B0270912C028091290290912A020E94A8
:1031A000BF22EFEFCE1ADE0AEE0AFE0A0D5E1F4FB7
:1031B0004091D1035091D20370E060E0C416D5066F
:1031C000E606F70644F5009731F27894892B09F466
:1031D0009BCF82E090E0998388838DEF9FEF4ECF65
:1031E000C114D104E104F104E1F622303105C8F63E
:1031F000CF017EDDE091CF03F091D003E00FF11F0E
:10320000108A1786CECF10E000E090E080E0C12C5D
:10321000D12C7601CDCF0097C1F610E000E0812CD3
:10322000912C540183E0E82EF12C1AC0E091CF03D9
:10323000F091D003E00FF11F83819481029749F44C
:10324000F482E38282E090E00E94390F80E40E94E1
:10325000410FFFEF8F1A9F0AAF0ABF0A0D5E1F4F83
:103260008091D1039091D203B0E0A0E08816990636
:10327000AA06BB06DCF290E080E0A7CF63817481F0
:103280006230710511F4548343830196739634CFF1
:1032900082E090E09983888385EF9FEFEFCE0097DF
:1032A000B9F48FEFFB01808320913102309132021B
:1032B00043E1429FC001439F900D1124E091CF0351
:1032C000F091D003E80FF91F8285FB0181830895F7
:1032D0000C94F00E88E090E0FA019183808390E0F6
:1032E00080E008951092CE031092CD03EFECF3E04E
:1032F00086E0DF011D928A95E9F78BEF94E19093C8
:10330000CC038093CB0308958091CB039091CC03A1
:1033100008952F923F924F925F926F927F928F9279
:103320009F92AF92BF92CF92DF92EF92FF920F9354
:103330001F93CF93DF93CDB7DEB72F970FB6F894D7
:10334000DEBF0FBECDBFF894E091CD03F091CE0368
:103350003196F093CE03E093CD0378944090CF0361
:103360005090D0034114510409F40CC2E091D103F0
:10337000F091D203EF2B09F405C22D8749875A87B4
:103380006B877C8798878F831201B12CA12C10E06A
:1033900000E08091D1039091D203A816B90618F4E9
:1033A0000115110529F1F8948091CD039091CE0378
:1033B00001979093CE038093CD037894C8012F9604
:1033C0000FB6F894DEBF0FBECDBFDF91CF911F9136
:1033D0000F91FF90EF90DF90CF90BF90AF909F90B4
:1033E0008F907F906F905F904F903F902F900895B7
:1033F0007101E418F508D10117968C91179781FD9A
:1034000054C013968D919C911497039709F04DC069
:1034100015968D919C91EF81F8858E179F0709F085
:1034200044C0B50190E080E07FD48A832091CF032F
:103430003091D0033D832C833D85332309F44CC068
:103440004C815D81452B09F49AC18091D103909103
:10345000D203A816B90608F092C1C501D7D88823AF
:10346000E9F06C817D816E0D7F1D7D836C83DB01B6
:103470001F968D919C91892B89F0D12CC12CF12C18
:10348000E12CAC81BD8112968C9112978E151F0490
:1034900009F094F450961C921E921F972A812223C1
:1034A00021F0B50190E080E041D43FEFA31AB30AC8
:1034B00043E1240E311C6DCFAC81BD81ED91FC91B7
:1034C000EC0DFD1D858196810FD7BFEFEB1AFB0A2E
:1034D000EDE0CE0ED11CD5CFEC81FD81309709F403
:1034E0004EC18091D1039091D203A816B90608F07D
:1034F00046C1EE0DFF1DFF87EE87C50187D88B8380
:10350000882339F1AE85BF851F968D919C91509788
:10351000019621E01D964D915C918417950709F065
:1035200020E02E831982712C10E000E0AE85BF856B
:1035300012968C91781608F45DC0EE85FF8587851C
:1035400090890196658576850E941D33908B8787CB
:10355000A5CFB1E0BE83E6CF992493946BC08BD600
:10356000F6019683858382C0D601ED90FC90B7E08A
:103570006B9EE00CF11C1124F70163817481808142
:103580008F3F61F121E030E002C0220F331F8A95A6
:10359000E2F7C901092E000CAA0BBB0BFB0140810D
:1035A00051816281738184239523A623B72321E06F
:1035B000892B8A2B8B2B09F420E0D4012C93D70183
:1035C00011968C91F60123853485820F932F911DDE
:1035D000880E991E1486138663949BC0418150E027
:1035E000C4010E947433EBCF998206EF1FEFC5C070
:1035F0001982C3C0F981F111A0CFEDE07E9E700168
:103600001124AE85BF85CD90DC90CE0CDF1C15D487
:103610009D838C83BB81BB2309F49ECF81E0EE8523
:10362000FF8527853089232B09F080E0982E882399
:1036300009F458C0672D8E859F850CD8D601189641
:103640009C938E93179761E070E0C2D4EE85FF855E
:10365000218932892F3F320709F481CFBC01C9018A
:10366000CFD7D60116969C938E931597D6011596B3
:103670008D919C911697009709F4B6CFEC81FD814E
:103680008E0F9F1F1A969C938E931997AE85BF85B8
:10369000ED91FC911197EE0EFF1EF7012185328509
:1036A000148613861A968C91870DD9018D9371100B
:1036B00016C0EE85FF85878184FF11C049855A8534
:1036C0006B857C85F9014183528363837483F701A1
:1036D000838594850496A80FB91F14861386F70175
:1036E000B287A187D60115968D919C911697892B4B
:1036F00009F443C0EE85FF8525813681809127023C
:10370000909128022817390779F019968D909C908E
:10371000612CD60112968C911297681608F424CF6A
:103720001A969C928E921997BE81BB2309F460CFA2
:1037300061E070E0F601878190854AD4D601179642
:10374000ED90FC90189715964D915C91E1E0F0E0BA
:10375000BA81BB2311F0F0E0E0E00C811D819C01F7
:10376000B501882799278E1B9F0B6AD38C01892B63
:1037700021F0F60185819681B7D57394D7CE0FEFEE
:103780001FEF8CCE10E000E00ECE2F923F924F92B2
:103790005F926F927F928F929F92AF92BF92CF92E1
:1037A000DF92EF92FF920F931F93CF93DF9380915D
:1037B000CF039091D00310E000E0892BA9F0C7DA85
:1037C0000AEF1FEF882381F02090D1033090D203BD
:1037D000C091CF03D091D003D12CC12C10E000E0D8
:1037E0002C143D04A9F47894C801DF91CF911F9166
:1037F0000F91FF90EF90DF90CF90BF90AF909F9090
:103800008F907F906F905F904F903F902F90089592
:10381000C6010E940613882309F18B819C810397BE
:10382000E9F48F859889892BC9F0B60190E080E092
:103830007BD221E030E0882311F030E020E0442406
:103840005524421A530AB12CA12C912C812C8A8127
:103850008815190409F038F4188A1F864FEFC41A26
:10386000D40A6396BDCFE881F981EA0DFB1D8581FD
:103870009681892BA1F161E070E087819085A8D3C2
:103880003C01DBD28C01E881F981EA0DFB1D8185C9
:10389000928525813681200F311FAC01421B530BCD
:1038A0009A0147815085421B530B70E060E00E94F3
:1038B0007D33E881F981EA0DFB1DE780F0844581C5
:1038C00056819301B601C201BBD28C01892B39F01C
:1038D000E881F981EA0DFB1D8581968105D55FEFB1
:1038E000851A950A8DE0A80EB11CB1CF30CA789424
:1038F00008952F923F924F925F926F927F929F9284
:10390000AF92BF92CF92DF92EF92FF920F931F93ED
:10391000CF93DF9300D000D0CDB7DEB70091CF03B7
:103920001091D003992493940115110509F43EC018
:10393000A090D103B090D2030ADA982E8823B1F177
:103940001092D0031092CF031092D2031092D103A1
:103950001092D3031092D4038FEF9FEFDC0180937A
:10396000310290933202A0933302B09334027894E0
:103970007FD31E830D83C12CD12C7601C501B0E00D
:10398000A0E089839A83AB83BC8322242A94322CBF
:1039900089819A81AB81BC81C816D906EA06FB06EB
:1039A000F4F0C801A1D480E40E94470F892D269627
:1039B0000FB6F894DEBF0FBECDBFDF91CF911F9140
:1039C0000F91FF90EF90DF90CF90BF90AF909F90BE
:1039D0007F906F905F904F903F902F900895AD81B2
:1039E000BE8115968D919C9116972091270230915A
:1039F000280282179307D1F451968D919C91EED5B0
:103A0000ED81FE8180819181B12CA12C412C512C22
:103A10003201892B89F5BFEFCB1ADB0AEB0AFB0ACF
:103A2000ED81FE817396FE83ED83B2CFC114D10484
:103A3000E104F10429F7029718F7ED81FE818189ED
:103A400092898F3F980709F029D5AD81BE815296A2
:103A50003C922E925197D4CF8A0D9B1DDC018D9103
:103A60009C91009709F040D4BFEF4B1A5B0A6B0A98
:103A70007B0AEDE0AE0EB11CAD81BE818D919C91B3
:103A8000119712964C9150E070E060E04416550694
:103A9000660677060CF328D4BECFCF93DF93EA01F6
:103AA00028DF811109C082E090E09983888385EF47
:103AB0009FEFDF91CF91089581E090E00E94390F50
:103AC00081E090E09983888390E080E0F2CF11DF7D
:103AD0001092CC031092CB03089542E050E06DECBD
:103AE00072E00C94570FFF920F931F93CF93DF93C5
:103AF0008A01EC01C60FD71FF980B9D20897F816D2
:103B0000190671F068F082E090E0F80191838083FB
:103B10008EEF9FEFDF91CF911F910F91FF9008954E
:103B20006C817D818E819F814B810E94EC1181117E
:103B300008C082E090E0F8019183808384EF9FEFDA
:103B4000E9CFF9800E94E7114F2D50E0BE01685F78
:103B50007F4F0E94743389810E94561281E090E069
:103B6000F8019183808390E080E0D4CFDF92EF92E0
:103B7000FF920F931F93CF93DF938A01EC01C60F3F
:103B8000D71F0E94E7117C01D98071D2DD2059F046
:103B9000029721E030E0D816190619F010F030E055
:103BA00020E0232B79F482E090E0F8019183808378
:103BB0008EEF9FEFDF91CF911F910F91FF90EF90CC
:103BC000DF900895EF2841F482E090E0F8019183BE
:103BD000808384EF9FEFEECFF9800E94E7114F2D95
:103BE00050E0BE016E5F7F4F0E94743389810E9456
:103BF000561281E090E0F8019183808390E080E0AC
:103C0000D9CF8DE69DE19093D6038093D503089597
:103C10008091D5039091D60308950895FC011182F7
:103C20001082938382830895DB011D921C92DC0134
:103C30001296ED91FC9113977183608313967C9398
:103C40006E9312970895FC0180819181DB018D9321
:103C50009C93A081B181109741F08D919C919183AB
:103C60008083892B11F4F383E2830895FC01808122
:103C70009181DB018D939C93892B11F47383628373
:103C8000718360830895FC01118210829383828383
:103C90000895CF93DF931F921F92CDB7DEB71A829C
:103CA0001982F894BE016F5F7F4F8CED93E0CBDFFC
:103CB00089819A81009709F017D389819A81892B8C
:103CC00089F7BE016F5F7F4F80EE93E0BCDF898193
:103CD0009A81009709F008D389819A81892B89F705
:103CE00078940F900F90DF91CF910895CF93DF9349
:103CF0001F921F92CDB7DEB71A821982F894BE01C7
:103D00006F5F7F4F88ED93E09EDF89819A810097F6
:103D100009F0EAD289819A81892B89F778940F90EA
:103D20000F90DF91CF91089581E0089590E080E0B9
:103D30000895EF92FF920F931F93CF93DF931F92FB
:103D40001F92CDB7DEB71A8219828091D70307EF91
:103D50001FEF8823A1F1F894BE016F5F7F4F80EEC3
:103D600093E071DF789489819A81EE24E394F12CB9
:103D7000892B51F4F894BE016F5F7F4F8CED93E077
:103D800062DF7894F12CE12C89819A810EEF1FEF8C
:103D90000097A9F0FC014281538164E070E076D67F
:103DA0008C01892B61F0F89469817A81C701880FB1
:103DB000991F880F991F84529C4F58DF7894C8012F
:103DC0000F900F90DF91CF911F910F91FF90EF9087
:103DD00008950F931F93CF93DF9300D01F92CDB719
:103DE000DEB71C821B821A8219828091D70307EFEB
:103DF0001FEF8823C1F0AE014D5F5F4F64E070E0BC
:103E0000CE010196B6D68C01892B69F4E981FA813D
:103E10008B819C8193838283F89469817A8188ED78
:103E200093E002DF7894C8010F900F900F900F90ED
:103E3000DF91CF911F910F910895BBD704960895FC
:103E40008F929F92AF92BF92CF92DF92EF92FF92AA
:103E50000F931F93CF93DF931F921F92CDB7DEB7BF
:103E60001A821982BC016F5F7F4F6330710598F031
:103E7000AA24AA94BA2CC5010F900F90DF91CF917C
:103E80001F910F91FF90EF90DF90CF90BF90AF9078
:103E90009F908F9008954115510551F348015901A4
:103EA0008A016C01CADF8815990511F7E114F10444
:103EB000F9F28E0D9F1DA816B906D0F28091D70396
:103EC0008823F1F0F894B501645071099701AE01AF
:103ED0004F5F5F4FC8010496E1D65C01892B71F4F6
:103EE00089819A81F80193838283C601880F991F83
:103EF000880F991FB80184529C4F96DE7894BBCFEF
:103F000087EFA82EBB24BA94B6CFAF92BF92CF92C0
:103F1000DF92EF92FF920F931F93CF93DF931F9245
:103F20001F92CDB7DEB71A821982892B09F047C0DC
:103F30006115710509F443C04115510509F43FC0ED
:103F40002115310509F43BC001151105C1F180911E
:103F5000D7038823B9F179016A015B01F894BE01A6
:103F60006F5F7F4F88ED93E06EDE789489819A8150
:103F7000009759F1DC0112966D917C91A80104968D
:103F8000A6D68C01E981FA81D501ED93FC9382815B
:103F900093810496F601918380834FDFD7018D933F
:103FA0009C93C8010F900F90DF91CF911F910F91BB
:103FB000FF90EF90DF90CF90BF90AF9008950FEFFC
:103FC0001FEFEFCF07EF1FEFECCF0EEF1FEFE9CFA3
:103FD000CF93DF93EC01672B71F4F4D68C179D0718
:103FE00060F0E7D62496C80FD91FE6D68C0F9D1F28
:103FF000DF91CF910895E3D6F1CF90E080E0F8CF44
:104000000F931F93CF93DF932091D70321112BC0E0
:104010008B01EC018CED93E001DE80EE93E0FEDDA0
:1040200088ED93E0FBDD97D00097C1F4CBD670E02C
:1040300060E0CEDF45E352E062E070E081D10097BE
:1040400069F48091350290913602CED6B801CE0146
:1040500003D5009719F421E02093D703DF91CF9186
:104060001F910F91089584EF9FEFF8CFA8C6AAC6BD
:10407000CF93DF93AAD6EC01892B11F40ADE36DE4A
:10408000CE01DF91CF910895CF93DF939ED6EC01BF
:10409000892B09F4FEDDCE01DF91CF910895809147
:1040A0003502909136020895CF93DF938091D70324
:1040B000D0E0C0E08823D1F09CD6EC01892BB1F48C
:1040C000E8DD14DE8091350290913602E7D1E8D226
:1040D000EC01892B59F48CED93E0D5DD80EE93E073
:1040E000D2DD88ED93E0CFDD1092D703CE01DF91D2
:1040F000CF910895EF92FF920F931F93CF93DF9389
:10410000EC017A018B010F5F1F4F0E9DA0010F9DE7
:10411000500D1E9D500D112470E060E00E947D3313
:1041200090E080E0F0E0E0E02FEFE816F90639F4E7
:10413000DF91CF911F910F91FF90EF9008951A8218
:1041400019822883309711F0D283C1830196FE0132
:10415000C00FD11FEACFCF92DF92EF92FF920F9361
:104160001F93CF93DF930FEE14E00C7F43E050E0FA
:1041700067E372E08DE392E01CD487E3E82E82E0EF
:10418000F82E9DE3C92E92E0D92ECEE5D5E0D701D9
:104190004D915D917D01F601619171916F011983DE
:1041A00008835D834C835B834A837F836E839B019B
:1041B0002F5F3F4F249FC001259F900D349F900D8E
:1041C0001124998788870115110511F0C80192DF24
:1041D00088859985080F191F2A96FDE3EF16F2E0EE
:1041E000FF06A9F6E6EEF3E086E091E0DF019C0130
:1041F0001D9221503040E1F71092E5031092E40344
:1042000010927D0510927C05109281051092800518
:1042100010927F0510927E05109283051092820500
:1042200010928505109284051092870510928605DC
:1042300010928B0510928A051092890510928805BC
:1042400010928D0510928C0510928F0510928E059C
:1042500010925B0510925A0510925D0510925C0554
:1042600090E080E0DF91CF911F910F91FF90EF9050
:10427000DF90CF9008950097F1F0F894ADE3B2E0AD
:10428000EEE5F5E030E020E04D915D9148175907EB
:10429000A8F0428153814115510581F08AE0829F47
:1042A000F001839FF00D1124E25AFA4F8081918131
:1042B000009759F4789490E080E008952F5F3F4F85
:1042C0003A962330310501F7F5CFDC0111966D9157
:1042D0007C91718360834150510953834283FC0177
:1042E0002193CF0178940895009749F1DC018E91D4
:1042F000853041F4E0915C05F0915D053097F9F06F
:10430000CD0119948530D8F4282F30E0F8948FEF40
:104310008C938AE0829FF001839FF00D1124E25A72
:10432000FA4F8081918112969C938E931197B1835D
:10433000A0838281938101969383828378940895E8
:10434000CF92DF92EF92FF920F931F93CF93DF9361
:104350009C0189EE93E08C7F4115510509F49BC0C7
:104360002115310509F497C06115710509F493C051
:104370007A01AB01B9016D5F7F4F6C7F9B012F5FAD
:104380003F4F249F8001259F100D349F100D112455
:10439000F89420917C0530917D05232B59F42091D0
:1043A0008405309185052115310569F12017310704
:1043B00008F058C02091860530918705232B91F491
:1043C0002091840530918505820F931F20918E05E1
:1043D00030918F052115310509F441C020173107AF
:1043E00008F056C07894CFEFDFEF86EF9FEFF7012C
:1043F000D183C083DF91CF911F910F91FF90EF90F8
:10440000DF90CF900895C3E0D0E0C090E403D09057
:10441000E50323E031E02C193D092017310710F3A3
:104420002AE02C9FF0012D9FF00D1124E25AFA4F43
:104430009183808355834483538342837783668348
:1044400011870087009709F055DE0C0D1D1D109394
:10445000E5030093E403789490E080E0C8CFC4E0E3
:10446000D0E0D3CFC3E0D0E02AE02C9FF0012D9F15
:10447000F00D1124E25AFA4F9183808355834483CF
:104480005383428377836683009729F333DEE3CF38
:10449000C4E0D0E0E9CF8FEF9FEFACCF9C01039752
:1044A000029708F069C0F89484E09AE0482F50E041
:1044B000241735070CF44DC091E08AE0829FF0018B
:1044C000839FF00D1124E25AFA4F11821082158257
:1044D000148213821282178216829923B1F180917D
:1044E0007C0590917D05892BA9F42091840530915C
:1044F00085052115310571F08091E4039091E50364
:10450000821B930B9093E5038093E403109285053F
:10451000109284058091860590918705892BA9F4D6
:1045200020918E0530918F052115310571F0809114
:10453000E4039091E503821B930B9093E503809332
:10454000E40310928F0510928E05789490E080E03D
:104550000895949FF001959FF00D1124E25AFA4FAF
:1045600040815181452B31F440855185452B11F413
:1045700081509CCF90E0A1CF8FEF9FEF0895411520
:10458000510549F1009739F16115710521F1F89450
:1045900020915A0530915B05232BB9F420915C05DD
:1045A00030915D05232B89F490935B0580935A0528
:1045B00070935D0560935C05789425E030E090E0B1
:1045C00080E0FA0131832083089578942FEF3FEF44
:1045D00086EF9FEFF6CF8FEF9FEF0895059769F471
:1045E000F89410925B0510925A0510925D05109296
:1045F0005C05789490E080E008958FEF9FEF089538
:104600006115710519F4F0E0E0E011C08530910505
:1046100081F4E0915A05F0915B053097A1F3CB014D
:1046200001961995009779F3FC0185E08193CF01FC
:1046300008959C01235031092230310520F72AE0EA
:10464000289FD001299FB00D1124A25ABA4F2D9155
:104650003C911197232BB9F216962D913C91179707
:104660002617370780F2F89412962D913C911397F4
:104670002115310529F0ED91FC911197309711F436
:104680007894C1CF4181528111965C934E93215011
:10469000310913963C932E93129781937894C7CF48
:1046A000ECEEF4E08EE6DF011D928A95E9F7E6EE86
:1046B000F3E086E091E0DF019C011D922150304043
:1046C000E1F71092E5031092E403EEE5F5E082E3F2
:1046D000DF011D928A95E9F7EAE5F5E084E0DF0164
:1046E0001D928A95E9F790E080E00895CF93DF93DB
:1046F000C0914302D0914402CF3FDC0759F423D448
:10470000909344028093430297FF09C0D0934402E0
:10471000C093430284EF9FEFDF91CF91089590E023
:1047200080E0FACF8230910528F48093900590E0E4
:1047300080E008958FEF9FEF08954F925F926F9200
:104740007F92AF92BF92CF92DF92EF92FF920F9340
:104750001F93CF93DF931F921F92CDB7DEB71A82BC
:104760001982009709F479C06115710509F475C0C3
:10477000209143023091440207EF1FEF2F3F3F4F3C
:1047800009F445C06B015C01412C512C3201F12C24
:10479000E12C10E000E09E012F5F3F4FA6014E1973
:1047A0005F09B5016E0D7F1D809143029091440217
:1047B00029D4892B09F04BC089819A81009741F453
:1047C000E114F10429F420919005222309F442C058
:1047D000E80EF91EEC14FD04D0F480E8481684E8D5
:1047E00058068EE16806710420F560E070E0CB01A8
:1047F0000E94282D2AE0420E511C611C711C0A3FA8
:104800004FEF140721F0043F8FEF1807A1F4C80100
:104810000F900F90DF91CF911F910F91FF90EF902C
:10482000DF90CF90BF90AF907F906F905F904F9050
:10483000089501EF1FEF81E090E0013F2FEF120795
:1048400011F090E080E0892B09F4A5CFE0CF04EFD0
:104850001FEFDDCF0AEF1FEFDACF0FEF1FEFD7CF3C
:104860004F925F926F927F92AF92BF92CF92DF9200
:10487000EF92FF920F931F93CF93DF931F921F929C
:10488000CDB7DEB71A821982009709F479C0611595
:10489000710509F475C0209143023091440207EF7D
:1048A0001FEF2F3F3F4F09F445C06B015C01412CC6
:1048B000512C3201F12CE12C10E000E09E012F5F21
:1048C0003F4FA6014E195F09B5016E0D7F1D809106
:1048D0004302909144024CD3892B09F04BC089814B
:1048E0009A81009741F4E114F10429F42091900594
:1048F000222309F442C0E80EF91EEC14FD04D0F4A2
:1049000080E4481682E458068FE06806710420F5BA
:1049100060E070E0CB010E94282D2AE0420E511C7D
:10492000611C711C0E3F4FEF140721F0043F8FEF05
:104930001807A1F4C8010F900F90DF91CF911F913C
:104940000F91FF90EF90DF90CF90BF90AF907F904E
:104950006F905F904F90089502EF1FEF81E090E01D
:10496000023F2FEF120711F090E080E0892B09F44D
:10497000A5CFE0CF04EF1FEFDDCF0EEF1FEFDACFB3
:104980000FEF1FEFD7CF80914302909144028F3FEA
:10499000980749F0D0D2892B49F48FEF9FEF90937D
:1049A00044028093430290E080E0089584EF9FEFFB
:1049B0000895CF92DF92EF92FF920F931F93CF93C0
:1049C000DF9321E04115510509F020E041505109E4
:1049D00021112CC0DC01FB01D12CC12C21E022C013
:1049E0003FEFC31AD30A7D010D911D91E701EA80C3
:1049F000FB80E016F106A8F420813181E280F3808B
:104A0000F182E08233832283ED90FC9011979D0127
:104A100022503109E901F982E88211961C930E9324
:104A200020E03296C416D506D8F2D2CFDF91CF91CE
:104A30001F910F91FF90EF90DF90CF900895FC01B0
:104A4000680F791F90E080E0E617F70709F40895F2
:104A50002191820F911DF8CF20919105211113C052
:104A600045DE009791F410929705109296051092EA
:104A7000950510929405109293051092920521E0ED
:104A800020939105089584EF9FEF0895AF92BF9210
:104A9000CF92DF92EF92FF920F931F93CF93DF930A
:104AA000009709F460C04630510508F45CC02091BD
:104AB0009105C7EFDFEF222309F449C08C01060FEF
:104AC000171FF801C080D180C114D10409F44EC071
:104AD00096012A5F3F4F4217530708F447C07C01F5
:104AE000809196059091970593838283B6016C5FC0
:104AF0007F4F5801A60EB71EC801A1DFF5019183B3
:104B0000808364E070E0C80118DEEC01892BF9F4C1
:104B100081E090E007DEB601C80104960EDEEC01EC
:104B2000892B91F462E070E0C50107DEEC01892B6E
:104B300059F4C701D9DB80919605909197050196AC
:104B4000909397058093960590E080E0EBDDCE0191
:104B5000DF91CF911F910F91FF90EF90DF90CF9059
:104B6000BF90AF900895CFEFDFEFF1CFC9EFDFEF48
:104B7000EECF6F927F928F929F92AF92BF92CF9221
:104B8000DF92EF92FF920F931F93CF93DF9300D0AA
:104B90001F92CDB7DEB7009709F47AC041155105D1
:104BA00009F476C02091910507EF1FEF222309F445
:104BB0004DC03A017B015C0164E070E0CE010196DA
:104BC0004FDE8C01892B09F041C009811A81011542
:104BD000110509F45AC0480186E0880E911CB701FE
:104BE000680D791D809145029091460209DD6C01A6
:104BF000009709F450C0A70170E060E00E947D3387
:104C000089819A81AB81BC81EC0CFD1CF7018193F9
:104C10009193A193B1937F0181E090E083DDB8018E
:104C2000C7011EDE892B31F562E070E0C701800FFD
:104C3000911F16DE8C01892BE9F490E080E072DD93
:104C4000F501D182C082F30191828082C8010F9068
:104C50000F900F900F90DF91CF911F910F91FF90C8
:104C6000EF90DF90CF90BF90AF909F908F907F900C
:104C70006F90089590E080E055DDF501118210827B
:104C8000F30111821082C6012FDB09EF1FEFDECF87
:104C90000FEF1FEFDBCF06EF1FEFD8CF0097A1F08C
:104CA0004115510589F02115310571F0F90136964C
:104CB0006E177F0748F0DC012D933C93DA01ED93EA
:104CC000FC9390E080E008958FEF9FEF0895AF92FE
:104CD000BF92CF92DF92EF92FF920F931F93CF93E9
:104CE000DF93009709F45FC04115510509F45BC0DB
:104CF0006530710508F457C020919105C7EFDFEFCB
:104D0000222391F1DC01CD90DC9011971296ED9168
:104D1000FC9196012A5F3F4FC9EFDFEF2617370757
:104D200019F5C0919205D0919305209749F521E09E
:104D300030E030939305209392057A018C01F09333
:104D40009505E09394055601B4E0AB0EB11CB50196
:104D500076DE0A0D1B1DF801208131818217930731
:104D600029F5D701CD92DC92CE01DF91CF911F9131
:104D70000F91FF90EF90DF90CF90BF90AF9008958C
:104D800020919405309195052F5F3F4FCCEFDFEFD9
:104D9000E217F30790F2CBEFDFEF2E173F0768F231
:104DA000D0E0C0E0CACFCFEFDFEFDECFC3EFDFEF61
:104DB000DBCF84E090E0089582E090E008958CEFEE
:104DC0009FEF089580E290E0089510929705109269
:104DD00096051092950510929405109293051092E5
:104DE000920590E080E008959093460280934502FA
:104DF000089580919105882391F0C5DD009789F48D
:104E000010929705109296051092950510929405B0
:104E1000109293051092920510929105089590E0DA
:104E200080E00895009749F06115710531F0FC01AB
:104E300011821082FB01118210820895F3CF26E0C7
:104E400030E040E855E260E070E090E080E000C0D3
:104E50008130910571F01CF4892B39F0089582306E
:104E6000910551F0039759F0089585EA95E00C9467
:104E7000503082E496E0FBCF8FED96E0F8CF8CE7E0
:104E800097E0F5CF1F920F920FB60F9211240BB639
:104E90000F922F933F934F935F936F937F938F93D3
:104EA0009F93AF93BF93EF93FF938BEC93EF90930C
:104EB000250180932401BAD0FF91EF91BF91AF916A
:104EC0009F918F917F916F915F914F913F912F9122
:104ED0000F900BBE0F900FBE0F901F9018958BEC8C
:104EE00093EF9093250180932401A3E7B0E08C9188
:104EF0008E7F8C93E0E2F1E080818C7F8083E1E221
:104F0000F1E08081877E80838081856080838081DD
:104F10008D7F80838C9181608C930895E3E7F0E02E
:104F2000808190819E7F90838170089581E00895B3
:104F300010929805089568EE73E080E090E088D5BF
:104F400090E080E0089526E030E040E050E16EE03F
:104F500070E090E080E07CDF85EA95E0D7D7892B90
:104F600021F085EA95E0ECD7F7CF90E080E0089556
:104F7000CF92DF92EF92FF920F931F93CF93DF9325
:104F80006B017A01E9011982188285EA95E0BED7A2
:104F9000892B69F18601CC24C39482E0D82E8091BC
:104FA0009805811110C085EA95E0CAD70297B9F734
:104FB000C0929805F801D1928F018881998101965C
:104FC00099838883ECCF888199818E159F0578F429
:104FD00085EA95E0B5D78F3F9807A9F3F80181934B
:104FE0008F0188819981019699838883ECCF90E025
:104FF00080E0DF91CF911F910F91FF90EF90DF90B4
:10500000CF9008950F931F93CF93DF93EA01890107
:1050100085EA95E00E94E032F801D183C08390E0F8
:1050200080E0DF91CF911F910F910895CF92DF9291
:10503000EF92FF928091990591E0980F90939905D6
:10504000882369F021E030E030939B0520939A0596
:1050500080939905FF90EF90DF90CF90089578941A
:10506000E0915902F0915A02C28CD38CE48CF58CF9
:105070000E946B06B701A60190E080E00E94D30475
:10508000F894809199058150E3CF0F931F93CF93AC
:10509000DF93109268081092670810D5D0DEC09197
:1050A0005902D0915A02198218826FEF7FEFCB011B
:1050B0000E94560570E060E090E080E00E94D70317
:1050C000009709F03AC00E947607F8947894BE01E0
:1050D0006F5C7F4F8A819B810E94DA03892B59F490
:1050E0006FEF7FEFCB010E9469040E945005882377
:1050F00011F081E08DABF894F2DE0E945305882315
:1051000011F080E008C00E9450058111FACF81E0C3
:105110009DA99111F6CF8093670878940E94340F6F
:105120008C0178948091670881110CC00E946208FC
:105130000E943505F89490E080E0DF91CF911F91B7
:105140000F9108950E9433050E9453058823D9F0DA
:1051500081E0809368089091680881E0911180E077
:1051600080936708809168088111D8DE01301105AD
:1051700029F40E94340F892B09F4DADE0E94340FDF
:105180008C01D4DECFCF0E9450058111E1CF81E0A8
:105190009DA99111DECF80E0DCCF5058BB27AA2714
:1051A0000ED05CC14DD130F052D120F031F49F3F90
:1051B00011F41EF442C10EF4E095E7FB0FC1E92F94
:1051C0005ED180F3BA17620773078407950718F05A
:1051D00071F49EF58DC10EF4E0950B2EBA2FA02D23
:1051E0000B01B90190010C01CA01A0011124FF2794
:1051F000591B99F0593F50F4503E68F11A16F0408F
:10520000A22F232F342F4427585FF3CF469537958D
:105210002795A795F0405395C9F77EF41F16BA0B52
:10522000620B730B840BBAF09150A1F0FF0FBB1F00
:10523000661F771F881FC2F70EC0BA0F621F731F49
:10524000841F48F4879577956795B795F7959E3FA6
:1052500008F0B3CF9395880F08F09927EE0F979534
:10526000879508952ED180F09F3740F491110EF468
:1052700040C160E070E080E89FE3089526F01B16CF
:10528000611D711D811DB0C0CAC084D008F481E0C9
:10529000089504D06894B1112CC10895F8D088F015
:1052A0009F5790F0B92F9927B751A0F0D1F0660F12
:1052B000771F881F991F1AF0BA95C9F712C0B1302D
:1052C00081F016D1B1E0089513C1672F782F882798
:1052D000B85F39F0B93FCCF3869577956795B3956C
:1052E000D9F73EF490958095709561957F4F8F4FDB
:1052F0009F4F0895E89409C097FB3EF490958095E0
:10530000709561957F4F8F4F9F4F9923A9F0F92F8B
:1053100096E9BB279395F695879577956795B79509
:10532000F111F8CFFAF4BB0F11F460FF1BC06F5FEF
:105330007F4F8F4F9F4F16C0882311F096E911C001
:10534000772321F09EE8872F762F05C0662371F022
:1053500096E8862F70E060E02AF09A95660F771F36
:10536000881FDAF7880F9695879597F90895A9D041
:1053700080F09F3740F491110EF0BBC060E070E008
:1053800080E89FEB089526F41B16611D711D811D99
:105390002BC045C0990F0008550FAA0BE0E8FEEF9F
:1053A00016161706E807F907C0F012161306E407E9
:1053B000F50798F0621B730B840B950B39F40A26E2
:1053C00061F0232B242B252B21F408950A2609F4C0
:1053D000A140A6958FEF811D811D089597F99F67C4
:1053E00080E870E060E00895882371F4772321F06D
:1053F0009850872B762F07C0662311F499270DC08C
:105400009051862B70E060E02AF09A95660F771F26
:10541000881FDAF7880F9695879597F908959F3F2B
:1054200031F0915020F4879577956795B795880F5F
:10543000911D9695879597F908959FEF80EC0895B3
:1054400000240A9416161706180609060895002463
:105450000A9412161306140605060895092E0394DD
:10546000000C11F4882352F0BB0F40F4BF2B11F451
:1054700060FF04C06F5F7F4F8F4F9F4F089557FDB0
:105480009058440F551F59F05F3F71F04795880FB2
:1054900097FB991F61F09F3F79F087950895121649
:1054A00013061406551FF2CF4695F1DF08C01616F5
:1054B00017061806991FF1CF8695710561050894A6
:1054C0000895E5DFA0F0BEE7B91788F4BB279F3841
:1054D00060F41616B11D672F782F8827985FF7CFD5
:1054E000869577956795B11D93959639C8F308957C
:1054F000E894BB2766277727CB0197F908954ADF01
:1055000008F48FEF08950BD0A9CF9ADF28F09FDF22
:1055100018F0952309F062CF90CF1124EACFAFDFC6
:10552000A0F3959FD1F3950F50E0551F629FF001B6
:10553000729FBB27F00DB11D639FAA27F00DB11D0F
:10554000AA1F649F6627B00DA11D661F829F222798
:10555000B00DA11D621F739FB00DA11D621F839F1F
:10556000A00D611D221F749F3327A00D611D231FF5
:10557000849F600D211D822F762F6A2F11249F5743
:1055800050408AF0E1F088234AF0EE0FFF1FBB1F66
:10559000661F771F881F91505040A9F79E3F510505
:1055A00070F01CCFA6CF5F3FECF3983EDCF38695FE
:1055B00077956795B795F795E7959F5FC1F7FE2BB0
:1055C000880F911D9695879597F9089508958830CD
:1055D00008F076C0E82FF0E0EE0FFF1FE95BFD4F0B
:1055E000718360838150873008F03DC0E82FF0E080
:1055F0008827E250F54D8F4F0C9453333B2B052BEE
:105600000D2B192B262B472B542B809169008C7F57
:10561000482B40936900E89A089580916900837F40
:10562000440F551F440F551F482B40936900E99ABA
:105630000895809169008F7C74E0440F551F7A951E
:10564000E1F7482B40936900EA9A08958091690038
:105650008F7366E0440F551F6A95E1F7482B40931E
:105660006900EB9A089580916A008C7F482B4093E3
:105670006A00EC9A089580916A00837F440F551F59
:10568000440F551F482B40936A00ED9A089580916E
:105690006A008F7C24E0440F551F2A95E1F7482BC0
:1056A00040936A00EE9A089580916A008F7396E0A5
:1056B000440F551F9A95E1F7482B40936A00EF9AE3
:1056C00008951F920F920FB60F9211240BB60F92EE
:1056D0002F933F934F935F936F937F938F939F93FA
:1056E000AF93BF93EF93FF93E0914B02F0914C0285
:1056F0001995FF91EF91BF91AF919F918F917F91FC
:105700006F915F914F913F912F910F900BBE0F9032
:105710000FBE0F901F9018951F920F920FB60F9209
:1057200011240BB60F922F933F934F935F936F9378
:105730007F938F939F93AF93BF93EF93FF93E091EA
:105740004D02F0914E021995FF91EF91BF91AF91EB
:105750009F918F917F916F915F914F913F912F9189
:105760000F900BBE0F900FBE0F901F9018951F92B9
:105770000F920FB60F9211240BB60F922F933F93F7
:105780004F935F936F937F938F939F93AF93BF9349
:10579000EF93FF93E0914F02F09150021995FF9122
:1057A000EF91BF91AF919F918F917F916F915F9199
:1057B0004F913F912F910F900BBE0F900FBE0F9006
:1057C0001F9018951F920F920FB60F9211240BB6CF
:1057D0000F922F933F934F935F936F937F938F938A
:1057E0009F93AF93BF93EF93FF93E0915102F0919A
:1057F00052021995FF91EF91BF91AF919F918F91B7
:105800007F916F915F914F913F912F910F900BBEC0
:105810000F900FBE0F901F9018951F920F920FB60A
:105820000F9211240BB60F922F933F934F935F93D8
:105830006F937F938F939F93AF93BF93EF93FF9358
:10584000E0914702F09148021995FF91EF91BF91C5
:10585000AF919F918F917F916F915F914F913F9108
:105860002F910F900BBE0F900FBE0F901F901895A9
:105870001F920F920FB60F9211240BB60F922F9317
:105880003F934F935F936F937F938F939F93AF93C8
:10589000BF93EF93FF93E0914902F0914A0219956B
:1058A000FF91EF91BF91AF919F918F917F916F91F8
:1058B0005F914F913F912F910F900BBE0F900FBEB4
:1058C0000F901F9018951F920F920FB60F921124F0
:1058D0000BB60F922F933F934F935F936F937F93EA
:1058E0008F939F93AF93BF93EF93FF93E0915302F6
:1058F000F09154021995FF91EF91BF91AF919F9153
:105900008F917F916F915F914F913F912F910F9068
:105910000BBE0F900FBE0F901F9018951F920F9205
:105920000FB60F9211240BB60F922F933F934F9304
:105930005F936F937F938F939F93AF93BF93EF93F7
:10594000FF93E0915502F09156021995FF91EF9166
:10595000BF91AF919F918F917F916F915F914F9187
:105960003F912F910F900BBE0F900FBE0F901F9085
:1059700018951F920F920FB60F9211242F933F93F9
:105980008F939F93AF93BF9380919D0590919E05B8
:10599000A0919F05B091A00530919C0523E0230FB5
:1059A0002D3758F50196A11DB11D20939C058093BC
:1059B0009D0590939E05A0939F05B093A0058091AF
:1059C000A1059091A205A091A305B091A40501960F
:1059D000A11DB11D8093A1059093A205A093A305DD
:1059E000B093A405BF91AF919F918F913F912F915B
:1059F0000F900FBE0F901F90189526E8230F029668
:105A0000A11DB11DD2CF3FB7F8948091A10590910F
:105A1000A205A091A305B091A40526B5A89B05C039
:105A20002F3F19F00196A11DB11D3FBFBA2FA92F1D
:105A3000982F8827BC01CD01620F711D811D911D1A
:105A400042E0660F771F881F991F4A95D1F7089586
:105A50008F929F92AF92BF92CF92DF92EF92FF927E
:105A60006B017C01D0DF4B015C01C114D104E10466
:105A7000F104D9F0D2D5C7DF681979098A099B09E1
:105A8000683E73408105910580F321E0C21AD10878
:105A9000E108F10888EE880E83E0981EA11CB11C75
:105AA000C114D104E104F10431F7FF90EF90DF90CD
:105AB000CF90BF90AF909F908F900895789484B5C9
:105AC000826084BD84B5816084BD85B5826085BDFA
:105AD00085B5816085BDEEE6F0E0808181608083E0
