:1000000075C00000A4C00000A2C00000A0C0000095
:100010009EC000009CC000009AC0000098C0000074
:1000200096C0000094C0000092C0000090C0000084
:100030008EC000008CC000008AC0000088C0000094
:1000400086C0000084C0000082C0000080C00000A4
:100050007EC000007CC000007AC000000C943D25EA
:1000600076C000000C946E270C94A42770C000008A
:100070006EC000006CC000006AC0000068C00000D4
:1000800066C0000064C0000062C0000060C00000E4
:100090000C94FA270C9430285AC0000058C0000075
:1000A00056C0000054C0000052C0000050C0000004
:1000B0004EC000004CC000004AC0000048C0000014
:1000C00046C0000044C000000C94A4220C94862872
:1000D0000C94BC283CC000000C9412290C944829B4
:1000E00036C00000CD275928E528712911241FBEEC
:1000F000CFEFD1E2DEBFCDBF00E00CBF13E0A0E048
:10010000B2E0E8E8F4E500E00BBF02C007900D9212
:10011000AA30B107D9F729E0AAE0B3E001C01D92E7
:10012000AE35B207E1F710E0C6E7D0E000E006C068
:1001300021970109802FFE010E94112AC237D107A1
:1001400080E00807A9F70E9490230C94422A58CF18
:1001500090E080E008950F931F93009709F487C003
:100160006115710509F483C000913C0210913D02B4
:1001700020913E0230913F020E3F1F4F2F4F3F4FC5
:1001800009F066C04FEF5FEFBA0140933C02509315
:100190003D0260933E0270933F0240913C025091B9
:1001A0003D0260913E0270913F02DC011296ED919A
:1001B000FC9180819181A281B3818093040490930A
:1001C0000504A0930604B093070484819581A68159
:1001D000B7818093000490930104A0930204B0932C
:1001E000030480859185A285B3858093FC03909359
:1001F000FD03A093FE03B093FF0384859585A68538
:10020000B7858093F8039093F903A093FA03B09312
:10021000FB031092F4031092F5031092F603109270
:10022000F70379D580EB96E090930B0380930A0354
:1002300090930D0380930C035DD4009731F421E07B
:1002400030E030930904209308041F910F91089522
:1002500000913C0210913D0220913E0230913F02FC
:10026000DB010D931D932D933C93139796CF8FEF46
:100270009FEFEBCF8F929F92AF92BF92CF92DF9280
:10028000EF92FF921F93CF93DF934B015C0110918C
:100290000B0482E090E09093090480930804811499
:1002A0009104A104B10441F480910B04811104C0B4
:1002B00080910A04C1E08111C0E0C12CD12C7601EB
:1002C00080910B04811106C080910A04811102C043
:1002D000CC23D9F083E090E0909309048093080444
:1002E000CC2379F1CCE9DFEF111102C00E94150A8D
:1002F000CE01DF91CF911F91FF90EF90DF90CF90D3
:10030000BF90AF909F908F9008956AE070E080E07A
:1003100090E00E94AC2580E1C80E87E2D81EE11C67
:10032000F11C8FEF88169806A806B80631F0C1E0D8
:100330008C149D04AE04BF0408F0C0E080E00ED42D
:10034000BFCFD0E0C0E0D0CFCF92DF92EF92FF924C
:100350000F931F93CF93DF938F3F910511F008F018
:1003600050C020910804309109042330310539F040
:1003700020910804309109042130310531F424E042
:1003800030E030930904209308046A017B01EC01FA
:1003900082309105A0F011E0AE01C701B601A9D3EA
:1003A000AB01BC01CE011123F9F0DF91CF911F9178
:1003B0000F91FF90EF90DF90CF900C943E0C8C014A
:1003C000000F111F065F1C4FD8018D919C91892B46
:1003D00011F30E94480C0297F1F6D801ED91FC91BF
:1003E000CE011995182FD8CF0E94600C90E080E0C4
:1003F000DF91CF911F910F91FF90EF90DF90CF9001
:1004000008958FEF9FEFF4CF80E0A8C3CF93DF93E1
:1004100086E090E09093090480930804F8D3EC01FF
:10042000EAE0F3E084E0DF011D928A95E9F795D7D1
:100430001092090410920804CE01DF91CF91089523
:1004400080910A0408958091F303089560933C021B
:1004500070933D0280933E0290933F0290E080E0D3
:100460000895CF92DF92EF92FF92CF93DF93809126
:100470005B098150D3E0823008F0D0E0D0935B0973
:1004800080915A098150C3E0823008F0C0E0C093E7
:100490005A09E091CD03F091CE03C080D180E28073
:1004A000F380A70196016091000270910102809192
:1004B0000202909103020E94852418160CF026C1B6
:1004C0008091040290910502A0910602B09107026A
:1004D00080932E0990932F09A0933009B09331098E
:1004E00020E030E040E050E460912E0970912F0947
:1004F00080913009909131090E94852418160CF0E2
:1005000012C180910C0290910D02A0910E02B09147
:100510000F028093320990933309A0933409B0936A
:100520003509DD2309F4FBC0D33009F4FAC0D093B8
:100530005B09A701960160911402709115028091E8
:100540001602909117020E94852418160CF006C11D
:100550008091180290911902A0911A02B0911B0289
:100560008093360990933709A0933809B0933909DD
:10057000209128023091290240912A0250912B02A9
:100580006091360970913709809138099091390945
:100590000E94852418160CF0EAC0809120029091E8
:1005A0002102A0912202B091230280933A099093F4
:1005B0003B09A0933C09B0933D09A70196016091C6
:1005C0002C0270912D0280912E0290912F020E9498
:1005D000852418160CF0D4C080913002909131021D
:1005E000A0913202B091330280933E0990933F096B
:1005F000A0934009B0934109809146099091470921
:10060000A0914809B0914909809342099093430908
:10061000A0934409B093450980914A0990914B09F0
:10062000A0914C09B0914D098093460990934709D8
:10063000A0934809B093490980913E0990913F09E0
:10064000A0914009B091410980934A0990934B09C8
:10065000A0934C09B0934D094091BA035091BB034C
:100660006091BC037091BD0390E080E06DDE40912D
:10067000C2035091C3036091C4037091C50381E02C
:1006800090E062DE6091BA037091BB038091BC037D
:100690009091BD036F5F7F4F8F4F9F4F6093BA0361
:1006A0007093BB038093BC039093BD03C091CD03B3
:1006B000D091CE030E9424249B01AC016091BE0323
:1006C0007091BF038091C0039091C1030E9489245F
:1006D000688379838A839B838091C2039091C3034B
:1006E000A091C403B091C5030196A11DB11D8093D3
:1006F000C2039093C303A093C403B093C503DF91D7
:10070000CF91FF90EF90DF90CF90089580910802F5
:1007100090910902A0910A02B0910B02D9CED2E0C9
:1007200006CFD1E004CF8091100290911102A091E8
:100730001202B09113028093320990933309A0936F
:100740003409B0933509CC2329F0C33029F0C09384
:100750005A09EFCEC2E0FBCFC1E0F9CF80911C0275
:1007600090911D02A0911E02B0911F02F9CE8091BE
:10077000240290912502A0912602B091270215CF64
:100780008091340290913502A0913602B0913702E7
:100790002BCF0F931F93CF93DF93E0E2F3E08AEC2C
:1007A00093E097838683CDECD3E0D0936103C0932D
:1007B00060030EEB13E0158B048BF0938B03E09337
:1007C0008A03F583E48321E030E0DC012D933C9340
:1007D0001092A10385E692E0938782878FEC93E0E5
:1007E0009983888340E050E060E87FEB4093C60344
:1007F0005093C7036093C8037093C9034DEC5CEC3E
:100800006CE47EE3D8014D935D936D937C931397D5
:10081000C8EAD3E044E65FE66EEB7FE9488359839C
:100820006A837B834AE151EA6BE274EC4093AC0348
:100830005093AD036093AE037093AF034BE156EC5E
:1008400067E078E94093B0035093B1036093B2033B
:100850007093B3034AE25AEC6FE373E04093B4033E
:100860005093B5036093B6037093B703A4E1B3E06C
:10087000B383A283EEE0F3E01196FC93EE9327E7B7
:1008800032E0318320832AE539E0338322832BE56C
:1008900039E03583248328EB33E015963C932E937F
:1008A00014971396DC93CE93129717969C938E937E
:1008B00016978091380290913902A0913A02B09136
:1008C0003B02E6E4F9E080839183A283B3838483CF
:1008D0009583A683B783DF91CF911F910F910895E0
:1008E00008954F925F926F927F928F929F92AF92F4
:1008F000BF92CF92DF92EF92FF920F931F93F894E3
:100900004090E3035090E4036090E5037090E603A9
:10091000C090D703D090D803E090D903F090DA03C9
:100920004130510509F0A6C09B01AC0124193509DD
:100930004609570929013A010091DF031091E003AC
:100940002091E1033091E20348015901840C951C88
:10095000A61CB71C80169106A206B306A0F400914F
:10096000DB031091DC032091DD033091DE030F5F88
:100970001F4F2F4F3F4F0093DB031093DC03209357
:10098000DD033093DE038092DF039092E003A092B8
:10099000E103B092E2030091DB031091DC032091AC
:1009A000DD033091DE038092E7039092E803A0928A
:1009B000E903B092EA030093EB031093EC03209356
:1009C000ED033093EE036093E3037093E4038093AD
:1009D000E5039093E603A301920160E47DE083E0E8
:1009E00090E00E94CC296C0D7D1D8E1D9F1D609393
:1009F000D7037093D8038093D9039093DA030091BF
:100A00003C0210913D0220913E0230913F020F3F87
:100A10001F4F2F4F3F4FF1F000913C0210913D02CC
:100A200020913E0230913F020E3F1F4F2F4F3F4F0C
:100A300089F0C0903C02D0903D02E0903E02F090E0
:100A40003F0221E08C149D04AE04BF0408F420E0B2
:100A50002093F30378941F910F91FF90EF90DF9014
:100A6000CF90BF90AF909F908F907F906F905F904E
:100A70004F9008954B015C0184189508A608B708AB
:100A8000A3019201261B370B480B590B6415750502
:100A900086059705E0F082169306A406B50640F495
:100AA00020E030E0A90181149104A104B104A1F473
:100AB00060E47DE083E090E00E94CC29A7019601EC
:100AC000261B370B480B590BCA01B901C3CF82163D
:100AD0009306A406B50660F7A501940160E47DE0E5
:100AE00083E090E00E94CC296C0D7D1D8E1D9F1D22
:100AF000B1CFF7CECF93DF9300D01F92CDB7DEB743
:100B00001C821B821A8219821092EF031092F0034A
:100B10001092F1031092F203BE016F5F7F4FCE017E
:100B200003960E94752269817A818B819C810E9443
:100B3000651B009761F4BE016F5F7F4FCE01039686
:100B40000E94812269817A818B819C812FD50F90AF
:100B50000F900F900F90DF91CF910895FF920F9318
:100B60001F93CF93DF93082F60E070E0CB010E94CA
:100B7000AC25FF24F3940E944E1AEC01892B89F0D6
:100B800010E0CE3F8FEFD80769F0002361F160E0FD
:100B900070E0CB010E94AC2581E090E0892B59F3F5
:100BA00022C011E026D5EC01892B21F0CE3F8FEF3A
:100BB000D80759F711111EC011E0229609F410E070
:100BC0000E94FE19EC01892B21F0CE3F8FEFD80750
:100BD000E1F6111111C011E0CE3F8FEFD80709F4F3
:100BE00010E001110BC0CE01DF91CF911F910F9149
:100BF000FF90089511E0E4CF11E0F3CF60E070E0E2
:100C0000CB010E94AC251F25812F90E0C7CFCF9349
:100C1000DF938091F303882321F060E070E0CB0143
:100C20004DD636D6D0E0C0E0892B71F06AE070E096
:100C300080E090E00E94AC2581E090DF29D62196EB
:100C4000C03D27E0D20781F728D60E94B91B109239
:100C50000B0410920A0410920404109205041092DE
:100C600006041092070410920004109201041092DE
:100C70000204109203041092FC031092FD031092E0
:100C8000FE031092FF031092F8031092F9031092E2
:100C9000FA031092FB031092F4031092F5031092E2
:100CA000F6031092F7034EEF5FEF6FEF7FEF409385
:100CB0003C0250933D0260933E0270933F021092BB
:100CC000F303E7EEF3E028E0DF011D922A95E9F750
:100CD0001092E3031092E4031092E5031092E603EE
:100CE0001092DF031092E0031092E1031092E203EE
:100CF0001092DB031092DC031092DD031092DE03EE
:100D00001092D7031092D8031092D9031092DA03ED
:100D1000DF91CF9108951092170410921804109249
:100D2000190410921A041092160480911F049091D5
:100D300020049093150480931404109213041092CD
:100D4000120410920E0410920F04109210041092CC
:100D5000110410921C0410921B0490E080E008958E
:100D6000CF92DF92EF92FF920F931F93CF938C015C
:100D7000019709F055C020911F0430912004809103
:100D800014049091150440911F0450912004509335
:100D90001504409314042817390781F010921304A6
:100DA0001092120410920E0410920F04109210046C
:100DB0001092110410921C0410921B0480911F04C5
:100DC00090912004019761F580911B0490911C047F
:100DD000892B21F480914002811112C080911B0463
:100DE00090911C040197E1F480910E0490910F04FE
:100DF000A0911004B09111040197A105B10581F4EF
:100E000010920E0410920F0410921004109211040C
:100E10001092400282E090E090931C0480931B04A7
:100E200080911F0490912004019709F01CC18091CA
:100E30003504909136048017910709F014C1809110
:100E4000310490913204A0913304B091340400979E
:100E500009F409C12091300421110DC040913104E1
:100E6000509132046091330470913404452B462B29
:100E7000472B09F4F8C020911B0430911C04223048
:100E8000310509F0F0C0209112042111ECC0FC01E1
:100E9000C080D180E280F38080911604882309F419
:100EA000D3C08091220490912304892B09F4FEC0C1
:100EB000209122043091230481E02230310509F091
:100EC00080E02091220430912304C1E021303105DB
:100ED00049F02091220430912304C1E022303105F1
:100EE00009F0C0E0882309F456C020912C04309109
:100EF0002D0440912E0450912F04C701B6010E9489
:100F0000852487FD14C020912C0430912D0440913C
:100F10002E0450912F046091170470911804809151
:100F2000190490911A040E94202487FD22C0209168
:100F30002C0430912D0440912E0450912F04C701B0
:100F4000B6010E948524181634F520912C043091A6
:100F50002D0440912E0450912F046091170470913C
:100F600018048091190490911A040E942024811180
:100F700012C08091240490912504A0912604B09180
:100F80002704892B8A2B8B2B19F481E0809313047F
:100F900081E080931204CC2309F456C020912C04E4
:100FA00030912D0440912E0450912F04C701B601B9
:100FB0000E94202487FF14C020912C0430912D041E
:100FC00040912E0450912F046091170470911804E1
:100FD0008091190490911A040E94852487FF22C0F1
:100FE00020912C0430912D0440912E0450912F0417
:100FF000C701B6010E942024811126C020912C0433
:1010000030912D0440912E0450912F0460911704CB
:10101000709118048091190490911A040E948524FB
:10102000181694F48091240490912504A09126042C
:10103000B0912704892B8A2B8B2B19F481E08093A4
:10104000130481E08093120481E0909112049111C5
:1010500080E080931604C0921704D0921804E092A6
:101060001904F0921A040130110509F067C180914A
:101070001B0490911C04892BD9F410922104109226
:10108000120480914002882379F082E090E09093EE
:101090001C0480931B041092400220911F04309185
:1010A000200481E0232BE9F080E01BC081E009CF20
:1010B0001092400280912104882349F01092130479
:1010C00010921C0410921B0410922104EDCF809109
:1010D0001F0490912004892BE1F08091120410925A
:1010E000120420911B0430911C042230310509F4B4
:1010F0005EC088F42115310509F448C0213031055E
:1011000009F4F3C0109213041092120410922104F7
:1011100038C081E0E6CF2330310509F4B1C0243076
:10112000310581F740910E0450910F046091100435
:1011300070911104411551056105710561F041502F
:1011400051096109710940930E0450930F04609393
:1011500010047093110440910E0450910F0460919B
:10116000100470911104452B462B472BD9F4209184
:101170001D0430911E042130310509F046C0109243
:10118000130410921C0410921B040CC080914002A6
:10119000882341F082E090E090931C0480931B042C
:1011A0001092400210920C0480911304CEC0882348
:1011B000C9F38091240490912504A0912604B09154
:1011C0002704181619061A061B060CF07DC080911C
:1011D0001F0490912004019709F076C080912404A7
:1011E00090912504A0912604B091270480930E04C9
:1011F00090930F04A0931004B093110483E090E047
:1012000090931C0480931B04CDCF409128045091EF
:10121000290460912A0470912B04452B462B472BFF
:10122000A9F0109213048091280490912904A091B0
:101230002A04B0912B0480930E0490930F04A09382
:101240001004B093110481E090E0DACF882399F084
:101250008091410290914202A0914302B0914402D8
:1012600080930E0490930F04A0931004B093110484
:1012700084E090E0C5CF1092130482E090E0C0CFEC
:1012800080910E0490910F04A0911004B09111046C
:101290000097A105B10559F00197A109B109809303
:1012A0000E0490930F04A0931004B0931104809146
:1012B0000E0490910F04A0911004B0911104892B99
:1012C0008A2B8B2B09F06ECF8091410290914202C4
:1012D000A0914302B0914402892B8A2B8B2B09F4F5
:1012E0004ECF81E080931304B3CF40910E04509110
:1012F0000F046091100470911104411551056105AE
:10130000710561F0415051096109710940930E0462
:1013100050930F04609310047093110440910E04D5
:1013200050910F046091100470911104452B462BCD
:10133000472B09F037CF8111C7CF9FCF80910C0485
:10134000882309F431CF80910D04CF911F910F9123
:10135000FF90EF90DF90CF900895109217041092B5
:1013600018041092190410921A0410921604109284
:101370001C0410921B041092150410921404109275
:101380003604109235041092130410921204109235
:101390000E0410920F041092100410921104109277
:1013A0000D0410920C041092310410923204109229
:1013B0003304109234041092300410922C041092D2
:1013C0002D0410922E0410922F0488EE93E0A0E0DA
:1013D000B0E08093410290934202A0934302B09305
:1013E0004402109228041092290410922A041092A8
:1013F0002B041092240410922504109226041092BB
:101400002704109223041092220481E0809340026A
:10141000109221041092200410921F0410921E04B6
:1014200010921D0490E080E0089580911F04909137
:101430002004892B19F580914002882351F0809176
:101440002104811106C081E080930D0480930C0477
:101450000895209121043091400281E090E03323EF
:1014600011F090E080E030E082239323892B21F07B
:1014700010920D0481E0EACF10920C04089582E0EE
:1014800090E0FA01918380838FEF9FEF0895CF93CF
:10149000DF93EA01009711F00E94D91C198218828B
:1014A00090E080E0DF91CF910895DB01009719F47F
:1014B0008FEF8C9308952EEF2C93FC013F96EF3025
:1014C000F10508F034C08827E759F54F8F4F0C9489
:1014D000112A950A930A910A8F0A8D0A890A8B0AA2
:1014E000870A850A830A800A7C0A780A7E0A970A94
:1014F00080E311968C93089589E2FBCF82E2F9CFC5
:1015000011961C92089583E2F4CF81E2F2CF81E13B
:10151000F0CF87E2EECF8AE2ECCF80E1EACF84E23F
:10152000E8CF88E2E6CF86E2E4CF81E3E2CF80E253
:10153000E0CF809143049091440408959093440433
:101540008093430408958091420408959091420449
:10155000892B809342040895982F9095809142049E
:1015600089238093420408958091410408958091D5
:101570003F049091400408956115710559F0FB01F5
:1015800030E020E070E060E02417350719F06115C5
:10159000710511F0CB010895A081B181A817B90799
:1015A00009F4BF012F5F3F4F3696EECF809145047F
:1015B00081111CC060D266D29093380480933704A6
:1015C0000E94D7140E94E91490933C0480933B043A
:1015D0000E9466190E946D1990933A048093390411
:1015E00081E08093450490E080E0089584EF9FEFD0
:1015F00008958F929F92AF92BF92CF92DF92EF9217
:10160000FF920F931F93CF93DF9300D000D000D0B1
:101610001F92CDB7DEB71A86198618861F821E82E2
:101620001D821C821B821A8219828091450407EF59
:101630001FEF882309F49CC08E010D5F1F4F9E0190
:101640002B5F3F4FAE01495F5F4FBE01675F7F4F2A
:1016500090E080E00E94EA1A8C01009721F0059644
:10166000029708F0DBC029853A852115310509F478
:1016700002C1ED80FE804B815C81B701640F751F54
:101680008F8198858617970708F4F5C0E20EF31E40
:10169000D7019C91903C09F07FC04230510508F47D
:1016A0007BC011968C914091430450914404452B8A
:1016B00009F49CC0913F08F071C02CE1290F2D3036
:1016C00008F48BC02DE2290F203108F489C0903C2A
:1016D00021F48150823008F483C088E3890F8B3075
:1016E00008F481C095E5C92E9AE0D92EEFE3FAE01F
:1016F0006D817E81AE014F5F5F4F89859A85199517
:101700005C01C114D104A1F189809A8081149104F3
:1017100079F18B819C818815990508F487C010E0C8
:1017200000E04B815C8170E060E0C7010E943B2AD1
:1017300001151105E9F449815A8169857A858D8100
:101740009E81680F791FC501F6011995E980FA801D
:101750000D811E812F81388549855A856FEF7FEF76
:1017600081E090E00E94851A8C01892B09F056C017
:10177000C8012A960FB6F894DEBF0FBECDBFDF9129
:10178000CF911F910F91FF90EF90DF90CF90BF907E
:10179000AF909F908F90089580E085CF30E020E05B
:1017A000220F331FF901E95CFB4F0190F081E02D1E
:1017B000309709F497CF892F90E01995009709F495
:1017C00091CFDC011296ED91FC9113971496CD9078
:1017D000DC90309709F08CCF1FC021E030E0E0CFE3
:1017E00022E030E0DDCF23E030E0DACFD12CC12C95
:1017F000E7E4FAE09F3F09F07BCFE0913704F091F6
:101800003804309721F4C90104EF1FEF0CC08FEFAB
:1018100090E019950097A9F604EF1FEF89859A8546
:10182000009709F4A5CF0E94D91CA2CF0E94B41B37
:101830008C0189859A850E94D91C70E060E0C40102
:101840000E944D1B98878F830E94821A9E838D83EE
:101850006F8178856115710559F0C8010E94651E78
:101860009A87898706EF1FEF892B09F058CF59CF48
:1018700008EF1FEF56CF08EF1FEFD0CF20914504A0
:10188000222319F020E00C94EE1487EF9FEF0895C7
:10189000809143049091440408950E9472190E941B
:1018A000CC18F5D0E7E3F4E088E0DF011D928A95DB
:1018B000E9F71092450490E080E008950C942A170F
:1018C00021E040E050E0BA010C94EE1486E090E094
:1018D000FA019183808390E080E0089547E050E032
:1018E0006AE772E049CEDF92EF92FF920F931F9367
:1018F000CF93DF938A01EC01C60FD71FE090490414
:10190000F0904A04D9800E949C1BD816190678F0E2
:1019100082E090E0F801918380838EEF9FEFDF916A
:10192000CF911F910F91FF90EF90DF900895EF28D6
:1019300041F482E090E0F8019183808384EF9FEF8F
:10194000EECF89818093480490E00196F80191835D
:10195000808390E080E0E3CFCF93DF93EA010E94A1
:10196000DB17882321F00E94A91B0E94DC1782E06C
:1019700090E0998388838BEF9FEFDF91CF9108955B
:10198000CF93DF93EB0186E0FB0111928A95E9F793
:101990008FEF8883D8DD8983E7DD8A83E8DD9D8347
:1019A0008C83DF91CF910895CF93DF93EA010E945A
:1019B000DE17811109C082E090E09983888385EF6A
:1019C0009FEFDF91CF91089590E080E0B7DD81E057
:1019D00090E09983888390E080E0F3CF0F931F938A
:1019E000CF93DF93EA018C01060F171F0E94DE17C9
:1019F00081110BC082E090E09983888385EF9FEF8F
:101A0000DF91CF911F910F910895F801818182306C
:101A100038F082E090E0998388838EEF9FEFF0CFDB
:101A200081E090E08BDD88E090E09983888390E00E
:101A300080E0E6CFCF93DF930097D1F4EB01FB0179
:101A4000329686E0DF011D928A95E9F78FEF888351
:101A500085E089831A820E949C1B8B830E949B1BBA
:101A60009D838C8381E08E838F83DF91CF91089556
:101A7000DF91CF911ACD8EE69CE09093470480933E
:101A80004604089580914604909147040895109269
:101A900047041092460408958091490490914A04A5
:101AA0000895411105C0611571058105910561F029
:101AB0006093490470934A0480934B0490934C04C0
:101AC00040934D0481E0089580E00895FF920F93C4
:101AD0001F93CF93DF938A01EC01C60FD71FF980C4
:101AE0000E949C1BF816190668F082E090E0F8014D
:101AF000918380838EEF9FEFDF91CF911F910F91A4
:101B0000FF9008956C817D818E819F814B81C9DF1B
:101B1000811108C082E090E0F8019183808384EF16
:101B20009FEFEACF89818093480490E00196F80105
:101B30009183808390E080E0DFCFCF93DF93EA0151
:101B4000FC01E60FF71F64817581868197814381CF
:101B5000A8DF811109C082E090E09983888384EF37
:101B60009FEFDF91CF91089581E090E09983888382
:101B700090E080E0F6CFE9E4F4E0408151816281B9
:101B80007381480F511D611D711D40835183628314
:101B900073830895CF93C09148044C2F50E0609117
:101BA000490470914A0401960E94322A8C2FE3DF87
:101BB00010924804CF910895009799F480914904B8
:101BC00090914A042FEFFB012083892B59F020913B
:101BD000480430E02F5F3F4F2417350719F4CB013D
:101BE000D9CF63CC0895009799F4809149049091DE
:101BF0004A042FEFFB012083892B59F020914804E0
:101C000030E02F5F3F4F2417350719F4CB01C2CFC7
:101C10004CCC089523E1AC01249FC001259F900D79
:101C20001124E0915204F0915304E80FF91F23812D
:101C300034812250310981E02230310508F080E002
:101C400008950F931F93CF93DF9300915404109145
:101C50005504D0E0C0E080E00C171D0749F491E086
:101C6000811190E0892FDF91CF911F910F910895FD
:101C70008111F5CFCE01CEDF2196EECFA091520497
:101C8000B0915304109729F12091540430915504D8
:101C900082179307F0F453E1589F9001599F300D3C
:101CA0001124A20FB31FED91FC911197309789F089
:101CB00012968C91681768F48DE0689FE00DF11D15
:101CC000112480819181892B21F081E09281491733
:101CD00008F080E008959C0143E1429FC001439FCA
:101CE000900D1124E0915204F0915304E80FF91F74
:101CF0008385823091F481E090E065817681409126
:101D00004502509146026417750711F490E080E097
:101D1000892B19F081E0232B09F080E00895FC0164
:101D2000A081B1818DE0689FA00DB11D1124139693
:101D30004D915C9185859685489F9001499F300D16
:101D4000589F300D1124C9010196611103C04781CC
:101D500044FD04960895EF92FF920F931F93CF9343
:101D6000DF93EA01FC01E60FF71F02811381E48093
:101D7000F5804F2D6E2DC80181DF81110DC082E0ED
:101D800090E0998388838EEF9FEFDF91CF911F9131
:101D90000F91FF90EF900895C8013CDF882339F040
:101DA00082E090E09983888388EF9FEFEECF1093D5
:101DB0004C0200934B02E0924D02F0924E0281E001
:101DC00090E09983888390E080E0DFCFCF92DF922C
:101DD000EF92FF920F931F93CF93DF937A01EC0161
:101DE000C60FD71FC0904B02D0904C0200914D02FD
:101DF00010914E02412F602FC60140DF811110C0AB
:101E000082E090E0F701918380838AEF9FEFDF917A
:101E1000CF911F910F91FF90EF90DF90CF90089599
:101E2000C601F8DE882341F082E090E0F70191835B
:101E3000808388EF9FEFEBCF4C815D816E817F8146
:101E40009A8189818F3F41F082E090E0F701918390
:101E500080838EEF9FEFDBCFE3E1EC9D9001ED9D62
:101E6000300D1124E0915204F0915304E20FF31F5E
:101E70000190F081E02D2DE0029FE00DF11D112475
:101E80000190F081E02D27E0129FE00DF11D11245B
:101E9000808391838B81828343835483658376839C
:101EA0001F5F10934E0281E090E0F70191838083E1
:101EB00090E080E0ACCFEF92FF920F931F93CF930F
:101EC000DF937A018C01060F171FC0915204D09145
:101ED0005304209781F021E030E0F8018281938162
:101EE00040915404509155048417950710F030E048
:101EF00020E0232B71F482E090E0F701918380834E
:101F00008EEF9FEFDF91CF911F910F91FF90EF9098
:101F1000089543E1489F9001499F300D1124C20F5D
:101F2000D31F78DE882341F082E090E0F7019183AF
:101F3000808388EF9FEFE6CFF80124813581203838
:101F40003105C8F687818111D6CF4181842F90E079
:101F50008F7E009741F082E090E0F70191838083CB
:101F600086EF9FEFCFCF4F833E832D832681288737
:101F70001986223010F421E0288721E030E0F701B3
:101F800031832083BFCF88E090E0FA019183808382
:101F900090E080E00895FB018FEF808381E18183F1
:101FA0008FEF9FEF9383828380E890E09583848313
:101FB000168217820895FB018FEF808391E0918351
:101FC00082839383848384E3858381E090E0978395
:101FD00086830895DF92EF92FF920F931F93CF9322
:101FE000DF93EA01FC01E60FF71F8181813071F078
:101FF00082E090E0998388838FEF9FEFDF91CF910C
:102000001F910F91FF90EF90DF900895828193814F
:10201000D4802581E680F78000915204109153040A
:102020000115110539F482E090E0998388838CEFE3
:102030009FEFE4CF409154045091550484179507C5
:1020400038F082E090E0998388838EEF9FEFD6CFBF
:10205000892B39F082E090E09983888386EF9FEFA7
:10206000CDCF8D2D8D7FB1F72130A1F781E0D1103B
:1020700006C091E0E916F10431F080E004C0E2E02E
:10208000EE16F104D0F3882329F390E080E0C2DD5E
:10209000882339F082E090E09983888388EF9FEF6E
:1020A000ADCFF801D38681E08487F686E586108A75
:1020B000178681E090E09983888390E080E09ECF4E
:1020C0004CE050E064EA72E057CA8F929F92BF9250
:1020D000CF92DF92EF92FF920F931F93CF93DF93F4
:1020E000EA01FC01E60FF71F828193810481B5802C
:1020F000E0915204F0915304309791F482E090E023
:10210000998388838CEF9FEFDF91CF911F910F917F
:10211000FF90EF90DF90CF90BF909F908F900895A9
:1021200020915404309155048217930738F082E0CF
:1021300090E0998388838EEF9FEFE6CF23E1289F7D
:102140006001299FD00C1124EC0DFD1DE080F18071
:10215000E114F10499F28281081748F78DE0089F95
:1021600080011124E00EF11EF70180819181892BFD
:1021700029F6BB20E1F2F7E0BF9E40011124C40123
:102180000E94A01CF70191838083E0915204F0919A
:102190005304EC0DFD1D0190F081E02DE00FF11FC7
:1021A00080819181009739F482E090E0998388835F
:1021B0008DEF9FEFA9CFA40170E060E00E943B2A61
:1021C0008091520490915304C80ED91EF60180816B
:1021D0009181080F191FF801B28281E090E0998384
:1021E000888390E080E090CFAF92BF92CF92DF9251
:1021F000FF920F931F93CF93DF93EA01FC01E60F49
:10220000F71F82819381F48000915204109153044E
:102210000115110581F482E090E0998388838CEFA9
:102220009FEFDF91CF911F910F91FF90DF90CF90A3
:10223000BF90AF90089520915404309155048217B7
:10224000930738F082E090E0998388838EEF9FEFC8
:10225000E8CF2FEF2F0D2C3FA8F723E1289F600137
:10226000299FD00C11240C0D1D1DF8018081918136
:10227000892B89F6FDE0FF9E50011124C5010E94C3
:10228000A01CF80191838083E0915204F0915304E3
:10229000EC0DFD1D80819181009739F482E090E082
:1022A000998388838DEF9FEFBCCFA50170E060E03C
:1022B0000E943B2AE0915204F0915304EC0DFD1D65
:1022C000F28281E090E09983888390E080E0A9CF5A
:1022D000CF92DF92EF92FF920F931F93CF93DF93F2
:1022E000860F971FFC010281138180915204909107
:1022F0005304892B81F082E090E0FA01918380837E
:102300008CEF9FEFDF91CF911F910F91FF90EF9096
:10231000DF90CF900895C801B0E0A0E00197A10937
:10232000B1098F3F9F4FA105B10540F082E090E0D9
:10233000FA01918380838EEF9FEFE4CF7A0183E1EE
:10234000809F6001819FD00C1124C6010E94A01CB7
:10235000EC01009741F482E090E0F70191838083E3
:102360008DEF9FEFCFCFA60170E060E00E943B2A87
:10237000D0935304C0935204109355040093540413
:1023800090E080E02FEF3FEF41E061E070E08017E8
:10239000910741F481E090E0F7019183808390E020
:1023A00080E0B0CF3A8B298B1B864C877E876D8768
:1023B000188A1F8601966396EACFEF92FF921F93C9
:1023C000CF93DF93EC0110E0F12CE12C6A8116171A
:1023D000B0F083E0689FB0011124AE014F5E5F4F03
:1023E000C7010E94051D009721F02FEF3FEF3A8BA8
:1023F000298BDF91CF911F91FF90EF900895612F6E
:10240000CE018DDC61E070E00E944D1BE816F906FC
:1024100008F47C011F5FDACFF894209150043091CA
:10242000510481E02115310509F080E0232B09F0EA
:10243000789408952F923F924F925F926F927F927D
:102440008F929F92AF92BF92CF92DF92EF92FF92C4
:102450000F931F93CF93DF933C01660E771EF3011A
:10246000828193814C01B12CA12CC0915204D09156
:102470005304209769F021E030E06091540470919A
:1024800055048617970710F030E020E0232BD1F495
:1024900082E090E0FA01918380838EEF9FEFDF91DD
:1024A000CF911F910F91FF90EF90DF90CF90BF9051
:1024B000AF909F908F907F906F905F904F903F90E4
:1024C0002F90089580924F0290925002A092510254
:1024D000B092520263E1689F9001699F300D112410
:1024E000C20FD31FF3018181833040F082E090E07E
:1024F000FA019183808386EF9FEFD1CF2A012B8150
:102500003C81232BF1F4288139819F8191FF2EC0DA
:10251000232B09F46FC0209157049A81422F490F51
:102520005527551FBA0141E050E06138710514F09C
:1025300050E040E0452B09F45DC02A87920F90934C
:1025400057048150823008F481C066DF882309F483
:10255000D8C0F3018181813009F48DC008F47BC0BB
:10256000823009F4C6C090E080E0ADC0232B09F4AE
:1025700041C0209156049A81E22FE90FFF27FF1FE7
:1025800041E050E0ED3FF10514F050E040E0452B14
:1025900089F12A87920F90935604D3CFA081B181FD
:1025A000A20FB31F11966C91060F111D0196295FA2
:1025B0003F4F8417950794F38D859E85089F1001E2
:1025C000099F300C189F300C1124C114D104D1F490
:1025D0008F8184FF17C00E949B1BF5E02F0E311CDA
:1025E00021E08215930508F420E0A701435F5F4FC7
:1025F00021110EC082E090E0F2019183808387EF89
:102600009FEF4DCF0E949B1B2FEF221A320AE8CF7B
:1026100088819981E80EF91EF70114830383FFEF87
:10262000CF1ADF0A7A018A818C151D0409F00CF497
:102630008CCFE881F981EE0DFF1D428150E030E042
:1026400020E010E000E090E080E0B3CFF12CE12C3E
:10265000D12CC12CE8CF81E090E09C838B83F1DA10
:10266000882309F480CF81E090E00E949E0A80E4F4
:102670000E94AC0A78CF89899A89019661F083E03B
:1026800090E09C838B8382E090E00E949E0A80E42D
:102690000E94A60A68CF8D819E81209145023091CB
:1026A000460282179307D1F46091490270914A0261
:1026B000AE014F5E5F4F80914702909148020E94A9
:1026C000241E0097E1F2789422E030E0F201318399
:1026D0002083892B99F08DEF9FEFE1CE89288A28FE
:1026E0008B2869F6029758F6CE0167DE188A1F8696
:1026F000E8CF82E090E09C838B8335CF90E080E050
:10270000CECE82E090E0F2019183808385EF9FEF4F
:10271000C6CE8F929F92AF92BF92CF92DF92EF92EE
:10272000FF920F931F93CF93DF93EA018C01060F63
:10273000171FF8018181833098F082E090E099833F
:10274000888386EF9FEFDF91CF911F910F91FF90CC
:10275000EF90DF90CF90BF90AF909F908F900895B3
:102760008091520490915304892B61F081E090E0B4
:102770002091540430915504232B11F490E080E013
:10278000892B39F482E090E0998388838EEF9FEF64
:10279000DACF42DE882309F4E0C0F801818181307C
:1027A00009F496C0E8F0823099F4209154043091F5
:1027B0005504E0915204F091530490E080E041E030
:1027C00050E02817390709F0BEC03BDA811117C065
:1027D000789481E090E09983888390E080E0B3CFA3
:1027E0002091540430915504E0915204F091530427
:1027F00090E080E041E050E02817390741F481E0A3
:1028000090E00E949E0A80E40E94AC0AE1CF6381BE
:102810007481672B11F05483438301967396ECCF38
:10282000E0915204F0915304E00FF11F23813481B1
:1028300022303105D9F4218932892F3F3F4FB1F43D
:102840002581368140914502509146022417350773
:1028500061F5AF014F5E5F4F6091490270914A028E
:1028600080914702909148020E94241EEFEFCE1AF9
:10287000DE0AEE0AFE0A0D5E1F4F4091540450918D
:10288000550470E060E0C416D506E606F70644F588
:10289000009731F27894892B09F49BCF82E090E085
:1028A000998388838DEF9FEF4ECFC114D104E1044B
:1028B000F104E1F622303105C8F6CF017EDDE0916A
:1028C0005204F0915304E00FF11F108A1786CECF07
:1028D00010E000E090E080E0C12CD12C7601CDCF5B
:1028E0000097C1F610E000E0812C912C540183E0A8
:1028F000E82EF12C1AC0E0915204F0915304E00F3D
:10290000F11F83819481029749F4F482E38282E08B
:1029100090E00E949E0A80E40E94A60AFFEF8F1AB0
:102920009F0AAF0ABF0A0D5E1F4F80915404909119
:102930005504B0E0A0E088169906AA06BB06DCF2B2
:1029400090E080E0A7CF638174816230710511F45B
:10295000548343830196739634CF82E090E0998349
:10296000888385EF9FEFEFCE0097B9F48FEFFB01DF
:10297000808320914F023091500243E1429FC00179
:10298000439F900D1124E0915204F0915304E80FFD
:10299000F91F8285FB01818308950C94550A88E014
:1029A00090E0FA019183808390E080E00895109296
:1029B000510410925004E2E5F4E086E0DF011D923C
:1029C0008A95E9F780E690E190934F0480934E0456
:1029D000089580914E0490914F0408952F923F9254
:1029E0004F925F926F927F928F929F92AF92BF921F
:1029F000CF92DF92EF92FF920F931F93CF93DF93CB
:102A0000CDB7DEB72F970FB6F894DEBF0FBECDBFA0
:102A1000F894E0915004F09151043196F0935104F0
:102A2000E093500478944090520450905304411421
:102A3000510409F40CC2E0915404F0915504EF2BB9
:102A400009F405C22D8749875A876B877C87988749
:102A50008F831201B12CA12C10E000E0809154046E
:102A600090915504A816B90618F40115110529F11D
:102A7000F8948091500490915104019790935104DF
:102A8000809350047894C8012F960FB6F894DEBF57
:102A90000FBECDBFDF91CF911F910F91FF90EF90AF
:102AA000DF90CF90BF90AF909F908F907F906F906E
:102AB0005F904F903F902F9008957101E418F508B2
:102AC000D10117968C91179781FD54C013968D9163
:102AD0009C911497039709F04DC015968D919C9188
:102AE000EF81F8858E179F0709F044C0B50190E08B
:102AF00080E07FD48A8320915204309153043D8337
:102B00002C833D85332309F44CC04C815D81452BDA
:102B100009F49AC18091540490915504A816B906FD
:102B200008F092C1C501D7D88823E9F06C817D8176
:102B30006E0D7F1D7D836C83DB011F968D919C91B3
:102B4000892B89F0D12CC12CF12CE12CAC81BD81D9
:102B500012968C9112978E151F0409F094F45096DA
:102B60001C921E921F972A81222321F0B50190E02A
:102B700080E041D43FEFA31AB30A43E1240E311C95
:102B80006DCFAC81BD81ED91FC91EC0DFD1D85817A
:102B900096810FD7BFEFEB1AFB0AEDE0CE0ED11CEA
:102BA000D5CFEC81FD81309709F44EC1809154045A
:102BB00090915504A816B90608F046C1EE0DFF1D08
:102BC000FF87EE87C50187D88B83882339F1AE85CF
:102BD000BF851F968D919C915097019621E01D967F
:102BE0004D915C918417950709F020E02E8319829E
:102BF000712C10E000E0AE85BF8512968C9178169E
:102C000008F45DC0EE85FF8587859089019665850E
:102C100076850E94DB29908B8787A5CFB1E0BE83A4
:102C2000E6CF992493946BC08BD6F6019683858367
:102C300082C0D601ED90FC90B7E06B9EE00CF11CD9
:102C40001124F7016381748180818F3F61F121E05C
:102C500030E002C0220F331F8A95E2F7C901092E26
:102C6000000CAA0BBB0BFB01408151816281738177
:102C700084239523A623B72321E0892B8A2B8B2B32
:102C800009F420E0D4012C93D70111968C91F60120
:102C900023853485820F932F911D880E991E1486EB
:102CA000138663949BC0418150E0C4010E94322A84
:102CB000EBCF998206EF1FEFC5C01982C3C0F9811F
:102CC000F111A0CFEDE07E9E70011124AE85BF858D
:102CD000CD90DC90CE0CDF1C15D49D838C83BB8102
:102CE000BB2309F49ECF81E0EE85FF8527853089DF
:102CF000232B09F080E0982E882309F458C0672D13
:102D00008E859F850CD8D60118969C938E93179725
:102D100061E070E0C2D4EE85FF85218932892F3FC2
:102D2000320709F481CFBC01C901CFD7D60116966D
:102D30009C938E931597D60115968D919C9116971D
:102D4000009709F4B6CFEC81FD818E0F9F1F1A9674
:102D50009C938E931997AE85BF85ED91FC91119749
:102D6000EE0EFF1EF70121853285148613861A9612
:102D70008C91870DD9018D93711016C0EE85FF855A
:102D8000878184FF11C049855A856B857C85F9014F
:102D90004183528363837483F7018385948504960A
:102DA000A80FB91F14861386F701B287A187D60131
:102DB00015968D919C911697892B09F443C0EE8549
:102DC000FF85258136818091450290914602281722
:102DD000390779F019968D909C90612CD601129646
:102DE0008C911297681608F424CF1A969C928E92B2
:102DF0001997BE81BB2309F460CF61E070E0F60152
:102E0000878190854AD4D6011796ED90FC9018974B
:102E100015964D915C91E1E0F0E0BA81BB2311F091
:102E2000F0E0E0E00C811D819C01B5018827992725
:102E30008E1B9F0B6AD38C01892B21F0F6018581B3
:102E40009681B7D57394D7CE0FEF1FEF8CCE10E0DD
:102E500000E00ECE2F923F924F925F926F927F9240
:102E60008F929F92AF92BF92CF92DF92EF92FF929A
:102E70000F931F93CF93DF9380915204909153044B
:102E800010E000E0892BA9F0C7DA0AEF1FEF8823D2
:102E900081F02090540430905504C0915204D09198
:102EA0005304D12CC12C10E000E02C143D04A9F4F3
:102EB0007894C801DF91CF911F910F91FF90EF900F
:102EC000DF90CF90BF90AF909F908F907F906F904A
:102ED0005F904F903F902F900895C6010E946B0E17
:102EE000882309F18B819C810397E9F48F85988968
:102EF000892BC9F0B60190E080E07BD221E030E080
:102F0000882311F030E020E044245524421A530A6B
:102F1000B12CA12C912C812C8A818815190409F0DF
:102F200038F4188A1F864FEFC41AD40A6396BDCFAF
:102F3000E881F981EA0DFB1D85819681892BA1F13C
:102F400061E070E087819085A8D33C01DBD28C01E1
:102F5000E881F981EA0DFB1D818592852581368105
:102F6000200F311FAC01421B530B9A014781508542
:102F7000421B530B70E060E00E943B2AE881F9811C
:102F8000EA0DFB1DE780F084458156819301B6016F
:102F9000C201BBD28C01892B39F0E881F981EA0D9D
:102FA000FB1D8581968105D55FEF851A950A8DE019
:102FB000A80EB11CB1CF30CA789408952F923F92D9
:102FC0004F925F926F927F929F92AF92BF92CF92F9
:102FD000DF92EF92FF920F931F93CF93DF9300D076
:102FE00000D0CDB7DEB7009152041091530499245C
:102FF00093940115110509F43EC0A0905404B090BB
:1030000055040ADA982E8823B1F1109253041092D5
:1030100052041092550410925404109256041092C7
:1030200057048FEF9FEFDC0180934F029093500283
:10303000A0935102B093520278947FD31E830D83E4
:10304000C12CD12C7601C501B0E0A0E089839A8320
:10305000AB83BC8322242A94322C89819A81AB8150
:10306000BC81C816D906EA06FB06F4F0C801A1D453
:1030700080E40E94AC0A892D26960FB6F894DEBF34
:103080000FBECDBFDF91CF911F910F91FF90EF90B9
:10309000DF90CF90BF90AF909F907F906F905F90A8
:1030A0004F903F902F900895AD81BE8115968D91E0
:1030B0009C91169720914502309146028217930702
:1030C000D1F451968D919C91EED5ED81FE81808158
:1030D0009181B12CA12C412C512C3201892B89F5E5
:1030E000BFEFCB1ADB0AEB0AFB0AED81FE81739678
:1030F000FE83ED83B2CFC114D104E104F10429F7BA
:10310000029718F7ED81FE81818992898F3F980798
:1031100009F029D5AD81BE8152963C922E925197ED
:10312000D4CF8A0D9B1DDC018D919C91009709F0F5
:1031300040D4BFEF4B1A5B0A6B0A7B0AEDE0AE0E80
:10314000B11CAD81BE818D919C91119712964C91CD
:1031500050E070E060E044165506660677060CF312
:1031600028D4BECFCF93DF93EA0128DF811109C0B5
:1031700082E090E09983888385EF9FEFDF91CF9184
:10318000089581E090E00E949E0A81E090E099839A
:10319000888390E080E0F2CF11DF10924F0410920C
:1031A0004E04089542E050E06CEE72E00C94BC0ACC
:1031B000FF920F931F93CF93DF938A01EC01C60F09
:1031C000D71FF980B9D20897F816190671F068F080
:1031D00082E090E0F801918380838EEF9FEFDF9192
:1031E000CF911F910F91FF9008956C817D818E8109
:1031F0009F814B810E94510D811108C082E090E0B7
:10320000F8019183808384EF9FEFE9CFF9800E94DA
:103210004C0D4F2D50E0BE01685F7F4F0E94322A57
:1032200089810E94BB0D81E090E0F8019183808349
:1032300090E080E0D4CFDF92EF92FF920F931F9344
:10324000CF93DF938A01EC01C60FD71F0E944C0D6C
:103250007C01D98071D2DD2059F0029721E030E065
:10326000D816190619F010F030E020E0232B79F47D
:1032700082E090E0F801918380838EEF9FEFDF91F1
:10328000CF911F910F91FF90EF90DF900895EF285D
:1032900041F482E090E0F8019183808384EF9FEF16
:1032A000EECFF9800E944C0D4F2D50E0BE016E5FB5
:1032B0007F4F0E94322A89810E94BB0D81E090E0FD
:1032C000F8019183808390E080E0D9CF82ED98E18E
:1032D00090935904809358040895809158049091D4
:1032E000590408950895FC0111821082938382830A
:1032F0000895DB011D921C92DC011296ED91FC9168
:1033000013977183608313967C936E93129708953D
:10331000FC0180819181DB018D939C93A081B1811F
:10332000109741F08D919C9191838083892B11F4AA
:10333000F383E2830895FC0180819181DB018D9309
:103340009C93892B11F47383628371836083089546
:10335000FC0111821082938382830895CF93DF93BF
:103360001F921F92CDB7DEB71A821982F894BE0160
:103370006F5F7F4F8FE594E0CBDF89819A81009763
:1033800009F017D389819A81892B89F7BE016F5F74
:103390007F4F83E694E0BCDF89819A81009709F032
:1033A00008D389819A81892B89F778940F900F909F
:1033B000DF91CF910895CF93DF931F921F92CDB7E6
:1033C000DEB71A821982F894BE016F5F7F4F8BE5DA
:1033D00094E09EDF89819A81009709F0EAD2898181
:1033E0009A81892B89F778940F900F90DF91CF9174
:1033F000089581E0089590E080E00895EF92FF92B3
:103400000F931F93CF93DF931F921F92CDB7DEB719
:103410001A82198280915A0407EF1FEF8823A1F1C5
:10342000F894BE016F5F7F4F83E694E071DF78947C
:1034300089819A81EE24E394F12C892B51F4F8943C
:10344000BE016F5F7F4F8FE594E062DF7894F12CCF
:10345000E12C89819A810EEF1FEF0097A9F0FC0102
:103460004281538164E070E074D68C01892B61F055
:10347000F89469817A81C701880F991F880F991F75
:10348000815A9B4F58DF7894C8010F900F90DF91BD
:10349000CF911F910F91FF90EF9008950F931F937D
:1034A000CF93DF9300D01F92CDB7DEB71C821B8273
:1034B0001A82198280915A0407EF1FEF8823C1F006
:1034C000AE014D5F5F4F64E070E0CE010196B4D66F
:1034D0008C01892B69F4E981FA818B819C8193832A
:1034E0008283F89469817A818BE594E002DF789495
:1034F000C8010F900F900F900F90DF91CF911F9107
:103500000F910895B9D7049608958F929F92AF9224
:10351000BF92CF92DF92EF92FF920F931F93CF93C0
:10352000DF931F921F92CDB7DEB71A821982BC01BA
:103530006F5F7F4F6330710598F0AA24AA94BA2C6C
:10354000C5010F900F90DF91CF911F910F91FF90C8
:10355000EF90DF90CF90BF90AF909F908F900895A5
:103560004115510551F3480159018A016C01CADF27
:103570008815990511F7E114F104F9F28E0D9F1DDC
:10358000A816B906D0F280915A048823F1F0F89475
:10359000B501645071099701AE014F5F5F4FC801DB
:1035A0000496DFD65C01892B71F489819A81F80138
:1035B00093838283C601880F991F880F991FB801D2
:1035C000815A9B4F96DE7894BBCF87EFA82EBB2401
:1035D000BA94B6CFAF92BF92CF92DF92EF92FF92A2
:1035E0000F931F93CF93DF931F921F92CDB7DEB738
:1035F0001A821982892B09F047C06115710509F4F7
:1036000043C04115510509F43FC02115310509F4A6
:103610003BC001151105C1F180915A048823B9F10D
:1036200079016A015B01F894BE016F5F7F4F8BE502
:1036300094E06EDE789489819A81009759F1DC01DB
:1036400012966D917C91A8010496A4D68C01E98113
:10365000FA81D501ED93FC93828193810496F60162
:10366000918380834FDFD7018D939C93C8010F9086
:103670000F90DF91CF911F910F91FF90EF90DF900E
:10368000CF90BF90AF9008950FEF1FEFEFCF07EFF0
:103690001FEFECCF0EEF1FEFE9CFCF93DF93EC01DD
:1036A000672B71F4F2D68C179D0760F0E5D624964F
:1036B000C80FD91FE4D68C0F9D1FDF91CF910895BD
:1036C000E1D6F1CF90E080E0F8CF0F931F93CF9336
:1036D000DF9320915A0421112BC08B01EC018FE55F
:1036E00094E001DE83E694E0FEDD8BE594E0FBDD13
:1036F00097D00097C1F4C9D670E060E0CEDF43E513
:1037000052E062E070E081D1009769F48091530249
:1037100090915402CCD6B801CE0101D5009719F48E
:1037200021E020935A04DF91CF911F910F910895CA
:1037300084EF9FEFF8CFA6C6A8C6CF93DF93A8D695
:10374000EC01892B11F40ADE36DECE01DF91CF9138
:103750000895CF93DF939CD6EC01892B09F4FEDD0D
:10376000CE01DF91CF910895809153029091540240
:103770000895CF93DF9380915A04D0E0C0E088236E
:10378000D1F09AD6EC01892BB1F4E8DD14DE8091FA
:10379000530290915402E7D1E8D2EC01892B59F4FD
:1037A0008FE594E0D5DD83E694E0D2DD8BE594E00F
:1037B000CFDD10925A04CE01DF91CF910895EF92A0
:1037C000FF920F931F93CF93DF93EC017A018B014C
:1037D0000F5F1F4F0E9DA0010F9D500D1E9D500DA0
:1037E000112470E060E00E943B2A90E080E0F0E06D
:1037F000E0E02FEFE816F90639F4DF91CF911F9141
:103800000F91FF90EF9008951A82198228833097C4
:1038100011F0D283C1830196FE01C00FD11FEACF00
:10382000CF92DF92EF92FF920F931F93CF93DF938C
:1038300004EE15E00C7F43E050E065E572E08BE5B7
:1038400092E01AD485E5E82E82E0F82E9BE5C92E99
:1038500092E0D92EC3E7D6E0D7014D915D917D016D
:10386000F601619171916F01198308835D834C8327
:103870005B834A837F836E839B012F5F3F4F249F2F
:10388000C001259F900D349F900D11249987888742
:103890000115110511F0C80192DF88859985080F7F
:1038A000191F2A96FBE5EF16F2E0FF06A9F6E9E6F6
:1038B000F4E088E791E0DF019C011D922150304047
:1038C000E1F7109268041092670410929206109229
:1038D00091061092960610929506109294061092F8
:1038E0009306109298061092970610929A061092DC
:1038F000990610929C0610929B061092A0061092B8
:103900009F0610929E0610929D061092A20610929B
:10391000A1061092A4061092A306109270061092AF
:103920006F06109272061092710690E080E0DF91AF
:10393000CF911F910F91FF90EF90DF90CF9008955E
:103940000097F1F0F894ABE5B2E0E3E7F6E030E0A1
:1039500020E04D915D9148175907A8F042815381AD
:103960004115510581F08AE0829FF001839FF00D9F
:103970001124ED58F94F80819181009759F4789482
:1039800090E080E008952F5F3F4F3A962330310555
:1039900001F7F5CFDC0111966D917C917183608305
:1039A0004150510953834283FC012193CF01789404
:1039B0000895009749F1DC018E91853041F4E09142
:1039C0007106F09172063097F9F0CD0119948530A7
:1039D000D8F4282F30E0F8948FEF8C938AE0829F00
:1039E000F001839FF00D1124ED58F94F80819181F2
:1039F00012969C938E931197B183A08382819381B9
:103A000001969383828378940895CF92DF92EF9208
:103A1000FF920F931F93CF93DF939C018CE694E06A
:103A20008C7F4115510509F49BC02115310509F41E
:103A300097C06115710509F493C07A01AB01B90112
:103A40006D5F7F4F6C7F9B012F5F3F4F249F8001F5
:103A5000259F100D349F100D1124F894209191068C
:103A600030919206232B59F42091990630919A06B1
:103A70002115310569F12017310708F058C0209150
:103A80009B0630919C06232B91F42091990630914E
:103A90009A06820F931F2091A3063091A406211548
:103AA000310509F441C02017310708F056C0789459
:103AB000CFEFDFEF86EF9FEFF701D183C083DF9178
:103AC000CF911F910F91FF90EF90DF90CF900895CD
:103AD000C3E0D0E0C0906704D090680425E731E0EF
:103AE0002C193D092017310710F32AE02C9FF00113
:103AF0002D9FF00D1124ED58F94F9183808355834C
:103B000044835383428377836683118700870097BA
:103B100009F055DE0C0D1D1D109368040093670419
:103B2000789490E080E0C8CFC4E0D0E0D3CFC3E089
:103B3000D0E02AE02C9FF0012D9FF00D1124ED58CC
:103B4000F94F9183808355834483538342837783E2
:103B50006683009729F333DEE3CFC4E0D0E0E9CFFA
:103B60008FEF9FEFACCF9C010397029708F069C0DD
:103B7000F89484E09AE0482F50E0241735070CF4BD
:103B80004DC091E08AE0829FF001839FF00D1124E7
:103B9000ED58F94F1182108215821482138212821D
:103BA000178216829923B1F1809191069091920625
:103BB000892BA9F42091990630919A062115310597
:103BC00071F08091670490916804821B930B90932D
:103BD00068048093670410929A0610929906809167
:103BE0009B0690919C06892BA9F42091A306309105
:103BF000A4062115310571F0809167049091680445
:103C0000821B930B90936804809367041092A40620
:103C10001092A306789490E080E00895949FF001BC
:103C2000959FF00D1124ED58F94F40815181452B9E
:103C300031F440855185452B11F481509CCF90E0A3
:103C4000A1CF8FEF9FEF08954115510549F10097DE
:103C500039F16115710521F1F89420916F063091C9
:103C60007006232BB9F42091710630917206232B34
:103C700089F49093700680936F0670937206609338
:103C80007106789425E030E090E080E0FA0131831D
:103C90002083089578942FEF3FEF86EF9FEFF6CFC4
:103CA0008FEF9FEF0895059769F4F89410927006CE
:103CB00010926F061092720610927106789490E03E
:103CC00080E008958FEF9FEF08956115710519F455
:103CD000F0E0E0E011C08530910581F4E0916F06DD
:103CE000F09170063097A1F3CB01019619950097DA
:103CF00079F3FC0185E08193CF0108959C01235065
:103D000031092230310520F72AE0289FD001299F70
:103D1000B00D1124AD58B94F2D913C911197232B23
:103D2000B9F216962D913C9117972617370780F216
:103D3000F89412962D913C9113972115310529F095
:103D4000ED91FC911197309711F47894C1CF418196
:103D5000528111965C934E932150310913963C93F6
:103D60002E93129781937894C7CFE1EEF5E08EE819
:103D7000DF011D928A95E9F7E9E6F4E088E791E032
:103D8000DF019C011D9221503040E1F71092680440
:103D900010926704E3E7F6E082E3DF011D928A9563
:103DA000E9F7EFE6F6E084E0DF011D928A95E9F796
:103DB00090E080E00895CF93DF93C0916102D091AD
:103DC0006202CF3FDC0759F420D4909362028093C3
:103DD000610297FF09C0D0936202C093610284EF31
:103DE0009FEFDF91CF91089590E080E0FACF82308D
:103DF000910528F48093A50690E080E008958FEF68
:103E00009FEF08954F925F926F927F92AF92BF9211
:103E1000CF92DF92EF92FF920F931F93CF93DF9396
:103E20001F921F92CDB7DEB71A821982009709F44C
:103E300078C06115710509F474C020916102309158
:103E4000620207EF1FEF2F3F3F4F09F444C06B01A1
:103E50005C01412C512C3201F12CE12C10E000E0EE
:103E60009E012F5F3F4FA6014E195F09B5016E0DF0
:103E70007F1D809161029091620226D4892B09F006
:103E80004AC089819A81009741F4E114F10429F430
:103E90002091A506222309F441C0E80EF91EEC1476
:103EA000FD04C8F480E8481684E858068EE16806E8
:103EB000710418F560E070E0CB014ED62AE0420EA6
:103EC000511C611C711C0A3F4FEF140721F0043F85
:103ED0008FEF1807A1F4C8010F900F90DF91CF91D9
:103EE0001F910F91FF90EF90DF90CF90BF90AF9018
:103EF0007F906F905F904F90089501EF1FEF81E0EA
:103F000090E0013F2FEF120711F090E080E0892B45
:103F100009F4A6CFE0CF04EF1FEFDDCF0AEF1FEFCC
:103F2000DACF0FEF1FEFD7CF4F925F926F927F9252
:103F3000AF92BF92CF92DF92EF92FF920F931F93B7
:103F4000CF93DF931F921F92CDB7DEB71A821982EB
:103F5000009709F478C06115710509F474C02091C7
:103F600061023091620207EF1FEF2F3F3F4F09F4CC
:103F700044C06B015C01412C512C3201F12CE12C2D
:103F800010E000E09E012F5F3F4FA6014E195F0930
:103F9000B5016E0D7F1D80916102909162024AD33E
:103FA000892B09F04AC089819A81009741F4E11474
:103FB000F10429F42091A506222309F441C0E80E5A
:103FC000F91EEC14FD04C8F480E4481682E4580697
:103FD0008FE06806710418F560E070E0CB01BCD595
:103FE0002AE0420E511C611C711C0E3F4FEF14075A
:103FF00021F0043F8FEF1807A1F4C8010F900F9034
:10400000DF91CF911F910F91FF90EF90DF90CF90B4
:10401000BF90AF907F906F905F904F90089502EFA8
:104020001FEF81E090E0023F2FEF120711F090E0C8
:1040300080E0892B09F4A6CFE0CF04EF1FEFDDCF9E
:104040000EEF1FEFDACF0FEF1FEFD7CF8091610296
:10405000909162028F3F980749F0CFD2892B49F4A3
:104060008FEF9FEF909362028093610290E080E077
:10407000089584EF9FEF0895CF92DF92EF92FF9221
:104080000F931F93CF93DF9321E04115510509F062
:1040900020E04150510921112CC0DC01FB01D12C41
:1040A000C12C21E022C03FEFC31AD30A7D010D913C
:1040B0001D91E701EA80FB80E016F106A8F420815B
:1040C0003181E280F380F182E08233832283ED90BC
:1040D000FC9011979D0122503109E901F982E88293
:1040E00011961C930E9320E03296C416D506D8F292
:1040F000D2CFDF91CF911F910F91FF90EF90DF9082
:10410000CF900895FC01680F791F90E080E0E617DA
:10411000F70709F408952191820F911DF8CF20919E
:10412000A606211113C047DE009791F41092AC0649
:104130001092AB061092AA061092A9061092A80639
:104140001092A70621E02093A606089584EF9FEF22
:104150000895AF92BF92CF92DF92EF92FF920F93AA
:104160001F93CF93DF93009709F460C04630510549
:1041700008F45CC02091A606C7EFDFEF222309F404
:1041800049C08C01060F171FF801C080D180C114EF
:10419000D10409F44EC096012A5F3F4F42175307DE
:1041A00008F447C07C018091AB069091AC069383E4
:1041B0008283B6016C5F7F4F5801A60EB71EC801FF
:1041C000A1DFF5019183808364E070E0C8011ADE0D
:1041D000EC01892BF9F481E090E009DEB601C80119
:1041E000049610DEEC01892B91F462E070E0C501C9
:1041F00009DEEC01892B59F4C701DBDB8091AB06AA
:104200009091AC0601969093AC068093AB0690E03B
:1042100080E0EDDDCE01DF91CF911F910F91FF90F6
:10422000EF90DF90CF90BF90AF900895CFEFDFEF8A
:10423000F1CFC9EFDFEFEECF6F927F928F929F9217
:10424000AF92BF92CF92DF92EF92FF920F931F93A4
:10425000CF93DF9300D01F92CDB7DEB7009709F45C
:104260007AC04115510509F476C02091A60607EFE2
:104270001FEF222309F44DC03A017B015C0164E089
:1042800070E0CE01019650DE8C01892B09F041C00F
:1042900009811A810115110509F45AC0480186E007
:1042A000880E911CB701680D791D80916302909171
:1042B00064020BDD6C01009709F450C0A70170E0A7
:1042C00060E00E943B2A89819A81AB81BC81EC0C21
:1042D000FD1CF70181939193A193B1937F0181E03C
:1042E00090E085DDB801C7011FDE892B31F562E062
:1042F00070E0C701800F911F17DE8C01892BE9F454
:1043000090E080E074DDF501D182C082F3019182FA
:104310008082C8010F900F900F900F90DF91CF9186
:104320001F910F91FF90EF90DF90CF90BF90AF90D3
:104330009F908F907F906F90089590E080E057DD80
:10434000F50111821082F30111821082C60131DB66
:1043500009EF1FEFDECF0FEF1FEFDBCF06EF1FEFF1
:10436000D8CF0097A1F04115510589F021153105ED
:1043700071F0F90136966E177F0748F0DC012D9336
:104380003C93DA01ED93FC9390E080E008958FEF89
:104390009FEF0895AF92BF92CF92DF92EF92FF927C
:1043A0000F931F93CF93DF93009709F45FC04115DC
:1043B000510509F45BC06530710508F457C02091C0
:1043C000A606C7EFDFEF222391F1DC01CD90DC9050
:1043D00011971296ED91FC9196012A5F3F4FC9EF1C
:1043E000DFEF2617370719F5C091A706D091A80669
:1043F000209749F521E030E03093A8062093A706E6
:104400007A018C01F093AA06E093A9065601B4E064
:10441000AB0EB11CB50176DE0A0D1B1DF801208123
:1044200031818217930729F5D701CD92DC92CE0115
:10443000DF91CF911F910F91FF90EF90DF90CF9080
:10444000BF90AF9008952091A9063091AA062F5FE2
:104450003F4FCCEFDFEFE217F30790F2CBEFDFEF48
:104460002E173F0768F2D0E0C0E0CACFCFEFDFEFF2
:10447000DECFC3EFDFEFDBCF84E090E0089582E092
:1044800090E008958CEF9FEF089580E290E008950A
:104490001092AC061092AB061092AA061092A906D2
:1044A0001092A8061092A70690E080E008959093DD
:1044B00064028093630208958091A606882391F098
:1044C000C5DD009789F41092AC061092AB061092ED
:1044D000AA061092A9061092A8061092A70610929A
:1044E000A606089590E080E00895009749F06115D0
:1044F000710531F0FC0111821082FB0111821082E2
:104500000895F3CF26E030E040E855E260E070E047
:1045100090E080E000C08130910569F01CF4892BA7
:1045200039F008958230910549F0039751F00895CC
:104530008AEB96E073C487E597E0FCCF84EF97E0C1
:10454000F9CF81E998E0F6CF1F920F920FB60F9244
:1045500011240BB60F922F933F934F935F936F935A
:104560007F938F939F93AF93BF93EF93FF938BECC6
:1045700093EF9093250180932401B9D0FF91EF919F
:10458000BF91AF919F918F917F916F915F914F916B
:104590003F912F910F900BBE0F900FBE0F901F9069
:1045A00018958BEC93EF9093250180932401A3E75A
:1045B000B0E08C918E7F8C93E0E2F1E080818C7F83
:1045C0008083E1E2F1E08081877E80838081856065
:1045D000808380818D7F80838C9181608C9308950E
:1045E000E3E7F0E0808190819E7F90838170089561
:1045F00081E008951092AD06089568EE73E080E0C2
:1046000090E0AAD290E080E0089526E030E040E01B
:1046100050E16EE070E090E080E07DDF8AEB96E0B4
:1046200033D3892B21F08AEB96E048D3F7CF90E083
:1046300080E00895CF92DF92EF92FF920F931F9345
:10464000CF93DF936B017A01E901198218828AEB1B
:1046500096E01AD3892B69F18601CC24C39482E0B9
:10466000D82E8091AD06811110C08AEB96E026D33A
:104670000297B9F7C092AD06F801D1928F018881F7
:104680009981019699838883ECCF888199818E15D1
:104690009F0578F48AEB96E011D38F3F9807A9F332
:1046A000F80181938F01888199810196998388838C
:1046B000ECCF90E080E0DF91CF911F910F91FF90C0
:1046C000EF90DF90CF9008950F931F93CF93DF93D8
:1046D000EA0189018AEB96E031D6F801D183C083E3
:1046E00090E080E0DF91CF911F910F91089580912C
:1046F000AE0691E0980F9093AE06882349F021E032
:1047000030E03093B0062093AF068093AE06089554
:1047100078940E943102F8948091AE068150F5CFD2
:104720000F931F93CF93DF9310925D0910925C0952
:1047300049D2E8DEC0917802D091790219821882BC
:104740006FEF7FEFCB010E94260270E060E090E007
:1047500080E00E94A800009709F042C00E94C903AF
:10476000F8947894BE016A557F4F8A819B810E949C
:10477000AB00892B71F46FEF7FEFCB010E943A0100
:104780000E942002882329F081E0FE01E455FF4FBA
:104790008083F89406DF0E942302882311F080E0D2
:1047A0000BC00E9420028111FACF81E0FE01E45586
:1047B000FF4F90819111F3CF80935C0978940E9410
:1047C000990A8C017894C455DF4F80915C0981115E
:1047D0000CC00E9470040E940602F89490E080E0F1
:1047E000DF91CF911F910F9108950E9404020E94C2
:1047F00023028823D9F081E080935D0990915D09BF
:1048000081E0911180E080935C0980915D098111C4
:10481000E7DE0130110529F40E94990A892B09F479
:10482000E9DE0E94990A8C01E3DECFCF0E942002CC
:104830008111E1CF81E098819111DECF80E0DCCF62
:1048400040D008F481E00895E89409C097FB3EF455
:1048500090958095709561957F4F8F4F9F4F9923CD
:10486000A9F0F92F96E9BB279395F695879577954B
:104870006795B795F111F8CFFAF4BB0F11F460FF0B
:104880001BC06F5F7F4F8F4F9F4F16C0882311F063
:1048900096E911C0772321F09EE8872F762F05C077
:1048A000662371F096E8862F70E060E02AF09A9512
:1048B000660F771F881FDAF7880F9695879597F907
:1048C0000895990F0008550FAA0BE0E8FEEF1616A1
:1048D0001706E807F907C0F012161306E407F507F4
:1048E00098F0621B730B840B950B39F40A2661F068
:1048F000232B242B252B21F408950A2609F4A1400B
:10490000A6958FEF811D811D0895DBDF08F48FEFE1
:1049100008950BD078C069D028F06ED018F0952398
:1049200009F05AC05FC01124A2C07ED0A0F3959FA9
:10493000D1F3950F50E0551F629FF001729FBB2786
:10494000F00DB11D639FAA27F00DB11DAA1F649F32
:104950006627B00DA11D661F829F2227B00DA11DE5
:10496000621F739FB00DA11D621F839FA00D611D6B
:10497000221F749F3327A00D611D231F849F600D8C
:10498000211D822F762F6A2F11249F5750408AF0C5
:10499000E1F088234AF0EE0FFF1FBB1F661F771F51
:1049A000881F91505040A9F79E3F510570F014C0E8
:1049B0005EC05F3FECF3983EDCF386957795679594
:1049C000B795F795E7959F5FC1F7FE2B880F911D6F
:1049D0009695879597F9089597F99F6780E870E015
:1049E00060E008959FEF80EC089500240A94161665
:1049F000170618060906089500240A9412161306CD
:104A0000140605060895092E0394000C11F488235A
:104A100052F0BB0F40F4BF2B11F460FF04C06F5F76
:104A20007F4F8F4F9F4F089557FD9058440F551F4C
:104A300059F05F3F71F04795880F97FB991F61F020
:104A40009F3F79F087950895121613061406551F97
:104A5000F2CF4695F1DF08C0161617061806991F03
:104A6000F1CF86957105610508940895E894BB27F8
:104A700066277727CB0197F908951F920F920FB6FB
:104A80000F9211242F933F938F939F93AF93BF93D4
:104A90008091B2069091B306A091B406B091B5068C
:104AA0003091B10623E0230F2D3758F50196A11D53
:104AB000B11D2093B1068093B2069093B306A093E4
:104AC000B406B093B5068091B6069091B706A09152
:104AD000B806B091B9060196A11DB11D8093B60626
:104AE0009093B706A093B806B093B906BF91AF9163
:104AF0009F918F913F912F910F900FBE0F901F901C
:104B0000189526E8230F0296A11DB11DD2CF3FB7FD
:104B1000F8948091B6069091B706A091B806B0912E
:104B2000B90626B5A89B05C02F3F19F00196A11D17
:104B3000B11D3FBFBA2FA92F982F8827BC01CD01E7
:104B4000620F711D811D911D42E0660F771F881F46
:104B5000991F4A95D1F708958F929F92AF92BF9275
:104B6000CF92DF92EF92FF926B017C01D0DF4B017D
:104B70005C01C114D104E104F104D9F00CD4C7DF05
:104B8000681979098A099B09683E73408105910576
:104B900080F321E0C21AD108E108F10888EE880EFE
:104BA00083E0981EA11CB11CC114D104E104F104DE
:104BB00031F7FF90EF90DF90CF90BF90AF909F9034
:104BC0008F900895789484B5826084BD84B58160A7
:104BD00084BD85B5826085BD85B5816085BDEEE605
:104BE000F0E0808181608083E1E8F0E010828081E4
:104BF00082608083808181608083E0E8F0E0808152
:104C000081608083E1EBF0E0808184608083E0EB71
:104C1000F0E0808181608083E1E9F0E08081826062
:104C20008083808181608083E0E9F0E08081816021
:104C30008083E1EAF0E0808182608083808181600E
:104C40008083E0EAF0E0808181608083E1E2F1E04E
:104C5000808182608083808181608083E0E2F1E0F6
:104C6000808181608083EAE7F0E0808184608083D6
:104C70008081826080838081816080838081806880
:104C800080831092C1000895FC01918D228D892F9F
:104C900090E0805C9F4F821B91098F739927089544
:104CA000FC01918D828D981731F0828DE80FF11DF6
:104CB000858D90E008958FEF9FEF0895FC01918D11
:104CC000828D981761F0A28DAE0FBF2FB11D5D963A
:104CD0008C91928D9F5F9F73928F90E008958FEFDC
:104CE0009FEF0895FC01538D448D252F30E0842FD4
:104CF00090E0821B930B541710F0CF960895019704
:104D00000895FC01A48DA80FB92FB11DA35ABF4F60
:104D10002C91848D90E001968F739927848FA689BA
:104D2000B7892C93A089B1898C91837080648C930E
:104D3000938D848D981306C00288F389E02D8081BD
:104D40008F7D80830895CF93DF93EC01888D882336
:104D5000B1F0AA89BB89E889F9898C9185FD03C0E6
:104D6000808186FD0CC00FB607FCF7CF8C9185FFC4
:104D7000F2CF808185FFEDCFCE01C3DFEACFDF9197
:104D8000CF910895EF92FF920F931F93CF93DF93EC
:104D9000EC0181E0888F9B8D8C8D98131AC0E88977
:104DA000F989808185FF15C09FB7F894EE89FF8946
:104DB0006083E889F98980818370806480839FBFE4
:104DC00081E090E0DF91CF911F910F91FF90EF90E4
:104DD0000895F62E0B8D10E00F5F1F4F0F731127F4
:104DE000E02E8C8D8E110BC00FB607FCFACFE88930
:104DF000F989808185FFF5CFCE0183DFF2CFEB8D7E
:104E0000EC0FFD2FF11DE35AFF4FF0829FB7F8948E
:104E10000B8FEA89FB8980818062D0CFCF92DF92AD
:104E2000EF92FF921F93CF93DF93EC016A017B0116
:104E3000122FE889F98982E08083C11481EED806B7
:104E4000E104F10499F060E079E08DE390E0A701DE
:104E50009601C5D22150310941095109569547950E
:104E600037952795211580E1380790F0E889F98971
:104E7000108260E874E88EE190E0A7019601AFD25D
:104E80002150310941095109569547953795279584
:104E9000EC85FD853083EE85FF852083188EEC89B7
:104EA000FD891083EA89FB89808180618083EA899A
:104EB000FB89808188608083EA89FB8980818068A2
:104EC0008083EA89FB8980818F7D8083DF91CF9108
:104ED0001F91FF90EF90DF90CF9008951F920F9257
:104EE0000FB60F9211240BB60F922F938F939F93AF
:104EF000EF93FF93E091CA06F091CB068081E09199
:104F0000D006F091D10682FD1DC090818091D3061C
:104F10008F5F8F732091D406821741F0E091D30602
:104F2000F0E0E654F94F958F8093D306FF91EF910F
:104F30009F918F912F910F900BBE0F900FBE0F90EE
:104F40001F9018958081F2CF1F920F920FB60F928B
:104F500011240BB60F922F933F934F935F936F9350
:104F60007F938F939F93AF93BF93EF93FF938AEBBE
:104F700096E0C7DEFF91EF91BF91AF919F918F9126
:104F80007F916F915F914F913F912F910F900BBE49
:104F90000F900FBE0F901F901895EAEBF6E013826A
:104FA000128288EE93E0A0E0B0E084839583A6832C
:104FB000B7838CEF92E09183808385EC90E09587B6
:104FC000848784EC90E09787868780EC90E0918BD3
:104FD000808B81EC90E0938B828B82EC90E0958BC0
:104FE000848B86EC90E0978B868B118E128E138EBD
:104FF000148E08951F920F920FB60F9211240BB6C4
:105000000F922F938F939F93EF93FF93E0916707F6
:10501000F09168078081E0916D07F0916E0782FD45
:105020001DC09081809170078F5F8F7320917107F1
:10503000821741F0E0917007F0E0E95AF84F958F40
:1050400080937007FF91EF919F918F912F910F9017
:105050000BBE0F900FBE0F901F9018958081F2CF5E
:105060001F920F920FB60F9211240BB60F922F932F
:105070003F934F935F936F937F938F939F93AF93E0
:10508000BF93EF93FF9387E597E03BDEFF91EF91AE
:10509000BF91AF919F918F917F916F915F914F9150
:1050A0003F912F910F900BBE0F900FBE0F901F904E
:1050B0001895E7E5F7E01382128288EE93E0A0E00E
:1050C000B0E084839583A683B7838CEF92E09183CD
:1050D00080838DEC90E0958784878CEC90E09787B7
:1050E000868788EC90E0918B808B89EC90E0938BA5
:1050F000828B8AEC90E0958B848B8EEC90E0978B82
:10510000868B118E128E138E148E08951F920F921D
:105110000FB60F9211240BB60F922F938F939F937C
:10512000EF93FF93E0910408F09105088081E091EE
:105130000A08F0910B0882FD1DC0908180910D0836
:105140008F5F8F7320910E08821741F0E0910D0858
:10515000F0E0EC50F84F958F80930D08FF91EF91A0
:105160009F918F912F910F900BBE0F900FBE0F90BC
:105170001F9018958081F2CF1F920F920FB60F9259
:1051800011240BB60F922F933F934F935F936F931E
:105190007F938F939F93AF93BF93EF93FF9384EF8E
:1051A00097E0AFDDFF91EF91BF91AF919F918F910C
:1051B0007F916F915F914F913F912F910F900BBE17
:1051C0000F900FBE0F901F901895E4EFF7E0138239
:1051D000128288EE93E0A0E0B0E084839583A683FA
:1051E000B7838CEF92E09183808385ED90E0958783
:1051F000848784ED90E09787868780ED90E0918B9F
:10520000808B81ED90E0938B828B82ED90E0958B8B
:10521000848B86ED90E0978B868B118E128E138E89
:10522000148E08951F920F920FB60F9211240BB691
:105230000F922F938F939F93EF93FF93E091A10889
:10524000F091A2088081E091A708F091A80882FD62
:105250001DC090818091AA088F5F8F732091AB0849
:10526000821741F0E091AA08F0E0EF56F74F958FD2
:105270008093AA08FF91EF919F918F912F910F90AA
:105280000BBE0F900FBE0F901F9018958081F2CF2C
:105290001F920F920FB60F9211240BB60F922F93FD
:1052A0003F934F935F936F937F938F939F93AF93AE
:1052B000BF93EF93FF9381E998E023DDFF91EF9196
:1052C000BF91AF919F918F917F916F915F914F911E
:1052D0003F912F910F900BBE0F900FBE0F901F901C
:1052E0001895E1E9F8E01382128288EE93E0A0E0DD
:1052F000B0E084839583A683B7838CEF92E091839B
:10530000808385E391E09587848784E391E09787A4
:10531000868780E391E0918B808B81E391E0938B92
:10532000828B82E391E0958B848B86E391E0978B6F
:10533000868B118E128E138E148E0895AF92BF92AB
:10534000CF92DF92EF92FF920F931F93CF93DF9351
:105350006C017B018B01040F151FEB015E01AE1880
:10536000BF08C017D10759F06991D601ED91FC91A2
:105370000190F081E02DC6011995892B79F7C501BF
:10538000DF91CF911F910F91FF90EF90DF90CF9021
:10539000BF90AF9008950895DB018F939F9349D0FC
:1053A000BF91AF91A29F800D911DA39F900DB29FC1
:1053B000900D11240895AA1BBB1B51E107C0AA1F21
:1053C000BB1FA617B70710F0A61BB70B881F991FA6
:1053D0005A95A9F780959095BC01CD010895A1E259
:1053E0001A2EAA1BBB1BFD010DC0AA1FBB1FEE1F5F
:1053F000FF1FA217B307E407F50720F0A21BB30BAA
:10540000E40BF50B661F771F881F991F1A9469F725
:1054100060957095809590959B01AC01BD01CF0181
:105420000895EE0FFF1F881F8BBF0790F691E02DA8
:10543000199409D0A59F900DB49F900DA49F800D45
:10544000911D11240895A29FB001B39FC001A39F95
:10545000700D811D1124911DB29F700D811D1124AD
:10546000911D0895FB01DC0102C001900D92415095
:105470005040D8F70895DC0101C06D934150504071
:08548000E0F70895F894FFCF56
:105488000000803F000000000000803F0000803FD7
:10549800000000000000803F000000000000803F86
:1054A8000000803F00000000000000000000803F76
:1054B800000000000000803F00000000FEFFFFFF2A
:1054C80001E8030000FFFF00000000FFFFFFFFFFEF
:1054D800FFFFFFFFFF01000100010020003800303E
:1054E80000FFFFFFFF46697865645374657044697F
:1054F80073637265746500012003FF00EE0C1A0DDA
:10550800FE00D40C550AFD00660CC00CFC00AC0C67
:10551800550AF6009D0D550AF500730CDC0DF400D4
:10552800660DF30DDE001A12B414DD008913550A56
:10553800DA00C30FCB0FD900CF14DB0FE200AB0E9C
:10554800550AE100E60E550AE0005B0F550AD60041
:10555800B218550AD5006811550AD400F410550A36
:10556800D3006510550AC000EA0F550AF0001B1950
:10557800550AED00D818550A00000000C2269E29D9
:0A5588007226A32644265E26502654
:00000001FF
