:10000000F8C000000C94BC090C94E7090C94120A87
:100010000C943D0A0C94680A0C94930A0C94BE0A42
:100020000C94E90A16C1000014C1000012C10000BE
:1000300010C100000EC100000CC100000AC1000088
:1000400008C1000006C1000004C1000002C1000098
:1000500000C10000FEC00000FCC000000C94140BA6
:10006000F8C000000C94B00E0C94E60EF2C0000034
:10007000F0C00000EEC00000ECC00000EAC00000CC
:10008000E8C00000E6C00000E4C00000E2C00000DC
:100090000C943C0F0C94720FDCC00000DAC000001E
:1000A000D8C00000D6C00000D4C00000D2C00000FC
:1000B000D0C00000CEC00000CCC00000CAC000000C
:1000C000C8C00000C6C0000027C600000C94C80FBE
:1000D0000C94FE0FBEC000000C9454100C948A10B7
:1000E000B8C0000000000A0B02090C0D0E0807033F
:1000F00004010000000000000000000000000000FB
:1001000000000000000000000000000000000000EF
:1001100012111000000000000000000000000000AC
:100120000000000000000000000001021020200874
:100130000810204010204080020102010804020142
:1001400001020408102040808040201008040201B1
:10015000800402018040201008040201080402010A
:100160000102040810204080010204081020408091
:1001700005050505070508080808020202020A0A23
:100180000808040404040101010101010101030341
:10019000030303030303040707070C0C0C0C0C0CEC
:1001A0000C0C0202020206060606060606060B0BE9
:1001B0000B0B0B0B0B0B00002200250028002B0063
:1001C0002E003100340002010000050108010B017E
:1001D00000002100240027002A002D0030003300F9
:1001E00001010000040107010A010F0F9B0F2710F6
:1001F000B31011241FBECFEFD1E2DEBFCDBF00E0B0
:100200000CBF12E0A0E0B2E0E0E9F2E200E00BBFD8
:1002100002C007900D92A034B107D9F725E0A0E401
:10022000B2E001C01D92A032B207E1F710E0C9EFC1
:10023000D0E000E006C021970109802FFE010E9456
:100240002F11C53FD10780E00807A9F7CBD50C9443
:100250004611D6CECF93DF93882349F0EB0181502E
:100260000E94C00B99838883DF91CF910895FB0191
:1002700011821082F9CF0F931F938B019C0183E0B1
:1002800036952795179507958A95D1F7075B1D4FEA
:10029000462F477021E030E0F90102C0EE0FFF1F4A
:1002A0004A95E2F7AF01F80120812423CB010196A2
:1002B000211102C090E080E01F910F9108950F93EB
:1002C0001F938B019C0183E0369527951795079521
:1002D0008A95D1F7677081E090E001C0880F6A9538
:1002E000EAF7F801E75BFD4F2081452B31F480955B
:1002F000822380831F910F910895822BFACFCF9292
:10030000DF92EF92FF92CF93DF936B017C0160E06D
:1003100086E3C816D104E104F10490F486E38C0D61
:100320000E941D0DE6012196AE01C701B601C7DF8F
:10033000CE01DF91CF91FF90EF90DF90CF900895A5
:100340008C2DEECF882341F08150682F70E090E033
:1003500080E050E040E0B3CF0895611102C00C94FA
:100360001D0D6130E1F362E0FACF662319F061E020
:100370000C94590D60E0FCCFCF92DF92EF92FF9288
:10038000CF93882339F16A017B01CFEFC80F20E0BA
:1003900030E0A901CB01B601D4D5181684F0C7010D
:1003A000B6019058D7D59B01AC016C2F70E090E05E
:1003B00080E0CF91FF90EF90DF90CF90AEC0C7016B
:1003C000B601C3D58C2FCF91FF90EF90DF90CF90E7
:1003D0000C94E30BCF91FF90EF90DF90CF900895B6
:1003E0000F931F938B019C0183E0369527951795FA
:1003F00007958A95D1F7005C1D4F462F477021E085
:1004000030E0F90102C0EE0FFF1F4A95E2F7AF019D
:10041000F80120812423CB010196211102C090E034
:1004200080E01F910F9108950F931F938B019C0102
:1004300083E036952795179507958A95D1F76770CC
:1004400081E090E001C0880F6A95EAF7F801E05C6E
:10045000FD4F2081452B31F48095822380831F91AD
:100460000F910895822BFACF2F923F924F925F9275
:100470006F927F928F929F92AF92BF92CF92DF92B4
:10048000EF92FF920F931F93CF93DF93D62EC72E39
:10049000782E692E49015A01280161E08D2D0E94B4
:1004A0001D0DCD2DDC2D8E010F5F1F4FA8016D2D71
:1004B0007C2D872D962DB8DF20E030E0A901C20108
:1004C000B70179D6181654F4C201B70143D52B01F0
:1004D000C501B4013FD5A201CE0123D0C801DF91EF
:1004E000CF911F910F91FF90EF90DF90CF90BF9031
:1004F000AF909F908F907F906F905F904F903F90C4
:100500002F900895882341F08150682F70E090E08B
:1005100080E050E040E088CF0895862FB9010C9428
:10052000E30B9C01FC01EC51FF4FE491E150E231FF
:10053000E0F4F0E08827E056FD4F8F4F0C942F1128
:10054000B202B902BC02D302E802B502FD020903FD
:100550000D03240339034E0365037A03B5028F03A9
:10056000A603BB0384B5806884BD60E0822F0C9431
:10057000590D84B58062F8CF809180008C7F8260B5
:100580008093800080918100807E8061682B6093E1
:10059000810050938700409386008091800080689E
:1005A00080938000E2CF809180008C7F8260809376
:1005B000800080918100807E8061682B6093810043
:1005C0005093870040938600809180008062E8CF3E
:1005D000809180008C7F8260809380008091810078
:1005E000807E8061682B60938100509387004093E8
:1005F0008600809180008860D3CF8091B0008068B1
:100600008093B0008091B100887F682B6093B10027
:10061000ACCF8091B0008062F3CF809190008C7F4E
:1006200082608093900080919100807E8061682B31
:1006300060939100509397004093960080919000B2
:1006400080688093900091CF809190008C7F826031
:100650008093900080919100807E8061682B6093F0
:100660009100509397004093960080919000806293
:10067000E8CF809190008C7F826080939000809181
:100680009100807E8061682B609391005093970069
:1006900040939600809190008860D3CF8091A00015
:1006A0008C7F82608093A0008091A100807E806119
:1006B000682B6093A1005093A7004093A6008091FF
:1006C000A00080688093A00050CF8091A0008C7F14
:1006D00082608093A0008091A100807E8061682B61
:1006E0006093A1005093A7004093A6008091A000C2
:1006F0008062E8CF8091A0008C7F82608093A00010
:100700008091A100807E8061682B6093A10050934E
:10071000A7004093A6008091A0008860D3CF80916D
:1007200020018C7F82608093200180912101807E56
:100730008061682B6093210150932701409326012B
:10074000809120018068809320010FCF809120014B
:100750008C7F82608093200180912101807E806166
:10076000682B6093210150932701409326018091CB
:1007700020018062E8CF809120018C7F826080938D
:10078000200180912101807E8061682B609321018E
:100790005093270140932601809120018860D3CF98
:1007A0008F929F92AF92BF92CF92DF92EF92FF9281
:1007B0008090F0049090F104A090F204B090F304C3
:1007C00020911002309111024091120250911302B7
:1007D000C501B401F4D4209108023091090240917E
:1007E0000A0250910B0236D36B017C01C0920205C4
:1007F000D0920305E0920405F092050520910C02C9
:1008000030910D0240910E0250910F02C501B401CA
:10081000D6D4A70196011ED36093F0047093F1041F
:100820008093F2049093F3048091FD04882349F0AF
:10083000813059F09091FE0481E0992319F080E015
:1008400001C081E08093FC0402C01092FC048091FE
:10085000FC048823C1F0C092F804D092F904E0921D
:10086000FA04F092FB048091FC048093FE048FEF65
:100870008093FC04FF90EF90DF90CF90BF90AF90FB
:100880009F908F900895C092F404D092F504E09266
:10089000F604F092F704E7CFCF92DF92EF92FF9247
:1008A0006B017C019F7720E030E040E859E549D3B7
:1008B00087FF26C020E030E040E05FE3C701B601DB
:1008C0007AD487FD0CC020E030E040E05FE3C70150
:1008D000B601C0D2FF90EF90DF90CF90A4C320E08C
:1008E00030E040E05FEBC701B60165D418167CF438
:1008F00020E030E0A901C701B60161D46B017C01A1
:10090000C701B601FF90EF90DF90CF90089520E0EF
:1009100030E040E05FE3C701B6019BD2FF90EF906B
:10092000DF90CF90FBC2CF92DF92EF92FF920F93B6
:100930001F93CF93DF931F921F92CDB7DEB7C09066
:100940000402D0900502E0900602F0900702A70191
:1009500096016091DC047091DD048091DE04909139
:10096000DF04EFD2882341F0C092DC04D092DD0492
:10097000E092DE04F092DF0466E370E080E090E055
:100980007ADC9093DB048093DA0443E050E0BE010C
:100990006F5F7F4F5FDC6BE070E080E090E020DD18
:1009A0008C019093EF048093EE0420911802309113
:1009B0001902A981BA810E94371121E19695879584
:1009C000779567952A95D1F770E090E080E0EED2B8
:1009D000AB01BC01C801D0DC8091FC04882329F064
:1009E000813039F08091FE0401C081E08093FD04E4
:1009F00002C01092FD048091FD04882379F160917A
:100A0000F8047091F9048091FA049091FB042FEF9F
:100A10002093FD0441DF6B017C0120E030E040E8E1
:100A200053E48FD26FEF87FF0CC020E030E0A901C4
:100A3000C701B601C0D360E087FD03C0C701B6019E
:100A400089D28DE092DC0F900F90DF91CF911F91B2
:100A50000F91FF90EF90DF90CF9008956091F40494
:100A60007091F5048091F6049091F704D0CF4F92E5
:100A70005F926F927F92AF92BF92DF92EF92FF925E
:100A80000F931F93CF93DF9384E090E0ECD010920C
:100A9000530210925202E2E0F5E084E0DF011D9281
:100AA0008A95E9F7C4EDD4E08EE2FE0111928A95B1
:100AB000E9F7DD24D394DDA680E0A82E82E0B82EED
:100AC000F50184819581A681B78188879987AA8756
:100AD000BB87412C512C3201439449825A826B824C
:100AE0007C8266E370E080E090E009DC9F838E8387
:100AF000DD821C8ADBA64D8A5E8A6F8A788EE12CA5
:100B0000F12C8701A80197016BE070E080E090E094
:100B1000ABDC9B8F8A8FD98E42E050E060ED73E0B2
:100B200080E0B1D31C86DCA64D865E866F86788A0F
:100B300061E08DE012DCD98AF50184899589A68966
:100B4000B78988A399A3AAA3BBA38FEF88A789A776
:100B500080819181A281B3818C8F9D8FAE8FBF8F59
:100B6000DF91CF911F910F91FF90EF90DF90BF9099
:100B7000AF907F906F905F904F9008958091D404D4
:100B800081111DC081E08093D4048091D50490919F
:100B9000D604A091D704B091D8040197A105B1055E
:100BA00071F48091D904882351F066E370E080E00D
:100BB00090E061DB9093DB048093DA04C3DB8091E7
:100BC000E80481112AC081E08093E8048091E9045F
:100BD0009091EA04A091EB04B091EC040197A10577
:100BE000B105D9F48091ED048823B9F06BE070E091
:100BF00080E090E0F5DB9093EF048093EE0440E01A
:100C000050E0BA01B9DB6BE070E080E090E0E8DB37
:100C10009093EF048093EE0475DC8091E0048111E1
:100C200003C081E08093E004089560E070E080E814
:100C30009FE7089560E070E080E89FE7089560E036
:100C400070E080E89FEF089560E070E080E89FEF3B
:100C5000089560E070E080EC9FEF089560E070E040
:100C600080EC9FEF0895F5DF6093120570931305F4
:100C70008093140590931505F1DF6093060570933A
:100C800007058093080590930905CFDF60930E0553
:100C900070930F058093100590931105CBDF60933F
:100CA0000A0570930B0580930C0590930D05C7DF23
:100CB0006093160570931705809318059093190596
:100CC000C3DF60931A0570931B0580931C059093F6
:100CD0001D05089526E030E040E855E260E070E050
:100CE00090E080E000C08130910569F01CF4892B10
:100CF00039F008958230910549F0039751F0089535
:100D000080E692E0CDC78DEF92E0FCCF8AE993E0D8
:100D1000F9CF87E394E0F6CF1F920F920FB60F92B0
:100D200011240BB60F922F933F934F935F936F93C2
:100D30007F938F939F93AF93BF93EF93FF938BEC2E
:100D400093EF909325018093240134D0FF91EF918C
:100D5000BF91AF919F918F917F916F915F914F91D3
:100D60003F912F910F900BBE0F900FBE0F901F90D1
:100D700018958BEC93EF9093250180932401A3E7C2
:100D8000B0E08C918E7F8C93E0E2F1E080818C7FEB
:100D90008083E1E2F1E08081877E808380818560CD
:100DA000808380818D7F80838C9181608C93089576
:100DB00081E008958091540291E0980F909354023D
:100DC000882349F021E030E0309356022093550209
:100DD0008093540208957894A6DDF894809154028B
:100DE0008150F6CFCF93DF9310921F0510921E050E
:100DF00065D470DFC0912B02D0912C021982188229
:100E000036DEF894B6DF81E028813981232B09F0A2
:100E100080E080931E057894789480911E0581115E
:100E200007C0ACDEF89490E080E0DF91CF910895A8
:100E300081E028813981232B09F480E080931F050C
:100E400090911F0581E0911180E080931E05B0DF35
:100E5000E4CF5058BB27AA270ED05CC14DD130F04B
:100E600052D120F031F49F3F11F41EF442C10EF430
:100E7000E095E7FB0FC1E92F5ED180F3BA17620757
:100E800073078407950718F071F49EF58DC10EF471
:100E9000E0950B2EBA2FA02D0B01B90190010C018A
:100EA000CA01A0011124FF27591B99F0593F50F4A2
:100EB000503E68F11A16F040A22F232F342F4427FA
:100EC000585FF3CF469537952795A795F0405395F2
:100ED000C9F77EF41F16BA0B620B730B840BBAF0C2
:100EE0009150A1F0FF0FBB1F661F771F881FC2F72D
:100EF0000EC0BA0F621F731F841F48F48795779541
:100F00006795B795F7959E3F08F0B3CF9395880FF7
:100F100008F09927EE0F9795879508952ED180F0C8
:100F20009F3740F491110EF440C160E070E080E81A
:100F30009FE3089526F01B16611D711D811DB0C031
:100F4000CAC084D008F481E0089504D06894B11137
:100F50002CC10895F8D088F09F5790F0B92F9927A9
:100F6000B751A0F0D1F0660F771F881F991F1AF0B4
:100F7000BA95C9F712C0B13081F016D1B1E0089529
:100F800013C1672F782F8827B85F39F0B93FCCF3AA
:100F9000869577956795B395D9F73EF490958095AA
:100FA000709561957F4F8F4F9F4F0895E89409C0CA
:100FB00097FB3EF490958095709561957F4F8F4F8C
:100FC0009F4F9923A9F0F92F96E9BB279395F695A2
:100FD000879577956795B795F111F8CFFAF4BB0F20
:100FE00011F460FF1BC06F5F7F4F8F4F9F4F16C084
:100FF000882311F096E911C0772321F09EE8872F0E
:10100000762F05C0662371F096E8862F70E060E0C9
:101010002AF09A95660F771F881FDAF7880F969542
:10102000879597F90895A9D080F09F3740F49111E2
:101030000EF0BBC060E070E080E89FEB089526F4FE
:101040001B16611D711D811D2BC045C0990F000825
:10105000550FAA0BE0E8FEEF16161706E807F9078A
:10106000C0F012161306E407F50798F0621B730B25
:10107000840B950B39F40A2661F0232B242B252BA6
:1010800021F408950A2609F4A140A6958FEF811D49
:10109000811D089597F99F6780E870E060E00895EA
:1010A000882371F4772321F09850872B762F07C07F
:1010B000662311F499270DC09051862B70E060E0F3
:1010C0002AF09A95660F771F881FDAF7880F969592
:1010D000879597F908959F3F31F0915020F48795B7
:1010E00077956795B795880F911D9695879597F990
:1010F00008959FEF80EC089500240A9416161706B1
:1011000018060906089500240A94121613061406F8
:1011100005060895092E0394000C11F4882352F05B
:10112000BB0F40F4BF2B11F460FF04C06F5F7F4F13
:101130008F4F9F4F089557FD9058440F551F59F0FA
:101140005F3F71F04795880F97FB991F61F09F3FB4
:1011500079F087950895121613061406551FF2CFDD
:101160004695F1DF08C0161617061806991FF1CF2D
:1011700086957105610508940895E5DFA0F0BEE746
:10118000B91788F4BB279F3860F41616B11D672F76
:10119000782F8827985FF7CF869577956795B11D4B
:1011A00093959639C8F30895E894BB276627772767
:1011B000CB0197F908954ADF08F48FEF08950BD01B
:1011C000A9CF9ADF28F09FDF18F0952309F062CFAE
:1011D00090CF1124EACFAFDFA0F3959FD1F3950F05
:1011E00050E0551F629FF001729FBB27F00DB11DAB
:1011F000639FAA27F00DB11DAA1F649F6627B00D3B
:10120000A11D661F829F2227B00DA11D621F739F23
:10121000B00DA11D621F839FA00D611D221F749F31
:101220003327A00D611D231F849F600D211D822F78
:10123000762F6A2F11249F5750408AF0E1F08823BF
:101240004AF0EE0FFF1FBB1F661F771F881F9150CC
:101250005040A9F79E3F510570F01CCFA6CF5F3FCD
:10126000ECF3983EDCF3869577956795B795F795FF
:10127000E7959F5FC1F7FE2B880F911D9695879587
:1012800097F908950895883008F075C0E82FF0E0C8
:10129000EE0FFF1FE65EFD4F718360838150873044
:1012A00008F03CC0E82FF0E08827E75AF64F8F4F50
:1012B000D6C796096009680974098109A209AF09AE
:1012C000809169008C7F482B40936900E89A0895CB
:1012D00080916900837F440F551F440F551F482B91
:1012E00040936900E99A0895809169008F7C74E0C9
:1012F000440F551F7A95E1F7482B40936900EA9A0D
:101300000895809169008F7366E0440F551F6A95B8
:10131000E1F7482B40936900EB9A089580916A00A9
:101320008C7F482B40936A00EC9A089580916A0064
:10133000837F440F551F440F551F482B40936A006D
:10134000ED9A089580916A008F7C24E0440F551F28
:101350002A95E1F7482B40936A00EE9A0895809110
:101360006A008F7396E0440F551F9A95E1F7482B5A
:1013700040936A00EF9A08951F920F920FB60F9252
:1013800011240BB60F922F933F934F935F936F935C
:101390007F938F939F93AF93BF93EF93FF93E091CE
:1013A0001E02F0911F021995FF91EF91BF91AF912D
:1013B0009F918F917F916F915F914F913F912F916D
:1013C0000F900BBE0F900FBE0F901F9018951F929D
:1013D0000F920FB60F9211240BB60F922F933F93DB
:1013E0004F935F936F937F938F939F93AF93BF932D
:1013F000EF93FF93E0912002F09121021995FF9164
:10140000EF91BF91AF919F918F917F916F915F917C
:101410004F913F912F910F900BBE0F900FBE0F90E9
:101420001F9018951F920F920FB60F9211240BB6B2
:101430000F922F933F934F935F936F937F938F936D
:101440009F93AF93BF93EF93FF93E0912202F091AC
:1014500023021995FF91EF91BF91AF919F918F91C9
:101460007F916F915F914F913F912F910F900BBEA4
:101470000F900FBE0F901F9018951F920F920FB6EE
:101480000F9211240BB60F922F933F934F935F93BC
:101490006F937F938F939F93AF93BF93EF93FF933C
:1014A000E0912402F09125021995FF91EF91BF91EF
:1014B000AF919F918F917F916F915F914F913F91EC
:1014C0002F910F900BBE0F900FBE0F901F9018958D
:1014D0001F920F920FB60F9211240BB60F922F93FB
:1014E0003F934F935F936F937F938F939F93AF93AC
:1014F000BF93EF93FF93E0911A02F0911B021995AD
:10150000FF91EF91BF91AF919F918F917F916F91DB
:101510005F914F913F912F910F900BBE0F900FBE97
:101520000F901F9018951F920F920FB60F921124D3
:101530000BB60F922F933F934F935F936F937F93CD
:101540008F939F93AF93BF93EF93FF93E0911C0210
:10155000F0911D021995FF91EF91BF91AF919F916D
:101560008F917F916F915F914F913F912F910F904C
:101570000BBE0F900FBE0F901F9018951F920F92E9
:101580000FB60F9211240BB60F922F933F934F93E8
:101590005F936F937F938F939F93AF93BF93EF93DB
:1015A000FF93E0912602F09127021995FF91EF91A8
:1015B000BF91AF919F918F917F916F915F914F916B
:1015C0003F912F910F900BBE0F900FBE0F901F9069
:1015D00018951F920F920FB60F9211240BB60F920F
:1015E0002F933F934F935F936F937F938F939F932B
:1015F000AF93BF93EF93FF93E0912802F0912902FC
:101600001995FF91EF91BF91AF919F918F917F912C
:101610006F915F914F913F912F910F900BBE0F9063
:101620000FBE0F901F9018951F920F920FB60F923A
:1016300011242F933F938F939F93AF93BF938091E8
:10164000580290915902A0915A02B0915B023091D8
:10165000570223E0230F2D3758F50196A11DB11D28
:10166000209357028093580290935902A0935A02F4
:10167000B0935B0280915C0290915D02A0915E024A
:10168000B0915F020196A11DB11D80935C02909301
:101690005D02A0935E02B0935F02BF91AF919F91F4
:1016A0008F913F912F910F900FBE0F901F90189523
:1016B00026E8230F0296A11DB11DD2CF789484B5E0
:1016C000826084BD84B5816084BD85B5826085BD3E
:1016D00085B5816085BDEEE6F0E080818160808324
:1016E000E1E8F0E010828081826080838081816007
:1016F0008083E0E8F0E0808181608083E1EBF0E0CE
:10170000808184608083E0EBF0E080818160808371
:10171000E1E9F0E080818260808380818160808364
:10172000E0E9F0E0808181608083E1EAF0E080819F
:1017300082608083808181608083E0EAF0E0808144
:1017400081608083E1E2F1E080818260808380813A
:1017500081608083E0E2F1E0808181608083EAE75C
:10176000F0E08081846080838081826080838081DA
:10177000816080838081806880831092C100089599
:10178000863308F0865320917B00982F9870277F2E
:10179000922B90937B0020912A0290E4299F900144
:1017A00011248770822B80937C0080917A00806462
:1017B00080937A0080917A0086FDFCCF809178003A
:1017C0009091790008951F93CF93DF93182FEB0129
:1017D00061E033D1209731F460E0812FDF91CF9128
:1017E0001F9167C1CF3FD10511F461E0F6CFE12F22
:1017F000F0E0EC51FF4FE491E150E23108F0B2C06B
:10180000F0E08827EA5FF34F8F4F29C5180C200CB2
:10181000250C2F0C390CB20C430C4B0C530C5D0CEB
:10182000670C710C800C8A0CB20C940C9E0CA80CEA
:1018300084B5806884BDC7BDDF91CF911F910895A5
:1018400084B5806284BDC8BDF7CF80918000806878
:1018500080938000D0938900C0938800EDCF809161
:101860008000806280938000D0938B00C0938A00B8
:10187000E3CF80918000886080938000D0938D00BA
:10188000C0938C00D9CF8091B00080688093B00065
:10189000C093B300D1CF8091B00080628093B0003C
:1018A000C093B400C9CF809190008068809390006D
:1018B000D0939900C0939800BFCF80919000806230
:1018C00080939000D0939B00C0939A00B5CF8091F5
:1018D0009000886080939000D0939D00C0939C00FE
:1018E000ABCF8091A00080688093A0008091A00081
:1018F0008F7B8093A000D093A900C093A8009CCFB9
:101900008091A00080628093A000D093AB00C09330
:10191000AA0092CF8091A00088608093A000D0930D
:10192000AD00C093AC0088CF809120018068809387
:101930002001D0932901C09328017ECF80912001FE
:10194000806280932001D0932B01C0932A0174CF31
:1019500080912001886080932001D0932D01C09355
:101960002C016ACFC038D1050CF03FCF35CF815064
:10197000823108F059C0E82FF0E08827EE53F34F8A
:101980008F4F6DC4E20CE60CD40CDA0CDE0C140D97
:10199000E90CEF0CF30CF90CFD0C010D070D0B0D10
:1019A000140D0F0D150D190D809180008F77809308
:1019B00080000895809180008F7DF9CF8091800014
:1019C000877FF5CF84B58F7784BD089584B58F7DEB
:1019D000FBCF8091B0008F778093B0000895809105
:1019E000B0008F7DF9CF809190008F778093900029
:1019F0000895809190008F7DF9CF80919000877F2E
:101A0000F5CF8091A0008F778093A00008958091FA
:101A1000A0008F7DF9CF8091A000877FF5CF8091C6
:101A200020018F77809320010895809120018F7D80
:101A3000F9CF80912001877FF5CFCF93DF9390E09E
:101A4000FC01E65DFE4F249180599E4FFC0184917C
:101A50008823C9F090E0880F991FFC01E053FE4FE6
:101A6000A591B491FC01EA54FE4FC591D491611146
:101A70000DC09FB7F8948C91209582238C93888118
:101A8000282328839FBFDF91CF910895623051F4BE
:101A90009FB7F8943C91822F809583238C93E881A3
:101AA0002E2BEFCF8FB7F894EC912E2B2C938FBF6A
:101AB000EACF1F93CF93DF93282F30E0F901EC5149
:101AC000FF4F8491F901E65DFE4FD491F901E05991
:101AD000FE4FC491CC23A1F0162F811148DFEC2FCB
:101AE000F0E0EE0FFF1FEA54FE4FA591B4918FB7BF
:101AF000F894EC91111108C0D095DE23DC938FBFD0
:101B0000DF91CF911F910895DE2BF8CFFC01918DCD
:101B1000228D892F90E0805C9F4F821B91098F73EB
:101B200099270895FC01918D828D981731F0828D4F
:101B3000E80FF11D858D90E008958FEF9FEF0895D8
:101B4000FC01918D828D981761F0A28DAE0FBF2F91
:101B5000B11D5D968C91928D9F5F9F73928F90E0E7
:101B600008958FEF9FEF0895FC01538D448D252F2D
:101B700030E0842F90E0821B930B541710F0CF9627
:101B8000089501970895FC01A48DA80FB92FB11DE8
:101B9000A35ABF4F2C91848D90E001968F739927A3
:101BA000848FA689B7892C93A089B1898C91837081
:101BB00080648C93938D848D981306C00288F3897A
:101BC000E02D80818F7D80830895CF93DF93EC019A
:101BD000888D8823B1F0AA89BB89E889F9898C911D
:101BE00085FD03C0808186FD0CC00FB607FCF7CFD2
:101BF0008C9185FFF2CF808185FFEDCFCE01C3DFD1
:101C0000EACFDF91CF910895EF92FF920F931F9348
:101C1000CF93DF93EC0181E0888F9B8D8C8D98139F
:101C20001AC0E889F989808185FF15C09FB7F894AB
:101C3000EE89FF896083E889F989808183708064F7
:101C400080839FBF81E090E0DF91CF911F910F9142
:101C5000FF90EF900895F62E0B8D10E00F5F1F4F51
:101C60000F731127E02E8C8D8E110BC00FB607FC61
:101C7000FACFE889F989808185FFF5CFCE0183DF2E
:101C8000F2CFEB8DEC0FFD2FF11DE35AFF4FF082E9
:101C90009FB7F8940B8FEA89FB8980818062D0CF4F
:101CA000CF92DF92EF92FF921F93CF93DF93EC01DD
:101CB0006A017B01122FE889F98982E08083C114CF
:101CC00081EED806E104F10499F060E079E08DE35B
:101CD00090E0A7019601A1D2215031094109510993
:101CE0005695479537952795211580E1380790F04F
:101CF000E889F989108260E874E88EE190E0A70134
:101D000096018BD2215031094109510956954795C9
:101D100037952795EC85FD853083EE85FF852083FB
:101D2000188EEC89FD891083EA89FB8980818061A6
:101D30008083EA89FB89808188608083EA89FB89C6
:101D4000808180688083EA89FB8980818F7D8083A0
:101D5000DF91CF911F91FF90EF90DF90CF9008958A
:101D60001F920F920FB60F9211240BB60F922F9362
:101D70008F939F93EF93FF93E0917002F091710224
:101D80008081E0917602F091770282FD1DC0908102
:101D9000809179028F5F8F7320917A02821741F0D0
:101DA000E0917902F0E0E05AFD4F958F809379023F
:101DB000FF91EF919F918F912F910F900BBE0F90FC
:101DC0000FBE0F901F9018958081F2CF1F920F9237
:101DD0000FB60F9211240BB60F922F933F934F9390
:101DE0005F936F937F938F939F93AF93BF93EF9383
:101DF000FF9380E692E0C7DEFF91EF91BF91AF9134
:101E00009F918F917F916F915F914F913F912F9112
:101E10000F900BBE0F900FBE0F901F901895E0E62D
:101E2000F2E01382128288EE93E0A0E0B0E08483B7
:101E30009583A683B78381E392E09183808385ECC9
:101E400090E09587848784EC90E09787868780EC84
:101E500090E0918B808B81EC90E0938B828B82EC75
:101E600090E0958B848B86EC90E0978B868B118E1F
:101E7000128E138E148E08951F920F920FB60F922A
:101E800011240BB60F922F938F939F93EF93FF9391
:101E9000E0910D03F0910E038081E0911303F09126
:101EA000140382FD1DC09081809116038F5F8F7394
:101EB00020911703821741F0E0911603F0E0E35000
:101EC000FD4F958F80931603FF91EF919F918F9116
:101ED0002F910F900BBE0F900FBE0F901F90189573
:101EE0008081F2CF1F920F920FB60F9211240BB682
:101EF0000F922F933F934F935F936F937F938F93A3
:101F00009F93AF93BF93EF93FF938DEF92E03BDEF0
:101F1000FF91EF91BF91AF919F918F917F916F91C1
:101F20005F914F913F912F910F900BBE0F900FBE7D
:101F30000F901F901895EDEFF2E01382128288EE59
:101F400093E0A0E0B0E084839583A683B78381E328
:101F500092E0918380838DEC90E0958784878CEC70
:101F600090E09787868788EC90E0918B808B89EC56
:101F700090E0938B828B8AEC90E0958B848B8EEC37
:101F800090E0978B868B118E128E138E148E08958F
:101F90001F920F920FB60F9211240BB60F922F9330
:101FA0008F939F93EF93FF93E091AA03F091AB037C
:101FB0008081E091B003F091B10382FD1DC090815A
:101FC0008091B3038F5F8F732091B403821741F028
:101FD000E091B303F0E0E656FC4F958F8093B30396
:101FE000FF91EF919F918F912F910F900BBE0F90CA
:101FF0000FBE0F901F9018958081F2CF1F920F9205
:102000000FB60F9211240BB60F922F933F934F935D
:102010005F936F937F938F939F93AF93BF93EF9350
:10202000FF938AE993E0AFDDFF91EF91BF91AF910C
:102030009F918F917F916F915F914F913F912F91E0
:102040000F900BBE0F900FBE0F901F901895EAE9EE
:10205000F3E01382128288EE93E0A0E0B0E0848384
:102060009583A683B78381E392E09183808385ED96
:1020700090E09587848784ED90E09787868780ED50
:1020800090E0918B808B81ED90E0938B828B82ED41
:1020900090E0958B848B86ED90E0978B868B118EEC
:1020A000128E138E148E08951F920F920FB60F92F8
:1020B00011240BB60F922F938F939F93EF93FF935F
:1020C000E0914704F09148048081E0914D04F09143
:1020D0004E0482FD1DC09081809150048F5F8F73EC
:1020E00020915104821741F0E0915004F0E0E95C46
:1020F000FB4F958F80935004FF91EF919F918F91AB
:102100002F910F900BBE0F900FBE0F901F90189540
:102110008081F2CF1F920F920FB60F9211240BB64F
:102120000F922F933F934F935F936F937F938F9370
:102130009F93AF93BF93EF93FF9387E394E023DDE7
:10214000FF91EF91BF91AF919F918F917F916F918F
:102150005F914F913F912F910F900BBE0F900FBE4B
:102160000F901F901895E7E3F4E01382128288EE37
:1021700093E0A0E0B0E084839583A683B78381E3F6
:1021800092E09183808385E391E09587848784E35F
:1021900091E09787868780E391E0918B808B81E344
:1021A00091E0938B828B82E391E0958B848B86E325
:1021B00091E0978B868B118E128E138E148E08955C
:1021C000AF92BF92CF92DF92EF92FF920F931F9345
:1021D000CF93DF936C017B018B01040F151FEB0183
:1021E0005E01AE18BF08C017D10759F06991D6013A
:1021F000ED91FC910190F081E02DC6011995892B9C
:1022000079F7C501DF91CF911F910F91FF90EF906A
:10221000DF90CF90BF90AF900895A1E21A2EAA1B35
:10222000BB1BFD010DC0AA1FBB1FEE1FFF1FA21786
:10223000B307E407F50720F0A21BB30BE40BF50B83
:10224000661F771F881F991F1A9469F7609570950C
:10225000809590959B01AC01BD01CF010895EE0FD3
:10226000FF1F881F8BBF0790F691E02D1994A29F46
:10227000B001B39FC001A39F700D811D1124911D5A
:10228000B29F700D811D1124911D0895F894FFCF08
:102290000000803F000080BF0000803F0000008001
:1022A0000000803F0000000000804209420942090E
:1022B0004209420942094209420901520200000052
:1022C00000040EE010B40DE50D860DA00D920D007A
:00000001FF
