:1000000075C00000A4C00000A2C00000A0C0000095
:100010009EC000009CC000009AC0000098C0000074
:1000200096C0000094C0000092C0000090C0000084
:100030008EC000008CC000008AC0000088C0000094
:1000400086C0000084C0000082C0000080C00000A4
:100050007EC000007CC000007AC000000C94D32455
:1000600076C000000C9404270C943A2770C000005E
:100070006EC000006CC000006AC0000068C00000D4
:1000800066C0000064C0000062C0000060C00000E4
:100090000C9490270C94C6275AC0000058C000004A
:1000A00056C0000054C0000052C0000050C0000004
:1000B0004EC000004CC000004AC0000048C0000014
:1000C00046C0000044C000000C943A220C941C2846
:1000D0000C9452283CC000000C94A8280C94DE28F4
:1000E00036C000006327EF277B28072911241FBE95
:1000F000CFEFD1E2DEBFCDBF00E00CBF12E0A0E049
:10010000B2E0E4EBF3E500E00BBF02C007900D9214
:10011000AA3FB107D9F728E0AAEFB2E001C01D92CB
:10012000AA3FB207E1F710E0C6E7D0E000E006C062
:1001300021970109802FFE010E94A729C237D1070C
:1001400080E00807A9F70E9426230C94D82958CFED
:1001500090E080E008950F931F93009709F487C003
:100160006115710509F483C000912C0210912D02D4
:1001700020912E0230912F020E3F1F4F2F4F3F4FE5
:1001800009F066C04FEF5FEFBA0140932C02509325
:100190002D0260932E0270932F0240912C025091F9
:1001A0002D0260912E0270912F02DC011296ED91CA
:1001B000FC9180819181A281B3818093F40390931B
:1001C000F503A093F603B093F70384819581A6818C
:1001D000B7818093F0039093F103A093F203B0935F
:1001E000F30380859185A285B3858093EC0390937A
:1001F000ED03A093EE03B093EF0384859585A68568
:10020000B7858093E8039093E903A093EA03B09342
:10021000EB031092E4031092E5031092E6031092B0
:10022000E7030FD586E496E09093FB028093FA02F1
:100230009093FD028093FC02F3D3009731F421E008
:1002400030E03093F9032093F8031F910F91089544
:1002500000912C0210912D0220912E0230912F023C
:10026000DB010D931D932D933C93139796CF8FEF46
:100270009FEFEBCF8F929F92AF92BF92CF92DF9280
:10028000EF92FF921F93CF93DF934B015C0110918C
:10029000FB0382E090E09093F9038093F8038114CC
:1002A0009104A104B10441F48091FB03811104C0C5
:1002B0008091FA03C1E08111C0E0C12CD12C7601FC
:1002C0008091FB03811106C08091FA03811102C065
:1002D000CC23D9F083E090E09093F9038093F80366
:1002E000CC2379F1CCE9DFEF111102C00E94AB09F8
:1002F000CE01DF91CF911F91FF90EF90DF90CF90D3
:10030000BF90AF909F908F9008956AE070E080E07A
:1003100090E00E94422580E1C80E87E2D81EE11CD1
:10032000F11C8FEF88169806A806B80631F0C1E0D8
:100330008C149D04AE04BF0408F0C0E080E0A4D398
:10034000BFCFD0E0C0E0D0CFCF92DF92EF92FF924C
:100350000F931F93CF93DF938F3F910511F008F018
:1003600050C02091F8033091F9032330310539F062
:100370002091F8033091F9032130310531F424E064
:1003800030E03093F9032093F8036A017B01EC011C
:1003900082309105A0F011E0AE01C701B6013FD354
:1003A000AB01BC01CE011123F9F0DF91CF911F9178
:1003B0000F91FF90EF90DF90CF900C94D40B8C01B5
:1003C000000F111F06501D4FD8018D919C91892B54
:1003D00011F30E94DE0B0297F1F6D801ED91FC912A
:1003E000CE011995182FD8CF0E94F60B90E080E02F
:1003F000DF91CF911F910F91FF90EF90DF90CF9001
:1004000008958FEF9FEFF4CF80E03EC3CF93DF934B
:1004100086E090E09093F9038093F8038ED3EC018B
:10042000EAEFF2E084E0DF011D928A95E9F72BD72D
:100430001092F9031092F803CE01DF91CF91089545
:100440008091FA0308958091E303089560932C024C
:1004500070932D0280932E0290932F0290E080E003
:100460000895CF92DF92EF92FF92CF93DF93809126
:10047000F7088150D3E0823008F0D0E0D093F7083D
:100480008091F6088150C3E0823008F0C0E0C0934C
:10049000F608E091BD03F091BE03C080D180E280F8
:1004A000F380A70196016091000270910102809192
:1004B0000202909103020E941B2418160CF0D7C070
:1004C0008091040290910502A0910602B09107026A
:1004D0008093DE089093DF08A093E008B093E108D2
:1004E00020E030E040E050E46091DE087091DF08E9
:1004F0008091E0089091E1080E941B2418160CF0EE
:10050000C3C080910C0290910D02A0910E02B09197
:100510000F028093E2089093E308A093E408B0935D
:10052000E508DD2309F4ACC0D33009F4ABC0D093A7
:10053000F708A7019601609114027091150280914D
:100540001602909117020E941B2418160CF0B7C0D7
:100550008091180290911902A0911A02B0911B0289
:100560008093E6089093E708A093E808B093E90821
:10057000209128023091290240912A0250912B02A9
:100580006091E6087091E7088091E8089091E90889
:100590000E941B2418160CF09BC0809120029091A1
:1005A0002102A0912202B09123028093EA08909345
:1005B000EB08A093EC08B093ED084091AA0350918A
:1005C000AB036091AC037091AD0390E080E0BCDEC2
:1005D0004091B2035091B3036091B4037091B5039D
:1005E00081E090E0B1DE6091AA037091AB0380914D
:1005F000AC039091AD036F5F7F4F8F4F9F4F609320
:10060000AA037093AB038093AC039093AD03C091A6
:10061000BD03D091BE030E94BA239B01AC0160913F
:10062000AE037091AF038091B0039091B1030E942B
:100630001F24688379838A839B838091B20390917E
:10064000B303A091B403B091B5030196A11DB11DF0
:100650008093B2039093B303A093B403B093B50314
:10066000DF91CF91FF90EF90DF90CF900895809130
:10067000080290910902A0910A02B0910B0228CFC2
:10068000D2E055CFD1E053CF80911002909111026A
:10069000A0911202B09113028093E2089093E308B4
:1006A000A093E408B093E508CC2329F0C33029F0E7
:1006B000C093F6083ECFC2E0FBCFC1E0F9CF8091F6
:1006C0001C0290911D02A0911E02B0911F0248CF02
:1006D0008091240290912502A0912602B0912702D8
:1006E00064CF0F931F93CF93DF93E0E1F3E08AEBA6
:1006F00093E097838683CDEBD3E0D0935103C093EF
:1007000050030EEA13E0158B048BF0937B03E09308
:100710007A03F583E48321E030E0DC012D933C9300
:100720001092910385E592E0938782878FEB93E0A7
:100730009983888340E050E060E87FEB4093B60304
:100740005093B7036093B8037093B9034DEC5CEC1E
:100750006CE47EE3D8014D935D936D937C93139786
:10076000C8E9D3E04AEB5EE46AE77CE44883598356
:100770006A837B8340E759EC6EE47DE640939C03FB
:1007800050939D0360939E0370939F034AE352E648
:1007900060E079E44093A0035093A1036093A20327
:1007A0007093A30345EC5FED62E879E04093A40306
:1007B0005093A5036093A6037093A703A4E0B3E04E
:1007C000B383A283EEEFF2E01196FC93EE9327E65B
:1007D00032E03183208326EF38E03383228327EF12
:1007E00038E03583248328EA33E015963C932E9332
:1007F00014971396DC93CE93129717969C938E932F
:100800001697DF91CF911F910F91089508954F9200
:100810005F926F927F928F929F92AF92BF92CF9290
:10082000DF92EF92FF920F931F93F8944090D303BF
:100830005090D4036090D5037090D603C090C70346
:10084000D090C803E090C903F090CA03413051052D
:1008500009F0A6C09B01AC012419350946095709C6
:1008600029013A010091CF031091D0032091D103C7
:100870003091D20348015901840C951CA61CB71C69
:1008800080169106A206B306A0F40091CB03109146
:10089000CC032091CD033091CE030F5F1F4F2F4F1C
:1008A0003F4F0093CB031093CC032093CD033093A1
:1008B000CE038092CF039092D003A092D103B09246
:1008C000D2030091CB031091CC032091CD03309142
:1008D000CE038092D7039092D803A092D903B0920E
:1008E000DA030093DB031093DC032093DD033093E2
:1008F000DE036093D3037093D4038093D503909366
:10090000D603A301920160E47DE083E090E00E94C1
:1009100062296C0D7D1D8E1D9F1D6093C703709312
:10092000C8038093C9039093CA0300912C021091CD
:100930002D0220912E0230912F020F3F1F4F2F4F7B
:100940003F4FF1F000912C0210912D0220912E02C8
:1009500030912F020E3F1F4F2F4F3F4F89F0C09015
:100960002C02D0902D02E0902E02F0902F0221E078
:100970008C149D04AE04BF0408F420E02093E3032C
:1009800078941F910F91FF90EF90DF90CF90BF90E0
:10099000AF909F908F907F906F905F904F90089551
:1009A0004B015C0184189508A608B708A3019201C1
:1009B000261B370B480B590B6415750586059705E3
:1009C000E0F082169306A406B50640F420E030E07D
:1009D000A90181149104A104B104A1F460E47DE0B3
:1009E00083E090E00E946229A7019601261B370B45
:1009F000480B590BCA01B901C3CF82169306A4064E
:100A0000B50660F7A501940160E47DE083E090E025
:100A10000E9462296C0D7D1D8E1D9F1DB1CFF7CEEA
:100A2000CF93DF9300D01F92CDB7DEB71C821B821D
:100A30001A8219821092DF031092E0031092E103F0
:100A40001092E203BE016F5F7F4FCE0103960E94BA
:100A50000B2269817A818B819C810E94FB1A00970D
:100A600061F4BE016F5F7F4FCE0103960E94172293
:100A700069817A818B819C812FD50F900F900F9087
:100A80000F90DF91CF910895FF920F931F93CF9313
:100A9000DF93082F60E070E0CB010E944225FF2425
:100AA000F3940E94E419EC01892B89F010E0CE3F09
:100AB0008FEFD80769F0002361F160E070E0CB01AF
:100AC0000E94422581E090E0892B59F322C011E079
:100AD00026D5EC01892B21F0CE3F8FEFD80759F7AF
:100AE00011111EC011E0229609F410E00E94941921
:100AF000EC01892B21F0CE3F8FEFD807E1F61111E1
:100B000011C011E0CE3F8FEFD80709F410E00111BA
:100B10000BC0CE01DF91CF911F910F91FF900895EF
:100B200011E0E4CF11E0F3CF60E070E0CB010E9470
:100B300042251F25812F90E0C7CFCF93DF9380916F
:100B4000E303882321F060E070E0CB014DD636D678
:100B5000D0E0C0E0892B71F06AE070E080E090E0C6
:100B60000E94422581E090DF29D62196C03D27E0F2
:100B7000D20781F728D60E944F1B1092FB031092D8
:100B8000FA031092F4031092F5031092F6031092F8
:100B9000F7031092F0031092F1031092F2031092F7
:100BA000F3031092EC031092ED031092EE031092F7
:100BB000EF031092E8031092E9031092EA031092F7
:100BC000EB031092E4031092E5031092E6031092F7
:100BD000E7034EEF5FEF6FEF7FEF40932C025093F0
:100BE0002D0260932E0270932F021092E303E7ED23
:100BF000F3E028E0DF011D922A95E9F71092D30374
:100C00001092D4031092D5031092D6031092CF0302
:100C10001092D0031092D1031092D2031092CB0302
:100C20001092CC031092CD031092CE031092C70302
:100C30001092C8031092C9031092CA03DF91CF919A
:100C4000089510920704109208041092090410925B
:100C50000A041092060480910F049091100490935E
:100C6000050480930404109203041092020410926D
:100C7000FE031092FF0310920004109201041092E0
:100C80000C0410920B0490E080E00895CF92DF9264
:100C9000EF92FF920F931F93CF938C01019709F06E
:100CA00055C020910F04309110048091040490915C
:100CB000050440910F045091100450930504409393
:100CC00004042817390781F01092030410920204DB
:100CD0001092FE031092FF03109200041092010480
:100CE00010920C0410920B0480910F049091100448
:100CF000019761F580910B0490910C04892B21F4EC
:100D000080913002811112C080910B0490910C04EB
:100D10000197E1F48091FE039091FF03A0910004FC
:100D2000B09101040197A105B10581F41092FE0371
:100D30001092FF03109200041092010410923002EE
:100D400082E090E090930C0480930B0480910F0458
:100D500090911004019709F01CC180912504909195
:100D600026048017910709F014C180912104909105
:100D70002204A0912304B0912404009709F409C12E
:100D80002091200421110DC0409121045091220492
:100D90006091230470912404452B462B472B09F4C2
:100DA000F8C020910B0430910C042230310509F079
:100DB000F0C0209102042111ECC0FC01C080D18060
:100DC000E280F38080910604882309F4D3C08091E7
:100DD000120490911304892B09F4FEC0209112048F
:100DE0003091130481E02230310509F080E0209138
:100DF000120430911304C1E02130310549F02091F3
:100E0000120430911304C1E02230310509F0C0E032
:100E1000882309F456C020911C0430911D04409190
:100E20001E0450911F04C701B6010E941B2487FDB8
:100E300014C020911C0430911D0440911E04509157
:100E40001F04609107047091080480910904909137
:100E50000A040E94B62387FD22C020911C04309111
:100E60001D0440911E0450911F04C701B6010E9449
:100E70001B24181634F520911C0430911D04409158
:100E80001E0450911F046091070470910804809122
:100E9000090490910A040E94B623811112C0809126
:100EA000140490911504A0911604B0911704892B95
:100EB0008A2B8B2B19F481E08093030481E08093CB
:100EC0000204CC2309F456C020911C0430911D0467
:100ED00040911E0450911F04C701B6010E94B62321
:100EE00087FF14C020911C0430911D0440911E0402
:100EF00050911F04609107047091080480910904C7
:100F000090910A040E941B2487FF22C020911C0498
:100F100030911D0440911E0450911F04C701B60179
:100F20000E94B623811126C020911C0430911D041B
:100F300040911E0450911F046091070470910804B1
:100F40008091090490910A040E941B24181694F4BD
:100F50008091140490911504A0911604B091170487
:100F6000892B8A2B8B2B19F481E08093030481E079
:100F70008093020481E090910204911180E08093BB
:100F80000604C0920704D0920804E0920904F0928B
:100F90000A040130110509F067C180910B0490919A
:100FA0000C04892BD9F41092110410920204809140
:100FB0003002882379F082E090E090930C048093D3
:100FC0000B041092300220910F043091100481E044
:100FD000232BE9F080E01BC081E009CF10923002A2
:100FE00080911104882349F01092030410920C049C
:100FF00010920B0410921104EDCF80910F04909188
:101000001004892BE1F080910204109202042091D7
:101010000B0430910C042230310509F45EC088F4D1
:101020002115310509F448C02130310509F4F3C018
:1010300010920304109202041092110438C081E04F
:10104000E6CF2330310509F4B1C02430310581F7F2
:101050004091FE035091FF036091000470910104E0
:10106000411551056105710561F041505109610952
:1010700071094093FE035093FF0360930004709343
:1010800001044091FE035091FF03609100047091B0
:101090000104452B462B472BD9F420910D043091A8
:1010A0000E042130310509F046C01092030410925D
:1010B0000C0410920B040CC080913002882341F084
:1010C00082E090E090930C0480930B041092300225
:1010D0001092FC0380910304CEC08823C9F3809151
:1010E000140490911504A0911604B09117041816D9
:1010F00019061A061B060CF07DC080910F04909112
:101100001004019709F076C08091140490911504A1
:10111000A0911604B09117048093FE039093FF03EF
:10112000A0930004B093010483E090E090930C043A
:1011300080930B04CDCF4091180450911904609115
:101140001A0470911B04452B462B472BA9F01092D3
:1011500003048091180490911904A0911A04B0918D
:101160001B048093FE039093FF03A0930004B093AD
:10117000010481E090E0DACF882399F08091310278
:1011800090913202A0913302B09134028093FE0319
:101190009093FF03A0930004B093010484E090E0D7
:1011A000C5CF1092030482E090E0C0CF8091FE038F
:1011B0009091FF03A0910004B09101040097A10554
:1011C000B10559F00197A109B1098093FE039093ED
:1011D000FF03A0930004B09301048091FE0390915B
:1011E000FF03A0910004B0910104892B8A2B8B2B63
:1011F00009F06ECF8091310290913202A0913302BA
:10120000B0913402892B8A2B8B2B09F44ECF81E0CD
:1012100080930304B3CF4091FE035091FF0360918C
:10122000000470910104411551056105710561F0DB
:1012300041505109610971094093FE035093FF0326
:1012400060930004709301044091FE035091FF03EA
:101250006091000470910104452B462B472B09F047
:1012600037CF8111C7CF9FCF8091FC03882309F42A
:1012700031CF8091FD03CF911F910F91FF90EF909F
:10128000DF90CF90089510920704109208041092F6
:10129000090410920A041092060410920C04109291
:1012A0000B0410920504109204041092260410926C
:1012B000250410920304109202041092FE0310926F
:1012C000FF0310920004109201041092FD0310928B
:1012D000FC03109221041092220410922304109215
:1012E00024041092200410921C0410921D041092E9
:1012F0001E0410921F0488EE93E0A0E0B0E08093FB
:10130000310290933202A0933302B09334021092D0
:1013100018041092190410921A0410921B041092CF
:1013200014041092150410921604109217041092CF
:1013300013041092120481E0809330021092110481
:101340001092100410920F0410920E0410920D04CB
:1013500090E080E0089580910F0490911004892B13
:1013600019F580913002882351F080911104811188
:1013700006C081E08093FD038093FC0308952091D3
:1013800011043091300281E090E0332311F090E0BD
:1013900080E030E082239323892B21F01092FD031B
:1013A00081E0EACF1092FC03089582E090E0FA0118
:1013B000918380838FEF9FEF0895CF93DF93EA01AE
:1013C000009711F00E946F1C1982188290E080E053
:1013D000DF91CF910895DB01009719F48FEF8C9383
:1013E00008952EEF2C93FC013F96EF30F10508F0A5
:1013F00034C08827E150F64F8F4F0C94A7292B0A51
:10140000290A270A250A230A1F0A210A1D0A1B0A7C
:10141000190A160A120A0E0A140A2D0A80E31196F6
:101420008C93089589E2FBCF82E2F9CF11961C924A
:10143000089583E2F4CF81E2F2CF81E1F0CF87E239
:10144000EECF8AE2ECCF80E1EACF84E2E8CF88E217
:10145000E6CF86E2E4CF81E3E2CF80E2E0CF809185
:1014600033049091340408959093340480933304AA
:10147000089580913204089590913204892B8093CD
:1014800032040895982F9095809132048923809397
:101490003204089580913104089580912F04909131
:1014A000300408956115710559F0FB0130E020E02A
:1014B00070E060E02417350719F06115710511F02F
:1014C000CB010895A081B181A817B90709F4BF0124
:1014D0002F5F3F4F3696EECF8091350481111CC0AF
:1014E00060D266D290932804809327040E946D14E2
:1014F0000E947F1490932C0480932B040E94FC186C
:101500000E94031990932A048093290481E0809318
:10151000350490E080E0089584EF9FEF08958F9266
:101520009F92AF92BF92CF92DF92EF92FF920F9372
:101530001F93CF93DF9300D000D000D01F92CDB780
:10154000DEB71A86198618861F821E821D821C82AB
:101550001B821A8219828091350407EF1FEF8823BE
:1015600009F49CC08E010D5F1F4F9E012B5F3F4F02
:10157000AE01495F5F4FBE01675F7F4F90E080E043
:101580000E94801A8C01009721F00596029708F0BE
:10159000DBC029853A852115310509F402C1ED80AA
:1015A000FE804B815C81B701640F751F8F81988528
:1015B0008617970708F4F5C0E20EF31ED7019C9139
:1015C000903C09F07FC04230510508F47BC0119671
:1015D0008C914091330450913404452B09F49CC004
:1015E000913F08F071C02CE1290F2D3008F48BC019
:1015F0002DE2290F203108F489C0903C21F481505C
:10160000823008F483C088E3890F8B3008F481C0EE
:101610009BEEC92E99E0D92EE5EDF9E06D817E8132
:10162000AE014F5F5F4F89859A8519955C01C114A2
:10163000D104A1F189809A808114910479F18B8180
:101640009C818815990508F487C010E000E04B8163
:101650005C8170E060E0C7010E94D129011511058D
:10166000E9F449815A8169857A858D819E81680F67
:10167000791FC501F6011995E980FA800D811E8157
:101680002F81388549855A856FEF7FEF81E090E0A3
:101690000E941B1A8C01892B09F056C0C8012A969A
:1016A0000FB6F894DEBF0FBECDBFDF91CF911F9173
:1016B0000F91FF90EF90DF90CF90BF90AF909F90F1
:1016C0008F90089580E085CF30E020E0220F331F17
:1016D000F901E95DFB4F0190F081E02D309709F4AD
:1016E00097CF892F90E01995009709F491CFDC01ED
:1016F0001296ED91FC9113971496CD90DC90309753
:1017000009F08CCF1FC021E030E0E0CF22E030E0D4
:10171000DDCF23E030E0DACFD12CC12CEDEDF9E0C4
:101720009F3F09F07BCFE0912704F0912804309788
:1017300021F4C90104EF1FEF0CC08FEF90E0199561
:101740000097A9F604EF1FEF89859A85009709F4A1
:10175000A5CF0E946F1CA2CF0E944A1B8C018985D5
:101760009A850E946F1C70E060E0C4010E94E31A39
:1017700098878F830E94181A9E838D836F81788546
:101780006115710559F0C8010E94FB1D9A87898770
:1017900006EF1FEF892B09F058CF59CF08EF1FEF45
:1017A00056CF08EF1FEFD0CF20913504222319F038
:1017B00020E00C94841487EF9FEF08958091330408
:1017C0009091340408950E9408190E946218F5D07F
:1017D000E7E2F4E088E0DF011D928A95E9F71092D4
:1017E000350490E080E008950C94C01621E040E0BC
:1017F00050E0BA010C94841486E090E0FA019183E1
:10180000808390E080E0089547E050E06AE672E06F
:1018100049CEDF92EF92FF920F931F93CF93DF9306
:101820008A01EC01C60FD71FE0903904F0903A040A
:10183000D9800E94321BD816190678F082E090E019
:10184000F801918380838EEF9FEFDF91CF911F91FD
:101850000F91FF90EF90DF900895EF2841F482E020
:1018600090E0F8019183808384EF9FEFEECF898130
:101870008093380490E00196F8019183808390E092
:1018800080E0E3CFCF93DF93EA010E9471178823B2
:1018900021F00E943F1B0E94721782E090E0998322
:1018A00088838BEF9FEFDF91CF910895CF93DF93E4
:1018B000EB0186E0FB0111928A95E9F78FEF8883AF
:1018C000D8DD8983E7DD8A83E8DD9D838C83DF9122
:1018D000CF910895CF93DF93EA010E94741781118D
:1018E00009C082E090E09983888385EF9FEFDF91C4
:1018F000CF91089590E080E0B7DD81E090E099839A
:10190000888390E080E0F3CF0F931F93CF93DF9312
:10191000EA018C01060F171F0E94741781110BC07A
:1019200082E090E09983888385EF9FEFDF91CF91EC
:101930001F910F910895F8018181823038F082E083
:1019400090E0998388838EEF9FEFF0CF81E090E065
:101950008BDD88E090E09983888390E080E0E6CF9B
:10196000CF93DF930097D1F4EB01FB01329686E031
:10197000DF011D928A95E9F78FEF888385E08983DF
:101980001A820E94321B8B830E94311B9D838C83A1
:1019900081E08E838F83DF91CF910895DF91CF9186
:1019A0001ACD84E09CE09093370480933604089528
:1019B0008091360490913704089510923704109264
:1019C000360408958091390490913A0408954111A4
:1019D00005C0611571058105910561F060933904B9
:1019E00070933A0480933B0490933C0440933D04ED
:1019F00081E0089580E00895FF920F931F93CF93A5
:101A0000DF938A01EC01C60FD71FF9800E94321BB9
:101A1000F816190668F082E090E0F801918380835F
:101A20008EEF9FEFDF91CF911F910F91FF9008955F
:101A30006C817D818E819F814B81C9DF811108C0BE
:101A400082E090E0F8019183808384EF9FEFEACFFA
:101A500089818093380490E00196F8019183808316
:101A600090E080E0DFCFCF93DF93EA01FC01E60F47
:101A7000F71F64817581868197814381A8DF811179
:101A800009C082E090E09983888384EF9FEFDF9123
:101A9000CF91089581E090E09983888390E080E081
:101AA000F6CFE9E3F4E04081518162817381480F10
:101AB000511D611D711D408351836283738308959D
:101AC000CF93C09138044C2F50E06091390470914D
:101AD0003A0401960E94C8298C2FE3DF1092380443
:101AE000CF910895009799F48091390490913A0428
:101AF0002FEFFB012083892B59F02091380430E02F
:101B00002F5F3F4F2417350719F4CB01D9CF63CC92
:101B10000895009799F48091390490913A042FEF39
:101B2000FB012083892B59F02091380430E02F5F8E
:101B30003F4F2417350719F4CB01C2CF4CCC089581
:101B400023E1AC01249FC001259F900D1124E09159
:101B50004204F0914304E80FF91F2381348122509D
:101B6000310981E02230310508F080E008950F93BB
:101B70001F93CF93DF930091440410914504D0E06C
:101B8000C0E080E00C171D0749F491E0811190E05E
:101B9000892FDF91CF911F910F9108958111F5CF7A
:101BA000CE01CEDF2196EECFA0914204B091430446
:101BB000109729F12091440430914504821793072E
:101BC000F0F453E1589F9001599F300D1124A20F5A
:101BD000B31FED91FC911197309789F012968C917B
:101BE000681768F48DE0689FE00DF11D1124808175
:101BF0009181892B21F081E09281491708F080E0E2
:101C000008959C0143E1429FC001439F900D112420
:101C1000E0914204F0914304E80FF91F838582307C
:101C200091F481E090E06581768140913502509198
:101C300036026417750711F490E080E0892B19F0E3
:101C400081E0232B09F080E00895FC01A081B1819F
:101C50008DE0689FA00DB11D112413964D915C91EC
:101C600085859685489F9001499F300D589F300D7E
:101C70001124C9010196611103C0478144FD0496F6
:101C80000895EF92FF920F931F93CF93DF93EA0192
:101C9000FC01E60FF71F02811381E480F5804F2DD0
:101CA0006E2DC80181DF81110DC082E090E0998323
:101CB00088838EEF9FEFDF91CF911F910F91FF905F
:101CC000EF900895C8013CDF882339F082E090E06E
:101CD0009983888388EF9FEFEECF10933C020093A7
:101CE0003B02E0923D02F0923E0281E090E0998357
:101CF000888390E080E0DFCFCF92DF92EF92FF9277
:101D00000F931F93CF93DF937A01EC01C60FD71F78
:101D1000C0903B02D0903C0200913D0210913E02E7
:101D2000412F602FC60140DF811110C082E090E09A
:101D3000F701918380838AEF9FEFDF91CF911F910D
:101D40000F91FF90EF90DF90CF900895C601F8DEDD
:101D5000882341F082E090E0F7019183808388EF4F
:101D60009FEFEBCF4C815D816E817F819A8189816C
:101D70008F3F41F082E090E0F701918380838EEF06
:101D80009FEFDBCFE3E1EC9D9001ED9D300D112441
:101D9000E0914204F0914304E20FF31F0190F081BF
:101DA000E02D2DE0029FE00DF11D11240190F08146
:101DB000E02D27E0129FE00DF11D11248083918317
:101DC0008B81828343835483658376831F5F109363
:101DD0003E0281E090E0F7019183808390E080E013
:101DE000ACCFEF92FF920F931F93CF93DF937A01C3
:101DF0008C01060F171FC0914204D0914304209715
:101E000081F021E030E0F801828193814091440427
:101E1000509145048417950710F030E020E0232B03
:101E200071F482E090E0F701918380838EEF9FEF61
:101E3000DF91CF911F910F91FF90EF90089543E1B3
:101E4000489F9001499F300D1124C20FD31F78DEA7
:101E5000882341F082E090E0F7019183808388EF4E
:101E60009FEFE6CFF8012481358120383105C8F68F
:101E700087818111D6CF4181842F90E08F7E00979A
:101E800041F082E090E0F7019183808386EF9FEF3D
:101E9000CFCF4F833E832D8326812887198622301A
:101EA00010F421E0288721E030E0F701318320831E
:101EB000BFCF88E090E0FA019183808390E080E0DA
:101EC0000895FB018FEF808381E181838FEF9FEF86
:101ED0009383828380E890E09583848316821782BF
:101EE0000895FB018FEF808391E091838283938338
:101EF000848384E3858381E090E0978386830895DB
:101F0000DF92EF92FF920F931F93CF93DF93EA013B
:101F1000FC01E60FF71F8181813071F082E090E0D3
:101F2000998388838FEF9FEFDF91CF911F910F915E
:101F3000FF90EF90DF90089582819381D480258176
:101F4000E680F780009142041091430401151105C9
:101F500039F482E090E0998388838CEF9FEFE4CF9F
:101F600040914404509145048417950738F082E06D
:101F700090E0998388838EEF9FEFD6CF892B39F03D
:101F800082E090E09983888386EF9FEFCDCF8D2DFF
:101F90008D7FB1F72130A1F781E0D11006C091E02B
:101FA000E916F10431F080E004C0E2E0EE16F1043D
:101FB000D0F3882329F390E080E0C2DD882339F054
:101FC00082E090E09983888388EF9FEFADCFF8019E
:101FD000D38681E08487F686E586108A178681E0BD
:101FE00090E09983888390E080E09ECF4CE050E0C1
:101FF00064E972E057CA8F929F92BF92CF92DF92AC
:10200000EF92FF920F931F93CF93DF93EA01FC01AE
:10201000E60FF71F828193810481B580E09142042D
:10202000F0914304309791F482E090E099838883A3
:102030008CEF9FEFDF91CF911F910F91FF90EF9069
:10204000DF90CF90BF909F908F900895209144048F
:10205000309145048217930738F082E090E099832D
:1020600088838EEF9FEFE6CF23E1289F6001299FB1
:10207000D00C1124EC0DFD1DE080F180E114F10481
:1020800099F28281081748F78DE0089F800111249A
:10209000E00EF11EF70180819181892B29F6BB208A
:1020A000E1F2F7E0BF9E40011124C4010E94361CFA
:1020B000F70191838083E0914204F0914304EC0D99
:1020C000FD1D0190F081E02DE00FF11F80819181D5
:1020D000009739F482E090E0998388838DEF9FEF39
:1020E000A9CFA40170E060E00E94D1298091420450
:1020F00090914304C80ED91EF60180819181080F8A
:10210000191FF801B28281E090E09983888390E002
:1021100080E090CFAF92BF92CF92DF92FF920F9369
:102120001F93CF93DF93EA01FC01E60FF71F828133
:102130009381F4800091420410914304011511052C
:1021400081F482E090E0998388838CEF9FEFDF91A8
:10215000CF911F910F91FF90DF90CF90BF90AF90E4
:10216000089520914404309145048217930738F074
:1021700082E090E0998388838EEF9FEFE8CF2FEF86
:102180002F0D2C3FA8F723E1289F6001299FD00C39
:1021900011240C0D1D1DF80180819181892B89F678
:1021A000FDE0FF9E50011124C5010E94361CF8017C
:1021B00091838083E0914204F0914304EC0DFD1D76
:1021C00080819181009739F482E090E0998388833F
:1021D0008DEF9FEFBCCFA50170E060E00E94D12998
:1021E000E0914204F0914304EC0DFD1DF28281E088
:1021F00090E09983888390E080E0A9CFCF92DF922E
:10220000EF92FF920F931F93CF93DF93860F971F49
:10221000FC01028113818091420490914304892B37
:1022200081F082E090E0FA01918380838CEF9FEF50
:10223000DF91CF911F910F91FF90EF90DF90CF90A2
:102240000895C801B0E0A0E00197A109B1098F3F4E
:102250009F4FA105B10540F082E090E0FA01918323
:1022600080838EEF9FEFE4CF7A0183E1809F60014E
:10227000819FD00C1124C6010E94361CEC010097EE
:1022800041F482E090E0F701918380838DEF9FEF2E
:10229000CFCFA60170E060E00E94D129D093430423
:1022A000C0934204109345040093440490E080E0FE
:1022B0002FEF3FEF41E061E070E08017910741F4BC
:1022C00081E090E0F7019183808390E080E0B0CFDF
:1022D0003A8B298B1B864C877E876D87188A1F86D1
:1022E00001966396EACFEF92FF921F93CF93DF930D
:1022F000EC0110E0F12CE12C6A811617B0F083E0BC
:10230000689FB0011124AE014F5E5F4FC7010E946C
:102310009B1C009721F02FEF3FEF3A8B298BDF9129
:10232000CF911F91FF90EF900895612FCE018DDC2A
:1023300061E070E00E94E31AE816F90608F47C01F7
:102340001F5FDACFF894209140043091410481E07E
:102350002115310509F080E0232B09F078940895C8
:102360002F923F924F925F926F927F928F929F92A5
:10237000AF92BF92CF92DF92EF92FF920F931F9393
:10238000CF93DF933C01660E771EF3018281938128
:102390004C01B12CA12CC0914204D0914304209750
:1023A00069F021E030E060914404709145048617A3
:1023B000970710F030E020E0232BD1F482E090E08A
:1023C000FA01918380838EEF9FEFDF91CF911F9170
:1023D0000F91FF90EF90DF90CF90BF90AF909F90C4
:1023E0008F907F906F905F904F903F902F900895C7
:1023F00080923F0290924002A0924102B09242022B
:1024000063E1689F9001699F300D1124C20FD31FB3
:10241000F3018181833040F082E090E0FA01918302
:10242000808386EF9FEFD1CF2A012B813C81232B24
:10243000F1F4288139819F8191FF2EC0232B09F46B
:102440006FC0209147049A81422F490F5527551F8D
:10245000BA0141E050E06138710514F050E040E00D
:10246000452B09F45DC02A87920F90934704815051
:10247000823008F481C066DF882309F4D8C0F301F4
:102480008181813009F48DC008F47BC0823009F469
:10249000C6C090E080E0ADC0232B09F441C020917C
:1024A00046049A81E22FE90FFF27FF1F41E050E029
:1024B000ED3FF10514F050E040E0452B89F12A870B
:1024C000920F90934604D3CFA081B181A20FB31F86
:1024D00011966C91060F111D0196295F3F4F8417CD
:1024E000950794F38D859E85089F1001099F300CF8
:1024F000189F300C1124C114D104D1F48F8184FFB2
:1025000017C00E94311BF5E02F0E311C21E082150F
:10251000930508F420E0A701435F5F4F21110EC02F
:1025200082E090E0F2019183808387EF9FEF4DCFAF
:102530000E94311B2FEF221A320AE8CF888199813D
:10254000E80EF91EF70114830383FFEFCF1ADF0AA9
:102550007A018A818C151D0409F00CF48CCFE88176
:10256000F981EE0DFF1D428150E030E020E010E0E7
:1025700000E090E080E0B3CFF12CE12CD12CC12C15
:10258000E8CF81E090E09C838B83F1DA882309F423
:1025900080CF81E090E00E94340A80E40E94420AE9
:1025A00078CF89899A89019661F083E090E09C83D5
:1025B0008B8382E090E00E94340A80E40E943C0A0F
:1025C00068CF8D819E81209135023091360282172D
:1025D0009307D1F46091390270913A02AE014F5ED7
:1025E0005F4F80913702909138020E94BA1D009788
:1025F000E1F2789422E030E0F20131832083892BEC
:1026000099F08DEF9FEFE1CE89288A288B2869F613
:10261000029758F6CE0167DE188A1F86E8CF82E05F
:1026200090E09C838B8335CF90E080E0CECE82E03B
:1026300090E0F2019183808385EF9FEFC6CE8F9269
:102640009F92AF92BF92CF92DF92EF92FF920F9341
:102650001F93CF93DF93EA018C01060F171FF80138
:102660008181833098F082E090E09983888386EFBF
:102670009FEFDF91CF911F910F91FF90EF90DF902F
:10268000CF90BF90AF909F908F900895809142041B
:1026900090914304892B61F081E090E02091440403
:1026A00030914504232B11F490E080E0892B39F41C
:1026B00082E090E0998388838EEF9FEFDACF42DE4D
:1026C000882309F4E0C0F8018181813009F496C0C3
:1026D000E8F0823099F42091440430914504E0916F
:1026E0004204F091430490E080E041E050E028177C
:1026F000390709F0BEC03BDA811117C0789481E038
:1027000090E09983888390E080E0B3CF20914404E7
:1027100030914504E0914204F091430490E080E060
:1027200041E050E02817390741F481E090E00E9431
:10273000340A80E40E94420AE1CF63817481672BEE
:1027400011F05483438301967396ECCFE0914204D9
:10275000F0914304E00FF11F2381348122303105D1
:10276000D9F4218932892F3F3F4FB1F42581368139
:1027700040913502509136022417350761F5AF01BB
:102780004F5E5F4F6091390270913A02809137023B
:10279000909138020E94BA1DEFEFCE1ADE0AEE0ABF
:1027A000FE0A0D5E1F4F409144045091450470E0B5
:1027B00060E0C416D506E606F70644F5009731F248
:1027C0007894892B09F49BCF82E090E099838883E9
:1027D0008DEF9FEF4ECFC114D104E104F104E1F677
:1027E00022303105C8F6CF017EDDE0914204F09140
:1027F0004304E00FF11F108A1786CECF10E000E0EF
:1028000090E080E0C12CD12C7601CDCF0097C1F6AD
:1028100010E000E0812C912C540183E0E82EF12C93
:102820001AC0E0914204F0914304E00FF11F83814C
:102830009481029749F4F482E38282E090E00E945E
:10284000340A80E40E943C0AFFEF8F1A9F0AAF0A05
:10285000BF0A0D5E1F4F8091440490914504B0E083
:10286000A0E088169906AA06BB06DCF290E080E09C
:10287000A7CF638174816230710511F4548343835F
:102880000196739634CF82E090E09983888385EF38
:102890009FEFEFCE0097B9F48FEFFB01808320917B
:1028A0003F023091400243E1429FC001439F900D9F
:1028B0001124E0914204F0914304E80FF91F82854E
:1028C000FB01818308950C94EB0988E090E0FA0104
:1028D0009183808390E080E00895109241041092EB
:1028E0004004E2E4F4E086E0DF011D928A95E9F716
:1028F00086EF9FE090933F0480933E04089580917B
:102900003E0490913F0408952F923F924F925F9220
:102910006F927F928F929F92AF92BF92CF92DF92EF
:10292000EF92FF920F931F93CF93DF93CDB7DEB754
:102930002F970FB6F894DEBF0FBECDBFF894E0918D
:102940004004F09141043196F0934104E093400437
:10295000789440904204509043044114510409F487
:102960000CC2E0914404F0914504EF2B09F405C238
:102970002D8749875A876B877C8798878F831201B9
:10298000B12CA12C10E000E080914404909145040A
:10299000A816B90618F40115110529F1F8948091CB
:1029A0004004909141040197909341048093400426
:1029B0007894C8012F960FB6F894DEBF0FBECDBF36
:1029C000DF91CF911F910F91FF90EF90DF90CF900B
:1029D000BF90AF909F908F907F906F905F904F903F
:1029E0003F902F9008957101E418F508D1011796D2
:1029F0008C91179781FD54C013968D919C911497DB
:102A0000039709F04DC015968D919C91EF81F88543
:102A10008E179F0709F044C0B50190E080E07FD495
:102A20008A8320914204309143043D832C833D8569
:102A3000332309F44CC04C815D81452B09F49AC1C4
:102A40008091440490914504A816B90608F092C1FB
:102A5000C501D7D88823E9F06C817D816E0D7F1D7B
:102A60007D836C83DB011F968D919C91892B89F06E
:102A7000D12CC12CF12CE12CAC81BD8112968C9112
:102A800012978E151F0409F094F450961C921E9212
:102A90001F972A81222321F0B50190E080E041D4E4
:102AA0003FEFA31AB30A43E1240E311C6DCFAC8172
:102AB000BD81ED91FC91EC0DFD1D858196810FD7B7
:102AC000BFEFEB1AFB0AEDE0CE0ED11CD5CFEC81A7
:102AD000FD81309709F44EC18091440490914504E2
:102AE000A816B90608F046C1EE0DFF1DFF87EE8758
:102AF000C50187D88B83882339F1AE85BF851F96A2
:102B00008D919C915097019621E01D964D915C917D
:102B10008417950709F020E02E831982712C10E0AC
:102B200000E0AE85BF8512968C91781608F45DC0E2
:102B3000EE85FF85878590890196658576850E945B
:102B40007129908B8787A5CFB1E0BE83E6CF99240A
:102B500093946BC08BD6F6019683858382C0D60191
:102B6000ED90FC90B7E06B9EE00CF11C1124F70196
:102B70006381748180818F3F61F121E030E002C088
:102B8000220F331F8A95E2F7C901092E000CAA0B08
:102B9000BB0BFB01408151816281738184239523AA
:102BA000A623B72321E0892B8A2B8B2B09F420E065
:102BB000D4012C93D70111968C91F601238534858D
:102BC000820F932F911D880E991E1486138663948D
:102BD0009BC0418150E0C4010E94C829EBCF99827B
:102BE00006EF1FEFC5C01982C3C0F981F111A0CF54
:102BF000EDE07E9E70011124AE85BF85CD90DC9006
:102C0000CE0CDF1C15D49D838C83BB81BB2309F4C0
:102C10009ECF81E0EE85FF8527853089232B09F043
:102C200080E0982E882309F458C0672D8E859F85F3
:102C30000CD8D60118969C938E93179761E070E09C
:102C4000C2D4EE85FF85218932892F3F320709F4EE
:102C500081CFBC01C901CFD7D60116969C938E9324
:102C60001597D60115968D919C911697009709F4AA
:102C7000B6CFEC81FD818E0F9F1F1A969C938E9389
:102C80001997AE85BF85ED91FC911197EE0EFF1E51
:102C9000F70121853285148613861A968C91870D4B
:102CA000D9018D93711016C0EE85FF85878184FF51
:102CB00011C049855A856B857C85F9014183528312
:102CC00063837483F701838594850496A80FB91FE5
:102CD00014861386F701B287A187D60115968D91C8
:102CE0009C911697892B09F443C0EE85FF852581B9
:102CF000368180913502909136022817390779F094
:102D000019968D909C90612CD60112968C911297F9
:102D1000681608F424CF1A969C928E921997BE8159
:102D2000BB2309F460CF61E070E0F60187819085F4
:102D30004AD4D6011796ED90FC90189715964D91B0
:102D40005C91E1E0F0E0BA81BB2311F0F0E0E0E05B
:102D50000C811D819C01B501882799278E1B9F0B33
:102D60006AD38C01892B21F0F60185819681B7D534
:102D70007394D7CE0FEF1FEF8CCE10E000E00ECE95
:102D80002F923F924F925F926F927F928F929F927B
:102D9000AF92BF92CF92DF92EF92FF920F931F9369
:102DA000CF93DF93809142049091430410E000E0C0
:102DB000892BA9F0C7DA0AEF1FEF882381F0209052
:102DC000440430904504C0914204D0914304D12C76
:102DD000C12C10E000E02C143D04A9F47894C80143
:102DE000DF91CF911F910F91FF90EF90DF90CF90E7
:102DF000BF90AF909F908F907F906F905F904F901B
:102E00003F902F900895C6010E94010E882309F17A
:102E10008B819C810397E9F48F859889892BC9F070
:102E2000B60190E080E07BD221E030E0882311F011
:102E300030E020E044245524421A530AB12CA12C3E
:102E4000912C812C8A818815190409F038F4188A8C
:102E50001F864FEFC41AD40A6396BDCFE881F9816B
:102E6000EA0DFB1D85819681892BA1F161E070E05F
:102E700087819085A8D33C01DBD28C01E881F98160
:102E8000EA0DFB1D8185928525813681200F311F3A
:102E9000AC01421B530B9A0147815085421B530BD7
:102EA00070E060E00E94D129E881F981EA0DFB1D04
:102EB000E780F084458156819301B601C201BBD2FF
:102EC0008C01892B39F0E881F981EA0DFB1D8581A0
:102ED000968105D55FEF851A950A8DE0A80EB11C85
:102EE000B1CF30CA789408952F923F924F925F925B
:102EF0006F927F929F92AF92BF92CF92DF92EF92AA
:102F0000FF920F931F93CF93DF9300D000D0CDB7E4
:102F1000DEB7009142041091430499249394011563
:102F2000110509F43EC0A0904404B09045040ADAAB
:102F3000982E8823B1F1109243041092420410920B
:102F400045041092440410924604109247048FEFF7
:102F50009FEFDC0180933F0290934002A0934102D7
:102F6000B093420278947FD31E830D83C12CD12C61
:102F70007601C501B0E0A0E089839A83AB83BC836E
:102F800022242A94322C89819A81AB81BC81C81673
:102F9000D906EA06FB06F4F0C801A1D480E40E9439
:102FA000420A892D26960FB6F894DEBF0FBECDBF1C
:102FB000DF91CF911F910F91FF90EF90DF90CF9015
:102FC000BF90AF909F907F906F905F904F903F9099
:102FD0002F900895AD81BE8115968D919C91169785
:102FE000209135023091360282179307D1F4519621
:102FF0008D919C91EED5ED81FE8180819181B12CE6
:10300000A12C412C512C3201892B89F5BFEFCB1A11
:10301000DB0AEB0AFB0AED81FE817396FE83ED83EA
:10302000B2CFC114D104E104F10429F7029718F7D3
:10303000ED81FE81818992898F3F980709F029D51A
:10304000AD81BE8152963C922E925197D4CF8A0D7B
:103050009B1DDC018D919C91009709F040D4BFEF3E
:103060004B1A5B0A6B0A7B0AEDE0AE0EB11CAD8118
:10307000BE818D919C91119712964C9150E070E019
:1030800060E044165506660677060CF328D4BECFDA
:10309000CF93DF93EA0128DF811109C082E090E03D
:1030A0009983888385EF9FEFDF91CF91089581E029
:1030B00090E00E94340A81E090E09983888390E058
:1030C00080E0F2CF11DF10923F0410923E04089589
:1030D00042E050E06CED72E00C94520AFF920F93C4
:1030E0001F93CF93DF938A01EC01C60FD71FF9809E
:1030F000B9D20897F816190671F068F082E090E0EE
:10310000F801918380838EEF9FEFDF91CF911F9124
:103110000F91FF9008956C817D818E819F814B81FD
:103120000E94E70C811108C082E090E0F8019183D1
:10313000808384EF9FEFE9CFF9800E94E20C4F2D4E
:1031400050E0BE01685F7F4F0E94C82989810E94BC
:10315000510D81E090E0F8019183808390E080E060
:10316000D4CFDF92EF92FF920F931F93CF93DF9311
:103170008A01EC01C60FD71F0E94E20C7C01D980A6
:1031800071D2DD2059F0029721E030E0D8161906FF
:1031900019F010F030E020E0232B79F482E090E089
:1031A000F801918380838EEF9FEFDF91CF911F9184
:1031B0000F91FF90EF90DF900895EF2841F482E0A7
:1031C00090E0F8019183808384EF9FEFEECFF98048
:1031D0000E94E20C4F2D50E0BE016E5F7F4F0E94B7
:1031E000C82989810E94510D81E090E0F801918306
:1031F000808390E080E0D9CF88E698E190934904FD
:10320000809348040895809148049091490408955A
:103210000895FC0111821082938382830895DB015B
:103220001D921C92DC011296ED91FC911397718313
:10323000608313967C936E9312970895FC018081AE
:103240009181DB018D939C93A081B181109741F016
:103250008D919C9191838083892B11F4F383E28378
:103260000895FC0180819181DB018D939C93892BD2
:1032700011F473836283718360830895FC0111826A
:103280001082938382830895CF93DF931F921F92BE
:10329000CDB7DEB71A821982F894BE016F5F7F4FF7
:1032A0008FE494E0CBDF89819A81009709F017D3EE
:1032B00089819A81892B89F7BE016F5F7F4F83E5F2
:1032C00094E0BCDF89819A81009709F008D3898155
:1032D0009A81892B89F778940F900F90DF91CF9185
:1032E0000895CF93DF931F921F92CDB7DEB71A8256
:1032F0001982F894BE016F5F7F4F8BE494E09EDFEC
:1033000089819A81009709F0EAD289819A81892B73
:1033100089F778940F900F90DF91CF91089581E015
:10332000089590E080E00895EF92FF920F931F932D
:10333000CF93DF931F921F92CDB7DEB71A82198207
:1033400080914A0407EF1FEF8823A1F1F894BE0192
:103350006F5F7F4F83E594E071DF789489819A8174
:10336000EE24E394F12C892B51F4F894BE016F5FA5
:103370007F4F8FE494E062DF7894F12CE12C898117
:103380009A810EEF1FEF0097A9F0FC014281538153
:1033900064E070E074D68C01892B61F0F894698147
:1033A0007A81C701880F991F880F991F815B9B4FF6
:1033B00058DF7894C8010F900F90DF91CF911F9143
:1033C0000F91FF90EF9008950F931F93CF93DF938A
:1033D00000D01F92CDB7DEB71C821B821A821982E1
:1033E00080914A0407EF1FEF8823C1F0AE014D5FC3
:1033F0005F4F64E070E0CE010196B4D68C01892B5A
:1034000069F4E981FA818B819C8193838283F894AA
:1034100069817A818BE494E002DF7894C8010F908F
:103420000F900F900F90DF91CF911F910F91089502
:10343000B9D7049608958F929F92AF92BF92CF9280
:10344000DF92EF92FF920F931F93CF93DF931F9220
:103450001F92CDB7DEB71A821982BC016F5F7F4F12
:103460006330710598F0AA24AA94BA2CC5010F9074
:103470000F90DF91CF911F910F91FF90EF90DF9010
:10348000CF90BF90AF909F908F90089541155105B8
:1034900051F3480159018A016C01CADF8815990569
:1034A00011F7E114F104F9F28E0D9F1DA816B9066B
:1034B000D0F280914A048823F1F0F894B501645069
:1034C00071099701AE014F5F5F4FC8010496DFD6C7
:1034D0005C01892B71F489819A81F801938382833D
:1034E000C601880F991F880F991FB801815B9B4FF8
:1034F00096DE7894BBCF87EFA82EBB24BA94B6CFC4
:10350000AF92BF92CF92DF92EF92FF920F931F93F1
:10351000CF93DF931F921F92CDB7DEB71A82198225
:10352000892B09F047C06115710509F443C04115A5
:10353000510509F43FC02115310509F43BC00115BF
:103540001105C1F180914A048823B9F179016A011A
:103550005B01F894BE016F5F7F4F8BE494E06EDEF9
:10356000789489819A81009759F1DC0112966D91C6
:103570007C91A8010496A4D68C01E981FA81D50139
:10358000ED93FC93828193810496F601918380836D
:103590004FDFD7018D939C93C8010F900F90DF915F
:1035A000CF911F910F91FF90EF90DF90CF90BF9040
:1035B000AF9008950FEF1FEFEFCF07EF1FEFECCFA6
:1035C0000EEF1FEFE9CFCF93DF93EC01672B71F480
:1035D000F2D68C179D0760F0E5D62496C80FD91F48
:1035E000E4D68C0F9D1FDF91CF910895E1D6F1CFE6
:1035F00090E080E0F8CF0F931F93CF93DF9320915B
:103600004A0421112BC08B01EC018FE494E001DE10
:1036100083E594E0FEDD8BE494E0FBDD97D000973A
:10362000C1F4C9D670E060E0CEDF43E452E062E06E
:1036300070E081D1009769F4809143029091440237
:10364000CCD6B801CE0101D5009719F421E0209322
:103650004A04DF91CF911F910F91089584EF9FEF5E
:10366000F8CFA6C6A8C6CF93DF93A8D6EC01892BC6
:1036700011F40ADE36DECE01DF91CF910895CF93AB
:10368000DF939CD6EC01892B09F4FEDDCE01DF919E
:10369000CF91089580914302909144020895CF9371
:1036A000DF9380914A04D0E0C0E08823D1F09AD61D
:1036B000EC01892BB1F4E8DD14DE80914302909196
:1036C0004402E7D1E8D2EC01892B59F48FE494E06D
:1036D000D5DD83E594E0D2DD8BE494E0CFDD10927C
:1036E0004A04CE01DF91CF910895EF92FF920F939C
:1036F0001F93CF93DF93EC017A018B010F5F1F4F74
:103700000E9DA0010F9D500D1E9D500D112470E0C7
:1037100060E00E94D12990E080E0F0E0E0E02FEF4F
:10372000E816F90639F4DF91CF911F910F91FF90C0
:10373000EF9008951A8219822883309711F0D2836E
:10374000C1830196FE01C00FD11FEACFCF92DF9255
:10375000EF92FF920F931F93CF93DF9304EA15E04C
:103760000C7F43E050E065E472E08BE492E01AD411
:1037700085E4E82E82E0F82E9BE4C92E92E0D92E53
:10378000C3E2D6E0D7014D915D917D01F6016191D3
:1037900071916F01198308835D834C835B834A8336
:1037A0007F836E839B012F5F3F4F249FC001259F26
:1037B000900D349F900D112499878887011511056C
:1037C00011F0C80192DF88859985080F191F2A9684
:1037D000FBE4EF16F2E0FF06A9F6E9E5F4E088E481
:1037E00091E0DF019C011D9221503040E1F71092E1
:1037F00058041092570410924206109241061092FB
:103800004606109245061092440610924306109206
:1038100048061092470610924A06109249061092E6
:103820004C0610924B061092500610924F061092C2
:103830004E0610924D0610925206109251061092AA
:103840005406109253061092200610921F061092F2
:1038500022061092210690E080E0DF91CF911F9127
:103860000F91FF90EF90DF90CF9008950097F1F0C7
:10387000F894ABE4B2E0E3E2F6E030E020E04D9112
:103880005D9148175907A8F04281538141155105B0
:1038900081F08AE0829FF001839FF00D1124ED5D9D
:1038A000F94F80819181009759F4789490E080E0FD
:1038B00008952F5F3F4F3A962330310501F7F5CF3A
:1038C000DC0111966D917C917183608341505109A7
:1038D00053834283FC012193CF017894089500978C
:1038E00049F1DC018E91853041F4E0912106F0919F
:1038F00022063097F9F0CD0119948530D8F4282F9D
:1039000030E0F8948FEF8C938AE0829FF001839FE0
:10391000F00D1124ED5DF94F8081918112969C93F9
:103920008E931197B183A0838281938101969383B3
:10393000828378940895CF92DF92EF92FF920F9353
:103940001F93CF93DF939C018CE594E08C7F41150E
:10395000510509F49BC02115310509F497C0611583
:10396000710509F493C07A01AB01B9016D5F7F4F16
:103970006C7F9B012F5F3F4F249F8001259F100D7F
:10398000349F100D1124F894209141063091420685
:10399000232B59F42091490630914A06211531050F
:1039A00069F12017310708F058C020914B0630917B
:1039B0004C06232B91F42091490630914A06820F40
:1039C000931F20915306309154062115310509F4B7
:1039D00041C02017310708F056C07894CFEFDFEFD1
:1039E00086EF9FEFF701D183C083DF91CF911F91C5
:1039F0000F91FF90EF90DF90CF900895C3E0D0E05B
:103A0000C0905704D090580425E431E02C193D09AA
:103A10002017310710F32AE02C9FF0012D9FF00DA5
:103A20001124ED5DF94F9183808355834483538343
:103A300042837783668311870087009709F055DEFC
:103A40000C0D1D1D1093580400935704789490E0BA
:103A500080E0C8CFC4E0D0E0D3CFC3E0D0E02AE01C
:103A60002C9FF0012D9FF00D1124ED5DF94F9183F6
:103A7000808355834483538342837783668300978F
:103A800029F333DEE3CFC4E0D0E0E9CF8FEF9FEF3F
:103A9000ACCF9C010397029708F069C0F89484E0CA
:103AA0009AE0482F50E0241735070CF44DC091E000
:103AB0008AE0829FF001839FF00D1124ED5DF94FA4
:103AC000118210821582148213821282178216824A
:103AD0009923B1F18091410690914206892BA9F476
:103AE0002091490630914A062115310571F08091E7
:103AF000570490915804821B930B90935804809321
:103B0000570410924A061092490680914B069091F4
:103B10004C06892BA9F420915306309154062115A7
:103B2000310571F08091570490915804821B930BDA
:103B300090935804809357041092540610925306A1
:103B4000789490E080E00895949FF001959FF00DA7
:103B50001124ED5DF94F40815181452B31F44085B1
:103B60005185452B11F481509CCF90E0A1CF8FEF70
:103B70009FEF08954115510549F1009739F16115FD
:103B8000710521F1F89420911F0630912006232B16
:103B9000B9F42091210630912206232B89F49093C9
:103BA000200680931F067093220660932106789466
:103BB00025E030E090E080E0FA0131832083089531
:103BC00078942FEF3FEF86EF9FEFF6CF8FEF9FEFC9
:103BD0000895059769F4F8941092200610921F0634
:103BE0001092220610922106789490E080E00895C9
:103BF0008FEF9FEF08956115710519F4F0E0E0E093
:103C000011C08530910581F4E0911F06F0912006E6
:103C10003097A1F3CB0101961995009779F3FC0138
:103C200085E08193CF0108959C0123503109223012
:103C3000310520F72AE0289FD001299FB00D1124DB
:103C4000AD5DB94F2D913C911197232BB9F216968A
:103C50002D913C9117972617370780F2F89412960A
:103C60002D913C9113972115310529F0ED91FC918F
:103C70001197309711F47894C1CF418152811196F8
:103C80005C934E932150310913963C932E931297D7
:103C900081937894C7CFE1EAF5E08EE7DF011D92CA
:103CA0008A95E9F7E9E5F4E088E491E0DF019C0119
:103CB0001D9221503040E1F71092580410925704A1
:103CC000E3E2F6E082E3DF011D928A95E9F7EFE196
:103CD000F6E084E0DF011D928A95E9F790E080E04C
:103CE0000895CF93DF93C0915102D0915202CF3FFC
:103CF000DC0759F420D4909352028093510297FF2D
:103D000009C0D0935202C093510284EF9FEFDF911C
:103D1000CF91089590E080E0FACF8230910528F4A9
:103D20008093550690E080E008958FEF9FEF08950F
:103D30004F925F926F927F92AF92BF92CF92DF923B
:103D4000EF92FF920F931F93CF93DF931F921F92D7
:103D5000CDB7DEB71A821982009709F478C06115D1
:103D6000710509F474C0209151023091520207EF9D
:103D70001FEF2F3F3F4F09F444C06B015C01412C02
:103D8000512C3201F12CE12C10E000E09E012F5F5C
:103D90003F4FA6014E195F09B5016E0D7F1D809141
:103DA00051029091520226D4892B09F04AC0898190
:103DB0009A81009741F4E114F10429F42091550609
:103DC000222309F441C0E80EF91EEC14FD04C8F4E6
:103DD00080E8481684E858068EE16806710418F5F4
:103DE00060E070E0CB014ED62AE0420E511C611C0F
:103DF000711C0A3F4FEF140721F0043F8FEF1807A3
:103E0000A1F4C8010F900F90DF91CF911F910F91F6
:103E1000FF90EF90DF90CF90BF90AF907F906F902A
:103E20005F904F90089501EF1FEF81E090E0013F18
:103E30002FEF120711F090E080E0892B09F4A6CF54
:103E4000E0CF04EF1FEFDDCF0AEF1FEFDACF0FEF68
:103E50001FEFD7CF4F925F926F927F92AF92BF9238
:103E6000CF92DF92EF92FF920F931F93CF93DF9346
:103E70001F921F92CDB7DEB71A821982009709F4FC
:103E800078C06115710509F474C020915102309118
:103E9000520207EF1FEF2F3F3F4F09F444C06B0161
:103EA0005C01412C512C3201F12CE12C10E000E09E
:103EB0009E012F5F3F4FA6014E195F09B5016E0DA0
:103EC0007F1D80915102909152024AD3892B09F0B3
:103ED0004AC089819A81009741F4E114F10429F4E0
:103EE00020915506222309F441C0E80EF91EEC1476
:103EF000FD04C8F480E4481682E458068FE06806A2
:103F0000710418F560E070E0CB01BCD52AE0420EE8
:103F1000511C611C711C0E3F4FEF140721F0043F30
:103F20008FEF1807A1F4C8010F900F90DF91CF9188
:103F30001F910F91FF90EF90DF90CF90BF90AF90C7
:103F40007F906F905F904F90089502EF1FEF81E098
:103F500090E0023F2FEF120711F090E080E0892BF4
:103F600009F4A6CFE0CF04EF1FEFDDCF0EEF1FEF78
:103F7000DACF0FEF1FEFD7CF80915102909152020D
:103F80008F3F980749F0CFD2892B49F48FEF9FEFED
:103F9000909352028093510290E080E0089584EF64
:103FA0009FEF0895CF92DF92EF92FF920F931F93AE
:103FB000CF93DF9321E04115510509F020E04150F6
:103FC000510921112CC0DC01FB01D12CC12C21E0B5
:103FD00022C03FEFC31AD30A7D010D911D91E70165
:103FE000EA80FB80E016F106A8F420813181E280AE
:103FF000F380F182E08233832283ED90FC9011976D
:104000009D0122503109E901F982E88211961C9341
:104010000E9320E03296C416D506D8F2D2CFDF91A7
:10402000CF911F910F91FF90EF90DF90CF90089567
:10403000FC01680F791F90E080E0E617F70709F4AC
:1040400008952191820F911DF8CF209156062111DC
:1040500013C047DE009791F410925C0610925B0645
:1040600010925A061092590610925806109257064E
:1040700021E020935606089584EF9FEF0895AF92B4
:10408000BF92CF92DF92EF92FF920F931F93CF9345
:10409000DF93009709F460C04630510508F45CC016
:1040A00020915606C7EFDFEF222309F449C08C01A7
:1040B000060F171FF801C080D180C114D10409F484
:1040C0004EC096012A5F3F4F4217530708F447C07E
:1040D0007C0180915B0690915C0693838283B6019C
:1040E0006C5F7F4F5801A60EB71EC801A1DFF50116
:1040F0009183808364E070E0C8011ADEEC01892BB3
:10410000F9F481E090E009DEB601C801049610DE02
:10411000EC01892B91F462E070E0C50109DEEC014D
:10412000892B59F4C701DBDB80915B0690915C061B
:10413000019690935C0680935B0690E080E0EDDD55
:10414000CE01DF91CF911F910F91FF90EF90DF9003
:10415000CF90BF90AF900895CFEFDFEFF1CFC9EFD1
:10416000DFEFEECF6F927F928F929F92AF92BF92CE
:10417000CF92DF92EF92FF920F931F93CF93DF9333
:1041800000D01F92CDB7DEB7009709F47AC0411571
:10419000510509F476C02091560607EF1FEF222340
:1041A00009F44DC03A017B015C0164E070E0CE018E
:1041B000019650DE8C01892B09F041C009811A81DA
:1041C0000115110509F45AC0480186E0880E911CBA
:1041D000B701680D791D80915302909154020BDD57
:1041E0006C01009709F450C0A70170E060E00E94E4
:1041F000D12989819A81AB81BC81EC0CFD1CF7012E
:1042000081939193A193B1937F0181E090E085DD4B
:10421000B801C7011FDE892B31F562E070E0C701EC
:10422000800F911F17DE8C01892BE9F490E080E06C
:1042300074DDF501D182C082F30191828082C801D0
:104240000F900F900F900F90DF91CF911F910F91D2
:10425000FF90EF90DF90CF90BF90AF909F908F90A6
:104260007F906F90089590E080E057DDF501118216
:104270001082F30111821082C60131DB09EF1FEFBA
:10428000DECF0FEF1FEFDBCF06EF1FEFD8CF00978A
:10429000A1F04115510589F02115310571F0F901A1
:1042A00036966E177F0748F0DC012D933C93DA01B8
:1042B000ED93FC9390E080E008958FEF9FEF0895D9
:1042C000AF92BF92CF92DF92EF92FF920F931F9324
:1042D000CF93DF93009709F45FC04115510509F4AE
:1042E0005BC06530710508F457C020915606C7EFD2
:1042F000DFEF222391F1DC01CD90DC901197129633
:10430000ED91FC9196012A5F3F4FC9EFDFEF261731
:10431000370719F5C0915706D0915806209749F5EF
:1043200021E030E030935806209357067A018C0143
:10433000F0935A06E09359065601B4E0AB0EB11C57
:10434000B50176DE0A0D1B1DF8012081318182172F
:10435000930729F5D701CD92DC92CE01DF91CF9161
:104360001F910F91FF90EF90DF90CF90BF90AF9093
:1043700008952091590630915A062F5F3F4FCCEF98
:10438000DFEFE217F30790F2CBEFDFEF2E173F07D7
:1043900068F2D0E0C0E0CACFCFEFDFEFDECFC3EFEF
:1043A000DFEFDBCF84E090E0089582E090E00895B5
:1043B0008CEF9FEF089580E290E0089510925C06E4
:1043C00010925B0610925A061092590610925806E7
:1043D0001092570690E080E00895909354028093E5
:1043E0005302089580915606882391F0C5DD009709
:1043F00089F410925C0610925B0610925A06109295
:1044000059061092580610925706109256060895B3
:1044100090E080E00895009749F06115710531F052
:10442000FC0111821082FB01118210820895F3CFEA
:1044300026E030E040E855E260E070E090E080E0A7
:1044400000C08130910569F01CF4892B39F0089582
:104450008230910549F0039751F008958AE696E07D
:1044600073C487E097E0FCCF84EA97E0F9CF81E45A
:1044700098E0F6CF1F920F920FB60F9211240BB651
:104480000F922F933F934F935F936F937F938F93ED
:104490009F93AF93BF93EF93FF938BEC93EF909326
:1044A000250180932401B9D0FF91EF91BF91AF9185
:1044B0009F918F917F916F915F914F913F912F913C
:1044C0000F900BBE0F900FBE0F901F9018958BECA6
:1044D00093EF9093250180932401A3E7B0E08C91A2
:1044E0008E7F8C93E0E2F1E080818C7F8083E1E23B
:1044F000F1E08081877E80838081856080838081F8
:104500008D7F80838C9181608C930895E3E7F0E048
:10451000808190819E7F90838170089581E00895CD
:1045200010925D06089568EE73E080E090E0AAD2F4
:1045300090E080E0089526E030E040E050E16EE059
:1045400070E090E080E07DDF8AE696E033D3892B4F
:1045500021F08AE696E048D3F7CF90E080E0089516
:10456000CF92DF92EF92FF920F931F93CF93DF933F
:104570006B017A01E901198218828AE696E01AD362
:10458000892B69F18601CC24C39482E0D82E8091D6
:104590005D06811110C08AE696E026D30297B9F72E
:1045A000C0925D06F801D1928F01888199810196B0
:1045B00099838883ECCF888199818E159F0578F443
:1045C0008AE696E011D38F3F9807A9F3F80181930B
:1045D0008F0188819981019699838883ECCF90E03F
:1045E00080E0DF91CF911F910F91FF90EF90DF90CE
:1045F000CF9008950F931F93CF93DF93EA01890122
:104600008AE696E031D6F801D183C08390E080E05D
:10461000DF91CF911F910F91089580915E0691E0F7
:10462000980F90935E06882349F021E030E03093A4
:10463000600620935F0680935E06089578940E943A
:104640003102F89480915E068150F5CF0F931F934D
:10465000CF93DF931092F9081092F80849D2E8DE60
:10466000C0916802D0916902198218826FEF7FEFC2
:10467000CB010E94260270E060E090E080E00E94A2
:10468000A800009709F042C00E947103F894789442
:10469000BE016A557F4F8A819B810E94AB00892BA6
:1046A00071F46FEF7FEFCB010E943A010E9420026C
:1046B000882329F081E0FE01E455FF4F8083F894C0
:1046C00006DF0E942302882311F080E00BC00E94C5
:1046D00020028111FACF81E0FE01E455FF4F908165
:1046E0009111F3CF8093F80878940E942F0A8C01DF
:1046F0007894C455DF4F8091F80881110CC00E9456
:1047000006040E940602F89490E080E0DF91CF91C9
:104710001F910F9108950E9404020E942302882392
:10472000D9F081E08093F9089091F90881E0911126
:1047300080E08093F8088091F9088111E7DE01306C
:10474000110529F40E942F0A892B09F4E9DE0E9441
:104750002F0A8C01E3DECFCF0E9420028111E1CF2E
:1047600081E098819111DECF80E0DCCF40D008F469
:1047700081E00895E89409C097FB3EF490958095F8
:10478000709561957F4F8F4F9F4F9923A9F0F92F17
:1047900096E9BB279395F695879577956795B79595
:1047A000F111F8CFFAF4BB0F11F460FF1BC06F5F7B
:1047B0007F4F8F4F9F4F16C0882311F096E911C08D
:1047C000772321F09EE8872F762F05C0662371F0AE
:1047D00096E8862F70E060E02AF09A95660F771FC2
:1047E000881FDAF7880F9695879597F90895990F9E
:1047F0000008550FAA0BE0E8FEEF16161706E807AB
:10480000F907C0F012161306E407F50798F0621BCB
:10481000730B840B950B39F40A2661F0232B242BA0
:10482000252B21F408950A2609F4A140A6958FEFBF
:10483000811D811D0895DBDF08F48FEF08950BD0F3
:1048400078C069D028F06ED018F0952309F05AC0CE
:104850005FC01124A2C07ED0A0F3959FD1F3950F25
:1048600050E0551F629FF001729FBB27F00DB11DF4
:10487000639FAA27F00DB11DAA1F649F6627B00D84
:10488000A11D661F829F2227B00DA11D621F739F6D
:10489000B00DA11D621F839FA00D611D221F749F7B
:1048A0003327A00D611D231F849F600D211D822FC2
:1048B000762F6A2F11249F5750408AF0E1F0882309
:1048C0004AF0EE0FFF1FBB1F661F771F881F915016
:1048D0005040A9F79E3F510570F014C05EC05F3F85
:1048E000ECF3983EDCF3869577956795B795F79549
:1048F000E7959F5FC1F7FE2B880F911D96958795D1
:1049000097F9089597F99F6780E870E060E008954F
:104910009FEF80EC089500240A94161617061806D7
:104920000906089500240A941216130614060506B3
:104930000895092E0394000C11F4882352F0BB0F44
:1049400040F4BF2B11F460FF04C06F5F7F4F8F4FA7
:104950009F4F089557FD9058440F551F59F05F3FE2
:1049600071F04795880F97FB991F61F09F3F79F091
:1049700087950895121613061406551FF2CF469513
:10498000F1DF08C0161617061806991FF1CF869595
:104990007105610508940895E894BB276627772779
:1049A000CB0197F908951F920F920FB60F92112421
:1049B0002F933F938F939F93AF93BF938091620602
:1049C00090916306A0916406B091650630916106EE
:1049D00023E0230F2D3758F50196A11DB11D20931B
:1049E00061068093620690936306A0936406B09379
:1049F00065068091660690916706A0916806B09161
:104A000069060196A11DB11D809366069093670605
:104A1000A0936806B0936906BF91AF919F918F9163
:104A20003F912F910F900FBE0F901F90189526E881
:104A3000230F0296A11DB11DD2CF3FB7F8948091EC
:104A4000660690916706A0916806B091690626B542
:104A5000A89B05C02F3F19F00196A11DB11D3FBFB6
:104A6000BA2FA92F982F8827BC01CD01620F711D85
:104A7000811D911D42E0660F771F881F991F4A957F
:104A8000D1F708958F929F92AF92BF92CF92DF920B
:104A9000EF92FF926B017C01D0DF4B015C01C114EE
:104AA000D104E104F104D9F00CD4C7DF6819790905
:104AB0008A099B09683E73408105910580F321E0D6
:104AC000C21AD108E108F10888EE880E83E0981E2A
:104AD000A11CB11CC114D104E104F10431F7FF9011
:104AE000EF90DF90CF90BF90AF909F908F90089500
:104AF000789484B5826084BD84B5816084BD85B5B9
:104B0000826085BD85B5816085BDEEE6F0E080817F
:104B100081608083E1E8F0E01082808182608083A0
:104B2000808181608083E0E8F0E080818160808323
:104B3000E1EBF0E0808184608083E0EBF0E0808155
:104B400081608083E1E9F0E0808182608083808100
:104B500081608083E0E9F0E0808181608083E1EA28
:104B6000F0E0808182608083808181608083E0EAE0
:104B7000F0E0808181608083E1E2F1E08081826009
:104B80008083808181608083E0E2F1E080818160C8
:104B90008083EAE7F0E080818460808380818260A6
:104BA000808380818160808380818068808310928F
:104BB000C1000895FC01918D228D892F90E0805CC9
:104BC0009F4F821B91098F7399270895FC01918D46
:104BD000828D981731F0828DE80FF11D858D90E060
:104BE00008958FEF9FEF0895FC01918D828D9817A6
:104BF00061F0A28DAE0FBF2FB11D5D968C91928D8D
:104C00009F5F9F73928F90E008958FEF9FEF0895BD
:104C1000FC01538D448D252F30E0842F90E0821BC2
:104C2000930B541710F0CF96089501970895FC0147
:104C3000A48DA80FB92FB11DA35ABF4F2C91848DFD
:104C400090E001968F739927848FA689B7892C935A
:104C5000A089B1898C91837080648C93938D848DAD
:104C6000981306C00288F389E02D80818F7D8083B0
:104C70000895CF93DF93EC01888D8823B1F0AA8942
:104C8000BB89E889F9898C9185FD03C0808186FD07
:104C90000CC00FB607FCF7CF8C9185FFF2CF808157
:104CA00085FFEDCFCE01C3DFEACFDF91CF9108952D
:104CB000EF92FF920F931F93CF93DF93EC0181E06C
:104CC000888F9B8D8C8D98131AC0E889F989808113
:104CD00085FF15C09FB7F894EE89FF896083E88946
:104CE000F98980818370806480839FBF81E090E038
:104CF000DF91CF911F910F91FF90EF900895F62EC5
:104D00000B8D10E00F5F1F4F0F731127E02E8C8D5E
:104D10008E110BC00FB607FCFACFE889F9898081A4
:104D200085FFF5CFCE0183DFF2CFEB8DEC0FFD2FAA
:104D3000F11DE35AFF4FF0829FB7F8940B8FEA8979
:104D4000FB8980818062D0CFCF92DF92EF92FF9279
:104D50001F93CF93DF93EC016A017B01122FE88947
:104D6000F98982E08083C11481EED806E104F10460
:104D700099F060E079E08DE390E0A7019601C5D25B
:104D80002150310941095109569547953795279585
:104D9000211580E1380790F0E889F989108260E8F0
:104DA00074E88EE190E0A7019601AFD2215031095D
:104DB000410951095695479537952795EC85FD850D
:104DC0003083EE85FF852083188EEC89FD89108362
:104DD000EA89FB89808180618083EA89FB898081FF
:104DE00088608083EA89FB89808180688083EA8982
:104DF000FB8980818F7D8083DF91CF911F91FF9010
:104E0000EF90DF90CF9008951F920F920FB60F9200
:104E100011240BB60F922F938F939F93EF93FF93D1
:104E2000E0917A06F0917B068081E0918006F09116
:104E3000810682FD1DC09081809183068F5F8F73F4
:104E400020918406821741F0E0918306F0E0E65954
:104E5000F94F958F80938306FF91EF919F918F91EA
:104E60002F910F900BBE0F900FBE0F901F901895B3
:104E70008081F2CF1F920F920FB60F9211240BB6C2
:104E80000F922F933F934F935F936F937F938F93E3
:104E90009F93AF93BF93EF93FF938AE696E0C7DEAD
:104EA000FF91EF91BF91AF919F918F917F916F9102
:104EB0005F914F913F912F910F900BBE0F900FBEBE
:104EC0000F901F901895EAE6F6E01382128288EEA2
:104ED00093E0A0E0B0E084839583A683B7838CEE53
:104EE00092E09183808385EC90E09587848784ECC1
:104EF00090E09787868780EC90E0918B808B81ECA7
:104F000090E0938B828B82EC90E0958B848B86EC87
:104F100090E0978B868B118E128E138E148E0895CF
:104F20001F920F920FB60F9211240BB60F922F9370
:104F30008F939F93EF93FF93E0911707F0911807DA
:104F40008081E0911D07F0911E0782FD1DC09081B8
:104F5000809120078F5F8F7320912107821741F086
:104F6000E0912007F0E0E95FF84F958F80932007EC
:104F7000FF91EF919F918F912F910F900BBE0F900A
:104F80000FBE0F901F9018958081F2CF1F920F9245
:104F90000FB60F9211240BB60F922F933F934F939E
:104FA0005F936F937F938F939F93AF93BF93EF9391
:104FB000FF9387E097E03BDEFF91EF91BF91AF91C8
:104FC0009F918F917F916F915F914F913F912F9121
:104FD0000F900BBE0F900FBE0F901F901895E7E03B
:104FE000F7E01382128288EE93E0A0E0B0E08483C1
:104FF0009583A683B7838CEE92E0918380838DECBA
:1050000090E0958784878CEC90E09787868788EC82
:1050100090E0918B808B89EC90E0938B828B8AEC73
:1050200090E0958B848B8EEC90E0978B868B118E25
:10503000128E138E148E08951F920F920FB60F9238
:1050400011240BB60F922F938F939F93EF93FF939F
:10505000E091B407F091B5078081E091BA07F09133
:10506000BB0782FD1DC090818091BD078F5F8F734C
:105070002091BE07821741F0E091BD07F0E0EC55AA
:10508000F84F958F8093BD07FF91EF919F918F917E
:105090002F910F900BBE0F900FBE0F901F90189581
:1050A0008081F2CF1F920F920FB60F9211240BB690
:1050B0000F922F933F934F935F936F937F938F93B1
:1050C0009F93AF93BF93EF93FF9384EA97E0AFDD95
:1050D000FF91EF91BF91AF919F918F917F916F91D0
:1050E0005F914F913F912F910F900BBE0F900FBE8C
:1050F0000F901F901895E4EAF7E01382128288EE71
:1051000093E0A0E0B0E084839583A683B7838CEE20
:1051100092E09183808385ED90E09587848784ED8C
:1051200090E09787868780ED90E0918B808B81ED72
:1051300090E0938B828B82ED90E0958B848B86ED53
:1051400090E0978B868B118E128E138E148E08959D
:105150001F920F920FB60F9211240BB60F922F933E
:105160008F939F93EF93FF93E0915108F091520832
:105170008081E0915708F091580882FD1DC0908110
:1051800080915A088F5F8F7320915B08821741F0DE
:10519000E0915A08F0E0EF5BF74F958F80935A0843
:1051A000FF91EF919F918F912F910F900BBE0F90D8
:1051B0000FBE0F901F9018958081F2CF1F920F9213
:1051C0000FB60F9211240BB60F922F933F934F936C
:1051D0005F936F937F938F939F93AF93BF93EF935F
:1051E000FF9381E498E023DDFF91EF91BF91AF91B0
:1051F0009F918F917F916F915F914F913F912F91EF
:105200000F900BBE0F900FBE0F901F901895E1E40A
:10521000F8E01382128288EE93E0A0E0B0E084838D
:105220009583A683B7838CEE92E09183808385E398
:1052300091E09587848784E391E09787868780E370
:1052400091E0918B808B81E391E0938B828B82E361
:1052500091E0958B848B86E391E0978B868B118E02
:10526000128E138E148E0895AF92BF92CF92DF925A
:10527000EF92FF920F931F93CF93DF936C017B010B
:105280008B01040F151FEB015E01AE18BF08C0179C
:10529000D10759F06991D601ED91FC910190F0810F
:1052A000E02DC6011995892B79F7C501DF91CF91C2
:1052B0001F910F91FF90EF90DF90CF90BF90AF9034
:1052C00008950895DB018F939F9349D0BF91AF91CB
:1052D000A29F800D911DA39F900DB29F900D112450
:1052E0000895AA1BBB1B51E107C0AA1FBB1FA6172D
:1052F000B70710F0A61BB70B881F991F5A95A9F77F
:1053000080959095BC01CD010895A1E21A2EAA1BAB
:10531000BB1BFD010DC0AA1FBB1FEE1FFF1FA21765
:10532000B307E407F50720F0A21BB30BE40BF50B62
:10533000661F771F881F991F1A9469F760957095EB
:10534000809590959B01AC01BD01CF010895EE0FB2
:10535000FF1F881F8BBF0790F691E02D199409D08D
:10536000A59F900DB49F900DA49F800D911D1124B9
:105370000895A29FB001B39FC001A39F700D811D2E
:105380001124911DB29F700D811D1124911D08954E
:10539000FB01DC0102C001900D9241505040D8F752
:1053A0000895DC0101C06D9341505040E0F708952D
:0453B000F894FFCF9F
:1053B4000000803F000000000000803F0000803FAC
:1053C400000000000000803F000000000000803F5B
:1053D4000000803F0000000000000000FEFFFFFF0F
:1053E40001E8030000FFFF00000000FFFFFFFFFFD4
:1053F400FFFFFFFFFF010001000100200038002033
:1054040000FFFFFFFF466978656453746570446963
:1054140073637265746500011003FF00840CB00CA3
:10542400FE006A0CEB09FD00FC0B560CFC00420C60
:10543400EB09F600330DEB09F500090C720DF400CD
:10544400FC0C890DDE00B0114A14DD001F13EB09BA
:10545400DA00590F610FD9006514710FE200410E93
:10546400EB09E1007C0EEB09E000F10EEB09D6003C
:105474004818EB09D500FE10EB09D4008A10EB099B
:10548400D300FB0FEB09C000800FEB09F000B1184B
:10549400EB09ED006E18EB090000000058263429D2
:0A54A40008263926DA25F425E6254E
:00000001FF
