:10000000F8C000000C943A2C0C94652C0C94902CA5
:100010000C94BB2C0C94E62C0C94112D0C943C2DC0
:100020000C94672D17C1000015C1000013C100001A
:1000300011C100000FC100000DC100000BC1000084
:1000400009C1000007C1000005C1000003C1000094
:1000500001C10000FFC00000FDC000000C94922D03
:10006000F9C000000C9489310C94BF31F3C000003A
:10007000F1C00000EFC00000EDC00000EBC00000C8
:10008000E9C00000E7C00000E5C00000E3C00000D8
:100090000C9415320C944B32DDC00000DBC0000024
:1000A000D9C00000D7C00000D5C00000D3C00000F8
:1000B000D1C00000CFC00000CDC00000CBC0000008
:1000C000C9C00000C7C000000C94C8270C94A1321E
:1000D0000C94D732BFC000000C942D330C946333C2
:1000E000B9C0000000000A0B02090C0D0E0807033E
:1000F00004010000000000000000000000000000FB
:1001000000000000000000000000000000000000EF
:1001100012111000000000000000000000000000AC
:100120000000000000000000000001021020200874
:100130000810204010204080020102010804020142
:1001400001020408102040808040201008040201B1
:10015000800402018040201008040201080402010A
:100160000102040810204080010204081020408091
:1001700005050505070508080808020202020A0A23
:100180000808040404040101010101010101030341
:10019000030303030303040707070C0C0C0C0C0CEC
:1001A0000C0C0202020206060606060606060B0BE9
:1001B0000B0B0B0B0B0B00002200250028002B0063
:1001C0002E003100340002010000050108010B017E
:1001D00000002100240027002A002D0030003300F9
:1001E00001010000040107010A01E8317432003303
:1001F0008C3311241FBECFEFD1E2DEBFCDBF00E0B4
:100200000CBF12E0A0E0B2E0E0EAF8E600E00BBFCD
:1002100002C007900D92A43EB107D9F728E0A4EEE2
:10022000B2E001C01D92A136B207E1F710E0C9EFBC
:10023000D0E000E006C021970109802FFE010E9456
:100240001D34C53FD10780E00807A9F70E94D028D8
:100250000C944E34D5CECF93DF93882349F0EB0135
:1002600081500E94992E99838883DF91CF910895C0
:10027000FB0111821082F9CF0F931F938B019C0118
:1002800083E036952795179507958A95D1F7035101
:100290001D4F462F477021E030E0F90102C0EE0FFC
:1002A000FF1F4A95E2F7AF01F80120812423CB011B
:1002B0000196211102C090E080E01F910F910895F6
:1002C0000F931F938B019C0183E03695279517951B
:1002D00007958A95D1F7677081E090E001C0880F9B
:1002E0006A95EAF7F801E351FD4F2081452B31F47F
:1002F0008095822380831F910F910895822BFACFDE
:10030000CF92DF92EF92FF92CF93DF936B017C014C
:1003100060E086E3C816D104E104F10490F486E3BA
:100320008C0D0E94F62FE6012196AE01C701B601A1
:10033000C7DFCE01DF91CF91FF90EF90DF90CF909C
:1003400008958C2DEECF882341F08150682F70E006
:1003500090E080E050E040E0B3CF0895611102C02A
:100360000C94F62F6130E1F362E0FACF662319F0C6
:1003700061E00C94323060E0FCCFCF92DF92EF92DC
:10038000FF92CF93882351F16A017B01CFEFC80F11
:1003900020E030E0A901CB01B6010E94D029181657
:1003A0008CF0C701B60190580E94D9299B01AC017D
:1003B0006C2F70E090E080E0CF91FF90EF90DF90A5
:1003C000CF90B2C0C701B6010E94D4298C2FCF9123
:1003D000FF90EF90DF90CF900C94BC2ECF91FF90C8
:1003E000EF90DF90CF9008950F931F938B019C01A6
:1003F00083E036952795179507958A95D1F70C5187
:100400001D4F462F477021E030E0F90102C0EE0F8A
:10041000FF1F4A95E2F7AF01F80120812423CB01A9
:100420000196211102C090E080E01F910F91089584
:100430000F931F938B019C0183E0369527951795A9
:1004400007958A95D1F7677081E090E001C0880F29
:100450006A95EAF7F801EC51FD4F2081452B31F404
:100460008095822380831F910F910895822BFACF6C
:100470002F923F924F925F926F927F928F929F92B4
:10048000AF92BF92CF92DF92EF92FF920F931F93A2
:10049000CF93DF93D62EC72E782E692E49015A01AD
:1004A000280161E08D2D0E94F62FCD2DDC2D8E01CF
:1004B0000F5F1F4FA8016D2D7C2D872D962DB8DF66
:1004C00020E030E0A901C201B7010E94582B1816A4
:1004D00064F4C201B7010E94D9292B01C501B401FE
:1004E0000E94D929A201CE0123D0C801DF91CF916A
:1004F0001F910F91FF90EF90DF90CF90BF90AF9042
:100500009F908F907F906F905F904F903F902F9033
:100510000895882341F08150682F70E090E080E0DA
:1005200050E040E085CF0895862FB9010C94BC2E91
:100530009C01FC01EC51FF4FE491E150E231E0F409
:10054000F0E08827E955FD4F8F4F0C941D34B90218
:10055000C002C302DA02EF02BC0204031003140358
:100560002B03400355036C038103BC029603AD03C8
:10057000C20384B5806884BD60E0822F0C94323061
:1005800084B58062F8CF809180008C7F82608093F8
:10059000800080918100807E8061682B6093810063
:1005A00050938700409386008091800080688093FC
:1005B0008000E2CF809180008C7F826080938000F9
:1005C00080918100807E8061682B609381005093D0
:1005D000870040938600809180008062E8CF809100
:1005E00080008C7F82608093800080918100807E7B
:1005F0008061682B60938100509387004093860050
:10060000809180008860D3CF8091B0008068809313
:10061000B0008091B100887F682B6093B100ACCFAF
:100620008091B0008062F3CF809190008C7F8260D7
:100630008093900080919100807E8061682B609310
:1006400091005093970040939600809190008068AD
:100650008093900091CF809190008C7F82608093F6
:10066000900080919100807E8061682B6093910062
:100670005093970040939600809190008062E8CF5D
:10068000809190008C7F8260809390008091910097
:10069000807E8061682B6093910050939700409317
:1006A0009600809190008860D3CF8091A0008C7FCD
:1006B00082608093A0008091A100807E8061682B81
:1006C0006093A1005093A7004093A6008091A000E2
:1006D00080688093A00050CF8091A0008C7F8260C2
:1006E0008093A0008091A100807E8061682B609340
:1006F000A1005093A7004093A6008091A0008062C3
:10070000E8CF8091A0008C7F82608093A0008091D0
:10071000A100807E8061682B6093A1005093A700A8
:100720004093A6008091A0008860D3CF80912001E3
:100730008C7F82608093200180912101807E806186
:10074000682B6093210150932701409326018091EB
:1007500020018068809320010FCF809120018C7F41
:1007600082608093200180912101807E8061682BCE
:10077000609321015093270140932601809120012D
:100780008062E8CF809120018C7F8260809320017D
:1007900080912101807E8061682B609321015093BC
:1007A000270140932601809120018860D3CF90E0FB
:1007B00080E008950F931F93009709F487C0611597
:1007C000710509F483C0009116021091170220915F
:1007D0001802309119020E3F1F4F2F4F3F4F09F063
:1007E00066C04FEF5FEFBA014093160250931702B5
:1007F00060931802709319024091160250911702EB
:100800006091180270911902DC011296ED91FC9131
:1008100080819181A281B3818093790390937A033F
:10082000A0937B03B0937C0384819581A681B781DB
:100830008093750390937603A0937703B093780326
:1008400080859185A285B38580937103909372030F
:10085000A0937303B093740384859585A685B785AB
:1008600080936D0390936E03A0936F03B093700316
:100870001092690310926A0310926B0310926C033A
:100880006CD782ED9BE09093F7028093F6029093F1
:10089000F9028093F80250D6009731F421E030E05D
:1008A00030937E0320937D031F910F910895009153
:1008B0001602109117022091180230911902DB01E3
:1008C0000D931D932D933C93139796CF8FEF9FEF2E
:1008D000EBCF8F929F92AF92BF92CF92DF92EF9227
:1008E000FF921F93CF93DF934B015C011091800324
:1008F00082E090E090937E0380937D0381149104C5
:10090000A104B10441F480918003811104C080915D
:100910007F03C1E08111C0E0C12CD12C7601809110
:100920008003811106C080917F03811102C0CC2316
:10093000D9F083E090E090937E0380937D03CC23F5
:1009400079F1CCE9DFEF111102C00E94360FCE0120
:10095000DF91CF911F91FF90EF90DF90CF90BF90EC
:10096000AF909F908F9008956AE070E080E090E0F3
:100970000E94012E80E1C80E87E2D81EE11CF11C06
:100980008FEF88169806A806B80631F0C1E08C14DF
:100990009D04AE04BF0408F0C0E080E001D6BFCFE4
:1009A000D0E0C0E0D0CFCF92DF92EF92FF920F93D2
:1009B0001F93CF93DF938F3F910511F008F050C044
:1009C00020917D0330917E032330310539F0209151
:1009D0007D0330917E032130310531F424E030E095
:1009E00030937E0320937D036A017B01EC0182300A
:1009F0009105A0F011E0AE01C701B6019CD5AB0195
:100A0000BC01CE011123F9F0DF91CF911F910F911D
:100A1000FF90EF90DF90CF900C945F118C01000F4E
:100A2000111F0A501D4FD8018D919C91892B11F3F4
:100A30000E9469110297F1F6D801ED91FC91CE0167
:100A40001995182FD8CF0E94811190E080E0DF9196
:100A5000CF911F910F91FF90EF90DF90CF9008956D
:100A60008FEF9FEFF4CF80E09BC5CF93DF9386E0BD
:100A700090E090937E0380937D03EBD5EC01E6EF4D
:100A8000F2E084E0DF011D928A95E9F70E94CE0E24
:100A900010927E0310927D03CE01DF91CF910895D5
:100AA00080917F03089580916803089560931602F2
:100AB00070931702809318029093190290E080E0DF
:100AC00008958F929F92AF92BF92CF92DF92EF9252
:100AD000FF9280913C088150823060F483E08093E3
:100AE0003C0880913903882339F0813049F08091A6
:100AF0003A0303C080E0F3CF81E08093380302C063
:100B000010923803E091380384E0E89FF00111244B
:100B1000EE5EFC4F81A592A5A3A5B4A580933403F6
:100B200090933503A0933603B09337038FEF8093F0
:100B30003803209108023091090240910A02509135
:100B40000B0260912D0870912E0880912F089091D2
:100B500030080E94592960932D0870932E088093C5
:100B60002F0890933008E5D3882399F060915308BB
:100B700070915408809155089091560820E030E01B
:100B8000A9010E94D02981113AC080E090E0DC01E7
:100B90003AC060912D0870912E0880912F08909195
:100BA000300882D38111E2CFC0902D08D0902E085A
:100BB000E0902F08F090300820E030E0A901C70154
:100BC000B6010E94D029882301F320E030E040E004
:100BD00050E4C701B6010E945C2A4B015C0120E091
:100BE00030E0A9010E94D029882379F220E030E08A
:100BF000A901C701B6010E94D02987FD1CC080E071
:100C000090E0A0E8BFE38093420890934308A0934C
:100C10004408B093450824E020933C0820913A080A
:100C2000222391F02130A1F030913B0821E03323C1
:100C300061F020E00AC020E030E040E050E4C5016F
:100C4000B4010E9459299ACF21E02093390802C0AB
:100C50001092390820913908222351F180933508E8
:100C600090933608A0933708B093380880913908DC
:100C700080933B088FEF8093390840912C0350916B
:100C80002D0360912E0370912F03409348035093DE
:100C9000490360934A0370934B0381E090E0FF9017
:100CA000EF90DF90CF90BF90AF909F908F907BCED2
:100CB0008093310890933208A0933308B09334089E
:100CC000D5CFCF92DF92EF92FF926B017C019F779D
:100CD00020E030E040E859E50E94D02987FF2BC092
:100CE00020E030E040E05FE3C701B6010E94582BEE
:100CF00087FD0EC020E030E040E05FE3C701B601B1
:100D00000E945929FF90EF90DF90CF900C94422AD7
:100D100020E030E040E05FEBC701B6010E94582BB5
:100D2000181684F420E030E0A901C701B6010E9442
:100D30005C2B6B017C01C701B601FF90EF90DF9047
:100D4000CF90089520E030E040E05FE3C701B601B6
:100D50000E945829FF90EF90DF90CF900C94BD290E
:100D6000CF92DF92EF92FF92CF93DF931F921F9269
:100D7000CDB7DEB7C0900002D0900102E090020231
:100D8000F0900302A70196016091190870911A086A
:100D900080911B0890911C080E94D029882341F063
:100DA000C0921908D0921A08E0921B08F0921C0811
:100DB00066E370E080E090E05FDA9093180880933B
:100DC000170843E050E0BE016F5F7F4F44DA209187
:100DD000140230911502A981BA810E94253421E1C3
:100DE00096958795779567952A95D1F760934608EC
:100DF0006BE070E080E090E0F7DA7C0190932C08E3
:100E000080932B086091460870E090E080E00E949B
:100E1000052AAB01BC01C701B0DA809139088823EB
:100E200029F0813039F080913B0801C081E0809346
:100E30003A0802C010923A0880913A08882309F4CF
:100E400071C08091350890913608A0913708B09113
:100E5000380880933E0890933F08A0934008B093D1
:100E600041088FEF80933A0860913E0870913F08E7
:100E7000809140089091410824DF6B017C0120E0C3
:100E800030E040E853E40E94D0296FEF87FF0EC0A6
:100E900020E030E0A901C701B6010E94582B60E0B4
:100EA00087FD04C0C701B6010E94D9298DE05EDA32
:100EB000C0902C03D0902D03E0902E03F0902F03D0
:100EC0008FEFC81AD80AE80AF80AC0922C03D09209
:100ED0002D03E0922E03F0922F03C701B6010E946A
:100EE000052A9B01AC016091300370913103809120
:100EF0003203909133030E945C2B6093280370931C
:100F0000290380932A0390932B038091380388232D
:100F100091F08130A1F081E090913A03992361F042
:100F200080E00AC08091310890913208A091330886
:100F3000B09134088ECF81E08093390302C01092C3
:100F400039038091390394E0899FF0011124EE5E0A
:100F5000FC4FC1A6D2A6E3A6F4A680933A038FEF76
:100F6000809339030F900F90DF91CF91FF90EF9016
:100F7000DF90CF9008958F929F92AF92BF92DF92B1
:100F8000EF92FF920F931F93CF93DF9384E090E053
:100F900054D1E2E1F3E080E090E0A0E8BFEB81AB68
:100FA00092ABA3ABB4AB8AE097EDA3E2BCE3868F30
:100FB000978FA0A3B1A38CEA9FE6ABE5BAE984833F
:100FC0009583A683B7838FEE9DE4ADEBB7EC808766
:100FD0009187A287B38782E598E8AEEEB2EA84876C
:100FE0009587A687B78782E19FE5ACEEBAE1808B53
:100FF000918BA28BB38BC6E0D3E0D383C283AAEFDD
:10100000B2E0B983A88380E592E011969C938E9319
:1010100013969C938E93129715969C938E93149788
:101020002CE338E017963C932E93169719963C9331
:101030002E9318971B969C938E931A9786E293E0B3
:101040009D838C8386E193E09B838A8388E293E08F
:101050009F838E838FEF87A310A600E012E0D80154
:1010600050964D915D916D917C915397C1E1D8E07F
:1010700048A359A36AA37BA388A789A741A552A522
:1010800063A574A542A353A364A375A386A31C966A
:101090008D919D910D90BC91A02D8C8F9D8FAE8FC9
:1010A000BF8FF80184819581A681B7818093420822
:1010B00090934308A0934408B093450842E050E061
:1010C00061E675E080E00E94C02B1882F801808103
:1010D0009181A281B38188879987AA87BB87812C58
:1010E000912C5401839489829A82AB82BC8266E3FC
:1010F00070E080E090E004D99F838E83DD24D39458
:10110000DD821C8A8D8A9E8AAF8AB88EE12CF12CF2
:101110008701A80197016BE070E080E090E0A8D91A
:101120009B8F8A8FD98E1C868D869E86AF86B88AC5
:1011300061E08DE013D9D98ADF91CF911F910F9192
:10114000FF90EF90DF90BF90AF909F908F900895A9
:101150008091110881111DC081E080931108809158
:10116000120890911308A0911408B09115080197E6
:10117000A105B10571F480911608882351F066E34A
:1011800070E080E090E078D890931808809317087A
:10119000DAD88091250881112AC081E08093250842
:1011A0008091260890912708A0912808B0912908DD
:1011B0000197A105B105D9F480912A088823B9F0D7
:1011C0006BE070E080E090E00FD990932C08809362
:1011D0002B0840E050E0BA01D0D86BE070E080E02E
:1011E00090E002D990932C0880932B0892D980919B
:1011F0001D08811103C081E080931D08089560E0FF
:1012000070E080E89FE7089560E070E080E89FE785
:10121000089560E070E080E89FEF089560E070E07E
:1012200080E89FEF089560E070E080EC9FEF089504
:1012300060E070E080EC9FEF0895F5DF6093530865
:10124000709354088093550890935608F1DF60938B
:101250004708709348088093490890934A08CFDF65
:1012600060934F08709350088093510890935208F0
:10127000CBDF60934B0870934C0880934D0890939C
:101280004E08C7DF60935708709358088093590839
:1012900090935A08C3DF60935B0870935C08809357
:1012A0005D0890935E080895CF92DF92EF92FF92CF
:1012B000CF936B017C01AC019B0160914F08709151
:1012C000500880915108909152080E94D029C1E0A5
:1012D000882371F0A7019601609157087091580812
:1012E0008091590890915A080E94D0298111C0E03C
:1012F0008C2FCF91FF90EF90DF90CF9008950F93B8
:101300001F938B019C010027112720783F7701153F
:10131000110520483F4749F4AB01BC016F7777279F
:1013200081E0452B462B472B09F480E01F910F915C
:101330000895E5CF4F925F926F927F928F929F9226
:10134000AF92BF92CF92DF92EF92FF920F931F93D3
:10135000F894409058035090590360905A0370904D
:101360005B03C0904C03D0904D03E0904E03F0908F
:101370004F03452B09F0A4C09B01AC01241935098A
:101380004609570929013A01009154031091550368
:10139000209156033091570348015901840C951C44
:1013A000A61CB71C80169106A206B306A0F40091F5
:1013B00050031091510320915203309153030F5F5A
:1013C0001F4F2F4F3F4F0093500310935103209313
:1013D0005203309353038092540390925503A0928A
:1013E0005603B0925703009150031091510320917E
:1013F00052033091530380925C0390925D03A0925C
:101400005E03B0925F030093600310936103209327
:10141000620330936303609358037093590380937E
:101420005A0390935B03A0E1B7E2A30192010E94EB
:1014300034346C0D7D1D8E1D9F1D60934C03709385
:101440004D0380934E0390934F0300911602109129
:10145000170220911802309119020F3F1F4F2F4F92
:101460003F4FF1F0009116021091170220911802DF
:10147000309119020E3F1F4F2F4F3F4F89F0C09000
:101480001602D0901702E0901802F090190221E0A5
:101490008C149D04AE04BF0408F420E0209368037C
:1014A00078941F910F91FF90EF90DF90CF90BF90B5
:1014B000AF909F908F907F906F905F904F90089526
:1014C0004B015C0184189508A608B708A301920196
:1014D000261B370B480B590B6415750586059705B8
:1014E000D0F082169306A406B50640F420E030E062
:1014F000A90181149104A104B10491F4A0E1B7E21F
:101500000E943434A7019601261B370B480B590B58
:10151000CA01B901C5CF82169306A406B50670F7B5
:10152000A0E1B7E2A50194010E9434346C0D7D1D49
:101530008E1D9F1DB5CFFECECF93DF9300D01F929F
:10154000CDB7DEB71C821B821A8219821092640307
:10155000109265031092660310926703BE016F5FDD
:101560007F4FCE0103960E94982769817A818B81F3
:101570009C810E948620009761F4BE016F5F7F4FBF
:10158000CE0103960E94A42769817A818B819C8178
:101590002ED50F900F900F900F90DF91CF9108955F
:1015A000FF920F931F93CF93DF93082F60E070E0BB
:1015B000CB010E94012EFF24F3940E946F1FEC01C7
:1015C000892B89F010E0CE3F8FEFD80769F0002318
:1015D00061F160E070E0CB010E94012E81E090E0BB
:1015E000892B59F322C011E025D5EC01892B21F07C
:1015F000CE3F8FEFD80759F711111EC011E0229688
:1016000009F410E00E941F1FEC01892B21F0CE3F4E
:101610008FEFD807E1F6111111C011E0CE3F8FEF27
:10162000D80709F410E001110BC0CE01DF91CF9172
:101630001F910F91FF90089511E0E4CF11E0F3CFD7
:1016400060E070E0CB010E94012E1F25812F90E009
:10165000C7CFCF93DF9380916803882321F060E0A8
:1016600070E0CB014CD635D6D0E0C0E0892B71F0CC
:101670006AE070E080E090E00E94012E81E090DF5F
:1016800028D62196C03D27E0D20781F727D60E94B1
:10169000DA201092800310927F0310927903109247
:1016A0007A0310927B0310927C03109275031092C0
:1016B00076031092770310927803109271031092C0
:1016C0007203109273031092740310926D031092C0
:1016D0006E0310926F0310927003109269031092C0
:1016E0006A0310926B0310926C034EEF5FEF6FEF83
:1016F0007FEF409316025093170260931802709385
:10170000190210926803ECE5F3E028E0DF011D9276
:101710002A95E9F7109258031092590310925A0330
:1017200010925B03109254031092550310925603CB
:1017300010925703109250031092510310925203CB
:101740001092530310924C0310924D0310924E03CB
:1017500010924F03DF91CF91089510928C03109255
:101760008D0310928E0310928F0310928B03809141
:1017700094039091950390938A0380938903109228
:1017800088031092870310928303109284031092AF
:10179000850310928603109291031092900390E0BB
:1017A00080E00895CF92DF92EF92FF920F931F9304
:1017B000CF938C01892B09F055C02091940330916F
:1017C00095038091890390918A03409194035091ED
:1017D000950350938A03409389032817390781F0B2
:1017E000109288031092870310928303109284034F
:1017F0001092850310928603109291031092900329
:101800008091940390919503019761F580919003E5
:1018100090919103892B21F480911A02811112C0B9
:1018200080919003909191030197E1F4809183035B
:1018300090918403A0918503B09186030197A1053F
:10184000B10581F4109283031092840310928503F2
:101850001092860310921A0282E090E09093910316
:10186000809390038091940390919503019709F0E0
:101870001CC18091AA039091AB038017910709F0D6
:1018800014C18091A6039091A703A091A803B091E1
:10189000A903009709F409C12091A50321110DC0E6
:1018A0004091A6035091A7036091A8037091A903EA
:1018B000452B462B472B09F4F8C02091900330911B
:1018C00091032230310509F0F0C0209187032111E6
:1018D000ECC0FC01C080D180E280F38080918B035A
:1018E000882309F4D3C08091970390919803892BA2
:1018F00009F4FDC0209197033091980381E02230D4
:10190000310509F080E02091970330919803C1E000
:101910002130310549F02091970330919803C1E0BF
:101920002230310509F0C0E0882309F456C0209127
:10193000A1033091A2034091A3035091A403C701D6
:10194000B6010E94582B87FD14C02091A10330914D
:10195000A2034091A3035091A40360918C03709162
:101960008D0380918E0390918F030E94D02987FD73
:1019700022C02091A1033091A2034091A303509172
:10198000A403C701B6010E94582B181634F5209104
:10199000A1033091A2034091A3035091A40360914D
:1019A0008C0370918D0380918E0390918F030E9420
:1019B000D029811112C08091990390919A03A0912E
:1019C0009B03B0919C03892B8A2B8B2B19F481E00C
:1019D0008093880381E080938703CC2309F456C069
:1019E0002091A1033091A2034091A3035091A4033D
:1019F000C701B6010E94D02987FF14C02091A1031E
:101A00003091A2034091A3035091A40360918C03F1
:101A100070918D0380918E0390918F030E94582BBB
:101A200087FF22C02091A1033091A2034091A3031C
:101A30005091A403C701B6010E94D029811126C08C
:101A40002091A1033091A2034091A3035091A403DC
:101A500060918C0370918D0380918E0390918F0320
:101A60000E94582B181694F48091990390919A0330
:101A7000A0919B03B0919C03892B8A2B8B2B19F48B
:101A800081E08093880381E08093870381E09091D7
:101A90008703911180E080938B03C0928C03D092D6
:101AA0008D03E0928E03F0928F03012B09F067C142
:101AB0008091900390919103892BD9F41092960311
:101AC0001092870380911A02882379F082E090E0D7
:101AD000909391038093900310921A0220919403A3
:101AE0003091950381E0232BE9F080E01BC081E079
:101AF0000ACF10921A0280919603882349F010921F
:101B00008803109291031092900310929603EDCFE8
:101B10008091940390919503892BE1F08091870344
:101B20001092870320919003309191032230310568
:101B300009F45EC088F42115310509F448C021304C
:101B4000310509F4F3C010928803109287031092B4
:101B5000960338C081E0E6CF2330310509F4B1C0E7
:101B60002430310581F740918303509184036091C3
:101B7000850370918603411551056105710561F07A
:101B800041505109610971094093830350938403C3
:101B9000609385037093860340918303509184037F
:101BA0006091850370918603452B462B472BD9F412
:101BB00020919203309193032130310509F046C002
:101BC0001092880310929103109290030CC08091A0
:101BD0001A02882341F082E090E090939103809371
:101BE000900310921A021092810380918803CEC054
:101BF0008823C9F38091990390919A03A0919B0344
:101C0000B0919C03181619061A061B060CF07DC02D
:101C10008091940390919503019709F076C080918B
:101C2000990390919A03A0919B03B0919C03809398
:101C3000830390938403A0938503B093860383E08A
:101C400090E09093910380939003CDCF40919D03BA
:101C500050919E0360919F037091A003452B462BEA
:101C6000472BA9F01092880380919D0390919E03C9
:101C7000A0919F03B091A00380938303909384036A
:101C8000A0938503B093860381E090E0DACF8823A8
:101C900099F080911B0290911C02A0911D02B091BD
:101CA0001E028093830390938403A0938503B093D3
:101CB000860384E090E0C5CF1092880382E090E034
:101CC000C0CF8091830390918403A0918503B0914C
:101CD00086030097A105B10559F00197A109B10943
:101CE0008093830390938403A0938503B09386032A
:101CF0008091830390918403A0918503B091860322
:101D0000892B8A2B8B2B09F06ECF80911B0290912F
:101D10001C02A0911D02B0911E02892B8A2B8B2BD5
:101D200009F44ECF81E080938803B3CF40918303C1
:101D3000509184036091850370918603411551058C
:101D40006105710561F041505109610971094093C4
:101D500083035093840360938503709386034091BB
:101D60008303509184036091850370918603452B12
:101D7000462B472B09F037CF8111C7CF9FCF8091DA
:101D80008103882309F431CF80918203CF911F9181
:101D90000F91FF90EF90DF90CF90089510928C03F9
:101DA00010928D0310928E0310928F0310928B036A
:101DB000109291031092900310928A03109289035B
:101DC0001092AB031092AA0310928803109287031B
:101DD000109283031092840310928503109286035D
:101DE00010928203109281031092A6031092A7030F
:101DF0001092A8031092A9031092A5031092A103B8
:101E00001092A2031092A3031092A40388EE93E011
:101E1000A0E0B0E080931B0290931C02A0931D02EF
:101E2000B0931E0210929D0310929E0310929F0386
:101E30001092A0031092990310929A0310929B03A0
:101E400010929C03109298031092970381E0809364
:101E50001A02109296031092950310929403109216
:101E600093031092920390E080E008958091940390
:101E700090919503892B19F580911A02882351F0CE
:101E800080919603811106C081E080938203809344
:101E9000810308952091960330911A0281E090E029
:101EA000332311F090E080E030E082239323892BEC
:101EB00021F01092820381E0EACF1092810308950D
:101EC00082E090E0FA01918380838FEF9FEF089585
:101ED000CF93DF93EA01009711F00E94FA21198253
:101EE000188290E080E0DF91CF910895DB010097A8
:101EF00019F48FEF8C9308952EEF2C93FC013F96ED
:101F0000EF30F10508F034C08827E657F04F8F4FC7
:101F10000C941D34B60FB40FB20FB00FAE0FAA0F52
:101F2000AC0FA80FA60FA40FA10F9D0F990F9F0F25
:101F3000B80F80E311968C93089589E2FBCF82E27B
:101F4000F9CF11961C92089583E2F4CF81E2F2CF8B
:101F500081E1F0CF87E2EECF8AE2ECCF80E1EACFF9
:101F600084E2E8CF88E2E6CF86E2E4CF81E3E2CF05
:101F700080E2E0CF8091B8039091B90308959093E7
:101F8000B9038093B80308958091B70308959091A1
:101F9000B703892B8093B7030895982F909580916C
:101FA000B70389238093B70308958091B6030895FA
:101FB0008091B4039091B50308956115710559F0AE
:101FC000FB0130E020E070E060E02417350719F0F5
:101FD0006115710511F0CB010895A081B181A81799
:101FE000B90709F4BF012F5F3F4F3696EECF8091BE
:101FF000BA0381111CC060D266D29093AD03809366
:10200000AC030E94F8190E940A1A9093B1038093BE
:10201000B0030E94871E0E948E1E9093AF03809390
:10202000AE0381E08093BA0390E080E0089584EFEE
:102030009FEF08958F929F92AF92BF92CF92DF92BF
:10204000EF92FF920F931F93CF93DF9300D000D0B6
:1020500000D01F92CDB7DEB71A86198618861F8268
:102060001E821D821C821B821A8219828091BA03F1
:1020700007EF1FEF882309F49CC08E010D5F1F4FEF
:102080009E012B5F3F4FAE01495F5F4FBE01675F0F
:102090007F4F90E080E00E940B208C01009721F0A0
:1020A0000596029708F0DBC029853A852115310590
:1020B00009F402C1ED80FE804B815C81B701640FA1
:1020C000751F8F8198858617970708F4F5C0E20E73
:1020D000F31ED7019C91903C09F07FC0423051051E
:1020E00008F47BC011968C914091B8035091B903CC
:1020F000452B09F49CC0913F08F071C02CE1290FD9
:102100002D3008F48BC02DE2290F203108F489C04E
:10211000903C21F48150823008F483C088E3890F19
:102120008B3008F481C096E7C92E9FE0D92EE0E6F7
:10213000FFE06D817E81AE014F5F5F4F89859A859B
:1021400019955C01C114D104A1F189809A80811490
:10215000910479F18B819C818815990508F487C0D9
:1021600010E000E04B815C8170E060E0C7010E94FC
:10217000473401151105E9F449815A8169857A8549
:102180008D819E81680F791FC501F6011995E9803F
:10219000FA800D811E812F81388549855A856FEF20
:1021A0007FEF81E090E00E94A61F8C01892B09F04F
:1021B00056C0C8012A960FB6F894DEBF0FBECDBF39
:1021C000DF91CF911F910F91FF90EF90DF90CF9013
:1021D000BF90AF909F908F90089580E085CF30E0C2
:1021E00020E0220F331FF901E455FC4F0190F081EC
:1021F000E02D309709F497CF892F90E0199500973B
:1022000009F491CFDC011296ED91FC91139714968D
:10221000CD90DC90309709F08CCF1FC021E030E0EA
:10222000E0CF22E030E0DDCF23E030E0DACFD12C88
:10223000C12CE8E6FFE09F3F09F07BCFE091AC03C3
:10224000F091AD03309721F4C90104EF1FEF0CC0EA
:102250008FEF90E019950097A9F604EF1FEF89859D
:102260009A85009709F4A5CF0E94FA21A2CF0E9477
:10227000D5208C0189859A850E94FA2170E060E062
:10228000C4010E946E2098878F830E94A31F9E83A3
:102290008D836F8178856115710559F0C8010E94A1
:1022A00086239A87898706EF1FEF892B09F058CF7D
:1022B00059CF08EF1FEF56CF08EF1FEFD0CF209177
:1022C000BA03222319F020E00C940F1A87EF9FEF36
:1022D00008958091B8039091B90308950E94931EC8
:1022E0000E94ED1DF5D0ECEAF3E088E0DF011D92DD
:1022F0008A95E9F71092BA0390E080E008950C9473
:102300004B1C21E040E050E0BA010C940F1A86E02B
:1023100090E0FA019183808390E080E0089547E0A7
:1023200050E063E572E049CEDF92EF92FF920F93A7
:102330001F93CF93DF938A01EC01C60FD71FE09064
:10234000BE03F090BF03D9800E94BD20D8161906A5
:1023500078F082E090E0F801918380838EEF9FEF28
:10236000DF91CF911F910F91FF90EF90DF90089533
:10237000EF2841F482E090E0F8019183808384EFBC
:102380009FEFEECF89818093BD0390E00196F80125
:102390009183808390E080E0E3CFCF93DF93EA01E5
:1023A0000E94FC1C882321F00E94CA200E94FD1C70
:1023B00082E090E0998388838BEF9FEFDF91CF914C
:1023C0000895CF93DF93EB0186E0FB0111928A958C
:1023D000E9F78FEF8883D8DD8983E7DD8A83E8DD3D
:1023E0009D838C83DF91CF910895CF93DF93EA0192
:1023F0000E94FF1C811109C082E090E099838883CC
:1024000085EF9FEFDF91CF91089590E080E0B7DDF9
:1024100081E090E09983888390E080E0F3CF0F9390
:102420001F93CF93DF93EA018C01060F171F0E94C1
:10243000FF1C81110BC082E090E09983888385EFB7
:102440009FEFDF91CF911F910F910895F801818146
:10245000823038F082E090E0998388838EEF9FEF9E
:10246000F0CF81E090E08BDD88E090E09983888375
:1024700090E080E0E6CFCF93DF930097D1F4EB01BB
:10248000FB01329686E0DF011D928A95E9F78FEF16
:10249000888385E089831A820E94BD208B830E94F5
:1024A000BC209D838C8381E08E838F83DF91CF91CD
:1024B0000895DF91CF911ACD8FE891E19093BC03FD
:1024C0008093BB0308958091BB039091BC03089552
:1024D0001092BC031092BB0308958091BE039091AB
:1024E000BF030895411105C061157105810591056E
:1024F00061F06093BE037093BF038093C003909319
:10250000C1034093C20381E0089580E00895FF92E3
:102510000F931F93CF93DF938A01EC01C60FD71F50
:10252000F9800E94BD20F816190668F082E090E05C
:10253000F801918380838EEF9FEFDF91CF911F9100
:102540000F91FF9008956C817D818E819F814B81D9
:10255000C9DF811108C082E090E0F8019183808397
:1025600084EF9FEFEACF89818093BD0390E00196CD
:10257000F8019183808390E080E0DFCFCF93DF93F9
:10258000EA01FC01E60FF71F64817581868197815E
:102590004381A8DF811109C082E090E0998388839C
:1025A00084EF9FEFDF91CF91089581E090E09983D0
:1025B000888390E080E0F6CFEEEBF3E0408151813C
:1025C00062817381480F511D611D711D40835183CC
:1025D000628373830895CF93C091BD034C2F50E065
:1025E0006091BE037091BF0301960E943E348C2F10
:1025F000E3DF1092BD03CF910895009799F4809185
:10260000BE039091BF032FEFFB012083892B59F06C
:102610002091BD0330E02F5F3F4F2417350719F499
:10262000CB01D9CF63CC0895009799F48091BE0374
:102630009091BF032FEFFB012083892B59F020914C
:10264000BD0330E02F5F3F4F2417350719F4CB014E
:10265000C2CF4CCC089523E1AC01249FC001259F3B
:10266000900D1124E091C703F091C803E80FF91F02
:10267000238134812250310981E02230310508F074
:1026800080E008950F931F93CF93DF930091C903C8
:102690001091CA03D0E0C0E080E00C171D0749F498
:1026A00091E0811190E0892FDF91CF911F910F91DF
:1026B00008958111F5CFCE01CEDF2196EECFA09106
:1026C000C703B091C803109729F12091C903309135
:1026D000CA0382179307F0F453E1589F9001599F62
:1026E000300D1124A20FB31FED91FC91119730977B
:1026F00089F012968C91681768F48DE0689FE00D60
:10270000F11D112480819181892B21F081E092813A
:10271000491708F080E008959C0143E1429FC00101
:10272000439F900D1124E091C703F091C803E80F77
:10273000F91F8385823091F481E090E06581768194
:1027400040911F02509120026417750711F490E028
:1027500080E0892B19F081E0232B09F080E00895B7
:10276000FC01A081B1818DE0689FA00DB11D1124F5
:1027700013964D915C9185859685489F9001499F60
:10278000300D589F300D1124C9010196611103C00D
:10279000478144FD04960895EF92FF920F931F9393
:1027A000CF93DF93EA01FC01E60FF71F028113814B
:1027B000E480F5804F2D6E2DC80181DF81110DC0A1
:1027C00082E090E0998388838EEF9FEFDF91CF9135
:1027D0001F910F91FF90EF900895C8013CDF88236F
:1027E00039F082E090E09983888388EF9FEFEECF05
:1027F0001093260200932502E0922702F09228020D
:1028000081E090E09983888390E080E0DFCFCF92F1
:10281000DF92EF92FF920F931F93CF93DF937A0192
:10282000EC01C60FD71FC0902502D0902602009160
:10283000270210912802412F602FC60140DF81112D
:1028400010C082E090E0F701918380838AEF9FEFD0
:10285000DF91CF911F910F91FF90EF90DF90CF907C
:102860000895C601F8DE882341F082E090E0F70188
:102870009183808388EF9FEFEBCF4C815D816E81E8
:102880007F819A8189818F3F41F082E090E0F7015A
:10289000918380838EEF9FEFDBCFE3E1EC9D90018E
:1028A000ED9D300D1124E091C703F091C803E20FB4
:1028B000F31F0190F081E02D2DE0029FE00DF11D4E
:1028C00011240190F081E02D27E0129FE00DF11D11
:1028D0001124808391838B81828343835483658316
:1028E00076831F5F1093280281E090E0F7019183C7
:1028F000808390E080E0ACCFEF92FF920F931F9324
:10290000CF93DF937A018C01060F171FC091C70385
:10291000D091C803209781F021E030E0F801828156
:1029200093814091C9035091CA038417950710F011
:1029300030E020E0232B71F482E090E0F7019183F6
:1029400080838EEF9FEFDF91CF911F910F91FF90CA
:10295000EF90089543E1489F9001499F300D112465
:10296000C20FD31F78DE882341F082E090E0F701A8
:102970009183808388EF9FEFE6CFF8012481358132
:1029800020383105C8F687818111D6CF4181842F47
:1029900090E08F7E009741F082E090E0F701918314
:1029A000808386EF9FEFCFCF4F833E832D83268199
:1029B00028871986223010F421E0288721E030E0B2
:1029C000F70131832083BFCF88E090E0FA01918343
:1029D000808390E080E00895FB018FEF808381E1A8
:1029E00081838FEF9FEF9383828380E890E09583CC
:1029F0008483168217820895FB018FEF808391E014
:102A0000918382839383848384E3858381E090E050
:102A1000978386830895DF92EF92FF920F931F931F
:102A2000CF93DF93EA01FC01E60FF71F818181302C
:102A300071F082E090E0998388838FEF9FEFDF91C0
:102A4000CF911F910F91FF90EF90DF9008958281B9
:102A50009381D4802581E680F7800091C70310918F
:102A6000C8030115110539F482E090E09983888349
:102A70008CEF9FEFE4CF4091C9035091CA038417B4
:102A8000950738F082E090E0998388838EEF9FEF7E
:102A9000D6CF892B39F082E090E09983888386EF46
:102AA0009FEFCDCF8D2D8D7FB1F72130A1F781E044
:102AB000D11006C091E0E916F10431F080E004C0C5
:102AC000E2E0EE16F104D0F3882329F390E080E0F1
:102AD000C2DD882339F082E090E09983888388EF13
:102AE0009FEFADCFF801D38681E08487F686E58637
:102AF000108A178681E090E09983888390E080E0D7
:102B00009ECF4CE050E06DE772E057CA8F929F92E3
:102B1000BF92CF92DF92EF92FF920F931F93CF93CA
:102B2000DF93EA01FC01E60FF71F828193810481A4
:102B3000B580E091C703F091C803309791F482E02B
:102B400090E0998388838CEF9FEFDF91CF911F9165
:102B50000F91FF90EF90DF90CF90BF909F908F905C
:102B600008952091C9033091CA038217930738F062
:102B700082E090E0998388838EEF9FEFE6CF23E198
:102B8000289F6001299FD00C1124EC0DFD1DE080D1
:102B9000F180E114F10499F28281081748F78DE081
:102BA000089F80011124E00EF11EF70180819181C0
:102BB000892B29F6BB20E1F2F7E0BF9E40011124EA
:102BC000C4010E94C121F70191838083E091C70372
:102BD000F091C803EC0DFD1D0190F081E02DE00F98
:102BE000F11F80819181009739F482E090E0998310
:102BF00088838DEF9FEFA9CFA40170E060E00E9471
:102C000047348091C7039091C803C80ED91EF601BE
:102C100080819181080F191FF801B28281E090E054
:102C20009983888390E080E090CFAF92BF92CF925B
:102C3000DF92FF920F931F93CF93DF93EA01FC0182
:102C4000E60FF71F82819381F4800091C7031091F2
:102C5000C8030115110581F482E090E0998388830F
:102C60008CEF9FEFDF91CF911F910F91FF90DF903D
:102C7000CF90BF90AF9008952091C9033091CA03BF
:102C80008217930738F082E090E0998388838EEF73
:102C90009FEFE8CF2FEF2F0D2C3FA8F723E1289FC0
:102CA0006001299FD00C11240C0D1D1DF80180819D
:102CB0009181892B89F6FDE0FF9E50011124C50109
:102CC0000E94C121F80191838083E091C703F091B4
:102CD000C803EC0DFD1D80819181009739F482E0DD
:102CE00090E0998388838DEF9FEFBCCFA50170E0C2
:102CF00060E00E944734E091C703F091C803EC0DF7
:102D0000FD1DF28281E090E09983888390E080E06D
:102D1000A9CFCF92DF92EF92FF920F931F93CF93A1
:102D2000DF93860F971FFC01028113818091C703F7
:102D30009091C803892B81F082E090E0FA019183A1
:102D400080838CEF9FEFDF91CF911F910F91FF90C8
:102D5000EF90DF90CF900895C801B0E0A0E0019718
:102D6000A109B1098F3F9F4FA105B10540F082E055
:102D700090E0FA01918380838EEF9FEFE4CF7A0198
:102D800083E1809F6001819FD00C1124C6010E94C5
:102D9000C121EC01009741F482E090E0F7019183BA
:102DA00080838DEF9FEFCFCFA60170E060E00E949F
:102DB0004734D093C803C093C7031093CA0300934A
:102DC000C90390E080E02FEF3FEF41E061E070E069
:102DD0008017910741F481E090E0F70191838083AF
:102DE00090E080E0B0CF3A8B298B1B864C877E87A2
:102DF0006D87188A1F8601966396EACFEF92FF923D
:102E00001F93CF93DF93EC0110E0F12CE12C6A814A
:102E10001617B0F083E0689FB0011124AE014F5E39
:102E20005F4FC7010E942622009721F02FEF3FEF4E
:102E30003A8B298BDF91CF911F91FF90EF900895EE
:102E4000612FCE018DDC61E070E00E946E20E816FB
:102E5000F90608F47C011F5FDACFF8942091C503CE
:102E60003091C60381E02115310509F080E0232B64
:102E700009F0789408952F923F924F925F926F924B
:102E80007F928F929F92AF92BF92CF92DF92EF92FA
:102E9000FF920F931F93CF93DF933C01660E771E33
:102EA000F301828193814C01B12CA12CC091C70305
:102EB000D091C803209769F021E030E06091C90308
:102EC0007091CA038617970710F030E020E0232B9B
:102ED000D1F482E090E0FA01918380838EEF9FEF3E
:102EE000DF91CF911F910F91FF90EF90DF90CF90E6
:102EF000BF90AF909F908F907F906F905F904F901A
:102F00003F902F9008958092290290922A02A092D9
:102F10002B02B0922C0263E1689F9001699F300DF3
:102F20001124C20FD31FF3018181833040F082E06E
:102F300090E0FA019183808386EF9FEFD1CF2A0141
:102F40002B813C81232BF1F4288139819F8191FFD2
:102F50002EC0232B09F46FC02091CC039A81422FFD
:102F6000490F5527551FBA0141E050E061387105FE
:102F700014F050E040E0452B09F45DC02A87920F21
:102F80009093CC038150823008F481C066DF88239F
:102F900009F4D8C0F3018181813009F48DC008F4AF
:102FA0007BC0823009F4C6C090E080E0ADC0232B26
:102FB00009F441C02091CB039A81E22FE90FFF274A
:102FC000FF1F41E050E0ED3FF10514F050E040E01C
:102FD000452B89F12A87920F9093CB03D3CFA08101
:102FE000B181A20FB31F11966C91060F111D0196AE
:102FF000295F3F4F8417950794F38D859E85089F21
:103000001001099F300C189F300C1124C114D104F9
:10301000D1F48F8184FF17C00E94BC20F5E02F0EF1
:10302000311C21E08215930508F420E0A701435FDD
:103030005F4F21110EC082E090E0F2019183808306
:1030400087EF9FEF4DCF0E94BC202FEF221A320A4C
:10305000E8CF88819981E80EF91EF7011483038374
:10306000FFEFCF1ADF0A7A018A818C151D0409F05F
:103070000CF48CCFE881F981EE0DFF1D428150E008
:1030800030E020E010E000E090E080E0B3CFF12CF1
:10309000E12CD12CC12CE8CF81E090E09C838B8384
:1030A000F1DA882309F480CF81E090E00E94BF0F1D
:1030B00080E40E94CD0F78CF89899A89019661F0CA
:1030C00083E090E09C838B8382E090E00E94BF0FBE
:1030D00080E40E94C70F68CF8D819E8120911F02DE
:1030E0003091200282179307D1F4609123027091EE
:1030F0002402AE014F5E5F4F809121029091220227
:103100000E9445230097E1F2789422E030E0F2013A
:1031100031832083892B99F08DEF9FEFE1CE8928B1
:103120008A288B2869F6029758F6CE0167DE188A3E
:103130001F86E8CF82E090E09C838B8335CF90E0C0
:1031400080E0CECE82E090E0F2019183808385EF33
:103150009FEFC6CE8F929F92AF92BF92CF92DF9297
:10316000EF92FF920F931F93CF93DF93EA018C01AD
:10317000060F171FF8018181833098F082E090E0FC
:103180009983888386EF9FEFDF91CF911F910F91F5
:10319000FF90EF90DF90CF90BF90AF909F908F9077
:1031A00008958091C7039091C803892B61F081E055
:1031B00090E02091C9033091CA03232B11F490E0D1
:1031C00080E0892B39F482E090E0998388838EEF48
:1031D0009FEFDACF42DE882309F4E0C0F801818155
:1031E000813009F496C0E8F0823099F42091C90347
:1031F0003091CA03E091C703F091C80390E080E0EA
:1032000041E050E02817390709F0BEC03BDA8111D0
:1032100017C0789481E090E09983888390E080E003
:10322000B3CF2091C9033091CA03E091C703F09155
:10323000C80390E080E041E050E02817390741F4EE
:1032400081E090E00E94BF0F80E40E94CD0FE1CFAB
:1032500063817481672B11F05483438301967396C5
:10326000ECCFE091C703F091C803E00FF11F238179
:10327000348122303105D9F4218932892F3F3F4FE3
:10328000B1F42581368140911F025091200224170C
:10329000350761F5AF014F5E5F4F6091230270917A
:1032A000240280912102909122020E944523EFEF97
:1032B000CE1ADE0AEE0AFE0A0D5E1F4F4091C903C8
:1032C0005091CA0370E060E0C416D506E606F70622
:1032D00044F5009731F27894892B09F49BCF82E072
:1032E00090E0998388838DEF9FEF4ECFC114D10476
:1032F000E104F104E1F622303105C8F6CF017EDDAC
:10330000E091C703F091C803E00FF11F108A178600
:10331000CECF10E000E090E080E0C12CD12C76010F
:10332000CDCF0097C1F610E000E0812C912C540124
:1033300083E0E82EF12C1AC0E091C703F091C80396
:10334000E00FF11F83819481029749F4F482E382B4
:1033500082E090E00E94BF0F80E40E94C70FFFEF61
:103360008F1A9F0AAF0ABF0A0D5E1F4F8091C903D3
:103370009091CA03B0E0A0E088169906AA06BB06A1
:10338000DCF290E080E0A7CF638174816230710548
:1033900011F4548343830196739634CF82E090E016
:1033A0009983888385EF9FEFEFCE0097B9F48FEF75
:1033B000FB0180832091290230912A0243E1429F40
:1033C000C001439F900D1124E091C703F091C80301
:1033D000E80FF91F8285FB01818308950C94760F15
:1033E00088E090E0FA019183808390E080E0089586
:1033F0001092C6031092C503E7ECF3E086E0DF010C
:103400001D928A95E9F781E895E19093C403809332
:10341000C30308958091C3039091C40308952F922C
:103420003F924F925F926F927F928F929F92AF9254
:10343000BF92CF92DF92EF92FF920F931F93CF93A1
:10344000DF93CDB7DEB72F970FB6F894DEBF0FBE70
:10345000CDBFF894E091C503F091C6033196F09387
:10346000C603E093C50378944090C7035090C80307
:103470004114510409F40CC2E091C903F091CA034C
:10348000EF2B09F405C22D8749875A876B877C8704
:1034900098878F831201B12CA12C10E000E080915D
:1034A000C9039091CA03A816B90618F401151105AD
:1034B00029F1F8948091C5039091C60301979093E8
:1034C000C6038093C5037894C8012F960FB6F8946D
:1034D000DEBF0FBECDBFDF91CF911F910F91FF9047
:1034E000EF90DF90CF90BF90AF909F908F907F90A4
:1034F0006F905F904F903F902F9008957101E41866
:10350000F508D10117968C91179781FD54C0139639
:103510008D919C911497039709F04DC015968D914C
:103520009C91EF81F8858E179F0709F044C0B50183
:1035300090E080E07FD48A832091C7033091C80354
:103540003D832C833D85332309F44CC04C815D8140
:10355000452B09F49AC18091C9039091CA03A8161A
:10356000B90608F092C1C501D7D88823E9F06C816B
:103570007D816E0D7F1D7D836C83DB011F968D9198
:103580009C91892B89F0D12CC12CF12CE12CAC81A0
:10359000BD8112968C9112978E151F0409F094F438
:1035A00050961C921E921F972A81222321F0B5016A
:1035B00090E080E041D43FEFA31AB30A43E1240E28
:1035C000311C6DCFAC81BD81ED91FC91EC0DFD1DE9
:1035D000858196810FD7BFEFEB1AFB0AEDE0CE0E87
:1035E000D11CD5CFEC81FD81309709F44EC180917B
:1035F000C9039091CA03A816B90608F046C1EE0D9A
:10360000FF1DFF87EE87C50187D88B83882339F19B
:10361000AE85BF851F968D919C915097019621E0B4
:103620001D964D915C918417950709F020E02E833B
:103630001982712C10E000E0AE85BF8512968C9146
:10364000781608F45DC0EE85FF8587859089019620
:10365000658576850E94E733908B8787A5CFB1E09B
:10366000BE83E6CF992493946BC08BD6F6019683E4
:10367000858382C0D601ED90FC90B7E06B9EE00C94
:10368000F11C1124F7016381748180818F3F61F106
:1036900021E030E002C0220F331F8A95E2F7C90112
:1036A000092E000CAA0BBB0BFB01408151816281EA
:1036B000738184239523A623B72321E0892B8A2BAA
:1036C0008B2B09F420E0D4012C93D70111968C9117
:1036D000F60123853485820F932F911D880E991E44
:1036E0001486138663949BC0418150E0C4010E94FC
:1036F0003E34EBCF998206EF1FEFC5C01982C3C0DD
:10370000F981F111A0CFEDE07E9E70011124AE850C
:10371000BF85CD90DC90CE0CDF1C15D49D838C83AF
:10372000BB81BB2309F49ECF81E0EE85FF85278511
:103730003089232B09F080E0982E882309F458C0A3
:10374000672D8E859F850CD8D60118969C938E93F5
:10375000179761E070E0C2D4EE85FF852189328938
:103760002F3F320709F481CFBC01C901CFD7D60161
:1037700016969C938E931597D60115968D919C91D4
:103780001697009709F4B6CFEC81FD818E0F9F1F2D
:103790001A969C938E931997AE85BF85ED91FC91F7
:1037A0001197EE0EFF1EF7012185328514861386D0
:1037B0001A968C91870DD9018D93711016C0EE85E4
:1037C000FF85878184FF11C049855A856B857C857B
:1037D000F9014183528363837483F7018385948560
:1037E0000496A80FB91F14861386F701B287A18724
:1037F000D60115968D919C911697892B09F443C09B
:10380000EE85FF852581368180911F0290912002EF
:103810002817390779F019968D909C90612CD60164
:1038200012968C911297681608F424CF1A969C92DF
:103830008E921997BE81BB2309F460CF61E070E0DE
:10384000F601878190854AD4D6011796ED90FC90B9
:10385000189715964D915C91E1E0F0E0BA81BB2399
:1038600011F0F0E0E0E00C811D819C01B50188279A
:1038700099278E1B9F0B6AD38C01892B21F0F601AF
:1038800085819681B7D57394D7CE0FEF1FEF8CCE7D
:1038900010E000E00ECE2F923F924F925F926F9217
:1038A0007F928F929F92AF92BF92CF92DF92EF92D0
:1038B000FF920F931F93CF93DF938091C703909153
:1038C000C80310E000E0892BA9F0C7DA0AEF1FEF68
:1038D000882381F02090C9033090CA03C091C703A8
:1038E000D091C803D12CC12C10E000E02C143D0471
:1038F000A9F47894C801DF91CF911F910F91FF90A7
:10390000EF90DF90CF90BF90AF909F908F907F907F
:103910006F905F904F903F902F900895C6010E9446
:103920008C13882309F18B819C810397E9F48F859F
:103930009889892BC9F0B60190E080E07BD221E024
:1039400030E0882311F030E020E044245524421A6E
:10395000530AB12CA12C912C812C8A818815190431
:1039600009F038F4188A1F864FEFC41AD40A6396F8
:10397000BDCFE881F981EA0DFB1D85819681892BF8
:10398000A1F161E070E087819085A8D33C01DBD292
:103990008C01E881F981EA0DFB1D818592852581E5
:1039A0003681200F311FAC01421B530B9A01478116
:1039B0005085421B530B70E060E00E944734E88161
:1039C000F981EA0DFB1DE780F08445815681930162
:1039D000B601C201BBD28C01892B39F0E881F98193
:1039E000EA0DFB1D8581968105D55FEF851A950A45
:1039F0008DE0A80EB11CB1CF30CA789408952F92F3
:103A00003F924F925F926F927F929F92AF92BF923E
:103A1000CF92DF92EF92FF920F931F93CF93DF939A
:103A200000D000D0CDB7DEB70091C7031091C80316
:103A3000992493940115110509F43EC0A090C9037F
:103A4000B090CA030ADA982E8823B1F11092C80305
:103A50001092C7031092CA031092C9031092CB03AD
:103A60001092CC038FEF9FEFDC018093290290939B
:103A70002A02A0932B02B0932C0278947FD31E834A
:103A80000D83C12CD12C7601C501B0E0A0E0898363
:103A90009A83AB83BC8322242A94322C89819A8115
:103AA000AB81BC81C816D906EA06FB06F4F0C80152
:103AB000A1D480E40E94CD0F892D26960FB6F894EC
:103AC000DEBF0FBECDBFDF91CF911F910F91FF9051
:103AD000EF90DF90CF90BF90AF909F907F906F90CE
:103AE0005F904F903F902F900895AD81BE811596C5
:103AF0008D919C91169720911F0230912002821780
:103B00009307D1F451968D919C91EED5ED81FE8174
:103B100080819181B12CA12C412C512C3201892B17
:103B200089F5BFEFCB1ADB0AEB0AFB0AED81FE81B8
:103B30007396FE83ED83B2CFC114D104E104F10486
:103B400029F7029718F7ED81FE81818992898F3FCD
:103B5000980709F029D5AD81BE8152963C922E92EC
:103B60005197D4CF8A0D9B1DDC018D919C910097BC
:103B700009F040D4BFEF4B1A5B0A6B0A7B0AEDE0F9
:103B8000AE0EB11CAD81BE818D919C9111971296A4
:103B90004C9150E070E060E04416550666067706EA
:103BA0000CF328D4BECFCF93DF93EA0128DF811135
:103BB00009C082E090E09983888385EF9FEFDF91D1
:103BC000CF91089581E090E00E94BF0F81E090E0E6
:103BD0009983888390E080E0F2CF11DF1092C403D4
:103BE0001092C303089542E050E065EC72E00C943B
:103BF000DD0FFF920F931F93CF93DF938A01EC01A8
:103C0000C60FD71FF980B9D20897F816190671F0B8
:103C100068F082E090E0F801918380838EEF9FEF5F
:103C2000DF91CF911F910F91FF9008956C817D815D
:103C30008E819F814B810E947212811108C082E0A7
:103C400090E0F8019183808384EF9FEFE9CFF980C2
:103C50000E946D124F2D50E0BE01685F7F4F0E94A1
:103C60003E3489810E94DC1281E090E0F80191836A
:103C7000808390E080E0D4CFDF92EF92FF920F93A9
:103C80001F93CF93DF938A01EC01C60FD71F0E94C9
:103C90006D127C01D98071D2DD2059F0029721E0AC
:103CA00030E0D816190619F010F030E020E0232B90
:103CB00079F482E090E0F801918380838EEF9FEFAA
:103CC000DF91CF911F910F91FF90EF90DF900895BA
:103CD000EF2841F482E090E0F8019183808384EF43
:103CE0009FEFEECFF9800E946D124F2D50E0BE0184
:103CF0006E5F7F4F0E943E3489810E94DC1281E01A
:103D000090E0F8019183808390E080E0D9CF83EF49
:103D10009DE19093CE038093CD0308958091CD03D0
:103D20009091CE0308950895FC011182108293832F
:103D300082830895DB011D921C92DC011296ED91A5
:103D4000FC9113977183608313967C936E93129703
:103D50000895FC0180819181DB018D939C93A0816A
:103D6000B181109741F08D919C9191838083892B33
:103D700011F4F383E2830895FC0180819181DB01DA
:103D80008D939C93892B11F4738362837183608379
:103D90000895FC0111821082938382830895CF934A
:103DA000DF931F921F92CDB7DEB71A821982F89463
:103DB000BE016F5F7F4F84ED93E0CBDF89819A81F5
:103DC000009709F017D389819A81892B89F7BE0161
:103DD0006F5F7F4F88ED93E0BCDF89819A81009708
:103DE00009F008D389819A81892B89F778940F90FB
:103DF0000F90DF91CF910895CF93DF931F921F9281
:103E0000CDB7DEB71A821982F894BE016F5F7F4F7B
:103E100080ED93E09EDF89819A81009709F0EAD2D4
:103E200089819A81892B89F778940F900F90DF917F
:103E3000CF91089581E0089590E080E00895EF9299
:103E4000FF920F931F93CF93DF931F921F92CDB7D3
:103E5000DEB71A8219828091CF0307EF1FEF882304
:103E6000A1F1F894BE016F5F7F4F88ED93E071DFA1
:103E7000789489819A81EE24E394F12C892B51F472
:103E8000F894BE016F5F7F4F84ED93E062DF78941A
:103E9000F12CE12C89819A810EEF1FEF0097A9F098
:103EA000FC014281538164E070E076D68C01892B5D
:103EB00061F0F89469817A81C701880F991F880F92
:103EC000991F8C529C4F58DF7894C8010F900F9027
:103ED000DF91CF911F910F91FF90EF9008950F9375
:103EE0001F93CF93DF9300D01F92CDB7DEB71C8214
:103EF0001B821A8219828091CF0307EF1FEF88235C
:103F0000C1F0AE014D5F5F4F64E070E0CE010196FD
:103F1000B6D68C01892B69F4E981FA818B819C8169
:103F200093838283F89469817A8180ED93E002DF44
:103F30007894C8010F900F900F900F90DF91CF9160
:103F40001F910F910895BBD7049608958F929F9269
:103F5000AF92BF92CF92DF92EF92FF920F931F9397
:103F6000CF93DF931F921F92CDB7DEB71A821982CB
:103F7000BC016F5F7F4F6330710598F0AA24AA944B
:103F8000BA2CC5010F900F90DF91CF911F910F9127
:103F9000FF90EF90DF90CF90BF90AF909F908F9069
:103FA00008954115510551F3480159018A016C01E9
:103FB000CADF8815990511F7E114F104F9F28E0DA5
:103FC0009F1DA816B906D0F28091CF038823F1F087
:103FD000F894B501645071099701AE014F5F5F4FCE
:103FE000C8010496E1D65C01892B71F489819A811C
:103FF000F80193838283C601880F991F880F991F48
:10400000B8018C529C4F96DE7894BBCF87EFA82ED8
:10401000BB24BA94B6CFAF92BF92CF92DF92EF9209
:10402000FF920F931F93CF93DF931F921F92CDB7F1
:10403000DEB71A821982892B09F047C06115710514
:1040400009F443C04115510509F43FC0211531055C
:1040500009F43BC001151105C1F18091CF038823FC
:10406000B9F179016A015B01F894BE016F5F7F4F7E
:1040700080ED93E06EDE789489819A81009759F102
:10408000DC0112966D917C91A8010496A6D68C0154
:10409000E981FA81D501ED93FC93828193810496A5
:1040A000F601918380834FDFD7018D939C93C801E4
:1040B0000F900F90DF91CF911F910F91FF90EF9094
:1040C000DF90CF90BF90AF9008950FEF1FEFEFCF2D
:1040D00007EF1FEFECCF0EEF1FEFE9CFCF93DF938A
:1040E000EC01672B71F4F4D68C179D0760F0E7D6CE
:1040F0002496C80FD91FE6D68C0F9D1FDF91CF9154
:104100000895E3D6F1CF90E080E0F8CF0F931F93AE
:10411000CF93DF932091CF0321112BC08B01EC01B2
:1041200084ED93E001DE88ED93E0FEDD80ED93E029
:10413000FBDD97D00097C1F4CBD670E060E0CEDF16
:104140004DE252E062E070E081D1009769F4809125
:104150002D0290912E02CED6B801CE0103D5009744
:1041600019F421E02093CF03DF91CF911F910F919C
:10417000089584EF9FEFF8CFA8C6AAC6CF93DF9328
:10418000AAD6EC01892B11F40ADE36DECE01DF91CE
:10419000CF910895CF93DF939ED6EC01892B09F43C
:1041A000FEDDCE01DF91CF91089580912D02909197
:1041B0002E020895CF93DF938091CF03D0E0C0E02B
:1041C0008823D1F09CD6EC01892BB1F4E8DD14DE14
:1041D00080912D0290912E02E7D1E8D2EC01892B3B
:1041E00059F484ED93E0D5DD88ED93E0D2DD80EDE8
:1041F00093E0CFDD1092CF03CE01DF91CF910895F0
:10420000EF92FF920F931F93CF93DF93EC017A010C
:104210008B010F5F1F4F0E9DA0010F9D500D1E9D26
:10422000500D112470E060E00E94473490E080E07F
:10423000F0E0E0E02FEFE816F90639F4DF91CF91D6
:104240001F910F91FF90EF9008951A821982288391
:10425000309711F0D283C1830196FE01C00FD11FA8
:10426000EACFCF92DF92EF92FF920F931F93CF93FB
:10427000DF9307EE14E00C7F43E050E06FE272E062
:1042800085E392E01CD48FE2E82E82E0F82E95E3DD
:10429000C92E92E0D92EC6E5D5E0D7014D915D91AA
:1042A0007D01F601619171916F01198308835D832E
:1042B0004C835B834A837F836E839B012F5F3F4FD9
:1042C000249FC001259F900D349F900D1124998744
:1042D00088870115110511F0C80192DF888599853D
:1042E000080F191F2A96F5E3EF16F2E0FF06A9F66C
:1042F000EEEDF3E086E091E0DF019C011D9221509C
:104300003040E1F71092DD031092DC031092750546
:104310001092740510927905109278051092770525
:104320001092760510927B0510927A0510927D0509
:1043300010927C0510927F0510927E0510928305E5
:1043400010928205109281051092800510928505C9
:1043500010928405109287051092860510925305DD
:1043600010925205109255051092540590E080E08D
:10437000DF91CF911F910F91FF90EF90DF90CF9041
:1043800008950097F1F0F894A5E3B2E0E6E5F5E0D2
:1043900030E020E04D915D9148175907A8F0428127
:1043A00053814115510581F08AE0829FF001839F7E
:1043B000F00D1124EA5AFA4F80819181009759F447
:1043C000789490E080E008952F5F3F4F3A96233035
:1043D000310501F7F5CFDC0111966D917C91718368
:1043E00060834150510953834283FC012193CF01E3
:1043F00078940895009749F1DC018E91853041F45D
:10440000E0915405F09155053097F9F0CD011994DC
:104410008530D8F4282F30E0F8948FEF8C938AE021
:10442000829FF001839FF00D1124EA5AFA4F808198
:10443000918112969C938E931197B183A083828170
:10444000938101969383828378940895CF92DF922B
:10445000EF92FF920F931F93CF93DF939C0181EE16
:1044600093E08C7F4115510509F49BC0211531055E
:1044700009F497C06115710509F493C07A01AB0185
:10448000B9016D5F7F4F6C7F9B012F5F3F4F249F72
:104490008001259F100D349F100D1124F894209158
:1044A000740530917505232B59F420917C053091CA
:1044B0007D052115310569F12017310708F058C035
:1044C00020917E0530917F05232B91F420917C056E
:1044D00030917D05820F931F2091860530918705CD
:1044E0002115310509F441C02017310708F056C0E5
:1044F0007894CFEFDFEF86EF9FEFF701D183C08392
:10450000DF91CF911F910F91FF90EF90DF90CF90AF
:104510000895C3E0D0E0C090DC03D090DD0323E039
:1045200031E02C193D092017310710F32AE02C9FA8
:10453000F0012D9FF00D1124EA5AFA4F91838083E8
:10454000558344835383428377836683118700872F
:10455000009709F055DE0C0D1D1D1093DD0300932F
:10456000DC03789490E080E0C8CFC4E0D0E0D3CF03
:10457000C3E0D0E02AE02C9FF0012D9FF00D112424
:10458000EA5AFA4F9183808355834483538342834D
:1045900077836683009729F333DEE3CFC4E0D0E06E
:1045A000E9CF8FEF9FEFACCF9C010397029708F004
:1045B00069C0F89484E09AE0482F50E0241735074A
:1045C0000CF44DC091E08AE0829FF001839FF00DD2
:1045D0001124EA5AFA4F1182108215821482138232
:1045E0001282178216829923B1F1809174059091FD
:1045F0007505892BA9F420917C0530917D05211545
:10460000310571F08091DC039091DD03821B930BE7
:104610009093DD038093DC0310927D0510927C055E
:1046200080917E0590917F05892BA9F420918605C4
:10463000309187052115310571F08091DC0390914F
:10464000DD03821B930B9093DD038093DC031092B8
:10465000870510928605789490E080E00895949FF5
:10466000F001959FF00D1124EA5AFA4F40815181D3
:10467000452B31F440855185452B11F481509CCF59
:1046800090E0A1CF8FEF9FEF08954115510549F1BB
:10469000009739F16115710521F1F89420915205C7
:1046A00030915305232BB9F42091540530915505D1
:1046B000232B89F4909353058093520570935505ED
:1046C00060935405789425E030E090E080E0FA01B2
:1046D00031832083089578942FEF3FEF86EF9FEF8B
:1046E000F6CF8FEF9FEF0895059769F4F894109235
:1046F0005305109252051092550510925405789466
:1047000090E080E008958FEF9FEF089561157105A7
:1047100019F4F0E0E0E011C08530910581F4E091FA
:104720005205F09153053097A1F3CB0101961995ED
:10473000009779F3FC0185E08193CF0108959C01F6
:10474000235031092230310520F72AE0289FD0017B
:10475000299FB00D1124AA5ABA4F2D913C9111975F
:10476000232BB9F216962D913C91179726173707F0
:1047700080F2F89412962D913C91139721153105F2
:1047800029F0ED91FC911197309711F47894C1CFF5
:104790004181528111965C934E93215031091396B9
:1047A0003C932E93129781937894C7CFE4EEF4E074
:1047B0008EE6DF011D928A95E9F7EEEDF3E086E0E3
:1047C00091E0DF019C011D9221503040E1F71092F1
:1047D000DD031092DC03E6E5F5E082E3DF011D92E4
:1047E0008A95E9F7E2E5F5E084E0DF011D928A951C
:1047F000E9F790E080E00895CF93DF93C0913B020A
:10480000D0913C02CF3FDC0759F423D490933C0273
:1048100080933B0297FF09C0D0933C02C0933B02B8
:1048200084EF9FEFDF91CF91089590E080E0FACF81
:104830008230910528F48093880590E080E0089507
:104840008FEF9FEF08954F925F926F927F92AF929A
:10485000BF92CF92DF92EF92FF920F931F93CF936D
:10486000DF931F921F92CDB7DEB71A82198200978D
:1048700009F479C06115710509F475C020913B02F6
:1048800030913C0207EF1FEF2F3F3F4F09F445C027
:104890006B015C01412C512C3201F12CE12C10E018
:1048A00000E09E012F5F3F4FA6014E195F09B50141
:1048B0006E0D7F1D80913B0290913C022ED4892B7E
:1048C00009F04BC089819A81009741F4E114F10409
:1048D00029F420918805222309F442C0E80EF91E2C
:1048E000EC14FD04D0F480E8481684E858068EE104
:1048F0006806710420F560E070E0CB010E94012E93
:104900002AE0420E511C611C711C0A3F4FEF140734
:1049100021F0043F8FEF1807A1F4C8010F900F900A
:10492000DF91CF911F910F91FF90EF90DF90CF908B
:10493000BF90AF907F906F905F904F90089501EF80
:104940001FEF81E090E0013F2FEF120711F090E0A0
:1049500080E0892B09F4A5CFE0CF04EF1FEFDDCF76
:104960000AEF1FEFDACF0FEF1FEFD7CF4F925F9213
:104970006F927F92AF92BF92CF92DF92EF92FF92AF
:104980000F931F93CF93DF931F921F92CDB7DEB784
:104990001A821982009709F479C06115710509F42A
:1049A00075C020913B0230913C0207EF1FEF2F3F73
:1049B0003F4F09F445C06B015C01412C512C320181
:1049C000F12CE12C10E000E09E012F5F3F4FA6018B
:1049D0004E195F09B5016E0D7F1D80913B029091CC
:1049E0003C024ED3892B09F04BC089819A810097F4
:1049F00041F4E114F10429F420918805222309F4FB
:104A000042C0E80EF91EEC14FD04D0F480E4481610
:104A100082E458068FE06806710420F560E070E0DB
:104A2000CB010E94012E2AE0420E511C611C711C18
:104A30000E3F4FEF140721F0043F8FEF1807A1F44A
:104A4000C8010F900F90DF91CF911F910F91FF90B0
:104A5000EF90DF90CF90BF90AF907F906F905F907E
:104A60004F90089502EF1FEF81E090E0023F2FEF9B
:104A7000120711F090E080E0892B09F4A5CFE0CF78
:104A800004EF1FEFDDCF0EEF1FEFDACF0FEF1FEFB9
:104A9000D7CF80913B0290913C028F3F980749F01D
:104AA000D0D2892B49F48FEF9FEF90933C028093F3
:104AB0003B0290E080E0089584EF9FEF0895CF924D
:104AC000DF92EF92FF920F931F93CF93DF9321E03A
:104AD0004115510509F020E04150510921112CC028
:104AE000DC01FB01D12CC12C21E022C03FEFC31A15
:104AF000D30A7D010D911D91E701EA80FB80E0164C
:104B0000F106A8F420813181E280F380F182E08215
:104B100033832283ED90FC9011979D01225031093F
:104B2000E901F982E88211961C930E9320E03296F7
:104B3000C416D506D8F2D2CFDF91CF911F910F9135
:104B4000FF90EF90DF90CF900895FC01680F791FE0
:104B500090E080E0E617F70709F408952191820FAD
:104B6000911DF8CF20918905211113C045DE0097D2
:104B700091F410928F0510928E0510928D0510926F
:104B80008C0510928B0510928A0521E020938905EF
:104B9000089584EF9FEF0895AF92BF92CF92DF9276
:104BA000EF92FF920F931F93CF93DF93009709F437
:104BB00060C04630510508F45CC020918905C7EFFC
:104BC000DFEF222309F449C08C01060F171FF801FB
:104BD000C080D180C114D10409F44EC096012A5F6F
:104BE0003F4F4217530708F447C07C0180918E0560
:104BF00090918F0593838283B6016C5F7F4F58013C
:104C0000A60EB71EC801A1DFF5019183808364E081
:104C100070E0C80118DEEC01892BF9F481E090E026
:104C200007DEB601C80104960EDEEC01892B91F473
:104C300062E070E0C50107DEEC01892B59F4C70181
:104C4000D9DB80918E0590918F05019690938F0509
:104C500080938E0590E080E0EBDDCE01DF91CF9177
:104C60001F910F91FF90EF90DF90CF90BF90AF908A
:104C70000895CFEFDFEFF1CFC9EFDFEFEECF6F9207
:104C80007F928F929F92AF92BF92CF92DF92EF92DC
:104C9000FF920F931F93CF93DF9300D01F92CDB756
:104CA000DEB7009709F47AC04115510509F476C0C2
:104CB0002091890507EF1FEF222309F44DC03A0127
:104CC0007B015C0164E070E0CE0101964FDE8C0157
:104CD000892B09F041C009811A810115110509F4D8
:104CE0005AC0480186E0880E911CB701680D791DF5
:104CF00080913D0290913E0209DD6C01009709F41C
:104D000050C0A70170E060E00E94473489819A8119
:104D1000AB81BC81EC0CFD1CF70181939193A193B5
:104D2000B1937F0181E090E083DDB801C7011EDE11
:104D3000892B31F562E070E0C701800F911F16DE0C
:104D40008C01892BE9F490E080E072DDF501D182DD
:104D5000C082F30191828082C8010F900F900F9062
:104D60000F90DF91CF911F910F91FF90EF90DF9007
:104D7000CF90BF90AF909F908F907F906F9008954D
:104D800090E080E055DDF50111821082F30111827F
:104D90001082C6012FDB09EF1FEFDECF0FEF1FEFF1
:104DA000DBCF06EF1FEFD8CF0097A1F041155105DB
:104DB00089F02115310571F0F90136966E177F07DC
:104DC00048F0DC012D933C93DA01ED93FC9390E0E5
:104DD00080E008958FEF9FEF0895AF92BF92CF923A
:104DE000DF92EF92FF920F931F93CF93DF93009781
:104DF00009F45FC04115510509F45BC065307105C8
:104E000008F457C020918905C7EFDFEF222391F105
:104E1000DC01CD90DC9011971296ED91FC919601FA
:104E20002A5F3F4FC9EFDFEF2617370719F5C0910B
:104E30008A05D0918B05209749F521E030E0309329
:104E40008B0520938A057A018C01F0938D05E09300
:104E50008C055601B4E0AB0EB11CB50176DE0A0D2F
:104E60001B1DF801208131818217930729F5D70195
:104E7000CD92DC92CE01DF91CF911F910F91FF90E7
:104E8000EF90DF90CF90BF90AF90089520918C0568
:104E900030918D052F5F3F4FCCEFDFEFE217F30727
:104EA00090F2CBEFDFEF2E173F0768F2D0E0C0E0C3
:104EB000CACFCFEFDFEFDECFC3EFDFEFDBCF84E092
:104EC00090E0089582E090E008958CEF9FEF0895C0
:104ED00080E290E0089510928F0510928E05109256
:104EE0008D0510928C0510928B0510928A0590E02A
:104EF00080E0089590933E0280933D020895809152
:104F00008905882391F0C5DD009789F410928F05FB
:104F100010928E0510928D0510928C0510928B05C3
:104F200010928A0510928905089590E080E0089516
:104F3000009749F06115710531F0FC011182108272
:104F4000FB01118210820895F3CF26E030E040E8A3
:104F500055E260E070E090E080E000C081309105B3
:104F600071F01CF4892B39F008958230910551F0CD
:104F7000039759F008958DE995E00C9429318AE35F
:104F800096E0FBCF87ED96E0F8CF84E797E0F5CF8A
:104F90001F920F920FB60F9211240BB60F922F9300
:104FA0003F934F935F936F937F938F939F93AF93B1
:104FB000BF93EF93FF938FE89DEF9093250180932C
:104FC0002401BFD0FF91EF91BF91AF919F918F913D
:104FD0007F916F915F914F913F912F910F900BBEF9
:104FE0000F900FBE0F901F9018958FE89DEF909334
:104FF000250180932401A3E7B0E08C918E7F8C93F0
:10500000E0E2F1E080818C7F8083E1E2F1E0808169
:10501000877E808380818460808380818C7F808391
:105020008C9181608C930895E3E7F0E0808190811A
:105030009E7F90838170089581E00895109290057D
:10504000089568EE73E080E090E0DBD590E080E0CA
:10505000089526E030E040E050E16EE070E090E03E
:1050600080E07CDF8DE995E00E945F30892B29F09C
:105070008DE995E00E947930F5CF90E080E00895C9
:10508000CF92DF92EF92FF920F931F93CF93DF9314
:105090006B017A01E901198218828DE995E00E947D
:1050A0005F30892B79F18601CC24C39482E0D82E1D
:1050B00080919005811111C08DE995E00E947930B1
:1050C0000297B1F7C0929005F801D1928F018881C3
:1050D0009981019699838883EBCF888199818E1578
:1050E0009F0580F48DE995E00E9479308F3F980705
:1050F000A1F3F80181938F018881998101969983A9
:105100008883EBCF90E080E0DF91CF911F910F91EA
:10511000FF90EF90DF90CF9008950F931F93CF9360
:10512000DF93EA0189018DE995E00E94B933F80126
:10513000D183C08390E080E0DF91CF911F910F91E8
:105140000895CF92DF92EF92FF928091910591E0C6
:10515000980F90939105882369F021E030E0309317
:1051600093052093920580939105FF90EF90DF9037
:10517000CF9008957894E0915102F0915202C28C40
:10518000D38CE48CF58C0E94B006B701A60190E0A8
:1051900080E00E94D304F894809191058150E3CF80
:1051A0000F931F93CF93DF931092600810925F08C4
:1051B0005ED5CBDEC0915102D09152021982188285
:1051C0006FEF7FEFCB010E94560570E060E090E04A
:1051D00080E00E94D703009709F03AC00E94BB0705
:1051E000F8947894BE016F5C7F4F8A819B810E9406
:1051F000DA03892B59F46FEF7FEFCB010E9469042A
:105200000E945005882311F081E08DABF894EDDE0B
:105210000E945305882311F080E008C00E945005C9
:105220008111FACF81E09DA99111F6CF80935F089B
:1052300078940E94BA0F8C01789480915F08811154
:105240000CC00E94A8080E943505F89490E080E008
:10525000DF91CF911F910F9108950E9433050E9415
:1052600053058823D9F081E080936008909160080D
:1052700081E0911180E080935F0880916008811146
:10528000D3DE0130110529F40E94BA0F892B09F4ED
:10529000D5DE0E94BA0F8C01CFDECFCF0E94500521
:1052A0008111E1CF81E09DA99111DECF80E0DCCFBB
:1052B0005058BB27AA270ED0AAC19BD130F0A0D14D
:1052C00020F031F49F3F11F41EF490C10EF4E095EC
:1052D000E7FB5DC1E92FACD180F3BA176207730712
:1052E0008407950718F071F49EF5DBC10EF4E09584
:1052F0000B2EBA2FA02D0B01B90190010C01CA0190
:10530000A0011124FF27591B99F0593F50F4503E3A
:1053100068F11A16F040A22F232F342F4427585F2C
:10532000F3CF469537952795A795F0405395C9F744
:105330007EF41F16BA0B620B730B840BBAF09150FC
:10534000A1F0FF0FBB1F661F771F881FC2F70EC09B
:10535000BA0F621F731F841F48F48795779567956E
:10536000B795F7959E3F08F0B3CF9395880F08F057
:105370009927EE0F9795879508957CD180F09F37F8
:1053800040F491110EF48EC160E070E080E89FE37C
:10539000089526F01B16611D711D811DFEC018C1E8
:1053A000D2D008F481E0089504D06894B1117AC194
:1053B000089546D188F09F5790F0B92F9927B7519B
:1053C000A0F0D1F0660F771F881F991F1AF0BA95C9
:1053D000C9F712C0B13081F064D1B1E0089561C164
:1053E000672F782F8827B85F39F0B93FCCF38695BF
:1053F00077956795B395D9F73EF49095809570951C
:1054000061957F4F8F4F9F4F0895E89409C097FB98
:105410003EF490958095709561957F4F8F4F9F4F8B
:105420009923A9F0F92F96E9BB279395F6958795CF
:1054300077956795B795F111F8CFFAF4BB0F11F492
:1054400060FF1BC06F5F7F4F8F4F9F4F16C0882339
:1054500011F096E911C0772321F09EE8872F762F6F
:1054600005C0662371F096E8862F70E060E02AF0B0
:105470009A95660F771F881FDAF7880F969587959C
:1054800097F90895F7D080F09F3740F491110EF00E
:1054900009C160E070E080E89FEB089526F41B16D8
:1054A000611D711D811D79C093C0A3D018F011F04A
:1054B000A7D038F49BC0F6C0E92FBAD0B0F355237B
:1054C000C9F3E7FB6217730784079507A8F199F3FF
:1054D000E92FFF2788232AF03197660F771F881F4F
:1054E000DAF7952F5527442332F091505040220F80
:1054F000331F441FD2F7BB27E91BF50B621B730B4D
:10550000840BB109C1F222F4620F731F841FB11D15
:1055100031972AF0660F771F881FBB1FEFCF91507E
:1055200050405AF041F0882332F0660F771F881FF1
:1055300091505040C1F793954BC0869577956795EC
:105540009F5FD9F7F8CF990F0008550FAA0BE0E835
:10555000FEEF16161706E807F907C0F01216130635
:10556000E407F50798F0621B730B840B950B39F475
:105570000A2661F0232B242B252B21F408950A26DB
:1055800009F4A140A6958FEF811D811D089597F91B
:105590009F6780E870E060E00895882371F47723C6
:1055A00021F09850872B762F07C0662311F4992796
:1055B0000DC09051862B70E060E02AF09A95660F3E
:1055C000771F881FDAF7880F9695879597F90895C2
:1055D0009F3F31F0915020F4879577956795B79567
:1055E000880F911D9695879597F908959FEF80EC08
:1055F000089500240A941616170618060906089539
:1056000000240A9412161306140605060895092E9E
:105610000394000C11F4882352F0BB0F40F4BF2B0D
:1056200011F460FF04C06F5F7F4F8F4F9F4F08954D
:1056300057FD9058440F551F59F05F3F71F0479543
:10564000880F97FB991F61F09F3F79F08795089528
:10565000121613061406551FF2CF4695F1DF08C047
:10566000161617061806991FF1CF86957105610564
:1056700008940895E5DFA0F0BEE7B91788F4BB27CA
:105680009F3860F41616B11D672F782F8827985F12
:10569000F7CF869577956795B11D93959639C8F3A1
:1056A0000895E894BB2766277727CB0197F90895DB
:1056B0004ADF08F48FEF08950BD0A9CF9ADF28F0C6
:1056C0009FDF18F0952309F062CF90CF1124EACF25
:1056D000AFDFA0F3959FD1F3950F50E0551F629F68
:1056E000F001729FBB27F00DB11D639FAA27F00D3B
:1056F000B11DAA1F649F6627B00DA11D661F829F62
:105700002227B00DA11D621F739FB00DA11D621F46
:10571000839FA00D611D221F749F3327A00D611D63
:10572000231F849F600D211D822F762F6A2F112445
:105730009F5750408AF0E1F088234AF0EE0FFF1F98
:10574000BB1F661F771F881F91505040A9F79E3FCF
:10575000510570F01CCFA6CF5F3FECF3983EDCF311
:10576000869577956795B795F795E7959F5FC1F70C
:10577000FE2B880F911D9695879597F908950895AA
:10578000883008F076C0E82FF0E0EE0FFF1FE15CF4
:10579000FD4F718360838150873008F03DC0E82F52
:1057A000F0E08827E952F44D8F4F0C941D34142CEF
:1057B000DE2BE62BF22BFF2B202C2D2C8091690069
:1057C0008C7F482B40936900E89A08958091690086
:1057D000837F440F551F440F551F482B409369008A
:1057E000E99A0895809169008F7C74E0440F551FF9
:1057F0007A95E1F7482B40936900EA9A08958091E1
:1058000069008F7366E0440F551F6A95E1F7482BD6
:1058100040936900EB9A089580916A008C7F482B31
:1058200040936A00EC9A089580916A00837F440F48
:10583000551F440F551F482B40936A00ED9A089559
:1058400080916A008F7C24E0440F551F2A95E1F770
:10585000482B40936A00EE9A089580916A008F73F6
:1058600096E0440F551F9A95E1F7482B40936A0044
:10587000EF9A08951F920F920FB60F9211240BB654
:105880000F922F933F934F935F936F937F938F93D9
:105890009F93AF93BF93EF93FF93E0914302F091F7
:1058A00044021995FF91EF91BF91AF919F918F9114
:1058B0007F916F915F914F913F912F910F900BBE10
:1058C0000F900FBE0F901F9018951F920F920FB65A
:1058D0000F9211240BB60F922F933F934F935F9328
:1058E0006F937F938F939F93AF93BF93EF93FF93A8
:1058F000E0914502F09146021995FF91EF91BF9119
:10590000AF919F918F917F916F915F914F913F9157
:105910002F910F900BBE0F900FBE0F901F901895F8
:105920001F920F920FB60F9211240BB60F922F9366
:105930003F934F935F936F937F938F939F93AF9317
:10594000BF93EF93FF93E0914702F09148021995BE
:10595000FF91EF91BF91AF919F918F917F916F9147
:105960005F914F913F912F910F900BBE0F900FBE03
:105970000F901F9018951F920F920FB60F9211243F
:105980000BB60F922F933F934F935F936F937F9339
:105990008F939F93AF93BF93EF93FF93E09149024F
:1059A000F0914A021995FF91EF91BF91AF919F91AC
:1059B0008F917F916F915F914F913F912F910F90B8
:1059C0000BBE0F900FBE0F901F9018951F920F9255
:1059D0000FB60F9211240BB60F922F933F934F9354
:1059E0005F936F937F938F939F93AF93BF93EF9347
:1059F000FF93E0913F02F09140021995FF91EF91E2
:105A0000BF91AF919F918F917F916F915F914F91D6
:105A10003F912F910F900BBE0F900FBE0F901F90D4
:105A200018951F920F920FB60F9211240BB60F927A
:105A30002F933F934F935F936F937F938F939F9396
:105A4000AF93BF93EF93FF93E0914102F091420235
:105A50001995FF91EF91BF91AF919F918F917F9198
:105A60006F915F914F913F912F910F900BBE0F90CF
:105A70000FBE0F901F9018951F920F920FB60F92A6
:105A800011240BB60F922F933F934F935F936F9315
:105A90007F938F939F93AF93BF93EF93FF93E09187
:105AA0004B02F0914C021995FF91EF91BF91AF918C
:105AB0009F918F917F916F915F914F913F912F9126
:105AC0000F900BBE0F900FBE0F901F9018951F9256
:105AD0000F920FB60F9211240BB60F922F933F9394
