:10000000E2C000000C945A260C9485260C94B0266D
:100010000C94DB260C9406270C9431270C945C2757
:100020000C94872701C10000FFC00000FDC0000044
:10003000FBC00000F9C00000F7C00000F5C00000E0
:10004000F3C00000F1C00000EFC00000EDC00000F0
:10005000EBC00000E9C00000E7C000000C94B2272C
:10006000E3C000000C941F2A0C94552ADDC0000048
:10007000DBC00000D9C00000D7C00000D5C0000020
:10008000D3C00000D1C00000CFC00000CDC0000030
:100090000C94AB2A0C94E12AC7C00000C5C0000034
:1000A000C3C00000C1C00000BFC00000BDC0000050
:1000B000BBC00000B9C00000B7C00000B5C0000060
:1000C000B3C00000B1C00000AFC000000C94372BDB
:1000D0000C946D2BA9C000000C94C32B0C94F92B2D
:1000E000A3C00000010210202008081020401020AA
:1000F00040800201020108040201010204081020EC
:1001000040808040201008040201800402018040E9
:100110002010080402010804020101020408102052
:1001200040800102040810204080050505050705F0
:1001300008080808020202020A0A08080404040463
:10014000010101010101010103030303030303038F
:10015000040707070C0C0C0C0C0C0C0C020202021E
:1001600006060606060606060B0B0B0B0B0B0B0B07
:10017000000020002300260029002C002F00320060
:100180000001000003010601090100002200250012
:1001900028002B002E003100340002010000050170
:1001A00008010B0100002100240027002A002D0077
:1001B0003000330001010000040107010A017E2A1A
:1001C0000A2B962B222C11241FBECFEFD1E2DEBFCB
:1001D000CDBF00E00CBF12E0A0E0B2E0ECECF9E52E
:1001E00000E00BBF02C007900D92A03DB107D9F708
:1001F00028E0A0EDB2E001C01D92AB30B207E1F7FC
:1002000010E0C3EED0E000E006C021970109802F86
:10021000FE010E94B32CCF3DD10780E00807A9F76B
:100220000E943B240C94E42CEBCEFC01A781B0850A
:100230008C9191858923A481B5819C9140815181C4
:10024000628173812681922359F081110BC04F5F27
:100250005F4F6F4F7F4F4083518362837383089555
:100260008111F5CF4150510961097109F4CF81ED38
:1002700092E0DBCF8CED92E0D8CF87EE92E0D5CF45
:1002800082EF92E0D2CFFC01A481B5818C9196815E
:100290008923A781B0859C914081518162817381BE
:1002A0002185922359F0882359F04F5F5F4F6F4F9C
:1002B0007F4F408351836283738308958823A9F31A
:1002C0004150510961097109F4CF81ED92E0DBCF12
:1002D0008CED92E0D8CF87EE92E0D5CF82EF92E01E
:1002E000D2CF0F931F93CF93DF93D82FC62F8A01BE
:1002F000A091D0028BE0A89FD0011124AF52BD4F36
:100300001D921D921D921C92139781E01A968C9358
:100310001A978D2F90E0FC01EC51FF4FE491169657
:10032000EC931697FC01E65DFE4FE491F0E0EE0FD2
:10033000FF1FE059FE4F8591949115969C938E93E3
:100340001497862F90E0FC01EC51FF4FE491199631
:10035000EC931997FC01E65DFE4FE491F0E0EE0F9F
:10036000FF1FE059FE4F8591949118969C938E93B0
:10037000179760E08D2F0E94B92860E08C2F0E94B3
:10038000B9288091D002813009F43FC0A8F08230B2
:1003900009F462C0833009F486C08091D00291E0F4
:1003A000980F9093D002F801808390E080E0DF9175
:1003B000CF911F910F91089580E0D23049F081E0F4
:1003C000D33031F08EEE8D0F8430D8F487E18D1B61
:1003D00041E050E067E371E00E94E12580E0C23037
:1003E00049F081E0C33031F08EEE8C0F843058F448
:1003F00087E18C1B41E050E065E671E00E94E12559
:10040000CCCF8FEFE5CF8FEFF5CF80E0D23049F042
:1004100081E0D33031F08EEE8D0F8430C8F487E167
:100420008D1B41E050E06AE371E00E94E12580E02D
:10043000C23049F081E0C33031F08EEE8C0F843051
:1004400048F487E18C1B41E050E068E671E0D6CFCC
:100450008FEFE7CF8FEFF7CF80E0D23049F081E028
:10046000D33031F08EEE8D0F8430C8F487E18D1BD0
:1004700041E050E06DE371E00E94E12580E0C23090
:1004800049F081E0C33031F08EEE8C0F843048F4B7
:1004900087E18C1B41E050E06BE671E0AFCF8FEF5E
:1004A000E7CF8FEFF7CF80E0D23049F081E0D33053
:1004B00031F08EEE8D0F8430C8F487E18D1B41E062
:1004C00050E060E471E00E94E12580E0C23049F034
:1004D00081E0C33031F08EEE8C0F843048F487E138
:1004E0008C1B41E050E06EE671E088CF8FEFE7CFE4
:1004F0008FEFF7CF9BE0899FF0011124EF52FD4F62
:1005000080819181A281B381FB0180839183A28349
:10051000B38390E080E008959BE0899FF00111246F
:10052000EF52FD4F108211821282138290E080E020
:10053000089590E080E0089590E080E008950F93A2
:100540001F93009709F487C06115710509F483C0F2
:1005500000910402109105022091060230910702D9
:100560000E3F1F4F2F4F3F4F09F066C04FEF5FEF19
:10057000BA014093040250930502609306027093FF
:1005800007024091040250910502609106027091A9
:100590000702DC011296ED91FC9180819181A2818C
:1005A000B3818093650390936603A0936703B09330
:1005B000680384819581A681B781809361039093BC
:1005C0006203A0936303B093640380859185A28541
:1005D000B38580935D0390935E03A0935F03B09314
:1005E000600384859585A685B7858093590390938C
:1005F0005A03A0935B03B0935C03109255031092CF
:10060000560310925703109258031DD488E497E0C4
:100610009093FE028093FD02909300038093FF026B
:1006200001D3009731F421E030E030936A03209346
:1006300069031F910F910895009104021091050222
:100640002091060230910702DB010D931D932D933B
:100650003C93139796CF8FEF9FEFEBCF8F929F92A4
:10066000AF92BF92CF92DF92EF92FF921F93CF9300
:10067000DF934B015C0110916C0382E090E090935A
:100680006A038093690381149104A104B10441F4C5
:1006900080916C03811104C080916B03C1E08111D2
:1006A000C0E0C12CD12C760180916C03811106C071
:1006B00080916B03811102C0CC23D1F083E090E0E4
:1006C00090936A0380936903CC2371F1CCE9DFEF47
:1006D000111101C041D7CE01DF91CF911F91FF9041
:1006E000EF90DF90CF90BF90AF909F908F90089544
:1006F0006AE070E080E090E00E94212880E1C80E6E
:1007000087E2D81EE11CF11C8FEF88169806A80618
:10071000B80631F0C1E08C149D04AE04BF0408F0AB
:10072000C0E080E0B3D2C0CFD0E0C0E0D1CFCF9264
:10073000DF92EF92FF920F931F93CF93DF938F3F40
:10074000910511F008F050C02091690330916A03BF
:100750002330310539F02091690330916A0321304B
:10076000310531F424E030E030936A0320936903CB
:100770006A017B01EC0182309105A0F011E0AE012D
:10078000C701B6014ED2AB01BC01CE011123F9F075
:10079000DF91CF911F910F91FF90EF90DF90CF905D
:1007A0000C94D50C8C01000F111F03501D4FD80164
:1007B0008D919C91892B11F30E94DF0C0297F1F629
:1007C000D801ED91FC91CE011995182FD8CF0E9438
:1007D000F70C90E080E0DF91CF911F910F91FF9097
:1007E000EF90DF90CF9008958FEF9FEFF4CF80E0F0
:1007F0004DC2CF93DF9386E090E090936A0380939D
:1008000069039DD2EC01EDEFF2E084E0DF011D927F
:100810008A95E9F739D610926A0310926903CE01DE
:10082000DF91CF91089580916B03089580915403D7
:1008300008956093040270930502809306029093DA
:10084000070290E080E00895CF92DF92EF92FF924E
:10085000C0900002D0900102E0900202F0900302EA
:10086000A70196016091FE077091FF078091000833
:10087000909101080E94C324882341F0C092FE0792
:10088000D092FF07E0920008F09201088091FD07E6
:1008900081111092FD0765E078E0809102082ADE60
:1008A00060912B0370912C0380912D0390912E0366
:1008B0006F5F7F4F8F4F9F4F60932B0370932C037D
:1008C00080932D0390932E030E94C7249B01AC01BB
:1008D00060912F0370913003809131039091320326
:1008E0000E942C256093270370932803809329038B
:1008F00090932A03FF90EF90DF90CF900895CF93CD
:10090000DF93E1E1F3E080E090E0A0EAB1E482A3CC
:1009100093A3A4A3B5A38AE097EDA3E2BCE3868FDB
:10092000978FA0A3B1A380E995E4A7E6B6E58483F9
:100930009583A683B78389E69CEDA5E6B0E480871E
:100940009187A287B38781EE96EDAAE5B5E184870A
:100950009587A687B78785E49AE8A7E1B2EC808BF4
:10096000918BA28BB38BA5E0B3E0B383A283E1E0CC
:10097000F3E01196FC93EE938DE392E091838083F4
:100980009383828385E293E015969C938E931497CC
:1009900085E193E013969C938E93129787E293E000
:1009A00017969C938E931697C7EFD7E01B861882F5
:1009B0008091000290910102A0910202B091030285
:1009C0008F839887A987BA8781E090E0A0E0B0E0A4
:1009D00089839A83AB83BC8342E058E063E182E180
:1009E00080DC81E08D831E828B85DF91CF9194CD59
:1009F0008091F707811113C081E08093F707809100
:100A0000F8079091F907A091FA07B091FB070197B9
:100A1000A105B10521F48091FC0781118ACD0895CB
:100A20004F925F926F927F928F929F92AF92BF92FE
:100A3000CF92DF92EF92FF920F931F93F894409022
:100A40004403509045036090460370904703C09064
:100A50003803D0903903E0903A03F0903B03452BE4
:100A600009F0A4C09B01AC012419350946095709B6
:100A700029013A0100914003109141032091420362
:100A80003091430348015901840C951CA61CB71CE6
:100A900080169106A206B306A0F400913C031091C3
:100AA0003D0320913E0330913F030F5F1F4F2F4FB7
:100AB0003F4F00933C0310933D0320933E0330933C
:100AC0003F038092400390924103A0924203B09270
:100AD000430300913C0310913D0320913E0330916C
:100AE0003F038092480390924903A0924A03B09238
:100AF0004B0300934C0310934D0320934E0330930C
:100B00004F0360934403709345038093460390938F
:100B10004703A0E1B7E2A30192010E94BB2C6C0D38
:100B20007D1D8E1D9F1D6093380370933903809344
:100B30003A0390933B030091040210910502209127
:100B40000602309107020F3F1F4F2F4F3F4FF1F02A
:100B500000910402109105022091060230910702D3
:100B60000E3F1F4F2F4F3F4F89F0C0900402D0908F
:100B70000502E0900602F090070221E08C149D042B
:100B8000AE04BF0408F420E02093540378941F912E
:100B90000F91FF90EF90DF90CF90BF90AF909F901C
:100BA0008F907F906F905F904F9008954B015C0104
:100BB00084189508A608B708A3019201261B370BD5
:100BC000480B590B6415750586059705D0F08216FC
:100BD0009306A406B50640F420E030E0A901811494
:100BE0009104A104B10491F4A0E1B7E20E94BB2CEE
:100BF000A7019601261B370B480B590BCA01B901F7
:100C0000C5CF82169306A406B50670F7A0E1B7E239
:100C1000A50194010E94BB2C6C0D7D1D8E1D9F1D96
:100C2000B5CFFECECF93DF9300D01F92CDB7DEB706
:100C30001C821B821A821982109250031092510357
:100C40001092520310925303BE016F5F7F4FCE018B
:100C500003960E940C2369817A818B819C810E947A
:100C6000FB1B009761F4BE016F5F7F4FCE010396BF
:100C70000E94182369817A818B819C812ED50F90E7
:100C80000F900F900F90DF91CF910895FF920F93E7
:100C90001F93CF93DF93082F60E070E0CB010E9499
:100CA0002128FF24F3940E94E41AEC01892B89F097
:100CB00010E0CE3F8FEFD80769F0002361F160E0CC
:100CC00070E0CB010E94212881E090E0892B59F34C
:100CD00022C011E025D5EC01892B21F0CE3F8FEF0A
:100CE000D80759F711111EC011E0229609F410E03F
:100CF0000E94941AEC01892B21F0CE3F8FEFD80788
:100D0000E1F6111111C011E0CE3F8FEFD80709F4C1
:100D100010E001110BC0CE01DF91CF911F910F9117
:100D2000FF90089511E0E4CF11E0F3CF60E070E0B0
:100D3000CB010E9421281F25812F90E0C7CFCF93A0
:100D4000DF9380915403882321F060E070E0CB01B1
:100D50004CD635D6D0E0C0E0892B71F06AE070E067
:100D600080E090E00E94212881E090DF28D6219643
:100D7000C03D27E0D20781F727D60E944F1C109272
:100D80006C0310926B03109265031092660310922D
:100D9000670310926803109261031092620310922D
:100DA00063031092640310925D0310925E0310922D
:100DB0005F03109260031092590310925A0310922D
:100DC0005B0310925C03109255031092560310922D
:100DD0005703109258034EEF5FEF6FEF7FEF409392
:100DE000040250930502609306027093070210926A
:100DF0005403E8E4F3E028E0DF011D922A95E9F7C7
:100E00001092440310924503109246031092470338
:100E10001092400310924103109242031092430338
:100E200010923C0310923D0310923E0310923F0338
:100E3000109238031092390310923A0310923B0338
:100E4000DF91CF9108951092780310927903109258
:100E50007A0310927B031092770380918003909124
:100E6000810390937603809375031092740310921C
:100E7000730310926F03109270031092710310921B
:100E8000720310927D0310927C0390E080E008953D
:100E9000CF92DF92EF92FF920F931F93CF938C012B
:100EA000892B09F055C020918003309181038091F6
:100EB0007503909176034091800350918103509384
:100EC0007603409375032817390781F01092740355
:100ED0001092730310926F031092700310927103BB
:100EE0001092720310927D0310927C038091800314
:100EF00090918103019761F580917C0390917D032E
:100F0000892B21F480910802811112C080917C0309
:100F100090917D030197E1F480916F0390917003AC
:100F2000A0917103B09172030197A105B10581F4FD
:100F300010926F031092700310927103109272035B
:100F40001092080282E090E090937D0380937C03EE
:100F50008091800390918103019709F01CC18091D9
:100F60009603909197038017910709F014C180911F
:100F7000920390919303A0919403B09195030097ED
:100F800009F409C12091910321110DC040919203F0
:100F9000509193036091940370919503452B462BD8
:100FA000472B09F4F8C020917C0330917D03223057
:100FB000310509F0F0C0209173032111ECC0FC0150
:100FC000C080D180E280F38080917703882309F488
:100FD000D3C08091830390918403892B09F4FDC0D1
:100FE000209183033091840381E02230310509F0A0
:100FF00080E02091830330918403C1E021303105EA
:1010000049F02091830330918403C1E022303105FF
:1010100009F0C0E0882309F456C020918D03309177
:101020008E0340918F0350919003C701B6010E9437
:10103000282587FD14C020918D0330918E034091A7
:101040008F035091900360917803709179038091A0
:101050007A0390917B030E94C32487FD22C02091D4
:101060008D0330918E0340918F0350919003C701FF
:10107000B6010E942825181634F520918D03309171
:101080008E0340918F03509190036091780370918B
:10109000790380917A0390917B030E94C32481118C
:1010A00012C08091850390918603A0918703B0912F
:1010B0008803892B8A2B8B2B19F481E0809374038E
:1010C00081E080937303CC2309F456C020918D03F3
:1010D00030918E0340918F0350919003C701B60168
:1010E0000E94C32487FF14C020918D0330918E038A
:1010F00040918F0350919003609178037091790330
:1011000080917A0390917B030E94282587FF22C05B
:1011100020918D0330918E0340918F035091900365
:10112000C701B6010E94C324811126C020918D03FE
:1011300030918E0340918F0350919003609178031A
:101140007091790380917A0390917B030E94282506
:10115000181694F48091850390918603A0918703DB
:10116000B0918803892B8A2B8B2B19F481E0809313
:10117000740381E08093730381E090917303911174
:1011800080E080937703C0927803D0927903E09255
:101190007A03F0927B03012B09F067C180917C03F5
:1011A00090917D03892BD9F41092820310927303DE
:1011B00080910802882379F082E090E090937D038B
:1011C00080937C0310920802209180033091810368
:1011D00081E0232BE9F080E01BC081E00ACF109270
:1011E000080280918203882349F0109274031092C0
:1011F0007D0310927C0310928203EDCF80918003D7
:1012000090918103892BE1F0809173031092730315
:1012100020917C0330917D032230310509F45EC0BA
:1012200088F42115310509F448C02130310509F44D
:10123000F3C010927403109273031092820338C0AB
:1012400081E0E6CF2330310509F4B1C02430310507
:1012500081F740916F035091700360917103709119
:101260007203411551056105710561F04150510945
:101270006109710940936F03509370036093710388
:101280007093720340916F035091700360917103EA
:1012900070917203452B462B472BD9F420917E0386
:1012A00030917F032130310509F046C0109274035C
:1012B00010927D0310927C030CC080910802882359
:1012C00041F082E090E090937D0380937C03109244
:1012D000080210926D0380917403CEC08823C9F375
:1012E0008091850390918603A0918703B091880334
:1012F000181619061A061B060CF07DC08091800393
:1013000090918103019709F076C0809185039091B7
:101310008603A0918703B091880380936F03909315
:101320007003A0937103B093720383E090E09093F5
:101330007D0380937C03CDCF4091890350918A0334
:1013400060918B0370918C03452B462B472BA9F0A2
:10135000109274038091890390918A03A0918B036A
:10136000B0918C0380936F0390937003A0937103EB
:10137000B093720381E090E0DACF882399F08091F6
:10138000090290910A02A0910B02B0910C02809385
:101390006F0390937003A0937103B093720384E082
:1013A00090E0C5CF1092740382E090E0C0CF8091AE
:1013B0006F0390917003A0917103B0917203009735
:1013C000A105B10559F00197A109B10980936F03F7
:1013D00090937003A0937103B093720380916F0395
:1013E00090917003A0917103B0917203892B8A2BA5
:1013F0008B2B09F06ECF8091090290910A02A09187
:101400000B02B0910C02892B8A2B8B2B09F44ECF47
:1014100081E080937403B3CF40916F0350917003C8
:101420006091710370917203411551056105710559
:1014300061F0415051096109710940936F03509364
:101440007003609371037093720340916F03509126
:1014500070036091710370917203452B462B472BEB
:1014600009F037CF8111C7CF9FCF80916D038823BB
:1014700009F431CF80916E03CF911F910F91FF90AE
:10148000EF90DF90CF900895109278031092790337
:1014900010927A0310927B031092770310927D03CF
:1014A00010927C03109276031092750310929703AA
:1014B00010929603109274031092730310926F03AC
:1014C00010927003109271031092720310926E03C7
:1014D00010926D0310929203109293031092940352
:1014E000109295031092910310928D0310928E0327
:1014F00010928F031092900388EE93E0A0E0B0E08A
:101500008093090290930A02A0930B02B0930C02FD
:101510001092890310928A0310928B0310928C030D
:10152000109285031092860310928703109288030D
:10153000109284031092830381E08093080210923A
:101540008203109281031092800310927F03109205
:101550007E0390E080E00895809180039091810364
:10156000892B19F580910802882351F0809182031C
:10157000811106C081E080936E0380936D0308950E
:10158000209182033091080281E090E0332311F032
:1015900090E080E030E082239323892B21F01092A9
:1015A0006E0381E0EACF10926D03089582E090E02F
:1015B000FA01918380838FEF9FEF0895CF93DF939C
:1015C000EA01009711F00E946F1D1982188290E0C5
:1015D00080E0DF91CF910895DB01009719F48FEF40
:1015E0008C9308952EEF2C93FC013F96EF30F1057C
:1015F00008F034C08827E050F54F8F4F0C94B32C7F
:101600002C0B2A0B280B260B240B200B220B1E0B5A
:101610001C0B1A0B170B130B0F0B150B2E0B80E368
:1016200011968C93089589E2FBCF82E2F9CF11964F
:101630001C92089583E2F4CF81E2F2CF81E1F0CFF2
:1016400087E2EECF8AE2ECCF80E1EACF84E2E8CF16
:1016500088E2E6CF86E2E4CF81E3E2CF80E2E0CF2A
:101660008091A4039091A50308959093A50380937E
:10167000A40308958091A30308959091A303892B57
:101680008093A3030895982F90958091A3038923B5
:101690008093A30308958091A20308958091A003ED
:1016A0009091A10308956115710559F0FB0130E097
:1016B00020E070E060E02417350719F0611571052E
:1016C00011F0CB010895A081B181A817B90709F4E1
:1016D000BF012F5F3F4F3696EECF8091A603811159
:1016E0001CC060D266D290939903809398030E94A5
:1016F0006D150E947F1590939D0380939C030E941B
:10170000FC190E94031A90939B0380939A0381E033
:101710008093A60390E080E0089584EF9FEF089502
:101720008F929F92AF92BF92CF92DF92EF92FF92F1
:101730000F931F93CF93DF9300D000D000D01F9260
:10174000CDB7DEB71A86198618861F821E821D82C3
:101750001C821B821A8219828091A60307EF1FEF59
:10176000882309F49CC08E010D5F1F4F9E012B5FE3
:101770003F4FAE01495F5F4FBE01675F7F4F90E013
:1017800080E00E94801B8C01009721F00596029753
:1017900008F0DBC029853A852115310509F402C11D
:1017A000ED80FE804B815C81B701640F751F8F81D6
:1017B00098858617970708F4F5C0E20EF31ED70147
:1017C0009C91903C09F07FC04230510508F47BC0E9
:1017D00011968C914091A4035091A503452B09F4D7
:1017E0009CC0913F08F071C02CE1290F2D3008F406
:1017F0008BC02DE2290F203108F489C0903C21F4E0
:101800008150823008F483C088E3890F8B3008F45C
:1018100081C09CEEC92E9AE0D92EE6EDFAE06D81EA
:101820007E81AE014F5F5F4F89859A8519955C0176
:10183000C114D104A1F189809A808114910479F1B5
:101840008B819C818815990508F487C010E000E021
:101850004B815C8170E060E0C7010E94DD2C0115C6
:101860001105E9F449815A8169857A858D819E81C6
:10187000680F791FC501F6011995E980FA800D817D
:101880001E812F81388549855A856FEF7FEF81E072
:1018900090E00E941B1B8C01892B09F056C0C801E7
:1018A0002A960FB6F894DEBF0FBECDBFDF91CF9161
:1018B0001F910F91FF90EF90DF90CF90BF90AF906E
:1018C0009F908F90089580E085CF30E020E0220F38
:1018D000331FF901E856FC4F0190F081E02D30975D
:1018E00009F497CF892F90E01995009709F491CFCB
:1018F000DC011296ED91FC9113971496CD90DC903B
:10190000309709F08CCF1FC021E030E0E0CF22E01B
:1019100030E0DDCF23E030E0DACFD12CC12CEEED8A
:10192000FAE09F3F09F07BCFE0919803F091990393
:10193000309721F4C90104EF1FEF0CC08FEF90E046
:1019400019950097A9F604EF1FEF89859A850097EE
:1019500009F4A5CF0E946F1DA2CF0E944A1C8C01E2
:1019600089859A850E946F1D70E060E0C4010E9425
:10197000E31B98878F830E94181B9E838D836F8142
:1019800078856115710559F0C8010E94FB1E9A8780
:10199000898706EF1FEF892B09F058CF59CF08EF41
:1019A0001FEF56CF08EF1FEFD0CF2091A6032223C1
:1019B00019F020E00C94841587EF9FEF0895809133
:1019C000A4039091A50308950E94081A0E94621929
:1019D000F5D0E8E9F3E088E0DF011D928A95E9F7A8
:1019E0001092A60390E080E008950C94C01721E0C7
:1019F00040E050E0BA010C94841586E090E0FA01D2
:101A00009183808390E080E0089547E050E060E4B7
:101A100072E049CEDF92EF92FF920F931F93CF9324
:101A2000DF938A01EC01C60FD71FE090AA03F09064
:101A3000AB03D9800E94321CD816190678F082E0D8
:101A400090E0F801918380838EEF9FEFDF91CF913B
:101A50001F910F91FF90EF90DF900895EF2841F4D0
:101A600082E090E0F8019183808384EF9FEFEECFD6
:101A700089818093A90390E00196F8019183808386
:101A800090E080E0E3CFCF93DF93EA010E947118EA
:101A9000882321F00E943F1C0E94721882E090E08F
:101AA000998388838BEF9FEFDF91CF910895CF9338
:101AB000DF93EB0186E0FB0111928A95E9F78FEF46
:101AC0008883D8DD8983E7DD8A83E8DD9D838C8385
:101AD000DF91CF910895CF93DF93EA010E947418AC
:101AE000811109C082E090E09983888385EF9FEFA0
:101AF000DF91CF91089590E080E0B7DD81E090E044
:101B00009983888390E080E0F3CF0F931F93CF9366
:101B1000DF93EA018C01060F171F0E9474188111D0
:101B20000BC082E090E09983888385EF9FEFDF917F
:101B3000CF911F910F910895F8018181823038F083
:101B400082E090E0998388838EEF9FEFF0CF81E071
:101B500090E08BDD88E090E09983888390E080E0DE
:101B6000E6CFCF93DF930097D1F4EB01FB013296E0
:101B700086E0DF011D928A95E9F78FEF888385E083
:101B800089831A820E94321C8B830E94311C9D83A0
:101B90008C8381E08E838F83DF91CF910895DF91D5
:101BA000CF911ACD85E09DE09093A8038093A70381
:101BB00008958091A7039091A80308951092A80317
:101BC0001092A70308958091AA039091AB03089502
:101BD000411105C0611571058105910561F06093A2
:101BE000AA037093AB038093AC039093AD0340932F
:101BF000AE0381E0089580E00895FF920F931F9354
:101C0000CF93DF938A01EC01C60FD71FF9800E94A2
:101C1000321CF816190668F082E090E0F801918312
:101C200080838EEF9FEFDF91CF911F910F91FF90F7
:101C300008956C817D818E819F814B81C9DF8111E7
:101C400008C082E090E0F8019183808384EF9FEFE9
:101C5000EACF89818093A90390E00196F8019183EE
:101C6000808390E080E0DFCFCF93DF93EA01FC0137
:101C7000E60FF71F64817581868197814381A8DF14
:101C8000811109C082E090E09983888384EF9FEFFF
:101C9000DF91CF91089581E090E09983888390E06F
:101CA00080E0F6CFEAEAF3E04081518162817381FE
:101CB000480F511D611D711D4083518362837383E1
:101CC0000895CF93C091A9034C2F50E06091AA03CF
:101CD0007091AB0301960E94D42C8C2FE3DF1092FD
:101CE000A903CF910895009799F48091AA03909148
:101CF000AB032FEFFB012083892B59F02091A9031F
:101D000030E02F5F3F4F2417350719F4CB01D9CFAF
:101D100063CC0895009799F48091AA039091AB0346
:101D20002FEFFB012083892B59F02091A90330E08C
:101D30002F5F3F4F2417350719F4CB01C2CF4CCC8E
:101D4000089523E1AC01249FC001259F900D11242B
:101D5000E091B303F091B403E80FF91F23813481BC
:101D60002250310981E02230310508F080E00895E9
:101D70000F931F93CF93DF930091B5031091B60398
:101D8000D0E0C0E080E00C171D0749F491E081111C
:101D900090E0892FDF91CF911F910F9108958111CC
:101DA000F5CFCE01CEDF2196EECFA091B303B09157
:101DB000B403109729F12091B5033091B60382172F
:101DC0009307F0F453E1589F9001599F300D11246F
:101DD000A20FB31FED91FC911197309789F01296E5
:101DE0008C91681768F48DE0689FE00DF11D112457
:101DF00080819181892B21F081E09281491708F03F
:101E000080E008959C0143E1429FC001439F900DF3
:101E10001124E091B303F091B403E80FF91F838517
:101E2000823091F481E090E06581768140910D02ED
:101E300050910E026417750711F490E080E0892B31
:101E400019F081E0232B09F080E00895FC01A081C6
:101E5000B1818DE0689FA00DB11D112413964D91A5
:101E60005C9185859685489F9001499F300D589FCC
:101E7000300D1124C9010196611103C0478144FD51
:101E800004960895EF92FF920F931F93CF93DF93E1
:101E9000EA01FC01E60FF71F02811381E480F5805F
:101EA0004F2D6E2DC80181DF81110DC082E090E0C1
:101EB000998388838EEF9FEFDF91CF911F910F91D0
:101EC000FF90EF900895C8013CDF882339F082E04D
:101ED00090E09983888388EF9FEFEECF10931402F0
:101EE00000931302E0921502F092160281E090E056
:101EF0009983888390E080E0DFCFCF92DF92EF92EA
:101F0000FF920F931F93CF93DF937A01EC01C60FDB
:101F1000D71FC0901302D0901402009115021091A7
:101F20001602412F602FC60140DF811110C082E0F0
:101F300090E0F701918380838AEF9FEFDF91CF914B
:101F40001F910F91FF90EF90DF90CF900895C60101
:101F5000F8DE882341F082E090E0F70191838083EE
:101F600088EF9FEFEBCF4C815D816E817F819A81FD
:101F700089818F3F41F082E090E0F7019183808377
:101F80008EEF9FEFDBCFE3E1EC9D9001ED9D300DF7
:101F90001124E091B303F091B403E20FF31F019019
:101FA000F081E02D2DE0029FE00DF11D1124019044
:101FB000F081E02D27E0129FE00DF11D11248083B8
:101FC00091838B81828343835483658376831F5FF0
:101FD0001093160281E090E0F7019183808390E0F6
:101FE00080E0ACCFEF92FF920F931F93CF93DF93DC
:101FF0007A018C01060F171FC091B303D091B4036F
:10200000209781F021E030E0F801828193814091B6
:10201000B5035091B6038417950710F030E020E027
:10202000232B71F482E090E0F701918380838EEF9F
:102030009FEFDF91CF911F910F91FF90EF90089547
:1020400043E1489F9001499F300D1124C20FD31FD7
:1020500078DE882341F082E090E0F701918380836D
:1020600088EF9FEFE6CFF8012481358120383105D4
:10207000C8F687818111D6CF4181842F90E08F7E71
:10208000009741F082E090E0F7019183808386EF32
:102090009FEFCFCF4F833E832D83268128871986DC
:1020A000223010F421E0288721E030E0F70131836D
:1020B0002083BFCF88E090E0FA019183808390E095
:1020C00080E00895FB018FEF808381E181838FEFB2
:1020D0009FEF9383828380E890E0958384831682C8
:1020E00017820895FB018FEF808391E091838283B3
:1020F0009383848384E3858381E090E09783868360
:102100000895DF92EF92FF920F931F93CF93DF9387
:10211000EA01FC01E60FF71F8181813071F082E056
:1021200090E0998388838FEF9FEFDF91CF911F918C
:102130000F91FF90EF90DF90089582819381D4807A
:102140002581E680F7800091B3031091B403011557
:10215000110539F482E090E0998388838CEF9FEF3A
:10216000E4CF4091B5035091B6038417950738F03A
:1021700082E090E0998388838EEF9FEFD6CF892B02
:1021800039F082E090E09983888386EF9FEFCDCF8E
:102190008D2D8D7FB1F72130A1F781E0D11006C0E0
:1021A00091E0E916F10431F080E004C0E2E0EE16BF
:1021B000F104D0F3882329F390E080E0C2DD882386
:1021C00039F082E090E09983888388EF9FEFADCF6C
:1021D000F801D38681E08487F686E586108A178623
:1021E00081E090E09983888390E080E09ECF4CE08E
:1021F00050E06AE672E057CA8F929F92BF92CF92E8
:10220000DF92EF92FF920F931F93CF93DF93EA0138
:10221000FC01E60FF71F828193810481B580E09174
:10222000B303F091B403309791F482E090E0998386
:1022300088838CEF9FEFDF91CF911F910F91FF90DB
:10224000EF90DF90CF90BF909F908F900895209156
:10225000B5033091B6038217930738F082E090E01F
:10226000998388838EEF9FEFE6CF23E1289F60015B
:10227000299FD00C1124EC0DFD1DE080F180E114AC
:10228000F10499F28281081748F78DE0089F8001D8
:102290001124E00EF11EF70180819181892B29F62E
:1022A000BB20E1F2F7E0BF9E40011124C4010E946F
:1022B000361DF70191838083E091B303F091B4035D
:1022C000EC0DFD1D0190F081E02DE00FF11F8081EC
:1022D0009181009739F482E090E0998388838DEFB3
:1022E0009FEFA9CFA40170E060E00E94DD2C8091F7
:1022F000B3039091B403C80ED91EF6018081918179
:10230000080F191FF801B28281E090E09983888359
:1023100090E080E090CFAF92BF92CF92DF92FF9299
:102320000F931F93CF93DF93EA01FC01E60FF71F92
:1023300082819381F4800091B3031091B40301155D
:10234000110581F482E090E0998388838CEF9FEF00
:10235000DF91CF911F910F91FF90DF90CF90BF90B1
:10236000AF9008952091B5033091B603821793077B
:1023700038F082E090E0998388838EEF9FEFE8CF7A
:102380002FEF2F0D2C3FA8F723E1289F6001299FF5
:10239000D00C11240C0D1D1DF80180819181892B19
:1023A00089F6FDE0FF9E50011124C5010E94361DF3
:1023B000F80191838083E091B303F091B403EC0DB5
:1023C000FD1D80819181009739F482E090E099832E
:1023D00088838DEF9FEFBCCFA50170E060E00E9485
:1023E000DD2CE091B303F091B403EC0DFD1DF282FE
:1023F00081E090E09983888390E080E0A9CFCF923C
:10240000DF92EF92FF920F931F93CF93DF93860F8C
:10241000971FFC01028113818091B3039091B40353
:10242000892B81F082E090E0FA01918380838CEF28
:102430009FEFDF91CF911F910F91FF90EF90DF9071
:10244000CF900895C801B0E0A0E00197A109B109BB
:102450008F3F9F4FA105B10540F082E090E0FA0167
:10246000918380838EEF9FEFE4CF7A0183E1809F99
:102470006001819FD00C1124C6010E94361DEC0121
:10248000009741F482E090E0F701918380838DEF23
:102490009FEFCFCFA60170E060E00E94DD2CD093CB
:1024A000B403C093B3031093B6030093B50390E055
:1024B00080E02FEF3FEF41E061E070E0801791078F
:1024C00041F481E090E0F7019183808390E080E027
:1024D000B0CF3A8B298B1B864C877E876D87188AF5
:1024E0001F8601966396EACFEF92FF921F93CF93D8
:1024F000DF93EC0110E0F12CE12C6A811617B0F0AB
:1025000083E0689FB0011124AE014F5E5F4FC701A9
:102510000E949B1D009721F02FEF3FEF3A8B298BF4
:10252000DF91CF911F91FF90EF900895612FCE0121
:102530008DDC61E070E00E94E31BE816F90608F408
:102540007C011F5FDACFF8942091B1033091B20380
:1025500081E02115310509F080E0232B09F0789402
:1025600008952F923F924F925F926F927F928F9237
:102570009F92AF92BF92CF92DF92EF92FF920F9312
:102580001F93CF93DF933C01660E771EF301828188
:1025900093814C01B12CA12CC091B303D091B40311
:1025A000209769F021E030E06091B5037091B603A7
:1025B0008617970710F030E020E0232BD1F482E05B
:1025C00090E0FA01918380838EEF9FEFDF91CF91AE
:1025D0001F910F91FF90EF90DF90CF90BF90AF9041
:1025E0009F908F907F906F905F904F903F902F9033
:1025F00008958092170290921802A0921902B09248
:102600001A0263E1689F9001699F300D1124C20F87
:10261000D31FF3018181833040F082E090E0FA0122
:102620009183808386EF9FEFD1CF2A012B813C815C
:10263000232BF1F4288139819F8191FF2EC0232B18
:1026400009F46FC02091B8039A81422F490F552792
:10265000551FBA0141E050E06138710514F050E0B7
:1026600040E0452B09F45DC02A87920F9093B80390
:102670008150823008F481C066DF882309F4D8C015
:10268000F3018181813009F48DC008F47BC0823070
:1026900009F4C6C090E080E0ADC0232B09F441C02E
:1026A0002091B7039A81E22FE90FFF27FF1F41E036
:1026B00050E0ED3FF10514F050E040E0452B89F18A
:1026C0002A87920F9093B703D3CFA081B181A20F35
:1026D000B31F11966C91060F111D0196295F3F4F94
:1026E0008417950794F38D859E85089F1001099F97
:1026F000300C189F300C1124C114D104D1F48F81F7
:1027000084FF17C00E94311CF5E02F0E311C21E020
:102710008215930508F420E0A701435F5F4F211164
:102720000EC082E090E0F2019183808387EF9FEFFB
:102730004DCF0E94311C2FEF221A320AE8CF888138
:102740009981E80EF91EF70114830383FFEFCF1A76
:10275000DF0A7A018A818C151D0409F00CF48CCFF4
:10276000E881F981EE0DFF1D428150E030E020E06C
:1027700010E000E090E080E0B3CFF12CE12CD12C10
:10278000C12CE8CF81E090E09C838B83F1DA882331
:1027900009F480CF81E090E00E94350B80E40E9434
:1027A000430B78CF89899A89019661F083E090E0A4
:1027B0009C838B8382E090E00E94350B80E40E9432
:1027C0003D0B68CF8D819E8120910D0230910E02CC
:1027D00082179307D1F46091110270911202AE0139
:1027E0004F5E5F4F80910F02909110020E94BA1EBF
:1027F0000097E1F2789422E030E0F2013183208307
:10280000892B99F08DEF9FEFE1CE89288A288B28BC
:1028100069F6892B59F6CE0167DE188A1F86E8CF44
:1028200082E090E09C838B8335CF90E080E0CECE39
:1028300082E090E0F2019183808385EF9FEFC6CE26
:102840008F929F92AF92BF92CF92DF92EF92FF92C0
:102850000F931F93CF93DF93EA018C01060F171F8D
:10286000F8018181833098F082E090E09983888339
:1028700086EF9FEFDF91CF911F910F91FF90EF9027
:10288000DF90CF90BF90AF909F908F9008958091F0
:10289000B3039091B403892B61F081E090E0209123
:1028A000B5033091B603232B11F490E080E0892B1F
:1028B00039F482E090E0998388838EEF9FEFDACF3E
:1028C00042DE882309F4DFC0F8018181813009F4F8
:1028D00095C0E8F0823099F42091B5033091B603A9
:1028E000E091B303F091B40390E080E041E050E068
:1028F0002817390709F0BDC03BDA811117C0789459
:1029000081E090E09983888390E080E0B3CF2091CC
:10291000B5033091B603E091B303F091B40390E0B6
:1029200080E041E050E02817390741F481E090E071
:102930000E94350B80E40E94430BE1CF63817481D8
:10294000672B11F05483438301967396ECCFE0918B
:10295000B303F091B403E00FF11F238134812230DF
:102960003105D9F4218932892F3F3F4FB1F42581B8
:10297000368140910D0250910E022417350761F502
:10298000AF014F5E5F4F6091110270911202809112
:102990000F02909110020E94BA1EEFEFCE1ADE0ACB
:1029A000EE0AFE0A0D5E1F4F4091B5035091B6032B
:1029B00070E060E0C416D506E606F7063CF5009721
:1029C00031F27894892B09F49BCF82E090E09983CF
:1029D00088838DEF9FEF4ECFC114D104E104F10441
:1029E000E1F6232BD1F6CF017FDDE091B303F09127
:1029F000B403E00FF11F108A1786CFCF10E000E07C
:102A000090E080E0C12CD12C7601CECF0097C9F6A2
:102A100010E000E0812C912C540183E0E82EF12C91
:102A20001AC0E091B303F091B403E00FF11F83816A
:102A30009481029749F4F482E38282E090E00E945C
:102A4000350B80E40E943D0BFFEF8F1A9F0AAF0AFF
:102A5000BF0A0D5E1F4F8091B5039091B603B0E0A1
:102A6000A0E088169906AA06BB06DCF290E080E09A
:102A7000A8CF638174816230710511F4548343835C
:102A80000196739635CF82E090E09983888385EF35
:102A90009FEFF0CE0097B9F48FEFFB018083209178
:102AA00017023091180243E1429FC001439F900DED
:102AB0001124E091B303F091B403E80FF91F82856C
:102AC000FB01818308950C94EC0A88E090E0FA0100
:102AD0009183808390E080E008951092B203109279
:102AE000B103E3EBF3E086E0DF011D928A95E9F79D
:102AF00087EF90E19093B0038093AF0308958091A6
:102B0000AF039091B00308952F923F924F925F923E
:102B10006F927F928F929F92AF92BF92CF92DF92ED
:102B2000EF92FF920F931F93CF93DF93CDB7DEB752
:102B30002F970FB6F894DEBF0FBECDBFF894E0918B
:102B4000B103F091B2033196F093B203E093B10375
:102B500078944090B3035090B4034114510409F4A5
:102B60000CC2E091B503F091B603EF2B09F405C256
:102B70002D8749875A876B877C8798878F831201B7
:102B8000B12CA12C10E000E08091B5039091B60328
:102B9000A816B90618F40115110529F1F8948091C9
:102BA000B1039091B20301979093B2038093B10364
:102BB0007894C8012F960FB6F894DEBF0FBECDBF34
:102BC000DF91CF911F910F91FF90EF90DF90CF9009
:102BD000BF90AF909F908F907F906F905F904F903D
:102BE0003F902F9008957101E418F508D1011796D0
:102BF0008C91179781FD54C013968D919C911497D9
:102C0000039709F04DC015968D919C91EF81F88541
:102C10008E179F0709F044C0B50190E080E07FD493
:102C20008A832091B3033091B4033D832C833D8587
:102C3000332309F44CC04C815D81452B09F49AC1C2
:102C40008091B5039091B603A816B90608F092C119
:102C5000C501D8D88823E9F06C817D816E0D7F1D78
:102C60007D836C83DB011F968D919C91892B89F06C
:102C7000D12CC12CF12CE12CAC81BD8112968C9110
:102C800012978E151F0409F094F450961C921E9210
:102C90001F972A81222321F0B50190E080E041D4E2
:102CA0003FEFA31AB30A43E1240E311C6DCFAC8170
:102CB000BD81ED91FC91EC0DFD1D858196810FD7B5
:102CC000BFEFEB1AFB0AEDE0CE0ED11CD5CFEC81A5
:102CD000FD81309709F44EC18091B5039091B60300
:102CE000A816B90608F046C1EE0DFF1DFF87EE8756
:102CF000C50188D88B83882339F1AE85BF851F969F
:102D00008D919C915097019621E01D964D915C917B
:102D10008417950709F020E02E831982712C10E0AA
:102D200000E0AE85BF8512968C91781608F45DC0E0
:102D3000EE85FF85878590890196658576850E9459
:102D40007D2C908B8787A5CFB1E0BE83E6CF9924F9
:102D500093946BC08BD6F6019683858382C0D6018F
:102D6000ED90FC90B7E06B9EE00CF11C1124F70194
:102D70006381748180818F3F61F121E030E002C086
:102D8000220F331F8A95E2F7C901092E000CAA0B06
:102D9000BB0BFB01408151816281738184239523A8
:102DA000A623B72321E0892B8A2B8B2B09F420E063
:102DB000D4012C93D70111968C91F601238534858B
:102DC000820F932F911D880E991E1486138663948B
:102DD0009BC0418150E0C4010E94D42CEBCF99826A
:102DE00006EF1FEFC5C01982C3C0F981F111A0CF52
:102DF000EDE07E9E70011124AE85BF85CD90DC9004
:102E0000CE0CDF1C15D49D838C83BB81BB2309F4BE
:102E10009ECF81E0EE85FF8527853089232B09F041
:102E200080E0982E882309F458C0672D8E859F85F1
:102E30000DD8D60118969C938E93179761E070E099
:102E4000C2D4EE85FF85218932892F3F320709F4EC
:102E500081CFBC01C901CFD7D60116969C938E9322
:102E60001597D60115968D919C911697009709F4A8
:102E7000B6CFEC81FD818E0F9F1F1A969C938E9387
:102E80001997AE85BF85ED91FC911197EE0EFF1E4F
:102E9000F70121853285148613861A968C91870D49
:102EA000D9018D93711016C0EE85FF85878184FF4F
:102EB00011C049855A856B857C85F9014183528310
:102EC00063837483F701838594850496A80FB91FE3
:102ED00014861386F701B287A187D60115968D91C6
:102EE0009C911697892B09F443C0EE85FF852581B7
:102EF000368180910D0290910E022817390779F0E2
:102F000019968D909C90612CD60112968C911297F7
:102F1000681608F424CF1A969C928E921997BE8157
:102F2000BB2309F460CF61E070E0F60187819085F2
:102F30004AD4D6011796ED90FC90189715964D91AE
:102F40005C91E1E0F0E0BA81BB2311F0F0E0E0E059
:102F50000C811D819C01B501882799278E1B9F0B31
:102F60006AD38C01892B21F0F60185819681B7D532
:102F70007394D7CE0FEF1FEF8CCE10E000E00ECE93
:102F80002F923F924F925F926F927F928F929F9279
:102F9000AF92BF92CF92DF92EF92FF920F931F9367
:102FA000CF93DF938091B3039091B40310E000E0DE
:102FB000892BA9F0C8DA0AEF1FEF882381F020904F
:102FC000B5033090B603C091B303D091B403D12CB4
:102FD000C12C10E000E02C143D04A9F47894C80141
:102FE000DF91CF911F910F91FF90EF90DF90CF90E5
:102FF000BF90AF909F908F907F906F905F904F9019
:103000003F902F900895C6010E94020F882309F176
:103010008B819C810397E9F48F859889892BC9F06E
:10302000B60190E080E07BD221E030E0882311F00F
:1030300030E020E044245524421A530AB12CA12C3C
:10304000912C812C8A818815190409F038F4188A8A
:103050001F864FEFC41AD40A6396BDCFE881F98169
:10306000EA0DFB1D85819681892BA1F161E070E05D
:1030700087819085A8D33C01DBD28C01E881F9815E
:10308000EA0DFB1D8185928525813681200F311F38
:10309000AC01421B530B9A0147815085421B530BD5
:1030A00070E060E00E94DD2CE881F981EA0DFB1DF3
:1030B000E780F084458156819301B601C201BBD2FD
:1030C0008C01892B39F0E881F981EA0DFB1D85819E
:1030D000968105D55FEF851A950A8DE0A80EB11C83
:1030E000B1CF31CA789408952F923F924F925F9258
:1030F0006F927F929F92AF92BF92CF92DF92EF92A8
:10310000FF920F931F93CF93DF9300D000D0CDB7E2
:10311000DEB70091B3031091B40399249394011581
:10312000110509F43EC0A090B503B090B6030BDAC8
:10313000982E8823B1F11092B4031092B303109229
:10314000B6031092B5031092B7031092B8038FEF35
:103150009FEFDC018093170290931802A09319024D
:10316000B0931A0278947FD31E830D83C12CD12C87
:103170007601C501B0E0A0E089839A83AB83BC836C
:1031800022242A94322C89819A81AB81BC81C81671
:10319000D906EA06FB06F4F0C801A1D480E40E9437
:1031A000430B892D26960FB6F894DEBF0FBECDBF18
:1031B000DF91CF911F910F91FF90EF90DF90CF9013
:1031C000BF90AF909F907F906F905F904F903F9097
:1031D0002F900895AD81BE8115968D919C91169783
:1031E00020910D0230910E0282179307D1F451966F
:1031F0008D919C91EED5ED81FE8180819181B12CE4
:10320000A12C412C512C3201892B89F5BFEFCB1A0F
:10321000DB0AEB0AFB0AED81FE817396FE83ED83E8
:10322000B2CFC114D104E104F10429F7892B19F7B5
:10323000ED81FE81818992898F3F980709F029D518
:10324000AD81BE8152963C922E925197D4CF8A0D79
:103250009B1DDC018D919C91009709F040D4BFEF3C
:103260004B1A5B0A6B0A7B0AEDE0AE0EB11CAD8116
:10327000BE818D919C91119712964C9150E070E017
:1032800060E044165506660677060CF328D4BECFD8
:10329000CF93DF93EA0128DF811109C082E090E03B
:1032A0009983888385EF9FEFDF91CF91089581E027
:1032B00090E00E94350B81E090E09983888390E054
:1032C00080E0F2CF11DF1092B0031092AF030895A7
:1032D00042E050E062EB72E00C94530BFF920F93CC
:1032E0001F93CF93DF938A01EC01C60FD71FF9809C
:1032F000B9D20897F816190671F068F082E090E0EC
:10330000F801918380838EEF9FEFDF91CF911F9122
:103310000F91FF9008956C817D818E819F814B81FB
:103320000E94E80D811108C082E090E0F8019183CD
:10333000808384EF9FEFE9CFF9800E94E30D4F2D4A
:1033400050E0BE01685F7F4F0E94D42C89810E94AB
:10335000520E81E090E0F8019183808390E080E05C
:10336000D4CFDF92EF92FF920F931F93CF93DF930F
:103370008A01EC01C60FD71F0E94E30D7C01D980A2
:1033800071D2DD2059F0029721E030E0D8161906FD
:1033900019F010F030E020E0232B79F482E090E087
:1033A000F801918380838EEF9FEFDF91CF911F9182
:1033B0000F91FF90EF90DF900895EF2841F482E0A5
:1033C00090E0F8019183808384EF9FEFEECFF98046
:1033D0000E94E30D4F2D50E0BE016E5F7F4F0E94B3
:1033E000D42C89810E94520E81E090E0F8019183F3
:1033F000808390E080E0D9CF88E699E19093BA038A
:103400008093B90308958091B9039091BA03089508
:103410000895FC0111821082938382830895DB0159
:103420001D921C92DC011296ED91FC911397718311
:10343000608313967C936E9312970895FC018081AC
:103440009181DB018D939C93A081B181109741F014
:103450008D919C9191838083892B11F4F383E28376
:103460000895FC0180819181DB018D939C93892BD0
:1034700011F473836283718360830895FC01118268
:103480001082938382830895CF93DF931F921F92BC
:10349000CDB7DEB71A821982F894BE016F5F7F4FF5
:1034A00080EC93E0CBDF89819A81009709F017D3F4
:1034B00089819A81892B89F7BE016F5F7F4F84ECE8
:1034C00093E0BCDF89819A81009709F008D3898154
:1034D0009A81892B89F778940F900F90DF91CF9183
:1034E0000895CF93DF931F921F92CDB7DEB71A8254
:1034F0001982F894BE016F5F7F4F8CEB93E09EDFE3
:1035000089819A81009709F0EAD289819A81892B71
:1035100089F778940F900F90DF91CF91089581E013
:10352000089590E080E00895EF92FF920F931F932B
:10353000CF93DF931F921F92CDB7DEB71A82198205
:103540008091BB0307EF1FEF8823A1F1F894BE0120
:103550006F5F7F4F84EC93E071DF789489819A816B
:10356000EE24E394F12C892B51F4F894BE016F5FA3
:103570007F4F80EC93E062DF7894F12CE12C89811D
:103580009A810EEF1FEF0097A9F0FC014281538151
:1035900064E070E075D68C01892B61F0F894698144
:1035A0007A81C701880F991F880F991F80549C4FFB
:1035B00058DF7894C8010F900F90DF91CF911F9141
:1035C0000F91FF90EF9008950F931F93CF93DF9388
:1035D00000D01F92CDB7DEB71C821B821A821982DF
:1035E0008091BB0307EF1FEF8823C1F0AE014D5F51
:1035F0005F4F64E070E0CE010196B5D68C01892B57
:1036000069F4E981FA818B819C8193838283F894A8
:1036100069817A818CEB93E002DF7894C8010F9086
:103620000F900F900F90DF91CF911F910F91089500
:10363000BAD7049608958F929F92AF92BF92CF927D
:10364000DF92EF92FF920F931F93CF93DF931F921E
:103650001F92CDB7DEB71A821982BC016F5F7F4F10
:103660006330710598F0AA24AA94BA2CC5010F9072
:103670000F90DF91CF911F910F91FF90EF90DF900E
:10368000CF90BF90AF909F908F90089541155105B6
:1036900051F3480159018A016C01CADF8815990567
:1036A00011F7E114F104F9F28E0D9F1DA816B90669
:1036B000D0F28091BB038823F1F0F894B5016450F7
:1036C00071099701AE014F5F5F4FC8010496E0D6C4
:1036D0005C01892B71F489819A81F801938382833B
:1036E000C601880F991F880F991FB80180549C4FFD
:1036F00096DE7894BBCF87EFA82EBB24BA94B6CFC2
:10370000AF92BF92CF92DF92EF92FF920F931F93EF
:10371000CF93DF931F921F92CDB7DEB71A82198223
:10372000892B09F047C06115710509F443C04115A3
:10373000510509F43FC02115310509F43BC00115BD
:103740001105C1F18091BB038823B9F179016A01A8
:103750005B01F894BE016F5F7F4F8CEB93E06EDEF0
:10376000789489819A81009759F1DC0112966D91C4
:103770007C91A8010496A5D68C01E981FA81D50136
:10378000ED93FC93828193810496F601918380836B
:103790004FDFD7018D939C93C8010F900F90DF915D
:1037A000CF911F910F91FF90EF90DF90CF90BF903E
:1037B000AF9008950FEF1FEFEFCF07EF1FEFECCFA4
:1037C0000EEF1FEFE9CFCF93DF93EC01672B71F47E
:1037D000F3D68C179D0760F0E6D62496C80FD91F44
:1037E000E5D68C0F9D1FDF91CF910895E2D6F1CFE2
:1037F00090E080E0F8CF0F931F93CF93DF93209159
:10380000BB0321112BC08B01EC0180EC93E001DEA6
:1038100084EC93E0FEDD8CEB93E0FBDD97D000972A
:10382000C1F4CAD670E060E0CEDF4BE152E062E066
:1038300070E081D1009769F480911B0290911C0285
:10384000CDD6B801CE0102D5009719F421E020931E
:10385000BB03DF91CF911F910F91089584EF9FEFEC
:10386000F8CFA7C6A9C6CF93DF93A9D6EC01892BC1
:1038700011F40ADE36DECE01DF91CF910895CF93A9
:10388000DF939DD6EC01892B09F4FEDDCE01DF919B
:10389000CF91089580911B0290911C020895CF93BF
:1038A000DF938091BB03D0E0C0E08823D1F09BD6AA
:1038B000EC01892BB1F4E8DD14DE80911B029091BC
:1038C0001C02E7D1E8D2EC01892B59F480EC93E09B
:1038D000D5DD84EC93E0D2DD8CEB93E0CFDD10926C
:1038E000BB03CE01DF91CF910895EF92FF920F932A
:1038F0001F93CF93DF93EC017A018B010F5F1F4F72
:103900000E9DA0010F9D500D1E9D500D112470E0C5
:1039100060E00E94DD2C90E080E0F0E0E0E02FEF3E
:10392000E816F90639F4DF91CF911F910F91FF90BE
:10393000EF9008951A8219822883309711F0D2836C
:10394000C1830196FE01C00FD11FEACFCF92DF9253
:10395000EF92FF920F931F93CF93DF930DEC14E040
:103960000C7F43E050E06DE172E083E292E01BD413
:103970008DE1E82E82E0F82E93E2C92E92E0D92E56
:10398000C4E3D5E0D7014D915D917D01F6016191D0
:1039900071916F01198308835D834C835B834A8334
:1039A0007F836E839B012F5F3F4F249FC001259F24
:1039B000900D349F900D112499878887011511056A
:1039C00011F0C80192DF88859985080F191F2A9682
:1039D000F3E2EF16F2E0FF06A9F6EAECF3E080E08E
:1039E00091E0DF019C011D9221503040E1F71092DF
:1039F000C9031092C80310925305109252051092F9
:103A000057051092560510925505109254051092C4
:103A100059051092580510925B0510925A051092A4
:103A20005D0510925C051092610510926005109280
:103A30005F0510925E051092630510926205109268
:103A400065051092640510923105109230051092B0
:103A500033051092320590E080E0DF91CF911F9105
:103A60000F91FF90EF90DF90CF9008950097F1F0C5
:103A7000F894A3E2B2E0E4E3F5E030E020E04D9119
:103A80005D9148175907A8F04281538141155105AE
:103A900081F08AE0829FF001839FF00D1124EC5C9D
:103AA000FA4F80819181009759F4789490E080E0FA
:103AB00008952F5F3F4F3A962330310501F7F5CF38
:103AC000DC0111966D917C917183608341505109A5
:103AD00053834283FC012193CF017894089500978A
:103AE00049F1DC018E91853041F4E0913205F0918D
:103AF00033053097F9F0CD0119948530D8F4282F8B
:103B000030E0F8948FEF8C938AE0829FF001839FDE
:103B1000F00D1124EC5CFA4F8081918112969C93F8
:103B20008E931197B183A0838281938101969383B1
:103B3000828378940895CF92DF92EF92FF920F9351
:103B40001F93CF93DF939C018DEC93E08C7F411505
:103B5000510509F49BC02115310509F497C0611581
:103B6000710509F493C07A01AB01B9016D5F7F4F14
:103B70006C7F9B012F5F3F4F249F8001259F100D7D
:103B8000349F100D1124F894209152053091530563
:103B9000232B59F420915A0530915B0521153105ED
:103BA00069F12017310708F058C020915C05309169
:103BB0005D05232B91F420915A0530915B05820F0E
:103BC000931F20916405309165052115310509F495
:103BD00041C02017310708F056C07894CFEFDFEFCF
:103BE00086EF9FEFF701D183C083DF91CF911F91C3
:103BF0000F91FF90EF90DF90CF900895C3E0D0E059
:103C0000C090C803D090C9032DEF30E02C193D09B6
:103C10002017310710F32AE02C9FF0012D9FF00DA3
:103C20001124EC5CFA4F9183808355834483538342
:103C300042837783668311870087009709F055DEFA
:103C40000C0D1D1D1093C9030093C803789490E0D8
:103C500080E0C8CFC4E0D0E0D3CFC3E0D0E02AE01A
:103C60002C9FF0012D9FF00D1124EC5CFA4F9183F5
:103C7000808355834483538342837783668300978D
:103C800029F333DEE3CFC4E0D0E0E9CF8FEF9FEF3D
:103C9000ACCF9C010397029708F069C0F89484E0C8
:103CA0009AE0482F50E0241735070CF44DC091E0FE
:103CB0008AE0829FF001839FF00D1124EC5CFA4FA3
:103CC0001182108215821482138212821782168248
:103CD0009923B1F18091520590915305892BA9F454
:103CE00020915A0530915B052115310571F08091C5
:103CF000C8039091C903821B930B9093C9038093CF
:103D0000C80310925B0510925A0580915C05909152
:103D10005D05892BA9F42091640530916505211575
:103D2000310571F08091C8039091C903821B930BF8
:103D30009093C9038093C80310926505109264059F
:103D4000789490E080E00895949FF001959FF00DA5
:103D50001124EC5CFA4F40815181452B31F44085B0
:103D60005185452B11F481509CCF90E0A1CF8FEF6E
:103D70009FEF08954115510549F1009739F16115FB
:103D8000710521F1F8942091300530913105232BF4
:103D9000B9F42091320530913305232B89F49093A7
:103DA0003105809330057093330560933205789424
:103DB00025E030E090E080E0FA013183208308952F
:103DC00078942FEF3FEF86EF9FEFF6CF8FEF9FEFC7
:103DD0000895059769F4F894109231051092300512
:103DE0001092330510923205789490E080E00895A7
:103DF0008FEF9FEF08956115710519F4F0E0E0E091
:103E000011C08530910581F4E0913005F0913105C4
:103E10003097A1F3CB0101961995009779F3FC0136
:103E200085E08193CF0108959C0123503109223010
:103E3000310520F72AE0289FD001299FB00D1124D9
:103E4000AC5CBA4F2D913C911197232BB9F2169689
:103E50002D913C9117972617370780F2F894129608
:103E60002D913C9113972115310529F0ED91FC918D
:103E70001197309711F47894C1CF418152811196F6
:103E80005C934E932150310913963C932E931297D5
:103E900081937894C7CFEAECF4E086E6DF011D92C7
:103EA0008A95E9F7EAECF3E080E091E0DF019C011C
:103EB0001D9221503040E1F71092C9031092C803BF
:103EC000E4E3F5E082E3DF011D928A95E9F7E0E3A0
:103ED000F5E084E0DF011D928A95E9F790E080E04B
:103EE0000895CF93DF93C0912902D0912A02CF3F4A
:103EF000DC0759F420D490932A028093290297FF7B
:103F000009C0D0932A02C093290284EF9FEFDF916A
:103F1000CF91089590E080E0FACF8230910528F4A7
:103F20008093660590E080E008958FEF9FEF0895FD
:103F30004F925F926F927F92AF92BF92CF92DF9239
:103F4000EF92FF920F931F93CF93DF931F921F92D5
:103F5000CDB7DEB71A821982009709F479C06115CE
:103F6000710509F475C02091290230912A0207EFEA
:103F70001FEF2F3F3F4F09F445C06B015C01412CFF
:103F8000512C3201F12CE12C10E000E09E012F5F5A
:103F90003F4FA6014E195F09B5016E0D7F1D80913F
:103FA000290290912A0226D4892B09F04BC08981DD
:103FB0009A81009741F4E114F10429F420916605F7
:103FC000222309F442C0E80EF91EEC14FD04D0F4DB
:103FD00080E8481684E858068EE16806710420F5EA
:103FE00060E070E0CB010E9421282AE0420E511CC3
:103FF000611C711C0A3F4FEF140721F0043F8FEF43
:104000001807A1F4C8010F900F90DF91CF911F9175
:104010000F91FF90EF90DF90CF90BF90AF907F9087
:104020006F905F904F90089501EF1FEF81E090E057
:10403000013F2FEF120711F090E080E0892B09F487
:10404000A5CFE0CF04EF1FEFDDCF0AEF1FEFDACFF0
:104050000FEF1FEFD7CF4F925F926F927F92AF9289
:10406000BF92CF92DF92EF92FF920F931F93CF9365
:10407000DF931F921F92CDB7DEB71A821982009785
:1040800009F478C06115710509F474C02091290202
:1040900030912A0207EF1FEF2F3F3F4F09F444C032
:1040A0006B015C01412C512C3201F12CE12C10E010
:1040B00000E09E012F5F3F4FA6014E195F09B50139
:1040C0006E0D7F1D8091290290912A0249D3892B80
:1040D00009F04AC089819A81009741F4E114F10402
:1040E00029F420916605222309F441C0E80EF91E47
:1040F000EC14FD04C8F480E4481682E458068FE00E
:104100006806710418F560E070E0CB019AD72AE0E8
:10411000420E511C611C711C0E3F4FEF140721F021
:10412000043F8FEF1807A1F4C8010F900F90DF91A3
:10413000CF911F910F91FF90EF90DF90CF90BF90A4
:10414000AF907F906F905F904F90089502EF1FEFB8
:1041500081E090E0023F2FEF120711F090E080E045
:10416000892B09F4A6CFE0CF04EF1FEFDDCF0EEFD0
:104170001FEFDACF0FEF1FEFD7CF80912902909179
:104180002A028F3F980749F0CED2892B49F48FEF4E
:104190009FEF90932A028093290290E080E0089597
:1041A00084EF9FEF0895CF92DF92EF92FF920F93EB
:1041B0001F93CF93DF9321E04115510509F020E0D3
:1041C0004150510921112CC0DC01FB01D12CC12C23
:1041D00021E022C03FEFC31AD30A7D010D911D914A
:1041E000E701EA80FB80E016F106A8F42081318126
:1041F000E280F380F182E08233832283ED90FC90B1
:1042000011979D0122503109E901F982E882119646
:104210001C930E9320E03296C416D506D8F2D2CF66
:10422000DF91CF911F910F91FF90EF90DF90CF9092
:104230000895FC01680F791F90E080E0E617F7070A
:1042400009F408952191820F911DF8CF20916705FF
:10425000211113C046DE009791F410926D05109263
:104260006C0510926B0510926A0510926905109208
:10427000680521E020936705089584EF9FEF089576
:10428000AF92BF92CF92DF92EF92FF920F931F9364
:10429000CF93DF93009709F460C04630510508F4CE
:1042A0005CC020916705C7EFDFEF222309F449C006
:1042B0008C01060F171FF801C080D180C114D104F2
:1042C00009F44EC096012A5F3F4F4217530708F486
:1042D00047C07C0180916C0590916D05938382832A
:1042E000B6016C5F7F4F5801A60EB71EC801A1DF53
:1042F000F5019183808364E070E0C80119DEEC0170
:10430000892BF9F481E090E008DEB601C80104963B
:104310000FDEEC01892B91F462E070E0C50108DE4C
:10432000EC01892B59F4C701DADB80916C0590917F
:104330006D05019690936D0580936C0590E080E08B
:10434000ECDDCE01DF91CF911F910F91FF90EF90A7
:10435000DF90CF90BF90AF900895CFEFDFEFF1CF18
:10436000C9EFDFEFEECF6F927F928F929F92AF9265
:10437000BF92CF92DF92EF92FF920F931F93CF9352
:10438000DF9300D01F92CDB7DEB7009709F47AC053
:104390004115510509F476C02091670507EF1FEF1D
:1043A000222309F44DC03A017B015C0164E070E016
:1043B000CE01019650DE8C01892B09F041C00981A4
:1043C0001A810115110509F45AC0480186E0880ECA
:1043D000911CB701680D791D80912B0290912C02E0
:1043E0000ADD6C01009709F450C0A70170E060E09D
:1043F0000E94DD2C89819A81AB81BC81EC0CFD1C73
:10440000F70181939193A193B1937F0181E090E0B3
:1044100084DDB801C7011FDE892B31F562E070E051
:10442000C701800F911F17DE8C01892BE9F490E002
:1044300080E073DDF501D182C082F3019182808238
:10444000C8010F900F900F900F90DF91CF911F91A7
:104450000F91FF90EF90DF90CF90BF90AF909F9023
:104460008F907F906F90089590E080E056DDF50189
:1044700011821082F30111821082C60130DB09EF34
:104480001FEFDECF0FEF1FEFDBCF06EF1FEFD8CF11
:104490000097A1F04115510589F02115310571F002
:1044A000F90136966E177F0748F0DC012D933C9397
:1044B000DA01ED93FC9390E080E008958FEF9FEF99
:1044C0000895AF92BF92CF92DF92EF92FF920F9337
:1044D0001F93CF93DF93009709F45FC041155105F7
:1044E00009F45BC06530710508F457C02091670579
:1044F000C7EFDFEF222391F1DC01CD90DC90119723
:104500001296ED91FC9196012A5F3F4FC9EFDFEFC4
:104510002617370719F5C0916805D09169052097CE
:1045200049F521E030E030936905209368057A0170
:104530008C01F0936B05E0936A055601B4E0AB0E75
:10454000B11CB50176DE0A0D1B1DF80120813181F9
:104550008217930729F5D701CD92DC92CE01DF9126
:10456000CF911F910F91FF90EF90DF90CF90BF9070
:10457000AF90089520916A0530916B052F5F3F4FF2
:10458000CCEFDFEFE217F30790F2CBEFDFEF2E1760
:104590003F0768F2D0E0C0E0CACFCFEFDFEFDECF59
:1045A000C3EFDFEFDBCF84E090E0089582E090E09E
:1045B00008958CEF9FEF089580E290E008951092A7
:1045C0006D0510926C0510926B0510926A051092A1
:1045D00069051092680590E080E0089590932C02A0
:1045E00080932B02089580916705882391F0C5DDA3
:1045F000009789F410926D0510926C0510926B056E
:1046000010926A051092690510926805109267056C
:10461000089590E080E00895009749F061157105D4
:1046200031F0FC0111821082FB0111821082089589
:10463000F3CF26E030E040E855E260E070E090E043
:1046400080E000C08130910569F01CF4892B39F0BD
:1046500008958230910549F0039751F0089583E859
:1046600095E08DC680E296E0FCCF8DEB96E0F9CF29
:104670008AE597E0F6CF089580E00895CF92DF9223
:10468000EF92FF920F931F93B7D460936E057093D0
:104690006F058093700590937105009172051091DC
:1046A000730520917405309175056B017C01C01A6A
:1046B000D10AE20AF30A9701860100311742210567
:1046C000310508F16093720570937305809374054A
:1046D00090937505A3D090D4009172051091730545
:1046E0002091740530917505601B710B820B930B43
:1046F000603177428105910570F081E090E0909300
:1047000079058093780581E01F910F91FF90EF90DC
:10471000DF90CF9008951092790510927805F3CF2D
:1047200010927605089568EE73E080E090E089D4F9
:1047300090E080E0089526E030E040E050E16EE057
:1047400070E090E080E07EDF83E895E04ED5892B35
:1047500021F083E895E063D5F7CF90E080E00895FD
:10476000CF92DF92EF92FF920F931F93CF93DF933D
:104770006B017A01E9011982188283E895E035D549
:10478000892B69F18601CC24C39482E0D82E8091D4
:104790007605811110C083E895E041D50297B9F7FD
:1047A000C0927605F801D1928F0188819981019696
:1047B00099838883ECCF888199818E159F0578F441
:1047C00083E895E02CD58F3F9807A9F3F8018193F2
:1047D0008F0188819981019699838883ECCF90E03D
:1047E00080E0DF91CF911F910F91FF90EF90DF90CC
:1047F000CF9008950F931F93CF93DF93EA01890120
:1048000083E895E00E944F2CF801D183C08390E0AB
:1048100080E0DF91CF911F910F910895CF92DF92A9
:10482000EF92FF928091770591E0980F9093770532
:10483000882369F021E030E03093790520937805F2
:1048400080937705FF90EF90DF90CF900895E091EF
:104850003E02F0913F02C28CD38CE48CF58C0E9416
:104860002404B701A60190E080E00E9497038091A4
:1048700077058150E5CF0F931F93CF93DF9310926D
:104880000A081092090813D4D4DEC0913E02D091D8
:104890003F021982188260ED77E080E090E00E948C
:1048A000190470E060E090E080E00E949C020097B4
:1048B00009F039C00E947F04F8947894BE016E5DBF
:1048C0007F4F8A819B810E949F02892B59F46FEF51
:1048D0007FEFCB010E942E030E941304882311F066
:1048E00081E08EA3F894C7DE0E941604882311F09D
:1048F00080E008C00E9413048111FACF81E09EA1DC
:104900009111F6CF809309080E94300B8C017894A6
:104910008091090881110CC00E94F8040E94F903DB
:10492000F89490E080E0DF91CF911F910F9108956E
:104930000E94F7030E9416048823D9F081E0809337
:104940000A0890910A0881E0911180E0809309089B
:1049500080910A08811190DE0130110529F40E942E
:10496000300B892B09F4DCDE0E94300B8C0186DED3
:10497000CFCF0E9413048111E1CF81E09EA191115C
:10498000DECF80E0DCCF40D008F481E00895E894E9
:1049900009C097FB3EF490958095709561957F4F87
:1049A0008F4F9F4F9923A9F0F92F96E9BB27939535
:1049B000F695879577956795B795F111F8CFFAF445
:1049C000BB0F11F460FF1BC06F5F7F4F8F4F9F4F76
:1049D00016C0882311F096E911C0772321F09EE8D4
:1049E000872F762F05C0662371F096E8862F70E03A
:1049F00060E02AF09A95660F771F881FDAF7880F14
:104A00009695879597F90895990F0008550FAA0B69
:104A1000E0E8FEEF16161706E807F907C0F01216D1
:104A20001306E407F50798F0621B730B840B950BD4
:104A300039F40A2661F0232B242B252B21F4089529
:104A40000A2609F4A140A6958FEF811D811D0895C6
:104A5000DBDF08F48FEF08950BD078C069D028F021
:104A60006ED018F0952309F05AC05FC01124A2C07F
:104A70007ED0A0F3959FD1F3950F50E0551F629F14
:104A8000F001729FBB27F00DB11D639FAA27F00DA7
:104A9000B11DAA1F649F6627B00DA11D661F829FCE
:104AA0002227B00DA11D621F739FB00DA11D621FB3
:104AB000839FA00D611D221F749F3327A00D611DD0
:104AC000231F849F600D211D822F762F6A2F1124B2
:104AD0009F5750408AF0E1F088234AF0EE0FFF1F05
:104AE000BB1F661F771F881F91505040A9F79E3F3C
:104AF000510570F014C05EC05F3FECF3983EDCF3EC
:104B0000869577956795B795F795E7959F5FC1F778
:104B1000FE2B880F911D9695879597F9089597F923
:104B20009F6780E870E060E008959FEF80EC089553
:104B300000240A941616170618060906089500247C
:104B40000A9412161306140605060895092E0394F6
:104B5000000C11F4882352F0BB0F40F4BF2B11F46A
:104B600060FF04C06F5F7F4F8F4F9F4F089557FDC9
:104B70009058440F551F59F05F3F71F04795880FCB
:104B800097FB991F61F09F3F79F087950895121662
:104B900013061406551FF2CF4695F1DF08C016160E
:104BA00017061806991FF1CF8695710561050894BF
:104BB0000895E894BB2766277727CB0197F90895D6
:104BC0000895883008F075C0E82FF0E0EE0FFF1F61
:104BD000E35DFD4F718360838150873008F03CC0F6
:104BE000E82FF0E08827E950FA4D8F4FBCC63426F5
:104BF000FE25062612261F2640264D268091690096
:104C00008C7F482B40936900E89A08958091690051
:104C1000837F440F551F440F551F482B4093690055
:104C2000E99A0895809169008F7C74E0440F551FC4
:104C30007A95E1F7482B40936900EA9A08958091AC
:104C400069008F7366E0440F551F6A95E1F7482BA2
:104C500040936900EB9A089580916A008C7F482BFD
:104C600040936A00EC9A089580916A00837F440F14
:104C7000551F440F551F482B40936A00ED9A089525
:104C800080916A008F7C24E0440F551F2A95E1F73C
:104C9000482B40936A00EE9A089580916A008F73C2
:104CA00096E0440F551F9A95E1F7482B40936A0010
:104CB000EF9A08951F920F920FB60F9211240BB620
:104CC0000F922F933F934F935F936F937F938F93A5
:104CD0009F93AF93BF93EF93FF93E0913102F091D5
:104CE00032021995FF91EF91BF91AF919F918F91F2
:104CF0007F916F915F914F913F912F910F900BBEDC
:104D00000F900FBE0F901F9018951F920F920FB625
:104D10000F9211240BB60F922F933F934F935F93F3
:104D20006F937F938F939F93AF93BF93EF93FF9373
:104D3000E0913302F09134021995FF91EF91BF9108
:104D4000AF919F918F917F916F915F914F913F9123
:104D50002F910F900BBE0F900FBE0F901F901895C4
:104D60001F920F920FB60F9211240BB60F922F9332
:104D70003F934F935F936F937F938F939F93AF93E3
:104D8000BF93EF93FF93E0913502F09136021995AE
:104D9000FF91EF91BF91AF919F918F917F916F9113
:104DA0005F914F913F912F910F900BBE0F900FBECF
:104DB0000F901F9018951F920F920FB60F9211240B
:104DC0000BB60F922F933F934F935F936F937F9305
:104DD0008F939F93AF93BF93EF93FF93E09137022D
:104DE000F09138021995FF91EF91BF91AF919F918A
:104DF0008F917F916F915F914F913F912F910F9084
:104E00000BBE0F900FBE0F901F9018951F920F9220
:104E10000FB60F9211240BB60F922F933F934F931F
:104E20005F936F937F938F939F93AF93BF93EF9312
:104E3000FF93E0912D02F0912E021995FF91EF91D1
:104E4000BF91AF919F918F917F916F915F914F91A2
:104E50003F912F910F900BBE0F900FBE0F901F90A0
:104E600018951F920F920FB60F9211240BB60F9246
:104E70002F933F934F935F936F937F938F939F9362
:104E8000AF93BF93EF93FF93E0912F02F091300225
:104E90001995FF91EF91BF91AF919F918F917F9164
:104EA0006F915F914F913F912F910F900BBE0F909B
:104EB0000FBE0F901F9018951F920F920FB60F9272
:104EC00011240BB60F922F933F934F935F936F93E1
:104ED0007F938F939F93AF93BF93EF93FF93E09153
:104EE0003902F0913A021995FF91EF91BF91AF917C
:104EF0009F918F917F916F915F914F913F912F91F2
:104F00000F900BBE0F900FBE0F901F9018951F9221
:104F10000F920FB60F9211240BB60F922F933F935F
:104F20004F935F936F937F938F939F93AF93BF93B1
:104F3000EF93FF93E0913B02F0913C021995FF91B2
:104F4000EF91BF91AF919F918F917F916F915F9101
:104F50004F913F912F910F900BBE0F900FBE0F906E
:104F60001F9018951F920F920FB60F9211242F9336
:104F70003F938F939F93AF93BF9380917B059091C5
:104F80007C05A0917D05B0917E0530917A0523E0E6
:104F9000230F2D3758F50196A11DB11D20937A05D9
:104FA00080937B0590937C05A0937D05B0937E054F
:104FB00080917F0590918005A0918105B091820537
:104FC0000196A11DB11D80937F0590938005A0934C
:104FD0008105B0938205BF91AF919F918F913F91D1
:104FE0002F910F900FBE0F901F90189526E8230F5A
:104FF0000296A11DB11DD2CF3FB7F89480917F05D5
:1050000090918005A0918105B091820526B5A89B5D
:1050100005C02F3F19F00196A11DB11D3FBFBA2F4A
:10502000A92F982F8827BC01CD01620F711D811D0A
:10503000911D42E0660F771F881F991F4A95D1F78F
:1050400008958F929F92AF92BF92CF92DF92EF928C
:10505000FF926B017C01D0DF4B015C01C114D104D4
:10506000E104F104D9F048D4C7DF681979098A0945
:105070009B09683E73408105910580F321E0C21AC7
:10508000D108E108F10888EE880E83E0981EA11C83
:10509000B11CC114D104E104F10431F7FF90EF9089
:1050A000DF90CF90BF90AF909F908F9008957894AD
:1050B00084B5826084BD84B5816084BD85B582601D
:1050C00085BD85B5816085BDEEE6F0E080818160BB
:1050D0008083E1E8F0E010828081826080838081BB
:1050E00081608083E0E8F0E0808181608083E1EB93
:1050F000F0E0808184608083E0EBF0E0808181607B
:105100008083E1E9F0E0808182608083808181603A
:105110008083E0E9F0E0808181608083E1EAF0E073
:10512000808182608083808181608083E0EAF0E01A
:10513000808181608083E1E2F1E080818260808310
:10514000808181608083E0E2F1E080818160808302
:10515000EAE7F0E0808184608083808182608083E0
:105160008081816080838081806880831092C1000B
:105170000895CF93DF9390E0FC01EC51FF4F249111
:10518000865D9E4FFC0184918823C9F090E0880FD2
:10519000991FFC01EC55FE4FA591B491FC01E65717
:1051A000FE4FC591D49161110DC09FB7F8948C91B9
:1051B000209582238C938881282328839FBFDF91A9
:1051C000CF910895623051F49FB7F8943C91822FAB
:1051D000809583238C93E8812E2BEFCF8FB7F894A3
:1051E000EC912E2B2C938FBFEACFFC01918D228D59
:1051F000892F90E0805C9F4F821B91098F739927C4
:105200000895FC01918D828D981731F0828DE80F01
:10521000F11D858D90E008958FEF9FEF0895FC01BB
:10522000918D828D981761F0A28DAE0FBF2FB11DA9
:105230005D968C91928D9F5F9F73928F90E0089501
:105240008FEF9FEF0895FC01538D448D252F30E0A3
:10525000842F90E0821B930B541710F0CF96089583
:1052600001970895FC01A48DA80FB92FB11DA35A71
:10527000BF4F2C91848D90E001968F739927848F76
:10528000A689B7892C93A089B1898C918370806499
:105290008C93938D848D981306C00288F389E02D3A
:1052A00080818F7D80830895CF93DF93EC01888D7B
:1052B0008823B1F0AA89BB89E889F9898C9185FD99
:1052C00003C0808186FD0CC00FB607FCF7CF8C9120
:1052D00085FFF2CF808185FFEDCFCE01C3DFEACF1E
:1052E000DF91CF910895EF92FF920F931F93CF9389
:1052F000DF93EC0181E0888F9B8D8C8D98131AC011
:10530000E889F989808185FF15C09FB7F894EE89F7
:10531000FF896083E889F989808183708064808354
:105320009FBF81E090E0DF91CF911F910F91FF909F
:10533000EF900895F62E0B8D10E00F5F1F4F0F7347
:105340001127E02E8C8D8E110BC00FB607FCFACF03
:10535000E889F989808185FFF5CFCE0183DFF2CF1F
:10536000EB8DEC0FFD2FF11DE35AFF4FF0829FB73D
:10537000F8940B8FEA89FB8980818062D0CFCF922D
:10538000DF92EF92FF921F93CF93DF93EC016A01BC
:105390007B01122FE889F98982E08083C11481EEB4
:1053A000D806E104F10499F060E079E08DE390E043
:1053B000A7019601B6D221503109410951095695EC
:1053C000479537952795211580E1380790F0E889B2
:1053D000F989108260E874E88EE190E0A7019601F7
:1053E000A0D2215031094109510956954795379569
:1053F0002795EC85FD853083EE85FF852083188E0B
:10540000EC89FD891083EA89FB8980818061808332
:10541000EA89FB89808188608083EA89FB898081B1
:1054200080688083EA89FB8980818F7D8083DF911A
:10543000CF911F91FF90EF90DF90CF9008951F9232
:105440000F920FB60F9211240BB60F922F938F93DA
:105450009F93EF93FF93E0919305F09194058081E2
:10546000E0919905F0919A0582FD1DC0908180918F
:105470009C058F5F8F7320919D05821741F0E0910D
:105480009C05F0E0ED57FA4F958F80939C05FF91B6
:10549000EF919F918F912F910F900BBE0F900FBEA8
:1054A0000F901F9018958081F2CF1F920F920FB628
:1054B0000F9211240BB60F922F933F934F935F934C
:1054C0006F937F938F939F93AF93BF93EF93FF93CC
:1054D00083E895E0C7DEFF91EF91BF91AF919F9177
:1054E0008F917F916F915F914F913F912F910F908D
:1054F0000BBE0F900FBE0F901F901895E3E8F5E0DC
:105500001382128288EE93E0A0E0B0E0848395835A
:10551000A683B78382EC92E09183808385EC90E050
:105520009587848784EC90E09787868780EC90E06D
:10553000918B808B81EC90E0938B828B82EC90E05E
:10554000958B848B86EC90E0978B868B118E128ED8
:10555000138E148E08951F920F920FB60F9211247E
:105560000BB60F922F938F939F93EF93FF93E0913E
:105570003006F09131068081E0913606F0913706D1
:1055800082FD1DC09081809139068F5F8F732091BD
:105590003A06821741F0E0913906F0E0E05EF94FFB
:1055A000958F80933906FF91EF919F918F912F9165
:1055B0000F900BBE0F900FBE0F901F90189580811B
:1055C000F2CF1F920F920FB60F9211240BB60F92CB
:1055D0002F933F934F935F936F937F938F939F93FB
:1055E000AF93BF93EF93FF9380E296E03BDEFF9192
:1055F000EF91BF91AF919F918F917F916F915F914B
:105600004F913F912F910F900BBE0F900FBE0F90B7
:105610001F901895E0E2F6E01382128288EE93E084
:10562000A0E0B0E084839583A683B78382EC92E008
:10563000918380838DEC90E0958784878CEC90E05B
:105640009787868788EC90E0918B808B89EC90E03F
:10565000938B828B8AEC90E0958B848B8EEC90E020
:10566000978B868B118E128E138E148E08951F9237
:105670000F920FB60F9211240BB60F922F938F93A8
:105680009F93EF93FF93E091CD06F091CE0680813A
:10569000E091D306F091D40682FD1DC090818091E7
:1056A000D6068F5F8F732091D706821741F0E09165
:1056B000D606F0E0E354F94F958F8093D606FF911C
:1056C000EF919F918F912F910F900BBE0F900FBE76
:1056D0000F901F9018958081F2CF1F920F920FB6F6
:1056E0000F9211240BB60F922F933F934F935F931A
:1056F0006F937F938F939F93AF93BF93EF93FF939A
:105700008DEB96E0AFDDFF91EF91BF91AF919F914F
:105710008F917F916F915F914F913F912F910F905A
:105720000BBE0F900FBE0F901F901895EDEBF6E09B
:105730001382128288EE93E0A0E0B0E08483958328
:10574000A683B78382EC92E09183808385ED90E01D
:105750009587848784ED90E09787868780ED90E039
:10576000918B808B81ED90E0938B828B82ED90E02A
:10577000958B848B86ED90E0978B868B118E128EA5
:10578000138E148E08951F920F920FB60F9211244C
:105790000BB60F922F938F939F93EF93FF93E0910C
:1057A0006A07F0916B078081E0917007F0917107B3
:1057B00082FD1DC09081809173078F5F8F73209150
:1057C0007407821741F0E0917307F0E0E65AF84F52
:1057D000958F80937307FF91EF919F918F912F91F8
:1057E0000F900BBE0F900FBE0F901F9018958081E9
:1057F000F2CF1F920F920FB60F9211240BB60F9299
:105800002F933F934F935F936F937F938F939F93C8
:10581000AF93BF93EF93FF938AE597E023DDFF916A
:10582000EF91BF91AF919F918F917F916F915F9118
:105830004F913F912F910F900BBE0F900FBE0F9085
:105840001F901895EAE5F7E01382128288EE93E044
:10585000A0E0B0E084839583A683B78382EC92E0D6
:105860009183808385E391E09587848784E391E049
:105870009787868780E391E0918B808B81E391E02D
:10588000938B828B82E391E0958B848B86E391E00E
:10589000978B868B118E128E138E148E0895AF9275
:1058A000BF92CF92DF92EF92FF920F931F93CF930D
:1058B000DF936C017B018B01040F151FEB015E016F
:1058C000AE18BF08C017D10759F06991D601ED9104
:1058D000FC910190F081E02DC6011995892B79F793
:1058E000C501DF91CF911F910F91FF90EF90DF9055
:1058F000CF90BF90AF9008950895AA1BBB1B51E1B4
:1059000007C0AA1FBB1FA617B70710F0A61BB70B2F
:10591000881F991F5A95A9F780959095BC01CD01D4
:105920000895A1E21A2EAA1BBB1BFD010DC0AA1FE0
:10593000BB1FEE1FFF1FA217B307E407F50720F0F8
:10594000A21BB30BE40BF50B661F771F881F991F73
:105950001A9469F760957095809590959B01AC01BC
:10596000BD01CF010895EE0FFF1F881F8BBF079069
:10597000F691E02D199409D0A59F900DB49F900D3C
:10598000A49F800D911D11240895A29FB001B39F83
:10599000C001A39F700D811D1124911DB29F700D38
:1059A000811D1124911D0895FB01DC0102C00190AD
:1059B0000D9241505040D8F70895DC0101C06D931D
:0C59C00041505040E0F70895F894FFCFEC
:1059CC00000080BFFEFFFFFF01E8030000FFFF00A7
:1059DC00000000FFFFFFFFFFFFFFFFFFFF010001C3
:1059EC00000100200038000800FFFFFFFFE025E069
:1059FC0025E025E025E025E025E025E02501110343
:105A0C00FF00850DB10DFE006B0DEC0AFD00FD0CC9
:105A1C00570DFC00430DEC0AF600340EEC0AF500B1
:105A2C000A0D730EF400FD0D8A0EDE00B1124A153C
:105A3C00DD002014EC0ADA005A106210D90065154A
:105A4C007210E200420FEC0AE1007D0FEC0AE0005C
:105A5C00F20FEC0AD6004819EC0AD500FF11EC0A3B
:105A6C00D4008B11EC0AD300FC10EC0AC00081109E
:105A7C00EC0AF000B119EC0AED006E19EC0A00000A
:105A8C00000073294F2C23295429F5280F290129AB
:00000001FF
