:1000000005C100000C948E350C94B9350C94E43580
:100010000C940F360C943A360C9465360C9490364A
:100020000C94BB3624C1000022C1000020C1000096
:100030001EC100001CC100001AC1000018C1000050
:1000400016C1000014C1000012C1000010C1000060
:100050000EC100000CC100000AC100000C94E6367D
:1000600006C100000C94053B0C943B3B00C1000012
:10007000FEC00000FCC00000FAC00000F8C0000094
:10008000F6C00000F4C00000F2C00000F0C00000A4
:100090000C94913B0C94C73BEAC00000E8C0000000
:1000A000E6C00000E4C00000E2C00000E0C00000C4
:1000B000DEC00000DCC00000DAC00000D8C00000D4
:1000C000D6C00000D4C000000C9414310C941D3C28
:1000D0000C94533CCCC000000C94A93C0C94DF3C25
:1000E000C6C0000000000A0B02090C0D0E08070331
:1000F00004010000000000000000000000000000FB
:1001000000000000000000000000000000000000EF
:1001100012111000000000000000000000000000AC
:100120000000000000000000000001021020200874
:100130000810204010204080020102010804020142
:1001400001020408102040808040201008040201B1
:10015000800402018040201008040201080402010A
:100160000102040810204080010204081020408091
:1001700005050505070508080808020202020A0A23
:100180000808040404040101010101010101030341
:10019000030303030303040707070C0C0C0C0C0CEC
:1001A0000C0C0202020206060606060606060B0BE9
:1001B0000B0B0B0B0B0B000020002300260029006B
:1001C0002C002F003200000100000301060109018C
:1001D00000002200250028002B002E0031003400F2
:1001E00002010000050108010B01000021002400AC
:1001F00027002A002D003000330001010000040117
:1002000007010A01643BF03B7C3C083D11241FBE02
:10021000CFEFD1E2DEBFCDBF00E00CBF13E0A0E026
:10022000B2E0E8E9FBE700E00BBF02C007900D92E7
:10023000A43AB107D9F72AE0A4EAB3E001C01D92BD
:10024000A331B207E1F711E0C6E0D1E000E006C05B
:1002500021970109802FFE010E94993DC230D107EC
:1002600080E00807A9F70E941C320C94CA3DC8CE52
:10027000CF92DF92EF92FF920F931F93E82FF92F07
:1002800005C0015011092109310961F190819623BE
:100290009417B9F305C0015011092109310911F171
:1002A000908196239413F7CFC12CD12CE12CF12C03
:1002B0000AC08FEFC81AD80AE80AF80A0C151D05FB
:1002C0002E053F0579F080818623841791F36C2DEC
:1002D0007D2D8E2D9F2D1F910F91FF90EF90DF9020
:1002E000CF90089560E070E080E090E01F910F9162
:1002F000FF90EF90DF90CF900895611102C00C94B1
:100300004A396130E1F362E0FACF662319F061E027
:100310000C94863960E0FCCFCF92DF92EF92FF928F
:10032000CF93882351F16A017B01CFEFC80F20E002
:1003300030E0A901CB01B6010E94243318168CF0DD
:10034000C701B60190580E942D339B01AC016C2F60
:1003500070E090E080E0CF91FF90EF90DF90CF9041
:10036000B2C0C701B6010E9428338C2FCF91FF90F5
:10037000EF90DF90CF900C941038CF91FF90EF90DA
:10038000DF90CF9008950F931F938B019C0183E022
:1003900036952795179507958A95D1F70C551C4FDB
:1003A000462F477021E030E0F90102C0EE0FFF1F39
:1003B0004A95E2F7AF01F80120812423CB01019691
:1003C000211102C090E080E01F910F9108950F93DA
:1003D0001F938B019C0183E0369527951795079510
:1003E0008A95D1F7677081E090E001C0880F6A9527
:1003F000EAF7F801EC55FC4F2081452B31F480954C
:10040000822380831F910F910895822BFACF2F9220
:100410003F924F925F926F927F928F929F92AF9294
:10042000BF92CF92DF92EF92FF920F931F93CF93E1
:10043000DF93D62EC72E782E692E49015A01280146
:1004400061E08D2D0E944A39CD2DDC2D8E010F5F8C
:100450001F4FA8016D2D7C2D872D962DB8DF20E034
:1004600030E0A901C201B7010E94AC34181664F44F
:10047000C201B7010E942D332B01C501B4010E94B6
:100480002D33A201CE0123D0C801DF91CF911F915E
:100490000F91FF90EF90DF90CF90BF90AF909F9023
:1004A0008F907F906F905F904F903F902F90089526
:1004B000882341F08150682F70E090E080E050E0A8
:1004C00040E085CF0895862FB9010C9410389C0127
:1004D000FC01EC51FF4FE491E150E231E0F4F0E037
:1004E0008827EA58FD4F8F4F0C94993D88028F0260
:1004F0009202A902BE028B02D302DF02E302FA02D9
:100500000F0324033B0350038B0265037C03910319
:1005100084B5806884BD60E0822F0C94863984B5F0
:100520008062F8CF809180008C7F82608093800011
:1005300080918100807E8061682B60938100509360
:1005400087004093860080918000806880938000BF
:10055000E2CF809180008C7F8260809380008091C8
:100560008100807E8061682B6093810050938700BA
:1005700040938600809180008062E8CF8091800067
:100580008C7F82608093800080918100807E80617A
:10059000682B609381005093870040938600809180
:1005A00080008860D3CF8091B00080688093B000D5
:1005B0008091B100887F682B6093B100ACCF8091AF
:1005C000B0008062F3CF809190008C7F8260809336
:1005D000900080919100807E8061682B60939100F3
:1005E000509397004093960080919000806880938C
:1005F000900091CF809190008C7F826080939000DA
:1006000080919100807E8061682B6093910050936F
:10061000970040939600809190008062E8CF80918F
:1006200090008C7F82608093900080919100807E0A
:100630008061682B609391005093970040939600DF
:10064000809190008860D3CF8091A0008C7F8260E1
:100650008093A0008091A100807E8061682B6093D0
:10066000A1005093A7004093A6008091A00080684D
:100670008093A00050CF8091A0008C7F82608093F7
:10068000A0008091A100807E8061682B6093A10012
:100690005093A7004093A6008091A0008062E8CF0D
:1006A0008091A0008C7F82608093A0008091A10047
:1006B000807E8061682B6093A1005093A7004093D7
:1006C000A6008091A0008860D3CF809120018C7F0C
:1006D00082608093200180912101807E8061682B5F
:1006E00060932101509327014093260180912001BE
:1006F0008068809320010FCF809120018C7F8260E1
:100700008093200180912101807E8061682B60931D
:10071000210150932701409326018091200180629E
:10072000E8CF809120018C7F8260809320018091AE
:100730002101807E8061682B609321015093270105
:1007400040932601809120018860D3CFCF93DF931F
:10075000882349F0EB0181500E94ED37998388830B
:10076000DF91CF910895FB0111821082F9CF0F9391
:100770001F938B019C0183E036952795179507956C
:100780008A95D1F703551C4F462F477021E030E082
:10079000F90102C0EE0FFF1F4A95E2F7AF01F80121
:1007A00020812423CB010196211102C090E080E03A
:1007B0001F910F9108950F931F938B019C0183E06C
:1007C00036952795179507958A95D1F7677081E03B
:1007D00090E001C0880F6A95EAF7F801E355FC4FF5
:1007E0002081452B31F48095822380831F910F91C6
:1007F0000895822BFACFCF92DF92EF92FF92CF93A0
:10080000DF936B017C0160E086E3C816D104E1044C
:10081000F10490F486E38C0D0E944A39E60121969A
:10082000AE01C701B601C7DFCE01DF91CF91FF90C6
:10083000EF90DF90CF9008958C2DEECF882341F07C
:100840008150682F70E090E080E050E040E0B3CF4E
:100850000895CF93C62F61E00E944A3960E08C2F43
:10086000CF910C944A394F925F926F927F92AF92E0
:10087000BF92CF92DF92EF92FF920F931F93CF938D
:10088000DF935C01162FC42FD22F611104C061E0E9
:10089000842F0E944A3960E08C2F0E9486390E9482
:1008A00030372B013C010E943037641975098609E5
:1008B00097096630710581059105A8F361E08C2FD9
:1008C0000E9486390E9430372B013C01C02ED12C6A
:1008D000F12CE12C0E9430376419750986099709BB
:1008E000C616D706E806F906A8F760E08C2F0E9426
:1008F0008639111104C060E08D2F0E944A3920E42E
:1009000032E44FE050E061E08D2F0E94B339F501F1
:100910006083718382839383DF91CF911F910F91C5
:10092000FF90EF90DF90CF90BF90AF907F906F904F
:100930005F904F90089590E080E008950F931F938B
:10094000009709F489C06115710509F485C000910B
:10095000D7021091D8022091D9023091DA020E3FCD
:100960001F4F2F4F3F4F09F068C04FEF5FEFBA01A5
:100970004093D7025093D8026093D9027093DA0261
:100980004091D7025091D8026091D9027091DA0259
:10099000DC011296ED91FC9180819181A281B3815D
:1009A00080936C0490936D04A0936E04B0936F04D5
:1009B00084819581A681B7818093680490936904AE
:1009C000A0936A04B0936B0480859185A285B3855A
:1009D0008093640490936504A0936604B0936704C5
:1009E00084859585A685B78580936004909361047E
:1009F000A0936204B093630410925C0410925D04AF
:100A000010925E0410925F040E94F9148EE195E149
:100A10009093B7038093B6039093B9038093B80380
:100A20000E94E813009731F421E030E03093710424
:100A3000209370041F910F9108950091D702109197
:100A4000D8022091D9023091DA02DB010D931D9377
:100A50002D933C93139794CF8FEF9FEFEBCF8F9213
:100A60009F92AF92BF92CF92DF92EF92FF921F932D
:100A7000CF93DF934B015C011091730482E090E00F
:100A8000909371048093700481149104A104B104C3
:100A900041F480917304811104C080917204C1E01B
:100AA0008111C0E0C12CD12C760180917304811199
:100AB00006C080917204811102C0CC23D9F083E07A
:100AC00090E09093710480937004CC2381F1CCE981
:100AD000DFEF111102C00E948218CE01DF91CF9189
:100AE0001F91FF90EF90DF90CF90BF90AF909F90BD
:100AF0008F9008956AE070E080E090E00E945537A2
:100B000080E1C80E87E2D81EE11CF11C8FEF881629
:100B10009806A806B80631F0C1E08C149D04AE0416
:100B2000BF0408F0C0E080E00E941C14BECFD0E0FB
:100B3000C0E0CFCFCF92DF92EF92FF920F931F933F
:100B4000CF93DF938F3F910511F008F051C02091B2
:100B50007004309171042330310539F02091700414
:100B6000309171042130310531F424E030E03093CC
:100B70007104209370046A017B01EC0182309105BD
:100B8000A8F011E0AE01C701B6010E94E713AB0166
:100B9000BC01CE011123F9F0DF91CF911F910F918C
:100BA000FF90EF90DF90CF900C94AB1A8C01000F68
:100BB000111F0A541C4FD8018D919C91892B09F368
:100BC0000E94B51A0297E9F6D801ED91FC91CE0189
:100BD0001995182FD7CF0E94CD1A90E080E0DF91B1
:100BE000CF911F910F91FF90EF90DF90CF900895DC
:100BF0008FEF9FEFF4CF80E00C941C14CF93DF9322
:100C000086E090E090937104809370040E947514C4
:100C1000EC01E6EBF3E084E0DF011D928A95E9F751
:100C20000E941A181092710410927004CE01DF9184
:100C3000CF91089580917204089580915B04089586
:100C40006093D7027093D8028093D9029093DA020E
:100C500090E080E008958F929F92AF92BF92CF92E2
:100C6000DF92EF92FF928091F6098150823060F41A
:100C700083E08093F60980911D04882339F0813048
:100C800049F080911E0403C080E0F3CF81E080939F
:100C90001C0402C010921C04E0911C0484E0E89F34
:100CA000F0011124EA50FC4F81A592A5A3A5B4A59B
:100CB0008093180490931904A0931A04B0931B0412
:100CC0008FEF80931C04209108023091090240911B
:100CD0000A0250910B026091C1097091C209809182
:100CE000C3099091C4090E94AD326B017C01C0928E
:100CF000C109D092C209E092C309F092C40920E070
:100D000030E048EC52E40E94AC34181634F4C12CA4
:100D1000D12C80E8E82E8FE3F82EC701B6010E949F
:100D2000E512882341F18090050A9090060AA09070
:100D3000070AB090080A20E030E0A901C501B4011B
:100D40000E942433882331F120E030E040E85FE363
:100D5000C501B4010E942433811167C080E090E096
:100D6000A0E8BFE380937A0990937B09A0937C0964
:100D7000B0937D0917C0C701B6010E94A01281116E
:100D8000D2CF20E030E0A901C701B6010E94243390
:100D9000811126C010927A0910927B0910927C0969
:100DA00010927D0984E08093F609409110045091DF
:100DB0001104609112047091130440933B0450930A
:100DC0003C0460933D0470933E0481E090E0FF900A
:100DD000EF90DF90CF90BF90AF909F908F90AACE72
:100DE00020E030E040E450E4C701B6010E94B03397
:100DF0004B015C0120E030E0A9010E9424338823EC
:100E000049F220E030E0A901C701B6010E94243375
:100E100087FF9ACF20E030E040E450E4C501B40100
:100E20000E94AD324B015C0186CF80E090E0A0E0F3
:100E3000B0E498CF8F929F92AF92BF92CF92DF9201
:100E4000EF92FF928091F5098150823060F483E047
:100E50008093F50980912C04882339F0813049F082
:100E600080912D0403C080E0F3CF81E080932B04B8
:100E700002C010922B04E0912B0484E0E89FF00163
:100E80001124E25DFB4F80819181A281B381809327
:100E9000270490932804A0932904B0932A048FEF89
:100EA00080932B0420911402309115024091160278
:100EB000509117026091BD097091BE098091BF09E0
:100EC0009091C0090E94AD326B017C01C092BD09B6
:100ED000D092BE09E092BF09F092C00920E030E054
:100EE00048EC52E40E94AC34181634F4C12CD12CD6
:100EF00080E8E82E8FE3F82EC701B6010E94E512C4
:100F0000882399F06091050A7091060A8091070A7A
:100F10009091080A20E030E0A9010E942433811159
:100F20002DC080E090E0DC012DC0C701B6010E9419
:100F3000A0128111E7CF20E030E0A901C701B6017E
:100F40000E942433882369F320E030E040E050E43D
:100F5000C701B6010E94B0334B015C0120E030E0D4
:100F6000A9010E9424338823E1F220E030E0A901A6
:100F7000C701B6010E94243387FD2AC080E090E0BB
:100F8000A0E8BFE38093760990937709A09378094E
:100F9000B093790984E08093F50940911004509151
:100FA0001104609112047091130440933B04509318
:100FB0003C0460933D0470933E0482E090E0FF9017
:100FC000EF90DF90CF90BF90AF909F908F90B2CD79
:100FD00020E030E040E050E4C501B4010E94AD32B1
:100FE00099CFCF92DF92EF92FF926B017C019F77B6
:100FF00020E030E040E859E50E94243387FF2BC011
:1010000020E030E040E05FE3C701B6010E94AC346D
:1010100087FD0EC020E030E040E05FE3C701B6018D
:101020000E94AD32FF90EF90DF90CF900C949633FA
:1010300020E030E040E05FEBC701B6010E94AC3435
:10104000181684F420E030E0A901C701B6010E941F
:10105000B0346B017C01C701B601FF90EF90DF90C7
:10106000CF90089520E030E040E05FE3C701B60193
:101070000E94AC32FF90EF90DF90CF900C94113330
:101080008F929F92AF92BF92CF92DF92EF92FF9298
:101090000F931F93CF93DF9300D000D0CDB7DEB76F
:1010A0008091F4098150823008F4A2C280E08093DC
:1010B000F4098091F3098150823008F49BC280E0EA
:1010C0008093F3098091F2098150823008F494C230
:1010D00080E08093F2098091F1098150823008F418
:1010E0008DC280E08093F1098091F00981508230B7
:1010F00008F486C280E08093F0098091EF09815066
:10110000823008F47FC280E08093EF098091EE097D
:101110008150823008F478C280E08093EE0980919B
:10112000ED098150823008F471C280E08093ED09AE
:101130008091EC098150823008F46AC280E080938B
:10114000EC098091EB098150823008F463C280E0A1
:101150008093EB098091EA098150823008F45CC2E7
:1011600080E08093EA09C0900002D0900102E090F4
:101170000202F0900302A701960160918909709123
:101180008A0980918B0990918C090E9424338823CD
:1011900041F0C0928909D0928A09E0928B09F092BD
:1011A0008C096AE370E080E090E0E1DA90938809CE
:1011B0008093870943E050E0BE016B5F7F4FC6DA42
:1011C0002091D0023091D102AD81BE810E94A13D1B
:1011D00021E196958795779567952A95D1F7609344
:1011E0007E098091C90981111092C9090AE023E39F
:1011F00042E361E0CE01019636DB89809A80AB80C4
:10120000BC80C0907A09D0907B09E0907C09F09076
:101210007D09C0925209D0925309E0925409F0928C
:1012200055096091760970917709809178099091BC
:1012300079096093560970935709809358099093E0
:10124000590920E030E040E85FE30E942433811137
:10125000ECC18091B8029091B902A091BA02B0910C
:10126000BB0280935A0990935B09A0935C09B093E9
:101270005D098091EB09882309F4D4C1833009F01A
:10128000CDC181E090E08093EB09C0905A09D090E5
:101290005B09E0905C09F0905D0920E030E0A90175
:1012A000C701B6010E9424338111D9C160911C028B
:1012B00070911D0280911E0290911F020E94963330
:1012C0006B017C010E94E5128111CAC2C701B601FF
:1012D0000E94A0128111C4C220E030E040E853E433
:1012E000C701B6010E94B0336B017C0120E030E001
:1012F000A9010E94243387FFB6C2C701B6019058E6
:101300000E942D33619560937F0980912002909116
:101310002102A0912202B09123028093660990934A
:101320006709A0936809B0936909C090E609D09055
:10133000E709E090E809F090E909C701B6010E94C9
:101340005B334B015C0120912C0230912D024091C6
:101350002E0250912F020E94243387FF89C2F7FC8E
:1013600087C28091240290912502A0912602B0911B
:10137000270280936A0990936B09A0936C09B0933C
:101380006D0920E030E040E85FE360912802709151
:10139000290280912A0290912B020E94AC329B017B
:1013A000AC01C501B4010E94AC3487FD65C2109246
:1013B000E6091092E7091092E8091092E909809174
:1013C000F409882309F46AC2833009F063C281E01A
:1013D00090E08093F40960915E0970915F098091BB
:1013E000600990916109FDDD6B017C0120E030E036
:1013F00040E853E40E9424336FEF87FF0EC020E0E3
:1014000030E0A901C701B6010E94AC3460E087FD5D
:1014100004C0C701B6010E942D3389E00E948501F6
:1014200060916209709163098091640990916509E6
:10143000D8DD6B017C0120E030E040E853E40E94FD
:1014400024336FEF87FF0EC020E030E0A901C70111
:10145000B6010E94AC3460E087FD04C0C701B6014C
:101460000E942D3385E00E9485016BE070E080E0F2
:1014700090E00E94C3017C019093BC098093BB095A
:1014800060917F0970E090E080E00E945933AB01E9
:10149000BC01C7010E948C016091660970916709C7
:1014A00080916809909169099CDD6B017C0120E0C5
:1014B00030E040E853E40E9424336FEF87FF0EC012
:1014C00020E030E0A901C701B6010E94AC3460E021
:1014D00087FD04C0C701B6010E942D3381E20E943E
:1014E000850160916A0970916B0980916C099091F6
:1014F0006D0977DD6B017C0120E030E040E853E4CA
:101500000E9424336FEF87FF0EC020E030E0A90176
:10151000C701B6010E94AC3460E087FD04C0C7017A
:10152000B6010E942D338CE00E9485016091CC02AF
:101530007091CD028091CE029091CF0252DD6B016D
:101540007C0120E030E040E853E40E9424336FEF58
:1015500087FF0EC020E030E0A901C701B6010E945C
:10156000AC3460E087FD04C0C701B6010E942D3392
:101570008DE00E948501C0901004D0901104E0908D
:101580001204F09013048FEFC81AD80AE80AF80A78
:10159000C0921004D0921104E0921204F09213044D
:1015A000C701B6010E9459339B01AC01609114043C
:1015B0007091150480911604909117040E94B03424
:1015C00060930C0470930D0480930E0490930F04A9
:1015D00080911C04882309F406C4813009F407C4EF
:1015E00081E090911E04992309F4FEC380E0FCC3BE
:1015F00083E05DCD83E064CD83E06BCD83E072CD8D
:1016000083E079CD83E080CD83E087CD83E08ECD0C
:1016100083E095CD83E09CCD83E0A3CD082E000C24
:10162000990B31CE82E090E02ECEC0925A09D09232
:101630005B09E0925C09F0925D098091EA098823D8
:1016400059F0833029F481E090E08093EA091DCEBF
:10165000082E000C990BF9CF82E090E0F6CFC5017F
:10166000B4010E9459332EEA34ED43EB59E30E9452
:10167000B03420E030E040E05FE30E94B0344B0142
:101680005C0120E030E040E85FE3C701B6010E9462
:101690002433882309F49EC020E030E040E050E489
:1016A000C701B6010E942433811195CE8091B40206
:1016B0009091B502A091B602B091B70280936A09E9
:1016C00090936B09A0936C09B0936D092DEC3CECE1
:1016D0004CEC5DE3C501B4010E94243387FD81C257
:1016E00010917E0920E030E040E05FE3C501B401E5
:1016F0000E94243387FF3CC3809198029091990205
:10170000A0919A02B0919B02809366099093670919
:10171000A0936809B0936909C090D209D090D30909
:10172000E090D409F090D509C701B6010E945B335F
:101730004B015C012091A4023091A5024091A602C8
:101740005091A7020E94243387FFF9C2F7FCF7C229
:1017500080919C0290919D02A0919E02B0919F0267
:1017600080935E0990935F09A0936009B09361092B
:1017700020E030E040E85FE36091A0027091A102B8
:101780008091A2029091A3020E94AC329B01AC0115
:10179000C501B4010E94AC3487FDD5C21092D209B4
:1017A0001092D3091092D4091092D5098091D202D7
:1017B000189FC001112490937F098091EE0988231E
:1017C00009F4D3C2833009F0CCC281E090E0809369
:1017D000EE097FC22DEC3CEC4CEC5DE3C501B4019D
:1017E0000E94243387FD94C0F0907E0920E030E011
:1017F00040E05FE3C501B4010E94243387FD51C07E
:101800008091640290916502A0916602B091670296
:1018100080935E0990935F09A0936009B09361097A
:101820008091680290916902A0916A02B0916B0266
:101830008093660990936709A0936809B09369093A
:10184000F0927F098091F109882309F4AEC18330B9
:1018500009F4A8C1082E000C990B8093F109D2C09D
:10186000C12CD12C7601C701B6010E942D334BCD7E
:1018700080E090E0DC017DCD8FEFC81AD80AE80A3D
:10188000F80AC092E609D092E709E092E809F092DE
:10189000E90995CD082E000C990B9BCD82E090E0D4
:1018A00098CD8091D402F89EF02C1124F0928009FA
:1018B000F0927F098091500290915102A0915202C2
:1018C000B09153028093660990936709A0936809C9
:1018D000B0936909C090DE09D090DF09E090E0097B
:1018E000F090E109C701B6010E945B334B015C0136
:1018F00020915C0230915D0240915E0250915F0246
:101900000E94243387FDFEC080E090E0DC0104C12A
:101910008091380290913902A0913A02B0913B0235
:1019200080935E0990935F09A0936009B093610969
:101930008091D30280937F0980913C0290913D0277
:10194000A0913E02B0913F0280936609909367098F
:10195000A0936809B0936909C090E209D090E309A7
:10196000E090E409F090E509C701B6010E945B33FD
:101970004B015C01209148023091490240914A029A
:1019800050914B020E94243387FFA3C0F7FCA1C0F3
:101990008091400290914102A0914202B091430295
:1019A0008093720990937309A0937409B093750999
:1019B00020E030E040E85FE360914402709145022E
:1019C00080914602909147020E94AC329B01AC018B
:1019D000C501B4010E94AC3487FD7FC01092E209BA
:1019E0001092E3091092E4091092E5098091F3093D
:1019F000882309F484C0833009F07DC081E090E041
:101A00008093F3098091720990917309A0917409F0
:101A1000B09175098093620990936309A09364095A
:101A2000B0936509C090DA09D090DB09E090DC0939
:101A3000F090DD09C701B6010E945B334B015C01E8
:101A40002091740230917502409176025091770294
:101A50000E94243387FFACC0F7FCAAC080916C02BF
:101A600090916D02A0916E02B0916F0280936A090D
:101A700090936B09A0936C09B0936D0920E030E05E
:101A800040E85FE360917002709171028091720290
:101A9000909173020E94AC329B01AC01C501B4016C
:101AA0000E94AC3487FD88C01092DA091092DB09DD
:101AB0001092DC091092DD098091F009882309F465
:101AC0008DC0833009F086C081E090E08093F009FA
:101AD00082CC80E090E0DC0163CF9FEFC91AD90A85
:101AE000E90AF90AC092E209D092E309E092E40916
:101AF000F092E5097BCF082E000C990B81CF82E094
:101B000090E07ECFF7FC00CF809154029091550277
:101B1000A0915602B091570280935E0990935F099D
:101B2000A0936009B093610920E030E040E85FE3F2
:101B3000609158027091590280915A0290915B0213
:101B40000E94AC329B01AC01C501B4010E94AC34CF
:101B500087FD13C01092DE091092DF091092E00990
:101B60001092E1098091F2098823C9F0833099F439
:101B700081E090E08093F20945CF8FEFC81AD80A30
:101B8000E80AF80AC092DE09D092DF09E092E00983
:101B9000F092E109E7CF082E000C990BEBCF82E021
:101BA00090E0E8CF81E090E058CE82E090E055CE22
:101BB00080E090E0DC015ACF9FEFC91AD90AE90A08
:101BC000F90AC092DA09D092DB09E092DC09F092BE
:101BD000DD0972CF082E000C990B78CF82E090E0DF
:101BE00075CF8091800290918102A0918202B09184
:101BF000830280935E0990935F09A0936009B0937C
:101C000061098091D50280937F098091840290912F
:101C10008502A0918602B091870280936609909315
:101C20006709A0936809B0936909C090D609D0905C
:101C3000D709E090D809F090D909C701B6010E94F0
:101C40005B334B015C0120919002309191024091F5
:101C50009202509193020E94243387FF57C0F7FCF1
:101C600055C08091880290918902A0918A02B0911A
:101C70008B0280936E0990936F09A0937009B093C3
:101C8000710920E030E040E85FE360918C027091E0
:101C90008D0280918E0290918F020E94AC329B0146
:101CA000AC01C501B4010E94AC3487FD33C0109271
:101CB000D6091092D7091092D8091092D9098091AB
:101CC000EF098823C9F1833099F581E090E0809392
:101CD000EF0980916E0990916F09A0917009B09100
:101CE00071098093620990936309A0936409B0938A
:101CF00065098091EC09882309F472C0833009F0EA
:101D00006BC081E090E08093EC0965CB80E090E0CF
:101D1000DC01AFCF8FEFC81AD80AE80AF80AC092E0
:101D2000D609D092D709E092D809F092D909C7CF45
:101D3000082E000C990BCBCF82E090E0C8CF80E05A
:101D400090E0DC010DCD9FEFC91AD90AE90AF90A22
:101D5000C092D209D092D309E092D409F092D50969
:101D600025CD082E000C990B32CD82E090E02FCDCE
:101D70008091AC029091AD02A091AE02B091AF0201
:101D800080935E0990935F09A0936009B093610905
:101D90008091B0029091B102A091B202B091B302D1
:101DA0008093660990936709A0936809B0936909C5
:101DB00010937F098091ED09882359F0833029F42D
:101DC00081E090E08093ED0984CF082E000C990B00
:101DD000F9CF82E090E0F6CF082E000C990B93CF5C
:101DE00082E090E090CF81E080931D0402C01092C9
:101DF0001D0480911D0494E0899FF0011124EA5094
:101E0000FC4FC1A6D2A6E3A6F4A680931E048FEFD2
:101E100080931D0480912B04882349F0813059F070
:101E200081E090912D04992319F080E001C081E0B8
:101E300080932C0402C010922C0480912C0494E016
:101E4000899FF0011124E25DFB4FC082D182E282C2
:101E5000F38280932D048FEF80932C0426960FB687
:101E6000F894DEBF0FBECDBFDF91CF911F910F91D0
:101E7000FF90EF90DF90CF90BF90AF909F908F90AA
:101E800008958F929F92AF92BF92EF92FF920F931D
:101E90001F93CF9384E090E01CD380E090E0A0E813
:101EA000BFEB8093360490933704A0933804B0932B
:101EB00039048AE097EDA3E2BCE380931404909385
:101EC0001504A0931604B093170489ED9CECA4EFBD
:101ED000BBE68093FA039093FB03A093FC03B093BB
:101EE000FD0386E592E2A2EDBBE88093FE039093AA
:101EF000FF03A0930004B093010486EC9FEEA6E0DC
:101F0000B2E58093020490930304A0930404B09379
:101F100005048DE39EE6A1E2BEE88093060490935B
:101F20000704A0930804B09309048AEE93E0909309
:101F3000F9038093F8038AEB93E09093EB0380938B
:101F4000EA0381E193E09093BB038093BA039093FB
:101F5000BD038093BC039093BF038093BE03909313
:101F6000C1038093C0039093C3038093C2039093F3
:101F7000C5038093C4039093C7038093C60324EFE3
:101F800039E03093C9032093C8032EEE39E0309333
:101F9000CB032093CA032FEE39E03093CD03209377
:101FA000CC032DEE39E03093CF032093CE032CEEFB
:101FB00039E03093D1032093D00321EF39E03093FF
:101FC000D3032093D20322EF39E03093D50320933B
:101FD000D40323EF39E03093D7032093D60320EFC7
:101FE00039E03093D9032093D8039093DB03809397
:101FF000DA0326EF39E03093DD032093DC033093DE
:10200000DF032093DE0325EF39E03093E1032093D3
:10201000E0033093E3032093E2032BEE39E03093A7
:10202000E5032093E4032AEE39E03093E70320939D
:10203000E6039093E9038093E8038AE094E09093A9
:10204000EF038093EE038AEF93E09093ED03809388
:10205000EC038CE094E09093F1038093F0038FEF16
:1020600080931D0410921E0480932B0480932C04F3
:1020700010922D0440911F0450912004609121047E
:1020800070912204409318045093190460931A0429
:1020900070931B0480931C0480910C0290910D029C
:1020A000A0910E02B0910F028093C1099093C209D2
:1020B000A093C309B093C4098091040290910502D2
:1020C000A0910602B091070280937A0990937B0950
:1020D000A0937C09B0937D0943E050E06BE276E089
:1020E00080E00E94143580912C04882329F08130EF
:1020F00039F080912D0401C081E080932B0402C04F
:1021000010922B04E0912B0484E0E89FF00111244D
:10211000E25DFB4F80819181A281B381809327048E
:1021200090932804A0932904B0932A048FEF8093FE
:102130002B048091180290911902A0911A02B0917B
:102140001B028093BD099093BE09A093BF09B09371
:10215000C0098091100290911102A0911202B091D9
:1021600013028093760990937709A0937809B0932E
:10217000790943E050E06AE177E081E00E9414359C
:102180008091340290913502A0913602B0913702CD
:102190008093720990937309A0937409B0937509A1
:1021A00080917C0290917D02A0917E02B0917F028D
:1021B00080936E0990936F09A0937009B093710991
:1021C0008091BC029091BD02A091BE02B091BF026D
:1021D00080935E0990935F09A0936009B0936109B1
:1021E0008091C0029091C102A091C202B091C3023D
:1021F0008093620990936309A0936409B093650981
:102200008091D60280937F098091C4029091C5028B
:10221000A091C602B091C7028093660990936709A6
:10222000A0936809B09369098091C8029091C9028E
:10223000A091CA02B091CB0280936A0990936B0976
:10224000A0936C09B0936D091092810980910002EE
:1022500090910102A0910202B0910302809389093A
:1022600090938A09A0938B09B0938C09812C912CAF
:10227000540183948092820990928309A0928409E8
:10228000B09285096AE370E080E090E00E94FB0371
:102290009093880980938709C1E0C0938609809252
:1022A000C5099092C609A092C709B092C80963E314
:1022B00082E30E9429041092C9091092AD0980920C
:1022C000AE099092AF09A092B009B092B10961E055
:1022D00089E00E947D01C093B2091092A509809205
:1022E000A6099092A709A092A809B092A90961E055
:1022F00085E00E947D01C093AA091092B5098092E1
:10230000B6099092B709A092B809B092B909E12C28
:10231000F12C8701A80197016BE070E080E090E06C
:102320000E9407029093BC098093BB09C093BA092D
:1023300010929D0980929E0990929F09A092A009F7
:10234000B092A10961E081E20E947D01C093A209DF
:10235000109295098092960990929709A0929809F7
:10236000B092990961E08CE00E947D01C0939A09C6
:1023700010928D0980928E0990928F09A0929009F7
:10238000B092910961E08DE00E947D01C0939209B5
:10239000CF911F910F91FF90EF90BF90AF909F90C2
:1023A0008F9008958091810981111FC081E08093F1
:1023B00081098091820990918309A0918409B0914B
:1023C00085090197A105B10581F4809186098823CB
:1023D00061F06AE370E080E090E00E94B7039093C0
:1023E0008809809387090E941E048091AD0981119C
:1023F00003C081E08093AD098091A509811103C0DC
:1024000081E08093A5098091B50981112EC081E0FA
:102410008093B5098091B6099091B709A091B80948
:10242000B091B9090197A105B105F9F48091BA09F4
:102430008823D9F06BE070E080E090E00E94C30157
:102440009093BC098093BB0940E050E0BA010E9420
:102450008C016BE070E080E090E00E94C3019093FB
:10246000BC098093BB090E94580280919D0981118B
:1024700003C081E080939D0980919509811103C07B
:1024800081E08093950980918D09811103C081E0DD
:1024900080938D09089560E070E080E89FE70895DB
:1024A00060E070E080E89FE7089560E070E080E819
:1024B0009FEF089560E070E080E89FEF089560E08E
:1024C00070E080EC9FEF089560E070E080EC9FEF9B
:1024D0000895F5DF6093050A7093060A8093070A52
:1024E0009093080AF1DF6093F9097093FA098093D9
:1024F000FB099093FC09CFDF6093010A7093020AF5
:102500008093030A9093040ACBDF6093FD097093D4
:10251000FE098093FF099093000AC7DF6093090AC0
:1025200070930A0A80930B0A90930C0AC3DF60939E
:102530000D0A70930E0A80930F0A9093100A089563
:10254000CF92DF92EF92FF92CF936B017C01AC01AF
:102550009B016091010A7091020A8091030A909197
:10256000040A0E942433C1E0882371F0A701960178
:102570006091090A70910A0A80910B0A90910C0AE5
:102580000E9424338111C0E08C2FCF91FF90EF90F7
:10259000DF90CF9008950F931F938B019C0100272C
:1025A000112720783F770115110520483F4749F44E
:1025B000AB01BC016F77772781E0452B462B472B7A
:1025C00009F480E01F910F910895E5CF4F925F923B
:1025D0006F927F928F929F92AF92BF92CF92DF9233
:1025E000EF92FF920F931F93F89440904B045090FA
:1025F0004C0460904D0470904E04C0903F04D09005
:102600004004E0904104F0904204452B09F0A4C03E
:102610009B01AC01241935094609570929013A01E2
:1026200000914704109148042091490430914A04D4
:1026300048015901840C951CA61CB71C80169106F4
:10264000A206B306A0F40091430410914404209123
:102650004504309146040F5F1F4F2F4F3F4F0093AB
:10266000430410934404209345043093460480921D
:10267000470490924804A0924904B0924A04009101
:102680004304109144042091450430914604809203
:102690004F0490925004A0925104B09252040093BF
:1026A00053041093540420935504309356046093BC
:1026B0004B0470934C0480934D0490934E04A0E11E
:1026C000B7E2A30192010E94B03D6C0D7D1D8E1DED
:1026D0009F1D60933F047093400480934104909346
:1026E00042040091D7021091D8022091D902309172
:1026F000DA020F3F1F4F2F4F3F4FF1F00091D702EB
:102700001091D8022091D9023091DA020E3F1F4F6A
:102710002F4F3F4F89F0C090D702D090D802E09061
:10272000D902F090DA0221E08C149D04AE04BF04BB
:1027300008F420E020935B0478941F910F91FF90A0
:10274000EF90DF90CF90BF90AF909F908F907F9051
:102750006F905F904F9008954B015C01841895082D
:10276000A608B708A3019201261B370B480B590B8B
:102770006415750586059705D0F082169306A406A4
:10278000B50640F420E030E0A90181149104A104D1
:10279000B10491F4A0E1B7E20E94B03DA701960117
:1027A000261B370B480B590BCA01B901C5CF82163E
:1027B0009306A406B50670F7A0E1B7E2A50194015F
:1027C0000E94B03D6C0D7D1D8E1D9F1DB5CFFECEB0
:1027D000CF93DF9300D01F92CDB7DEB71C821B8250
:1027E0001A821982109257041092580410925904B8
:1027F00010925A04BE016F5F7F4FCE0103960E9474
:10280000E43069817A818B819C810E94D229009772
:1028100061F4BE016F5F7F4FCE0103960E94F030DE
:1028200069817A818B819C812ED50F900F900F90BA
:102830000F90DF91CF910895FF920F931F93CF9345
:10284000DF93082F60E070E0CB010E945537FF2432
:10285000F3940E94BB28EC01892B89F010E0CE3F55
:102860008FEFD80769F0002361F160E070E0CB01E1
:102870000E94553781E090E0892B59F322C011E086
:1028800025D5EC01892B21F0CE3F8FEFD80759F7E2
:1028900011111EC011E0229609F410E00E946B286D
:1028A000EC01892B21F0CE3F8FEFD807E1F6111113
:1028B00011C011E0CE3F8FEFD80709F410E00111ED
:1028C0000BC0CE01DF91CF911F910F91FF90089522
:1028D00011E0E4CF11E0F3CF60E070E0CB010E94A3
:1028E00055371F25812F90E0C7CFCF93DF9380917D
:1028F0005B04882321F060E070E0CB014CD635D634
:10290000D0E0C0E0892B71F06AE070E080E090E0F8
:102910000E94553781E090DF28D62196C03D27E000
:10292000D20781F727D60E94262A109273041092AC
:10293000720410926C0410926D0410926E04109246
:102940006F04109268041092690410926A04109245
:102950006B04109264041092650410926604109245
:102960006704109260041092610410926204109245
:10297000630410925C0410925D0410925E04109245
:102980005F044EEF5FEF6FEF7FEF4093D7025093FE
:10299000D8026093D9027093DA0210925B04EFE4DC
:1029A000F4E028E0DF011D922A95E9F710924B042C
:1029B00010924C0410924D0410924E041092470451
:1029C000109248041092490410924A041092430451
:1029D00010924404109245041092460410923F0451
:1029E000109240041092410410924204DF91CF9162
:1029F000089510927F041092800410928104109226
:102A0000820410927E0480918704909188049093B0
:102A10007D0480937C0410927B0410927A041092BF
:102A20007604109277041092780410927904109230
:102A300084041092830490E080E00895CF92DF92A6
:102A4000EF92FF920F931F93CF938C01892B09F084
:102A500055C0209187043091880480917C04909126
:102A60007D04409187045091880450937D044093E5
:102A70007C042817390781F010927B0410927A04A5
:102A800010927604109277041092780410927904D0
:102A9000109284041092830480918704909188049A
:102AA000019761F58091830490918404892B21F42E
:102AB0008091DB02811112C0809183049091840483
:102AC0000197E1F48091760490917704A0917804C5
:102AD000B09179040197A105B10581F410927604B3
:102AE0001092770410927804109279041092DB020D
:102AF00082E090E090938404809383048091870423
:102B000090918804019709F01CC180919D049091D7
:102B10009E048017910709F014C180919904909147
:102B20009A04A0919B04B0919C04009709F409C1F8
:102B30002091980421110DC04091990450919A045C
:102B400060919B0470919C04452B462B472B09F404
:102B5000F8C020918304309184042230310509F0BB
:102B6000F0C020917A042111ECC0FC01C080D1801A
:102B7000E280F38080917E04882309F4D3C08091A1
:102B80008A0490918B04892B09F4FDC020918A045A
:102B900030918B0481E02230310509F080E02091F2
:102BA0008A0430918B04C1E02130310549F0209135
:102BB0008A0430918B04C1E02230310509F0C0E075
:102BC000882309F456C020919404309195044091D3
:102BD000960450919704C701B6010E94AC3487FD5A
:102BE00014C0209194043091950440919604509122
:102BF000970460917F04709180048091810490918A
:102C000082040E94243387FD22C0209194043091D5
:102C100095044091960450919704C701B6010E9413
:102C2000AC34181634F520919404309195044091F9
:102C300096045091970460917F0470918004809174
:102C40008104909182040E942433811112C08091EA
:102C50008C0490918D04A0918E04B0918F04892BE7
:102C60008A2B8B2B19F481E080937B0481E0809385
:102C70007A04CC2309F456C0209194043091950431
:102C80004091960450919704C701B6010E942433E5
:102C900087FF14C0209194043091950440919604CC
:102CA0005091970460917F04709180048091810419
:102CB000909182040E94AC3487FF22C0209194043A
:102CC000309195044091960450919704C701B60144
:102CD0000E942433811126C02091940430919504E0
:102CE000409196045091970460917F047091800404
:102CF00080918104909182040E94AC34181694F45F
:102D000080918C0490918D04A0918E04B0918F04D9
:102D1000892B8A2B8B2B19F481E080937B0481E033
:102D200080937A0481E090917A04911180E08093FD
:102D30007E04C0927F04D0928004E0928104F092DD
:102D40008204012B09F067C180918304909184046F
:102D5000892BD9F41092890410927A048091DB02B5
:102D6000882379F082E090E0909384048093830438
:102D70001092DB02209187043091880481E0232B9C
:102D8000E9F080E01BC081E00ACF1092DB02809165
:102D90008904882349F010927B04109284041092D5
:102DA000830410928904EDCF809187049091880468
:102DB000892BE1F080917A0410927A0420918304A7
:102DC000309184042230310509F45EC088F4211565
:102DD000310509F448C02130310509F4F3C01092DF
:102DE0007B0410927A041092890438C081E0E6CF07
:102DF0002330310509F4B1C02430310581F7409109
:102E000076045091770460917804709179044115AB
:102E100051056105710561F0415051096109710960
:102E20004093760450937704609378047093790408
:102E30004091760450917704609178047091790400
:102E4000452B462B472BD9F42091850430918604DD
:102E50002130310509F046C010927B0410928404A1
:102E6000109283040CC08091DB02882341F082E041
:102E700090E090938404809383041092DB0210927C
:102E8000740480917B04CEC08823C9F380918C04A4
:102E900090918D04A0918E04B0918F04181619069C
:102EA0001A061B060CF07DC080918704909188045F
:102EB000019709F076C080918C0490918D04A091C7
:102EC0008E04B0918F048093760490937704A0933E
:102ED0007804B093790483E090E090938404809325
:102EE0008304CDCF4091900450919104609192045D
:102EF00070919304452B462B472BA9F010927B042D
:102F00008091900490919104A0919204B0919304C7
:102F10008093760490937704A0937804B093790417
:102F200081E090E0DACF882399F08091DC029091E3
:102F3000DD02A091DE02B091DF02809376049093CF
:102F40007704A0937804B093790484E090E0C5CF2F
:102F500010927B0482E090E0C0CF80917604909143
:102F60007704A0917804B09179040097A105B10588
:102F700059F00197A109B1098093760490937704E1
:102F8000A0937804B09379048091760490917704AB
:102F9000A0917804B0917904892B8A2B8B2B09F0AE
:102FA0006ECF8091DC029091DD02A091DE02B091A3
:102FB000DF02892B8A2B8B2B09F44ECF81E0809383
:102FC0007B04B3CF409176045091770460917804EC
:102FD00070917904411551056105710561F0415009
:102FE0005109610971094093760450937704609305
:102FF000780470937904409176045091770460913D
:10300000780470917904452B462B472B09F037CF74
:103010008111C7CF9FCF80917404882309F431CFE9
:1030200080917504CF911F910F91FF90EF90DF90E9
:10303000CF90089510927F04109280041092810422
:103040001092820410927E041092840410928304E1
:1030500010927D0410927C0410929E0410929D04A4
:1030600010927B0410927A041092760410927704E6
:1030700010927804109279041092750410927404DE
:103080001092990410929A0410929B0410929C043E
:103090001092980410929404109295041092960441
:1030A0001092970488EE93E0A0E0B0E08093DC02F9
:1030B0009093DD02A093DE02B093DF0210929004A1
:1030C00010929104109292041092930410928C0426
:1030D00010928D0410928E0410928F0410928B0423
:1030E00010928A0481E08093DB021092890410928E
:1030F000880410928704109286041092850490E050
:1031000080E008958091870490918804892B19F5B7
:103110008091DB02882351F080918904811106C0DF
:1031200081E080937504809374040895209189044C
:103130003091DB0281E090E0332311F090E080E0F9
:1031400030E082239323892B21F01092750481E0D3
:10315000EACF10927404089582E090E0FA0191831E
:1031600080838FEF9FEF0895CF93DF93EA0100975D
:1031700011F00E94462B1982188290E080E0DF91C6
:10318000CF910895DB01009719F48FEF8C93089588
:103190002EEF2C93FC013F96EF30F10508F034C080
:1031A0008827EA52F74E8F4F0C94993D0219001967
:1031B000FE18FC18FA18F618F818F418F218F01897
:1031C000ED18E918E518EB18041980E311968C93B3
:1031D000089589E2FBCF82E2F9CF11961C920895FF
:1031E00083E2F4CF81E2F2CF81E1F0CF87E2EECF4C
:1031F0008AE2ECCF80E1EACF84E2E8CF88E2E6CF52
:1032000086E2E4CF81E3E2CF80E2E0CF8091AB04BD
:103210009091AC0408959093AC048093AB0408950E
:103220008091AA0408959091AA04892B8093AA04FE
:103230000895982F90958091AA0489238093AA04D9
:1032400008958091A90408958091A7049091A804FD
:1032500008956115710559F0FB0130E020E070E040
:1032600060E02417350719F06115710511F0CB01E5
:103270000895A081B181A817B90709F4BF012F5F94
:103280003F4F3696EECF8091AD0481111CC060D2C5
:1032900066D29093A00480939F040E9444230E94CE
:1032A00056239093A4048093A3040E94D3270E94E2
:1032B000DA279093A2048093A10481E08093AD0467
:1032C00090E080E0089584EF9FEF08958F929F92A1
:1032D000AF92BF92CF92DF92EF92FF920F931F9324
:1032E000CF93DF9300D000D000D01F92CDB7DEB7D0
:1032F0001A86198618861F821E821D821C821B82D6
:103300001A8219828091AD0407EF1FEF882309F418
:103310009CC08E010D5F1F4F9E012B5F3F4FAE0182
:10332000495F5F4FBE01675F7F4F90E080E00E9482
:1033300057298C01009721F00596029708F0DBC011
:1033400029853A852115310509F402C1ED80FE80F9
:103350004B815C81B701640F751F8F81988586173B
:10336000970708F4F5C0E20EF31ED7019C91903C3C
:1033700009F07FC04230510508F47BC011968C9152
:103380004091AB045091AC04452B09F49CC0913F93
:1033900008F071C02CE1290F2D3008F48BC02DE20C
:1033A000290F203108F489C0903C21F481508230EB
:1033B00008F483C088E3890F8B3008F481C092EC55
:1033C000C92E98E1D92EECEAF8E16D817E81AE013B
:1033D0004F5F5F4F89859A8519955C01C114D104AF
:1033E000A1F189809A808114910479F18B819C816B
:1033F0008815990508F487C010E000E04B815C81D6
:1034000070E060E0C7010E94C33D01151105E9F4B9
:1034100049815A8169857A858D819E81680F791FDE
:10342000C501F6011995E980FA800D811E812F8171
:10343000388549855A856FEF7FEF81E090E00E94E3
:10344000F2288C01892B09F056C0C8012A960FB6C4
:10345000F894DEBF0FBECDBFDF91CF911F910F91CA
:10346000FF90EF90DF90CF90BF90AF909F908F90A4
:10347000089580E085CF30E020E0220F331FF9016E
:10348000E156FB4F0190F081E02D309709F497CF82
:10349000892F90E01995009709F491CFDC011296DD
:1034A000ED91FC9113971496CD90DC90309709F034
:1034B0008CCF1FC021E030E0E0CF22E030E0DDCF54
:1034C00023E030E0DACFD12CC12CE4EBF8E19F3FD0
:1034D00009F07BCFE0919F04F091A004309721F494
:1034E000C90104EF1FEF0CC08FEF90E01995009712
:1034F000A9F604EF1FEF89859A85009709F4A5CFF7
:103500000E94462BA2CF0E94212A8C0189859A8590
:103510000E94462B70E060E0C4010E94BA2998879F
:103520008F830E94EF289E838D836F81788561153C
:10353000710559F0C8010E94D22C9A87898706EF3D
:103540001FEF892B09F058CF59CF08EF1FEF56CF47
:1035500008EF1FEFD0CF2091AD04222319F020E017
:103560000C945B2387EF9FEF08958091AB049091BB
:10357000AC0408950E94DF270E943927F5D0EFE9B7
:10358000F4E088E0DF011D928A95E9F71092AD041E
:1035900090E080E008950C94972521E040E050E011
:1035A000BA010C945B2386E090E0FA01918380835A
:1035B00090E080E0089547E050E064E173E049CE98
:1035C000DF92EF92FF920F931F93CF93DF938A01C5
:1035D000EC01C60FD71FE090B104F090B204D9807F
:1035E0000E94092AD816190678F082E090E0F801C6
:1035F000918380838EEF9FEFDF91CF911F910F9189
:10360000FF90EF90DF900895EF2841F482E090E082
:10361000F8019183808384EF9FEFEECF89818093BF
:10362000B00490E00196F8019183808390E080E0FF
:10363000E3CFCF93DF93EA010E944826882321F04D
:103640000E94162A0E94492682E090E0998388838E
:103650008BEF9FEFDF91CF910895CF93DF93EB0135
:1036600086E0FB0111928A95E9F78FEF8883D8DD18
:103670008983E7DD8A83E8DD9D838C83DF91CF91A9
:103680000895CF93DF93EA010E944B26811109C070
:1036900082E090E09983888385EF9FEFDF91CF915F
:1036A000089590E080E0B7DD81E090E09983888321
:1036B00090E080E0F3CF0F931F93CF93DF93EA0165
:1036C0008C01060F171F0E944B2681110BC082E050
:1036D00090E09983888385EF9FEFDF91CF911F91D1
:1036E0000F910895F8018181823038F082E090E0F6
:1036F000998388838EEF9FEFF0CF81E090E08BDDA0
:1037000088E090E09983888390E080E0E6CFCF93D3
:10371000DF930097D1F4EB01FB01329686E0DF01E5
:103720001D928A95E9F78FEF888385E089831A8255
:103730000E94092A8B830E94082A9D838C8381E042
:103740008E838F83DF91CF910895DF91CF911ACD32
:103750008BED9AE19093AF048093AE04089580912D
:10376000AE049091AF0408951092AF041092AE048D
:1037700008958091B1049091B2040895411105C05B
:10378000611571058105910561F06093B104709335
:10379000B2048093B3049093B4044093B50481E0E1
:1037A000089580E00895FF920F931F93CF93DF93C6
:1037B0008A01EC01C60FD71FF9800E94092AF8166A
:1037C000190668F082E090E0F801918380838EEF23
:1037D0009FEFDF91CF911F910F91FF9008956C8122
:1037E0007D818E819F814B81C9DF811108C082E07C
:1037F00090E0F8019183808384EF9FEFEACF898185
:103800008093B00490E00196F8019183808390E06A
:1038100080E0DFCFCF93DF93EA01FC01E60FF71FD3
:1038200064817581868197814381A8DF811109C0F8
:1038300082E090E09983888384EF9FEFDF91CF91BE
:10384000089581E090E09983888390E080E0F6CF4E
:10385000E1EBF4E04081518162817381480F511D99
:10386000611D711D40835183628373830895CF93DB
:10387000C091B0044C2F50E06091B1047091B2043B
:1038800001960E94BA3D8C2FE3DF1092B004CF91D5
:103890000895009799F48091B1049091B2042FEFAC
:1038A000FB012083892B59F02091B00430E02F5F79
:1038B0003F4F2417350719F4CB01D9CF63CC0895B6
:1038C000009799F48091B1049091B2042FEFFB011D
:1038D0002083892B59F02091B00430E02F5F3F4FB7
:1038E0002417350719F4CB01C2CF4CCC089523E13E
:1038F000AC01249FC001259F900D1124E091BA04D2
:10390000F091BB04E80FF91F238134812250310963
:1039100081E02230310508F080E008950F931F9375
:10392000CF93DF930091BC041091BD04D0E0C0E0C0
:1039300080E00C171D0749F491E0811190E0892F78
:10394000DF91CF911F910F9108958111F5CFCE0195
:10395000CEDF2196EECFA091BA04B091BB041097B0
:1039600029F12091BC043091BD0482179307F0F433
:1039700053E1589F9001599F300D1124A20FB31F9E
:10398000ED91FC911197309789F012968C91681700
:1039900068F48DE0689FE00DF11D11248081918114
:1039A000892B21F081E09281491708F080E0089589
:1039B0009C0143E1429FC001439F900D1124E0917F
:1039C000BA04F091BB04E80FF91F8385823091F4AB
:1039D00081E090E0658176814091E0025091E102C2
:1039E0006417750711F490E080E0892B19F081E0ED
:1039F000232B09F080E00895FC01A081B1818DE0C6
:103A0000689FA00DB11D112413964D915C91858581
:103A10009685489F9001499F300D589F300D112485
:103A2000C9010196611103C0478144FD04960895C0
:103A3000EF92FF920F931F93CF93DF93EA01FC0164
:103A4000E60FF71F02811381E480F5804F2D6E2D64
:103A5000C80181DF81110DC082E090E099838883E5
:103A60008EEF9FEFDF91CF911F910F91FF90EF901D
:103A70000895C8013CDF882339F082E090E0998303
:103A8000888388EF9FEFEECF1093E7020093E60262
:103A9000E092E802F092E90281E090E09983888365
:103AA00090E080E0DFCFCF92DF92EF92FF920F9312
:103AB0001F93CF93DF937A01EC01C60FD71FC090FD
:103AC000E602D090E7020091E8021091E902412F4E
:103AD000602FC60140DF811110C082E090E0F70145
:103AE000918380838AEF9FEFDF91CF911F910F9198
:103AF000FF90EF90DF90CF900895C601F8DE882305
:103B000041F082E090E0F7019183808388EF9FEF9E
:103B1000EBCF4C815D816E817F819A8189818F3F5E
:103B200041F082E090E0F701918380838EEF9FEF78
:103B3000DBCFE3E1EC9D9001ED9D300D1124E09190
:103B4000BA04F091BB04E20FF31F0190F081E02D65
:103B50002DE0029FE00DF11D11240190F081E02D78
:103B600027E0129FE00DF11D1124808391838B814A
:103B7000828343835483658376831F5F1093E902B6
:103B800081E090E0F7019183808390E080E0ACCF0A
:103B9000EF92FF920F931F93CF93DF937A018C01E3
:103BA000060F171FC091BA04D091BB04209781F073
:103BB00021E030E0F801828193814091BC04509172
:103BC000BD048417950710F030E020E0232B71F43A
:103BD00082E090E0F701918380838EEF9FEFDF9189
:103BE000CF911F910F91FF90EF90089543E1489F6F
:103BF0009001499F300D1124C20FD31F78DE882316
:103C000041F082E090E0F7019183808388EF9FEF9D
:103C1000E6CFF8012481358120383105C8F6878147
:103C20008111D6CF4181842F90E08F7E009741F0A3
:103C300082E090E0F7019183808386EF9FEFCFCF02
:103C40004F833E832D83268128871986223010F4E6
:103C500021E0288721E030E0F70131832083BFCFC6
:103C600088E090E0FA019183808390E080E00895FD
:103C7000FB018FEF808381E181838FEF9FEF93833F
:103C8000828380E890E0958384831682178208956A
:103C9000FB018FEF808391E0918382839383848300
:103CA00084E3858381E090E0978386830895DF92A3
:103CB000EF92FF920F931F93CF93DF93EA01FC01E2
:103CC000E60FF71F8181813071F082E090E09983E7
:103CD00088838FEF9FEFDF91CF911F910F91FF901E
:103CE000EF90DF90089582819381D4802581E680D2
:103CF000F7800091BA041091BB040115110539F445
:103D000082E090E0998388838CEF9FEFE4CF40912D
:103D1000BC045091BD048417950738F082E090E010
:103D2000998388838EEF9FEFD6CF892B39F082E07D
:103D300090E09983888386EF9FEFCDCF8D2D8D7F87
:103D4000B1F72130A1F781E0D11006C091E0E9166A
:103D5000F10431F080E004C0E2E0EE16F104D0F3AB
:103D6000882329F390E080E0C2DD882339F082E0E7
:103D700090E09983888388EF9FEFADCFF801D386D9
:103D800081E08487F686E586108A178681E090E0D8
:103D90009983888390E080E09ECF4CE050E06EE312
:103DA00073E057CA8F929F92BF92CF92DF92EF92A9
:103DB000FF920F931F93CF93DF93EA01FC01E60F6D
:103DC000F71F828193810481B580E091BA04F0915C
:103DD000BB04309791F482E090E0998388838CEF64
:103DE0009FEFDF91CF911F910F91FF90EF90DF90A8
:103DF000CF90BF909F908F9008952091BC043091F8
:103E0000BD048217930738F082E090E0998388839D
:103E10008EEF9FEFE6CF23E1289F6001299FD00C12
:103E20001124EC0DFD1DE080F180E114F10499F204
:103E30008281081748F78DE0089F80011124E00E69
:103E4000F11EF70180819181892B29F6BB20E1F2D7
:103E5000F7E0BF9E40011124C4010E940D2BF70121
:103E600091838083E091BA04F091BB04EC0DFD1DB9
:103E70000190F081E02DE00FF11F8081918100978A
:103E800039F482E090E0998388838DEF9FEFA9CF8A
:103E9000A40170E060E00E94C33D8091BA0490915B
:103EA000BB04C80ED91EF60180819181080F191F2D
:103EB000F801B28281E090E09983888390E080E00D
:103EC00090CFAF92BF92CF92DF92FF920F931F934A
:103ED000CF93DF93EA01FC01E60FF71F8281938104
:103EE000F4800091BA041091BB040115110581F40E
:103EF00082E090E0998388838CEF9FEFDF91CF91F0
:103F00001F910F91FF90DF90CF90BF90AF900895D9
:103F10002091BC043091BD048217930738F082E0F1
:103F200090E0998388838EEF9FEFE8CF2FEF2F0DDE
:103F30002C3FA8F723E1289F6001299FD00C112472
:103F40000C0D1D1DF80180819181892B89F6FDE002
:103F5000FF9E50011124C5010E940D2BF801918391
:103F60008083E091BA04F091BB04EC0DFD1D8081CB
:103F70009181009739F482E090E0998388838DEFF6
:103F80009FEFBCCFA50170E060E00E94C33DE091CF
:103F9000BA04F091BB04EC0DFD1DF28281E090E0CB
:103FA0009983888390E080E0A9CFCF92DF92EF924F
:103FB000FF920F931F93CF93DF93860F971FFC0100
:103FC000028113818091BA049091BB04892B81F006
:103FD00082E090E0FA01918380838CEF9FEFDF9184
:103FE000CF911F910F91FF90EF90DF90CF900895A8
:103FF000C801B0E0A0E00197A109B1098F3F9F4F30
:10400000A105B10540F082E090E0FA019183808340
:104010008EEF9FEFE4CF7A0183E1809F6001819F63
:10402000D00C1124C6010E940D2BEC01009741F425
:1040300082E090E0F701918380838DEF9FEFCFCFF7
:10404000A60170E060E00E94C33DD093BB04C09322
:10405000BA041093BD040093BC0490E080E02FEFFD
:104060003FEF41E061E070E08017910741F481E0AB
:1040700090E0F7019183808390E080E0B0CF3A8BAD
:10408000298B1B864C877E876D87188A1F86019631
:104090006396EACFEF92FF921F93CF93DF93EC01E9
:1040A00010E0F12CE12C6A811617B0F083E0689FD4
:1040B000B0011124AE014F5E5F4FC7010E94722B09
:1040C000009721F02FEF3FEF3A8B298BDF91CF91B3
:1040D0001F91FF90EF900895612FCE018DDC61E07C
:1040E00070E00E94BA29E816F90608F47C011F5F07
:1040F000DACFF8942091B8043091B90481E0211509
:10410000310509F080E0232B09F0789408952F926F
:104110003F924F925F926F927F928F929F92AF9257
:10412000BF92CF92DF92EF92FF920F931F93CF93A4
:10413000DF933C01660E771EF301828193814C016F
:10414000B12CA12CC091BA04D091BB04209769F086
:1041500021E030E06091BC047091BD0486179707A0
:1041600010F030E020E0232BD1F482E090E0FA015F
:10417000918380838EEF9FEFDF91CF911F910F91FD
:10418000FF90EF90DF90CF90BF90AF909F908F9077
:104190007F906F905F904F903F902F900895809206
:1041A000EA029092EB02A092EC02B092ED0263E17F
:1041B000689F9001699F300D1124C20FD31FF30136
:1041C0008181833040F082E090E0FA019183808326
:1041D00086EF9FEFD1CF2A012B813C81232BF1F475
:1041E000288139819F8191FF2EC0232B09F46FC054
:1041F0002091BF049A81422F490F5527551FBA01BC
:1042000041E050E06138710514F050E040E0452B8A
:1042100009F45DC02A87920F9093BF0481508230C9
:1042200008F481C066DF882309F4D8C0F3018181D6
:10423000813009F48DC008F47BC0823009F4C6C017
:1042400090E080E0ADC0232B09F441C02091BE0472
:104250009A81E22FE90FFF27FF1F41E050E0ED3F79
:10426000F10514F050E040E0452B89F12A87920FC8
:104270009093BE04D3CFA081B181A20FB31F11963A
:104280006C91060F111D0196295F3F4F841795070A
:1042900094F38D859E85089F1001099F300C189F0F
:1042A000300C1124C114D104D1F48F8184FF17C0C4
:1042B0000E94082AF5E02F0E311C21E0821593059B
:1042C00008F420E0A701435F5F4F21110EC082E098
:1042D00090E0F2019183808387EF9FEF4DCF0E94A2
:1042E000082A2FEF221A320AE8CF88819981E80E36
:1042F000F91EF70114830383FFEFCF1ADF0A7A0157
:104300008A818C151D0409F00CF48CCFE881F981A9
:10431000EE0DFF1D428150E030E020E010E000E0B3
:1043200090E080E0B3CFF12CE12CD12CC12CE8CF70
:1043300081E090E09C838B83F1DA882309F480CFBD
:1043400081E090E00E940B1980E40E94191978CF57
:1043500089899A89019661F083E090E09C838B8340
:1043600082E090E00E940B1980E40E94131968CF4C
:104370008D819E812091E0023091E10282179307A6
:10438000D1F46091E4027091E502AE014F5E5F4F9F
:104390008091E2029091E3020E94912C0097E1F259
:1043A000789422E030E0F20131832083892B99F068
:1043B0008DEF9FEFE1CE89288A288B2869F6039735
:1043C00058F6CE0167DE188A1F86E8CF82E090E0BB
:1043D0009C838B8335CF90E080E0CECE82E090E06E
:1043E000F2019183808385EF9FEFC6CE8F929F92DB
:1043F000AF92BF92CF92DF92EF92FF920F931F93F3
:10440000CF93DF93EA018C01060F171FF80181811A
:10441000833098F082E090E09983888386EF9FEF65
:10442000DF91CF911F910F91FF90EF90DF90CF9090
:10443000BF90AF909F908F9008958091BA04909113
:10444000BB04892B61F081E090E02091BC043091A5
:10445000BD04232B11F490E080E0892B39F482E035
:1044600090E0998388838EEF9FEFDACF42DE882336
:1044700009F4E0C0F8018181813009F496C0E8F0C8
:10448000823099F42091BC043091BD04E091BA04CB
:10449000F091BB0490E080E041E050E0281739073C
:1044A00009F0BEC03BDA811117C0789481E090E03A
:1044B0009983888390E080E0B3CF2091BC04309151
:1044C000BD04E091BA04F091BB0490E080E041E0CB
:1044D00050E02817390741F481E090E00E940B1961
:1044E00080E40E941919E1CF63817481672B11F078
:1044F0005483438301967396ECCFE091BA04F09114
:10450000BB04E00FF11F2381348122303105D9F43F
:10451000218932892F3F3F4FB1F425813681409167
:10452000E0025091E1022417350761F5AF014F5EBB
:104530005F4F6091E4027091E5028091E2029091F8
:10454000E3020E94912CEFEFCE1ADE0AEE0AFE0A79
:104550000D5E1F4F4091BC045091BD0470E060E0BF
:10456000C416D506E606F70644F5009731F27894AE
:10457000892B09F49BCF82E090E0998388838DEFAB
:104580009FEF4ECFC114D104E104F104E1F62330D2
:104590003105C8F6CF017EDDE091BA04F091BB048D
:1045A000E00FF11F108A1786CECF10E000E090E0F8
:1045B00080E0C12CD12C7601CDCF0097C1F610E060
:1045C00000E0812C912C540183E0E82EF12C1AC0DC
:1045D000E091BA04F091BB04E00FF11F8381948154
:1045E000029749F4F482E38282E090E00E940B1982
:1045F00080E40E941319FFEF8F1A9F0AAF0ABF0AC7
:104600000D5E1F4F8091BC049091BD04B0E0A0E00E
:1046100088169906AA06BB06DCF290E080E0A7CFD8
:10462000638174816230710511F454834383019670
:10463000739634CF82E090E09983888385EF9FEF73
:10464000EFCE0097B9F48FEFFB0180832091EA024F
:104650003091EB0243E1429FC001439F900D112432
:10466000E091BA04F091BB04E80FF91F8285FB01C9
:10467000818308950C94C21888E090E0FA01918338
:10468000808390E080E008951092B9041092B804FD
:10469000EAEBF4E086E0DF011D928A95E9F78DEC04
:1046A0009EE19093B7048093B60408958091B60478
:1046B0009091B70408952F923F924F925F926F921C
:1046C0007F928F929F92AF92BF92CF92DF92EF92A2
:1046D000FF920F931F93CF93DF93CDB7DEB72F9742
:1046E0000FB6F894DEBF0FBECDBFF894E091B804CA
:1046F000F091B9043196F093B904E093B80478943A
:104700004090BA045090BB044114510409F40CC207
:10471000E091BC04F091BD04EF2B09F405C22D8794
:1047200049875A876B877C8798878F831201B12CC2
:10473000A12C10E000E08091BC049091BD04A8166B
:10474000B90618F40115110529F1F8948091B804FF
:104750009091B90401979093B9048093B804789428
:10476000C8012F960FB6F894DEBF0FBECDBFDF9104
:10477000CF911F910F91FF90EF90DF90CF90BF905E
:10478000AF909F908F907F906F905F904F903F90F1
:104790002F9008957101E418F508D10117968C91B6
:1047A000179781FD54C013968D919C911497039790
:1047B00009F04DC015968D919C91EF81F8858E176B
:1047C0009F0709F044C0B50190E080E07FD48A8360
:1047D0002091BA043091BB043D832C833D85332363
:1047E00009F44CC04C815D81452B09F49AC180913C
:1047F000BC049091BD04A816B90608F092C1C50189
:10480000D7D88823E9F06C817D816E0D7F1D7D8373
:104810006C83DB011F968D919C91892B89F0D12CA3
:10482000C12CF12CE12CAC81BD8112968C91129798
:104830008E151F0409F094F450961C921E921F9737
:104840002A81222321F0B50190E080E041D43FEF9E
:10485000A31AB30A43E1240E311C6DCFAC81BD8194
:10486000ED91FC91EC0DFD1D858196810FD7BFEF79
:10487000EB1AFB0AEDE0CE0ED11CD5CFEC81FD8109
:10488000309709F44EC18091BC049091BD04A816E4
:10489000B90608F046C1EE0DFF1DFF87EE87C50182
:1048A00087D88B83882339F1AE85BF851F968D917C
:1048B0009C915097019621E01D964D915C91841733
:1048C000950709F020E02E831982712C10E000E09A
:1048D000AE85BF8512968C91781608F45DC0EE8582
:1048E000FF85878590890196658576850E94633D61
:1048F000908B8787A5CFB1E0BE83E6CF99249394B0
:104900006BC08BD6F6019683858382C0D601ED906D
:10491000FC90B7E06B9EE00CF11C1124F701638161
:10492000748180818F3F61F121E030E002C0220F6D
:10493000331F8A95E2F7C901092E000CAA0BBB0BA5
:10494000FB01408151816281738184239523A623D9
:10495000B72321E0892B8A2B8B2B09F420E0D4018B
:104960002C93D70111968C91F60123853485820F03
:10497000932F911D880E991E1486138663949BC0F5
:10498000418150E0C4010E94BA3DEBCF998206EF0D
:104990001FEFC5C01982C3C0F981F111A0CFEDE0AE
:1049A0007E9E70011124AE85BF85CD90DC90CE0C2B
:1049B000DF1C15D49D838C83BB81BB2309F49ECF60
:1049C00081E0EE85FF8527853089232B09F080E083
:1049D000982E882309F458C0672D8E859F850CD8A2
:1049E000D60118969C938E93179761E070E0C2D41D
:1049F000EE85FF85218932892F3F320709F481CF67
:104A0000BC01C901CFD7D60116969C938E931597FA
:104A1000D60115968D919C911697009709F4B6CF03
:104A2000EC81FD818E0F9F1F1A969C938E93199790
:104A3000AE85BF85ED91FC911197EE0EFF1EF7013B
:104A400021853285148613861A968C91870DD9019B
:104A50008D93711016C0EE85FF85878184FF11C08C
:104A600049855A856B857C85F9014183528363832F
:104A70007483F701838594850496A80FB91F148663
:104A80001386F701B287A187D60115968D919C9167
:104A90001697892B09F443C0EE85FF852581368161
:104AA0008091E0029091E1022817390779F0199678
:104AB0008D909C90612CD60112968C91129768165D
:104AC00008F424CF1A969C928E921997BE81BB232C
:104AD00009F460CF61E070E0F601878190854AD4E7
:104AE000D6011796ED90FC90189715964D915C9114
:104AF000E1E0F0E0BA81BB2311F0F0E0E0E00C81EE
:104B00001D819C01B501882799278E1B9F0B6AD3B5
:104B10008C01892B21F0F60185819681B7D573949C
:104B2000D7CE0FEF1FEF8CCE10E000E00ECE2F920D
:104B30003F924F925F926F927F928F929F92AF922D
:104B4000BF92CF92DF92EF92FF920F931F93CF937A
:104B5000DF938091BA049091BB0410E000E0892BB0
:104B6000A9F0C7DA0AEF1FEF882381F02090BC0478
:104B70003090BD04C091BA04D091BB04D12CC12C9B
:104B800010E000E02C143D04A9F47894C801DF91F2
:104B9000CF911F910F91FF90EF90DF90CF90BF903A
:104BA000AF909F908F907F906F905F904F903F90CD
:104BB0002F900895C6010E94D81C882309F18B818B
:104BC0009C810397E9F48F859889892BC9F0B601F8
:104BD00090E080E07BD221E030E0882311F030E0EB
:104BE00020E044245524421A530AB12CA12C912CC4
:104BF000812C8A818815190409F038F4188A1F86D7
:104C00004FEFC41AD40A6396BDCFE881F981EA0D4B
:104C1000FB1D85819681892BA1F161E070E0878180
:104C20009085A8D33C01DBD28C01E881F981EA0DA3
:104C3000FB1D8185928525813681200F311FAC01B6
:104C4000421B530B9A0147815085421B530B70E066
:104C500060E00E94C33DE881F981EA0DFB1DE78019
:104C6000F084458156819301B601C201BBD28C010B
:104C7000892B39F0E881F981EA0DFB1D8581968148
:104C800005D55FEF851A950A8DE0A80EB11CB1CF4E
:104C900030CA789408952F923F924F925F926F920C
:104CA0007F929F92AF92BF92CF92DF92EF92FF924C
:104CB0000F931F93CF93DF9300D000D0CDB7DEB713
:104CC0000091BA041091BB04992493940115110525
:104CD00009F43EC0A090BC04B090BD040ADA982E3E
:104CE0008823B1F11092BB041092BA041092BD0453
:104CF0001092BC041092BE041092BF048FEF9FEF7D
:104D0000DC018093EA029093EB02A093EC02B09353
:104D1000ED0278947FD31E830D83C12CD12C7601B4
:104D2000C501B0E0A0E089839A83AB83BC832224D1
:104D30002A94322C89819A81AB81BC81C816D9060C
:104D4000EA06FB06F4F0C801A1D480E40E94191918
:104D5000892D26960FB6F894DEBF0FBECDBFDF912A
:104D6000CF911F910F91FF90EF90DF90CF90BF9068
:104D7000AF909F907F906F905F904F903F902F905B
:104D80000895AD81BE8115968D919C9116972091C5
:104D9000E0023091E10282179307D1F451968D9190
:104DA0009C91EED5ED81FE8180819181B12CA12C69
:104DB000412C512C3201892B89F5BFEFCB1ADB0A2C
:104DC000EB0AFB0AED81FE817396FE83ED83B2CF81
:104DD000C114D104E104F10429F7039718F7ED8118
:104DE000FE81818992898F3F980709F029D5AD818D
:104DF000BE8152963C922E925197D4CF8A0D9B1D24
:104E0000DC018D919C91009709F040D4BFEF4B1AC3
:104E10005B0A6B0A7B0AEDE0AE0EB11CAD81BE8170
:104E20008D919C91119712964C9150E070E060E04A
:104E300044165506660677060CF328D4BECFCF93EA
:104E4000DF93EA0128DF811109C082E090E09983B5
:104E5000888385EF9FEFDF91CF91089581E090E007
:104E60000E940B1981E090E09983888390E080E0B4
:104E7000F2CF11DF1092B7041092B604089542E009
:104E800050E066E873E00C942919FF920F931F938A
:104E9000CF93DF938A01EC01C60FD71FF980B9D2F7
:104EA0000897F816190671F068F082E090E0F801B2
:104EB000918380838EEF9FEFDF91CF911F910F91B0
:104EC000FF9008956C817D818E819F814B810E942E
:104ED000BE1B811108C082E090E0F80191838083BD
:104EE00084EF9FEFE9CFF9800E94B91B4F2D50E06E
:104EF000BE01685F7F4F0E94BA3D89810E94281CD5
:104F000081E090E0F8019183808390E080E0D4CF4D
:104F1000DF92EF92FF920F931F93CF93DF938A015B
:104F2000EC01C60FD71F0E94B91B7C01D98071D23A
:104F3000DD2059F0029721E030E0D816190619F06B
:104F400010F030E020E0232B79F482E090E0F801CB
:104F5000918380838EEF9FEFDF91CF911F910F910F
:104F6000FF90EF90DF900895EF2841F482E090E009
:104F7000F8019183808384EF9FEFEECFF9800E9448
:104F8000B91B4F2D50E0BE016E5F7F4F0E94BA3DAE
:104F900089810E94281C81E090E0F8019183808340
:104FA00090E080E0D9CF8FE397E29093C1048093A3
:104FB000C00408958091C0049091C104089508959B
:104FC000FC0111821082938382830895DB011D927C
:104FD0001C92DC011296ED91FC9113977183608312
:104FE00013967C936E9312970895FC0180819181B2
:104FF000DB018D939C93A081B181109741F08D913D
:105000009C9191838083892B11F4F383E28308952B
:10501000FC0180819181DB018D939C93892B11F49C
:1050200073836283718360830895FC01118210820F
:10503000938382830895CF93DF931F921F92CDB7FE
:10504000DEB71A821982F894BE016F5F7F4F87EC3A
:1050500094E0CBDF89819A81009709F017D3898189
:105060009A81892B89F7BE016F5F7F4F8BEC94E0AB
:10507000BCDF89819A81009709F008D389819A81E0
:10508000892B89F778940F900F90DF91CF91089535
:10509000CF93DF931F921F92CDB7DEB71A8219828A
:1050A000F894BE016F5F7F4F83EC94E09EDF8981AF
:1050B0009A81009709F0EAD289819A81892B89F730
:1050C00078940F900F90DF91CF91089581E008952B
:1050D00090E080E00895EF92FF920F931F93CF939B
:1050E000DF931F921F92CDB7DEB71A82198280918B
:1050F000C20407EF1FEF8823A1F1F894BE016F5F90
:105100007F4F8BEC94E071DF789489819A81EE2453
:10511000E394F12C892B51F4F894BE016F5F7F4F1B
:1051200087EC94E062DF7894F12CE12C89819A81FC
:105130000EEF1FEF0097A9F0FC014281538164E05C
:1051400070E076D68C01892B61F0F89469817A81C0
:10515000C701880F991F880F991F89539B4F58DFEC
:105160007894C8010F900F90DF91CF911F910F910C
:10517000FF90EF9008950F931F93CF93DF9300D08C
:105180001F92CDB7DEB71C821B821A8219828091D2
:10519000C20407EF1FEF8823C1F0AE014D5F5F4FE0
:1051A00064E070E0CE010196B6D68C01892B69F4DB
:1051B000E981FA818B819C8193838283F894698150
:1051C0007A8183EC94E002DF7894C8010F900F900D
:1051D0000F900F90DF91CF911F910F910895BBD742
:1051E000049608958F929F92AF92BF92CF92DF92D2
:1051F000EF92FF920F931F93CF93DF931F921F9213
:10520000CDB7DEB71A821982BC016F5F7F4F633062
:10521000710598F0AA24AA94BA2CC5010F900F909A
:10522000DF91CF911F910F91FF90EF90DF90CF9082
:10523000BF90AF909F908F9008954115510551F305
:10524000480159018A016C01CADF8815990511F7D7
:10525000E114F104F9F28E0D9F1DA816B906D0F2E3
:105260008091C2048823F1F0F894B501645071096B
:105270009701AE014F5F5F4FC8010496E1D65C0114
:10528000892B71F489819A81F80193838283C60105
:10529000880F991F880F991FB80189539B4F96DE7D
:1052A0007894BBCF87EFA82EBB24BA94B6CFAF9229
:1052B000BF92CF92DF92EF92FF920F931F93CF9303
:1052C000DF931F921F92CDB7DEB71A821982892B06
:1052D00009F047C06115710509F443C04115510536
:1052E00009F43FC02115310509F43BC00115110532
:1052F000C1F18091C2048823B9F179016A015B018F
:10530000F894BE016F5F7F4F83EC94E06EDE78947B
:1053100089819A81009759F1DC0112966D917C91F7
:10532000A8010496A6D68C01E981FA81D501ED93F6
:10533000FC93828193810496F601918380834FDFF1
:10534000D7018D939C93C8010F900F90DF91CF915F
:105350001F910F91FF90EF90DF90CF90BF90AF9093
:1053600008950FEF1FEFEFCF07EF1FEFECCF0EEF1A
:105370001FEFE9CFCF93DF93EC01672B71F4F4D6E5
:105380008C179D0760F0E7D62496C80FD91FE6D684
:105390008C0F9D1FDF91CF910895E3D6F1CF90E060
:1053A00080E0F8CF0F931F93CF93DF932091C20437
:1053B00021112BC08B01EC0187EC94E001DE8BEC1A
:1053C00094E0FEDD83EC94E0FBDD97D00097C1F420
:1053D000CBD670E060E0CEDF4EEE52E062E070E0EF
:1053E00081D1009769F48091EE029091EF02CED6C0
:1053F000B801CE0103D5009719F421E02093C2042F
:10540000DF91CF911F910F91089584EF9FEFF8CF17
:10541000A8C6AAC6CF93DF93AAD6EC01892B11F4B4
:105420000ADE36DECE01DF91CF910895CF93DF9370
:105430009ED6EC01892B09F4FEDDCE01DF91CF91E0
:1054400008958091EE029091EF020895CF93DF933B
:105450008091C204D0E0C0E08823D1F09CD6EC015A
:10546000892BB1F4E8DD14DE8091EE029091EF0219
:10547000E7D1E8D2EC01892B59F487EC94E0D5DD33
:105480008BEC94E0D2DD83EC94E0CFDD1092C2048B
:10549000CE01DF91CF910895EF92FF920F931F936A
:1054A000CF93DF93EC017A018B010F5F1F4F0E9DAD
:1054B000A0010F9D500D1E9D500D112470E060E065
:1054C0000E94C33D90E080E0F0E0E0E02FEFE816BE
:1054D000F90639F4DF91CF911F910F91FF90EF9072
:1054E00008951A8219822883309711F0D283C183DC
:1054F0000196FE01C00FD11FEACFCF92DF92EF924B
:10550000FF920F931F93CF93DF9300E116E00C7F80
:1055100043E050E060EF72E086EF92E01CD480EF51
:10552000E82E82E0F82E96EFC92E92E0D92EC7E938
:10553000D6E0D7014D915D917D01F60161917191A8
:105540006F01198308835D834C835B834A837F8368
:105550006E839B012F5F3F4F249FC001259F900DBD
:10556000349F900D1124998788870115110511F03A
:10557000C80192DF88859985080F191F2A96F6EFD2
:10558000EF16F2E0FF06A9F6E1EDF4E08CE391E01E
:10559000DF019C011D9221503040E1F71092D004B0
:1055A0001092CF041092B6061092B5061092BA0669
:1055B0001092B9061092B8061092B7061092BC0667
:1055C0001092BB061092BE061092BD061092C00645
:1055D0001092BF061092C4061092C3061092C20623
:1055E0001092C1061092C6061092C5061092C80607
:1055F0001092C70610929406109293061092960687
:105600001092950690E080E0DF91CF911F910F916D
:10561000FF90EF90DF90CF9008950097F1F0F8940D
:10562000A6EFB2E0E7E9F6E030E020E04D915D91D1
:1056300048175907A8F0428153814115510581F05F
:105640008AE0829FF001839FF00D1124E956F94F03
:1056500080819181009759F4789490E080E00895DA
:105660002F5F3F4F3A962330310501F7F5CFDC012C
:1056700011966D917C9171836083415051095383E0
:105680004283FC012193CF0178940895009749F15A
:10569000DC018E91853041F4E0919506F0919606FB
:1056A0003097F9F0CD0119948530D8F4282F30E0E7
:1056B000F8948FEF8C938AE0829FF001839FF00D26
:1056C0001124E956F94F8081918112969C938E9313
:1056D0001197B183A0838281938101969383828302
:1056E00078940895CF92DF92EF92FF920F931F93D9
:1056F000CF93DF939C0184ED94E08C7F411551059D
:1057000009F49BC02115310509F497C06115710595
:1057100009F493C07A01AB01B9016D5F7F4F6C7FD3
:105720009B012F5F3F4F249F8001259F100D349FC9
:10573000100D1124F8942091B5063091B606232B54
:1057400059F42091BD063091BE062115310569F14D
:105750002017310708F058C02091BF063091C006CD
:10576000232B91F42091BD063091BE06820F931F2A
:105770002091C7063091C8062115310509F441C0B2
:105780002017310708F056C07894CFEFDFEF86EF8F
:105790009FEFF701D183C083DF91CF911F910F91CC
:1057A000FF90EF90DF90CF900895C3E0D0E0C090DD
:1057B000CF04D090D00429E331E02C193D09201703
:1057C000310710F32AE02C9FF0012D9FF00D1124DA
:1057D000E956F94F918380835583448353834283F1
:1057E0007783668311870087009709F055DE0C0DDB
:1057F0001D1D1093D0040093CF04789490E080E0B6
:10580000C8CFC4E0D0E0D3CFC3E0D0E02AE02C9FE3
:10581000F0012D9FF00D1124E956F94F91838083FB
:10582000558344835383428377836683009729F3A8
:1058300033DEE3CFC4E0D0E0E9CF8FEF9FEFACCF12
:105840009C010397029708F069C0F89484E09AE0FD
:10585000482F50E0241735070CF44DC091E08AE042
:10586000829FF001839FF00D1124E956F94F1182B8
:105870001082158214821382128217821682992353
:10588000B1F18091B5069091B606892BA9F42091CB
:10589000BD063091BE062115310571F08091CF040F
:1058A0009091D004821B930B9093D0048093CF04EB
:1058B0001092BE061092BD068091BF069091C00660
:1058C000892BA9F42091C7063091C806211531050E
:1058D00071F08091CF049091D004821B930B909330
:1058E000D0048093CF041092C8061092C706789413
:1058F00090E080E00895949FF001959FF00D1124B1
:10590000E956F94F40815181452B31F4408551854D
:10591000452B11F481509CCF90E0A1CF8FEF9FEFEA
:1059200008954115510549F1009739F16115710547
:1059300021F1F8942091930630919406232BB9F429
:105940002091950630919606232B89F49093940626
:10595000809393067093960660939506789425E05D
:1059600030E090E080E0FA0131832083089578945C
:105970002FEF3FEF86EF9FEFF6CF8FEF9FEF08956A
:10598000059769F4F8941092940610929306109279
:10599000960610929506789490E080E008958FEF37
:1059A0009FEF08956115710519F4F0E0E0E011C072
:1059B0008530910581F4E0919306F091940630973B
:1059C000A1F3CB0101961995009779F3FC0185E0CD
:1059D0008193CF0108959C01235031092230310574
:1059E00020F72AE0289FD001299FB00D1124A95645
:1059F000B94F2D913C911197232BB9F216962D9109
:105A00003C9117972617370780F2F89412962D913C
:105A10003C9113972115310529F0ED91FC911197D7
:105A2000309711F47894C1CF4181528111965C93E3
:105A30004E932150310913963C932E9312978193E4
:105A40007894C7CFEDE0F6E086E8DF011D928A95F5
:105A5000E9F7E1EDF4E08CE391E0DF019C011D92B8
:105A600021503040E1F71092D0041092CF04E7E9C2
:105A7000F6E082E3DF011D928A95E9F7E3E9F6E0BB
:105A800084E0DF011D928A95E9F790E080E00895B7
:105A9000CF93DF93C091FC02D091FD02CF3FDC0792
:105AA00059F423D49093FD028093FC0297FF09C020
:105AB000D093FD02C093FC0284EF9FEFDF91CF9162
:105AC000089590E080E0FACF8230910528F4809329
:105AD000C90690E080E008958FEF9FEF08954F9200
