:10000000F8C000000C942C260C9457260C948226E1
:100010000C94AD260C94D8260C9403270C942E2710
:100020000C94592717C1000015C1000013C100002E
:1000300011C100000FC100000DC100000BC1000084
:1000400009C1000007C1000005C1000003C1000094
:1000500001C10000FFC00000FDC000000C94842717
:10006000F9C000000C94842A0C94BA2AF3C0000052
:10007000F1C00000EFC00000EDC00000EBC00000C8
:10008000E9C00000E7C00000E5C00000E3C00000D8
:100090000C94102B0C94462BDDC00000DBC000003C
:1000A000D9C00000D7C00000D5C00000D3C00000F8
:1000B000D1C00000CFC00000CDC00000CBC0000008
:1000C000C9C00000C7C000000C94A5220C949C2B52
:1000D0000C94D22BBFC000000C94282C0C945E2CE6
:1000E000B9C0000000000A0B02090C0D0E0807033E
:1000F00004010000000000000000000000000000FB
:1001000000000000000000000000000000000000EF
:1001100012111000000000000000000000000000AC
:100120000000000000000000000001021020200874
:100130000810204010204080020102010804020142
:1001400001020408102040808040201008040201B1
:10015000800402018040201008040201080402010A
:100160000102040810204080010204081020408091
:1001700005050505070508080808020202020A0A23
:100180000808040404040101010101010101030341
:10019000030303030303040707070C0C0C0C0C0CEC
:1001A0000C0C0202020206060606060606060B0BE9
:1001B0000B0B0B0B0B0B00002200250028002B0063
:1001C0002E003100340002010000050108010B017E
:1001D00000002100240027002A002D0030003300F9
:1001E00001010000040107010A01E32A6F2BFB2B28
:1001F000872C11241FBECFEFD1E2DEBFCDBF00E0C0
:100200000CBF12E0A0E0B2E0E4EBFAE500E00BBFC7
:1002100002C007900D92AE3DB107D9F727E0AEEDD1
:10022000B2E001C01D92AC3FB207E1F710E0C9EFA8
:10023000D0E000E006C021970109802FFE010E9456
:10024000272DC53FD10780E00807A9F70E94A82302
:100250000C94582DD5CE611102C00C94F128613058
:10026000E1F362E0FACF662319F061E00C942D29E6
:1002700060E0FCCF90E080E008950F931F9300971B
:1002800009F487C06115710509F483C00091120259
:100290001091130220911402309115020E3F1F4F4E
:1002A0002F4F3F4F09F066C04FEF5FEFBA01409309
:1002B000120250931302609314027093150240913E
:1002C0001202509113026091140270911502DC0128
:1002D0001296ED91FC9180819181A281B3818093EE
:1002E0005B0390935C03A0935D03B0935E038481F2
:1002F0009581A681B7818093570390935803A0936B
:100300005903B0935A0380859185A285B385809364
:10031000530390935403A0935503B09356038485DD
:100320009585A685B78580934F0390935003A0933E
:100330005103B093520310924B0310924C0310924E
:100340004D0310924E03EDD486EB96E09093DF02BE
:100350008093DE029093E1028093E002D1D3009774
:1003600031F421E030E03093600320935F031F916C
:100370000F9108950091120210911302209114021E
:1003800030911502DB010D931D932D933C93139730
:1003900096CF8FEF9FEFEBCF8F929F92AF92BF924E
:1003A000CF92DF92EF92FF921F93CF93DF934B0197
:1003B0005C011091620382E090E09093600380936F
:1003C0005F0381149104A104B10441F4809162039C
:1003D000811104C080916103C1E08111C0E0C12C92
:1003E000D12C760180916203811106C08091610356
:1003F000811102C0CC23D9F083E090E09093600398
:1004000080935F03CC2379F1CCE9DFEF111102C0B7
:100410000E941A0ACE01DF91CF911F91FF90EF90B9
:10042000DF90CF90BF90AF909F908F9008956AE03B
:1004300070E080E090E00E94F32780E1C80E87E240
:10044000D81EE11CF11C8FEF88169806A806B80686
:1004500031F0C1E08C149D04AE04BF0408F0C0E08C
:1004600080E082D3BFCFD0E0C0E0D0CFCF92DF9288
:10047000EF92FF920F931F93CF93DF938F3F9105DE
:1004800011F008F050C020915F03309160032330D9
:10049000310539F020915F0330916003213031053F
:1004A00031F424E030E03093600320935F036A016D
:1004B0007B01EC0182309105A0F011E0AE01C70193
:1004C000B6011DD3AB01BC01CE011123F9F0DF91C0
:1004D000CF911F910F91FF90EF90DF90CF900C94F0
:1004E000430C8C01000F111F02521D4FD8018D913A
:1004F0009C91892B11F30E944D0C0297F1F6D801C3
:10050000ED91FC91CE011995182FD8CF0E94650C62
:1005100090E080E0DF91CF911F910F91FF90EF90DD
:10052000DF90CF9008958FEF9FEFF4CF80E01CC352
:10053000CF93DF9386E090E09093600380935F0316
:100540006CD3EC01EEEDF2E084E0DF011D928A95C0
:10055000E9F708D71092600310925F03CE01DF9194
:10056000CF91089580916103089580914A03089581
:1005700060931202709313028093140290931502F9
:1005800090E080E008958091F6078093F8079091BD
:100590001B03992329F0913039F090911C0301C07D
:1005A00091E090931A0302C010921A03E0911A038B
:1005B00094E0E99FF0011124EC50FD4F41A552A5B4
:1005C00063A574A540931603509317036093180313
:1005D000709319039FEF90931A038093F90784E0B7
:1005E0008093F40740910E0350910F036091100324
:1005F0007091110340932A0350932B0360932C03B3
:1006000070932D0381E090E031CF4F925F926F9213
:100610007F928F929F92AF92BF92CF92DF92EF9292
:10062000FF92CF93C090EF07D090F007E090F107D2
:10063000F090F207C701B6010E949B242B013C01F8
:10064000209108023091090240910A0250910B0258
:100650000E94952487FF80C0F7FC7EC08090000236
:1006600090900102A0900202B090030220E030E0DE
:1006700040E85FE3609104027091050280910602F8
:10068000909107020E9430249B01AC01C301B2018A
:100690000E944B2587FD64C01092EF071092F0076F
:1006A0001092F1071092F207C1E020E030E0A901BA
:1006B000C501B4010E949524811101C0C0E0C0931E
:1006C000F50781E09091F307911180E08093F607A0
:1006D0006091F9076093F7078CE0C5DD8091F7071B
:1006E0008093F307C0900E03D0900F03E0901003A7
:1006F000F09011039FEFC91AD90AE90AF90AC092CA
:100700000E03D0920F03E0921003F0921103C70181
:10071000B6010E9499249B01AC0160911203709173
:10072000130380911403909115030E944F25609349
:100730000A0370930B0380930C0390930D03809135
:100740001A038823D9F08130E9F081E090911C03ED
:100750009923A9F080E013C0812C912C540186CFFD
:100760008FEFC81AD80AE80AF80AC092EF07D092A9
:10077000F007E092F107F092F20796CF81E08093C4
:100780001B0302C010921B0380911B0394E0899FFE
:10079000F0011124EC50FD4FC1A6D2A6E3A6F4A6A9
:1007A00080931C038FEF80931B03CF91FF90EF90FA
:1007B000DF90CF90BF90AF909F908F907F906F9081
:1007C0005F904F900895CF93DF93E4EFF2E080E0E5
:1007D00090E0A0E8BFEB81AB92ABA3ABB4AB80E001
:1007E00090E0A0E0BFE3868F978FA0A3B1A38EE334
:1007F00092E5ADE7B7E784839583A683B78387E166
:1008000093E9ACEBBEE080879187A287B3878BE04A
:1008100091E1A7E5B9E484879587A687B7878CEE31
:1008200095ECA0E1BFE4808B918BA28BB38BA8EEFB
:10083000B2E0B383A283C2EED2E01196DC93CE93F2
:100840008BE492E0998388839B838A8384EF97E08B
:100850009D838C8388E093E015969C938E931497E8
:1008600088EF92E013969C938E9312978AE093E020
:1008700017969C938E9316978FEF87A310A6C1EEC1
:10088000D7E0A0E0B2E051969C9151979A8B41A598
:1008900052A563A574A542A353A364A375A386A31D
:1008A00050968C918093F90762E082E00E94F128D3
:1008B00042E050E063EC72E080E00E94B3251882D1
:1008C00081E090E0A0E0B0E089839A83AB83BC83B1
:1008D00061E08CE0C0DC81E08D83DF91CF910895F1
:1008E0008091E107811103C081E08093E1070895C1
:1008F0004F925F926F927F928F929F92AF92BF9230
:10090000CF92DF92EF92FF920F931F93F894409053
:100910003A0350903B0360903C0370903D03C090BD
:100920002E03D0902F03E0903003F0903103452B3D
:1009300009F0A6C09B01AC012419350946095709E5
:1009400029013A01009136031091370320913803B1
:100950003091390348015901840C951CA61CB71C21
:1009600080169106A206B306A0F4009132031091FE
:10097000330320913403309135030F5F1F4F2F4F06
:100980003F4F00933203109333032093340330938B
:1009900035038092360390923703A0923803B092C9
:1009A00039030091320310913303209134033091C5
:1009B000350380923E0390923F03A0924003B09291
:1009C0004103009342031093430320934403309365
:1009D000450360933A0370933B0380933C039093E9
:1009E0003D03A301920160E271EA87E090E00E947A
:1009F000E22C6C0D7D1D8E1D9F1D60932E03709348
:100A00002F038093300390933103009112021091D1
:100A1000130220911402309115020F3F1F4F2F4FE8
:100A20003F4FF1F000911202109113022091140235
:100A3000309115020E3F1F4F2F4F3F4F89F0C0904E
:100A40001202D0901302E0901402F090150221E0FF
:100A50008C149D04AE04BF0408F420E020934A03E4
:100A600078941F910F91FF90EF90DF90CF90BF90FF
:100A7000AF909F908F907F906F905F904F90089570
:100A80004B015C0184189508A608B708A3019201E0
:100A9000261B370B480B590B641575058605970502
:100AA000E0F082169306A406B50640F420E030E09C
:100AB000A90181149104A104B104A1F460E271EAD6
:100AC00087E090E00E94E22CA7019601261B370BDD
:100AD000480B590BCA01B901C3CF82169306A4066D
:100AE000B50660F7A501940160E271EA87E090E045
:100AF0000E94E22C6C0D7D1D8E1D9F1DB1CFF8CE86
:100B0000CF93DF9300D01F92CDB7DEB71C821B823C
:100B10001A821982109246031092470310924803DA
:100B200010924903BE016F5F7F4FCE0103960E9472
:100B3000762269817A818B819C810E946A1B009751
:100B400061F4BE016F5F7F4FCE0103960E94822247
:100B500069817A818B819C812ED50F900F900F90A7
:100B60000F90DF91CF910895FF920F931F93CF9332
:100B7000DF93082F60E070E0CB010E94F327FF2491
:100B8000F3940E94531AEC01892B89F010E0CE3FB8
:100B90008FEFD80769F0002361F160E070E0CB01CE
:100BA0000E94F32781E090E0892B59F322C011E0E5
:100BB00025D5EC01892B21F0CE3F8FEFD80759F7CF
:100BC00011111EC011E0229609F410E00E94031AD0
:100BD000EC01892B21F0CE3F8FEFD807E1F6111100
:100BE00011C011E0CE3F8FEFD80709F410E00111DA
:100BF0000BC0CE01DF91CF911F910F91FF9008950F
:100C000011E0E4CF11E0F3CF60E070E0CB010E948F
:100C1000F3271F25812F90E0C7CFCF93DF938091DB
:100C20004A03882321F060E070E0CB014CD635D632
:100C3000D0E0C0E0892B71F06AE070E080E090E0E5
:100C40000E94F32781E090DF28D62196C03D27E05F
:100C5000D20781F727D60E94BE1B10926203109222
:100C6000610310925B0310925C0310925D0310927B
:100C70005E0310925703109258031092590310927A
:100C80005A0310925303109254031092550310927A
:100C9000560310924F03109250031092510310927A
:100CA000520310924B0310924C0310924D0310927A
:100CB0004E034EEF5FEF6FEF7FEF409312025093C2
:100CC0001302609314027093150210924A03EEE32C
:100CD000F3E028E0DF011D922A95E9F710923A032C
:100CE00010923B0310923C0310923D031092360386
:100CF0001092370310923803109239031092320386
:100D000010923303109234031092350310922E0385
:100D100010922F031092300310923103DF91CF9184
:100D2000089510926E0310926F0310927003109248
:100D3000710310926D0380917603909177039093E5
:100D40006C0380936B0310926A03109269031092F4
:100D50006503109266031092670310926803109265
:100D600073031092720390E080E00895CF92DF92B7
:100D7000EF92FF920F931F93CF938C01892B09F071
:100D800055C0209176033091770380916B03909149
:100D90006C03409176035091770350936C0340931A
:100DA0006B032817390781F010926A0310926903C8
:100DB0001092650310926603109267031092680305
:100DC00010927303109272038091760390917703CF
:100DD000019761F58091720390917303892B21F43F
:100DE00080911602811112C0809172039091730359
:100DF0000197E1F48091650390916603A0916703E8
:100E0000B09168030197A105B10581F410926503C3
:100E100010926603109267031092680310921602F4
:100E200082E090E090937303809372038091760345
:100E300090917703019709F01CC180918C039091E8
:100E40008D038017910709F014C180918803909158
:100E50008903A0918A03B0918B03009709F409C11B
:100E60002091870321110DC040918803509189037F
:100E700060918A0370918B03452B462B472B09F415
:100E8000F8C020917203309173032230310509F0CC
:100E9000F0C0209169032111ECC0FC01C080D18019
:100EA000E280F38080916D03882309F4D3C08091A0
:100EB000790390917A03892B09F4FDC0209179037D
:100EC00030917A0381E02230310509F080E02091F1
:100ED000790330917A03C1E02130310549F0209146
:100EE000790330917A03C1E02230310509F0C0E086
:100EF000882309F456C020918303309184034091E4
:100F0000850350918603C701B6010E944B2587FDDA
:100F100014C0209183033091840340918503509144
:100F2000860360916E0370916F03809170039091BE
:100F300071030E94952487FD22C020918303309184
:100F400084034091850350918603C701B6010E9436
:100F50004B25181634F5209183033091840340917A
:100F600085035091860360916E0370916F038091A9
:100F70007003909171030E949524811112C0809199
:100F80007B0390917C03A0917D03B0917E03892B1C
:100F90008A2B8B2B19F481E080936A0381E0809384
:100FA0006903CC2309F456C0209183033091840354
:100FB0004091850350918603C701B6010E94952494
:100FC00087FF14C0209183033091840340918503EF
:100FD0005091860360916E0370916F03809170034E
:100FE000909171030E944B2587FF22C020918303BB
:100FF000309184034091850350918603C701B60167
:101000000E949524811126C020918303309184038E
:10101000409185035091860360916E0370916F0338
:1010200080917003909171030E944B25181694F4DF
:1010300080917B0390917C03A0917D03B0917E030E
:10104000892B8A2B8B2B19F481E080936A0381E032
:101050008093690381E090916903911180E080930E
:101060006D03C0926E03D0926F03E0927003F09212
:101070007103012B09F067C1809172039091730392
:10108000892BD9F41092780310926903809116028B
:10109000882379F082E090E0909373038093720349
:1010A00010921602209176033091770381E0232B72
:1010B000E9F080E01BC081E00ACF10921602809117
:1010C0007803882349F010926A03109273031092F8
:1010D000720310927803EDCF80917603909177039D
:1010E000892BE1F0809169031092690320917203CA
:1010F000309173032230310509F45EC088F4211564
:10110000310509F448C02130310509F4F3C01092CB
:101110006A03109269031092780338C081E0E6CF29
:101120002330310509F4B1C02430310581F74091F5
:1011300065035091660360916703709168034115E0
:1011400051056105710561F041505109610971094D
:10115000409365035093660360936703709368033D
:101160004091650350916603609167037091680335
:10117000452B462B472BD9F42091740330917503EE
:101180002130310509F046C010926A0310927303B2
:10119000109272030CC080911602882341F082E005
:1011A00090E0909373038093720310921602109252
:1011B000630380916A03CEC08823C9F380917B03C7
:1011C00090917C03A0917D03B0917E0318161906BF
:1011D0001A061B060CF07DC0809176039091770370
:1011E000019709F076C080917B0390917C03A091D8
:1011F0007D03B0917E038093650390936603A09373
:101200006703B093680383E090E090937303809347
:101210007203CDCF40917F03509180036091810391
:1012200070918203452B462B472BA9F010926A033D
:1012300080917F0390918003A0918103B0918203FC
:101240008093650390936603A0936703B09368034C
:1012500081E090E0DACF882399F080911702909195
:101260001802A0911902B0911A028093650390931D
:101270006603A0936703B093680384E090E0C5CF52
:1012800010926A0382E090E0C0CF80916503909154
:101290006603A0916703B09168030097A105B105AB
:1012A00059F00197A109B1098093650390936603F2
:1012B000A0936703B09368038091650390916603E0
:1012C000A0916703B0916803892B8A2B8B2B09F0BF
:1012D0006ECF8091170290911802A0911902B091DF
:1012E0001A02892B8A2B8B2B09F44ECF81E0809335
:1012F0006A03B3CF40916503509166036091670321
:1013000070916803411551056105710561F0415007
:101310005109610971094093650350936603609315
:101320006703709368034091650350916603609171
:10133000670370916803452B462B472B09F037CF85
:101340008111C7CF9FCF80916303882309F431CFE8
:1013500080916403CF911F910F91FF90EF90DF90E8
:10136000CF90089510926E0310926F031092700345
:101370001092710310926D03109273031092720316
:1013800010926C0310926B0310928D0310928C03D9
:1013900010926A031092690310926503109266031B
:1013A0001092670310926803109264031092630313
:1013B000109288031092890310928A0310928B0373
:1013C0001092870310928303109284031092850376
:1013D0001092860388EE93E0A0E0B0E080931702BD
:1013E00090931802A0931902B0931A0210927F03EF
:1013F00010928003109281031092820310927B035B
:1014000010927C0310927D0310927E0310927A0357
:101410001092790381E08093160210927803109263
:10142000770310927603109275031092740390E084
:1014300080E008958091760390917703892B19F5C8
:1014400080911602882351F080917803811106C0A3
:1014500081E080936403809363030895209178036F
:101460003091160281E090E0332311F090E080E0AB
:1014700030E082239323892B21F01092640381E0D2
:10148000EACF10926303089582E090E0FA0191831D
:1014900080838FEF9FEF0895CF93DF93EA0100974A
:1014A00011F00E94DB1C1982188290E080E0DF912D
:1014B000CF910895DB01009719F48FEF8C93089575
:1014C0002EEF2C93FC013F96EF30F10508F034C06D
:1014D0008827E259F54F8F4F0C94272D9A0A980AC6
:1014E000960A940A920A8E0A900A8C0A8A0A880A34
:1014F000850A810A7D0A830A9C0A80E311968C93EF
:10150000089589E2FBCF82E2F9CF11961C920895EB
:1015100083E2F4CF81E2F2CF81E1F0CF87E2EECF38
:101520008AE2ECCF80E1EACF84E2E8CF88E2E6CF3E
:1015300086E2E4CF81E3E2CF80E2E0CF80919A03BC
:1015400090919B03089590939B0380939A03089531
:1015500080919903089590919903892B8093990321
:101560000895982F909580919903892380939903EA
:101570000895809198030895809196039091970320
:1015800008956115710559F0FB0130E020E070E02D
:1015900060E02417350719F06115710511F0CB01D2
:1015A0000895A081B181A817B90709F4BF012F5F81
:1015B0003F4F3696EECF80919C0381111CC060D2C4
:1015C00066D290938F0380938E030E94DC140E9456
:1015D000EE1490939303809392030E946B190E94E0
:1015E0007219909391038093900381E080939C0300
:1015F00090E080E0089584EF9FEF08958F929F928E
:10160000AF92BF92CF92DF92EF92FF920F931F9310
:10161000CF93DF9300D000D000D01F92CDB7DEB7BC
:101620001A86198618861F821E821D821C821B82C2
:101630001A82198280919C0307EF1FEF882309F417
:101640009CC08E010D5F1F4F9E012B5F3F4FAE016F
:10165000495F5F4FBE01675F7F4F90E080E00E946F
:10166000EF1A8C01009721F00596029708F0DBC075
:1016700029853A852115310509F402C1ED80FE80E6
:101680004B815C81B701640F751F8F819885861728
:10169000970708F4F5C0E20EF31ED7019C91903C29
:1016A00009F07FC04230510508F47BC011968C913F
:1016B00040919A0350919B03452B09F49CC0913FA4
:1016C00008F071C02CE1290F2D3008F48BC02DE2F9
:1016D000290F203108F489C0903C21F481508230D8
:1016E00008F483C088E3890F8B3008F481C09AE541
:1016F000C92E9AE0D92EE4E4FAE06D817E81AE0134
:101700004F5F5F4F89859A8519955C01C114D1049B
:10171000A1F189809A808114910479F18B819C8157
:101720008815990508F487C010E000E04B815C81C2
:1017300070E060E0C7010E94512D01151105E9F428
:1017400049815A8169857A858D819E81680F791FCB
:10175000C501F6011995E980FA800D811E812F815E
:10176000388549855A856FEF7FEF81E090E00E94D0
:101770008A1A8C01892B09F056C0C8012A960FB627
:10178000F894DEBF0FBECDBFDF91CF911F910F91B7
:10179000FF90EF90DF90CF90BF90AF909F908F9091
:1017A000089580E085CF30E020E0220F331FF9015B
:1017B000E257FC4F0190F081E02D309709F497CF6C
:1017C000892F90E01995009709F491CFDC011296CA
:1017D000ED91FC9113971496CD90DC90309709F021
:1017E0008CCF1FC021E030E0E0CF22E030E0DDCF41
:1017F00023E030E0DACFD12CC12CECE4FAE09F3FBB
:1018000009F07BCFE0918E03F0918F03309721F4A4
:10181000C90104EF1FEF0CC08FEF90E019950097FE
:10182000A9F604EF1FEF89859A85009709F4A5CFE3
:101830000E94DB1CA2CF0E94B91B8C0189859A856E
:101840000E94DB1C70E060E0C4010E94521B98877C
:101850008F830E94871A9E838D836F81788561159F
:10186000710559F0C8010E94671E9A87898706EFA3
:101870001FEF892B09F058CF59CF08EF1FEF56CF34
:1018800008EF1FEFD0CF20919C03222319F020E016
:101890000C94F31487EF9FEF089580919A03909131
:1018A0009B0308950E9477190E94D118F5D0EEE8A5
:1018B000F3E088E0DF011D928A95E9F710929C031E
:1018C00090E080E008950C942F1721E040E050E074
:1018D000BA010C94F31486E090E0FA0191838083BE
:1018E00090E080E0089547E050E06EE472E049CE79
:1018F000DF92EF92FF920F931F93CF93DF938A01B2
:10190000EC01C60FD71FE090A003F090A103D9808F
:101910000E94A11BD816190678F082E090E0F80129
:10192000918380838EEF9FEFDF91CF911F910F9175
:10193000FF90EF90DF900895EF2841F482E090E06F
:10194000F8019183808384EF9FEFEECF89818093AC
:101950009F0390E00196F8019183808390E080E0FE
:10196000E3CFCF93DF93EA010E94E017882321F0B1
:101970000E94AE1B0E94E11782E090E09983888369
:101980008BEF9FEFDF91CF910895CF93DF93EB0122
:1019900086E0FB0111928A95E9F78FEF8883D8DD05
:1019A0008983E7DD8A83E8DD9D838C83DF91CF9196
:1019B0000895CF93DF93EA010E94E317811109C0D4
:1019C00082E090E09983888385EF9FEFDF91CF914C
:1019D000089590E080E0B7DD81E090E0998388830E
:1019E00090E080E0F3CF0F931F93CF93DF93EA0152
:1019F0008C01060F171F0E94E31781110BC082E0B4
:101A000090E09983888385EF9FEFDF91CF911F91BD
:101A10000F910895F8018181823038F082E090E0E2
:101A2000998388838EEF9FEFF0CF81E090E08BDD8C
:101A300088E090E09983888390E080E0E6CFCF93C0
:101A4000DF930097D1F4EB01FB01329686E0DF01D2
:101A50001D928A95E9F78FEF888385E089831A8242
:101A60000E94A11B8B830E94A01B9D838C8381E01D
:101A70008E838F83DF91CF910895DF91CF911ACD1F
:101A800083E79CE090939E0380939D03089580914B
:101A90009D0390919E03089510929E0310929D03C2
:101AA00008958091A0039091A1030895411105C06C
:101AB000611571058105910561F06093A003709334
:101AC000A1038093A2039093A3034093A40381E016
:101AD000089580E00895FF920F931F93CF93DF93B3
:101AE0008A01EC01C60FD71FF9800E94A11BF816CE
:101AF000190668F082E090E0F801918380838EEF10
:101B00009FEFDF91CF911F910F91FF9008956C810E
:101B10007D818E819F814B81C9DF811108C082E068
:101B200090E0F8019183808384EF9FEFEACF898171
:101B300080939F0390E00196F8019183808390E069
:101B400080E0DFCFCF93DF93EA01FC01E60FF71FC0
:101B500064817581868197814381A8DF811109C0E5
:101B600082E090E09983888384EF9FEFDF91CF91AB
:101B7000089581E090E09983888390E080E0F6CF3B
:101B8000E0EAF3E04081518162817381480F511D89
:101B9000611D711D40835183628373830895CF93C8
:101BA000C0919F034C2F50E06091A0037091A1035E
:101BB00001960E94482D8C2FE3DF10929F03CF9156
:101BC0000895009799F48091A0039091A1032FEFBD
:101BD000FB012083892B59F020919F0330E02F5F78
:101BE0003F4F2417350719F4CB01D9CF63CC0895A3
:101BF000009799F48091A0039091A1032FEFFB012E
:101C00002083892B59F020919F0330E02F5F3F4FB5
:101C10002417350719F4CB01C2CF4CCC089523E12A
:101C2000AC01249FC001259F900D1124E091A903D0
:101C3000F091AA03E80FF91F238134812250310962
:101C400081E02230310508F080E008950F931F9362
:101C5000CF93DF930091AB031091AC03D0E0C0E0D1
:101C600080E00C171D0749F491E0811190E0892F65
:101C7000DF91CF911F910F9108958111F5CFCE0182
:101C8000CEDF2196EECFA091A903B091AA031097C1
:101C900029F12091AB033091AC0382179307F0F444
:101CA00053E1589F9001599F300D1124A20FB31F8B
:101CB000ED91FC911197309789F012968C916817ED
:101CC00068F48DE0689FE00DF11D11248081918101
:101CD000892B21F081E09281491708F080E0089576
:101CE0009C0143E1429FC001439F900D1124E0916C
:101CF000A903F091AA03E80FF91F8385823091F4BC
:101D000081E090E06581768140911B0250911C0238
:101D10006417750711F490E080E0892B19F081E0D9
:101D2000232B09F080E00895FC01A081B1818DE0B2
:101D3000689FA00DB11D112413964D915C9185856E
:101D40009685489F9001499F300D589F300D112472
:101D5000C9010196611103C0478144FD04960895AD
:101D6000EF92FF920F931F93CF93DF93EA01FC0151
:101D7000E60FF71F02811381E480F5804F2D6E2D51
:101D8000C80181DF81110DC082E090E099838883D2
:101D90008EEF9FEFDF91CF911F910F91FF90EF900A
:101DA0000895C8013CDF882339F082E090E09983F0
:101DB000888388EF9FEFEECF1093220200932102D9
:101DC000E0922302F092240281E090E099838883DC
:101DD00090E080E0DFCFCF92DF92EF92FF920F93FF
:101DE0001F93CF93DF937A01EC01C60FD71FC090EA
:101DF0002102D09022020091230210912402412F4F
:101E0000602FC60140DF811110C082E090E0F70131
:101E1000918380838AEF9FEFDF91CF911F910F9184
:101E2000FF90EF90DF90CF900895C601F8DE8823F1
:101E300041F082E090E0F7019183808388EF9FEF8B
:101E4000EBCF4C815D816E817F819A8189818F3F4B
:101E500041F082E090E0F701918380838EEF9FEF65
:101E6000DBCFE3E1EC9D9001ED9D300D1124E0917D
:101E7000A903F091AA03E20FF31F0190F081E02D76
:101E80002DE0029FE00DF11D11240190F081E02D65
:101E900027E0129FE00DF11D1124808391838B8137
:101EA000828343835483658376831F5F1093240268
:101EB00081E090E0F7019183808390E080E0ACCFF7
:101EC000EF92FF920F931F93CF93DF937A018C01D0
:101ED000060F171FC091A903D091AA03209781F084
:101EE00021E030E0F801828193814091AB03509171
:101EF000AC038417950710F030E020E0232B71F439
:101F000082E090E0F701918380838EEF9FEFDF9175
:101F1000CF911F910F91FF90EF90089543E1489F5B
:101F20009001499F300D1124C20FD31F78DE882302
:101F300041F082E090E0F7019183808388EF9FEF8A
:101F4000E6CFF8012481358120383105C8F6878134
:101F50008111D6CF4181842F90E08F7E009741F090
:101F600082E090E0F7019183808386EF9FEFCFCFEF
:101F70004F833E832D83268128871986223010F4D3
:101F800021E0288721E030E0F70131832083BFCFB3
:101F900088E090E0FA019183808390E080E00895EA
:101FA000FB018FEF808381E181838FEF9FEF93832C
:101FB000828380E890E09583848316821782089557
:101FC000FB018FEF808391E09183828393838483ED
:101FD00084E3858381E090E0978386830895DF9290
:101FE000EF92FF920F931F93CF93DF93EA01FC01CF
:101FF000E60FF71F8181813071F082E090E09983D4
:1020000088838FEF9FEFDF91CF911F910F91FF900A
:10201000EF90DF90089582819381D4802581E680BE
:10202000F7800091A9031091AA030115110539F455
:1020300082E090E0998388838CEF9FEFE4CF40911A
:10204000AB035091AC038417950738F082E090E021
:10205000998388838EEF9FEFD6CF892B39F082E06A
:1020600090E09983888386EF9FEFCDCF8D2D8D7F74
:10207000B1F72130A1F781E0D11006C091E0E91657
:10208000F10431F080E004C0E2E0EE16F104D0F398
:10209000882329F390E080E0C2DD882339F082E0D4
:1020A00090E09983888388EF9FEFADCFF801D386C6
:1020B00081E08487F686E586108A178681E090E0C5
:1020C0009983888390E080E09ECF4CE050E068E701
:1020D00072E057CA8F929F92BF92CF92DF92EF9297
:1020E000FF920F931F93CF93DF93EA01FC01E60F5A
:1020F000F71F828193810481B580E091A903F0915B
:10210000AA03309791F482E090E0998388838CEF62
:102110009FEFDF91CF911F910F91FF90EF90DF9094
:10212000CF90BF909F908F9008952091AB033091F6
:10213000AC038217930738F082E090E0998388839C
:102140008EEF9FEFE6CF23E1289F6001299FD00CFF
:102150001124EC0DFD1DE080F180E114F10499F2F1
:102160008281081748F78DE0089F80011124E00E56
:10217000F11EF70180819181892B29F6BB20E1F2C4
:10218000F7E0BF9E40011124C4010E94A21CF70188
:1021900091838083E091A903F091AA03EC0DFD1DCA
:1021A0000190F081E02DE00FF11F80819181009777
:1021B00039F482E090E0998388838DEF9FEFA9CF77
:1021C000A40170E060E00E94512D8091A9039091DC
:1021D000AA03C80ED91EF60180819181080F191F2C
:1021E000F801B28281E090E09983888390E080E0FA
:1021F00090CFAF92BF92CF92DF92FF920F931F9337
:10220000CF93DF93EA01FC01E60FF71F82819381F0
:10221000F4800091A9031091AA030115110581F41E
:1022200082E090E0998388838CEF9FEFDF91CF91DC
:102230001F910F91FF90DF90CF90BF90AF900895C6
:102240002091AB033091AC038217930738F082E002
:1022500090E0998388838EEF9FEFE8CF2FEF2F0DCB
:102260002C3FA8F723E1289F6001299FD00C11245F
:102270000C0D1D1DF80180819181892B89F6FDE0EF
:10228000FF9E50011124C5010E94A21CF8019183F8
:102290008083E091A903F091AA03EC0DFD1D8081DC
:1022A0009181009739F482E090E0998388838DEFE3
:1022B0009FEFBCCFA50170E060E00E94512DE0913E
:1022C000A903F091AA03EC0DFD1DF28281E090E0DC
:1022D0009983888390E080E0A9CFCF92DF92EF923C
:1022E000FF920F931F93CF93DF93860F971FFC01ED
:1022F000028113818091A9039091AA03892B81F017
:1023000082E090E0FA01918380838CEF9FEFDF9170
:10231000CF911F910F91FF90EF90DF90CF90089594
:10232000C801B0E0A0E00197A109B1098F3F9F4F1C
:10233000A105B10540F082E090E0FA01918380832D
:102340008EEF9FEFE4CF7A0183E1809F6001819F50
:10235000D00C1124C6010E94A21CEC01009741F48C
:1023600082E090E0F701918380838DEF9FEFCFCFE4
:10237000A60170E060E00E94512DD093AA03C093A3
:10238000A9031093AC030093AB0390E080E02FEF20
:102390003FEF41E061E070E08017910741F481E098
:1023A00090E0F7019183808390E080E0B0CF3A8B9A
:1023B000298B1B864C877E876D87188A1F8601961E
:1023C0006396EACFEF92FF921F93CF93DF93EC01D6
:1023D00010E0F12CE12C6A811617B0F083E0689FC1
:1023E000B0011124AE014F5E5F4FC7010E94071D6F
:1023F000009721F02FEF3FEF3A8B298BDF91CF91A0
:102400001F91FF90EF900895612FCE018DDC61E068
:1024100070E00E94521BE816F90608F47C011F5F69
:10242000DACFF8942091A7033091A80381E0211519
:10243000310509F080E0232B09F0789408952F925C
:102440003F924F925F926F927F928F929F92AF9244
:10245000BF92CF92DF92EF92FF920F931F93CF9391
:10246000DF933C01660E771EF301828193814C015C
:10247000B12CA12CC091A903D091AA03209769F097
:1024800021E030E06091AB037091AC0386179707B1
:1024900010F030E020E0232BD1F482E090E0FA014C
:1024A000918380838EEF9FEFDF91CF911F910F91EA
:1024B000FF90EF90DF90CF90BF90AF909F908F9064
:1024C0007F906F905F904F903F902F9008958092F3
:1024D000250290922602A0922702B092280263E180
:1024E000689F9001699F300D1124C20FD31FF30123
:1024F0008181833040F082E090E0FA019183808313
:1025000086EF9FEFD1CF2A012B813C81232BF1F461
:10251000288139819F8191FF2EC0232B09F46FC040
:102520002091AE039A81422F490F5527551FBA01BA
:1025300041E050E06138710514F050E040E0452B77
:1025400009F45DC02A87920F9093AE0381508230C8
:1025500008F481C066DF882309F4D8C0F3018181C3
:10256000813009F48DC008F47BC0823009F4C6C004
:1025700090E080E0ADC0232B09F441C02091AD0371
:102580009A81E22FE90FFF27FF1F41E050E0ED3F66
:10259000F10514F050E040E0452B89F12A87920FB5
:1025A0009093AD03D3CFA081B181A20FB31F119639
:1025B0006C91060F111D0196295F3F4F84179507F7
:1025C00094F38D859E85089F1001099F300C189FFC
:1025D000300C1124C114D104D1F48F8184FF17C0B1
:1025E0000E94A01BF5E02F0E311C21E082159305FF
:1025F00008F420E0A701435F5F4F21110EC082E085
:1026000090E0F2019183808387EF9FEF4DCF0E948E
:10261000A01B2FEF221A320AE8CF88819981E80E99
:10262000F91EF70114830383FFEFCF1ADF0A7A0143
:102630008A818C151D0409F00CF48CCFE881F98196
:10264000EE0DFF1D428150E030E020E010E000E0A0
:1026500090E080E0B3CFF12CE12CD12CC12CE8CF5D
:1026600081E090E09C838B83F1DA882309F480CFAA
:1026700081E090E00E94A30A80E40E94B10A78CF32
:1026800089899A89019661F083E090E09C838B832D
:1026900082E090E00E94A30A80E40E94AB0A68CF27
:1026A0008D819E8120911B0230911C02821793071D
:1026B000D1F460911F0270912002AE014F5E5F4F16
:1026C00080911D0290911E020E94261E0097E1F249
:1026D000789422E030E0F20131832083892B99F055
:1026E0008DEF9FEFE1CE89288A288B2869F6029723
:1026F00058F6CE0167DE188A1F86E8CF82E090E0A8
:102700009C838B8335CF90E080E0CECE82E090E05A
:10271000F2019183808385EF9FEFC6CE8F929F92C7
:10272000AF92BF92CF92DF92EF92FF920F931F93DF
:10273000CF93DF93EA018C01060F171FF801818107
:10274000833098F082E090E09983888386EF9FEF52
:10275000DF91CF911F910F91FF90EF90DF90CF907D
:10276000BF90AF909F908F9008958091A903909112
:10277000AA03892B61F081E090E02091AB033091B6
:10278000AC03232B11F490E080E0892B39F482E034
:1027900090E0998388838EEF9FEFDACF42DE882323
:1027A00009F4E0C0F8018181813009F496C0E8F0B5
:1027B000823099F42091AB033091AC03E091A903EE
:1027C000F091AA0390E080E041E050E0281739073B
:1027D00009F0BEC03BDA811117C0789481E090E027
:1027E0009983888390E080E0B3CF2091AB03309150
:1027F000AC03E091A903F091AA0390E080E041E0EE
:1028000050E02817390741F481E090E00E94A30AC4
:1028100080E40E94B10AE1CF63817481672B11F0DB
:102820005483438301967396ECCFE091A903F09112
:10283000AA03E00FF11F2381348122303105D9F43E
:10284000218932892F3F3F4FB1F425813681409154
:102850001B0250911C022417350761F5AF014F5E32
:102860005F4F60911F027091200280911D02909134
:102870001E020E94261EEFEFCE1ADE0AEE0AFE0AA4
:102880000D5E1F4F4091AB035091AC0370E060E0D0
:10289000C416D506E606F70644F5009731F278949B
:1028A000892B09F49BCF82E090E0998388838DEF98
:1028B0009FEF4ECFC114D104E104F104E1F62230C0
:1028C0003105C8F6CF017EDDE091A903F091AA039E
:1028D000E00FF11F108A1786CECF10E000E090E0E5
:1028E00080E0C12CD12C7601CDCF0097C1F610E04D
:1028F00000E0812C912C540183E0E82EF12C1AC0C9
:10290000E091A903F091AA03E00FF11F8381948164
:10291000029749F4F482E38282E090E00E94A30AE5
:1029200080E40E94AB0AFFEF8F1A9F0AAF0ABF0A2A
:102930000D5E1F4F8091AB039091AC03B0E0A0E01F
:1029400088169906AA06BB06DCF290E080E0A7CFC5
:10295000638174816230710511F45483438301965D
:10296000739634CF82E090E09983888385EF9FEF60
:10297000EFCE0097B9F48FEFFB0180832091250201
:102980003091260243E1429FC001439F900D1124E4
:10299000E091A903F091AA03E80FF91F8285FB01DA
:1029A000818308950C945A0A88E090E0FA0191839B
:1029B000808390E080E008951092A8031092A7030E
:1029C000E9EAF3E086E0DF011D928A95E9F785E602
:1029D00090E19093A6038093A50308958091A503A9
:1029E0009091A60308952F923F924F925F926F921B
:1029F0007F928F929F92AF92BF92CF92DF92EF928F
:102A0000FF920F931F93CF93DF93CDB7DEB72F972E
:102A10000FB6F894DEBF0FBECDBFF894E091A703C8
:102A2000F091A8033196F093A803E093A70378945C
:102A30004090A9035090AA034114510409F40CC218
:102A4000E091AB03F091AC03EF2B09F405C22D87A5
:102A500049875A876B877C8798878F831201B12CAF
:102A6000A12C10E000E08091AB039091AC03A8167C
:102A7000B90618F40115110529F1F8948091A703FE
:102A80009091A80301979093A8038093A70378944B
:102A9000C8012F960FB6F894DEBF0FBECDBFDF91F1
:102AA000CF911F910F91FF90EF90DF90CF90BF904B
:102AB000AF909F908F907F906F905F904F903F90DE
:102AC0002F9008957101E418F508D10117968C91A3
:102AD000179781FD54C013968D919C91149703977D
:102AE00009F04DC015968D919C91EF81F8858E1758
:102AF0009F0709F044C0B50190E080E07FD48A834D
:102B00002091A9033091AA033D832C833D85332373
:102B100009F44CC04C815D81452B09F49AC1809128
:102B2000AB039091AC03A816B90608F092C1C50199
:102B3000D7D88823E9F06C817D816E0D7F1D7D8360
:102B40006C83DB011F968D919C91892B89F0D12C90
:102B5000C12CF12CE12CAC81BD8112968C91129785
:102B60008E151F0409F094F450961C921E921F9724
:102B70002A81222321F0B50190E080E041D43FEF8B
:102B8000A31AB30A43E1240E311C6DCFAC81BD8181
:102B9000ED91FC91EC0DFD1D858196810CD7BFEF69
:102BA000EB1AFB0AEDE0CE0ED11CD5CFEC81FD81F6
:102BB000309709F44EC18091AB039091AC03A816F5
:102BC000B90608F046C1EE0DFF1DFF87EE87C5016F
:102BD00087D88B83882339F1AE85BF851F968D9169
:102BE0009C915097019621E01D964D915C91841720
:102BF000950709F020E02E831982712C10E000E087
:102C0000AE85BF8512968C91781608F45DC0EE856E
:102C1000FF85878590890196658576850E94F12CD0
:102C2000908B8787A5CFB1E0BE83E6CF992493949C
:102C30006BC088D6F6019683858382C0D601ED905D
:102C4000FC90B7E06B9EE00CF11C1124F70163814E
:102C5000748180818F3F61F121E030E002C0220F5A
:102C6000331F8A95E2F7C901092E000CAA0BBB0B92
:102C7000FB01408151816281738184239523A623C6
:102C8000B72321E0892B8A2B8B2B09F420E0D40178
:102C90002C93D70111968C91F60123853485820FF0
:102CA000932F911D880E991E1486138663949BC0E2
:102CB000418150E0C4010E94482DEBCF998206EF7C
:102CC0001FEFC5C01982C3C0F981F111A0CFEDE09B
:102CD0007E9E70011124AE85BF85CD90DC90CE0C18
:102CE000DF1C15D49D838C83BB81BB2309F49ECF4D
:102CF00081E0EE85FF8527853089232B09F080E070
:102D0000982E882309F458C0672D8E859F850CD88E
:102D1000D60118969C938E93179761E070E0C2D409
:102D2000EE85FF85218932892F3F320709F481CF53
:102D3000BC01C901CCD7D60116969C938E931597EA
:102D4000D60115968D919C911697009709F4B6CFF0
:102D5000EC81FD818E0F9F1F1A969C938E9319977D
:102D6000AE85BF85ED91FC911197EE0EFF1EF70128
:102D700021853285148613861A968C91870DD90188
:102D80008D93711016C0EE85FF85878184FF11C079
:102D900049855A856B857C85F9014183528363831C
:102DA0007483F701838594850496A80FB91F148650
:102DB0001386F701B287A187D60115968D919C9154
:102DC0001697892B09F443C0EE85FF85258136814E
:102DD00080911B0290911C022817390779F01996EF
:102DE0008D909C90612CD60112968C91129768164A
:102DF00008F424CF1A969C928E921997BE81BB2319
:102E000009F460CF61E070E0F601878190854AD4D3
:102E1000D6011796ED90FC90189715964D915C9100
:102E2000E1E0F0E0BA81BB2311F0F0E0E0E00C81DA
:102E30001D819C01B501882799278E1B9F0B6AD3A2
:102E40008C01892B21F0F60185819681B4D573948C
:102E5000D7CE0FEF1FEF8CCE10E000E00ECE2F92FA
:102E60003F924F925F926F927F928F929F92AF921A
:102E7000BF92CF92DF92EF92FF920F931F93CF9367
:102E8000DF938091A9039091AA0310E000E0892BC1
:102E9000A9F0C7DA0AEF1FEF882381F02090AB0377
:102EA0003090AC03C091A903D091AA03D12CC12CBE
:102EB00010E000E02C143D04A9F47894C801DF91DF
:102EC000CF911F910F91FF90EF90DF90CF90BF9027
:102ED000AF909F908F907F906F905F904F903F90BA
:102EE0002F900895C6010E94700E882309F18B81EE
:102EF0009C810397E9F48F859889892BC9F0B601E5
:102F000090E080E07BD221E030E0882311F030E0D7
:102F100020E044245524421A530AB12CA12C912CB0
:102F2000812C8A818815190409F038F4188A1F86C3
:102F30004FEFC41AD40A6396BDCFE881F981EA0D38
:102F4000FB1D85819681892BA1F161E070E087816D
:102F50009085A8D33C01DBD28C01E881F981EA0D90
:102F6000FB1D8185928525813681200F311FAC01A3
:102F7000421B530B9A0147815085421B530B70E053
:102F800060E00E94512DE881F981EA0DFB1DE78088
:102F9000F084458156819301B601C201BBD28C01F8
:102FA000892B39F0E881F981EA0DFB1D8581968135
:102FB00002D55FEF851A950A8DE0A80EB11CB1CF3E
:102FC00030CA789408952F923F924F925F926F92F9
:102FD0007F929F92AF92BF92CF92DF92EF92FF9239
:102FE0000F931F93CF93DF9300D000D0CDB7DEB700
:102FF0000091A9031091AA03992493940115110536
:1030000009F43EC0A090AB03B090AC030ADA982E4E
:103010008823B1F11092AA031092A9031092AC0375
:103020001092AB031092AD031092AE038FEF9FEF9F
:10303000DC018093250290932602A0932702B0938F
:10304000280278947FD31E830D83C12CD12C760166
:10305000C501B0E0A0E089839A83AB83BC832224BE
:103060002A94322C89819A81AB81BC81C816D906F9
:10307000EA06FB06F4F0C8019ED480E40E94B10A7F
:10308000892D26960FB6F894DEBF0FBECDBFDF9117
:10309000CF911F910F91FF90EF90DF90CF90BF9055
:1030A000AF909F907F906F905F904F903F902F9048
:1030B0000895AD81BE8115968D919C9116972091B2
:1030C0001B0230911C0282179307D1F451968D9107
:1030D0009C91EBD5ED81FE8180819181B12CA12C59
:1030E000412C512C3201892B89F5BFEFCB1ADB0A19
:1030F000EB0AFB0AED81FE817396FE83ED83B2CF6E
:10310000C114D104E104F10429F7029718F7ED8105
:10311000FE81818992898F3F980709F026D5AD817C
:10312000BE8152963C922E925197D4CF8A0D9B1D10
:10313000DC018D919C91009709F03DD4BFEF4B1AB3
:103140005B0A6B0A7B0AEDE0AE0EB11CAD81BE815D
:103150008D919C91119712964C9150E070E060E037
:1031600044165506660677060CF325D4BECFCF93DA
:10317000DF93EA0128DF811109C082E090E09983A2
:10318000888385EF9FEFDF91CF91089581E090E0F4
:103190000E94A30A81E090E09983888390E080E018
:1031A000F2CF11DF1092A6031092A503089542E01A
:1031B00050E060EC72E00C94C10AFF920F931F93F1
:1031C000CF93DF938A01EC01C60FD71FF980B9D2E4
:1031D0000897F816190671F068F082E090E0F8019F
:1031E000918380838EEF9FEFDF91CF911F910F919D
:1031F000FF9008956C817D818E819F814B810E941B
:10320000560D811108C082E090E0F801918380831F
:1032100084EF9FEFE9CFF9800E94510D4F2D50E0D0
:10322000BE01685F7F4F0E94482D89810E94C00DBA
:1032300081E090E0F8019183808390E080E0D4CF3A
:10324000DF92EF92FF920F931F93CF93DF938A0148
:10325000EC01C60FD71F0E94510D7C01D98071D29D
:10326000DD2059F0029721E030E0D816190619F058
:1032700010F030E020E0232B79F482E090E0F801B8
:10328000918380838EEF9FEFDF91CF911F910F91FC
:10329000FF90EF90DF900895EF2841F482E090E0F6
:1032A000F8019183808384EF9FEFEECFF9800E9435
:1032B000510D4F2D50E0BE016E5F7F4F0E94482D93
:1032C00089810E94C00D81E090E0F80191838083A4
:1032D00090E080E0D9CF87ED98E19093B0038093A0
:1032E000AF0308958091AF039091B00308950895BE
:1032F000FC0111821082938382830895DB011D9269
:103300001C92DC011296ED91FC91139771836083FE
:1033100013967C936E9312970895FC01808191819E
:10332000DB018D939C93A081B181109741F08D9129
:103330009C9191838083892B11F4F383E283089518
:10334000FC0180819181DB018D939C93892B11F489
:1033500073836283718360830895FC0111821082FC
:10336000938382830895CF93DF931F921F92CDB7EB
:10337000DEB71A821982F894BE016F5F7F4F86EB29
:1033800093E0CBDF89819A81009709F014D389817A
:103390009A81892B89F7BE016F5F7F4F8AEB93E09B
:1033A000BCDF89819A81009709F005D389819A81D0
:1033B000892B89F778940F900F90DF91CF91089522
:1033C000CF93DF931F921F92CDB7DEB71A82198277
:1033D000F894BE016F5F7F4F82EB93E09EDF89819F
:1033E0009A81009709F0E7D289819A81892B89F720
:1033F00078940F900F90DF91CF91089581E0089518
:1034000090E080E00895EF92FF920F931F93CF9387
:10341000DF931F921F92CDB7DEB71A821982809177
:10342000B10307EF1FEF8823A1F1F894BE016F5F8E
:103430007F4F8AEB93E071DF789489819A81EE2443
:10344000E394F12C892B51F4F894BE016F5F7F4F08
:1034500086EB93E062DF7894F12CE12C89819A81EC
:103460000EEF1FEF0097A9F0FC014281538164E049
:1034700070E070D68C01892B61F0F89469817A81B3
:10348000C701880F991F880F991F8A549C4F58DFD6
:103490007894C8010F900F90DF91CF911F910F91F9
:1034A000FF90EF9008950F931F93CF93DF9300D079
:1034B0001F92CDB7DEB71C821B821A8219828091BF
:1034C000B10307EF1FEF8823C1F0AE014D5F5F4FDF
:1034D00064E070E0CE010196B0D68C01892B69F4CE
:1034E000E981FA818B819C8193838283F89469813D
:1034F0007A8182EB93E002DF7894C8010F900F90FD
:103500000F900F90DF91CF911F910F910895B5D734
:10351000049608958F929F92AF92BF92CF92DF92BE
:10352000EF92FF920F931F93CF93DF931F921F92FF
:10353000CDB7DEB71A821982BC016F5F7F4F63304F
:10354000710598F0AA24AA94BA2CC5010F900F9087
:10355000DF91CF911F910F91FF90EF90DF90CF906F
:10356000BF90AF909F908F9008954115510551F3F2
:10357000480159018A016C01CADF8815990511F7C4
:10358000E114F104F9F28E0D9F1DA816B906D0F2D0
:103590008091B1038823F1F0F894B501645071096A
:1035A0009701AE014F5F5F4FC8010496DBD65C0107
:1035B000892B71F489819A81F80193838283C601F2
:1035C000880F991F880F991FB8018A549C4F96DE67
:1035D0007894BBCF87EFA82EBB24BA94B6CFAF9216
:1035E000BF92CF92DF92EF92FF920F931F93CF93F0
:1035F000DF931F921F92CDB7DEB71A821982892BF3
:1036000009F047C06115710509F443C04115510522
:1036100009F43FC02115310509F43BC0011511051E
:10362000C1F18091B1038823B9F179016A015B018D
:10363000F894BE016F5F7F4F82EB93E06EDE78946B
:1036400089819A81009759F1DC0112966D917C91E4
:10365000A8010496A0D68C01E981FA81D501ED93E9
:10366000FC93828193810496F601918380834FDFDE
:10367000D7018D939C93C8010F900F90DF91CF914C
:103680001F910F91FF90EF90DF90CF90BF90AF9080
:1036900008950FEF1FEFEFCF07EF1FEFECCF0EEF07
:1036A0001FEFE9CFCF93DF93EC01672B71F4EED6D8
:1036B0008C179D0760F0E1D62496C80FD91FE0D67D
:1036C0008C0F9D1FDF91CF910895DDD6F1CF90E053
:1036D00080E0F8CF0F931F93CF93DF932091B10336
:1036E00021112BC08B01EC0186EB93E001DE8AEB0C
:1036F00093E0FEDD82EB93E0FBDD97D00097C1F411
:10370000C5D670E060E0CEDF49E252E062E070E0F2
:103710007ED1009769F48091290290912A02C8D63F
:10372000B801CE01FDD4009719F421E02093B10334
:10373000DF91CF911F910F91089584EF9FEFF8CF04
:10374000A2C6A4C6CF93DF93A4D6EC01892B11F4B3
:103750000ADE36DECE01DF91CF910895CF93DF935D
:1037600098D6EC01892B09F4FEDDCE01DF91CF91D3
:1037700008958091290290912A020895CF93DF93B2
:103780008091B103D0E0C0E08823D1F096D6EC015F
:10379000892BB1F4E8DD14DE8091290290912A0290
:1037A000E4D1E5D2EC01892B59F486EB93E0D5DD29
:1037B0008AEB93E0D2DD82EB93E0CFDD1092B10390
:1037C000CE01DF91CF910895EF92FF920F931F9357
:1037D000CF93DF93EC017A018B010F5F1F4F0E9D9A
:1037E000A0010F9D500D1E9D500D112470E060E052
:1037F0000E94512D90E080E0F0E0E0E02FEFE8162D
:10380000F90639F4DF91CF911F910F91FF90EF905E
:1038100008951A8219822883309711F0D283C183C8
:103820000196FE01C00FD11FEACFCF92DF92EF9237
:10383000FF920F931F93CF93DF9307EB14E00C7F5E
:1038400043E050E06BE272E081E392E016D48BE259
:10385000E82E82E0F82E91E3C92E92E0D92EC6E23E
:10386000D5E0D7014D915D917D01F6016191719196
:103870006F01198308835D834C835B834A837F8355
:103880006E839B012F5F3F4F249FC001259F900DAA
:10389000349F900D1124998788870115110511F027
:1038A000C80192DF88859985080F191F2A96F1E3D0
:1038B000EF16F2E0FF06A9F6E0ECF3E084EFDF019B
:1038C0001D928A95E9F71092BF031092BE031092E1
:1038D0004505109244051092490510924805109232
:1038E00047051092460510924B0510924A0510921A
:1038F0004D0510924C0510924F0510924E051092F6
:1039000053051092520510925105109250051092D5
:1039100055051092540510925705109256051092B5
:10392000230510922205109225051092240590E09F
:1039300080E0DF91CF911F910F91FF90EF90DF908A
:10394000CF9008950097F1F0F894A1E3B2E0E6E299
:10395000F5E030E020E04D915D9148175907A8F05F
:10396000428153814115510581F08AE0829FF00127
:10397000839FF00D1124EA5DFA4F808191810097B9
:1039800059F4789490E080E008952F5F3F4F3A9685
:103990002330310501F7F5CFDC0111966D917C9153
:1039A000718360834150510953834283FC01219309
:1039B000CF0178940895009749F1DC018E9185300C
:1039C00041F4E0912405F09125053097F9F0CD01FF
:1039D00019948530D8F4282F30E0F8948FEF8C9329
:1039E0008AE0829FF001839FF00D1124EA5DFA4F77
:1039F0008081918112969C938E931197B183A083BD
:103A00008281938101969383828378940895CF92E3
:103A1000DF92EF92FF920F931F93CF93DF939C015E
:103A200083EC93E08C7F4115510509F49BC021156F
:103A3000310509F497C06115710509F493C07A0145
:103A4000AB01B9016D5F7F4F6C7F9B012F5F3F4FD3
:103A5000249F8001259F100D349F100D1124F89490
:103A60002091440530914505232B59F420914C05B4
:103A700030914D052115310569F12017310708F006
:103A800058C020914E0530914F05232B91F4209181
:103A90004C0530914D05820F931F209156053091B2
:103AA00057052115310509F441C02017310708F0E9
:103AB00056C07894CFEFDFEF86EF9FEFF701D18309
:103AC000C083DF91CF911F910F91FF90EF90DF9016
:103AD000CF900895C3E0D0E0C090BE03D090BF0364
:103AE00021EF30E02C193D092017310710F32AE0AF
:103AF0002C9FF0012D9FF00D1124EA5DFA4F918368
:103B000080835583448353834283778366831187FD
:103B10000087009709F058DE0C0D1D1D1093BF03A0
:103B20000093BE03789490E080E0C8CFC4E0D0E07A
:103B3000D3CFC3E0D0E02AE02C9FF0012D9FF00D01
:103B40001124EA5DFA4F9183808355834483538324
:103B5000428377836683009729F336DEE3CFC4E0A0
:103B6000D0E0E9CF8FEF9FEFACCF9C010397029796
:103B700008F069C0F89484E09AE0482F50E02417D8
:103B800035070CF44DC091E08AE0829FF001839FDD
:103B9000F00D1124EA5DFA4F118210821582148211
:103BA00013821282178216829923B1F18091440503
:103BB00090914505892BA9F420914C0530914D0534
:103BC0002115310571F08091BE039091BF03821BD6
:103BD000930B9093BF038093BE0310924D051092F8
:103BE0004C0580914E0590914F05892BA9F42091A9
:103BF0005605309157052115310571F08091BE03AE
:103C00009091BF03821B930B9093BF038093BE03DD
:103C10001092570510925605789490E080E0089530
:103C2000949FF001959FF00D1124EA5DFA4F4081B9
:103C30005181452B31F440855185452B11F481503C
:103C40009CCF90E0A1CF8FEF9FEF089541155105D4
:103C500049F1009739F16115710521F1F89420912E
:103C6000220530912305232BB9F4209124053091AE
:103C70002505232B89F490932305809322057093C7
:103C8000250560932405789425E030E090E080E0FD
:103C9000FA0131832083089578942FEF3FEF86EF68
:103CA0009FEFF6CF8FEF9FEF0895059769F4F89493
:103CB00010922305109222051092250510922405DA
:103CC000789490E080E008958FEF9FEF089561155C
:103CD000710519F4F0E0E0E011C08530910581F440
:103CE000E0912205F09123053097A1F3CB010196D5
:103CF0001995009779F3FC0185E08193CF01089530
:103D00009C01235031092230310520F72AE0289FF9
:103D1000D001299FB00D1124AA5DBA4F2D913C917D
:103D20001197232BB9F216962D913C9117972617D0
:103D3000370780F2F89412962D913C911397211534
:103D4000310529F0ED91FC911197309711F4789499
:103D5000C1CF4181528111965C934E93215031091C
:103D600013963C932E93129781937894C7CFE4EBEC
:103D7000F4E08EE6DF011D928A95E9F7E0ECF3E0CE
:103D800084EFDF011D928A95E9F71092BF0310922C
:103D9000BE03E6E2F5E082E3DF011D928A95E9F7D2
:103DA000E2E2F5E084E0DF011D928A95E9F790E018
:103DB00080E00895CF93DF93C0913702D09138020D
:103DC000CF3FDC0759F422D4909338028093370216
:103DD00097FF09C0D0933802C093370284EF9FEF5A
:103DE000DF91CF91089590E080E0FACF8230910585
:103DF00028F48093580590E080E008958FEF9FEFBE
:103E000008954F925F926F927F92AF92BF92CF923E
:103E1000DF92EF92FF920F931F93CF93DF931F9246
:103E20001F92CDB7DEB71A821982009709F479C0C4
:103E30006115710509F475C020913702309138027F
:103E400007EF1FEF2F3F3F4F09F445C06B015C01A7
:103E5000412C512C3201F12CE12C10E000E09E01AC
:103E60002F5F3F4FA6014E195F09B5016E0D7F1DF3
:103E7000809137029091380228D4892B09F04BC0E9
:103E800089819A81009741F4E114F10429F4209189
:103E90005805222309F442C0E80EF91EEC14FD0473
:103EA000D0F480E8481684E858068EE1680671046C
:103EB00020F560E070E0CB010E94F3272AE0420E7B
:103EC000511C611C711C0A3F4FEF140721F0043F85
:103ED0008FEF1807A1F4C8010F900F90DF91CF91D9
:103EE0001F910F91FF90EF90DF90CF90BF90AF9018
:103EF0007F906F905F904F90089501EF1FEF81E0EA
:103F000090E0013F2FEF120711F090E080E0892B45
:103F100009F4A5CFE0CF04EF1FEFDDCF0AEF1FEFCD
:103F2000DACF0FEF1FEFD7CF4F925F926F927F9252
:103F3000AF92BF92CF92DF92EF92FF920F931F93B7
:103F4000CF93DF931F921F92CDB7DEB71A821982EB
:103F5000009709F479C06115710509F475C02091C5
:103F600037023091380207EF1FEF2F3F3F4F09F420
:103F700045C06B015C01412C512C3201F12CE12C2C
:103F800010E000E09E012F5F3F4FA6014E195F0930
:103F9000B5016E0D7F1D80913702909138024BD391
:103FA000892B09F04BC089819A81009741F4E11473
:103FB000F10429F420915805222309F442C0E80EA7
:103FC000F91EEC14FD04D0F480E4481682E458068F
:103FD0008FE06806710420F560E070E0CB010E947C
:103FE000F3272AE0420E511C611C711C0E3F4FEF5B
:103FF000140721F0043F8FEF1807A1F4C8010F90B8
:104000000F90DF91CF911F910F91FF90EF90DF9074
:10401000CF90BF90AF907F906F905F904F9008953A
:1040200002EF1FEF81E090E0023F2FEF120711F047
:1040300090E080E0892B09F4A5CFE0CF04EF1FEFDB
:10404000DDCF0EEF1FEFDACF0FEF1FEFD7CF80914D
:104050003702909138028F3F980749F0CFD2892BD1
:1040600049F48FEF9FEF909338028093370290E0EE
:1040700080E0089584EF9FEF0895CF92DF92EF9252
:10408000FF920F931F93CF93DF9321E041155105CA
:1040900009F020E04150510921112CC0DC01FB0145
:1040A000D12CC12C21E022C03FEFC31AD30A7D01DD
:1040B0000D911D91E701EA80FB80E016F106A8F45E
:1040C00020813181E280F380F182E0823383228398
:1040D000ED90FC9011979D0122503109E901F98280
:1040E000E88211961C930E9320E03296C416D506F2
:1040F000D8F2D2CFDF91CF911F910F91FF90EF9027
:10410000DF90CF900895FC01680F791F90E080E068
:10411000E617F70709F408952191820F911DF8CF52
:1041200020915905211113C045DE009791F410929A
:104130005F0510925E0510925D0510925C0510926D
:104140005B0510925A0521E020935905089584EFEC
:104150009FEF0895AF92BF92CF92DF92EF92FF92BE
:104160000F931F93CF93DF93009709F460C04630FD
:10417000510508F45CC020915905C7EFDFEF2223F9
:1041800009F449C08C01060F171FF801C080D180C7
:10419000C114D10409F44EC096012A5F3F4F421763
:1041A000530708F447C07C0180915E0590915F053C
:1041B00093838283B6016C5F7F4F5801A60EB71EB2
:1041C000C801A1DFF5019183808364E070E0C8013C
:1041D00018DEEC01892BF9F481E090E007DEB601EE
:1041E000C80104960EDEEC01892B91F462E070E0C8
:1041F000C50107DEEC01892B59F4C701DCDB809196
:104200005E0590915F05019690935F0580935E0532
:1042100090E080E0EBDDCE01DF91CF911F910F9117
:10422000FF90EF90DF90CF90BF90AF900895CFEFC9
:10423000DFEFF1CFC9EFDFEFEECF6F927F928F927A
:104240009F92AF92BF92CF92DF92EF92FF920F9325
:104250001F93CF93DF9300D01F92CDB7DEB70097A7
:1042600009F47AC04115510509F476C02091590529
:1042700007EF1FEF222309F44DC03A017B015C01D7
:1042800064E070E0CE0101964FDE8C01892B09F0CD
:1042900041C009811A810115110509F45AC048016C
:1042A00086E0880E911CB701680D791D8091390256
:1042B00090913A020CDD6C01009709F450C0A701FF
:1042C00070E060E00E94512D89819A81AB81BC81B0
:1042D000EC0CFD1CF70181939193A193B1937F01A5
:1042E00081E090E083DDB801C7011EDE892B31F546
:1042F00062E070E0C701800F911F16DE8C01892BF0
:10430000E9F490E080E072DDF501D182C082F30132
:1043100091828082C8010F900F900F900F90DF91D3
:10432000CF911F910F91FF90EF90DF90CF90BF90B2
:10433000AF909F908F907F906F90089590E080E075
:1043400055DDF50111821082F30111821082C60140
:1043500032DB09EF1FEFDECF0FEF1FEFDBCF06EFF2
:104360001FEFD8CF0097A1F04115510589F0211515
:10437000310571F0F90136966E177F0748F0DC01C0
:104380002D933C93DA01ED93FC9390E080E0089547
:104390008FEF9FEF0895AF92BF92CF92DF92EF928F
:1043A000FF920F931F93CF93DF93009709F45FC0A1
:1043B0004115510509F45BC06530710508F457C01B
:1043C00020915905C7EFDFEF222391F1DC01CD9059
:1043D000DC9011971296ED91FC9196012A5F3F4F68
:1043E000C9EFDFEF2617370719F5C0915A05D091AD
:1043F0005B05209749F521E030E030935B05209381
:104400005A057A018C01F0935D05E0935C05560135
:10441000B4E0AB0EB11CB50176DE0A0D1B1DF80130
:10442000208131818217930729F5D701CD92DC9243
:10443000CE01DF91CF911F910F91FF90EF90DF9010
:10444000CF90BF90AF90089520915C0530915D05AD
:104450002F5F3F4FCCEFDFEFE217F30790F2CBEF88
:10446000DFEF2E173F0768F2D0E0C0E0CACFCFEFF2
:10447000DFEFDECFC3EFDFEFDBCF84E090E0089526
:1044800082E090E008958CEF9FEF089580E290E045
:10449000089510925F0510925E0510925D051092CE
:1044A0005C0510925B0510925A0590E080E008953B
:1044B00090933A0280933902089580915905882398
:1044C00091F0C5DD009789F410925F0510925E05AA
:1044D00010925D0510925C0510925B0510925A05D2
:1044E00010925905089590E080E00895009749F0F2
:1044F0006115710531F0FC0111821082FB011182FE
:1045000010820895F3CF26E030E040E855E260E005
:1045100070E090E080E000C08130910569F01CF40B
:10452000892B39F008958230910549F0039751F0B5
:1045300008958DE695E088C78AE096E0FCCF87EA8B
:1045400096E0F9CF84E497E0F6CF1F920F920FB672
:104550000F9211240BB60F922F933F934F935F93BB
:104560006F937F938F939F93AF93BF93EF93FF933B
:104570008EEE95E89093250180932401BAD0FF91A7
:10458000EF91BF91AF919F918F917F916F915F91CB
:104590004F913F912F910F900BBE0F900FBE0F9038
:1045A0001F9018958EEE95E8909325018093240135
:1045B000A3E7B0E08C918E7F8C93E0E2F1E0808104
:1045C0008C7F8083E1E2F1E08081877E808380813F
:1045D0008460808380818C7F80838C9181608C93C8
:1045E0000895E3E7F0E0808190819E7F9083817061
:1045F000089581E0089510926005089568EE73E0D3
:1046000080E090E0F0D490E080E0089526E030E093
:1046100040E050E16EE070E090E080E07DDF8DE60C
:1046200095E048D6892B21F08DE695E05DD6F7CF51
:1046300090E080E00895CF92DF92EF92FF920F9387
:104640001F93CF93DF936B017A01E90119821882DE
:104650008DE695E02FD6892B69F18601CC24C39491
:1046600082E0D82E80916005811110C08DE695E022
:104670003BD60297B9F7C0926005F801D1928F013D
:1046800088819981019699838883ECCF888199816B
:104690008E159F0578F48DE695E026D68F3F980716
:1046A000A9F3F80181938F018881998101969983FB
:1046B0008883ECCF90E080E0DF91CF911F910F9144
:1046C000FF90EF90DF90CF9008950F931F93CF93BB
:1046D000DF93EA0189018DE695E00E94B42CF80190
:1046E000D183C08390E080E0DF91CF911F910F9143
:1046F0000895CF92DF92EF92FF928091610591E051
:10470000980F90936105882369F021E030E03093A1
:1047100063052093620580936105FF90EF90DF9021
:10472000CF9008957894E0914C02F0914D02C28CA4
:10473000D38CE48CF58C0E940503B701A60190E0B0
:1047400080E00E943602F894809161058150E3CFA9
:104750000F931F93CF93DF931092FB071092FA07EA
:1047600078D4D1DEC0914C02D0914D0219821882CA
:104770006FEF7FEFCB010E94B80270E060E090E045
:1047800080E00E943A01009709F03AC00E94E303DA
:10479000F8947894BE016F5C7F4F8A819B810E9460
:1047A0003D01892B59F46FEF7FEFCB010E94CC01C3
:1047B0000E94B202882311F081E08DABF894F2DE02
:1047C0000E94B502882311F080E008C00E94B20266
:1047D0008111FACF81E09DA99111F6CF8093FA075C
:1047E00078940E949E0A8C0178948091FA07811136
:1047F0000CC00E9470040E949802F89490E080E03F
:10480000DF91CF911F910F9108950E9496020E940F
:10481000B5028823D9F081E08093FB079091FB07D4
:1048200081E0911180E08093FA078091FB0781116C
:10483000D8DE0130110529F40E949E0A892B09F463
:10484000DADE0E949E0A8C01D4DECFCF0E94B20233
:104850008111E1CF81E09DA99111DECF80E0DCCF15
:104860005058BB27AA270ED0DCC0CDD030F0D2D014
:1048700020F031F49F3F11F41EF4C2C00EF4E09515
:10488000E7FBB8C0E92FDED080F3BA1762077307E1
:104890008407950718F071F49EF5F6C00EF4E095C4
:1048A0000B2EBA2FA02D0B01B90190010C01CA01EA
:1048B000A0011124FF27591B99F0593F50F4503E95
:1048C00068F11A16F040A22F232F342F4427585F87
:1048D000F3CF469537952795A795F0405395C9F79F
:1048E0007EF41F16BA0B620B730B840BBAF0915057
:1048F000A1F0FF0FBB1F661F771F881FC2F70EC0F6
:10490000BA0F621F731F841F48F4879577956795C8
:10491000B795F7959E3F08F0B3CF9395880F08F0B1
:104920009927EE0F97958795089540D008F481E078
:104930000895E89409C097FB3EF490958095709592
:1049400061957F4F8F4F9F4F9923A9F0F92F96E9DB
:10495000BB279395F695879577956795B795F11150
:10496000F8CFFAF4BB0F11F460FF1BC06F5F7F4FED
:104970008F4F9F4F16C0882311F096E911C07723FF
:1049800021F09EE8872F762F05C0662371F096E808
:10499000862F70E060E02AF09A95660F771F881FD7
:1049A000DAF7880F9695879597F90895990F00087B
:1049B000550FAA0BE0E8FEEF16161706E807F907F1
:1049C000C0F012161306E407F50798F0621B730B8C
:1049D000840B950B39F40A2661F0232B242B252B0D
:1049E00021F408950A2609F4A140A6958FEF811DB0
:1049F000811D089597F99F6780E870E060E0089551
:104A00009FEF80EC089500240A94161617061806E6
:104A10000906089500240A941216130614060506C2
:104A20000895092E0394000C11F4882352F0BB0F53
:104A300040F4BF2B11F460FF04C06F5F7F4F8F4FB6
:104A40009F4F089557FD9058440F551F59F05F3FF1
:104A500071F04795880F97FB991F61F09F3F79F0A0
:104A600087950895121613061406551FF2CF469522
:104A7000F1DF08C0161617061806991FF1CF8695A4
:104A80007105610508940895E894BB276627772788
:104A9000CB0197F908958ADF08F48FEF08950BD0C2
:104AA000C0CFB1DF28F0B6DF18F0952309F0A2CF10
:104AB000A7CF1124EACFC6DFA0F3959FD1F3950FBE
:104AC00050E0551F629FF001729FBB27F00DB11D92
:104AD000639FAA27F00DB11DAA1F649F6627B00D22
:104AE000A11D661F829F2227B00DA11D621F739F0B
:104AF000B00DA11D621F839FA00D611D221F749F19
:104B00003327A00D611D231F849F600D211D822F5F
:104B1000762F6A2F11249F5750408AF0E1F08823A6
:104B20004AF0EE0FFF1FBB1F661F771F881F9150B3
:104B30005040A9F79E3F510570F05CCFA6CF5F3F74
:104B4000ECF3983EDCF3869577956795B795F795E6
:104B5000E7959F5FC1F7FE2B880F911D969587956E
:104B600097F908950895883008F075C0E82FF0E0AF
:104B7000EE0FFF1FE55CFD4F71836083815087302E
:104B800008F03CC0E82FF0E08827E753FA4D8F4F3C
:104B90005EC70626D025D825E425F12512261F2636
:104BA000809169008C7F482B40936900E89A0895B2
:104BB00080916900837F440F551F440F551F482B78
:104BC00040936900E99A0895809169008F7C74E0B0
:104BD000440F551F7A95E1F7482B40936900EA9AF4
:104BE0000895809169008F7366E0440F551F6A95A0
:104BF000E1F7482B40936900EB9A089580916A0091
:104C00008C7F482B40936A00EC9A089580916A004B
:104C1000837F440F551F440F551F482B40936A0054
:104C2000ED9A089580916A008F7C24E0440F551F0F
:104C30002A95E1F7482B40936A00EE9A08958091F7
:104C40006A008F7396E0440F551F9A95E1F7482B41
:104C500040936A00EF9A08951F920F920FB60F9239
:104C600011240BB60F922F933F934F935F936F9343
:104C70007F938F939F93AF93BF93EF93FF93E091B5
:104C80003F02F09140021995FF91EF91BF91AF91D2
:104C90009F918F917F916F915F914F913F912F9154
:104CA0000F900BBE0F900FBE0F901F9018951F9284
:104CB0000F920FB60F9211240BB60F922F933F93C2
:104CC0004F935F936F937F938F939F93AF93BF9314
:104CD000EF93FF93E0914102F09142021995FF9109
:104CE000EF91BF91AF919F918F917F916F915F9164
:104CF0004F913F912F910F900BBE0F900FBE0F90D1
:104D00001F9018951F920F920FB60F9211240BB699
:104D10000F922F933F934F935F936F937F938F9354
:104D20009F93AF93BF93EF93FF93E0914302F09172
:104D300044021995FF91EF91BF91AF919F918F918F
:104D40007F916F915F914F913F912F910F900BBE8B
:104D50000F900FBE0F901F9018951F920F920FB6D5
:104D60000F9211240BB60F922F933F934F935F93A3
:104D70006F937F938F939F93AF93BF93EF93FF9323
:104D8000E0914502F09146021995FF91EF91BF9194
:104D9000AF919F918F917F916F915F914F913F91D3
:104DA0002F910F900BBE0F900FBE0F901F90189574
:104DB0001F920F920FB60F9211240BB60F922F93E2
:104DC0003F934F935F936F937F938F939F93AF9393
:104DD000BF93EF93FF93E0913B02F0913C02199552
:104DE000FF91EF91BF91AF919F918F917F916F91C3
:104DF0005F914F913F912F910F900BBE0F900FBE7F
:104E00000F901F9018951F920F920FB60F921124BA
:104E10000BB60F922F933F934F935F936F937F93B4
:104E20008F939F93AF93BF93EF93FF93E0913D02D6
:104E3000F0913E021995FF91EF91BF91AF919F9133
:104E40008F917F916F915F914F913F912F910F9033
:104E50000BBE0F900FBE0F901F9018951F920F92D0
:104E60000FB60F9211240BB60F922F933F934F93CF
:104E70005F936F937F938F939F93AF93BF93EF93C2
:104E8000FF93E0914702F09148021995FF91EF914D
:104E9000BF91AF919F918F917F916F915F914F9152
:104EA0003F912F910F900BBE0F900FBE0F901F9050
:104EB00018951F920F920FB60F9211240BB60F92F6
:104EC0002F933F934F935F936F937F938F939F9312
:104ED000AF93BF93EF93FF93E0914902F0914A02A1
:104EE0001995FF91EF91BF91AF919F918F917F9114
:104EF0006F915F914F913F912F910F900BBE0F904B
:104F00000FBE0F901F9018951F920F920FB60F9221
:104F100011242F933F938F939F93AF93BF938091CF
:104F2000650590916605A0916705B091680530917F
:104F3000640523E0230F2D3758F50196A11DB11DFF
:104F4000209364058093650590936605A09367059B
:104F5000B09368058091690590916A05A0916B05F1
:104F6000B0916C050196A11DB11D809369059093C8
:104F70006A05A0936B05B0936C05BF91AF919F91AB
:104F80008F913F912F910F900FBE0F901F9018950A
:104F900026E8230F0296A11DB11DD2CF3FB7F8948A
:104FA0008091690590916A05A0916B05B0916C059F
:104FB00026B5A89B05C02F3F19F00196A11DB11D74
:104FC0003FBFBA2FA92F982F8827BC01CD01620FB0
:104FD000711D811D911D42E0660F771F881F991F6B
:104FE0004A95D1F708958F929F92AF92BF92CF9238
:104FF000DF92EF92FF926B017C01D0DF4B015C01ED
:10500000C114D104E104F104D9F0DBD4C7DF68197D
:1050100079098A099B09683E73408105910580F3EF
:1050200021E0C21AD108E108F10888EE880E83E079
:10503000981EA11CB11CC114D104E104F10431F784
:10504000FF90EF90DF90CF90BF90AF909F908F90A8
:105050000895789484B5826084BD84B5816084BDF0
:1050600085B5826085BD85B5816085BDEEE6F0E0E1
:10507000808181608083E1E8F0E01082808182603D
:105080008083808181608083E0E8F0E080818160BE
:105090008083E1EBF0E0808184608083E0EBF0E0EE
:1050A000808181608083E1E9F0E08081826080839B
:1050B000808181608083E0E9F0E08081816080838D
:1050C000E1EAF0E08081826080838081816080837A
:1050D000E0EAF0E0808181608083E1E2F1E08081BC
:1050E00082608083808181608083E0E2F1E0808162
:1050F00081608083EAE7F0E0808184608083808142
:1051000082608083808181608083808180688083E9
:105110001092C10008958150823108F059C0E82FE3
:10512000F0E08827EA56F74D8F4F91C4B628BA2889
:10513000A828AE28B228E828BD28C328C728CD282B
:10514000D128D528DB28DF28E828E328E928ED281E
:10515000809180008F7780938000089580918000F7
:105160008F7DF9CF80918000877FF5CF84B58F77D1
:1051700084BD089584B58F7DFBCF8091B0008F777B
:105180008093B00008958091B0008F7DF9CF809119
:1051900090008F77809390000895809190008F7D8C
:1051A000F9CF80919000877FF5CF8091A0008F7715
:1051B0008093A00008958091A0008F7DF9CF809109
:1051C000A000877FF5CF809120018F778093200109
:1051D0000895809120018F7DF9CF80912001877FF4
:1051E000F5CFCF93DF9390E0FC01E65DFE4F249175
:1051F00080599E4FFC0184918823C9F090E0880F6C
:10520000991FFC01E053FE4FA591B491FC01EA54B3
:10521000FE4FC591D49161110DC09FB7F8948C9148
:10522000209582238C938881282328839FBFDF9138
:10523000CF910895623051F49FB7F8943C91822F3A
:10524000809583238C93E8812E2BEFCF8FB7F89432
:10525000EC912E2B2C938FBFEACF1F93CF93DF932C
:10526000282F30E0F901EC51FF4F8491F901E65D00
:10527000FE4FD491F901E059FE4FC491CC23A1F027
:10528000162F811148DFEC2FF0E0EE0FFF1FEA54DC
:10529000FE4FA591B4918FB7F894EC91111108C00D
:1052A000D095DE23DC938FBFDF91CF911F910895BE
:1052B000DE2BF8CFFC01918D228D892F90E0805C50
:1052C0009F4F821B91098F7399270895FC01918D3F
:1052D000828D981731F0828DE80FF11D858D90E059
:1052E00008958FEF9FEF0895FC01918D828D98179F
:1052F00061F0A28DAE0FBF2FB11D5D968C91928D86
:105300009F5F9F73928F90E008958FEF9FEF0895B6
:10531000FC01538D448D252F30E0842F90E0821BBB
:10532000930B541710F0CF96089501970895FC0140
:10533000A48DA80FB92FB11DA35ABF4F2C91848DF6
:1053400090E001968F739927848FA689B7892C9353
:10535000A089B1898C91837080648C93938D848DA6
:10536000981306C00288F389E02D80818F7D8083A9
:105370000895CF93DF93EC01888D8823B1F0AA893B
:10538000BB89E889F9898C9185FD03C0808186FD00
:105390000CC00FB607FCF7CF8C9185FFF2CF808150
:1053A00085FFEDCFCE01C3DFEACFDF91CF91089526
:1053B000EF92FF920F931F93CF93DF93EC0181E065
:1053C000888F9B8D8C8D98131AC0E889F98980810C
:1053D00085FF15C09FB7F894EE89FF896083E8893F
:1053E000F98980818370806480839FBF81E090E031
:1053F000DF91CF911F910F91FF90EF900895F62EBE
:105400000B8D10E00F5F1F4F0F731127E02E8C8D57
:105410008E110BC00FB607FCFACFE889F98980819D
:1054200085FFF5CFCE0183DFF2CFEB8DEC0FFD2FA3
:10543000F11DE35AFF4FF0829FB7F8940B8FEA8972
:10544000FB8980818062D0CFCF92DF92EF92FF9272
:105450001F93CF93DF93EC016A017B01122FE88940
:10546000F98982E08083C11481EED806E104F10459
:1054700099F060E079E08DE390E0A7019601C5D254
:10548000215031094109510956954795379527957E
:10549000211580E1380790F0E889F989108260E8E9
:1054A00074E88EE190E0A7019601AFD22150310956
:1054B000410951095695479537952795EC85FD8506
:1054C0003083EE85FF852083188EEC89FD8910835B
:1054D000EA89FB89808180618083EA89FB898081F8
:1054E00088608083EA89FB89808180688083EA897B
:1054F000FB8980818F7D8083DF91CF911F91FF9009
:10550000EF90DF90CF9008951F920F920FB60F92F9
:1055100011240BB60F922F938F939F93EF93FF93CA
:10552000E0917D05F0917E058081E0918305F09109
:10553000840582FD1DC09081809186058F5F8F73E9
:1055400020918705821741F0E0918605F0E0E3594C
:10555000FA4F958F80938605FF91EF919F918F91E0
:105560002F910F900BBE0F900FBE0F901F901895AC
:105570008081F2CF1F920F920FB60F9211240BB6BB
:105580000F922F933F934F935F936F937F938F93DC
:105590009F93AF93BF93EF93FF938DE695E0C7DEA4
:1055A000FF91EF91BF91AF919F918F917F916F91FB
:1055B0005F914F913F912F910F900BBE0F900FBEB7
:1055C0000F901F901895EDE6F5E01382128288EE99
:1055D00093E0A0E0B0E084839583A683B78380ED59
:1055E00092E09183808385EC90E09587848784ECBA
:1055F00090E09787868780EC90E0918B808B81ECA0
:1056000090E0938B828B82EC90E0958B848B86EC80
:1056100090E0978B868B118E128E138E148E0895C8
:105620001F920F920FB60F9211240BB60F922F9369
:105630008F939F93EF93FF93E0911A06F0911B06CF
:105640008081E0912006F091210682FD1DC09081AD
:10565000809123068F5F8F7320912406821741F07B
:10566000E0912306F0E0E65FF94F958F80932306E3
:10567000FF91EF919F918F912F910F900BBE0F9003
:105680000FBE0F901F9018958081F2CF1F920F923E
:105690000FB60F9211240BB60F922F933F934F9397
:1056A0005F936F937F938F939F93AF93BF93EF938A
:1056B000FF938AE096E03BDEFF91EF91BF91AF91BF
:1056C0009F918F917F916F915F914F913F912F911A
:1056D0000F900BBE0F900FBE0F901F901895EAE031
:1056E000F6E01382128288EE93E0A0E0B0E08483BB
:1056F0009583A683B78380ED92E0918380838DECC0
:1057000090E0958784878CEC90E09787868788EC7B
:1057100090E0918B808B89EC90E0938B828B8AEC6C
:1057200090E0958B848B8EEC90E0978B868B118E1E
:10573000128E138E148E08951F920F920FB60F9231
:1057400011240BB60F922F938F939F93EF93FF9398
:10575000E091B706F091B8068081E091BD06F09126
:10576000BE0682FD1DC090818091C0068F5F8F7341
:105770002091C106821741F0E091C006F0E0E955A2
:10578000F94F958F8093C006FF91EF919F918F9174
:105790002F910F900BBE0F900FBE0F901F9018957A
:1057A0008081F2CF1F920F920FB60F9211240BB689
:1057B0000F922F933F934F935F936F937F938F93AA
:1057C0009F93AF93BF93EF93FF9387EA96E0AFDD8C
:1057D000FF91EF91BF91AF919F918F917F916F91C9
:1057E0005F914F913F912F910F900BBE0F900FBE85
:1057F0000F901F901895E7EAF6E01382128288EE68
:1058000093E0A0E0B0E084839583A683B78380ED26
:1058100092E09183808385ED90E09587848784ED85
:1058200090E09787868780ED90E0918B808B81ED6B
:1058300090E0938B828B82ED90E0958B848B86ED4C
:1058400090E0978B868B118E128E138E148E089596
:105850001F920F920FB60F9211240BB60F922F9337
:105860008F939F93EF93FF93E0915407F091550727
:105870008081E0915A07F0915B0782FD1DC0908105
:1058800080915D078F5F8F7320915E07821741F0D3
:10589000E0915D07F0E0EC5BF84F958F80935D073A
:1058A000FF91EF919F918F912F910F900BBE0F90D1
:1058B0000FBE0F901F9018958081F2CF1F920F920C
:1058C0000FB60F9211240BB60F922F933F934F9365
:1058D0005F936F937F938F939F93AF93BF93EF9358
:1058E000FF9384E497E023DDFF91EF91BF91AF91A7
:1058F0009F918F917F916F915F914F913F912F91E8
:105900000F900BBE0F900FBE0F901F901895E4E400
:10591000F7E01382128288EE93E0A0E0B0E0848387
:105920009583A683B78380ED92E09183808385E39E
:1059300091E09587848784E391E09787868780E369
:1059400091E0918B808B81E391E0938B828B82E35A
:1059500091E0958B848B86E391E0978B868B118EFB
:10596000128E138E148E0895AF92BF92CF92DF9253
:10597000EF92FF920F931F93CF93DF936C017B0104
:105980008B01040F151FEB015E01AE18BF08C01795
:10599000D10759F06991D601ED91FC910190F08108
:1059A000E02DC6011995892B79F7C501DF91CF91BB
:1059B0001F910F91FF90EF90DF90CF90BF90AF902D
:1059C00008950895DB018F939F9349D0BF91AF91C4
:1059D000A29F800D911DA39F900DB29F900D112449
:1059E0000895AA1BBB1B51E107C0AA1FBB1FA61726
:1059F000B70710F0A61BB70B881F991F5A95A9F778
:105A000080959095BC01CD010895A1E21A2EAA1BA4
:105A1000BB1BFD010DC0AA1FBB1FEE1FFF1FA2175E
:105A2000B307E407F50720F0A21BB30BE40BF50B5B
:105A3000661F771F881F991F1A9469F760957095E4
:105A4000809590959B01AC01BD01CF010895EE0FAB
:105A5000FF1F881F8BBF0790F691E02D199409D086
:105A6000A59F900DB49F900DA49F800D911D1124B2
:105A70000895A29FB001B39FC001A39F700D811D27
:105A80001124911DB29F700D811D1124911D089547
:105A9000FB01DC0102C001900D9241505040D8F74B
:105AA0000895DC0101C06D9341505040E0F7089526
:045AB000F894FFCF98
:105AB4000000803F0000A0410000803F0000000083
:105AC4000000FEFFFFFF01E8030000FFFF000000ED
:105AD40000FFFFFFFFFFFFFFFFFFFF0100010001C9
